:10000000025992020086E4FF027B8D027211E4FF26
:10001000027BB002008EE4FF027BD3027381E4F521
:10002000C9C20053F1DF9003D5E0FEA3E0F5CA5347
:10003000CC7FEE5401C313E41342CC53CCC0908761
:10004000E7E493543F42CC75C9012202009653E184
:10005000DF323202006E1287CC7F2A1274A17F60D9
:100060000286E70286FF53E1F7323202006A53F15B
:02007000F73265
:100073000270CC7F891274A1127A417F410286E714
:070083000200AE5388FD32BC
:07008B0002724F5388F732A7
:0700930002006653F1FB328D
:07009B0002005253E1BF32E5
:0700A30002004E53E17F3221
:0700AB0002009E53E1FD324B
:1000B3000200A6020258E86480F8E933E8336011CD
:1000C3000460F0ED33EC337009E8FCE9FDEAFEEB84
:1000D300FF220460DED3EB9FEA9EE99DE8C2E78C32
:1000E300F0C2F795F0400CE8CCF8E9CDF9EACEFA86
:1000F300EBCFFB12022385D0F05804700320D5B355
:10010300E80470075002B2D502026292D5EC046093
:10011300F7E4CCC0E0C398F8603B94186008400D46
:10012300D0E0FB02023AE4FBFAC9FC8028E830E4A1
:1001330006E4C9FBE4CAFCE830E305E4C9CACBFC26
:10014300E854076010F8C3E913F9EA13FAEB13FB59
:10015300EC13FCD8F130F52FC3E49CFCEF9BFFEECE
:100163009AFEED99FDD0E0FBEF4E4D4C701222DB71
:100173000302025FEC2CFCEF33FFEE33FEED33FDA5
:10018300ED30E7EB02023AEF2BFFEE3AFEED39FDDD
:10019300D0E0FB50130BBB0003020262ED13FDEE34
:1001A30013FEEF13FFEC13FC02023A75F020800EEE
:1001B30075F010800575F0087D007E007F00339296
:1001C300D530D5031207E2EC334010EF33FFEE33A3
:1001D300FEED33FDEC33FCD5F0ED22E5F0247EA2F9
:1001E300D513CC92E7CDCEFF22EDD2E7CD33EC335E
:1001F30092D524814006E4FFFEFDFC22FCE4CFCE31
:10020300CDCC24E0501174FF80EDC3CC13CCCD13BF
:10021300CDCE13CECF13CF0470F030D5DE0207E27C
:10022300E9D2E7C933E833F892D5EDD2E7CD33EC21
:1002330033FC5002B2D522EC30E7100FBF000C0E96
:10024300BE00080DBD00040BEB6014A2D5EB13FC3C
:10025300ED92E7FD2274FFFCFDFEFF22E480F8A28D
:10026300D574FF13FC7D80E480EFED33EC33601035
:1002730004700FED547F7005740292E0227404221F
:100283000422E422EC4D6011E8497017ED33EC339E
:1002930004600DE4FCFFFEFD22E933E8330470F84B
:1002A30002025812022358046009E4CC2481500648
:1002B30028500902026228400302025FC0E0EB4AB1
:1002C3007044B98006D0E0FB02024EEF4E701CBDB5
:1002D3008008EBFFEAFEE9FD80EBE98DF0A4FEE583
:1002E300F0020370E9CDF9EAFEEBFFEF89F0A4FC1D
:1002F300E5F0CE89F0A42EFFE435F0CD89F0A42DEE
:10030300FEE435F08067EF4E7005BD80D780C3EF04
:100313008BF0A4ACF0EE8BF0A42CFCE435F0F8EFFA
:100323008AF0A42CE5F038FCE433CB8DF0A42CFC4C
:10033300E5F03BF8EE8AF0A42CFCE5F038F8E43362
:10034300CF89F0A42CFCE5F038CF3400CE89F0A49B
:100353002FFFE5F03EFEE433C98DF0A42EFEE5F059
:1003630039CD8AF0A42FFFE5F03EFEE43DFD33D006
:10037300E0FB50070BBB000F020262EC2CFCEF33D7
:10038300FFEE33FEED33FD02023A74F8CC6480CC09
:10039300C86480C8F58204604FC3EB9FF5F0EA9E02
:1003A30042F0E99D42F0E89C45F0603C501DE58237
:1003B3005FFFE582D313CB5BCBF42B5582FB502835
:1003C3000ABA002409B9002008801DE5825BFBE519
:1003D30082D313CF5FCFF4C3132F5582FF50090E7F
:1003E300BE00050DBD00010CC3EB9FF5F0EA9E4274
:1003F300F0E99D42F0E89C45F06007CC4820E70116
:10040300B3EC22ED33EC33600A047003BD8004ECDB
:10041300B2E7FC22020262EC5D046005E859047055
:1004230003020258120223580460F6EC4860F2EC0F
:100433007004FDFEFF22C860DB2481C85009C39805
:100443006002500602025F9850CAF582E9294B4ABE
:100453007005AB8202024E75F0007C1A7880C3EF00
:100463009BEE9AED99400DC3EF9BFFEE9AFEED993B
:10047300FDE842F0DC23ACF0D0E0FFD0E0FED0E0BA
:10048300FDAB8220E7101BEB60BAEC2CFCEF33FFD3
:10049300EE33FEED33FD02023AE803F830E705C020
:1004A300F075F000EF2FFFEE33FEED33FD40B83073
:1004B300E7C280AAC0E0EFFBEEFAEDF9ECF8120216
:1004C30087D0E0F5F0EFFBEEFAEDF9ECF812083D1A
:1004D300A3A3A3A3E8C0E0E9C0E0EAC0E0EBC0E067
:1004E300C0F0120287120859A3A3A3A31200BDD020
:1004F300F0D0E0FBD0E0FAD0E0F9D0E0F8D5F0D4CA
:1005030022E709F608DFFA8046E709F208DFFA80F6
:100513003E88828C83E709F0A3DFFA8032E309F691
:1005230008DFFA8078E309F208DFFA807088828CAA
:1005330083E309F0A3DFFA806489828A83E0A3F668
:1005430008DFFA805889828A83E0A3F208DFFA8001
:100553004C80D280FA80C680D4806980F280338058
:100563001080A680EA809A80A880DA80E280CA8020
:100573003389828A83ECFAE493A3C8C582C8CCC5C5
:1005830083CCF0A3C8C582C8CCC583CCDFE9DEE742
:10059300800D89828A83E493A3F608DFF9ECFAA934
:1005A300F0EDFB2289828A83ECFAE0A3C8C582C8F6
:1005B300CCC583CCF0A3C8C582C8CCC583CCDFEA45
:1005C300DEE880DB89828A83E493A3F208DFF98083
:1005D300CC88F0EF60010E4E60C388F0ED2402B4C6
:1005E300040050B9F582EB2402B4040050AF232376
:1005F30045822390055473BB010689828A83E022D6
:100603005002E722BBFE02E32289828A83E493221B
:10061300BB010CE58229F582E5833AF583E022509C
:1006230006E92582F8E622BBFE06E92582F8E222E6
:10063300E58229F582E5833AF583E49322BB01063B
:1006430089828A83F0225002F722BBFE01F322F84B
:10065300BB010DE58229F582E5833AF583E8F022B3
:100663005006E92582C8F622BBFE05E92582C8F2B9
:1006730022EF8DF0A4A8F0CF8CF0A428CE8DF0A4A7
:100683002EFE22C2D5EC30E709B2D5E4C39DFDE4CA
:100693009CFCEE30E715B2D5E4C39FFFE49EFE1247
:1006A3000BD8C3E49DFDE49CFC8003120BD830D52A
:1006B30007C3E49FFFE49EFE22C5F0F8A3E028F001
:1006C300C5F0F8E582158270021583E038F022A3A5
:1006D300F8E0C5F025F0F0E582158270021583E09D
:1006E300C838F0E822BB010A89828A83F0E5F0A3C7
:1006F300F0225006F709A7F01922BBFE06F3E5F036
:1007030009F3192275F008758200EF2FFFEE33FE0F
:10071300CD33CDCC33CCC58233C5829BED9AEC99D6
:10072300E58298400CF582EE9BFEED9AFDEC99FC78
:100733000FD5F0D6E4CEFBE4CDFAE4CCF9A88222BF
:10074300B800C1B90059BA002DEC8BF084CFCECDDF
:10075300FCE5F0CBF97818EF2FFFEE33FEED33FD18
:10076300EC33FCEB33FB10D703994004EB99FB0FFD
:10077300D8E5E4F9FA227818EF2FFFEE33FEED33D4
:10078300FDEC33FCC933C910D7059BE99A4007EC4C
:100793009BFCE99AF90FD8E0E4C9FAE4CCFB227593
:1007A300F010EF2FFFEE33FEED33FDCC33CCC83327
:1007B300C810D7079BEC9AE899400AED9BFDEC9A89
:1007C300FCE899F80FD5F0DAE4CDFBE4CCFAE4C801
:1007D300F922CFF4CFCEF4CECDF4CDCCF4CC22C3DA
:1007E300E49FFFE49EFEE49DFDE49CFC22EB9FF569
:1007F300F0EA9E42F0E99D42F0EC6480C864809880
:1008030045F022EB9FF5F0EA9E42F0E99D42F0E8C5
:100813009C45F022E8600FECC313FCED13FDEE13CF
:10082300FEEF13FFD8F122E8600FEFC333FFEE337F
:10083300FEED33FDEC33FCD8F122E493FC74019319
:10084300FD740293FE740393FF22E0F8A3E0F9A37F
:10085300E0FAA3E0FB22E493F8740193F9740293A2
:10086300FA740393FB22ECF0A3EDF0A3EEF0A3EFF5
:10087300F022A8828583F0D083D08212088C1208DC
:100883008C12088C12088CE473E493A3C583C5F01F
:10089300C583C8C582C8F0A3C583C5F0C583C8C5D1
:1008A30082C822BB010789828A830208755005E941
:1008B300F8020C2DBBFE05E9F8020C4622D083D0CA
:1008C30082F8E4937012740193700DA3A393F874E8
:1008D3000193F5828883E4737402936860EFA3A3A2
:1008E300A380DF8A838982E473EC8EF0A4CCC5F005
:1008F300CCCDF8EFA4CEC5F02DFDE43CFCE8A42E4E
:10090300C8C5F03DFDE43CFCEFA4FFE5F028FEE4A0
:100913003DFDE43CFC22E709F60870FA8046E7094E
:10092300F20870FA803E88828C83E709F0A370FA9C
:10093300807EE309F60870FA8076E309F20870FA1C
:10094300806E88828C83E309F0A370FA80628982C7
:100953008A83E0A3F60870FA805689828A83E0A32B
:10096300F20870FA804A80D280FA80C680D480650B
:1009730080F28031801080A680EA809A80A880DA95
:1009830080E280CA803189828A83ECFAE493A3C827
:10099300C582C8CCC583CCF0A3C8C582C8CCC583E7
:1009A300CC70E9800D89828A83E493A3F60870F9F9
:1009B300ECFAA9F0EDFB2289828A83ECFAE0A3C862
:1009C300C582C8CCC583CCF0A3C8C582C8CCC583B7
:1009D300CC70EA80DD89828A83E493A3F20870F9FC
:1009E30080CE88F0ED2402B4040050C4F582EB24D9
:1009F30002B4040050BA232345822390096973E3A8
:100A0300F5F009E208B5F06BDFF58067E3F5F0096F
:100A1300E608B5F05EDFF5805A87F009E608B5F021
:100A230052DFF6804E87F009E208B5F046DFF68024
:100A33004288828C8387F009E0A3B5F036DFF68025
:100A43003288828C8387F009E493A3B5F025DFF520
:100A5300802188828C83E3F5F009E0A3B5F014DFED
:100A6300F5801088828C83E3F5F009E493A3B5F055
:100A730002DFF4020B31808780E9809080D4803ECE
:100A83008015806E807E809D80B7808D80A380518D
:100A93008074803C020B3D89828A83ECFAE493F5EF
:100AA300F0A3C8C582C8CCC583CCE493A3C8C582D0
:100AB300C8CCC583CCB5F076DFE3DEE180708982F4
:100AC3008A83E493F5F0A3E208B5F062DFF4805E75
:100AD30089828A83E0F5F0A3E608B5F051DFF5805B
:100AE3004D89828A83E0F5F0A3E208B5F040DFF593
:100AF300803C89828A83E493F5F0A3E608B5F02E5F
:100B0300DFF4802A8002805789828A83ECFAE49397
:100B1300F5F0A3C8C582C8CCC583CCE0A3C8C58201
:100B2300C8CCC583CCB5F006DFE4DEE280007FFFEE
:100B3300B5F0020F2240027F012289828A83ECFAF8
:100B4300E0F5F0A3C8C582C8CCC583CCE0A3C8C573
:100B530082C8CCC583CCB5F0D5DFE5DEE380CF8991
:100B6300828A83ECFAE0F5F0A3C8C582C8CCC583BA
:100B7300CCE493A3C8C582C8CCC583CCB5F0AFDFA2
:100B8300E4DEE280A988F0EF60010E4E60ABED2455
:100B930002B404005098F582EB2402B40400508E92
:100BA3002323458223900A7973EF4E6012EF60018D
:100BB3000EEDBB010B89828A83F0A3DFFCDEFA22F0
:100BC30089F05007F709DFFCA9F022BBFEFCF3090B
:100BD300DFFCA9F022BC000BBE0029EF8DF084FFDF
:100BE300ADF022E4CCF875F008EF2FFFEE33FEEC06
:100BF30033FCEE9DEC984005FCEE9DFE0FD5F0E92D
:100C0300E4CEFD22EDF8F5F0EE8420D21CFEADF02B
:100C130075F008EF2FFFED33FD4007985006D5F030
:100C2300F222C398FD0FD5F0EA22D083D082E49359
:100C3300F608740193F608740293F608740393F6A6
:100C4300740473D083D082E493F208740193F2089E
:100C5300740293F208740393F2740473900476EFAE
:100C6300F012879CA3EFF01208C00CD6010CD60239
:100C73000CD6120CD6131314141314151314160CC8
:100C8300D61712DC2212DC23131424131425131495
:100C93002612DC2712DC2812DC3212DC3313143464
:100CA3001314351314360CD6410CD64212FA4312E0
:100CB300FA4413145013B65313E7541447550CCB8B
:100CC30060144F700000145A7F011286E790047776
:100CD3007401F012836AEF6401700B1287A27F2EF6
:100CE3001274A10287659005B6E07062900476E005
:100CF300640A7037A3E06441700302145A12851921
:100D0300900477E0FD7C00640170057F600212F4BB
:100D1300ED64024C70057F010212F49006F7E07057
:100D2300030213B3E4F07F010212F4900476E0644B
:100D33000B701BA3E06401600302145A128519E4CB
:100D43009005B3F07F831274A17F020212F412851F
:100D530019900476E0FFC374809480407CD3EF94B1
:100D6300097480948050729005B6E0C39420748017
:100D730094805065900477E0FF64016005EF64029E
:100D83007016900476E0FF9005B6E0FE04F074B7A9
:100D93002EF582E43405803D9005B5E0FF7E0070BA
:100DA3001A900476E0FD9005B6E0FC04F074B72CCD
:100DB300F582E43405F583EDF0801EEF64014E7097
:100DC30018900476E0FF9005B6E0FE04F074D72E89
:100DD300F582E43405F583EFF0900476E0640A606D
:100DE30003020EBA9005B5E0FF7E00700FA3E0FD8D
:100DF30014F074B72DF582E434058015EF64014EC9
:100E030070149005B6E0FF14F074D72FF582E43424
:100E130005F58374FFF09005B6E0600302145A9061
:100E23000477E0640270057F8302144C9005B5E0FB
:100E3300703D900477E0FF64126005EF641770055E
:100E43007F6202144C900477E0641370057F740290
:100E5300144C900477E0644170057F8902144C9030
:100E63000477E06442600302145A7F6202144C90D8
:100E730005B5E06401600302145A900477E0FF644F
:100E8300126005EF641770057F6802144C900477B5
:100E9300E0641370057F0402144C900477E064410E
:100EA30070057F6802144C900477E064426003028B
:100EB300145A7F6802144C900476E0640B600B9024
:100EC30005B6E06408600302145A9005B6E0FF7E9D
:100ED30000C3940674809480400302103C9004770E
:100EE300E06401600302101BEF6401700E9005B70C
:100EF300E064057006127AD80210949005B6E06497
:100F030001700CA3E06406700612794D02109490F0
:100F130005B6E06402700EA3E0700AA3E070061247
:100F230085EA0210949005B6E064027012A3E064AF
:100F330001700CA3E06408700612875902109490A4
:100F430005B6E064027012A3E06401700CA3E064D0
:100F53000970061287D20210949005B6E0640270FD
:100F630010A3E06402700AA3E0700612875F021008
:100F7300949005B6E064027012A3E06402700CA3BF
:100F8300E0640570061287D50210949005B6E064FC
:100F9300027012A3E06402700CA3E06406700612F0
:100FA30086840210949005B6E064027012A3E06494
:100FB30002700CA3E0640870061284190210949066
:100FC30005B6E064027010A3E06403700AA3E07046
:100FD300061283B20210949005B6E064027032A345
:100FE300E0702EA3E0640170281287C3EF640170E0
:100FF3000E9005B304F07F831274A17F02800C7FEF
:1010030001127CF97F5F1274A17F011286E702103F
:10101300947F01126A3080797F651274A1E4900590
:10102300B6F09005B5E070030210E69005B5E064F4
:1010330001600302145A021137900477E0640170CF
:1010430057A3F07B017A0579B79005B6E0FD12331B
:10105300D6900478EFF0F470077F01126A30803184
:10106300900478E064FE70181287C3EF6401701077
:10107300FF127CF97F601274A17F011286E7801151
:10108300900478E0640170047F1180027F011249AB
:1010930081E49005B6F0804B900477E064027050D1
:1010A3007B017A0579B79005B6E0FDE490047DF005
:1010B3001246CAEFF470077F8C1274A1802090054A
:1010C300B3E064017010FF127CF97F601274A17F9A
:1010D300011286E780087F0112872F127DC5E490F5
:1010E30005B6F0FE7F207DFF7B017A0579B7804F3F
:1010F3009005B5E0704C900477E0FF6412601BEF3D
:10110300641770028014900477E0641370047F0402
:101113008016900477E0644170047F68800A90042D
:1011230077E0644270057F681274A19005B574017D
:10113300F0E4A3F0FE7F207DFF7B017A0579D702DF
:101143000BAC9005B5E06401600302145A78B77CD8
:10115300057D017B017A0579D7FE7F08120B88EFA5
:101163003395E04F60030212D4900477E064137068
:10117300507B017A0579B79005B6E0FD90047D7444
:1011830001F01246CA900478EFF0F470057F710203
:1011930012D6900478E0FF7D01126784EF701790F8
:1011A3000478E0900234F07F051274A1900234E0D9
:1011B300FF12848A80057F6E1274A112862A02129E
:1011C300D97B017A0579B79005B6E0FD90047D746B
:1011D30003F01246CAEFF460057F860212D690042C
:1011E30077E06412703F7B017A0579B79005B6E02A
:1011F300FD90047D7401F01247B6EF640170077F20
:101203006E1274A1800D7F051274A1900234E0FF69
:1012130012847A9006F7E060061286E30212D9126E
:1012230086200212D9900477E0644170317B017A01
:101233000579B79005B6E0FDE490047DF01247B65A
:10124300EF640170077F6E1274A1800D7F05127425
:10125300A1900234E0FF12847A12838E8078900486
:1012630077E06442702E7B017A0579B79005B6E08A
:10127300FDE490047DF01247B6EF640170077F6EC2
:101283001274A180477F051274A1900234E0FF120B
:10129300847A8038900477E06417703A7B017A058A
:1012A30079B79005B6E0FD90047D7402F01247B65D
:1012B300EF640170077F6E1274A180101287777F2D
:1012C300051274A1900234E0FF12847A127DC58066
:1012D300057FD31274A1027A41900476E0640A6018
:1012E3000302145A1285199006F7E06007E4F07FB1
:1012F300010286E70213B3900476E0640A600302F6
:10130300145A1285191287C0EF700302861602134E
:10131300B3900476E0640B60030213A51285199061
:101323000477E01208C0134B14139015139316138C
:101333006224139625139926137934139C35139F2E
:101343003613A2500000145A126028EF700A7F056A
:101353001274A112874180057F081274A180511273
:101363006208EF700A7F051274A112874780057F18
:10137300081274A1803A1263D7EF700A7F051274C2
:10138300A112874D80057F081274A18023027D8BF3
:1013930002859D027C1802837C027DA80285AA0235
:1013A3006D16900476E0640A600302145A128519DC
:1013B300027DC5900476E0640A7006128519026105
:1013C30092900476E0700302145A128735900476E3
:1013D300E0D39F400302145A128519900476E01457
:1013E300FF02684D12873B900478EFF06496700B10
:1013F300128519900476E0FF02651C900478E0647E
:10140300997035900476E0640A7018128519128574
:10141300D11287BDEF600280287F587E02127AB313
:101423000285C4900476E0640B702C128519128532
:10143300D17D017F990270881287BDEF60191285F3
:10144300190285551287A27F4D0274A11287A27FCC
:101453002F1274A11285642290049FE0F9A3E0FA8D
:10146300A3E09004CAC9F0A3EAF0A3E9F0A37401CE
:10147300F0A37404F0A374A8F090049CE0FBA3E031
:10148300FAA3E0F99004C7EBF0A3EAF0A3E9F09024
:101493000006120613FF3395E0FEEF24D0FFEE346F
:1014A300FFFE7C007D0A120674C006C0079000058B
:1014B300120613FF3395E0FEEF24D0FFEE34FFFE58
:1014C3007D64120674D0E02FFFD0E03EFE9000074B
:1014D300120613FD3395E0FCED24D0FDEC34FFCD73
:1014E3002FFFED3E9004D0F0A3EFF0E49004DCF086
:1014F300A3F09004CAE0FBA3E0FAA3E0F91282F39D
:101503009004E7EEF0A3EFF0E49004F3F0A3F07A95
:101513000479F59004D012510CE49004DCF0A3F0AC
:101523009004DCE0FEA3E0FFC39405EE64809480A6
:1015330050639004C7E0FBA3E0FAA3E0F98F828E27
:1015430083120613FF3395E0FEEF24D0FFEE34FF42
:101553009004FFF0A3EFF09004FFE0FEA3E024F576
:10156300F58274043EF583E0FD9004DDE025E0FFA1
:101573009004DCE033FE74D22FF58274043EF583CD
:10158300E4F0A3EDF09004DDE004F070939004DC4C
:10159300E004F0808B7E007F097D007B017A047973
:1015A300DE120BAC9004E7E07004A3E0640870164D
:1015B30078DE7C047D019004CAE0FBA3E0FAA3E09B
:1015C300F91209E58079D39004E8E094089004E7E0
:1015D300E06480948040279004CAE0F9A3E0FAA372
:1015E300E0900504C9F0A3EAF0A3E9F0A3E4F0A3B3
:1015F3007408F07B017A0479DE126585804178DE18
:101603007C047D019004CAE0FBA3E0FAA3E0F91295
:1016130009E590050474FFF0A37488F0A374CFF078
:101623009004E7E0FEA3E0FFC374089F900508F071
:10163300E49E900507F07B017A0479DE124B3A9021
:1016430004DFE0FB3395E0FA9004DEE0FF3395E03E
:10165300FEC3EF9BFFEE9AFE9004E0E0F9FD3395A5
:10166300E0FCEF2DFFEE3CFEA3E0FD3395E0FCC371
:10167300EF9DFFEE9CFEA3E0FD3395E0FCEF2DFF15
:10168300EE3CFEA3E0FD3395E0FCC3EF9DFFEE9C33
:10169300FEA3E0FD3395E0FCEF2DFFEE3CFEA3E05F
:1016A300FD3395E0FCC3EF9DFFEE9C9004E9F0A3AE
:1016B300EFF0C374309BFFE49AFEE9FD3395E0FC41
:1016C300EF2DFFEE3CFE9004E1E0F9FB3395E0FAE9
:1016D300C3EF9BFFEE9AFEA3E0FB3395E0FAEF2BFB
:1016E300FFEE3AFEA3E0FB3395E0FAC3EF9BFFEE78
:1016F3009AFEA3E0FB3395E0FAEF2BFFEE3AFEA34D
:10170300E0FB3395E0FAC3EF9BFFEE9A9004EBF016
:10171300A3EFF0E9FF3395E0FEC3ED9FFFEC9EFEE0
:101723009004E2E0FD3395E0FCEF2DFFEE3CFEA3D9
:10173300E0FB3395E0FAC3EF9BFFEE9AFEA3E0FBD9
:101743003395E0FAEF2BFFEE3AFEA3E0FB3395E08F
:10175300FAC3EF9BFFEE9A9004EDF0A3EFF0E9FFDD
:101763003395E0FEC374309FCFE49ECF2DCF3CFE74
:101773009004E3E0FD3395E0FCC3EF9DFFEE9CFE98
:10178300A3E0F9FB3395E0FAEF2BFFEE3AFEA3E07B
:10179300FB3395E0FAC3EF9BFFEE9A9004EFF0A3BF
:1017A300EFF09004E2E0FF3395E0FEC3EF9DFFEE20
:1017B3009CFEE9FD3395E0FCEF2DFFEE3CFE90042B
:1017C300E5E0FD3395E0FCC3EF9DFFEE9C9004F153
:1017D300F0A3EFF0E49004DCF0A3F09004DCE0FA73
:1017E300A3E0FB25E0FFEA33FE74E92FF5827404DE
:1017F3003EF583E0FCA3E0FD74D22FF58274043E32
:10180300F583E0FEA3E0C39DFFEE9CCF2464CF34B9
:1018130000FE7C007D0A120686EB25E0FFEA33FE1C
:1018230074D22FF58274043EF583ECF0A3EDF090AF
:1018330004DDE004F070069004DCE004F09004DCC6
:10184300E07004A3E064057092E49004DCF0A3F07C
:101853009004DCE0FEA3E0FFC39405EE6480948073
:10186300400302191D7C007D02120686ED4C702791
:10187300E025E0FF9004DCE033FE74D22FF58274A0
:10188300043EF583A3E025E0FD0582D5820215839E
:101893001582E033FC80289004DDE025E0FF90040E
:1018A300DCE033FE74D22FF58274043EF583E0FE50
:1018B300A3E0FF7C007D03120674AC06AD07EC12B7
:1018C30001B3C004C005C006C00790050512087522
:1018D30040000000D007D006D005D004123E7FC0E0
:1018E30004C005C006C0079004F3E0FCA3E0FDECD0
:1018F3001201B3D003D002D001D0001200BD1201F7
:10190300EC9004F3EEF0A3EFF09004DDE004F0704C
:10191300069004DCE004F00218539004F3E0FEA305
:10192300E0FF9004D0E06E7003A3E06F6003021940
:10193300F49004D2A3E0FF9004CDE0FBA3E0FAA36C
:10194300E0F9EF1206409004D4A3E0FF9004CDE049
:10195300FBA3E0FAA3E0F9900001EF120652900412
:10196300D6A3E09000021206529004D8A3E09000A0
:10197300031206529004DAA3E09000041206529078
:1019830004C7E0FBA3E0FAA3E0F9900005120613F5
:1019930024D0FF9004CDE0FBA3E0FAA3E0F990008C
:1019A30005EF1206529004C7E0FBA3E0FAA3E0F9A7
:1019B30090000612061324D0FF9004CDE0FBA3E0B1
:1019C300FAA3E0F9900006EF1206529004C7E0FB79
:1019D300A3E0FAA3E0F990000712061324D0FF90C6
:1019E30004CDE0FBA3E0FAA3E0F9900007EF0206C1
:1019F30052E49004DCF0A3F09004DCE0FEA3E0FFEB
:101A0300C39408EE6480948050249004CDE0FBA33B
:101A1300E0FAA3E0F98F828E8374FF1206529004DA
:101A2300DDE004F070D29004DCE004F080CA229080
:101A330004C7EBF0A3EAF0A3E9F090000612061343
:101A430075F00AA4FDACF090000512061375F0645E
:101A5300A42DFFE5F03CFE9000071206137C002F37
:101A6300FFEC3E9004D0F0A3EFF09004CAE0FBA398
:101A7300E0FAA3E0F91282F39004E5EEF0A3EFF0AD
:101A8300E4A3F0A3F09004F3F0A3F07A0479F590C3
:101A930004D012510CE49004E7F0A3F09004E7E0C3
:101AA300FEA3E0FFC39405EE648094805059900434
:101AB300C7E0FBA3E0FAA3E0F98F828E831206133B
:101AC300FF9004FFE4F0A3EFF09004FFE0FEA3E037
:101AD30024F5F58274043EF583E0FD9004E8E025E7
:101AE300E0FF9004E7E033FE74D22FF58274043EE6
:101AF300F583E4F0A3EDF09004E8E004F0709D902A
:101B030004E7E004F080957E007F097D007B017A85
:101B13000479DC120BAC9004E5E07004A3E06408E4
:101B2300701678DC7C047D019004CAE0FBA3E0FA24
:101B3300A3E0F91209E58079D39004E6E0940890D4
:101B430004E5E06480948040279004CAE0F9A3E0B0
:101B5300FAA3E0900504C9F0A3EAF0A3E9F0A3E433
:101B6300F0A37408F07B017A0479DC126585804167
:101B730078DC7C047D019004CAE0FBA3E0FAA3E0D7
:101B8300F91209E590050474FFF0A37488F0A374B7
:101B9300CFF09004E5E0FEA3E0FFC374089F900537
:101BA30008F0E49E900507F07B017A0479DC124B80
:101BB3003A9004DDE0FB3395E0FA9004DCE0FF3378
:101BC30095E0FEC3EF9BFFEE9AFE9004DEE0F9FD85
:101BD3003395E0FCEF2DFFEE3CFEA3E0FD3395E0F3
:101BE300FCC3EF9DFFEE9CFEA3E0FD3395E0FCEF0D
:101BF3002DFFEE3CFEA3E0FD3395E0FCC3EF9DFF1C
:101C0300EE9CFEA3E0FD3395E0FCEF2DFFEE3CFEE2
:101C1300A3E0FD3395E0FCC3EF9DFFEE9C9004E948
:101C2300F0A3EFF0C374309BFFE49AFEE9FD339514
:101C3300E0FCEF2DFFEE3CFE9004DFE0F9FB339573
:101C4300E0FAC3EF9BFFEE9AFEA3E0FB3395E0FAC5
:101C5300EF2BFFEE3AFEA3E0FB3395E0FAC3EF9BD5
:101C6300FFEE9AFEA3E0FB3395E0FAEF2BFFEE3A8B
:101C7300FEA3E0FB3395E0FAC3EF9BFFEE9A9004DB
:101C8300EBF0A3EFF0E9FF3395E0FEC3ED9FFFEC2C
:101C93009EFE9004E0E0FD3395E0FCEF2DFFEE3C6B
:101CA300FEA3E0FB3395E0FAC3EF9BFFEE9AFEA39E
:101CB300E0FB3395E0FAEF2BFFEE3AFEA3E0FB33B4
:101CC30095E0FAC3EF9BFFEE9A9004EDF0A3EFF0DB
:101CD300E9FF3395E0FEC374309FCFE49ECF2DCF51
:101CE3003CFE9004E1E0FD3395E0FCC3EF9DFFEE85
:101CF3009CFEA3E0F9FB3395E0FAEF2BFFEE3AFEEF
:101D0300A3E0FB3395E0FAC3EF9BFFEE9A9004EF59
:101D1300F0A3EFF09004E0E0FF3395E0FEC3EF9D06
:101D2300FFEE9CFEE9FD3395E0FCEF2DFFEE3CFE5C
:101D33009004E3E0FD3395E0FCC3EF9DFFEE9C9040
:101D430004F1F0A3EFF0E49004E7F0A3F09004E7CC
:101D5300E0FAA3E0FB25E0FFEA33FE74E92FF58206
:101D630074043EF583E0FCA3E0FD74D22FF5827486
:101D7300043EF583E0FEA3E0C39DFFEE9CCF246405
:101D8300CF3400FE7C007D0A120686EB25E0FFEAD5
:101D930033FE74D22FF58274043EF583ECF0A3ED89
:101DA300F09004E8E004F070069004E7E004F0909B
:101DB30004E7E07004A3E064057092E49004E7F0A4
:101DC300A3F09004E7E0FEA3E0FFC39405EE648074
:101DD30094804003021E8F7C007D02120686ED4C28
:101DE3007027E025E0FF9004E7E033FE74D22FF57F
:101DF3008274043EF583A3E025E0FD0582D58202CB
:101E030015831582E033FC80289004E8E025E0FF89
:101E13009004E7E033FE74D22FF58274043EF58319
:101E2300E0FEA3E0FF7C007D03120674AC06AD0761
:101E3300EC1201B3C004C005C006C007900505122B
:101E4300087540000000D007D006D005D004123E2C
:101E53007FC004C005C006C0079004F3E0FCA3E004
:101E6300FDEC1201B3D003D002D001D0001200BDAB
:101E73001201EC9004F3EEF0A3EFF09004E8E00419
:101E8300F070069004E7E004F0021DC59004F3E04F
:101E9300FEA3E0FF9004D0E06E7003A3E06F600345
:101EA300021F609004D2A3E0FF9004CDE0FBA3E007
:101EB300FAA3E0F9EF1206409004D4A3E0FF9004E4
:101EC300CDE0FBA3E0FAA3E0F9900001EF12065284
:101ED3009004D6A3E09000021206529004D8A3E027
:101EE3009000031206529004DAA3E0900004120655
:101EF300529004C7E0FBA3E0FAA3E0F990000512B7
:101F03000613FF9004CDE0FBA3E0FAA3E0F99000F1
:101F130005EF1206529004C7E0FBA3E0FAA3E0F931
:101F2300900006120613FF9004CDE0FBA3E0FAA392
:101F3300E0F9900006EF1206529004C7E0FBA3E01D
:101F4300FAA3E0F9900007120613FF9004CDE0FB1B
:101F5300A3E0FAA3E0F9900007EF020652E490042D
:101F6300E7F0A3F09004E7E0FEA3E0FFC39408EEDC
:101F73006480948050249004CDE0FBA3E0FAA3E0B6
:101F8300F98F828E8374FF1206529004E8E004F006
:101F930070D29004E7E004F080CA22900476EFF058
:101FA300E4A3F0A3F0A3F012879CA3EFF064707096
:101FB3000B1287A27F2F1274A102856490047AE02A
:101FC300646070057F011286E790047AE0FF7E006B
:101FD30064016021EF6422601CEF64236017EF64E7
:101FE300436012EF6444600DEF64276008EF6428D8
:101FF3006003022430EF64544E700B12873BEF648E
:102003000560030224301287A212836AEF64017011
:102013000B1287A27F2E1274A102876B1200069007
:102023000477EFF060030224269005B5E0FF1271F8
:10203300D2900477EFF060030224269005B5E0FF09
:102043007B017A0479781268B1900477EFF060032A
:102053000221DA90047AE064017038900478A3E0F6
:10206300FF7D031275B0900477EFF060030221E265
:10207300A3A3E0900234F07F021287AB900478A30D
:10208300E0FF7D021275B0EF70047F1280027F02C1
:1020930002498190047AE0FF64226014EF64436094
:1020A3000FEF6444600AEF64276005EF6454700A1D
:1020B3007F031287AB7F6E02242D90047AE0FF64C6
:1020C300236008EF6428600302243090047AE064FC
:1020D30023700A900478A3E0FF7D01801090047AB6
:1020E300E064287010900478A3E0FF7D021275B0BD
:1020F300900477EFF0900477E060030221D090051D
:10210300B5E0701504F0900478A3E09005AEF07F7D
:10211300021287AB7F1102242D9005AEE0FF7E00F3
:10212300900478E0FCA3E0FDB5070BEEB50407E4EB
:10213300900477F0800690047774FFF0900477E0C2
:10214300707E90047AE064237006AF057D018010F1
:1021530090047AE064287010900478A3E0FF7D0275
:10216300127309900477EFF0900477E0700EA3E008
:10217300FEA3E0FF1286EA900477EFF0900477E085
:1021830070157F021287AB7F051274A1900478A3A8
:10219300E0FF1284AA800A7F031287AB7F6E12745A
:1021A300A190047AE064237006128648022400900A
:1021B300047AE064286003022400127DC50224002F
:1021C3007F031287AB7FD31274A10224007F031213
:1021D30087AB7F7D02242D90047AE06401700A7F2F
:1021E300031287AB7F02026A3090047AE0FF642215
:1021F3006017EF64436012EF6444600DEF6427607F
:1022030008EF645460030224159005B5E06403608D
:102213000302240612000E900477EFF060030223FA
:10222300F690047AE0FF7E006422600DEF6427607D
:1022330008EF6454600302235EEF64274E700512B7
:1022430074D98003127619900478E4F0A3EFF09028
:102253000478E07003A3E0F4700D7F031287AB7F73
:102263005C1274A10223F1900478E0FCA3E0FDE486
:10227300FF126D64900477EFF090047AE0642270AB
:1022830056900477E07019A3A3E0FF7D011278C490
:10229300900477EFF06009A3E0FEA3E0FF1286EA63
:1022A300900477E070157F021287AB7F051274A14B
:1022B300900478A3E0FF12849A800A7F031287AB0D
:1022C3007F6E1274A19006F7E060061286E3022483
:1022D3000012863E02240090047AE06427704A903C
:1022E3000477E07019A3A3E0FF7D021278C4900481
:1022F30077EFF06009A3E0FEA3E0FF1286EA900403
:1023030077E070187F021287AB7F051274A11287E2
:1023130077900478A3E0FF12849A800A7F031287E0
:10232300AB7F6E1274A10223F1900477E0700EA3C9
:10233300E0FEA3E0FF1286EA900477EFF0900477C3
:10234300E070097F021287AB7D0180077F0312874C
:10235300ABE4FD7F0512708802240090047AE0FF4D
:102363007E0064437008900478F0A3F0800DEF645E
:10237300444E7007900478F0A304F0900478E0FED4
:10238300A3E0FF1286EA900477EFF07010A3E0FC5D
:10239300A3E0FDE4FF126D64900477EFF0900477FF
:1023A300E0700EA3A3E0FFE4FD1278C4900477EF7E
:1023B300F0900477E070157F021287AB7F051274EB
:1023C300A1900478A3E0FF12849A800A7F03128706
:1023D300AB7F6E1274A11287C0EF701290047AE083
:1023E300644370051283A08014128616800F127D39
:1023F300C5800A7F031287AB7F7A1274A1E490052C
:10240300B5F0229005B5E004F07F021287AB7F118F
:10241300801890047AE0642370137F031287AB7FE4
:102423007D80077F031287AB7F111274A122900472
:1024330076EFF0A205920690047A7403F0126FFD12
:102443003005030227BC900476E0FF25E02407F55E
:1024530082E43488F583E493FC740193FD75F00200
:10246300EFA424D5F582E5F03403F583ECF0A3ED76
:10247300F0900476E0FE9087E793FF900479F0757F
:10248300F002EEA424D5F582E5F03403F583E0FCF5
:10249300A3E0FD1275E5900476E0FD75F002A42437
:1024A30036F582E5F03404F583EEF0A3EFF075F032
:1024B30002EDA42436F582E5F03404F583E0FEA3AF
:1024C300E0FF900477E0FCA3E0FDD3EF9DEE9C508A
:1024D300030226A7900476E0FF75F002A42436F5E4
:1024E30082E5F03404F583E0FCA3E0FD900477E09B
:1024F300FAA3E0FBD3ED9BEC9A50030225C375913D
:102503000775F002EFA424D5F582E5F03403F583D3
:10251300E0FEA3E0C394FFEE940140030225C390C1
:102523000476E0FF75F002A424D5F582E5F03403C8
:10253300F583E475F0011206BC75F002EFA424D50F
:10254300F582E5F03403F583E0FCA3E0FD90047924
:10255300E0FF1275E5900476E0FD75F002A42436E1
:10256300F582E5F03404F583EEF0A3EFF075F002A5
:10257300EDA42436F582E5F03404F583E0FEA3E010
:10258300FF75F002EDA424EDF582E5F03403F58345
:10259300EEF0A3EFF075F002EDA42436F582E5F03A
:1025A3003404F583E0FEA3E0FF75F002EDA42411EB
:1025B300F582E5F03404F583EEF0A3EFF00224D7BF
:1025C300E5CDC454072409F9E47F01FEFDFCA8010D
:1025D30012082AEF24F6FBEE34FFFAED34FFF9EC90
:1025E30034FFF8900476E075F002A42436F582E512
:1025F300F03404F583E0FEA3E0FFE4FCFDD312080E
:102603000640030226A7900476E0FF75F002A42497
:10261300D5F582E5F03403F583E475F0011206BCC9
:1026230075F002EFA424D5F582E5F03403F583E0D9
:10263300FCA3E0FD900479E0FF1275E5900476E0D9
:10264300FD75F002A42436F582E5F03404F583EE3B
:10265300F0A3EFF075F002EDA42436F582E5F03433
:1026630004F583E0FEA3E0FF75F002EDA424EDF58D
:1026730082E5F03403F583EEF0A3EFF075F002ED9D
:10268300A42436F582E5F03404F583E0FEA3E0FFED
:1026930075F002EDA42411F582E5F03404F583EE20
:1026A300F0A3EFF0900476E075F002A42436F582EF
:1026B300E5F03404F583E0FEA3E0FF900477E0FC4B
:1026C300A3E0FDD3EF9DEE9C40030227BC9004766C
:1026D300E0FF75F002A42436F582E5F03404F583B7
:1026E300E0FCA3E0FD900477E0FAA3E0FBC3ED9BDD
:1026F300EC9A40030227BC75910775F002EFA424FE
:10270300D5F582E5F03403F583E0FEA3E0D394002E
:10271300EE940050030227BC900476E0FF75F002AC
:10272300A424D5F582E5F03403F58374FFF5F012A4
:1027330006BC75F002EFA424D5F582E5F03403F569
:1027430083E0FCA3E0FD900479E0FF1275E59004BB
:1027530076E0FD75F002A42436F582E5F03404F545
:1027630083EEF0A3EFF075F002EDA42436F582E5D5
:10277300F03404F583E0FEA3E0FF75F002EDA4243A
:10278300EDF582E5F03403F583EEF0A3EFF075F099
:1027930002EDA42436F582E5F03404F583E0FEA3CC
:1027A300E0FF75F002EDA42411F582E5F03404F5A1
:1027B30083EEF0A3EFF00226D022AB07EB25E02453
:1027C3005EF582E43488F583E493FF740193900407
:1027D3007ACFF0A3EFF0EB25E0245EF582E43488B2
:1027E300F583E493FC740193FD90884EE493FF7E9C
:1027F30000120674EEC4F854F0C868FEEFC4540F18
:1028030048FF90047CEEF0A3EFF075F002EBA424F4
:1028130036F582E5F03404F583E0FEA3E0FF75F0BE
:1028230002EBA424EDF582E5F03403F583E0FCA389
:10283300E0C39FFFEC9EFE900478F0A3EFF0C3EE9D
:1028430064809480500302299AA3E0FEA3E0FF90E2
:102853000478E0FCA3E0FD9FEE6480F8EC648098CC
:10286300401074A12BF582E43403F5837401F00264
:10287300296690047CE0FEA3E0FFC3ED9FEE648035
:10288300F8EC648098405874662BF582E43404F5C0
:1028930083E004F074B92BF582E43403F583E4F0A8
:1028A300745A2BF582E43404F583E4F074AD2BF50C
:1028B30082E43403F583E4F074662BF582E4340494
:1028C300F583E0FF90071AE0FEEFC39E5003022951
:1028D3006674662BF582E43404F583E4F0806E7449
:1028E300662BF582E43404F583E4F074B92BF582A6
:1028F300E43403F583E004F0745A2BF582E43404E2
:10290300F583E4F074AD2BF582E43403F583E4F04E
:1029130074B92BF582E43403F583E0FF90071CE0E0
:10292300FEEFC39E403D74B92BF582E43403F58377
:10293300E4F075F002EBA424EDF582E5F03403F541
:1029430083E0FEA3E0D39400EE9400401675F002FA
:10295300EBA424EDF582E5F03403F58374FFF5F081
:102963001206BC9088A0E493FE740193FFC3900405
:102973007BE09FFF90047AE09EFEC3900479E09F82
:10298300900478E09E4003022B0B74A12BF582E4A4
:102993003403F583E4F02274A12BF582E43403F5C8
:1029A30083E4F090047CE0FEA3E0FFC3E49FFFE434
:1029B3009EFEC3900479E09FEE6480F8900478E073
:1029C300648098406C74662BF582E43404F583E4E8
:1029D300F074B92BF582E43403F583E4F0745A2BD5
:1029E300F582E43404F583E004F074AD2BF582E45E
:1029F3003403F583E4F0745A2BF582E43404F5834D
:102A0300E0FF900719E0FEEFC39E5003022B0B7407
:102A13005A2BF582E43404F583E4F075F002EBA459
:102A230024EDF582E5F03403F583E475F001022B20
:102A33000874662BF582E43404F583E4F074B92B4F
:102A4300F582E43403F583E4F0745A2BF582E4341D
:102A530004F583E4F074AD2BF582E43403F583E0ED
:102A630004F074AD2BF582E43403F583E0FF9007A3
:102A73001BE0FEEFC39E5003022B0B74AD2BF582BC
:102A8300E43403F583E4F090047BE025E0FD900457
:102A93007AE033FCE0A2E713FEA3E0132DFFEE3C44
:102AA300FEC3E49FFFE49EFED3900479E09FEE64AF
:102AB30080F8900478E0648098502975F002EBA4C4
:102AC3002436F582E5F03404F583E0FEA3E0FF75D8
:102AD300F002EBA424EDF582E5F03403F583EEF088
:102AE300A3EFF02290047CE0FEA3E0FF7C007D05D1
:102AF30012068675F002EBA424EDF582E5F03403AB
:102B0300F583EE8FF01206BC22C101C103C102C1DD
:102B130000410472004406FDFFFFFFFF440701FF6D
:102B2300FFFFFF440694FFFFFFFF420698000041AA
:102B3300069A00440664FFFFFFFF41066800410652
:102B43007F004106690054066B000000000000008E
:102B53000000000000000000000000000041066AC1
:102B6300004406B4FFFFFFFF5006B8EF01FFFFFF6D
:102B7300FF0100074101010050009B44069BFFFF3A
:102B8300FFFF41069F00440705FFFFFFFF440709BE
:102B9300FFFFFFFF44070DFFFFFFFF440711FFFF88
:102BA300FFFF4406EDFFFFFFFF4206F1000044076D
:102BB30015FFFFFFFF4406F3FFFFFFFF4106F7008A
:102BC30044071DFFFFFFFF01170001190001180053
:102BD300011A0044061FFFFFFFFF440721FFFFFF09
:102BE300FF4405AFFFFFFFFF4105B6004105B5FFF9
:102BF300011CFF011BFF4105B4004105B300410562
:102C0300AD004105AE0060960517022300032700BF
:102C13000423000725000826000A27000D23000FC0
:102C230025000824001627001E27002023001F2745
:102C3300002823002B24002C24002D240051425271
:102C43004325005146524925005144524525005120
:102C53004852472500514A524B25005133523453B1
:102C63003525005136523853392500513A523C53D9
:102C73003D2500513E524053412500062700514255
:102C83002500513052312500513A523C2500513034
:102C930052315332543355345635575D58612500FC
:102CA30044038CFFFFFFFF41039A0042039100009E
:102CB300420393000042039C000041039000410340
:102CC3009B0041039E004102C10041039F00410359
:102CD300A00042038A000043039700000060B4028F
:102CE300D6010300000001050000000107000000F9
:102CF30001080000000109000000010BFF867A01B2
:102D03000CFF7F4B010CFF7F64010CFF7F7D010AE9
:102D13000000000A04FF7C5B0A06000000020800B2
:102D230000000209000000020BFF867A030DFF7DFD
:102D33008B030FFF859D0310FF8634052DFF7C1841
:102D4300052FFF837C0530FF8652062DFF7A670629
:102D53002FFF7A8D0747FF7DA80749FF85AA074AFA
:102D6300FF86700882FF85B708830000008362FF37
:102D7300838E8363FF83A0096A0000000984000037
:102D8300006A69FF7EE76A68FF7F00846FFF7F192F
:102D93008470FF7F324406F8FFFFFFFF4106FC000B
:102DA3005E064601E602B303BB05C307CB089509DC
:102DB3009B0ADA06E06AA76AA783A184AD9EFFFF98
:102DC300FF440725FFFFFFFF4405F7FFFFFFFF4C0D
:102DD300061300000000000000000000000044068D
:102DE300E6FFFFFFFF4106EA004206EB0000440254
:102DF30030FFFFFFFF410234FF4406C9FFFFFFFF1F
:102E03004106CD004106D5004206D300004506CE5B
:102E1300960507999B4106C8004406E0FFFFFFFFA4
:102E23004206E400004106DE004106DF0000900494
:102E33009CEBF0A3EAF0A3E9F0E49004C0F0A3F064
:102E4300A3F0A3F0A3F0A3F0A3F0FE7F08FD7B01A2
:102E53007A0479A8120BAC7E007F087D007B017A8F
:102E63000479B0120BAC7E007F087D007B017A04ED
:102E730079B8120BAC9004A2E0FBA3E0FAA3E0F94B
:102E8300EA494B70030230FD1205FAF46003022F86
:102E9300AD900001120613F46003022FAD900002FF
:102EA300120613F46003022FAD900003120613F40D
:102EB3006003022FAD900004120613F46003022F87
:102EC300AD900005120613F46003022FAD900006C7
:102ED300120613F46003022FAD900007120613F4D9
:102EE3006003022FAD12145B9004A8E0F9F470069E
:102EF3009004C0F0FF229004A9E0FF7E007C037DD4
:102F0300E8120674AA06AB07E9FF7E007C277D1052
:102F1300120674EF2BFDEE3AFCA3E075F064A42DCA
:102F2300FDE5F03CFCA3E075F00AA42DFFE5F03CC1
:102F3300FEA3E07C002FFFEC3EFE9004C1F0A3EF64
:102F4300F0C39004C4E09FEE6480F89004C3E0648F
:102F5300809840030230F5E49004C5F0A3F0900498
:102F63009CE0FBA3E0FAA3E0F99004C5E0FEA3E034
:102F7300FFF5828E8312061324D0FD74B02FF582E1
:102F830074043EF583EDF09004C6E004F0700690FF
:102F930004C5E004F09004C5E07004A3E064087085
:102FA300BD9004C07401F00230F590049FE0F9A3D2
:102FB300E0FAA3E09004CAC9F0A3EAF0A3E9F0A3FE
:102FC3007401F0A37404F0A374B8F09004A2E0FBBE
:102FD300A3E0FAA3E0F9121A329004B8E0F4700304
:102FE3000230FE12145B9004A8E0F470030230FE7A
:102FF3009004A9E0FF7E007C037DE8120674AA0614
:10300300AB079004A8E0FF7E007C277D10120674B6
:10301300EF2BFDEE3AFC9004AAE075F064A42DFDBD
:10302300E5F03CFCA3E075F00AA42DFFE5F03CFEBF
:10303300A3E07C002FFFEC3E9004C1F0A3EFF090DF
:1030430004B9E0FF7E007C037DE8120674AA06AB98
:10305300079004B8E0FF7E007C277D10120674EF12
:103063002BFDEE3AFC9004BAE075F064A42DFDE567
:10307300F03CFCA3E075F00AA42DFFE5F03CFEA3B1
:10308300E07C002FFFEC3EFE9004C3F0A3EFF0D3EF
:103093009004C2E09FEE6480F89004C1E0648098DD
:1030A3004050E49004C5F0A3F090049CE0FBA3E03F
:1030B300FAA3E0F99004C5E0FEA3E0FFF5828E8356
:1030C30012061324D0FD74B02FF58274043EF583E9
:1030D300EDF09004C6E004F070069004C5E004F03F
:1030E3009004C5E07004A3E0640870BD9004C0744C
:1030F30001F07E007F087D008009E49004C0F0FEAB
:103103007F08FD9004A5E0FBA3E0FAA3E0F9120B0E
:10311300AC9004A5E0FBA3E0FAA3E0F8AC02AD0396
:103123007B017A0479B07E007F081205D49004C035
:10313300E0FF227B007A0079089004A0E4F0A374F6
:103143000FF0E4FF90049CEFF0A3EBF0A3EAF0A3ED
:10315300E9F07F0912871D90049CE014700302328A
:103163004614700302331314700302337324036091
:10317300030233D09004A57401F0A37400F0A37488
:1031830000F0A37401F0A374F4F0E4FF128717E4D2
:10319300FF127D6EE49004A2F0A3F09004A0E0FE81
:1031A300A3E0FFC39004A3E09F9004A2E09E5037E6
:1031B300E0FCA3E0FD90049DE0FBA3E0FAA3E0F9AB
:1031C3008D828C83120613FBE4FF12611A9004A410
:1031D300EFF070037F01229004A3E004F070BC9031
:1031E30004A2E004F080B4E49004A2F0A3F09004FD
:1031F300A8E0FEA3E0FFC39004A3E09F9004A2E035
:103203009E40030233D3E0FEA3E0FF2418FDE43E17
:10321300FC9004A5E0FBA3E0FAA3E0F98F828E8380
:10322300120613FBE4FF12611A9004A4EFF070037B
:103233007F01229004A3E004F070B39004A2E004A1
:10324300F080AB9004A5E4F0A37400F0A37408F03D
:10325300A3E4F0A3740FF0E4FF128717E4FF127DD9
:103263006EE49004A2F0A3F09004A8E0FEA3E0FFB4
:10327300C39004A3E09F9004A2E09E5037E0FCA318
:10328300E0FD9004A5E0FBA3E0FAA3E0F98D828CB6
:1032930083120613FBE4FF12611A9004A4EFF0708B
:1032A300037F01229004A3E004F070BC9004A2E029
:1032B30004F080B4E49004A2F0A3F09004A0E0FE34
:1032C300A3E0FFC39004A3E09F9004A2E09E400309
:1032D3000233D3E0FEA3E0FF2418FDE43EFC900498
:1032E3009DE0FBA3E0FAA3E0F98F828E831206131D
:1032F300FBE4FF12611A9004A4EFF070037F012234
:103303009004A3E004F070B39004A2E004F080AB57
:103313007F01128717E4FF127D6EE49004A2F0A3ED
:10332300F09004A0E0FEA3E0FFC39004A3E09F900D
:1033330004A2E09E40030233D3E0FCA3E0FD90042B
:103343009DE0FBA3E0FAA3E0F98D828C83120613C0
:10335300FBE4FF12611A9004A4EFF070037F0122D3
:103363009004A3E004F070B99004A2E004F080B1EB
:103373007F011287177F01127D6EE49004A2F0A3F0
:10338300F09004A0E0FEA3E0FFC39004A3E09F90AD
:1033930004A2E09E503AE0FCA3E0FD90049DE0FB14
:1033A300A3E0FAA3E0F98D828C83120613FB7F015D
:1033B30012611A9004A4EFF070037F01229004A31A
:1033C300E004F070BC9004A2E004F080B47F01221A
:1033D3007F0022900479EBF0A3EAF0A3E9F0A3EDD8
:1033E300F0E4A3F0A3F0900489F0A374FFF0E49059
:1033F300047DF090047DE0FFC39464748094804066
:10340300030234EC75F005EFA42404F582E5F034EF
:1034130000F583E0F470030234E37E007F087DFF50
:103423007B017A047981120BAC90047DE075F00581
:10343300A42400F9740035F0FA7B01C00390049FC3
:10344300EBF0A37404F0A37481F0D003125C3C90FE
:103453000489EFF0E490047FF0900489E0FF900486
:103463007FE02FFFE433FE90047CE0FDD3EF9D74F7
:1034730080F86E98505EE4900480F0900489E0FF39
:10348300900480E0FEC39F5037EEFF90047FE02F4F
:10349300FFE433FE900479E0FBA3E0FAA3E0F98FA5
:1034A300828E83120613FF900480E02481F582E468
:1034B3003404F583E0B50708900480E004F080BB92
:1034C300900489E0FF900480E06F600890047FE03F
:1034D30004F08085900489E0FF900480E06F600928
:1034E30090047DE004F00233F690047DE0C394641D
:1034F300748094805007E0FF900234F022E490043B
:103503009BF0FE7F087DFF7B017A04798B120BAC65
:1035130090049F7401F0A37404F0A3748BF07B01F7
:103523007A007900125C3C900489EFF0E490047D0A
:10353300F090047DE0FFC394087480948050757408
:103543008B2FF582E43404F583E0F490047D700E50
:10355300E0248BF582E43404F583E4F0800EE02468
:103563008BF582E43404F583E02430F0900479E0B1
:10357300FBA3E0FAA3E0F990047DE0FFF5827583F5
:1035830000120613FEF4700E74812FF582E43404E6
:10359300F583E4F0801590047DE0FFEE2430FE74A3
:1035A300812FF582E43404F583EEF090047DE0048A
:1035B300F002353490049F7401F0A37404F0A374F3
:1035C3008BF0A3E4F0A37400F0A3740FF0A37401D1
:1035D300F0A37404F0A37493F07B017A047981124D
:1035E3002E3190049BEFF0D39400748094804019A3
:1035F300780F7C007D007B017A0479937E007F083D
:103603001205D41231367FFE227FFF227B01E4FDB7
:10361300900481EBF0A3EAF0A3E9F0A3EDF0E490CA
:103623000489F0A3F0A37403F0A374E8F0EDD3943A
:1036330000748094805003023733C2AFE49004894E
:10364300F0900484E0FF900489E0FEC39F50219032
:103653000481E0FBA3E0FAA3E0F98E8275830012F4
:103663000613FDE4FF127A1B900489E004F080D175
:1036730090048B74FFF5F01206BC45F0700302371B
:103683002E90069AE0C394027480948040E2E49002
:103693000489F090069AE0FF900489E0FEC39F50EE
:1036A3003B74802EF582E43406F583E0FF644B60BF
:1036B3002BEF64496026EF64426021EF6446601C8F
:1036C300EF64526017EF644D6012EF644A600DEFD0
:1036D30064716008900489E004F080B790069AE072
:1036E300FF900489E0FEC39F40030237EA74802EF3
:1036F300F582E43406F583E0FF900485E0FBA3E064
:10370300FAA3E0F990048AE0FEF582758300EF12D4
:103713000652900488E0146E70030237EA90048A1C
:10372300E004F0900489E004F080B1D2AF0237F5F1
:10373300C2AF90048B74FFF5F01206BC45F0700322
:103743000237F390069AE0C394027480948040E2B7
:10375300E4900489F090069AE0FF900489E0FEC3A8
:103763009F503B74802EF582E43406F583E0FF64BA
:103773004B602BEF64496026EF64426021EF64469F
:10378300601CEF64526017EF644D6012EF644A608F
:103793000DEF64716008900489E004F080B790062F
:1037A3009AE0FF900489E0FEC39F503B74802EF59E
:1037B30082E43406F583E0FF900485E0FBA3E0FA9E
:1037C300A3E0F990048AE0FEF582758300EF120608
:1037D30052900488E0146E600E90048AE004F09026
:1037E3000489E004F080B7E490069AF0D2AFFF2298
:1037F300D2AF7F0022AB07EBC39420748094805038
:103803000AE47F01FEFDFCA803800BE47F01FEFDBB
:10381300FCEB24E0F9F812082A900474120869EB0F
:10382300C394207480948050030238F075965190AD
:103833000474A3A3A3E0FFEF429775965290047418
:10384300E0FCA3E0FDA3E0FEA3E0FF780812081765
:10385300EF4297EBC3942474809480500E900474C9
:10386300A3A3A3E0540FFFEF42EA22EBC394267411
:10387300809480501B900474E0FCA3E0FDA3E0FE61
:10388300A3E0FF7804120817EF5403FFEF42EB2283
:10389300EBFFC3942C748094805037EF642A600547
:1038A300EF642B7012900474E0FCA3E0FDA3E0FE30
:1038B300A3E0FF78048010900474E0FCA3E0FDA370
:1038C300E0FEA3E0FF7806120817EF54CFFFEF42A4
:1038D300EC22900474E0FCA3E0FDA3E0FEA3E0FF70
:1038E300780C120817EF540FFFEF42EE227596265D
:1038F300900474A3A3A3E0FFEF4297759627900467
:1039030074E0FCA3E0FDA3E0FEA3E0FF7808120847
:1039130017EF540FFFEF4297759628900474E0FC5D
:10392300A3E0FDA3E0FEA3E0FF7810120817EF4227
:1039330097759629900474E0FCA3E0FDA3E0FEA331
:10394300E0FF7818120817AB07EB4297900474E076
:10395300FCA3E0FDA3E0FEA3E0FF780212082AEF38
:1039630054FCFFEF42EB900474E0FCA3E0FDA3E002
:10397300FEA3E0FF7802120817EF5430FFEF42EC8A
:10398300900474E0FCA3E0FDA3E0FEA3E0FF780451
:10399300120817EF54F0FFEF42EE900474E0FCA31B
:1039A300E0FDA3E0FEA3E0FF780C120817EF54F04C
:1039B300FFEF42EF900474E0FCA3E0FDA3E0FEA35D
:1039C300E0FF7814120817EF540FFFEF42F2EB42B7
:1039D300F722900476EFF0E4A3F0A3F012879CA300
:1039E300EFF06470700B1287A27F2F1274A102850F
:1039F30064900479E0646070057F011286E79004A7
:103A030079E0FF7E006401600DEF64326008EF64CB
:103A1300336003023B93EF64544E700B12873BEF0A
:103A230064076003023B931287A212836AEF640167
:103A330070087F2E1274A1028771900479E0645498
:103A430070379005B5E0FF126B37900477EFF060A5
:103A530003023B939005B5E07003023B2A127CDB23
:103A6300900477EFF0700A7D017F07127088023BA4
:103A7300777FD31274A1023B777B017A04797812A2
:103A83007346900477EFF06003023B0D900479E0F6
:103A9300640170057F04024981900479E064327007
:103AA300057F19023B90900479E064336003023B85
:103AB300939005B5E0FF126B37900477EFF07045F4
:103AC3009005B5E07002805F127CDB900477EFF025
:103AD300702CA3E0FF1262F2900477EFF07015A34D
:103AE300E0900234F07F051274A1900234E0FF12DB
:103AF30084CA80057F6E1274A112866680057FD307
:103B03001274A1806F7F7A023B90900479E0643253
:103B1300706C9005B5E0FF126B37900477EFF0708F
:103B2300599005B5E0700C7F181274A19005B57417
:103B330001F022127CDB900477EFF07032FF1283E6
:103B430030900477EFF0700F7F051274A190023468
:103B5300E0FF1284BA80057F6E1274A19006F7E02D
:103B63007008F07F011286E7800A12865C80057F69
:103B7300D31274A1E49005B5F0227F7A800F9004EC
:103B830079E0640170057F04026A307F801274A1BA
:103B930022EFB407004003023D0B903BA4F8282812
:103BA30073023BB9023BE0023C06023C51023C9FDC
:103BB300023CC2023CE5EB7009ED42EA759617023E
:103BC3003C5AEB64017009ED42EA759617023CFE1C
:103BD300EB64026003023D0BEDF452EA22EB700842
:103BE300ED42EB759618806FEB64017009ED42EBC3
:103BF300759618023CFEEB64026003023D0BEDF484
:103C030052EB22EB7008ED42EC7596198049EB6498
:103C1300017009ED42EC759619023CFEEB640270EB
:103C230015EDF452ECED54307003023D0B759625FF
:103C3300C4540F023CEFEB64036003023D0BEDF44D
:103C430052EC759625ED5430C4540F429722EB7015
:103C53000AED42EE75961BED023CEFEB6401700931
:103C6300ED42EE75961B023CFEEB64027015EDF41B
:103C730052EEED54307003023D0B75962513135429
:103C83003F8069EB64036003023D0BEDF452EE7574
:103C93009625ED54301313543F429722EB7009EDF0
:103CA30042EF75961CED8044EB64017008ED42EF22
:103CB30075961C8046EB6402704EEDF452EF22EBD6
:103CC3007009ED42F275961DED8021EB64017008D9
:103CD300ED42F275961D8023EB6402702BEDF452D6
:103CE300F222EB700BED42F775961EEDF45297221C
:103CF300EB6401700AED42F775961EED429722EBD5
:103D030064027004EDF452F722E490047BF0787EB1
:103D13007C047D017BFF7A8879CAFE7F031205D478
:103D230090047C7442F0A37464F07B017A04797C80
:103D33007D02126C7C7F2C7E01127AB39004857411
:103D430001F0A37404F0A3747EF0A37403F07B0169
:103D53007A04797CE4FD12361390047EE0644270A9
:103D630054A3E024BB601514602924F9601624FBD6
:103D7300603024066003023E7C7F00227F081274B9
:103D8300A17FFF229006F77401F07F621274A17F76
:103D930012801C9006F77401F07F101274A17F2229
:103DA300800D9006F77401F07F171274A17F321211
:103DB30086E7023E7C90047EE0FF644D600DEF6475
:103DC300466008EF64526003023E79900480E0FB92
:103DD30090047F7005E024D0800CE024D075F00AB5
:103DE300A4FFEB24D02F900234F090047EE024BA99
:103DF300602824F4605B2405707F900234E0FF7D2B
:103E03000112678490047BEFF070647F051274A144
:103E1300900234E0FF12848A805F900234E0FF7DD9
:103E23000112730990047BEFF0700F900234E0FFEE
:103E33007E001286EA90047BEFF090047BE0700F23
:103E43007F051274A1900234E0FF1284AA802A80B5
:103E53001E900234E0FF1262F290047BEFF0700FC9
:103E63007F051274A1900234E0FF1284CA800A7F96
:103E73006E1274A180037F00227F0122900501123C
:103E83000869E4FFFE7D807C3F900501E0F8A3E034
:103E9300F9A3E0FAA3E0FB12038D7006900501027B
:103EA3003FD9900501E0FCA3E0FDA3E0FEA3E0FF02
:103EB30012026DFBA3E0FCA3E0FDA3E0FEA3E0FF81
:103EC30012026DFFB40108E4FFFE7D807C3F22EF08
:103ED30064046029EB64046024EBB40130E4FFFE66
:103EE300FDFC900505E0F8A3E0F9A3E0FAA3E0FBED
:103EF30012038D60084006E4FFFEFDFC22900505D9
:103F0300120875FFFFFFFF900505023FD9E49005F6
:103F130009F0A3F0FFFEFDFC900501E0F8A3E0F932
:103F2300A3E0FAA3E0FB12038D505F900505E0FCCC
:103F3300A3E0FDA3E0FEA3E0FF1201EC900509EE70
:103F4300F0A3EFF0FDCCEECCEC1201B3C8ECC8C982
:103F5300EDC9CAEECACBEFCB900505E0FCA3E0FDAB
:103F6300A3E0FEA3E0FF1200B9E4FBFAF9F81203A1
:103F73008D708A900501E0FCA3E0FDA3E0FEA3E0C1
:103F8300FF120406900501120869900501E0FCA3E5
:103F9300E0FDA3E0FEA3E0FF12429F900505E0F8D9
:103FA300A3E0F9A3E0FAA3E0FB12028712565A90AA
:103FB300050512086990050AE030E017900505E051
:103FC300FCA3E0FDA3E0FEA3E0FF120406900505B9
:103FD300120869900505E0FCA3E0FDA3E0FEA3E061
:103FE300FF2212879C900510EFF090039F7401F05D
:103FF300900390E064017030900394E004F0700645
:10400300900393E004F090039CE0FEA3E0FFC390D1
:104013000394E09F900393E09E400D9003907402FD
:10402300F0E4900393F0A3F090039BE06401701B12
:1040330090039EE004F0E0C3940A74809480400BE4
:1040430090039B7402F0E490039EF09003A0E0D3EE
:10405300940074809480402A90038BE004F07006EF
:1040630090038AE004F090038AE0FEA3E0FFE4FCFF
:10407300FD7B587A02F9F8D31207F05005E4900358
:10408300A0F0126DFDEF700302412B900510E0FFCD
:104093006461700302412BEF6460700302412B9053
:1040A3000390E06401700302412B127B21EF7078CF
:1040B300128344EF7072900511F0900392E004F0C4
:1040C3007006900391E004F0900510E0FF64126025
:1040D30028EF64136023EF6441601EEF64436019AB
:1040E300EF64446014EF6422600FEF6423600AEF0F
:1040F30064326005EF64337011D3900392E094C887
:10410300900391E094004017800FD3900392E094C2
:1041130064900391E0940040069005117401F090BF
:104123000511E0600A02671FE4900391F0A3F022F7
:104133007B007A007908900478E4F0A3740FF0E42C
:10414300FF1244BBAF08EF64016008EF6402600331
:104153000241E3E4900473F07B017A007900900458
:104163007804F0A374F4F07F011244BB7B017A015D
:1041730079F4900478E4F0A3743CF07F021244BB1A
:104183007B017A027935900478E4F0A3748CF07F94
:10419300031244BBD3E50B94007480948050030254
:1041A300426A900473E0FFFD7C00C39464748094BE
:1041B30080501A75F005EFA42404F582E5F034006D
:1041C300F583E06008900473E004F080D5C3ED94B8
:1041D30064EC64809480500302426AE4F50B807CB3
:1041E3007E017FF47DFF7B017A007900120BAC7BAB
:1041F300017A0079009004A07401F0A374F4F07FB5
:10420300011231477E007F3C7DFF7B017A0179F407
:10421300120BAC7B017A0179F49004A0E4F0A3744F
:104223003CF07F021231471200167E007F8C7DFF27
:104233007B017A027935120BAC7B017A02793590D6
:1042430004A0E4F0A3748CF07F03123147750801D6
:10425300750901E4F50AF50BF50CF50DFB7A007908
:10426300089004A0123140223E9248DA3ECCCCCDD5
:104273003F2AAAAB400000003F8000003F9837F080
:104283003FB504F33FD744FC3E3172173EB172177A
:104293003F0515913EDE5BD9D2048002C204EDD204
:1042A300E7F8CD33EC3304700BBD800592D50202E1
:1042B3006202025840FBD31460F2F5F07C3FEE7AC1
:1042C30000C39496C8948B40230AC89469C8941A6F
:1042D300401A0AC89468C8941F40110AC8945AC85F
:1042E3009425400805F07A00CDC2E7CDC0F09005D3
:1042F3000B120869EA2323C0E0247BF582E43442ED
:10430300F5831208591200BDECC0E0EDC0E0EEC029
:10431300E0EFC0E012083D90050B12084D1200B902
:10432300D0E0FBD0E0FAD0E0F9D0E0B2E7F8120435
:104333001A90050B12086990426B74031204B7902C
:10434300050B12084D120287D0E0600F2487F58217
:10435300E43442F5831208591200BD90050B12088C
:1043630069D0E0C3947FFDE49400FC1201B37B1891
:104373007A727931783F12028790050B12084D1239
:1043830000BD30040B7BD97A5B79DE783E1202875D
:10439300227D037FE87E03900488EEF0A3EFF0A371
:1043A300EDF0E4A3F0A3F0FE7F14FD7B017A067920
:1043B300A0120BAC90048874FFF5F01206BC45F014
:1043C30070030244B87F017E00127AB390048AE03E
:1043D3002409FFE433FE90069AE0C39FEE6480F85D
:1043E30074809840CFE490048BF090069AE0FF909D
:1043F300048BE0FEC39F501774802EF582E43406CD
:10440300F583E064EF600890048BE004F080DB90B8
:10441300048BE0FF2480F582E43406F583E064EF47
:10442300709274812FF582E43406F583E0640170A1
:104433008390048BE0FD2486F582E43406F583E063
:10444300640760030243B774872DF582E43406F5ED
:1044530083E0FE74882DF582E43406F583E07C0066
:104463002400FFEC3EFE90048AE06F7001EE6003CF
:104473000243B790069AE0FF90048BE0FEC39F507F
:104483002974802EF582E43406F583E0FF90048CD2
:10449300E024A0F582E43406F583EFF090048CE089
:1044A30004F090048BE004F080C9E490069AF09045
:1044B30006A9E0FF227F0122900475EBF0A3EAF046
:1044C300A3E9F0EF146065147003024588147003C8
:1044D3000245B2240360030245DDE4FF128717E4BB
:1044E30090047AF0A3F0900478E0FEA3E0FFA3E049
:1044F300FCA3E0FDC39FEC9E40030245DDE4FF12F5
:104503007C9C900475E0FBA3E0FAA3E0F990047AA5
:10451300E0FCA3E0F5828C83EF12065290047BE06B
:1045230004F070C290047AE004F080BAE4FF1287CA
:1045330017E490047AF0A3F0900478E0FEA3E0FF80
:10454300A3E0FCA3E0FDC39FEC9E40030245DDED29
:104553002418FDE43CFCE4FF127C9C900475E0FB12
:10456300A3E0FAA3E0F990047AE0FCA3E0F5828CDF
:1045730083EF12065290047BE004F070BB90047A40
:10458300E004F080B37F01128717900475E0FBA36A
:10459300E0FAA3E0F9E4900480F0A3F0900478E05B
:1045A300FFA3E0900482CFF0A3EFF0E4FD80287F27
:1045B30001128717900475E0FBA3E0FAA3E0F9E486
:1045C300900480F0A3F0900478E0FFA3E0900482CD
:1045D300CFF0A3EFF07D01125B3422E4F99004786D
:1045E300F0A3F0FEEEC3940C7480948050607405C5
:1045F3002EF582E43404F583E06050EE25E02436A2
:10460300F582E43404F583E0FCA3E0FDEE25E02429
:10461300EDF582E43403F583E0FAA3E0C39DFDEAFC
:104623009CFC900476F0A3EDF0D3900479E09DEC2C
:104633006480F8900478E0648098500F900476E0EA
:10464300FDA3E0A3CDF0A3EDF0A9060E80969004A0
:1046530029E069606FE0FE25E02436F582E4340446
:10466300F583E0FCA3E0FDEE25E024EDF582E434E0
:1046730003F583E0FAA3E0C39DFEEA9C900476F081
:10468300A3CEF0900476E0FEA3E0FFC3900479E0AC
:104693009FFF900478E09EFE900476F0A3EFF0E98C
:1046A30025E0245EF582E43488F583E493FC740109
:1046B30093FDD3EF9DEC6480F8EE64809840059001
:1046C3000429E9F0AF0122900479EBF0A3EAF0A307
:1046D300E9F0A3EDF0E490047EF090048374FFF01E
:1046E3007E007F04FD7B017A04797F120BAC90047A
:1046F3007CE0FD9004887401F0A37404F0A3747F3C
:10470300F0900479125F31E4FFEFC39464748094F2
:1047130080506475F005EFA42404F582E5F03400BD
:10472300F583E0F4604EE490047EF090047EE0FDB7
:104733007C00C39404748094805033E0FE75F005CC
:10474300EFA42400F582E5F03400F583E5822EF52D
:1047530082E43583F583E0FB747F2EF582E4340431
:10476300F583E0B5030890047EE004F080BDED64BA
:10477300044C60030F8092EFC39464748094805060
:104783002675F005EFA42404F582E5F03400F583E3
:10479300E0FE90047DE0FDEE6D6005ED64037007BF
:1047A300900483EFF0800690048374FFF0900483F9
:1047B300E0FF22900479EBF0A3EAF0A3E9F0A3ED84
:1047C300F0E490047EF090047DE0FF7E007004A38B
:1047D300F0803CEF64024E700790047E04F0802F5B
:1047E30090047E7402F090047EE0FFC394647480AE
:1047F3009480501B75F005EFA42404F582E5F03492
:1048030000F583E0F4600890047EE004F080D79024
:10481300047EE0FFC3946474809480507A900234E1
:10482300EFF07E007F047DFF7B017A04797F120B1A
:10483300AC90047CE0FD9004887401F0A37404F050
:10484300A3747FF0900479125F3190047EE075F0D9
:1048530005A42400F9740035F0A801FC7D017B0157
:104863007A04797F7E007F041205D490047DE0FFF3
:10487300A3E075F005A42404F582E5F03400F58384
:10488300EFF07B017A0079009004A07401F0A37427
:10489300F4F07F010231477F0122900668E0640152
:1048A3007071A3E0700D7D047F051272CB7D01E46E
:1048B300FF800C900669E0640270097D047F051295
:1048C3007043800F900669E0C39404748094804021
:1048D30002B2F8900669E004F090067FE025E0FF5D
:1048E300E433FEEF2406FFE43EFE900669E0C39F37
:1048F300EE6480F87480985003024980E4F07D04EC
:104903007F051270437D01E4FF12704390066874C3
:1049130004F022900668E06403704BA3E070057D09
:1049230001FF801D900669E0640170097D047F0525
:104933001272CB800F900669E0640370077D047FD9
:1049430005127043900669E004F0E0C39404748098
:1049530094804029E4F07D047F051270437D01E4D7
:10496300FF1270438011900668E06404700F7D02AB
:10497300FF125D3CEF70069006687402F02290040B
:104983007BEFF01287C3EF6401702F90047BE0FF8D
:1049930054107026EF640860217F081274A19004FC
:1049A3007BE024FE600E24FE600D24036003024AB4
:1049B3006102876502876B028771E49003A0F0129E
:1049C30087B7EF6401703190047BE0FFFD640860FA
:1049D30027EF54107022EDF4FFE4F4FE90039AE005
:1049E300FDFBEF5B6004E4F0800E90047BE04D90F0
:1049F300039AF07F4B0274A17F521286E71287C697
:104A03007BFF7A8279DE7F037E00126FB690047B90
:104A1300E014602614602D24FE603324FC603924E6
:104A2300F6600D047035900234E0FF127E68802B2F
:104A3300900234E0FF127E828021900234E0FF1264
:104A430084DA8017900234E0FF1284EA800D90022A
:104A530034E0FF1284FA80031287531284082290F1
:104A6300047BEFF0E490047EF090069FE06F700308
:104A7300024B39126DBFEF64017003024B397F01A2
:104A83001287847F077E00127D1B7F4112878790E8
:104A9300047BE0606824FE60261460422402707B7D
:104AA3007F01127E2D7F01127E2DE4FF127E2D7F6A
:104AB30050127E2D90047CE4F0A3749BF0805C7F05
:104AC30001127E2D7F02127E2D7F02127E2DE4FFC6
:104AD300127E2D90047CE4F0A3744EF0803D7F01A0
:104AE300127E2D7F04127E2D7F04127E2DE4FF1291
:104AF3007E2D90047CE4F0A37452F0801E7F041298
:104B03007E2DE4FF127E2DE4FF127E2D7FC8127EE0
:104B13002D90047C7401F0A37415F090047CE0FEE6
:104B2300A3E0FF12713812439490047EEFF09004D7
:104B33007BE090069FF022900501EBF0A3EAF0A33F
:104B4300E9F0E4900509F0A3F0D3900508E09400A0
:104B5300900507E0648094805003024BF3900501B5
:104B6300E0FBA3E0FAA3E0F9900509E0FEA3E0F57A
:104B7300828E83120613601090050AE004F070DD44
:104B8300900509E004F080D5900504E0FBA3E0FA6A
:104B9300A3E0F91205FA603E900504A3E475F00161
:104BA3001206D2A9F0FA1205FAFF900501E0FBA361
:104BB300E0FAA3E0F9900509E475F0011206D28545
:104BC300F082F583EF12065290050774FFF5F01299
:104BD30006BC45F070B2900501E0FBA3E0FAA3E048
:104BE300F9900509E0FEA3E0F5828E83E4120652F4
:104BF300900501E0FBA3E0FAA3E0F922E490047737
:104C0300F0C20112001EE4900476F0900476E0C333
:104C1300940C748094804003024CB830030343AD7A
:104C23001020000575910780F8C200AFACEFFEAD10
:104C3300ABEDFF900476E0FD25E02436F582E43405
:104C430004F583EEF0A3EFF0EDC3940B748094802E
:104C5300502DED25E024D7F582E43403F583E0FEFF
:104C6300A3E0F5CA53CC7FEE5401C313E41342CC43
:104C730053CCC0ED9087E893543F42CC75C9019063
:104C83000476E0FF1227BD900476E0FF12530D90E7
:104C93000476E0FF12644830010F900429E0F470B9
:104CA30008900476E0900429F0200212900476E044
:104CB30004F0024C0E20010690042974FFF022C276
:104CC3000120046D9087E1E493FD700D9088A49317
:104CD300C313FF74019313801575F002EDA424A28E
:104CE300F582E5F03488F583E493FF74019390042F
:104CF30074CFF0A3EFF0E4900473F0900473E0C377
:104D0300940C748094805071E0FF2405F582E434A0
:104D130004F583E4F0C205900474E0FDA3E090047D
:104D230077CDF0A3EDF0122431900473E004F0800A
:104D3300CA9087E4E493FD700D9088A493C313FF96
:104D430074019313801575F002EDA424A2F582E596
:104D5300F03488F583E493FF740193900474CFF0E7
:104D6300A3EFF0D205900474E0FFA3E0900477CFA3
:104D7300F0A3EFF0E4FF12243190042974FFF02232
:104D8300900499EBF0A3EAF0A3E9F0E49004A0F017
:104D93007F2EFE12830853FBFDE4F5FAF5FE7596AC
:104DA300585397EF53FBEF43FC40FF90049FE0FE03
:104DB300EFC39E5064E4A3F074FFFDFCED1DAA0451
:104DC30070011C4A6029E5FB30E4F1E5FB54807077
:104DD300EB900499E0FBA3E0FAA3E0F98F827583DB
:104DE30000E5FA12065253FBEF9004A07401F0534E
:104DF300FB7F53FBDFE5FE601D900499E0FBA3E01E
:104E0300FAA3E0F98F82758300E5FA120652900443
:104E1300A074ACF080030F809253FCBF43FB02905D
:104E230004A0E064AC700F90049CE0FBA3E0FAA341
:104E3300E0F9EF1206409004A0E0FF2253CCBFA29A
:104E430004E433C43333544042CC300403024EF7FA
:104E5300E4900478F0900729E0FF900478E0C39F82
:104E63004003024EF7E0FF75F002A424D5F582E576
:104E7300F03403F583E0FCA3E0FDEF9087E793FFB5
:104E83001275E5900478E0FD75F002A42436F582EE
:104E9300E5F03404F583EEF0A3EFF075F002EDA432
:104EA3002436F582E5F03404F583E0FEA3E0FF75D4
:104EB300F002EDA424EDF582E5F03403F583EEF082
:104EC300A3EFF075F002EDA42436F582E5F0340487
:104ED300F583E0FEA3E0FF75F002EDA42411F58253
:104EE300E5F03404F583EEF0A3EFF0900478E004EA
:104EF300F0024E5822900480EBF0A3EAF0A3E9F00D
:104F0300900487EFF0A37470F0E4FF900486E0FE52
:104F1300EFC39E5023900480E0FBA3E0FAA3E0F9E3
:104F23008F82758300120613FE74892FF582E43491
:104F330004F583EEF00F80D37B017A047987900424
:104F430086E02402900497F07F0112728D9004860C
:104F5300E0FC2489F582E43404F583EFF0EEFF747A
:104F63008A2CF582E43404F583EFF07B017A04792B
:104F730087900486E02404FD1251BAEF64016003B4
:104F83007F012290049C7401F0A37404F0A374873E
:104F9300F0A37403F0900483E0FBA3E0FAA3E0F929
:104FA300124D83EF64017F0060027F01229004763B
:104FB300EBF0A3EAF0A3E9F078797C047D017BFFB1
:104FC3007A8879BE7E007F061205D475965853976A
:104FD300FB7B017A047979126F27EF60037F01224B
:104FE300900479E054C0C41313540375F003A4244C
:104FF30004640460037F01227B017A0479797D01D3
:105003007F931254ECEF60037F0122900476E0FB60
:10501300A3E0FAA3E0F8AC02AD037B017A0479794B
:105023007E007F051205D49004837401F0A37404F9
:10503300F0A37479F0A37405F0900476E0FBA3E089
:10504300FAA3E0F97F93124EF8EF60037F012290F9
:105053000479E054247F017001FF2290047AEBF07D
:10506300A3EAF0A3E9F0E4FFFEEFC3940A7480948B
:10507300805015EF75F00EA42435F582E43402F563
:1050830083E0F460030F80E1EFC3940A748094809B
:105093005074900234EFF075F00EA42435F582E4D9
:1050A3003402F583EFF075F00EA42436F582E43470
:1050B30002F583EDF0E4FEEEC3940C74809480500B
:1050C3003190047AE0FBA3E0FAA3E0F98E827583C2
:1050D30000120613FDEF75F00EA42437F582E434B5
:1050E30002F583E5822EF582E43583F583EDF00E38
:1050F30080C57B017A0279359004A0E4F0A3748C17
:10510300F07F030231477F01227B01E0FCA3E0FD36
:10511300900501EBF0A3EAF0A3E9F0A3ECF0A3ED13
:10512300F0E4A3F0A3F09005067413F0900506E0F5
:10513300FD7C00C3940A74809480407A900504E057
:10514300FEA3E0FF120686AF05900508EFF0D394A7
:1051530009748094804004E024F6F0900508E0FF91
:10516300900507E0FD900501E0FBA3E0FAA3E0F959
:10517300127468EF6014900508E004F0E0D394091A
:105183007480948040D5E4F080D1900508E0FF90CE
:105193000501E0FBA3E0FAA3E0F9900507E0F5823F
:1051A300758300EF120652900507E004F0900506A0
:1051B300E014F002512F22900499EBF0A3EAF0A33C
:1051C300E9F0A3EDF07596585397FDE06004640190
:1051D3007023900499E0FBA3E0FAA3E0F91205FA27
:1051E300F5F953FCC190049CE0FF25E0543E42FCDA
:1051F30043FC01806B900499E0FBA3E0FAA3E0F980
:105203001205FAF5F9900001120613F5FA53FCC1E1
:1052130090049CE0FF25E0543E42FC43FC01127DD8
:10522300FE7D0290049CE0FEEDC39E5033ED90049E
:105233009930E014E0FBA3E0FAA3E0F98D827583D3
:1052430000120613F5FA8012E0FBA3E0FAA3E0F9DB
:105253008D82758300120613F5F9127DFE0D80C34E
:10526300127DFE22900668E0640260030253097D0A
:1052730002FF125D3CEF6401600302530990066B69
:10528300E0701390067FF01286B990066A7401F0FD
:10529300E4900668F022E490050FF090066804F0AD
:1052A30090066BE090067FF0E490050FF090050FF9
:1052B300E0FF3395E0FEC3EF9413EE6480948050D7
:1052C3002B746C2FF58274063EF583E0FF601D900E
:1052D300050FE0FD3395E0FC746B2DF58274063CFD
:1052E300F583EFF090050FE004F080C190050FE027
:1052F300FF3395E0FE746B2FF58274063EF583E46D
:10530300F0900669F02212489D2274A12FF582E4E1
:105313003403F583E07049744E2FF582E43404F5C9
:1053230083E4F074C92FF582E43403F583E004F0D9
:1053330074C92FF582E43403F583E0FE9088A3E477
:1053430093FDEED39D406474C92FF582E43403F5D5
:1053530083E4F074052FF582E43404F583E4F0224A
:1053630074C92FF582E43403F583E4F0744E2FF50A
:1053730082E43404F583E004F0744E2FF582E434C0
:1053830004F583E0FE9088A2E493FDEED39D401BD9
:10539300744E2FF582E43404F583E4F074052FF59D
:1053A30082E43404F5837401F0D2012290047F1265
:1053B3006DB1EF640170037FFF227F011287847F49
:1053C300087E00127D1B7F0412878790047FE0FF15
:1053D300127E2D900480E0FF127E2D900480A3E0C6
:1053E300FF127E2D900482E0FF127E2D900482A393
:1053F300E0FF127E2D900480E0FCA3E0FDECFF7E35
:105403000090047FE0240DFBE433CB2FFFEE3BFE43
:105413007C00EF2DFDEC3E9004821271227D071279
:105423004396900487EFF09006AAE0FEA3E07C0089
:105433002400FFEC3EF9900484E0FBA3E0FAA3E030
:10544300C98FF01206E8900487E0FF2275962B536C
:1054530097F890047FE05407429753CDF3A3E025D8
:10546300E025E0540C42CD53CDFDA3E025E05402EA
:1054730042CD53CDFEA3E0540142CD53CBBFA3E0B5
:10548300C43333544042CB53CCBFA3E0C43333546F
:105493004042CC75962B5397C7A3E033333354382C
:1054A300429753CD8FA3E0C4547042CD53CBC0A3D6
:1054B300E0543F42CB53ADDFA3E0C433542042ADAD
:1054C30075962D5397FDE4F5C953F1DF90048AE0F7
:1054D3006401701153F6DF900489E0C43354E04251
:1054E300F643E6202253E6DF2290047FEFF0A3ED9C
:1054F300F0A3EBF0A3EAF0A3E9F078847C047D0148
:105503007BFF7A8879B47E007F0A1205D490047FEA
:10551300E090048EF0A37420F07B017A04798E7DF1
:10552300021251BAEF640160037F012290049C745C
:1055330001F0A37404F0A37498F0A37405F07B0145
:105543007A04798E124D83EF64017031FEEEC394B9
:1055530005748094805023748E2EF582E43404F510
:1055630083E0FD900481E0FBA3E0FAA3E0F98E82DF
:10557300758300ED1206520E80D37F0022EF7F0069
:1055830070027F0122787D7C047D017BFF7A88791C
:10559300CD7E007F021205D490047B744AF0A3747D
:1055A30064F07B017A04797B7D02126C7C7F2C7E14
:1055B30001127AB39004857401F0A37404F0A37408
:1055C3007DF0A37402F07B017A04797BE4FD12364B
:1055D3001390047DE0FEB44A08A3E0B445037FFFC3
:1055E30022EEB44A0A90047EE0B430037F00229096
:1055F300047DE0B44A08A3E0B431037F01229004A0
:105603007DE0FEB44A08A3E0B432037F0222EEB485
:105613004A0A90047EE0B433037F03227FFF2233E0
:10562300DA929E35B16011377FE5FE392184893ADC
:10563300AEC3FF3C1D955B3D6358473E75FDF03F90
:105643003172183F800000C2D5020262020258BDC7
:1056530080FA50F302025FED33EC330460F17B3BDD
:105663007AAA79B8783F120287ED33EC3392D524C6
:105673007B5011A2D570DB500BED44802404500401
:10568300A2D580CEEFFBEEFAEDF9ECF81201ECEFC8
:10569300F582F404FC1201B81200BDC082905622B8
:1056A30074091204C6ED33CC33D0F092D525F0A2A1
:1056B300D57001C313CC13FD22E4900476F0A3F05C
:1056C300128358EF64017002FF22900644E075F0E4
:1056D30003A42423F582E43406F583E01206409004
:1056E3000644E0FF75F003A42424F582E43406F5B0
:1056F30083E0900001120652EF75F003A42425F510
:1057030082E43406F583E0900002120652900644C8
:10571300E0FF75F003A42423F582E43406F58374D3
:10572300FFF0EF75F003A42424F582E43406F58337
:1057330074FFF0EF75F003A42425F582E43406F535
:105743008374FFF01283C4900644EFF07F0122902C
:1057530087E6E493900729F0E4900473F090072917
:10576300E0FF900473E0FEC39F5077E0FF25E02441
:1057730007F582E43488F583E493FC740193FD75A3
:10578300F002EFA424D5F582E5F03403F583ECF0C1
:10579300A3EDF0EE9087E793FF1237F8900473E0E0
:1057A300FF75F002A42436F582E5F03404F583E4B2
:1057B300F0A3F075F002EFA424EDF582E5F03403D5
:1057C300F583E4F0A3F075F002EFA42411F582E56C
:1057D300F03404F583E4F0A3F0900473E004F002E2
:1057E30057602290047374FFF0A3F0128528EF64CE
:1057F3000170201285F6EF701A1283E6EF700F9096
:1058030005B4E0700E04F07F02127B458005E4903E
:1058130005B4F0128799900473EFF0F4601EE0FF73
:105823001267E9900474EFF0F46011E0651B600FF8
:10583300E0FBF51BE4FDFF127B488003751BFF12A1
:1058430087A8EF60057F04127B451283F7EF60089A
:10585300E4FBFD7F03127B48128546EF6008E4FBFF
:10586300FD7F05127B48128537EF6008E4FBFD7F5F
:1058730006127B482212843A12868E12771412770C
:10588300741279A312742F127834126E491277D4DA
:105893007B027D087F05123B947D087F05127043D0
:1058A300E4FB7D407F06123B947B027D107F021256
:1058B3003B947D107F021272CB7B027D087F021224
:1058C3003B947D087F021272CBE4FB7D207F06129E
:1058D3003B94E4FB7D107F03123B94E4FB7D207F2C
:1058E30003123B94E4FB7D407F03123B94E4FB7D76
:1058F300807F03123B941286CE128110127C3A02EF
:10590300860C90047DEBF0A3EAF0A3E9F0A3EDF09D
:10591300E4FFEFC3940A748094805047E4FEEEC31F
:10592300940C74809480503390047DE0FBA3E0FAE0
:10593300A3E0F98E82758300120613FDEF75F00E56
:10594300A42437F582E43402F583E5822EF582E45C
:105953003583F583E0B505030E80C3EE640C600365
:105963000F80AFEFC3940A74809480501FEF75F0DB
:105973000EA42436F582E43402F583E0FE9004801D
:10598300E0FDEE6D6008ED64037001227FFF227875
:105993007FE4F6D8FD7581200259D9026915E49395
:1059A300A3F8E493A34003F68001F208DFF480290F
:1059B300E493A3F85407240CC8C333C4540F4420FE
:1059C300C8834004F456800146F6DFE4800B0102ED
:1059D300040810204080902B0CE47E019360BCA34C
:1059E300FF543F30E509541FFEE493A360010ECF3B
:1059F30054C025E060A840B8E493A3FAE493A3F865
:105A0300E493A3C8C582C8CAC583CAF0A3C8C58224
:105A1300C8CAC583CADFE9DEE780BE7E017FF47DA5
:105A2300FF7B017A007900120BAC7B017A007900CD
:105A33009004A07401F0A374F4F07F011231477E47
:105A4300007F3C7DFF7B017A0179F4120BAC7B0173
:105A53007A0179F49004A0E4F0A3743CF07F02127D
:105A630031471200167E007F8C7DFF7B017A02791D
:105A730035120BAC7B017A0279359004A0E4F0A3D4
:105A8300748CF07F03123147750801750901E4F541
:105A93000AF50BF50DFB7A0079089004A0F0A374C6
:105AA3000FF0E4FF02314790047BEFF0E024CEF5E2
:105AB30082E43406F583E024FB602924FE60352468
:105AC3006E604124FE6047240570537F4E1274A11B
