:100000000273F202004E53E1DF323202899953E16A
:0A001000F7323202006653F1F732B6
:10001B00028ACCE4F5C9C20953F1DF90038CE0FEF0
:10002B00A3E0F5CA53CC7FEE5401C313E41342CCC7
:10003B0053CCC0909AE5E493543F42CC75C901224E
:07004B0002006E5388FD3234
:10005300020016129ACD7F2A128B3F7F60029A9D6F
:07006300029A045388F732F2
:07006B0002001253F1FB3209
:100073000288547F89128B3F128F977F41029A9D8A
:0700830002009653E1BF32B9
:07008B000289D753E17F3227
:0700930002000E53E1FD32F3
:07009B0002000A4387012265
:0600A3000200067F0022AE
:0600AB000200860282D073
:1000B30002008E020258E86480F8E933E8336011E5
:1000C3000460F0ED33EC337009E8FCE9FDEAFEEB84
:1000D300FF220460DED3EB9FEA9EE99DE8C2E78C32
:1000E300F0C2F795F0400CE8CCF8E9CDF9EACEFA86
:1000F300EBCFFB12022385D0F05804700320D5B355
:10010300E80470075002B2D502026292D5EC046093
:10011300F7E4CCC0E0C398F8603B94186008400D46
:10012300D0E0FB02023AE4FBFAC9FC8028E830E4A1
:1001330006E4C9FBE4CAFCE830E305E4C9CACBFC26
:10014300E854076010F8C3E913F9EA13FAEB13FB59
:10015300EC13FCD8F130F52FC3E49CFCEF9BFFEECE
:100163009AFEED99FDD0E0FBEF4E4D4C701222DB71
:100173000302025FEC2CFCEF33FFEE33FEED33FDA5
:10018300ED30E7EB02023AEF2BFFEE3AFEED39FDDD
:10019300D0E0FB50130BBB0003020262ED13FDEE34
:1001A30013FEEF13FFEC13FC02023A75F020800EEE
:1001B30075F010800575F0087D007E007F00339296
:1001C300D530D503120AEAEC334010EF33FFEE3398
:1001D300FEED33FDEC33FCD5F0ED22E5F0247EA2F9
:1001E300D513CC92E7CDCEFF22EDD2E7CD33EC335E
:1001F30092D524814006E4FFFEFDFC22FCE4CFCE31
:10020300CDCC24E0501174FF80EDC3CC13CCCD13BF
:10021300CDCE13CECF13CF0470F030D5DE020AEA71
:10022300E9D2E7C933E833F892D5EDD2E7CD33EC21
:1002330033FC5002B2D522EC30E7100FBF000C0E96
:10024300BE00080DBD00040BEB6014A2D5EB13FC3C
:10025300ED92E7FD2274FFFCFDFEFF22E480F8A28D
:10026300D574FF13FC7D80E480EFED33EC33601035
:1002730004700FED547F7005740292E0227404221F
:100283000422E422EC4D6011E8497017ED33EC339E
:1002930004600DE4FCFFFEFD22E933E8330470F84B
:1002A30002025812022358046009E4CC2481500648
:1002B30028500902026228400302025FC0E0EB4AB1
:1002C3007044B98006D0E0FB02024EEF4E701CBDB5
:1002D3008008EBFFEAFEE9FD80EBE98DF0A4FEE583
:1002E300F0020370E9CDF9EAFEEBFFEF89F0A4FC1D
:1002F300E5F0CE89F0A42EFFE435F0CD89F0A42DEE
:10030300FEE435F08067EF4E7005BD80D780C3EF04
:100313008BF0A4ACF0EE8BF0A42CFCE435F0F8EFFA
:100323008AF0A42CE5F038FCE433CB8DF0A42CFC4C
:10033300E5F03BF8EE8AF0A42CFCE5F038F8E43362
:10034300CF89F0A42CFCE5F038CF3400CE89F0A49B
:100353002FFFE5F03EFEE433C98DF0A42EFEE5F059
:1003630039CD8AF0A42FFFE5F03EFEE43DFD33D006
:10037300E0FB50070BBB000F020262EC2CFCEF33D7
:10038300FFEE33FEED33FD02023A74F8CC6480CC09
:10039300C86480C8F58204604FC3EB9FF5F0EA9E02
:1003A30042F0E99D42F0E89C45F0603C501DE58237
:1003B3005FFFE582D313CB5BCBF42B5582FB502835
:1003C3000ABA002409B9002008801DE5825BFBE519
:1003D30082D313CF5FCFF4C3132F5582FF50090E7F
:1003E300BE00050DBD00010CC3EB9FF5F0EA9E4274
:1003F300F0E99D42F0E89C45F06007CC4820E70116
:10040300B3EC22ED33EC33600A047003BD8004ECDB
:10041300B2E7FC22F920E73624F950037907E4F424
:100423002402FBE582158270021583DBF6E024FBD0
:10043300501BE96014E4F0E582158270021583E035
:1004430004F0B40A08E4F0D9EE7401F00A22C2D52C
:1004530022ED33EC3392D5FA602AB4FF33EDC2E7D1
:100463007BFF60067A047979E4227A04798220D5C5
:10047300047A04797D224E614E002B494E46002DAD
:10048300494E4600E47A08F0A3DAFC7B00740722A5
:10049300C083C082ECC0E0EDC0E0EEC0E0EFC0E09E
:1004A300EA75F010A4CAABF075F04DA42BFBE4354C
:1004B300F0FCEA2410FAEB34C5FBEC34D9FCEDC2B2
:1004C300E7FF75F056A4F42411C5F0F434C58FF09A
:1004D300A42AE5F03BE43CF020E714120629D0E01F
:1004E300FFD0E0FED0E0FDD0E0FC12055C8014F408
:1004F30004120629D0E0FFD0E0FED0E0FDD0E0FCFE
:10050300120287D082D083E0FAEDD2E7CD33EC3309
:100513002482FBE4C3CF33CFCE33CECD33CD33DB15
:10052300F37B0775F00A846004F0A31B0AE5F0F07F
:10053300A38FF0740AA4FFACF08EF0740AA42CFE0F
:10054300ACF050010C8DF0740AA42CFDE435F0F0EE
:10055300A3DBDE740722020262EC5D046005E85946
:10056300047003020258120223580460F6EC486038
:10057300F2EC7004FDFEFF22C860DB2481C8500941
:10058300C3986002500602025F9850CAF582E929B7
:100593004B4A7005AB8202024E75F0007C1A7880DC
:1005A300C3EF9BEE9AED99400DC3EF9BFFEE9AFECE
:1005B300ED99FDE842F0DC23ACF0D0E0FFD0E0FEA3
:1005C300D0E0FDAB8220E7101BEB60BAEC2CFCEF14
:1005D30033FFEE33FEED33FD02023AE803F830E772
:1005E30005C0F075F000EF2FFFEE33FEED33FD4055
:1005F300B830E7C280AA3F8000004120000042C813
:100603000000447A0000461C400047C35000497470
:1006130024004B1896804CBEBC205A0E1BCA67534D
:10062300C21C749DC5AEFB60065407601C232312D5
:100633000657EB543860091206431206521202871A
:10064300ECF8EDF9EEFAEFCB22EB12065280F154FF
:100653003803241C9005F9FE93FC0EEE93FD0EEE79
:10066300930ECE93FF22C0E0EFFBEEFAEDF9ECF828
:10067300120287D0E0F5F0EFFBEEFAEDF9ECF81299
:100683000B7FA3A3A3A3E8C0E0E9C0E0EAC0E0EBCB
:10069300C0E0C0F0120287120B9BA3A3A3A3120016
:1006A300BDD0F0D0E0FBD0E0FAD0E0F9D0E0F8D54F
:1006B300F0D422E709F608DFFA8046E709F208DFFB
:1006C300FA803E88828C83E709F0A3DFFA8032E365
:1006D30009F608DFFA8078E309F208DFFA80708808
:1006E300828C83E309F0A3DFFA806489828A83E042
:1006F300A3F608DFFA805889828A83E0A3F208DF31
:10070300FA804C80D280FA80C680D4806980F280DF
:1007130033801080A680EA809A80A880DA80E28005
:10072300CA803389828A83ECFAE493A3C8C582C85A
:10073300CCC583CCF0A3C8C582C8CCC583CCDFE9C4
:10074300DEE7800D89828A83E493A3F608DFF9EC60
:10075300FAA9F0EDFB2289828A83ECFAE0A3C8C5EB
:1007630082C8CCC583CCF0A3C8C582C8CCC583CC12
:10077300DFEADEE880DB89828A83E493A3F208DF81
:10078300F980CC88F0EF60010E4E60C388F0ED2451
:1007930002B4040050B9F582EB2402B4040050AF54
:1007A300232345822390070673BB010689828A832C
:1007B300E0225002E722BBFE02E32289828A83E41D
:1007C3009322BB010CE58229F582E5833AF583E0A8
:1007D300225006E92582F8E622BBFE06E92582F8C7
:1007E300E222E58229F582E5833AF583E49322BB8D
:1007F300010689828A83F0225002F722BBFE01F3AD
:1008030022F8BB010DE58229F582E5833AF583E8F9
:10081300F0225006E92582C8F622BBFE05E92582AF
:10082300C8F222EF8DF0A4A8F0CF8CF0A428CE8DCF
:10083300F0A42EFE22BC000BBE0029EF8DF084FF36
:10084300ADF022E4CCF875F008EF2FFFEE33FEECA9
:1008530033FCEE9DEC984005FCEE9DFE0FD5F0E9D0
:10086300E4CEFD22EDF8F5F0EE8420D21CFEADF0CF
:1008730075F008EF2FFFED33FD4007985006D5F0D4
:10088300F222C398FD0FD5F0EA22C2D5EC30E70976
:10089300B2D5E4C39DFDE49CFCEE30E715B2D5E48C
:1008A300C39FFFE49EFE120838C3E49DFDE49CFC55
:1008B300800312083830D507C3E49FFFE49EFE226D
:1008C300C5F0F8A3E028F0C5F0F8E58215827002C0
:1008D3001583E038F022A3F8E0C5F025F0F0E582B7
:1008E300158270021583E0C838F0E822BB0110E5D9
:1008F3008229F582E5833AF583E0F5F0A3E02250FF
:1009030009E92582F886F008E622BBFE0AE925827A
:10091300F8E2F5F008E222E5832AF583E993F5F09E
:10092300A3E99322BB010DC58229C582C5833AC5BC
:10093300830208C35011C58229F808E5F026F6188A
:10094300F5F0E58236F622BBFE11C58229F808E2EE
:1009530025F0F5F0F218E23582F222F8E58229F566
:1009630082E5832AF58374019325F0F5F0E4933847
:1009730022BB010A89828A83F0E5F0A3F0225006A4
:10098300F709A7F01922BBFE06F3E5F009F31922D4
:10099300F8BB0111E58229F582E5833AF583E8F096
:1009A300E5F0A3F0225009E92582C8F608A6F02253
:1009B300BBFE09E92582C8F2E5F008F222E88FF0D0
:1009C300A4CC8BF0A42CFCE98EF0A42CFC8AF0EDD3
:1009D300A42CFCEA8EF0A4CDA8F08BF0A42DCC3887
:1009E30025F0FDE98FF0A42CCD35F0FCEB8EF0A4BF
:1009F300FEA9F0EB8FF0A4CFC5F02ECD39FEE43C79
:100A0300FCEAA42DCE35F0FDE43CFC2275F008751C
:100A13008200EF2FFFEE33FECD33CDCC33CCC58236
:100A230033C5829BED9AEC99E58298400CF582EEF2
:100A33009BFEED9AFDEC99FC0FD5F0D6E4CEFBE4DA
:100A4300CDFAE4CCF9A88222B800C1B90059BA00A2
:100A53002DEC8BF084CFCECDFCE5F0CBF97818EFFD
:100A63002FFFEE33FEED33FDEC33FCEB33FB10D7FE
:100A730003994004EB99FB0FD8E5E4F9FA227818BF
:100A8300EF2FFFEE33FEED33FDEC33FCC933C9101A
:100A9300D7059BE99A4007EC9BFCE99AF90FD8E04C
:100AA300E4C9FAE4CCFB2275F010EF2FFFEE33FE1E
:100AB300ED33FDCC33CCC833C810D7079BEC9AE891
:100AC30099400AED9BFDEC9AFCE899F80FD5F0DA12
:100AD300E4CDFBE4CCFAE4C8F922CFF4CFCEF4CED4
:100AE300CDF4CDCCF4CC22C3E49FFFE49EFEE49D81
:100AF300FDE49CFC22EB9FF5F0EA9E42F0E99D4267
:100B0300F0EC6480C864809845F022EB9FF5F0EA2E
:100B13009E42F0E99D42F0E89C45F022E8600FEC2C
:100B2300C313FCED13FDEE13FEEF13FFD8F122E820
:100B3300600FEFC333FFEE33FEED33FDEC33FCD830
:100B4300F122BB010789828A83020F725005E9F8FB
:100B5300020F66BBFE05E9F8020F7E89828A8302D3
:100B63000B7FBB010789828A83020BAB5005E9F82F
:100B7300020F8ABBFE05E9F8020F9622E493FC7488
:100B83000193FD740293FE740393FF22E0F8A3E044
:100B9300F9A3E0FAA3E0FB22E493F8740193F97458
:100BA3000293FA740393FB22ECF0A3EDF0A3EEF0AF
:100BB300A3EFF022A8828583F0D083D082120BCEDC
:100BC300120BCE120BCE120BCEE473E493A3C583A8
:100BD300C5F0C583C8C582C8F0A3C583C5F0C58366
:100BE300C8C582C822BB010789828A83020BB7501A
:100BF30005E9F8020FA2BBFE05E9F8020FBB22A428
:100C03002582F582E5F03583F58322E0FBA3E0FA44
:100C1300A3E0F922F8E0FBA3A3E0F925F0F0E582D5
:100C2300158270021583E0FA38F022F8E0FBA3A3E3
:100C3300E025F0F9F0E582158270021583E038FAB9
:100C4300F022EBF0A3EAF0A3E9F022D083D082F8FC
:100C5300E4937012740193700DA3A393F87401933A
:100C6300F5828883E4737402936860EFA3A3A3807F
:100C7300DF8A838982E473EC8EF0A4CCC5F0CCCDFB
:100C8300F8EFA4CEC5F02DFDE43CFCE8A42EC8C5C6
:100C9300F03DFDE43CFCEFA4FFE5F028FEE43DFD60
:100CA300E43CFC22E709F60870FA8046E709F208FB
:100CB30070FA803E88828C83E709F0A370FA807E05
:100CC300E309F60870FA8076E309F20870FA806E99
:100CD30088828C83E309F0A370FA806289828A8315
:100CE300E0A3F60870FA805689828A83E0A3F208AB
:100CF30070FA804A80D280FA80C680D4806580F200
:100D03008031801080A680EA809A80A880DA80E211
:100D130080CA803189828A83ECFAE493A3C8C582AE
:100D2300C8CCC583CCF0A3C8C582C8CCC583CC705E
:100D3300E9800D89828A83E493A3F60870F9ECFABB
:100D4300A9F0EDFB2289828A83ECFAE0A3C8C5826D
:100D5300C8CCC583CCF0A3C8C582C8CCC583CC702E
:100D6300EA80DD89828A83E493A3F20870F980CE56
:100D730088F0ED2402B4040050C4F582EB2402B4DD
:100D8300040050BA2323458223900CF773E3F5F054
:100D930009E208B5F06BDFF58067E3F5F009E608D3
:100DA300B5F05EDFF5805A87F009E608B5F052DF4B
:100DB300F6804E87F009E208B5F046DFF6804288F8
:100DC300828C8387F009E0A3B5F036DFF6803288A2
:100DD300828C8387F009E493A3B5F025DFF58021A6
:100DE30088828C83E3F5F009E0A3B5F014DFF58086
:100DF3001088828C83E3F5F009E493A3B5F002DF56
:100E0300F4020EBF808780E9809080D4803E8015F5
:100E1300806E807E809D80B7808D80A3805180749A
:100E2300803C020ECB89828A83ECFAE493F5F0A32B
:100E3300C8C582C8CCC583CCE493A3C8C582C8CC3B
:100E4300C583CCB5F076DFE3DEE1807089828A83E7
:100E5300E493F5F0A3E208B5F062DFF4805E8982E3
:100E63008A83E0F5F0A3E608B5F051DFF5804D89FC
:100E7300828A83E0F5F0A3E208B5F040DFF5803C19
:100E830089828A83E493F5F0A3E608B5F02EDFF4B4
:100E9300802A8002805789828A83ECFAE493F5F0F2
:100EA300A3C8C582C8CCC583CCE0A3C8C582C8CCBF
:100EB300C583CCB5F006DFE4DEE280007FFFB5F04A
:100EC300020F2240027F012289828A83ECFAE0F535
:100ED300F0A3C8C582C8CCC583CCE0A3C8C582C86B
:100EE300CCC583CCB5F0D5DFE5DEE380CF89828A3C
:100EF30083ECFAE0F5F0A3C8C582C8CCC583CCE483
:100F030093A3C8C582C8CCC583CCB5F0AFDFE4DEFC
:100F1300E280A988F0EF60010E4E60ABED2402B4CD
:100F230004005098F582EB2402B40400508E23236E
:100F3300458223900E0773EF4E6012EF60010EEDB2
:100F4300BB010B89828A83F0A3DFFCDEFA2289F0DE
:100F53005007F709DFFCA9F022BBFEFCF309DFFC15
:100F6300A9F022E6FC08E6FD08E6FE08E6FF22E01B
:100F7300FCA3E0FDA3E0FEA3E0FF22E2FC08E2FD08
:100F830008E2FE08E2FF22ECF608EDF608EEF608AA
:100F9300EFF622ECF208EDF208EEF208EFF222D0BF
:100FA30083D082E493F608740193F608740293F6EF
:100FB30008740393F6740473D083D082E493F20825
:100FC300740193F208740293F208740393F27404A5
:100FD30073900284EFF0129AA0A3EFF0120C4E125A
:100FE300BB0112BB0212BB1212BB131A05141A0562
:100FF300151A051612BB1719E53219E5331A05340C
:101003001A05351A053612BB4112BB421A05501A8E
:101013007E531AAC541B0C551028601B14701033EC
:101023008000001B1F7F01129A9D9002857401F0BE
:10103300900654E07021900284E0640A700B1298C9
:10104300607F01129A9D021A7B900284E0640B7008
:101053000612986002142B129860900284E0FF7EBF
:1010630000C3748094804030D3EF940974809480DB
:101073005026900654E0C3942074809480501990B5
:101083000653E07013900654E0FE04F074552EF5F9
:1010930082E43406F583EFF0900284E0640A702E54
:1010A300900653E0FF7E007012A3E0FD14F0745528
:1010B3002DF582E43406F58374FFF0900654E06066
:1010C30003021B1FEF4E6003021B1F02142B90022F
:1010D30084E0640B600B900654E0640F6003021B12
:1010E3001F900654E0C3940F7480948050167F655C
:1010F300128B3FE4900654F0900653E06003021B0A
:101103001F02161E900653E06003021B1F7B017A29
:101113000679557D0F126304900662E0FF9005BDCA
:10112300E06F600302129F900663E0FF9005BEE04C
:101133006F600302129F78887C027D017BFF7A9B9C
:1011430079F6FE7F32120786E4900286F0900286DB
:10115300E0C3940A74809480505AE4A3F090028709
:10116300E0C39405748094805042E0FF900286E0CF
:10117300FE75F005A42488F582E43402F583E58244
:101183002FF582E43583F583E0FDEE75F006A424A4
:10119300C0F582E43405F583E5822FF582E43583D7
:1011A300F583EDF0900287E004F080B1900286E0D1
:1011B30004F080997B017A067955129A889002BED1
:1011C3007401F0A37405F0A374A9F0A37401F0A350
:1011D3007405F0A3748EF07B017A0679557D0F12A6
:1011E3002663E4FF1293A7EF60030212897B019049
:1011F30002BD04F0A37406F0A37441F07A0579B339
:10120300123A8C1285957BFF7A9B79A2122B8B7BEA
:10121300FF7A9B79B490064BE0FFA3E0900303CFE2
:10122300F0A3EFF090064AE02401FE900649E03473
:1012330000900305F0A3CEF0900647E0FFA3E090F3
:101243000307CFF0A3EFF0900646E02408FE9006D4
:1012530045E03400900309F0A3CEF0900643E0FF8D
:10126300A3E090030BCFF0A3EFF0900641E0FFA3C0
:10127300E090030DCFF0A3EFF0122B8B1285007FCC
:1012830005128B3F802A7F08128B3F1285957BFFC7
:101293007A9B79D6122B8B12850080141285957B4D
:1012A300FF7A9B79E6122B8B1285007F08128B3F06
:1012B3007F01129A9D02181E12973AEF6401700B78
:1012C300129AA67F2E128B3F029A64900654E07006
:1012D30065900284E0640A703AA3E06441700302FB
:1012E3001B1F129860900285E0FD7C00640170056D
:1012F3007F60021A00ED64024C70057F01021A0040
:10130300900747E06401700874FFF07F01021A0040
:10131300021A7B900284E0640B701BA3E0640160FB
:1013230003021B1F129860E490064EF07F83128B1A
:101333003F7F02021A00129860900284E0FFC37498
:10134300809480407CD3EF94097480948050729091
:101353000654E0C39420748094805065900285E025
:10136300FF64016005EF64027016900284E0FF9051
:101373000654E0FE04F074552EF582E43406803DF5
:10138300900653E0FF7E00701A900284E0FD900601
:1013930054E0FC04F074552CF582E43406F583ED37
:1013A300F0801EEF64014E7018900284E0FF9006F7
:1013B30054E0FE04F074752EF582E43406F583EFF1
:1013C300F0900284E0640A60030214A2900653E0E2
:1013D300FF7E00700FA3E0FD14F074552DF582E439
:1013E30034068015EF64014E7014900654E0FF1428
:1013F300F074752FF582E43406F58374FFF09006DC
:1014030054E06003021B1F900285E0640270057FB5
:1014130083021B11900653E0703D900285E0FF6448
:10142300126005EF641770057F62021B119002853D
:10143300E0641370057F74021B11900285E0644120
:1014430070057F89021B11900285E06442600302EC
:101453001B1F7F62021B11900653E06401600302AD
:101463001B1F900285E0FF64126005EF641770058F
:101473007F68021B11900285E0641370057F0402EC
:101483001B11900285E0644170057F68021B119077
:101493000285E064426003021B1F7F68021B1190F8
:1014A3000284E0640B6003021B1F900654E0FF7E7E
:1014B30000C39406748094804003021568900285EB
:1014C300E06401707FEF64027010900655E0700ACB
:1014D300A3E070061299310215CC900654E0640122
:1014E300700CA3E064057006128E940215CC90066E
:1014F30054E06401700CA3E0640670061287CB020B
:1015030015CC900654E064027032A3E0702EA3E081
:1015130064017028129AC4EF6401700E90064E04A1
:10152300F07F83128B3F7F02800C7F011291787FC3
:101533005F128B3F7F01129A9D0215CC7F011288A7
:10154300D90215CC7F65128B3FE4900654F09006C8
:1015530053E0700302161E900653E0640160030219
:101563001B1F02166F900654E0FDC3940874809409
:10157300804003021821900285E064017052A3F0B9
:101583007B017A067955124910900286EFF0F470C8
:10159300077F011288D98031900286E064FE7018BB
:1015A300129AC4EF64017010FF1291787F60128B5E
:1015B3003F7F01129A9D8011900286E064017004BE
:1015C3007F1180027F01125E6BE4900654F0804B22
:1015D300900285E0640270507B017A06795590068B
:1015E30054E0FDE49002BEF012604DEFF470077F0B
:1015F3008C128B3F802090064EE064017010FF1226
:1016030091787F60128B3F7F01129A9D80087F0142
:10161300129A34129498E4900654F0FE7F207DFFD2
:101623007B017A067955804F900653E0704C900207
:1016330085E0FF6412601BEF641770028014900250
:1016430085E0641370047F048016900285E0644192
:1016530070047F68800A900285E0644270057F68A9
:10166300128B3F9006537401F0E4A3F0FE7F207DBC
:10167300FF7B017A067975020F3A900653E0640105
:101683006003021B1F78557C067D017B017A067976
:1016930075FE7F08120F16EF3395E04F60030218B3
:1016A30019900285E0641370507B017A0679559096
:1016B3000654E0FD9002BE7401F012604D90028664
:1016C300EFF0F470057F7102181B900286E0FF7D36
:1016D3000112808DEF7017900286E09001F4F07F85
:1016E30005128B3F9001F4E0FF12980180057F6E95
:1016F300128B3F12997102181E7B017A067955905D
:101703000654E0FD9002BE7403F012604DEFF460E6
:10171300057F8602181B900285E0641270467B01E8
:101723007A067955900654E0FD9002BE7401F012DA
:101733006139EF640170077F6E128B3F800D7F0567
:10174300128B3F9001F4E0FF1297F1900747E0649A
:1017530001700B74FFF07F01129A9D02181E1299FB
:101763006702181E900285E0644170377B017A0698
:101773007955900654E0FDE49002BEF0126139EF12
:10178300640170077F6E128B3F800D7F05128B3FC4
:101793009001F4E0FF1297F1129AC1EF7039129998
:1017A3005D8078900285E06442702E7B017A067931
:1017B30055900654E0FDE49002BEF0126139EF64E7
:1017C3000170077F6E128B3F800D7F05128B3F9058
:1017D30001F4E0FF1297F18038900285E0641770FE
:1017E3003A7B017A067955900654E0FD9002BE7467
:1017F30002F0126139EF640170077F6E128B3F8034
:1018030010129A827F05128B3F9001F4E0FF12972A
:10181300F112949880057FD3128B3F028F97900625
:1018230054E0FF7E0064096005EF64087006E490ED
:101833000654F022EF640A4E60030219E07B017A3A
:101843000679557D0A12630490065DE0FF9005BD9D
:10185300E06F60030219C890065EE0FF9005BEE0EA
:101863006F60030219C878887C027D017BFF7A9C34
:101873007928FE7F32120786E4900286F090028672
:10188300E0C3940A74809480505AE4A3F0900287D2
:10189300E0C39405748094805042E0FF900286E098
:1018A300FE75F005A42488F582E43402F583E5820D
:1018B3002FF582E43583F583E0FDEE75F006A4246D
:1018C300C0F582E43405F583E5822FF582E43583A0
:1018D300F583EDF0900287E004F080B1900286E09A
:1018E30004F080999002BE7401F0A37405F0A37410
:1018F300A9F0A37401F0A37405F0A3748EF07B0127
:101903007A0679557D0A122663E4FF1293A7EF60E6
:10191300030219B07B019002BD04F0A37406F0A387
:101923007441F07A0579B3123A8C1285957BFF7A6C
:101933009B79A2122B8B7BFF7A9B79B490064BE0A9
:10194300FFA3E0900303CFF0A3EFF090064AE02457
:1019530001FE900649E03400900305F0A3CEF09019
:101963000647E0FFA3E0900307CFF0A3EFF0900654
:1019730046E02408FE900645E03400900309F0A3F6
:10198300CEF0900643E0FFA3E090030BCFF0A3EF6C
:10199300F0900641E0FFA3E090030DCFF0A3EFF03A
:1019A300122B8B1285007F05128B3F80147F081248
:1019B3008B3F1285957BFF7A9B79D6122B8B1285F1
:1019C300007F0180381285957BFF7A9B79E6122B85
:1019D3008B1285007F08128B3F7F0180207F8C0252
:1019E3001B11900284E0640A6003021B1F129860BB
:1019F300900747E06401700874FFF07F01029A9D2D
:101A03008076900284E0640B706012986090028587
:101A1300E024EB604614604624E26028146042141C
:101A2300604224E66041243C6003021B1F1279FCE0
:101A3300EF700A7F05128B3F129A4C80057F0812C4
:101A43008B3F8034127DABEF700A7F05128B3F1200
:101A53009A5880057F08128B3F801D0291D002980F
:101A6300E40291ED0298F1028897900284E0640AFF
:101A73006003021B1F129860029498900284E06432
:101A83000A7006129860027B66900284E07003027B
:101A93001B1F129A3A900284E0D39F507F129860E2
:101AA300900284E014FF028156129A46900286EF58
:101AB300F06496700B129860900284E0FF027EF04F
:101AC300900286E064997035900284E0640A70188D
:101AD300129860129918129ABEEF600280287F58FC
:101AE3007E02128FBD02990B900284E0640B702C6E
:101AF3001298601299187D017F99028810129ABE7C
:101B0300EF601912986002989C129AA67F4D028B7F
:101B13003F129AA67F2F128B3F1298AB229002E0BE
:101B2300E0F9A3E0FAA3E090030BC9F0A3EAF0A362
:101B3300E9F0A37401F0A37402F0A374E9F0900236
:101B4300DDE0FBA3E0FAA3E0F9900308EBF0A3EADE
:101B5300F0A3E9F09000061207C5FF3395E0FEEF0E
:101B630024D0FFEE34FFFE7C007D0A120826C00657
:101B7300C0079000051207C5FF3395E0FEEF24D0A0
:101B8300FFEE34FFFE7D64120826D0E02FFFD0E085
:101B93003EFE9000071207C5FD3395E0FCED24D00F
:101BA300FDEC34FFCD2FFFED3E900311F0A3EFF0DA
:101BB300E490031DF0A3F090030BE0FBA3E0FAA372
:101BC300E0F91296B1900328EEF0A3EFF0E490034E
:101BD30034F0A3F07A037936900311126B4DE4903D
:101BE300031DF0A3F090031DE0FEA3E0FFC39405E3
:101BF300EE648094805063900308E0FBA3E0FAA3B3
:101C0300E0F98F828E831207C5FF3395E0FEEF2440
:101C1300D0FFEE34FF900340F0A3EFF0900340E0D9
:101C2300FEA3E02436F58274033EF583E0FD9003C2
:101C33001EE025E0FF90031DE033FE74132FF582B1
:101C430074033EF583E4F0A3EDF090031EE004F08B
:101C5300709390031DE004F0808B7E007F097D006C
:101C63007B017A03791F120F3A900328E07004A3D3
:101C7300E064087016781F7C037D0190030BE0FB82
:101C8300A3E0FAA3E0F9120D738079D3900329E05E
:101C93009408900328E064809480402790030BE02D
:101CA300F9A3E0FAA3E0900345C9F0A3EAF0A3E99E
:101CB300F0A3E4F0A37408F07B017A03791F127F89
:101CC300598041781F7C037D0190030BE0FBA3E067
:101CD300FAA3E0F9120D7390034574FFF0A3749C0B
:101CE300F0A374D8F0900328E0FEA3E0FFC37408C8
:101CF3009F900349F0E49E900348F07B017A0379B7
:101D03001F12657B900320E0FB3395E0FA90031FDD
:101D1300E0FF3395E0FEC3EF9BFFEE9AFE900321B5
:101D2300E0F9FD3395E0FCEF2DFFEE3CFEA3E0FD73
:101D33003395E0FCC3EF9DFFEE9CFEA3E0FD3395DE
:101D4300E0FCEF2DFFEE3CFEA3E0FD3395E0FCC38A
:101D5300EF9DFFEE9CFEA3E0FD3395E0FCEF2DFF2E
:101D6300EE3CFEA3E0FD3395E0FCC3EF9DFFEE9C4C
:101D730090032AF0A3EFF0C374309BFFE49AFEE9CB
:101D8300FD3395E0FCEF2DFFEE3CFE900322E0F9DE
:101D9300FB3395E0FAC3EF9BFFEE9AFEA3E0FB3320
:101DA30095E0FAEF2BFFEE3AFEA3E0FB3395E0FA62
:101DB300C3EF9BFFEE9AFEA3E0FB3395E0FAEF2B14
:101DC300FFEE3AFEA3E0FB3395E0FAC3EF9BFFEE91
:101DD3009A90032CF0A3EFF0E9FF3395E0FEC3EDF7
:101DE3009FFFEC9EFE900323E0FD3395E0FCEF2D77
:101DF300FFEE3CFEA3E0FB3395E0FAC3EF9BFFEE5F
:101E03009AFEA3E0FB3395E0FAEF2BFFEE3AFEA335
:101E1300E0FB3395E0FAC3EF9BFFEE9A90032EF0BD
:101E2300A3EFF0E9FF3395E0FEC374309FCFE49E48
:101E3300CF2DCF3CFE900324E0FD3395E0FCC3EFB0
:101E43009DFFEE9CFEA3E0F9FB3395E0FAEF2BFF39
:101E5300EE3AFEA3E0FB3395E0FAC3EF9BFFEE9A65
:101E6300900330F0A3EFF0900323E0FF3395E0FEFF
:101E7300C3EF9DFFEE9CFEE9FD3395E0FCEF2DFFE4
:101E8300EE3CFE900326E0FD3395E0FCC3EF9DFF9F
:101E9300EE9C900332F0A3EFF0E490031DF0A3F067
:101EA30090031DE0FAA3E0FB25E0FFEA33FE742A6A
:101EB3002FF58274033EF583E0FCA3E0FD74132F3A
:101EC300F58274033EF583E0FEA3E0C39DFFEE9C21
:101ED300CF2464CF3400FE7C007D0A12088DEB25ED
:101EE300E0FFEA33FE74132FF58274033EF583ECAF
:101EF300F0A3EDF090031EE004F0700690031DE0E4
:101F030004F090031DE07004A3E064057092E49074
:101F1300031DF0A3F090031DE0FEA3E0FFC39405AF
:101F2300EE648094804003021FE27C007D0212086D
:101F33008DED4C7027E025E0FF90031DE033FE7428
:101F4300132FF58274033EF583A3E025E0FD05829C
:101F5300D5820215831582E033FC802890031EE0AE
:101F630025E0FF90031DE033FE74132FF582740305
:101F73003EF583E0FEA3E0FF7C007D03120826AC60
:101F830006AD07EC1201B3C004C005C006C007903C
:101F93000346120BB740000000D007D006D005D08F
:101FA300041253F4C004C005C006C007900334E014
:101FB300FCA3E0FDEC1201B3D003D002D001D000AA
:101FC3001200BD1201EC900334EEF0A3EFF0900386
:101FD3001EE004F0700690031DE004F0021F189049
:101FE3000334E0FEA3E0FF900311E06E7003A3E06F
:101FF3006F60030220B9900313A3E0FF90030EE088
:10200300FBA3E0FAA3E0F9EF1207F2900315A3E0B4
:10201300FF90030EE0FBA3E0FAA3E0F9900001EFC9
:10202300120804900317A3E090000212080490031F
:1020330019A3E090000312080490031BA3E090008F
:1020430004120804900308E0FBA3E0FAA3E0F9906C
:1020530000051207C524D0FF90030EE0FBA3E0FAAE
:10206300A3E0F9900005EF120804900308E0FBA336
:10207300E0FAA3E0F99000061207C524D0FF90030D
:102083000EE0FBA3E0FAA3E0F9900006EF120804C8
:10209300900308E0FBA3E0FAA3E0F990000712071E
:1020A300C524D0FF90030EE0FBA3E0FAA3E0F99070
:1020B3000007EF020804E490031DF0A3F090031D52
:1020C300E0FEA3E0FFC39408EE6480948050249064
:1020D300030EE0FBA3E0FAA3E0F98F828E8374FF83
:1020E30012080490031EE004F070D290031DE00474
:1020F300F080CA22900308EBF0A3EAF0A3E9F09082
:1021030000061207C575F00AA4FDACF09000051295
:1021130007C575F064A42DFFE5F03CFE900007129F
:1021230007C57C002FFFEC3E900311F0A3EFF09066
:10213300030BE0FBA3E0FAA3E0F91296B1900326A8
:10214300EEF0A3EFF0E4A3F0A3F0900334F0A3F0D8
:102153007A037936900311126B4DE4900328F0A3B0
:10216300F0900328E0FEA3E0FFC39405EE6480949F
:10217300805059900308E0FBA3E0FAA3E0F98F82B3
:102183008E831207C5FF900340E4F0A3EFF09003A2
:1021930040E0FEA3E02436F58274033EF583E0FDC0
:1021A300900329E025E0FF900328E033FE74132F0A
:1021B300F58274033EF583E4F0A3EDF0900329E088
:1021C30004F0709D900328E004F080957E007F0961
:1021D3007D007B017A03791D120F3A900326E0708C
:1021E30004A3E064087016781D7C037D0190030B43
:1021F300E0FBA3E0FAA3E0F9120D738079D3900317
:1022030027E09408900326E064809480402790039D
:102213000BE0F9A3E0FAA3E0900345C9F0A3EAF0C9
:10222300A3E9F0A3E4F0A37408F07B017A03791D1A
:10223300127F598041781D7C037D0190030BE0FBE5
:10224300A3E0FAA3E0F9120D7390034574FFF0A322
:10225300749CF0A374D8F0900326E0FEA3E0FFC3C0
:1022630074089F900349F0E49E900348F07B017A41
:1022730003791D12657B90031EE0FB3395E0FA9012
:10228300031DE0FF3395E0FEC3EF9BFFEE9AFE9044
:10229300031FE0F9FD3395E0FCEF2DFFEE3CFEA3B9
:1022A300E0FD3395E0FCC3EF9DFFEE9CFEA3E0FD54
:1022B3003395E0FCEF2DFFEE3CFEA3E0FD3395E00C
:1022C300FCC3EF9DFFEE9CFEA3E0FD3395E0FCEF26
:1022D3002DFFEE3CFEA3E0FD3395E0FCC3EF9DFF35
:1022E300EE9C90032AF0A3EFF0C374309BFFE49AB3
:1022F300FEE9FD3395E0FCEF2DFFEE3CFE9003205D
:10230300E0F9FB3395E0FAC3EF9BFFEE9AFEA3E0FF
:10231300FB3395E0FAEF2BFFEE3AFEA3E0FB339598
:10232300E0FAC3EF9BFFEE9AFEA3E0FB3395E0FADE
:10233300EF2BFFEE3AFEA3E0FB3395E0FAC3EF9BEE
:10234300FFEE9A90032CF0A3EFF0E9FF3395E0FE44
:10235300C3ED9FFFEC9EFE900321E0FD3395E0FC6F
:10236300EF2DFFEE3CFEA3E0FB3395E0FAC3EF9BBA
:10237300FFEE9AFEA3E0FB3395E0FAEF2BFFEE3A74
:10238300FEA3E0FB3395E0FAC3EF9BFFEE9A9003C5
:102393002EF0A3EFF0E9FF3395E0FEC374309FCF37
:1023A300E49ECF2DCF3CFE900322E0FD3395E0FC6D
:1023B300C3EF9DFFEE9CFEA3E0F9FB3395E0FAEF3C
:1023C3002BFFEE3AFEA3E0FB3395E0FAC3EF9BFF4E
:1023D300EE9A900330F0A3EFF0900321E0FF3395E2
:1023E300E0FEC3EF9DFFEE9CFEE9FD3395E0FCEFBD
:1023F3002DFFEE3CFE900324E0FD3395E0FCC3EF9C
:102403009DFFEE9C900332F0A3EFF0E4900328F0DD
:10241300A3F0900328E0FAA3E0FB25E0FFEA33FEF4
:10242300742A2FF58274033EF583E0FCA3E0FD7468
:10243300132FF58274033EF583E0FEA3E0C39DFFF3
:10244300EE9CCF2464CF3400FE7C007D0A12088DFD
:10245300EB25E0FFEA33FE74132FF58274033EF598
:1024630083ECF0A3EDF0900329E004F070069003F1
:1024730028E004F0900328E07004A3E06405709260
:10248300E4900328F0A3F0900328E0FEA3E0FFC349
:102493009405EE6480948040030225547C007D0201
:1024A30012088DED4C7027E025E0FF900328E03300
:1024B300FE74132FF58274033EF583A3E025E0FD3C
:1024C3000582D5820215831582E033FC80289003B0
:1024D30029E025E0FF900328E033FE74132FF582F3
:1024E30074033EF583E0FEA3E0FF7C007D03120846
:1024F30026AC06AD07EC1201B3C004C005C006C08C
:1025030007900346120BB740000000D007D006D057
:1025130005D0041253F4C004C005C006C0079003DD
:1025230034E0FCA3E0FDEC1201B3D003D002D001F0
:10253300D0001200BD1201EC900334EEF0A3EFF0D3
:10254300900329E004F07006900328E004F00224CD
:102553008A900334E0FEA3E0FF900311E06E700362
:10256300A3E06F6003022625900313A3E0FF90030B
:102573000EE0FBA3E0FAA3E0F9EF1207F2900315D4
:10258300A3E0FF90030EE0FBA3E0FAA3E0F99000C1
:1025930001EF120804900317A3E09000021208044D
:1025A300900319A3E090000312080490031BA3E017
:1025B300900004120804900308E0FBA3E0FAA3E0F0
:1025C300F99000051207C5FF90030EE0FBA3E0FAA4
:1025D300A3E0F9900005EF120804900308E0FBA3C1
:1025E300E0FAA3E0F99000061207C5FF90030EE09E
:1025F300FBA3E0FAA3E0F9900006EF1208049003AE
:1026030008E0FBA3E0FAA3E0F99000071207C5FF77
:1026130090030EE0FBA3E0FAA3E0F9900007EF02BA
:102623000804E4900328F0A3F0900328E0FEA3E05D
:10263300FFC39408EE64809480502490030EE0FB63
:10264300A3E0FAA3E0F98F828E8374FF120804904B
:102653000329E004F070D2900328E004F080CA223A
:102663009002BAEBF0A3EAF0A3E9F0A3EDF0E49053
:1026730002E2F0A3F0A37405F0E4A3F09002F012D9
:102683000BB7000000009002F4120BB7000000002B
:102693009002F8120BB7000000009002FC120BB777
:1026A300000000007E007F0A7D007B017A0279C46E
:1026B300120F3A7E007F0A7D007B017A0279CE12E7
:1026C3000F3AE49002E2F09002E2E0FFC3940A744E
:1026D30080948050479002C1E0FBA3E0FAA3E0F9A5
:1026E3009002E2E0FEF5827583001207C5FD74C413
:1026F3002EF582E43402F583EDF08F8275830012A8
:1027030007C570109002E2E024C4F582E43402F5B8
:1027130083740AF09002E2E004F080AB9003037448
:1027230001F0A37402F0A374F0F0A37401F0A37496
:1027330002F0A374F4F09002BEE0FBA3E0FAA3E07E
:10274300F91256AB9002BDE0FF7E00640A703E9022
:1027530002E2F09002E2E0C3940A74809480507F16
:102763009002BAE0FBA3E0FAA3E0F99002E2E0FDF5
:10277300F5827583001207C5FC74CE2DF582E4340F
:1027830002F583ECF09002E2E004F080C6EF640F00
:102793004E6003022B1F9002E3F09002E27403F0F9
:1027A3009002E2E0FFC3940D748094805031900254
:1027B300BAE0FBA3E0FAA3E0F98F82758300120766
:1027C300C5FF9002E3E024CEF582E43402F583EF03
:1027D300F09002E3E004F09002E2E004F080C1E450
:1027E3009002E2F09002E2E0C3943B748094804054
:1027F300030229C69003037401F0A37402F0A374C7
:10280300F8F0A37401F0A37402F0A374FCF07B014D
:102813007A0279CE1256AB9002F4E0FCA3E0FDA35A
:10282300E0FEA3E0FF9002FCE0F8A3E0F9A3E0FAE6
:10283300A3E0FBC3120B0E50449002F8E0FCA3E0AC
:10284300FDA3E0FEA3E0C39401FFEE9400FEED942C
:1028530000FDEC9400FC9002F8120BAB9002FCE03C
:10286300FCA3E0FDA3E0FEA3E024A0FFEE3486FE7C
:10287300ED3401FDE43CFC9002FC120BAB9002F042
:10288300E0FCA3E0FDA3E0FEA3E0FF9002F8E0F884
:10289300A3E0F9A3E0FAA3E0FBC3120B0E502190CF
:1028A30002F8E0FCA3E0FDA3E0FEA3E024A0FFEE1A
:1028B3003486FEED3401FDE43CFC9002F8120BABD0
:1028C3009002F8E0FCA3E0FDA3E0FEA3E0FF90028A
:1028D300F0E0F8A3E0F9A3E0FAA3E0FBC3EF9BFF6A
:1028E300EE9AFEED99FDEC98FC9002F8120BAB907A
:1028F30002FCE0FCA3E0FDA3E0FEA3E0FF9002F4F2
:10290300E0F8A3E0F9A3E0FAA3E0FBC3EF9BFFEE3B
:102913009AFEED99FDEC98FC9002FC120BAB7E0045
:102923007F0A7D007B017A0279D8120F3A9002FC6C
:10293300E0FCA3E0FDA3E0FEA3E0FF900304120B81
:10294300AB9003087401F0A37402F0A374D8F0A34E
:10295300E4F0A37405F0A3E4F0A37405F09002F887
:10296300E0FCA3E0FDA3E0FEA3E0FF125A377E00E4
:102973007F0A7D007B017A0279CE120F3AE490023E
:10298300E3F09002E3E0C3940A74809480502BE058
:10299300FF24D8F582E43402F583E0FE74C42FF5F6
:1029A30082E43402F583E024CDF582E43402F58336
:1029B300EEF09002E3E004F080C89002E2E004F05D
:1029C3000227E77E007F0A7D007B017A0279D81215
:1029D3000F3A9002D0E09002E5F07E007F0A7D007E
:1029E3007B017A0279E6120F3A9002E5E075F00670
:1029F300A424C0F9740535F0FA7B01C003900303E6
:102A0300EBF0A37402F0A374E6F0A3E4F0A374055F
:102A1300F0D003126E9DE49002E2F09002E2E0FF38
:102A2300C3940A748094805066EF6402700D900220
:102A3300E5E0FF9002E2E024D88039E49002E3F07D
:102A43009002E3E0FFC3940A74809480503974E6E3
:102A53002FF582E43402F583E0FF9002E2E0FE24E6
:102A6300CEF582E43402F583E0B507139002E3E088
:102A7300FF74D82EF582E43402F583EFF0800890DA
:102A830002E3E004F080B99002E2E004F0808C906D
:102A930002E27402F09002E2E0C3940A748094802C
:102AA3005021E0FF24D9F582E43402F583E0FE747B
:102AB300D82FF582E43402F583EEF09002E2E004CD
:102AC300F080D29002E5E09002E1F078B37C057DDE
:102AD300017B017A0279D87E007F0A12078612856C
:102AE30095E49002E2F09002E2E0FFC3940A74805E
:102AF300948050257BFF7A9C798D74B32FF582E403
:102B03003405F583E0FF900303E4F0A3EFF0122B09
:102B13008B9002E2E004F080CD12850022E51724B9
:102B230003F582E43403F583E005172290030030B4
:102B33000703900303E475F001120C170207AC209E
:102B430000E97F2ED2008018EF540F2490D4344034
:102B5300D4FF30040BEF24BFB41A0050032461FFE9
:102B6300E51860021518051BE51B7002051A3007EE
:102B73000E900300E475F001120C17EF0207F20246
:102B8300974C7403D2078003E4C207F51790030040
:102B9300120C45E4F518F51AF51BE51860077F20BC
:102BA300122B6380F57519FFC201C200C202C20372
:102BB300C205C206C208122B2FFF700D3007057F16
:102BC30000122B74AF1BAE1A22B4255FC2D5C20408
:102BD300122B2FFF24D0B40A00501A75F00A78186C
:102BE30030D50508B6FF0106C6A426F620D5047025
:102BF30002D20380D924CFB41A00EF5004C2E5D225
:102C030004022E66D20180C6D20080C0D20280BCEC
:102C1300D2D580BAD20580B47F20122B632002075D
:102C23007401B5180040F1122B20FF122B63022B05
:102C33009DD208D2068095122B20FB122B20FA126C
:102C43002B20F94A4B700679647A2F7BFF20022EE2
:102C5300E518602A7E008E827583001207C5600620
:102C63000EEE651970F0C2D5EBC0E0EAC0E0E9C032
:102C7300E0EE122EC7D0E0F9D0E0FAD0E0FB120765
:102C8300ACFF60AAEBC0E0EAC0E0E9C0E0122B634E
:102C9300D0E02401F9D0E03400FAD0E0FBE51904D8
:102CA30060DCD519D98087D20280A2122EA960F7E1
:102CB300E519700104120417A919600DE5196009DB
:102CC30014F519122F51EF60F3EA30E702F404C34D
:102CD300995079EAF425190430E701E404F51980E1
:102CE3000D122EA960C1EA05192519120417EA90DD
:102CF300032FF030E701E4251904D5190420050159
:102D030014122EC7E4C0E0122F5190032FE060137A
:102D130020E70714F0122B4B802204F0D0E014C0FC
:102D2300E07F00122B4BE5196007122B4215198027
:102D33000B300503122B42D0E0022B9DD0E0048020
:102D4300C4122EA9609EE5190412041790032FEAFA
:102D5300F0E5192005026001042404122EC774FF54
:102D630004C0E0122F51122B4BE51920050260031A
:102D7300122B42D0E0B519E87F45122B5590032F53
:102D8300E07F2B30E7047F2DF404C0E0122B63D0E7
:102D9300E075F00A84C0F0122B4CD0E0122B4C02E9
:102DA3002B9D791080027908C206C2088008D2D50B
:102DB300790A8004790AC2D5E519047002F519E489
:102DC300FAFDFEFF122B20FC7B08200113122B209F
:102DD300FD7B1030000A122B20FE122B20FF7B20DC
:102DE300EC3382D592D55013C3E43000069FFFE441
:102DF3009EFEE42001039DFDE49CFCE4CBF8C201AC
:102E0300EC700CCFCECDCCE824F8F870F38017C368
:102E1300EF33FFEE33FEED33FDEC33FCEB33FB9985
:102E23004002FB0FD8E9EB300105F8D0E0C448B20B
:102E330001C0E00AEC4D4E4F78207B0070C2EAB52A
:102E4300190040BCC0E0122EC9D0F0D0E02001042C
:102E5300C4C0E0C4B201C0F0122B4CD0F0D5F0EBEB
:102E6300022B9D120C4E2C3A532DA5582C0B4C2C97
:102E730007422DA94F2DB1442DB1492C20432DB725
:102E8300552CE4462D44452CAE472F84502C0F2D52
:102E93002C132E2C362B2C17232C34202F6D2A2B5E
:102EA300CF4800002C2EE519B4FF03751906122B29
:102EB30020FC122B20FD122B20FE122B20FF90034F
:102EC30028020454790AA2D5200314300509B91045
:102ED300020404B9080104A2D5200602500104200B
:102EE30002689202B518005034C0E07F2030031905
:102EF3007F30A20272067205500F122F20C202C247
:102F030006C205C2087F30800F300503E9C0E01216
:102F13002B63300503D0E0F9D0E0B518CC300517AA
:102F23007F30B9100C122B637F583004077F7880F1
:102F330003B90803122B633002057F2D022B637F35
:102F4300202008F87F2B2006F322920280CF7F00F7
:102F5300B40700500B2428F582E43403F583E0FF23
:102F630022286E756C6C2900D201122B203001F8D7
:102F7300C201781830D50108F6022BCF2D504349F2
:102F830058122B202403B405004001E4902F7F93B3
:102F9300122B54743A122B54D203751804022DA524
:102FA300129AA0900351EFF09004D37401F09004AF
:102FB300CEE004F0E0640A6003023261F0C39006DD
:102FC30042E0943B900641E064809480500FA3E07C
:102FD30004F07006900641E004F0023261E49006CA
:102FE30041F0A3F0C3900644E0943B900643E064B1
:102FF300809480500FA3E004F07006900643E00431
:10300300F0023261E4900643F0A3F0C3900646E079
:103013009417900645E064809480500FA3E004F079
:10302300705E900645E004F0023261E4900645F0DC
:10303300A3F0900649E0FEA3E0FF64014E6024EF95
:1030430064034E601EEF64054E6018EF64074E6024
:1030530012EF64084E600CEF640A4E6006EF640CD6
:103063004E7061C3900648E0941E900647E064806A
:103073009480500FA3E004F07006900647E004F03C
:10308300023261900647E4F0A304F0C390064AE0DD
:10309300940B900649E064809480500FA3E004F001
:1030A3007006900649E004F0023261900649E4F0AC
:1030B300A304F090064CE004F0700690064BE00485
:1030C300F0023261900649E0FEA3E0FF64044E6023
:1030D30012EF64064E600CEF64094E6006EF640B5A
:1030E3004E7061C3900648E0941D900647E06480EB
:1030F3009480500FA3E004F07006900647E004F0BC
:10310300023261900647E4F0A304F0C390064AE05C
:10311300940B900649E064809480500FA3E004F080
:103123007006900649E004F0023261900649E4F02B
:10313300A304F090064CE004F0700690064BE00404
:10314300F0023261900649E07004A3E06402600378
:1031530002326190064BE0FAA3E0FB7C007D04FFA2
:10316300AE0212088DED4C7015FC7D64AF03AE0208
:1031730012088DD3ED9400EC648094805025900662
:103183004BE0FAA3E0FB7C007D64FFAE0212088DE6
:10319300ED4C706E7C017D90AF03AE0212088DED95
:1031A3004C705FC3900648E0941C900647E064802F
:1031B3009480500FA3E004F07006900647E004F0FB
:1031C300023261900647E4F0A304F0C390064AE09C
:1031D300940B900649E064809480500EA3E004F0C1
:1031E3007006900649E004F08074900649E4F0A369
:1031F30004F090064CE004F0700690064BE004F0F7
:10320300805CC3900648E0941B900647E06480947A
:1032130080500EA3E004F07006900647E004F080AF
:103223003D900647E4F0A304F0C390064AE0940BF4
:10323300900649E064809480500EA3E004F0700689
:10324300900649E004F08016900649E4F0A304F0E8
:1032530090064CE004F0700690064BE004F09004F6
:10326300C3E0640170309004C7E004F0700690047A
:10327300C6E004F09004D0E0FEA3E0FFC39004C7CF
:10328300E09F9004C6E09E400D9004C37402F0E4F6
:103293009004C6F0A3F09004CFE06401701B900487
:1032A300D2E004F0E0C3940A74809480400B90044D
:1032B300CF7402F0E49004D2F09004D4E0D39400ED
:1032C30074809480402A9004C2E004F07006900455
:1032D300C1E004F09004C1E0FEA3E0FFE4FCFD7B49
:1032E300587A02F9F8D3120AF85005E49004D4F09E
:1032F3001284B4EF700302337C900351E0FF6461E6
:103303006077EF646060729004C3E06401606A12E6
:103313009242EF7064129702EF705E900352F09046
:1033230004C5E004F070069004C4E004F090035177
:10333300E0FF64126014EF6413600FEF6441600AEE
:10334300EF64326005EF64337011D39004C5E094E9
:10335300C89004C4E094004017800FD39004C5E0E4
:1033630094649004C4E0940040069003527401F006
:10337300900352E0600A028625E49004C4F0A3F0AF
:1033830022900284EFF0A20192029002887403F06B
:103393001286FB30010302370F900284E0FF25E021
:1033A3002405F582E4349BF583E493FC740193FDD7
:1033B30075F002EFA4248CF582E5F03403F583EC79
:1033C300F0A3EDF0900284E0FE909AE593FF900263
:1033D30087F075F002EEA4248CF582E5F03403F552
:1033E30083E0FCA3E0FD128C17900284E0FD75F0EE
:1033F30002A424EDF582E5F03403F583EEF0A3EFA8
:10340300F075F002EDA424EDF582E5F03403F583C5
:10341300E0FEA3E0FF900285E0FCA3E0FDD3EF9D77
:10342300EE9C50030235FA900284E0FF75F002A48B
:1034330024EDF582E5F03403F583E0FCA3E0FD9091
:103443000285E0FAA3E0FBD3ED9BEC9A500302352F
:103453001675910775F002EFA4248CF582E5F0341C
:1034630003F583E0FEA3E0C394FFEE94014003025F
:103473003516900284E0FF75F002A4248CF582E5F2
:10348300F03403F583E475F0011208C375F002EF1D
:10349300A4248CF582E5F03403F583E0FCA3E0FD7E
:1034A300900287E0FF128C17900284E0FD75F00212
:1034B300A424EDF582E5F03403F583EEF0A3EFF0F9
:1034C30075F002EDA424EDF582E5F03403F583E015
:1034D300FEA3E0FF75F002EDA424A4F582E5F03429
:1034E30003F583EEF0A3EFF075F002EDA424EDF500
:1034F30082E5F03403F583E0FEA3E0FF75F002ED0F
:10350300A424C8F582E5F03403F583EEF0A3EFF0CD
:1035130002342AE5CDC454072409F9E47F01FEFDF2
:10352300FCA801120B32EF24F6FBEE34FFFAED3464
:10353300FFF9EC34FFF8900284E075F002A424ED67
:10354300F582E5F03403F583E0FEA3E0FFE4FCFD40
:10355300D3120B0E40030235FA900284E0FF75F09C
:1035630002A4248CF582E5F03403F583E475F001BD
:103573001208C375F002EFA4248CF582E5F034033E
:10358300F583E0FCA3E0FD900287E0FF128C179027
:103593000284E0FD75F002A424EDF582E5F0340326
:1035A300F583EEF0A3EFF075F002EDA424EDF582C0
:1035B300E5F03403F583E0FEA3E0FF75F002EDA42C
:1035C30024A4F582E5F03403F583EEF0A3EFF07560
:1035D300F002EDA424EDF582E5F03403F583E0FE7B
:1035E300A3E0FF75F002EDA424C8F582E5F03403EF
:1035F300F583EEF0A3EFF0900284E075F002A424CB
:10360300EDF582E5F03403F583E0FEA3E0FF9002DD
:1036130085E0FCA3E0FDD3EF9DEE9C400302370F52
:10362300900284E0FF75F002A424EDF582E5F03406
:1036330003F583E0FCA3E0FD900285E0FAA3E0FB41
:10364300C3ED9BEC9A400302370F75910775F002A7
:10365300EFA4248CF582E5F03403F583E0FEA3E0C8
:10366300D39400EE9400500302370F900284E0FFDE
:1036730075F002A4248CF582E5F03403F58374FF1E
:10368300F5F01208C375F002EFA4248CF582E5F07F
:103693003403F583E0FCA3E0FD900287E0FF128C86
:1036A30017900284E0FD75F002A424EDF582E5F0A5
:1036B3003403F583EEF0A3EFF075F002EDA424EDEF
:1036C300F582E5F03403F583E0FEA3E0FF75F00235
:1036D300EDA424A4F582E5F03403F583EEF0A3EF23
:1036E300F075F002EDA424EDF582E5F03403F583E3
:1036F300E0FEA3E0FF75F002EDA424C8F582E5F037
:103703003403F583EEF0A3EFF0023623227B007A35
:103713000079089002E1E4F0A3740FF0E4FF900253
:10372300DDEFF0A3EBF0A3EAF0A3E9F07F09129A2F
:10373300229002DDE014700302382124FE7003029C
:1037430038EE14700302394E24046003023A869063
:1037530002E67401F0A37400F0A37400F0A37401F3
:10376300F0A374F4F0E4FF129A1CE4FF1291B3E4A3
:103773009002E3F0A3F09002E1E0FEA3E0FFC39028
:1037830002E4E09F9002E3E09E5037E0FCA3E0FDFB
:103793009002DEE0FBA3E0FAA3E0F98D828C8312B2
:1037A30007C5FBE4FF127AEE9002E5EFF070037FAA
:1037B30001229002E4E004F070BC9002E3E004F024
:1037C30080B4E49002E3F0A3F09002E9E0FEA3E00A
:1037D300FFC39002E4E09F9002E3E09E4003023ABD
:1037E30089E0FEA3E0FF2418FDE43EFC9002E6E03E
:1037F300FBA3E0FAA3E0F98F828E831207C5FBE4F3
:10380300FF127AEE9002E5EFF070037F012290023F
:10381300E4E004F070B39002E3E004F080AB9002C4
:10382300E6E4F0A37400F0A37408F0A3E4F0A37437
:103833000FF0E4FF129A1CE4FF1291B3E49002E349
:10384300F0A3F09002E9E0FEA3E0FFC39002E4E0FE
:103853009F9002E3E09E5037E0FCA3E0FD9002E678
:10386300E0FBA3E0FAA3E0F98D828C831207C5FB8A
:10387300E4FF127AEE9002E5EFF070037F012290ED
:1038830002E4E004F070BC9002E3E004F080B4E4EE
:103893009002E3F0A3F09002E1E0FEA3E0FFC39007
:1038A30002E4E09F9002E3E09E4003023A89E0FED7
:1038B300A3E0FF2418FDE43EFC9002DEE0FBA3E05E
:1038C300FAA3E0F98F828E831207C5FBE4FF127A15
:1038D300EE9002E5EFF070037F01229002E4E00432
:1038E300F070B39002E3E004F080AB7F01129A1C06
:1038F3007F011291B3E49002E3F0A3F09002E1E0C0
:10390300FEA3E0FFC39002E4E09F9002E3E09E4049
:1039130003023A89E0FCA3E0FD9002DEE0FBA3E0B2
:10392300FAA3E0F98D828C831207C5FB7F01127A1B
:10393300EE9002E5EFF070037F01229002E4E004D1
:10394300F070B99002E3E004F080B19002E6E4F095
:10395300A37400F0A37408F0A3E4F0A3740FF0A31E
:103963007401F0A37400F0A37400F0A37401F0A336
:1039730074F4F0E4FF129A1CE4FF1291B3E4900292
:10398300E3F0A3F09002E9E0FEA3E0FFC39002E4BA
:10399300E09F9002E3E09E5037E0FCA3E0FD90023D
:1039A300E6E0FBA3E0FAA3E0F98D828C831207C55E
:1039B300FBE4FF127AEE9002E5EFF070037F012241
:1039C3009002E4E004F070BC9002E3E004F080B401
:1039D300E49002E3F0A3F09002EEE0FEA3E0FFC365
:1039E3009002E4E09F9002E3E09E503DE0FEA3E0FE
:1039F300FF2418FDE43EFC9002EBE0FBA3E0FAA3F6
:103A0300E0F98F828E831207C5FBE4FF127AEE90F2
:103A130002E5EFF070037F01229002E4E004F0700E
:103A2300B69002E3E004F080AEE49002E3F0A3F08A
:103A33009002E1E0FEA3E0FFC39002E4E09F900266
:103A4300E3E09E5041E0FEA3E0FF2414FDEE3402C8
:103A5300FC9002DEE0FBA3E0FAA3E0F98F828E8301
:103A63001207C5FBE4FF127AEE9002E5EFF0700354
:103A73007F01229002E4E004F070B59002E3E004D9
:103A8300F080AD7F01227F00229002BAEBF0A3EA1F
:103A9300F0A3E9F09002C0120BB70000000012522D
:103AA3007F9002BDE0FBA3E0FAA3E0F9EE8FF012F2
:103AB30009749002CB740AF0A37401F0A37406F0A6
:103AC300A37407F09002BAE0FBA3E0FAA3E0F97D48
:103AD3003C7C00124B497B017A06790712527F9096
:103AE30002BDE0FBA3E0FAA3E0F9900002EE8FF041
:103AF3001209939002CB740AF0A37401F0A3740625
:103B0300F0A37407F07B017A06F97D3C7C00124B2D
:103B1300497B017A0679077D0A1264AE9002C012CE
:103B23000BABE47BF87A88F9F89002C0E0FCA3E0E1
:103B3300FDA3E0FEA3E0FF120A4B7802120B32EF63
:103B430024B2FFEE3407FE9002BDE0FBA3E0FAA32C
:103B5300E0F990000AEE8FF01209939002C0E0FCA6
:103B6300A3E0FDA3E0FEA3E0FFE47BF87A88F9F885
:103B7300120A4BAC00AD01AE02AF03023C16900239
:103B8300C47422F0A37438F09002BDE0FBA3E0FA02
:103B9300A3E0F990000A1208EF5403700E9002C5D7
:103BA300E02418F09002C4E03400F09002C4E0FE78
:103BB300A3E0FFEE3395E0FDFC9002C0E0F8A3E044
:103BC300F9A3E0FAA3E0FBC3120B0E404F9002BD32
:103BD300E0FBA3E0FAA3E0F990000AE475F0011218
:103BE30009279002C0E0FCA3E0FDA3E0FEA3E0FFF1
:103BF300C006C007A3E0FEA3E0FBAA06EA3395E0F4
:103C0300F9F8D007D006C3EF9BFFEE9AFEED99FDBE
:103C1300EC98FC9002C0120BAB023B81E47B18FAD8
:103C2300F9F89002C0E0FCA3E0FDA3E0FEA3E0FFEF
:103C3300120A4BAE02AF039002BDE0FBA3E0FAA36E
:103C4300E0F9900004EE8FF01209939002C0E0FCBB
:103C5300A3E0FDA3E0FEA3E0FFE47B18FAF9F8126A
:103C63000A4B9002C0120BAB9002C0E0FCA3E0FD34
:103C7300A3E0FEA3E02401FFE43EFEE43DFDE43CBB
:103C8300FC9002C0120BAB9002BDE0FBA3E0FAA3D1
:103C9300E0F990000A1208EF540370767F3CFEFDB2
:103CA300FC9002C0E0F8A3E0F9A3E0FAA3E0FBD3A1
:103CB300120B0E40249002C0E0FCA3E0FDA3E0FE43
:103CC300A3E024FFFFEE34FFFEED34FFFDEC34FFF1
:103CD300FC9002C0120BAB8039E47F3CFEFDFC90EC
:103CE30002C0E0F8A3E0F9A3E0FAA3E0FBC3120BE0
:103CF3000E701F9002BDE0FBA3E0FAA3E0F9900071
:103D030008E475F001120993900006E475F01D02B2
:103D13003DDB9002BDE0FBA3E0FAA3E0F9900008CD
:103D2300E4F5F01209939002BDE0FBA3E0FAA3E0EF
:103D3300F99000081208EF24FBF582740535F0F5BD
:103D430083E0FF3395E0FEFDFC9002C0E0F8A3E0C2
:103D5300F9A3E0FAA3E0FBD3120B0E40609002C07C
:103D6300E0FCA3E0FDA3E0FEA3E0FFC0079002BDDB
:103D7300E0FBA3E0FAA3E0F99000081208EF24FBAC
:103D8300F582740535F0F583E0FB3395E0FAF9F835
:103D9300D007C3EF9BFFEE9AFEED99FDEC98FC90E4
:103DA30002C0120BAB9002BDE0FBA3E0FAA3E0F963
:103DB300900008E475F001120927023D299002C022
:103DC300A3A3E0FEA3E0FF9002BDE0FBA3E0FAA300
:103DD300E0F9900006EE8FF012099322AB07EB2572
:103DE300E0245CF582E4349BF583E493FF74019350
:103DF300900288CFF0A3EFF0EB25E0245CF582E49A
:103E0300349BF583E493FC740193FD909B4CE49302
:103E1300FF7E00120826EEC4F854F0C868FEEFC413
:103E2300540F48FF90028AEEF0A3EFF075F002EB17
:103E3300A424EDF582E5F03403F583E0FEA3E0FF6F
:103E430075F002EBA424A4F582E5F03403F583E0D6
:103E5300FCA3E0C39FFFEC9EFE900286F0A3EFF06D
:103E6300C3EE648094805003023FBCA3E0FEA3E052
:103E7300FF900286E0FCA3E0FD9FEE6480F8EC6413
:103E83008098401074582BF582E43403F583740151
:103E9300F0023F8890028AE0FEA3E0FFC3ED9FEEAD
:103EA3006480F8EC6480984058741D2BF582E434E8
:103EB30004F583E004F074702BF582E43403F58396
:103EC300E4F074112BF582E43404F583E4F07464B4
:103ED3002BF582E43403F583E4F0741D2BF582E4BF
:103EE3003404F583E0FF90073BE0FEEFC39E5003ED
:103EF300023F88741D2BF582E43404F583E4F080DB
:103F03006E741D2BF582E43404F583E4F074702B96
:103F1300F582E43403F583E004F074112BF582E4B5
:103F23003404F583E4F074642BF582E43403F583FD
:103F3300E4F074702BF582E43403F583E0FF90071B
:103F43003DE0FEEFC39E403D74702BF582E43403E5
:103F5300F583E4F075F002EBA424A4F582E5F034D4
:103F630003F583E0FEA3E0D39400EE9400401675BE
:103F7300F002EBA424A4F582E5F03403F58374FF87
:103F8300F5F01208C3909B9EE493FE740193FFC364
:103F9300900289E09FFF900288E09EFEC390028713
:103FA300E09F900286E09E400302412D74582BF55A
:103FB30082E43403F583E4F02274582BF582E4346D
:103FC30003F583E4F090028AE0FEA3E0FFC3E49FDD
:103FD300FFE49EFEC3900287E09FEE6480F89002A8
:103FE30086E0648098406C741D2BF582E43404F5FC
:103FF30083E4F074702BF582E43403F583E4F07406
:10400300112BF582E43404F583E004F074642BF59A
:1040130082E43403F583E4F074112BF582E4340471
:10402300F583E0FF90073AE0FEEFC39E50030241A1
:104033002D74112BF582E43404F583E4F075F0025A
:10404300EBA424A4F582E5F03403F583E475F001D1
:1040530002412A741D2BF582E43404F583E4F074E1
:10406300702BF582E43403F583E4F074112BF582AD
:10407300E43404F583E4F074642BF582E43403F54B
:1040830083E004F074642BF582E43403F583E0FFEA
:1040930090073CE0FEEFC39E500302412D74642B56
:1040A300F582E43403F583E4F0900289E025E0FD32
:1040B300900288E033FCE0A2E713FEA3E0132DFF98
:1040C300EE3CFEC3E49FFFE49EFED3900287E09F95
:1040D300EE6480F8900286E0648098502975F002BF
:1040E300EBA424EDF582E5F03403F583E0FEA3E0D1
:1040F300FF75F002EBA424A4F582E5F03403F58305
:10410300EEF0A3EFF02290028AE0FEA3E0FF7C0032
:104113007D0512088D75F002EBA424A4F582E5F069
:104123003403F583EE8FF01208C3229002DDEBF027
:10413300A3EAF0A3E9F0E4900301F0A3F0A3F0A352
:10414300F0A3F0A3F0A3F0FE7F08FD7B017A0279D0
:10415300E9120F3A7E007F087D007B017A0279F134
:10416300120F3A7E007F087D007B017A0279F912F3
:104173000F3A9002E3E0FBA3E0FAA3E0F9EA494B2C
:1041830070030243FA1207ACF460030242AA9000E0
:10419300011207C5F460030242AA9000021207C588
:1041A300F460030242AA9000031207C5F4600302FD
:1041B30042AA9000041207C5F460030242AA9000C9
:1041C300051207C5F460030242AA9000061207C550
:1041D300F460030242AA9000071207C5F4600302C9
:1041E30042AA121B209002E9E0F9F4700690030141
:1041F300F0FF229002EAE0FF7E007C037DE81208D4
:1042030026AA06AB07E9FF7E007C277D101208264D
:10421300EF2BFDEE3AFCA3E075F064A42DFDE5F071
:104223003CFCA3E075F00AA42DFFE5F03CFEA3E0FF
:104233007C002FFFEC3EFE900302F0A3EFF0C3904F
:104243000305E09FEE6480F8900304E064809840E7
:10425300030243F2E4900306F0A3F09002DDE0FBD7
:10426300A3E0FAA3E0F9900306E0FEA3E0FFF582E2
:104273008E831207C524D0FD74F12FF58274023E9C
:10428300F583EDF0900307E004F07006900306E079
:1042930004F0900306E07004A3E0640870BD90038B
:1042A300017401F00243F29002E0E0F9A3E0FAA303
:1042B300E090030BC9F0A3EAF0A3E9F0A37401F0C3
:1042C300A37402F0A374F9F09002E3E0FBA3E0FA15
:1042D300A3E0F91220F79002F9E0F470030243FB24
:1042E300121B209002E9E0F470030243FB9002EA00
:1042F300E0FF7E007C037DE8120826AA06AB079048
:1043030002E9E0FF7E007C277D10120826EF2BFDDB
:10431300EE3AFC9002EBE075F064A42DFDE5F03C71
:10432300FCA3E075F00AA42DFFE5F03CFEA3E07CBE
:10433300002FFFEC3E900302F0A3EFF09002FAE0AF
:10434300FF7E007C037DE8120826AA06AB079002D5
:10435300F9E0FF7E007C277D10120826EF2BFDEE8F
:104363003AFC9002FBE075F064A42DFDE5F03CFC03
:10437300A3E075F00AA42DFFE5F03CFEA3E07C006A
:104383002FFFEC3EFE900304F0A3EFF0D390030362
:10439300E09FEE6480F8900302E06480984050E46C
:1043A300900306F0A3F09002DDE0FBA3E0FAA3E0A4
:1043B300F9900306E0FEA3E0FFF5828E831207C5A2
:1043C30024D0FD74F12FF58274023EF583EDF09055
:1043D3000307E004F07006900306E004F090030680
:1043E300E07004A3E0640870BD9003017401F07EE3
:1043F300007F087D008009E4900301F0FE7F08FD43
:104403009002E6E0FBA3E0FAA3E0F9120F3A900270
:10441300E6E0FBA3E0FAA3E0F8AC02AD037B017A8C
:104423000279F17E007F08120786900301E0FF22E4
:10443300C10AC10CC10BC10941042900420726006E
:1044430000410728004106FA00410711004106FB1D
:10445300005406FD00000000000000000000000002
:1044630000000000000000004106FC004207450078
:1044730000410747FF41074803011C00011E0001DB
:104483001D00011F0041065400410653FF0123FF95
:104493000122FF41064F0041064E004106500041F4
:1044A3000651004106520041064D00609404D502B6
:1044B30023000327000423000725000826000A27FA
:1044C300000D23000F25000824001627001E2700D7
:1044D3002023001F27002823002B24002C24002D39
:1044E300240051425243250051465249250051446C
:1044F30052452500514852472500514A524B250049
:10450300513352345335250051365238533925002F
:10451300513A523C533D2500513E524053412500F0
:1045230006270051422500513052312500513A529D
:104533003C250051305232533354345535565D5770
:104543006125004104CD004204C400004204C600BA
:10455300004204D000004104C3004104CF004104E1
:10456300D20041042A004104CE004104D300410497
:10457300D4004204C100004304CA00000060820466
:104583003F010300000001070000000108000000D4
:104593000109000000010BFF99A3010CFF937501B2
:1045A3000CFF938E019EFF7110010A0000000A04A4
:1045B300FF90DA02080000000209000000020BFF6E
:1045C30099A3030DFF91D0030FFF98E40310FF9904
:1045D3007B0747FF91ED0749FF98F1074AFF999938
:1045E3000882FF98FE096A00000009840000006A3F
:1045F30069FF93116A68FF932A846FFF9343847062
:10460300FF935C5E06DC01E602B303BB05C307CB85
:104613000895099B0ADA06E06AA76AA783A184AD15
:104623009FFFFFFF4C06AD000000000000000000EC
:104633000000004107420042074300004101F4FF2C
:1046430041072A004107310042072F000044072B8E
:104653009607999B41072900420740000041073E06
:104663000041073F004A0607FF000000000000006A
:1046730000004C05FB1F1C1F1E1F1E1F1F1E1F1E9D
:104683001F603006110000001F003B005A00780035
:104693009700B500D400F301110130014E00000072
:1046A3001F003C005B0079009800B600D500F401C0
:1046B300120131014F007B01E4FD9002C2EBF0A334
:1046C300EAF0A3E9F0A3EDF0E49002CAF0A3F0A3AB
:1046D300F0A37403F0A374E8F0EDD3940074809412
:1046E300805003024815C2AFE49002CAF09002C59D
:1046F300E0FF9002CAE0FEC39F50219002C2E0FB9C
:10470300A3E0FAA3E0F98E827583001207C5FDE4E6
:10471300FF128F719002CAE004F080D19002CD7431
:10472300FFF5F01208C345F070030248107F017EC5
:1047330000128FBD900728E0C394027480948040D8
:10474300DBE49002CAF0900728E0FF9002CAE0FE83
:10475300C39F506274122EF582E43407F583E0FDA3
:10476300644B6022ED6449601DED64426018ED64A2
:10477300466013ED6452600EED644D6009ED644ACA
:104783006004EDB47128EDB44A079002CCEEF080DA
:1047930025EEFDC3EF9DFFE49400FEC3EF9402EE0C
:1047A3006480948040089002CAE09002CCF09002AA
:1047B300CAE004F080909002CCE09002CAF0900727
:1047C30028E0FF9002CAE0FEC39F4003024902743F
:1047D300122EF582E43407F583E0FF9002C6E0FB76
:1047E300A3E0FAA3E0F99002CBE0FEF58275830023
:1047F300EF1208049002C9E0146E7003024902909C
:1048030002CBE004F09002CAE004F080B1D2AF0220
:10481300490DC2AF9002CD74FFF5F01208C345F005
:10482300700302490B7F017E00128FBD900728E0C1
:10483300C394027480948040DBE49002CAF0900732
:1048430028E0FF9002CAE0FEC39F506274122EF567
:1048530082E43407F583E0FD644B6022ED64496034
:104863001DED64426018ED64466013ED6452600E02
:10487300ED644D6009ED644A6004EDB47128EDB454
:104883004A079002CCEEF08025EEFDC3EF9DFFE4D6
:104893009400FEC3EF9402EE64809480400890027B
:1048A300CAE09002CCF09002CAE004F0809090023B
:1048B300CCE09002CAF0900728E0FF9002CAE0FE25
:1048C300C39F503B74122EF582E43407F583E0FF57
:1048D3009002C6E0FBA3E0FAA3E0F99002CBE0FE6E
:1048E300F582758300EF1208049002C9E0146E602C
:1048F3000E9002CBE004F09002CAE004F080B7E42B
:10490300900728F0D2AFFF22D2AF7F00229002BAE5
:10491300EBF0A3EAF0A3E9F0A3EDF0E4A3F0A3F036
:104923009002CAF0A374FFF0E49002BEF09002BEBE
:10493300E0FFC39464748094804003024A2675F0B8
:1049430005EFA42404F582E5F03400F583E0F47068
:1049530003024A1D7E007F087DFF7B017A0279C234
:10496300120F3A9002BEE075F005A42400F974001A
:1049730035F0FA7B01C0039002E0EBF0A37402F080
:10498300A374C2F0D0031276109002CAEFF0E49041
:1049930002C0F09002CAE0FF9002C0E02FFFE433B0
:1049A300FE9002BDE0FDD3EF9D7480F86E98505EDB
:1049B300E49002C1F09002CAE0FF9002C1E0FEC39E
:1049C3009F5037EEFF9002C0E02FFFE433FE9002CA
:1049D300BAE0FBA3E0FAA3E0F98F828E831207C546
:1049E300FF9002C1E024C2F582E43402F583E0B50E
:1049F30007089002C1E004F080BB9002CAE0FF9078
:104A030002C1E06F60089002C0E004F0808590026C
:104A1300CAE0FF9002C1E06F60099002BEE004F0BB
:104A23000249309002BEE0C39464748094805007BE
:104A3300E0FF9001F4F022E49002DCF0FE7F087DB9
:104A4300FF7B017A0279CC120F3A9002E07401F0F5
:104A5300A37402F0A374CCF07B017A007900127680
:104A6300109002CAEFF0E49002BEF09002BEE0FFA5
:104A7300C3940874809480507574CC2FF582E43409
:104A830002F583E0F49002BE700EE024CCF582E4DC
:104A93003402F583E4F0800EE024CCF582E43402A2
:104AA300F583E02430F09002BAE0FBA3E0FAA3E040
:104AB300F99002BEE0FFF5827583001207C5FEF48C
:104AC300700E74C22FF582E43402F583E4F080158E
:104AD3009002BEE0FFEE2430FE74C22FF582E43470
:104AE30002F583EEF09002BEE004F0024A6E9002FB
:104AF300E07401F0A37402F0A374CCF0A3E4F0A378
:104B03007400F0A3740FF0A37401F0A37402F0A374
:104B130074D4F07B017A0279C212412E9002DCEF49
:104B2300F0D39400748094804019780F7C007D004A
:104B33007B017A0279D47E007F0812078612371030
:104B43007FFE227FFF229002C6EBF0A3EAF0A3E9E7
:104B5300F0A3ECF0A3EDF09002D1120BB70000002C
:104B6300009002D5120BB7000000009002E3740A14
:104B7300F0E49002CFF09002CBE0FF9002CFE0FE92
:104B8300C39F50289002C6E0FBA3E0FAA3E0F98E8E
:104B9300827583001207C5F4700A9002CFE0900279
:104BA300E3F080089002CFE004F080CA7E007F0A21
:104BB3007DFF7B017A0279D9120F3AE49002D0F09B
:104BC3009002CFF09002E3E0FF9002CFE0C39F405A
:104BD30003024CD79002C6E0FBA3E0FAA3E0F990EE
:104BE30002CFE0F5827583001207C5FFE4FCFDFEEA
:104BF300C004C005C006C0077F0A9002D5E0F8A331
:104C0300E0F9A3E0FAA3E0FB1209C0D003D002D07D
:104C130001D000EF2BFFEE3AFEED39FDEC38FCC07E
:104C230006C0079002C9E0FEA3E0FBAA06E4F9F878
:104C3300D007D006120A4B9002D1120BAB9002C6DA
:104C4300E0FBA3E0FAA3E0F99002CFE0F5827583DD
:104C5300001207C5FFE4FCFDFEC004C005C006C08A
:104C6300077F0A9002D5E0F8A3E0F9A3E0FAA3E0F6
:104C7300FB1209C0D003D002D001D000EF2BFFEE0E
:104C83003AFEED39FDEC38FCC006C0079002C9E0DE
:104C9300FEA3E0FBAA06E4F9F8D007D006120A4BFC
:104CA300AC00AD01AE02AF039002D5120BAB900284
:104CB300D1A3A3A3E0FF9002D0E024D9F582E4348A
:104CC30002F583EFF09002D0E004F09002CFE0040D
:104CD300F0024BC7E49002CFF09002CBE0FF9002CA
:104CE300CFE0FEC39F501574D92EF582E43402F54C
:104CF30083E070089002CFE004F080DDE49002D0FE
:104D0300F09002CBE0FF9002D0E0FEC39F505290A0
:104D130002CFE0FDC39F502874D92DF582E43402FD
:104D2300F583E0FF9002CCE0FBA3E0FAA3E0F98E69
:104D330082758300EF1208049002CFE004F080191B
:104D43009002CCE0FBA3E0FAA3E0F99002D0E0F5F7
:104D53008275830074FF1208049002D0E004F0808F
:104D6300A07F0022AB07EBC3942074809480500A89
:104D7300E47F01FEFDFCA803800BE47F01FEFDFC44
:104D8300EB24E0F9F8120B32900282120BABEBC367
:104D93009420748094805003024E5F759651900264
:104DA30082A3A3A3E0FFEF4297759652900282E09D
:104DB300FCA3E0FDA3E0FEA3E0FF7808120B1FEFC6
:104DC3004297EBC3942474809480500E900282A384
:104DD300A3A3E0540FFFEF42EA22EBC394267480AF
:104DE3009480501B900282E0FCA3E0FDA3E0FEA3AD
:104DF300E0FF7804120B1FEF5403FFEF42EB22EBAB
:104E0300FFC3942C748094805037EF642A6005EFBD
:104E1300642B7012900282E0FCA3E0FDA3E0FEA3EA
:104E2300E0FF78048010900282E0FCA3E0FDA3E0A1
:104E3300FEA3E0FF7806120B1FEF54CFFFEF42EC07
:104E430022900282E0FCA3E0FDA3E0FEA3E0FF7852
:104E53000C120B1FEF540FFFEF42EE2275962690B4
:104E63000282A3A3A3E0FFEF4297759627900282E5
:104E7300E0FCA3E0FDA3E0FEA3E0FF7808120B1F14
:104E8300EF540FFFEF4297759628900282E0FCA340
:104E9300E0FDA3E0FEA3E0FF7810120B1FEF4297A3
:104EA300759629900282E0FCA3E0FDA3E0FEA3E057
:104EB300FF7818120B1FAB07EB4297900282E0FCBE
:104EC300A3E0FDA3E0FEA3E0FF7802120B32EF5450
:104ED300FCFFEF42EB900282E0FCA3E0FDA3E0FEC7
:104EE300A3E0FF7802120B1FEF5430FFEF42EC9068
:104EF3000282E0FCA3E0FDA3E0FEA3E0FF7804123E
:104F03000B1FEF54F0FFEF42EE900282E0FCA3E0B0
:104F1300FDA3E0FEA3E0FF780C120B1FEF54F0FF9C
:104F2300EF42EF900282E0FCA3E0FDA3E0FEA3E0EA
:104F3300FF7814120B1FEF540FFFEF42F2EB42F70F
:104F430022900284EFF0E4A3F0A3F0129AA0A3EF5F
:104F5300F06470700B129AA67F2F128B3F0298ABEE
:104F6300900287E0646070057F01129A9D9002872A
:104F7300E0FF7E006401600DEF64326008EF64338C
:104F83006003025106EF64544E700B129A46EF64AD
:104F9300076003025106129AA612973AEF64017052
:104FA300087F2E128B3F029A70900287E064547040
:104FB30037900653E0FF128325900285EFF06003DC
:104FC300025106900653E0700302509912915A90D1
:104FD3000285EFF0700A7D017F071288100250EA04
:104FE3007FD3128B3F0250EA7B017A027986128AC1
:104FF30091900285EFF0600302507C900287E06499
:105003000170057F04025E6B900287E064327005D5
:105013007F19025103900287E06433600302510653
:10502300900653E0FF128325900285EFF0704590C0
:105033000653E07002805F12915A900285EFF07080
:105043002CA3E0FF127CC6900285EFF07015A3E05D
:105053009001F4F07F05128B3F9001F4E0FF12986A
:105063002180057F6E128B3F12998F80057FD312AB
:105073008B3F80737F7A025103900287E064327022
:1050830070900653E0FF128325900285EFF0705D68
:10509300900653E0700C7F18128B3F9006537401F7
:1050A300F02212915A900285EFF07036FF1296EEBD
:1050B300900285EFF0700F7F05128B3F9001F4E0B3
:1050C300FF12981180057F6E128B3F900747E064B3
:1050D30001700A74FFF07F01129A9D800A1299856C
:1050E30080057FD3128B3FE4900653F0227F7A80B2
:1050F3000F900287E0640170057F040288D97F80E6
:10510300128B3F22EFB40700400302527E905117E7
:10511300F828287302512C0251530251790251C4C9
:10512300025212025235025258EB7009ED42EA75EF
:1051330096170251CDEB64017009ED42EA7596179B
:10514300025271EB6402600302527EEDF452EA22D2
:10515300EB7008ED42EB759618806FEB64017009F4
:10516300ED42EB759618025271EB64026003025232
:105173007EEDF452EB22EB7008ED42EC759619804C
:1051830049EB64017009ED42EC759619025271EB1B
:1051930064027015EDF452ECED5430700302527E4C
:1051A300759625C4540F025262EB640360030252E6
:1051B3007EEDF452EC759625ED5430C4540F4297AE
:1051C30022EB700AED42EE75961BED025262EB6420
:1051D300017009ED42EE75961B025271EB64027089
:1051E30015EDF452EEED5430700302527E759625A0
:1051F3001313543F8069EB6403600302527EEDF4A2
:1052030052EE759625ED54301313543F429722EB1B
:105213007009ED42EF75961CED8044EB6401700854
:10522300ED42EF75961C8046EB6402704EEDF4522E
:10523300EF22EB7009ED42F275961DED8021EB64D0
:10524300017008ED42F275961D8023EB6402702B0A
:10525300EDF452F222EB700BED42F775961EEDF46E
:10526300529722EB6401700AED42F775961EED42E8
:105273009722EB64027004EDF452F7229002CB7490
:105283000AF07D3C7C009002C6EBF0A3EAF0A3E9B0
:10529300F0A3ECF0A3EDF09002CD120BB7000000E9
:1052A300009002D1120BB7000000009002D5740ADF
:1052B300F0E49002CCF09002CBE0FFA3E0FEC39FAA
:1052C30050289002C6E0FBA3E0FAA3E0F98E8275B2
:1052D30083001207C5F4700A9002CCE09002D5F067
:1052E30080089002CCE004F080CCE49002CCF090F3
:1052F30002D5E0FF9002CCE0C39F40030253E59048
:1053030002C6E0FBA3E0FAA3E0F99002CCE0F58249
:105313007583001207C5FFE4FCFDFEC004C005C091
:1053230006C0077F0A9002D1E0F8A3E0F9A3E0FAF0
:10533300A3E0FB1209C0D003D002D001D000EF2BB1
:10534300FFEE3AFEED39FDEC38FCC006C0079002D3
:10535300C9E0FEA3E0FBAA06E4F9F8D007D00612E1
:105363000A4B9002CD120BAB9002C6E0FBA3E0FA0E
:10537300A3E0F99002CCE0F5827583001207C5FF24
:10538300E4FCFDFEC004C005C006C0077F0A90020E
:10539300D1E0F8A3E0F9A3E0FAA3E0FB1209C0D03F
:1053A30003D002D001D000EF2BFFEE3AFEED39FD22
:1053B300EC38FCC006C0079002C9E0FEA3E0FBAADC
:1053C30006E4F9F8D007D006120A4BAC00AD01AEE3
:1053D30002AF039002D1120BAB9002CCE004F002B7
:1053E30052F29002D1E0FCA3E0FDA3E0FEA3E0FFB4
:1053F30022900342120BABE4FFFE7D807C3F9003BF
:1054030042E0F8A3E0F9A3E0FAA3E0FB12038D70F6
:105413000690034202554E900342E0FCA3E0FDA335
:10542300E0FEA3E0FF12026DFBA3E0FCA3E0FDA3FB
:10543300E0FEA3E0FF12026DFFB40108E4FFFE7D6E
:10544300807C3F22EF64046029EB64046024EBB4A6
:105453000130E4FFFEFDFC900346E0F8A3E0F9A36E
:10546300E0FAA3E0FB12038D60084006E4FFFEFDB3
:10547300FC22900346120BB7FFFFFFFF9003460287
:10548300554EE490034AF0A3F0FFFEFDFC90034267
:10549300E0F8A3E0F9A3E0FAA3E0FB12038D505F69
:1054A300900346E0FCA3E0FDA3E0FEA3E0FF1201AE
:1054B300EC90034AEEF0A3EFF0FDCCEECCEC12013E
:1054C300B3C8ECC8C9EDC9CAEECACBEFCB9003464B
:1054D300E0FCA3E0FDA3E0FEA3E0FF1200B9E4FBC0
:1054E300FAF9F812038D708A900342E0FCA3E0FD01
:1054F300A3E0FEA3E0FF120406900342120BAB905D
:105503000342E0FCA3E0FDA3E0FEA3E0FF12594247
:10551300900346E0F8A3E0F9A3E0FAA3E0FB12024C
:10552300871270AE900346120BAB90034BE030E052
:1055330017900346E0FCA3E0FDA3E0FEA3E0FF1207
:105543000406900346120BAB900346E0FCA3E0FD78
:10555300A3E0FEA3E0FF229002C4EBF0A3EAF0A3D2
:10556300E9F0EF14606624FE7003025628147003FA
:10557300025653240460030256AAE4FF129A1CE461
:105583009002C9F0A3F09002C7E0FEA3E0FFA3E0FE
:10559300FCA3E0FDC39FEC9E40030256AAE4FF1266
:1055A300911B9002C4E0FBA3E0FAA3E0F99002C9C7
:1055B300E0FCA3E0F5828C83EF1208049002CAE0BA
:1055C30004F070C29002C9E004F080BAE4FF129ABA
:1055D3001CE49002C9F0A3F09002C7E0FEA3E0FF31
:1055E300A3E0FCA3E0FDC39FEC9E40030256AAED9B
:1055F3002418FDE43CFCE4FF12911B9002C4E0FB81
:10560300A3E0FAA3E0F99002C9E0FCA3E0F5828CE1
:1056130083EF1208049002CAE004F070BB9002C941
:10562300E004F080B37F01129A1C9002C4E0FBA354
:10563300E0FAA3E0F9E49002CFF0A3F09002C7E010
:10564300FFA3E09002D1CFF0A3EFF07D0102750834
:10565300E4FF129A1CE49002C9F0A3F09002C7E0A1
:10566300FEA3E0FFA3E0FCA3E0FDC39FEC9E503745
:10567300ED2414FDEC3402FCE4FF12911B9002C4F0
:10568300E0FBA3E0FAA3E0F99002C9E0FCA3E0F594
:10569300828C83EF1208049002CAE004F070BD907C
:1056A30002C9E004F080B522900300EBF0A3EAF016
:1056B300A3E9F0A3E0FBA3E0FAA3E0F9120BE800EF
:1056C300000000900306E0FBA3E0FAA3E0F9120B4D
:1056D300E800000000E4900309F0A3F0900300E069
:1056E300FBA3E0FAA3E0F9900309E0FEA3E0F5824F
:1056F3008E831207C5FFE4FCFDFEC004C005C0068F
:10570300C007900303E0FBA3E0FAA3E0F9120B4503
:10571300E47B0AFAF9F81209C0D003D002D001D011
:1057230000EF2BFFEE3AFEED39FDEC38FC9003035E
:10573300E0FBA3E0FAA3E0F9120B6590030AE0048F
:10574300F07006900309E004F0900309E07004A3ED
:10575300E064057087900309E4F0A37405F09003F7
:1057630000E0FBA3E0FAA3E0F9900309E0FEA3E065
:10577300F5828E831207C5FFE4FCFDFEC004C0055D
:10578300C006C007900306E0FBA3E0FAA3E0F9120A
:105793000B45E47B0AFAF9F81209C0D003D002D012
:1057A30001D000EF2BFFEE3AFEED39FDEC38FC9013
:1057B3000306E0FBA3E0FAA3E0F9120B6590030AEA
:1057C300E004F07006900309E004F0900309E07030
:1057D30004A3E0640A70877F00229002BC74FFF088
:1057E30078BF7C027D01FB7A9C79D37E007F031214
:1057F30007869002BD7442F0A37464F07B017A02C1
:1058030079BD7D0212841A7F2C7E01128FBD900216
:10581300C67401F0A37402F0A374BFF0A37403F081
:105823007B017A0279BDE4FD1246BD9002BFE064BC
:10583300427047A3E024BB601514602924F9601665
:1058430024FB60232406600302590B7FFF227F0899
:10585300128B3F7FFF229007477401F07F62128B08
:105863003F7F12800F80759007477401F07F1712F6
:105873008B3F7F32129A9D02590B9002BFE0FF6467
:105883004D600AEF64466005EF645270789002C180
:10589300E0FB9002C07005E024D0800CE024D075BA
:1058A300F00AA4FFEB24D02F9001F4F09002BFE0A4
:1058B30024BA602824F460282405704C9001F4E095
:1058C300FF7D0112808D9002BCEFF070317F0512D5
:1058D3008B3F9001F4E0FF129801802C7F08802019
:1058E3009001F4E0FF127CC69002BCEFF0700F7FD2
:1058F30005128B3F9001F4E0FF129821800A7F6E1E
:10590300128B3F80037F01227F00223E9248DA3EC2
:10591300CCCCCD3F2AAAAB400000003F8000003F23
:105923009837F03FB504F33FD744FC3E3172173E3E
:10593300B172173F0515913EDE5BD9D2008002C2DA
:1059430000EDD2E7F8CD33EC3304700BBD80059244
:10595300D502026202025840FBD31460F2F5F07CD8
:105963003FEE7A00C39496C8948B40230AC8946987
:10597300C8941A401A0AC89468C8941F40110AC8E8
:10598300945AC89425400805F07A00CDC2E7CDC0EB
:10599300F090034C120BABEA2323C0E0241EF582E4
:1059A300E43459F583120B9B1200BDECC0E0EDC04B
:1059B300E0EEC0E0EFC0E0120B7F90034C120B8FC0
:1059C3001200B9D0E0FBD0E0FAD0E0F9D0E0B2E7C2
:1059D300F812055C90034C120BAB90590E74031232
:1059E300066990034C120B8F120287D0E0600F24DC
:1059F3002AF582E43459F583120B9B1200BD900300
:105A03004C120BABD0E0C3947FFDE49400FC120175
:105A1300B37B187A727931783F12028790034C1264
:105A23000B8F1200BD30000B7BD97A5B79DE783E99
:105A330012028722E490030FF0A3120BAB9003042E
:105A4300E0FCA3E0FDA3E0FEA3E0FF900314120B30
:105A5300ABE490030FF090030FE0C39405748094BC
:105A6300805068E47B0AFAF9F8A3E0FCA3E0FDA305
:105A7300E0FEA3E0FF120A4BAF0390030FE0FDC368
:105A830090030CE09DFD90030BE09400CD24FFCD2B
:105A930034FFFC900308E0FBA3E0FAA3E0F98D8256
:105AA3008C83EF120804900310E0FCA3E0FDA3E055
:105AB300FEA3E0FFE47B0AFAF9F8120A4B90031005
:105AC300120BAB90030FE004F0808BE490030FF014
