:100000000258EF020086E4FF027AC802719DE4FF05
:10001000027AEB02008EE4FF027B0E02730DE4F520
:10002000C9C20053F1DF9003D5E0FEA3E0F5CA5347
:10003000CC7FEE5401C313E41342CC53CCC0908662
:100040009CE493543F42CC75C9012202009653E1CF
:10005000DF323202006E1286847F2A12742D7F6096
:100060000285AB0285C353E1F7323202006A53F1D5
:02007000F73265
:100073000270587F8912742D1279A17F410285ABDA
:070083000200AE5388FD32BC
:07008B000271DB5388F7321C
:0700930002006653F1FB328D
:07009B0002005253E1BF32E5
:0700A30002004E53E17F3221
:0700AB0002009E53E1FD324B
:1000B3000200A6020258E86480F8E933E8336011CD
:1000C3000460F0ED33EC337009E8FCE9FDEAFEEB84
:1000D300FF220460DED3EB9FEA9EE99DE8C2E78C32
:1000E300F0C2F795F0400CE8CCF8E9CDF9EACEFA86
:1000F300EBCFFB12022385D0F05804700320D5B355
:10010300E80470075002B2D502026292D5EC046093
:10011300F7E4CCC0E0C398F8603B94186008400D46
:10012300D0E0FB02023AE4FBFAC9FC8028E830E4A1
:1001330006E4C9FBE4CAFCE830E305E4C9CACBFC26
:10014300E854076010F8C3E913F9EA13FAEB13FB59
:10015300EC13FCD8F130F52FC3E49CFCEF9BFFEECE
:100163009AFEED99FDD0E0FBEF4E4D4C701222DB71
:100173000302025FEC2CFCEF33FFEE33FEED33FDA5
:10018300ED30E7EB02023AEF2BFFEE3AFEED39FDDD
:10019300D0E0FB50130BBB0003020262ED13FDEE34
:1001A30013FEEF13FFEC13FC02023A75F020800EEE
:1001B30075F010800575F0087D007E007F00339296
:1001C300D530D5031207E2EC334010EF33FFEE33A3
:1001D300FEED33FDEC33FCD5F0ED22E5F0247EA2F9
:1001E300D513CC92E7CDCEFF22EDD2E7CD33EC335E
:1001F30092D524814006E4FFFEFDFC22FCE4CFCE31
:10020300CDCC24E0501174FF80EDC3CC13CCCD13BF
:10021300CDCE13CECF13CF0470F030D5DE0207E27C
:10022300E9D2E7C933E833F892D5EDD2E7CD33EC21
:1002330033FC5002B2D522EC30E7100FBF000C0E96
:10024300BE00080DBD00040BEB6014A2D5EB13FC3C
:10025300ED92E7FD2274FFFCFDFEFF22E480F8A28D
:10026300D574FF13FC7D80E480EFED33EC33601035
:1002730004700FED547F7005740292E0227404221F
:100283000422E422EC4D6011E8497017ED33EC339E
:1002930004600DE4FCFFFEFD22E933E8330470F84B
:1002A30002025812022358046009E4CC2481500648
:1002B30028500902026228400302025FC0E0EB4AB1
:1002C3007044B98006D0E0FB02024EEF4E701CBDB5
:1002D3008008EBFFEAFEE9FD80EBE98DF0A4FEE583
:1002E300F0020370E9CDF9EAFEEBFFEF89F0A4FC1D
:1002F300E5F0CE89F0A42EFFE435F0CD89F0A42DEE
:10030300FEE435F08067EF4E7005BD80D780C3EF04
:100313008BF0A4ACF0EE8BF0A42CFCE435F0F8EFFA
:100323008AF0A42CE5F038FCE433CB8DF0A42CFC4C
:10033300E5F03BF8EE8AF0A42CFCE5F038F8E43362
:10034300CF89F0A42CFCE5F038CF3400CE89F0A49B
:100353002FFFE5F03EFEE433C98DF0A42EFEE5F059
:1003630039CD8AF0A42FFFE5F03EFEE43DFD33D006
:10037300E0FB50070BBB000F020262EC2CFCEF33D7
:10038300FFEE33FEED33FD02023A74F8CC6480CC09
:10039300C86480C8F58204604FC3EB9FF5F0EA9E02
:1003A30042F0E99D42F0E89C45F0603C501DE58237
:1003B3005FFFE582D313CB5BCBF42B5582FB502835
:1003C3000ABA002409B9002008801DE5825BFBE519
:1003D30082D313CF5FCFF4C3132F5582FF50090E7F
:1003E300BE00050DBD00010CC3EB9FF5F0EA9E4274
:1003F300F0E99D42F0E89C45F06007CC4820E70116
:10040300B3EC22ED33EC33600A047003BD8004ECDB
:10041300B2E7FC22020262EC5D046005E859047055
:1004230003020258120223580460F6EC4860F2EC0F
:100433007004FDFEFF22C860DB2481C85009C39805
:100443006002500602025F9850CAF582E9294B4ABE
:100453007005AB8202024E75F0007C1A7880C3EF00
:100463009BEE9AED99400DC3EF9BFFEE9AFEED993B
:10047300FDE842F0DC23ACF0D0E0FFD0E0FED0E0BA
:10048300FDAB8220E7101BEB60BAEC2CFCEF33FFD3
:10049300EE33FEED33FD02023AE803F830E705C020
:1004A300F075F000EF2FFFEE33FEED33FD40B83073
:1004B300E7C280AAC0E0EFFBEEFAEDF9ECF8120216
:1004C30087D0E0F5F0EFFBEEFAEDF9ECF812083D1A
:1004D300A3A3A3A3E8C0E0E9C0E0EAC0E0EBC0E067
:1004E300C0F0120287120859A3A3A3A31200BDD020
:1004F300F0D0E0FBD0E0FAD0E0F9D0E0F8D5F0D4CA
:1005030022E709F608DFFA8046E709F208DFFA80F6
:100513003E88828C83E709F0A3DFFA8032E309F691
:1005230008DFFA8078E309F208DFFA807088828CAA
:1005330083E309F0A3DFFA806489828A83E0A3F668
:1005430008DFFA805889828A83E0A3F208DFFA8001
:100553004C80D280FA80C680D4806980F280338058
:100563001080A680EA809A80A880DA80E280CA8020
:100573003389828A83ECFAE493A3C8C582C8CCC5C5
:1005830083CCF0A3C8C582C8CCC583CCDFE9DEE742
:10059300800D89828A83E493A3F608DFF9ECFAA934
:1005A300F0EDFB2289828A83ECFAE0A3C8C582C8F6
:1005B300CCC583CCF0A3C8C582C8CCC583CCDFEA45
:1005C300DEE880DB89828A83E493A3F208DFF98083
:1005D300CC88F0EF60010E4E60C388F0ED2402B4C6
:1005E300040050B9F582EB2402B4040050AF232376
:1005F30045822390055473BB010689828A83E022D6
:100603005002E722BBFE02E32289828A83E493221B
:10061300BB010CE58229F582E5833AF583E022509C
:1006230006E92582F8E622BBFE06E92582F8E222E6
:10063300E58229F582E5833AF583E49322BB01063B
:1006430089828A83F0225002F722BBFE01F322F84B
:10065300BB010DE58229F582E5833AF583E8F022B3
:100663005006E92582C8F622BBFE05E92582C8F2B9
:1006730022EF8DF0A4A8F0CF8CF0A428CE8DF0A4A7
:100683002EFE22C2D5EC30E709B2D5E4C39DFDE4CA
:100693009CFCEE30E715B2D5E4C39FFFE49EFE1247
:1006A3000BD8C3E49DFDE49CFC8003120BD830D52A
:1006B30007C3E49FFFE49EFE22C5F0F8A3E028F001
:1006C300C5F0F8E582158270021583E038F022A3A5
:1006D300F8E0C5F025F0F0E582158270021583E09D
:1006E300C838F0E822BB010A89828A83F0E5F0A3C7
:1006F300F0225006F709A7F01922BBFE06F3E5F036
:1007030009F3192275F008758200EF2FFFEE33FE0F
:10071300CD33CDCC33CCC58233C5829BED9AEC99D6
:10072300E58298400CF582EE9BFEED9AFDEC99FC78
:100733000FD5F0D6E4CEFBE4CDFAE4CCF9A88222BF
:10074300B800C1B90059BA002DEC8BF084CFCECDDF
:10075300FCE5F0CBF97818EF2FFFEE33FEED33FD18
:10076300EC33FCEB33FB10D703994004EB99FB0FFD
:10077300D8E5E4F9FA227818EF2FFFEE33FEED33D4
:10078300FDEC33FCC933C910D7059BE99A4007EC4C
:100793009BFCE99AF90FD8E0E4C9FAE4CCFB227593
:1007A300F010EF2FFFEE33FEED33FDCC33CCC83327
:1007B300C810D7079BEC9AE899400AED9BFDEC9A89
:1007C300FCE899F80FD5F0DAE4CDFBE4CCFAE4C801
:1007D300F922CFF4CFCEF4CECDF4CDCCF4CC22C3DA
:1007E300E49FFFE49EFEE49DFDE49CFC22EB9FF569
:1007F300F0EA9E42F0E99D42F0EC6480C864809880
:1008030045F022EB9FF5F0EA9E42F0E99D42F0E8C5
:100813009C45F022E8600FECC313FCED13FDEE13CF
:10082300FEEF13FFD8F122E8600FEFC333FFEE337F
:10083300FEED33FDEC33FCD8F122E493FC74019319
:10084300FD740293FE740393FF22E0F8A3E0F9A37F
:10085300E0FAA3E0FB22E493F8740193F9740293A2
:10086300FA740393FB22ECF0A3EDF0A3EEF0A3EFF5
:10087300F022A8828583F0D083D08212088C1208DC
:100883008C12088C12088CE473E493A3C583C5F01F
:10089300C583C8C582C8F0A3C583C5F0C583C8C5D1
:1008A30082C822BB010789828A830208755005E941
:1008B300F8020C2DBBFE05E9F8020C4622D083D0CA
:1008C30082F8E4937012740193700DA3A393F874E8
:1008D3000193F5828883E4737402936860EFA3A3A2
:1008E300A380DF8A838982E473EC8EF0A4CCC5F005
:1008F300CCCDF8EFA4CEC5F02DFDE43CFCE8A42E4E
:10090300C8C5F03DFDE43CFCEFA4FFE5F028FEE4A0
:100913003DFDE43CFC22E709F60870FA8046E7094E
:10092300F20870FA803E88828C83E709F0A370FA9C
:10093300807EE309F60870FA8076E309F20870FA1C
:10094300806E88828C83E309F0A370FA80628982C7
:100953008A83E0A3F60870FA805689828A83E0A32B
:10096300F20870FA804A80D280FA80C680D480650B
:1009730080F28031801080A680EA809A80A880DA95
:1009830080E280CA803189828A83ECFAE493A3C827
:10099300C582C8CCC583CCF0A3C8C582C8CCC583E7
:1009A300CC70E9800D89828A83E493A3F60870F9F9
:1009B300ECFAA9F0EDFB2289828A83ECFAE0A3C862
:1009C300C582C8CCC583CCF0A3C8C582C8CCC583B7
:1009D300CC70EA80DD89828A83E493A3F20870F9FC
:1009E30080CE88F0ED2402B4040050C4F582EB24D9
:1009F30002B4040050BA232345822390096973E3A8
:100A0300F5F009E208B5F06BDFF58067E3F5F0096F
:100A1300E608B5F05EDFF5805A87F009E608B5F021
:100A230052DFF6804E87F009E208B5F046DFF68024
:100A33004288828C8387F009E0A3B5F036DFF68025
:100A43003288828C8387F009E493A3B5F025DFF520
:100A5300802188828C83E3F5F009E0A3B5F014DFED
:100A6300F5801088828C83E3F5F009E493A3B5F055
:100A730002DFF4020B31808780E9809080D4803ECE
:100A83008015806E807E809D80B7808D80A380518D
:100A93008074803C020B3D89828A83ECFAE493F5EF
:100AA300F0A3C8C582C8CCC583CCE493A3C8C582D0
:100AB300C8CCC583CCB5F076DFE3DEE180708982F4
:100AC3008A83E493F5F0A3E208B5F062DFF4805E75
:100AD30089828A83E0F5F0A3E608B5F051DFF5805B
:100AE3004D89828A83E0F5F0A3E208B5F040DFF593
:100AF300803C89828A83E493F5F0A3E608B5F02E5F
:100B0300DFF4802A8002805789828A83ECFAE49397
:100B1300F5F0A3C8C582C8CCC583CCE0A3C8C58201
:100B2300C8CCC583CCB5F006DFE4DEE280007FFFEE
:100B3300B5F0020F2240027F012289828A83ECFAF8
:100B4300E0F5F0A3C8C582C8CCC583CCE0A3C8C573
:100B530082C8CCC583CCB5F0D5DFE5DEE380CF8991
:100B6300828A83ECFAE0F5F0A3C8C582C8CCC583BA
:100B7300CCE493A3C8C582C8CCC583CCB5F0AFDFA2
:100B8300E4DEE280A988F0EF60010E4E60ABED2455
:100B930002B404005098F582EB2402B40400508E92
:100BA3002323458223900A7973EF4E6012EF60018D
:100BB3000EEDBB010B89828A83F0A3DFFCDEFA22F0
:100BC30089F05007F709DFFCA9F022BBFEFCF3090B
:100BD300DFFCA9F022BC000BBE0029EF8DF084FFDF
:100BE300ADF022E4CCF875F008EF2FFFEE33FEEC06
:100BF30033FCEE9DEC984005FCEE9DFE0FD5F0E92D
:100C0300E4CEFD22EDF8F5F0EE8420D21CFEADF02B
:100C130075F008EF2FFFED33FD4007985006D5F030
:100C2300F222C398FD0FD5F0EA22D083D082E49359
:100C3300F608740193F608740293F608740393F6A6
:100C4300740473D083D082E493F208740193F2089E
:100C5300740293F208740393F2740473900476EFAE
:100C6300F0128654A3EFF01208C00CD6010CD60282
:100C73000CD6120CD613125F14125F15125F160CEA
:100C8300D617122722122723125F24125F25125F21
:100C930026122727122728122732122733125F34EE
:100CA300125F35125F360CD6410CD6421245431201
:100CB3004544125F501301531332541392550CCB16
:100CC30060139A70000013A57F011285AB9004771F
:100CD3007401F012824EEF6401700B12865A7F2E5C
:100CE30012742D02861D9005B6E07062900476E0C2
:100CF300640A7037A3E0644170030213A51283DA18
:100D0300900477E0FD7C00640170057F6002123F70
:100D1300ED64024C70057F0102123F9006F7E0700C
:100D2300030212FEE4F07F0102123F900476E064B6
:100D33000B701BA3E0640160030213A51283DAE4C2
:100D43009005B3F07F8312742D7F0202123F12834A
:100D5300DA900476E0FFC374809480407CD3EF94F0
:100D6300097480948050729005B6E0C39420748017
:100D730094805065900477E0FF64016005EF64029E
:100D83007016900476E0FF9005B6E0FE04F074B7A9
:100D93002EF582E43405803D9005B5E0FF7E0070BA
:100DA3001A900476E0FD9005B6E0FC04F074B72CCD
:100DB300F582E43405F583EDF0801EEF64014E7097
:100DC30018900476E0FF9005B6E0FE04F074D72E89
:100DD300F582E43405F583EFF0900476E0640A606D
:100DE30003020EBA9005B5E0FF7E00700FA3E0FD8D
:100DF30014F074B72DF582E434058015EF64014EC9
:100E030070149005B6E0FF14F074D72FF582E43424
:100E130005F58374FFF09005B6E060030213A59017
:100E23000477E0640270057F830213979005B5E0B1
:100E3300703D900477E0FF64126005EF641770055E
:100E43007F62021397900477E0641370057F740246
:100E53001397900477E0644170057F89021397909C
:100E63000477E0644260030213A57F620213979044
:100E730005B5E0640160030213A5900477E0FF6405
:100E8300126005EF641770057F680213979004776B
:100E9300E0641370057F04021397900477E06441C4
:100EA30070057F68021397900477E0644260030241
:100EB30013A57F68021397900476E0640B600B9090
:100EC30005B6E0640860030213A59005B6E0FF7E53
:100ED30000C39406748094804003020F87900477C4
:100EE300E06401707EEF640270109005B7E0700A51
:100EF300A3E070061284AB020FDF9005B6E0640135
:100F0300700CA3E064057006127014020FDF9005E5
:100F1300B6E06401700CA3E064067006126F8B02E6
:100F23000FDF9005B6E064027032A3E0702EA3E0F9
:100F33006401702812867BEF6401700E9005B30480
:100F4300F07F8312742D7F02800C7F01127C347F2B
:100F53005F12742D7F011285AB020FDF7F011269CF
:100F63003380797F6512742DE49005B6F09005B552
:100F7300E070030210319005B5E0640160030213D1
:100F8300A5021082900477E064017057A3F07B01FF
:100F93007A0579B79005B6E0FD123321900478EF16
:100FA300F0F470077F011269338031900478E064B4
:100FB300FE701812867BEF64017010FF127C347F81
:100FC3006012742D7F011285AB8011900478E06468
:100FD3000170047F1180027F011248DEE49005B6A0
:100FE300F0804B900477E0640270507B017A0579BE
:100FF300B79005B6E0FDE490047DF0124627EFF4C8
:1010030070077F8C12742D80209005B3E06401700B
:1010130010FF127C347F6012742D7F011285AB8028
:10102300087F011285F3127D00E49005B6F0FE7F80
:10103300207DFF7B017A0579B7804F9005B5E0707D
:101043004C900477E0FF6412601BEF64177002801A
:1010530014900477E0641370047F0480169004777F
:10106300E0644170047F68800A900477E064427012
:10107300057F6812742D9005B57401F0E4A3F0FEAA
:101083007F207DFF7B017A0579D7020BAC9005B5F4
:10109300E0640160030213A578B77C057D017B0141
:1010A3007A0579D7FE7F08120B88EF3395E04F60FE
:1010B3000302121F900477E0641370507B017A05DA
:1010C30079B79005B6E0FD90047D7401F0124627D0
:1010D300900478EFF0F470057F7102122190047888
:1010E300E0FF7D011266E1EF7017900478E0900253
:1010F30034F07F0512742D900234E0FF12834B808D
:10110300057F6E12742D1284F60212247B017A0578
:1011130079B79005B6E0FD90047D7403F01246277D
:10112300EFF460057F86021221900477E064127069
:101133003F7B017A0579B79005B6E0FD90047D7495
:1011430001F0124713EF640170077F6E12742D8054
:101153000D7F0512742D900234E0FF12833B90063D
:10116300F7E060061285A70212241284EC0212240F
:10117300900477E0644170317B017A0579B790057B
:10118300B6E0FDE490047DF0124713EF64017007AD
:101193007F6E12742D800D7F0512742D900234E042
:1011A300FF12833B1282728078900477E06442706E
:1011B3002E7B017A0579B79005B6E0FDE490047DB6
:1011C300F0124713EF640170077F6E12742D80478E
:1011D3007F0512742D900234E0FF12833B80389018
:1011E3000477E06417703A7B017A0579B79005B606
:1011F300E0FD90047D7402F0124713EF6401700761
:101203007F6E12742D801012862F7F0512742D901D
:101213000234E0FF12833B127D0080057FD31274FA
:101223002D0279A1900476E0640A60030213A512EB
:1012330083DA9006F7E06007E4F07F010285AB02F2
:1012430012FE900476E0640A60030213A51283DAA7
:10125300128678EF70030284E20212FE900476E0B5
:10126300640B60030212F01283DA900477E0120831
:10127300C012961412DB1512DE1612AD2412E125EC
:1012830012E42612C43412E73512EA3612ED500086
:101293000013A5125F85EF700A7F0512742D128665
:1012A3000580057F0812742D8051126165EF700A65
:1012B3007F0512742D12860B80057F0812742D8012
:1012C3003A126334EF700A7F0512742D128611806F
:1012D300057F0812742D8023027CC602845E027B84
:1012E30053028260027CE302846B026C19900476E1
:1012F300E0640A60030213A51283DA027D009004FE
:1013030076E0640A70061283DA0260EF900476E0F6
:1013130070030213A51285F9900476E0D39F40036E
:101323000213A51283DA900476E014FF0267AA126F
:1013330085FF900478EFF06496700B1283DA9004C3
:1013430076E0FF026479900478E064997035900444
:1013530076E0640A70181283DA128492128675EFAB
:10136300600280287F587E02127A130284859004DB
:1013730076E0640B702C1283DA1284927D017F99DC
:10138300026FD0128675EF60191283DA0284161287
:10139300865A7F4D02742D12865A7F2F12742D1296
:1013A30084252290049FE0F9A3E0FAA3E09004CA05
:1013B300C9F0A3EAF0A3E9F0A37401F0A37404F065
:1013C300A374A8F090049CE0FBA3E0FAA3E0F990D7
:1013D30004C7EBF0A3EAF0A3E9F0900006120613AA
:1013E300FF3395E0FEEF24D0FFEE34FFFE7C007D5B
:1013F3000A120674C006C007900005120613FF33D5
:1014030095E0FEEF24D0FFEE34FFFE7D64120674F8
:10141300D0E02FFFD0E03EFE900007120613FD330D
:1014230095E0FCED24D0FDEC34FFCD2FFFED3E9095
:1014330004D0F0A3EFF0E49004DCF0A3F09004CA2E
:10144300E0FBA3E0FAA3E0F91281D79004E7EEF002
:10145300A3EFF0E49004F3F0A3F07A0479F5900499
:10146300D0125069E49004DCF0A3F09004DCE0FEB9
:10147300A3E0FFC39405EE6480948050639004C797
:10148300E0FBA3E0FAA3E0F98F828E83120613FF39
:101493003395E0FEEF24D0FFEE34FF9004FFF0A37A
:1014A300EFF09004FFE0FEA3E024F5F58274043E20
:1014B300F583E0FD9004DDE025E0FF9004DCE033FC
:1014C300FE74D22FF58274043EF583E4F0A3EDF0AD
:1014D3009004DDE004F070939004DCE004F0808B72
:1014E3007E007F097D007B017A0479DE120BAC90CC
:1014F30004E7E07004A3E06408701678DE7C047DE2
:10150300019004CAE0FBA3E0FAA3E0F91209E58025
:1015130079D39004E8E094089004E7E06480948031
:1015230040279004CAE0F9A3E0FAA3E0900504C9B8
:10153300F0A3EAF0A3E9F0A3E4F0A37408F07B01BD
:101543007A0479DE1264E2804178DE7C047D0190C6
:1015530004CAE0FBA3E0FAA3E0F91209E59005044D
:1015630074FFF0A37487F0A37484F09004E7E0FEA3
:10157300A3E0FFC374089F900508F0E49E9005075D
:10158300F07B017A0479DE124A979004DFE0FB33A3
:1015930095E0FA9004DEE0FF3395E0FEC3EF9BFF96
:1015A300EE9AFE9004E0E0F9FD3395E0FCEF2DFFA9
:1015B300EE3CFEA3E0FD3395E0FCC3EF9DFFEE9C04
:1015C300FEA3E0FD3395E0FCEF2DFFEE3CFEA3E030
:1015D300FD3395E0FCC3EF9DFFEE9CFEA3E0FD33DE
:1015E30095E0FCEF2DFFEE3CFEA3E0FD3395E0FC20
:1015F300C3EF9DFFEE9C9004E9F0A3EFF0C37430BA
:101603009BFFE49AFEE9FD3395E0FCEF2DFFEE3CF2
:10161300FE9004E1E0F9FB3395E0FAC3EF9BFFEEA4
:101623009AFEA3E0FB3395E0FAEF2BFFEE3AFEA31D
:10163300E0FB3395E0FAC3EF9BFFEE9AFEA3E0FBDA
:101643003395E0FAEF2BFFEE3AFEA3E0FB3395E090
:10165300FAC3EF9BFFEE9A9004EBF0A3EFF0E9FFE0
:101663003395E0FEC3ED9FFFEC9EFE9004E2E0FDA8
:101673003395E0FCEF2DFFEE3CFEA3E0FB3395E05A
:10168300FAC3EF9BFFEE9AFEA3E0FB3395E0FAEF7C
:101693002BFFEE3AFEA3E0FB3395E0FAC3EF9BFF8B
:1016A300EE9A9004EDF0A3EFF0E9FF3395E0FEC36B
:1016B30074309FCFE49ECF2DCF3CFE9004E3E0FD3A
:1016C3003395E0FCC3EF9DFFEE9CFEA3E0F9FB33F3
:1016D30095E0FAEF2BFFEE3AFEA3E0FB3395E0FA39
:1016E300C3EF9BFFEE9A9004EFF0A3EFF09004E2B8
:1016F300E0FF3395E0FEC3EF9DFFEE9CFEE9FD3373
:1017030095E0FCEF2DFFEE3CFE9004E5E0FD339504
:10171300E0FCC3EF9DFFEE9C9004F1F0A3EFF0E437
:101723009004DCF0A3F09004DCE0FAA3E0FB25E0F6
:10173300FFEA33FE74E92FF58274043EF583E0FC7F
:10174300A3E0FD74D22FF58274043EF583E0FEA37B
:10175300E0C39DFFEE9CCF2464CF3400FE7C007D6C
:101763000A120686EB25E0FFEA33FE74D22FF582D8
:1017730074043EF583ECF0A3EDF09004DDE004F097
:1017830070069004DCE004F09004DCE07004A3E055
:1017930064057092E49004DCF0A3F09004DCE0FEB6
:1017A300A3E0FFC39405EE648094804003021868AD
:1017B3007C007D02120686ED4C7027E025E0FF9049
:1017C30004DCE033FE74D22FF58274043EF583A368
:1017D300E025E0FD0582D5820215831582E033FC06
:1017E30080289004DDE025E0FF9004DCE033FE7404
:1017F300D22FF58274043EF583E0FEA3E0FF7C0064
:101803007D03120674AC06AD07EC1201B3C004C02D
:1018130005C006C00790050512087540000000D0FA
:1018230007D006D005D004123DDCC004C005C006B5
:10183300C0079004F3E0FCA3E0FDEC1201B3D00376
:10184300D002D001D0001200BD1201EC9004F3EEDF
:10185300F0A3EFF09004DDE004F070069004DCE008
:1018630004F002179E9004F3E0FEA3E0FF9004D07F
:10187300E06E7003A3E06F600302193F9004D2A3EC
:10188300E0FF9004CDE0FBA3E0FAA3E0F9EF12063A
:10189300409004D4A3E0FF9004CDE0FBA3E0FAA3BF
:1018A300E0F9900001EF1206529004D6A3E09000F5
:1018B300021206529004D8A3E0900003120652903D
:1018C30004DAA3E09000041206529004C7E0FBA3DD
:1018D300E0FAA3E0F990000512061324D0FF900468
:1018E300CDE0FBA3E0FAA3E0F9900005EF12065266
:1018F3009004C7E0FBA3E0FAA3E0F9900006120608
:101903001324D0FF9004CDE0FBA3E0FAA3E0F99009
:101913000006EF1206529004C7E0FBA3E0FAA3E02F
:10192300F990000712061324D0FF9004CDE0FBA327
:10193300E0FAA3E0F9900007EF020652E49004DC1A
:10194300F0A3F09004DCE0FEA3E0FFC39408EE6490
:1019530080948050249004CDE0FBA3E0FAA3E0F947
:101963008F828E8374FF1206529004DDE004F070C0
:10197300D29004DCE004F080CA229004C7EBF0A309
:10198300EAF0A3E9F090000612061375F00AA4FD2D
:10199300ACF090000512061375F064A42DFFE5F07A
:1019A3003CFE9000071206137C002FFFEC3E9004D0
:1019B300D0F0A3EFF09004CAE0FBA3E0FAA3E0F9B0
:1019C3001281D79004E5EEF0A3EFF0E4A3F0A3F0C7
:1019D3009004F3F0A3F07A0479F59004D0125069DF
:1019E300E49004E7F0A3F09004E7E0FEA3E0FFC374
:1019F3009405EE6480948050599004C7E0FBA3E003
:101A0300FAA3E0F98F828E83120613FF9004FFE49A
:101A1300F0A3EFF09004FFE0FEA3E024F5F5827459
:101A2300043EF583E0FD9004E8E025E0FF9004E741
:101A3300E033FE74D22FF58274043EF583E4F0A301
:101A4300EDF09004E8E004F0709D9004E7E004F00A
:101A530080957E007F097D007B017A0479DC120B7F
:101A6300AC9004E5E07004A3E06408701678DC7CB5
:101A7300047D019004CAE0FBA3E0FAA3E0F9120994
:101A8300E58079D39004E6E094089004E5E064806F
:101A9300948040279004CAE0F9A3E0FAA3E09005FC
:101AA30004C9F0A3EAF0A3E9F0A3E4F0A37408F0F7
:101AB3007B017A0479DC1264E2804178DC7C047D6A
:101AC300019004CAE0FBA3E0FAA3E0F91209E59050
:101AD300050474FFF0A37487F0A37484F09004E505
:101AE300E0FEA3E0FFC374089F900508F0E49E9016
:101AF3000507F07B017A0479DC124A979004DDE054
:101B0300FB3395E0FA9004DCE0FF3395E0FEC3EF8E
:101B13009BFFEE9AFE9004DEE0F9FD3395E0FCEFC7
:101B23002DFFEE3CFEA3E0FD3395E0FCC3EF9DFFEC
:101B3300EE9CFEA3E0FD3395E0FCEF2DFFEE3CFEB3
:101B4300A3E0FD3395E0FCC3EF9DFFEE9CFEA3E015
:101B5300FD3395E0FCEF2DFFEE3CFEA3E0FD339556
:101B6300E0FCC3EF9DFFEE9C9004E9F0A3EFF0C30C
:101B730074309BFFE49AFEE9FD3395E0FCEF2DFF03
:101B8300EE3CFE9004DFE0F9FB3395E0FAC3EF9BF4
:101B9300FFEE9AFEA3E0FB3395E0FAEF2BFFEE3A5C
:101BA300FEA3E0FB3395E0FAC3EF9BFFEE9AFEA39F
:101BB300E0FB3395E0FAEF2BFFEE3AFEA3E0FB33B5
:101BC30095E0FAC3EF9BFFEE9A9004EBF0A3EFF0DE
:101BD300E9FF3395E0FEC3ED9FFFEC9EFE9004E02A
:101BE300E0FD3395E0FCEF2DFFEE3CFEA3E0FB337D
:101BF30095E0FAC3EF9BFFEE9AFEA3E0FB3395E07B
:101C0300FAEF2BFFEE3AFEA3E0FB3395E0FAC3EFC6
:101C13009BFFEE9A9004EDF0A3EFF0E9FF3395E01C
:101C2300FEC374309FCFE49ECF2DCF3CFE9004E1E2
:101C3300E0FD3395E0FCC3EF9DFFEE9CFEA3E0F9CE
:101C4300FB3395E0FAEF2BFFEE3AFEA3E0FB33956F
:101C5300E0FAC3EF9BFFEE9A9004EFF0A3EFF0904E
:101C630004E0E0FF3395E0FEC3EF9DFFEE9CFEE949
:101C7300FD3395E0FCEF2DFFEE3CFE9004E3E0FD29
:101C83003395E0FCC3EF9DFFEE9C9004F1F0A3EFCE
:101C9300F0E49004E7F0A3F09004E7E0FAA3E0FB9C
:101CA30025E0FFEA33FE74E92FF58274043EF583E1
:101CB300E0FCA3E0FD74D22FF58274043EF583E0CB
:101CC300FEA3E0C39DFFEE9CCF2464CF3400FE7CD3
:101CD300007D0A120686EB25E0FFEA33FE74D22F5D
:101CE300F58274043EF583ECF0A3EDF09004E8E094
:101CF30004F070069004E7E004F09004E7E0700459
:101D0300A3E064057092E49004E7F0A3F09004E785
:101D1300E0FEA3E0FFC39405EE64809480400302D9
:101D23001DDA7C007D02120686ED4C7027E025E06B
:101D3300FF9004E7E033FE74D22FF58274043EF57E
:101D430083A3E025E0FD0582D5820215831582E099
:101D530033FC80289004E8E025E0FF9004E7E033BB
:101D6300FE74D22FF58274043EF583E0FEA3E0FFF8
:101D73007C007D03120674AC06AD07EC1201B3C000
:101D830004C005C006C00790050512087540000091
:101D930000D007D006D005D004123DDCC004C00536
:101DA300C006C0079004F3E0FCA3E0FDEC1201B30E
:101DB300D003D002D001D0001200BD1201EC900478
:101DC300F3EEF0A3EFF09004E8E004F07006900463
:101DD300E7E004F0021D109004F3E0FEA3E0FF909F
:101DE30004D0E06E7003A3E06F6003021EAB9004A7
:101DF300D2A3E0FF9004CDE0FBA3E0FAA3E0F9EF68
:101E03001206409004D4A3E0FF9004CDE0FBA3E0CE
:101E1300FAA3E0F9900001EF1206529004D6A3E072
:101E23009000021206529004D8A3E0900003120619
:101E3300529004DAA3E09000041206529004C7E023
:101E4300FBA3E0FAA3E0F9900005120613FF900448
:101E5300CDE0FBA3E0FAA3E0F9900005EF120652F0
:101E63009004C7E0FBA3E0FAA3E0F9900006120692
:101E730013FF9004CDE0FBA3E0FAA3E0F990000682
:101E8300EF1206529004C7E0FBA3E0FAA3E0F99037
:101E93000007120613FF9004CDE0FBA3E0FAA3E0D2
:101EA300F9900007EF020652E49004E7F0A3F090E4
:101EB30004E7E0FEA3E0FFC39408EE64809480503F
:101EC300249004CDE0FBA3E0FAA3E0F98F828E8394
:101ED30074FF1206529004E8E004F070D29004E715
:101EE300E004F080CA22900476EFF0E4A3F0A3F0BC
:101EF300A3F0128654A3EFF06470700B12865A7F1E
:101F03002F12742D02842590047AE0646070057F9B
:101F1300011285AB90047AE0FF7E0064016021EF3B
:101F23006422601CEF64236017EF64436012EF6464
:101F330044600DEF64276008EF6428600302237B8D
:101F4300EF64544E700B1285FFEF640560030223A8
:101F53007B12865A12824EEF6401700B12865A7FEF
:101F63002E12742D028623120006900477EFF06080
:101F7300030223719005B5E0FF12715E900477EFC1
:101F8300F060030223719005B5E0FF7B017A0479C9
:101F93007812680E900477EFF06003022125900415
:101FA3007AE064017038900478A3E0FF7D03127532
:101FB3003C900477EFF0600302212DA3A3E090028D
:101FC30034F07F02128663900478A3E0FF7D02124F
:101FD300753CEF70047F1280027F020248DE90049A
:101FE3007AE0FF64226014EF6443600FEF6444609F
:101FF3000AEF64276005EF6454700A7F0312866357
:102003007F6E02237890047AE0FF64236008EF6414
:1020130028600302237B90047AE06423700A90040F
:1020230078A3E0FF7D01801090047AE064287010AB
:10203300900478A3E0FF7D0212753C900477EFF0E3
:10204300900477E0600302211B9005B5E07015044E
:10205300F0900478A3E09005AEF07F021286637FD0
:10206300110223789005AEE0FF7E00900478E0FC37
:10207300A3E0FDB5070BEEB50407E4900477F08009
:102083000690047774FFF0900477E0707E90047AF2
:10209300E064237006AF057D01801090047AE0644C
:1020A300287010900478A3E0FF7D021272959004CB
:1020B30077EFF0900477E0700EA3E0FEA3E0FF1249
:1020C30085AE900477EFF0900477E070157F0212ED
:1020D30086637F0512742D900478A3E0FF12836B4F
:1020E300800A7F031286637F6E12742D90047AE058
:1020F3006423700612851402234B90047AE064284B
:10210300600302234B127D0002234B7F031286637D
:102113007FD312742D02234B7F031286637F7D02CC
:10212300237890047AE06401700A7F031286637F48
:102133000202693390047AE0FF64226017EF64437C
:102143006012EF6444600DEF64276008EF6454602D
:10215300030223609005B5E0640360030223511278
:10216300000E900477EFF0600302234190047AE0BD
:10217300FF7E006422600DEF64276008EF64546003
:10218300030222A9EF64274E7005127465800312BF
:1021930075A5900478E4F0A3EFF0900478E0700361
:1021A300A3E0F4700D7F031286637F5C12742D022B
:1021B300233C900478E0FCA3E0FDE4FF126C6790FD
:1021C3000477EFF090047AE064227056900477E08D
:1021D3007019A3A3E0FF7D01127850900477EFF00C
:1021E3006009A3E0FEA3E0FF1285AE900477E070E0
:1021F300157F021286637F0512742D900478A3E085
:10220300FF12835B800A7F031286637F6E12742D35
:102213009006F7E060061285A702234B12850A0297
:10222300234B90047AE06427704A900477E0701996
:10223300A3A3E0FF7D02127850900477EFF06009CA
:10224300A3E0FEA3E0FF1285AE900477E070187F51
:10225300021286637F0512742D12862F900478A3D1
:10226300E0FF12835B800A7F031286637F6E127422
:102273002D02233C900477E0700EA3E0FEA3E0FF61
:102283001285AE900477EFF0900477E070097F0237
:102293001286637D0180077F03128663E4FD7F0559
:1022A300126FD002234B90047AE0FF7E00644370E8
:1022B30008900478F0A3F0800DEF64444E7007900B
:1022C3000478F0A304F0900478E0FEA3E0FF128505
:1022D300AE900477EFF07010A3E0FCA3E0FDE4FF01
:1022E300126C67900477EFF0900477E0700EA3A36D
:1022F300E0FFE4FD127850900477EFF0900477E06C
:1023030070157F021286637F0512742D900478A3E3
:10231300E0FF12835B800A7F031286637F6E127471
:102323002D128678EF701290047AE06443700512E0
:10233300828480141284E2800F127D00800A7F035E
:102343001286637F7A12742DE49005B5F02290050E
:10235300B5E004F07F021286637F11801890047A3F
:10236300E0642370137F031286637F7D80077F03FE
:102373001286637F1112742D22900476EFF0A2056A
:10238300920690047A7403F0126F0030050302275B
:1023930007900476E0FF25E024BCF582E43486F55B
:1023A30083E493FC740193FD75F002EFA424D5F547
:1023B30082E5F03403F583ECF0A3EDF0900476E0CE
:1023C300FE90869C93FF900479F075F002EEA424AE
:1023D300D5F582E5F03403F583E0FCA3E0FD127547
:1023E30071900476E0FD75F002A42436F582E5F0E1
:1023F3003404F583EEF0A3EFF075F002EDA4243678
:10240300F582E5F03404F583E0FEA3E0FF90047762
:10241300E0FCA3E0FDD3EF9DEE9C50030225F29078
:102423000476E0FF75F002A42436F582E5F0340467
:10243300F583E0FCA3E0FD900477E0FAA3E0FBD38F
:10244300ED9BEC9A500302250E75910775F002EF90
:10245300A424D5F582E5F03403F583E0FEA3E0C3BD
:1024630094FFEE9401400302250E900476E0FF757D
:10247300F002A424D5F582E5F03403F583E475F086
:10248300011206BC75F002EFA424D5F582E5F03401
:1024930003F583E0FCA3E0FD900479E0FF1275717E
:1024A300900476E0FD75F002A42436F582E5F0345D
:1024B30004F583EEF0A3EFF075F002EDA42436F5F6
:1024C30082E5F03404F583E0FEA3E0FF75F002ED4E
:1024D300A424EDF582E5F03403F583EEF0A3EFF0E9
:1024E30075F002EDA42436F582E5F03404F583E0BB
:1024F300FEA3E0FF75F002EDA42411F582E5F034AC
:1025030004F583EEF0A3EFF0022422E5CDC45407D3
:102513002409F9E47F01FEFDFCA80112082AEF2437
:10252300F6FBEE34FFFAED34FFF9EC34FFF89004D8
:1025330076E075F002A42436F582E5F03404F583E1
:10254300E0FEA3E0FFE4FCFDD312080640030225EE
:10255300F2900476E0FF75F002A424D5F582E5F04D
:102563003403F583E475F0011206BC75F002EFA4A1
:1025730024D5F582E5F03403F583E0FCA3E0FD9078
:102583000479E0FF127571900476E0FD75F002A402
:102593002436F582E5F03404F583EEF0A3EFF0750D
:1025A300F002EDA42436F582E5F03404F583E0FE71
:1025B300A3E0FF75F002EDA424EDF582E5F034030A
:1025C300F583EEF0A3EFF075F002EDA42436F58267
:1025D300E5F03404F583E0FEA3E0FF75F002EDA41B
:1025E3002411F582E5F03404F583EEF0A3EFF090C7
:1025F3000476E075F002A42436F582E5F03404F5A0
:1026030083E0FEA3E0FF900477E0FCA3E0FDD3EFBB
:102613009DEE9C4003022707900476E0FF75F002CD
:10262300A42436F582E5F03404F583E0FCA3E0FD51
:10263300900477E0FAA3E0FBC3ED9BEC9A4003021E
:10264300270775910775F002EFA424D5F582E5F00D
:102653003403F583E0FEA3E0D39400EE940050032B
:10266300022707900476E0FF75F002A424D5F582D3
:10267300E5F03403F58374FFF5F01206BC75F00240
:10268300EFA424D5F582E5F03403F583E0FCA3E061
:10269300FD900479E0FF127571900476E0FD75F00A
:1026A30002A42436F582E5F03404F583EEF0A3EFBB
:1026B300F075F002EDA42436F582E5F03404F583D9
:1026C300E0FEA3E0FF75F002EDA424EDF582E5F052
:1026D3003403F583EEF0A3EFF075F002EDA4243696
:1026E300F582E5F03404F583E0FEA3E0FF75F00224
:1026F300EDA42411F582E5F03404F583EEF0A3EFA5
:10270300F002261B22AB07EB25E02413F582E43409
:1027130087F583E493FF74019390047ACFF0A3EFDA
:10272300F0EB25E02413F582E43487F583E493FC8E
:10273300740193FD908703E493FF7E00120674EE09
:10274300C4F854F0C868FEEFC4540F48FF90047CEB
:10275300EEF0A3EFF075F002EBA42436F582E5F07A
:102763003404F583E0FEA3E0FF75F002EBA424ED4F
:10277300F582E5F03403F583E0FCA3E0C39FFFECAF
:102783009EFE900478F0A3EFF0C3EE648094805033
:10279300030228E5A3E0FEA3E0FF900478E0FCA396
:1027A300E0FD9FEE6480F8EC648098401074A12BE8
:1027B300F582E43403F5837401F00228B190047CBC
:1027C300E0FEA3E0FFC3ED9FEE6480F8EC64809825
:1027D300405874662BF582E43404F583E004F07406
:1027E300B92BF582E43403F583E4F0745A2BF582B4
:1027F300E43404F583E4F074AD2BF582E43403F59B
:1028030083E4F074662BF582E43404F583E0FF90EF
:10281300071AE0FEEFC39E50030228B174662BF53E
:1028230082E43404F583E4F0806E74662BF582E46D
:102833003404F583E4F074B92BF582E43403F583AF
:10284300E004F0745A2BF582E43404F583E4F07465
:10285300AD2BF582E43403F583E4F074B92BF582F0
:10286300E43403F583E0FF90071CE0FEEFC39E40D2
:102873003D74B92BF582E43403F583E4F075F0027B
:10288300EBA424EDF582E5F03403F583E0FEA3E049
:10289300D39400EE9400401675F002EBA424EDF5FA
:1028A30082E5F03403F58374FFF5F01206BC9087DC
:1028B30055E493FE740193FFC390047BE09FFF9064
:1028C300047AE09EFEC3900479E09F900478E09E32
:1028D3004003022A5674A12BF582E43403F583E402
:1028E300F02274A12BF582E43403F583E4F0900421
:1028F3007CE0FEA3E0FFC3E49FFFE49EFEC39004DD
:1029030079E09FEE6480F8900478E0648098406CEE
:1029130074662BF582E43404F583E4F074B92BF583
:1029230082E43403F583E4F0745A2BF582E434042F
:10293300F583E004F074AD2BF582E43403F583E40E
:10294300F0745A2BF582E43404F583E0FF90071901
:10295300E0FEEFC39E5003022A56745A2BF582E41D
:102963003404F583E4F075F002EBA424EDF582E57D
:10297300F03403F583E475F001022A5374662BF5F2
:1029830082E43404F583E4F074B92BF582E4340370
:10299300F583E4F0745A2BF582E43404F583E4F010
:1029A30074AD2BF582E43403F583E004F074AD2BAE
:1029B300F582E43403F583E0FF90071BE0FEEFC3E9
:1029C3009E5003022A5674AD2BF582E43403F5833B
:1029D300E4F090047BE025E0FD90047AE033FCE032
:1029E300A2E713FEA3E0132DFFEE3CFEC3E49FFF1B
:1029F300E49EFED3900479E09FEE6480F89004781F
:102A0300E0648098502975F002EBA42436F582E542
:102A1300F03404F583E0FEA3E0FF75F002EBA42499
:102A2300EDF582E5F03403F583EEF0A3EFF02290A9
:102A3300047CE0FEA3E0FF7C007D0512068675F0B2
:102A430002EBA424EDF582E5F03403F583EE8FF079
:102A53001206BC22C101C103C102C10041047200BC
:102A63004406FDFFFFFFFF440701FFFFFFFF44068E
:102A730094FFFFFFFF420698000041069A004406B8
:102A830064FFFFFFFF4106680041067F00410669BE
:102A93000054066B0000000000000000000000006E
:102AA300000000000000000041066A004406B4FF75
:102AB300FFFFFF5006B8EF01FFFFFFFF01000741D3
:102AC30001010050009B44069BFFFFFFFF41069F4F
:102AD30000440705FFFFFFFF440709FFFFFFFF4413
:102AE300070DFFFFFFFF440711FFFFFFFF4406ED44
:102AF300FFFFFFFF4206F10000440715FFFFFFFF42
:102B03004406F3FFFFFFFF4106F70044071DFFFFE5
:102B1300FFFF011700011900011800011A00440604
:102B23001FFFFFFFFF440721FFFFFFFF4405AFFF28
:102B3300FFFFFF4105B6004105B5FF011CFF011B67
:102B4300FF4105B4004105B3004105AD004105AEA9
:102B530000609605170223000327000423000725BE
:102B6300000826000A27000D23000F250008240073
:102B73001627001E27002023001F27002823002BD1
:102B830024002C24002D2400514252432500514699
:102B930052492500514452452500514852472500CA
:102BA300514A524B25005133523453352500513687
:102BB300523853392500513A523C533D2500513E7A
:102BC30052405341250006270051422500513052FF
:102BD300312500513A523C25005130523153325481
:102BE3003355345635575D5861250044038CFFFF38
:102BF300FFFF41039A004203910000420393000048
:102C030042039C00004103900041039B0041039E4B
:102C1300004102C10041039F004103A00042038A17
:102C2300000043039700000060B402D601030000D4
:102C3300000105000000010700000001080000007A
:102C43000109000000010BFF8546010CFF7E860190
:102C53000CFF7E9F010CFF7EB8010A0000000A04EE
:102C6300FF7B960A0600000002080000000209002C
:102C73000000020BFF8546030DFF7CC6030FFF8494
:102C83005E0310FF8500052DFF7B53052FFF826038
:102C93000530FF851E062DFF79C7062FFF79ED0747
:102CA30047FF7CE30749FF846B074AFF853C0882A3
:102CB300FF847808830000008362FF82728363FFCE
:102CC3008284096A00000009840000006A69FF7EAB
:102CD300226A68FF7E3B846FFF7E548470FF7E6DA3
:102CE3004406F8FFFFFFFF4106FC005E064601E6CF
:102CF30002B303BB05C307CB0895099B0ADA06E0B9
:102D03006AA76AA783A184AD9EFFFFFF440725FF3F
:102D1300FFFFFF4405F7FFFFFFFF4C061300000012
:102D23000000000000000000004406E6FFFFFFFF74
:102D33004106EA004206EB0000440230FFFFFFFFBA
:102D4300410234FF4406C9FFFFFFFF4106CD0041A6
:102D530006D5004206D300004506CE960507999B8B
:102D63004106C8004406E0FFFFFFFF4206E40000FF
:102D73004106DE004106DF000090049CEBF0A3EA6D
:102D8300F0A3E9F0E49004C0F0A3F0A3F0A3F0A350
:102D9300F0A3F0A3F0FE7F08FD7B017A0479A8126B
:102DA3000BAC7E007F087D007B017A0479B0120BA7
:102DB300AC7E007F087D007B017A0479B8120BACEE
:102DC3009004A2E0FBA3E0FAA3E0F9EA494B700305
:102DD3000230481205FAF46003022EF89000011243
:102DE3000613F46003022EF8900002120613F46037
:102DF30003022EF8900003120613F46003022EF868
:102E0300900004120613F46003022EF890000512DA
:102E13000613F46003022EF8900006120613F46002
:102E230003022EF8900007120613F46003022EF833
:102E33001213A69004A8E0F9F470069004C0F0FF02
:102E4300229004A9E0FF7E007C037DE8120674AAA9
:102E530006AB07E9FF7E007C277D10120674EF2B7B
:102E6300FDEE3AFCA3E075F064A42DFDE5F03CFC17
:102E7300A3E075F00AA42DFFE5F03CFEA3E07C007F
:102E83002FFFEC3EFE9004C1F0A3EFF0C39004C407
:102E9300E09FEE6480F89004C3E0648098400302EE
:102EA3003040E49004C5F0A3F090049CE0FBA3E061
:102EB300FAA3E0F99004C5E0FEA3E0FFF5828E8358
:102EC30012061324D0FD74B02FF58274043EF583EB
:102ED300EDF09004C6E004F070069004C5E004F041
:102EE3009004C5E07004A3E0640870BD9004C0744E
:102EF30001F002304090049FE0F9A3E0FAA3E090D0
:102F030004CAC9F0A3EAF0A3E9F0A37401F0A3741F
:102F130004F0A374B8F09004A2E0FBA3E0FAA3E0EA
:102F2300F912197D9004B8E0F470030230491213CA
:102F3300A69004A8E0F470030230499004A9E0FFCE
:102F43007E007C037DE8120674AA06AB079004A8F2
:102F5300E0FF7E007C277D10120674EF2BFDEE3A16
:102F6300FC9004AAE075F064A42DFDE5F03CFCA3FD
:102F7300E075F00AA42DFFE5F03CFEA3E07C002FF2
:102F8300FFEC3E9004C1F0A3EFF09004B9E0FF7EA4
:102F9300007C037DE8120674AA06AB079004B8E030
:102FA300FF7E007C277D10120674EF2BFDEE3AFCAA
:102FB3009004BAE075F064A42DFDE5F03CFCA3E0B9
:102FC30075F00AA42DFFE5F03CFEA3E07C002FFF83
:102FD300EC3EFE9004C3F0A3EFF0D39004C2E09F55
:102FE300EE6480F89004C1E06480984050E490045B
:102FF300C5F0A3F090049CE0FBA3E0FAA3E0F990F2
:1030030004C5E0FEA3E0FFF5828E8312061324D0ED
:10301300FD74B02FF58274043EF583EDF09004C681
:10302300E004F070069004C5E004F09004C5E0707D
:1030330004A3E0640870BD9004C07401F07E007FB7
:10304300087D008009E49004C0F0FE7F08FD900431
:10305300A5E0FBA3E0FAA3E0F9120BAC9004A5E012
:10306300FBA3E0FAA3E0F8AC02AD037B017A047999
:10307300B07E007F081205D49004C0E0FF227B00DD
:103083007A0079089004A0E4F0A3740FF0E4FF90B1
:10309300049CEFF0A3EBF0A3EAF0A3E9F07F09129D
:1030A30085E190049CE014700302319114700302D3
:1030B300325E1470030232BE2403600302331B909A
:1030C30004A57401F0A37400F0A37400F0A37401C9
:1030D300F0A374F4F0E4FF1285DBE4FF127CA9E4AF
:1030E3009004A2F0A3F09004A0E0FEA3E0FFC3903D
:1030F30004A3E09F9004A2E09E5037E0FCA3E0FD10
:1031030090049DE0FBA3E0FAA3E0F98D828C831287
:103113000613FBE4FF1260779004A4EFF070037FC3
:1031230001229004A3E004F070BC9004A2E004F038
:1031330080B4E49004A2F0A3F09004A8E0FEA3E01E
:10314300FFC39004A3E09F9004A2E09E40030233D8
:103153001EE0FEA3E0FF2418FDE43EFC9004A5E07E
:10316300FBA3E0FAA3E0F98F828E83120613FBE43C
:10317300FF1260779004A4EFF070037F01229004A4
:10318300A3E004F070B39004A2E004F080AB9004D9
:10319300A5E4F0A37400F0A37408F0A3E4F0A3740F
:1031A3000FF0E4FF1285DBE4FF127CA9E49004A294
:1031B300F0A3F09004A8E0FEA3E0FFC39004A3E013
:1031C3009F9004A2E09E5037E0FCA3E0FD9004A58D
:1031D300E0FBA3E0FAA3E0F98D828C83120613FBD4
:1031E300E4FF1260779004A4EFF070037F01229054
:1031F30004A3E004F070BC9004A2E004F080B4E403
:103203009004A2F0A3F09004A0E0FEA3E0FFC3901B
:1032130004A3E09F9004A2E09E400302331EE0FE5D
:10322300A3E0FF2418FDE43EFC90049DE0FBA3E033
:10323300FAA3E0F98F828E83120613FBE4FF126078
:10324300779004A4EFF070037F01229004A3E004BD
:10325300F070B39004A2E004F080AB7F011285DB31
:10326300E4FF127CA9E49004A2F0A3F09004A0E090
:10327300FEA3E0FFC39004A3E09F9004A2E09E405E
:103283000302331EE0FCA3E0FD90049DE0FBA3E0FA
:10329300FAA3E0F98D828C83120613FBE4FF12601C
:1032A300779004A4EFF070037F01229004A3E0045D
:1032B300F070B99004A2E004F080B17F011285DBC5
:1032C3007F01127CA9E49004A2F0A3F09004A0E093
:1032D300FEA3E0FFC39004A3E09F9004A2E09E50EE
:1032E3003AE0FCA3E0FD90049DE0FBA3E0FAA3E039
:1032F300F98D828C83120613FB7F01126077900491
:10330300A4EFF070037F01229004A3E004F070BCEB
:103313009004A2E004F080B47F01227F0022900495
:1033230079EBF0A3EAF0A3E9F0A3EDF0E4A3F0A3B3
:10333300F0900489F0A374FFF0E490047DF090040E
:103343007DE0FFC394647480948040030234377536
:10335300F005EFA42404F582E5F03400F583E0F4EE
:10336300700302342E7E007F087DFF7B017A04798F
:1033730081120BAC90047DE075F005A42400F97470
:103383000035F0FA7B01C00390049FEBF0A37404B3
:10339300F0A37481F0D003125B99900489EFF0E4F9
:1033A30090047FF0900489E0FF90047FE02FFFE416
:1033B30033FE90047CE0FDD3EF9D7480F86E98504B
:1033C3005EE4900480F0900489E0FF900480E0FEC6
:1033D300C39F5037EEFF90047FE02FFFE433FE904E
:1033E3000479E0FBA3E0FAA3E0F98F828E8312064F
:1033F30013FF900480E02481F582E43404F583E034
:10340300B50708900480E004F080BB900489E0FFD6
:10341300900480E06F600890047FE004F080859062
:103423000489E0FF900480E06F600990047DE0046C
:10343300F002334190047DE0C3946474809480501F
:1034430007E0FF900234F022E490049BF0FE7F0833
:103453007DFF7B017A04798B120BAC90049F74017E
:10346300F0A37404F0A3748BF07B017A007900124B
:103473005B99900489EFF0E490047DF090047DE083
:10348300FFC39408748094805075748B2FF582E485
:103493003404F583E0F490047D700EE0248BF58210
:1034A300E43404F583E4F0800EE0248BF582E43405
:1034B30004F583E02430F0900479E0FBA3E0FAA361
:1034C300E0F990047DE0FFF582758300120613FE98
:1034D300F4700E74812FF582E43404F583E4F080F4
:1034E3001590047DE0FFEE2430FE74812FF582E415
:1034F3003404F583EEF090047DE004F002347F9011
:10350300049F7401F0A37404F0A3748BF0A3E4F09C
:10351300A37400F0A3740FF0A37401F0A37404F078
:10352300A37493F07B017A047981122D7C90049B20
:10353300EFF0D39400748094804019780F7C007D61
:10354300007B017A0479937E007F081205D4123040
:10355300817FFE227FFF227B01E4FD900482EBF05A
:10356300A3EAF0A3E9F0A3EDF0E490048AF0A3F05A
:10357300A37403F0A374E8F0EDD3940074809480F3
:103583005003023685C2AFE490048AF0900485E0CC
:10359300FF90048AE0FEC39F5021900482E0FBA3C6
:1035A300E0FAA3E0F98E82758300120613FDE4FFAF
:1035B30012797B90048AE004F080D190048C74FF2C
:1035C300F5F01206BC45F070030236807F017E00E1
:1035D300127A1390069AE0C394027480948040DBBD
:1035E300E490048AF090069AE0FF90048AE0FEC318
:1035F3009F503B74802EF582E43406F583E0FF642C
:103603004B602BEF64496026EF64426021EF644610
:10361300601CEF64526017EF644D6012EF644A6000
:103623000DEF6471600890048AE004F080B790069F
:103633009AE0FF90048AE0FEC39F4003023743747D
:10364300802EF582E43406F583E0FF900486E0FBE8
:10365300A3E0FAA3E0F990048BE0FEF58275830002
:10366300EF120652900489E0146E70030237439000
:10367300048BE004F090048AE004F080B1D2AF023E
:10368300374EC2AF90048C74FFF5F01206BC45F0C0
:10369300700302374C7F017E00127A1390069AE082
:1036A300C394027480948040DBE490048AF0900613
:1036B3009AE0FF90048AE0FEC39F503B74802EF58E
:1036C30082E43406F583E0FF644B602BEF644960CA
:1036D30026EF64426021EF6446601CEF645260177A
:1036E300EF644D6012EF644A600DEF6471600890FF
:1036F300048AE004F080B790069AE0FF90048AE021
:10370300FEC39F503B74802EF582E43406F583E0BC
:10371300FF900486E0FBA3E0FAA3E0F990048BE0BA
:10372300FEF582758300EF120652900489E0146E51
:10373300600E90048BE004F090048AE004F080B7FC
:10374300D2AFE490069AF0FF22D2AF7F0022AB07FC
:10375300EBC3942074809480500AE47F01FEFDFC47
:10376300A803800BE47F01FEFDFCEB24E0F9F812D3
:10377300082A900474120869EBC39420748094801F
:103783005003023849759651900474A3A3A3E0FF34
:10379300EF4297759652900474E0FCA3E0FDA3E01A
:1037A300FEA3E0FF7808120817EF4297EBC39424B7
:1037B30074809480500E900474A3A3A3E0540FFF6D
:1037C300EF42EA22EBC3942674809480501B90044A
:1037D30074E0FCA3E0FDA3E0FEA3E0FF780412087D
:1037E30017EF5403FFEF42EB22EBFFC3942C7480DB
:1037F30094805037EF642A6005EF642B70129004B5
:1038030074E0FCA3E0FDA3E0FEA3E0FF78048010D6
:10381300900474E0FCA3E0FDA3E0FEA3E0FF7806C0
:10382300120817EF54CFFFEF42EC22900474E0FC30
:10383300A3E0FDA3E0FEA3E0FF780C120817EF540A
:103843000FFFEF42EE22759626900474A3A3A3E024
:10385300FFEF4297759627900474E0FCA3E0FDA365
:10386300E0FEA3E0FF7808120817EF540FFFEF42C2
:1038730097759628900474E0FCA3E0FDA3E0FEA3F3
:10388300E0FF7810120817EF429775962990047499
:10389300E0FCA3E0FDA3E0FEA3E0FF781812081705
:1038A300AB07EB4297900474E0FCA3E0FDA3E0FEBA
:1038B300A3E0FF780212082AEF54FCFFEF42EB90DB
:1038C3000474E0FCA3E0FDA3E0FEA3E0FF78021292
:1038D3000817EF5430FFEF42EC900474E0FCA3E0D0
:1038E300FDA3E0FEA3E0FF7804120817EF54F0FFF6
:1038F300EF42EE900474E0FCA3E0FDA3E0FEA3E03E
:10390300FF780C120817EF54F0FFEF42EF900474A6
:10391300E0FCA3E0FDA3E0FEA3E0FF781412081788
:10392300EF540FFFEF42F2EB42F722900476EFF0F1
:10393300E4A3F0A3F0128654A3EFF06470700B12AB
:10394300865A7F2F12742D028425900479E06460D7
:1039530070057F011285AB900479E0FF7E0064015E
:10396300600DEF64326008EF64336003023AECEFFA
:1039730064544E700B1285FFEF64076003023AEC48
:1039830012865A12824EEF640170087F2E12742D34
:10399300028629900479E0645470379005B5E0FFFE
:1039A300126A3A900477EFF06003023AEC9005B59F
:1039B300E07003023A83127C16900477EFF0700AEA
:1039C3007D017F07126FD0023AD07FD312742D028C
:1039D3003AD07B017A0479781272D2900477EFF0AF
:1039E3006003023A66900479E0640170057F040283
:1039F30048DE900479E0643270057F19023AE99059
:103A03000479E064336003023AEC9005B5E0FF12F9
:103A13006A3A900477EFF070459005B5E070028044
:103A23005F127C16900477EFF0702CA3E0FF126214
:103A33004F900477EFF07015A3E0900234F07F0508
:103A430012742D900234E0FF12838B80057F6E1277
:103A5300742D12853280057FD312742D806F7F7A87
:103A6300023AE9900479E06432706C9005B5E0FFA6
:103A7300126A3A900477EFF070599005B5E0700C34
:103A83007F1812742D9005B57401F022127C1690E4
:103A93000477EFF07032FF128214900477EFF07026
:103AA3000F7F0512742D900234E0FF12837B800593
:103AB3007F6E12742D9006F7E07008F07F01128577
:103AC300AB800A12852880057FD312742DE49005FC
:103AD300B5F0227F7A800F900479E0640170057F4E
:103AE300040269337F8012742D22EFB40700400370
:103AF300023C64903AFDF8282873023B12023B39DA
:103B0300023B5F023BAA023BF8023C1B023C3EEB3A
:103B13007009ED42EA759617023BB3EB6401700935
:103B2300ED42EA759617023C57EB64026003023CD0
:103B330064EDF452EA22EB7008ED42EB75961880BF
:103B43006FEB64017009ED42EB759618023C57EB7D
:103B530064026003023C64EDF452EB22EB7008ED67
:103B630042EC7596198049EB64017009ED42EC75DE
:103B73009619023C57EB64027015EDF452ECED54C8
:103B8300307003023C64759625C4540F023C48EB25
:103B930064036003023C64EDF452EC759625ED5426
:103BA30030C4540F429722EB700AED42EE75961B18
:103BB300ED023C48EB64017009ED42EE75961B0281
:103BC3003C57EB64027015EDF452EEED5430700384
:103BD300023C647596251313543F8069EB640360BC
:103BE30003023C64EDF452EE759625ED5430131345
:103BF300543F429722EB7009ED42EF75961CED801E
:103C030044EB64017008ED42EF75961C8046EB644B
:103C130002704EEDF452EF22EB7009ED42F275960D
:103C23001DED8021EB64017008ED42F275961D8055
:103C330023EB6402702BEDF452F222EB700BED4296
:103C4300F775961EEDF4529722EB6401700AED426C
:103C5300F775961EED429722EB64027004EDF45261
:103C6300F72290047C74FFF0787F7C047D01FB7A5B
:103C730087797F7E007F031205D490047D7442F020
:103C8300A37464F07B017A04797D7D02126B7F7FDC
:103C9300907E01127A139004867401F0A37404F0E9
:103CA300A3747FF0A37403F07B017A04797DE4FDB0
:103CB30012355E90047FE064427054A3E024BB603D
:103CC3001214602624F9601324FB602D2406703C33
:103CD3007FFF227F0812742D7FFF229006F7740165
:103CE300F07F6212742D7F12801C9006F77401F02E
:103CF3007F1012742D7F22800D9006F77401F07FE0
:103D03001712742D7F321285AB023DD97FFF2290AB
:103D1300047FE0FF644D600DEF64466008EF64527A
:103D23006003023DD6900481E0FB9004807005E0BF
:103D330024D0800CE024D075F00AA4FFEB24D02F0C
:103D4300900234F090047FE024BA602824F4605B8E
:103D53002405707C900234E0FF7D011266E190043B
:103D63007CEFF070647F0512742D900234E0FF1233
:103D7300834B8062900234E0FF7D011272959004C0
:103D83007CEFF0700F900234E0FF7E001285AE905E
:103D9300047CEFF090047CE0700F7F0512742D908B
:103DA3000234E0FF12836B802D801E900234E0FF0B
:103DB30012624F90047CEFF0700F7F0512742D9008
:103DC3000234E0FF12838B800D7F6E12742D800608
:103DD3007FFF227F01227F0022900501120869E400
:103DE300FFFE7D807C3F900501E0F8A3E0F9A3E0AE
:103DF300FAA3E0FB12038D7006900501023F369093
:103E03000501E0FCA3E0FDA3E0FEA3E0FF12026DC9
:103E1300FBA3E0FCA3E0FDA3E0FEA3E0FF12026D21
:103E2300FFB40108E4FFFE7D807C3F22EF64046061
:103E330029EB64046024EBB40130E4FFFEFDFC9045
:103E43000505E0F8A3E0F9A3E0FAA3E0FB12038D74
:103E530060084006E4FFFEFDFC229005051208758C
:103E6300FFFFFFFF900505023F36E4900509F0A32D
:103E7300F0FFFEFDFC900501E0F8A3E0F9A3E0FAF2
:103E8300A3E0FB12038D505F900505E0FCA3E0FD6A
:103E9300A3E0FEA3E0FF1201EC900509EEF0A3EF0F
:103EA300F0FDCCEECCEC1201B3C8ECC8C9EDC9CA25
:103EB300EECACBEFCB900505E0FCA3E0FDA3E0FE4B
:103EC300A3E0FF1200B9E4FBFAF9F812038D708A3C
:103ED300900501E0FCA3E0FDA3E0FEA3E0FF1204D4
:103EE30006900501120869900501E0FCA3E0FDA31B
:103EF300E0FEA3E0FF1241FC900505E0F8A3E0F922
:103F0300A3E0FAA3E0FB1202871255B7900505124E
:103F1300086990050AE030E017900505E0FCA3E08E
:103F2300FDA3E0FEA3E0FF12040690050512086955
:103F3300900505E0FCA3E0FDA3E0FEA3E0FF221251
:103F43008654900510EFF090039F7401F090039056
:103F5300E064017030900394E004F07006900393E2
:103F6300E004F090039CE0FEA3E0FFC3900394E021
:103F73009F900393E09E400D9003907402F0E490B1
:103F83000393F0A3F090039BE06401701B90039EE6
:103F9300E004F0E0C3940A74809480400B90039B88
:103FA3007402F0E490039EF09003A0E0D3940074B5
:103FB300809480402A90038BE004F0700690038A7B
:103FC300E004F090038AE0FEA3E0FFE4FCFD7B58ED
:103FD3007A02F9F8D31207F05005E49003A0F01227
:103FE3006D00EF7003024088900510E0FF6461707C
:103FF30003024088EF64607003024088900390E0FE
:1040030064017003024088127A5CEF707812822890
:10401300EF7072900511F0900392E004F070069037
:104023000391E004F0900510E0FF64126028EF6450
:10403300136023EF6441601EEF64436019EF64442F
:104043006014EF6422600FEF6423600AEF64326050
:1040530005EF64337011D3900392E094C8900391F9
:10406300E094004017800FD3900392E09464900390
:1040730091E0940040069005117401F0900511E061
:10408300600A02667CE4900391F0A3F0227B007A3D
:10409300007908900478E4F0A3740FF0E4FF12446D
:1040A30018AF08EF64016008EF6402600302414047
:1040B300E4900473F07B017A00790090047804F0B3
:1040C300A374F4F07F011244187B017A0179F49010
:1040D3000478E4F0A3743CF07F021244187B017A65
:1040E300027935900478E4F0A3748CF07F031244D2
:1040F30018D3E50B94007480948050030241C79059
:104103000473E0FFFD7C00C3946474809480501AB0
:1041130075F005EFA42404F582E5F03400F583E09F
:104123006008900473E004F080D5C3ED9464EC64FC
:1041330080948050030241C7E4F50B807C7E017FAD
:10414300F47DFF7B017A007900120BAC7B017A00CE
:1041530079009004A07401F0A374F4F07F0112308D
:10416300927E007F3C7DFF7B017A0179F4120BACD8
:104173007B017A0179F49004A0E4F0A3743CF07F0E
:10418300021230921200167E007F8C7DFF7B017A33
:10419300027935120BAC7B017A0279359004A0E4E5
:1041A300F0A3748CF07F0312309275080175090136
:1041B300E4F50AF50BF50CF50DFB7A00790890048C
:1041C300A012308B223E9248DA3ECCCCCD3F2AAAB5
:1041D300AB400000003F8000003F9837F03FB5043C
:1041E300F33FD744FC3E3172173EB172173F0515BA
:1041F300913EDE5BD9D2048002C204EDD2E7F8CD52
:1042030033EC3304700BBD800592D50202620202C7
:104213005840FBD31460F2F5F07C3FEE7A00C39470
:1042230096C8948B40230AC89469C8941A401A0A02
:10423300C89468C8941F40110AC8945AC89425406A
:104243000805F07A00CDC2E7CDC0F090050B120847
:1042530069EA2323C0E024D8F582E43441F58312CC
:1042630008591200BDECC0E0EDC0E0EEC0E0EFC0C5
:10427300E012083D90050B12084D1200B9D0E0FB87
:10428300D0E0FAD0E0F9D0E0B2E7F812041A9005D2
:104293000B1208699041C874031204B790050B12FE
:1042A300084D120287D0E0600F24E4F582E4344124
:1042B300F5831208591200BD90050B120869D0E06E
:1042C300C3947FFDE49400FC1201B37B187A7279E6
:1042D30031783F12028790050B12084D1200BD3052
:1042E300040B7BD97A5B79DE783E120287227D0349
:1042F3007FE87E03900488EEF0A3EFF0A3EDF0E4F3
:10430300A3F0A3F0FE7F14FD7B017A0679A0120BC4
:10431300AC90048874FFF5F01206BC45F0700302FC
:1043230044157F017E00127A1390048AE02409FF6A
:10433300E433FE90069AE0C39FEE6480F87480989D
:1043430040CFE490048BF090069AE0FF90048BE05A
:10435300FEC39F501774802EF582E43406F583E084
:1043630064EF600890048BE004F080DB90048BE042
:10437300FF2480F582E43406F583E064EF709274E1
:10438300812FF582E43406F583E0640170839004A1
:104393008BE0FD2486F582E43406F583E064076050
:1043A3000302431474872DF582E43406F583E0FE9B
:1043B30074882DF582E43406F583E07C002400FF45
:1043C300EC3EFE90048AE06F7001EE60030243143A
:1043D30090069AE0FF90048BE0FEC39F50297480FF
:1043E3002EF582E43406F583E0FF90048CE024A0EC
:1043F300F582E43406F583EFF090048CE004F0904A
:10440300048BE004F080C9E490069AF09006A9E0DA
:10441300FF227F0122900475EBF0A3EAF0A3E9F0F9
:10442300EF1460651470030244E514700302450F32
:104433002403600302453AE4FF1285DBE490047A27
:10444300F0A3F0900478E0FEA3E0FFA3E0FCA3E078
:10445300FDC39FEC9E400302453AE4FF127BD790D5
:104463000475E0FBA3E0FAA3E0F990047AE0FCA36F
:10447300E0F5828C83EF12065290047BE004F07027
:10448300C290047AE004F080BAE4FF1285DBE49082
:10449300047AF0A3F0900478E0FEA3E0FFA3E0FC2D
:1044A300A3E0FDC39FEC9E400302453AED2418FDB3
:1044B300E43CFCE4FF127BD7900475E0FBA3E0FA35
:1044C300A3E0F990047AE0FCA3E0F5828C83EF1279
:1044D300065290047BE004F070BB90047AE004F091
:1044E30080B37F011285DB900475E0FBA3E0FAA3A0
:1044F300E0F9E4900480F0A3F0900478E0FFA3E0F7
:10450300900482CFF0A3EFF0E4FD80287F011285B1
:10451300DB900475E0FBA3E0FAA3E0F9E4900480E8
:10452300F0A3F0900478E0FFA3E0900482CFF0A31F
:10453300EFF07D01125A9122E4F9900478F0A3F090
:10454300FEEEC3940C74809480506074052EF58243
:10455300E43404F583E06050EE25E02436F582E48C
:104563003404F583E0FCA3E0FDEE25E024EDF582C1
:10457300E43403F583E0FAA3E0C39DFDEA9CFC90D9
:104583000476F0A3EDF0D3900479E09DEC6480F819
:10459300900478E0648098500F900476E0FDA3E0E7
:1045A300A3CDF0A3EDF0A9060E8096900429E0694F
:1045B300606FE0FE25E02436F582E43404F583E001
:1045C300FCA3E0FDEE25E024EDF582E43403F5835E
:1045D300E0FAA3E0C39DFEEA9C900476F0A3CEF03C
:1045E300900476E0FEA3E0FFC3900479E09FFF9080
:1045F3000478E09EFE900476F0A3EFF0E925E02432
:1046030013F582E43487F583E493FC740193FDD3BB
:10461300EF9DEC6480F8EE6480984005900429E9EE
:10462300F0AF0122900479EBF0A3EAF0A3E9F0A341
:10463300EDF0E490047EF090048374FFF07E007F3D
:1046430004FD7B017A04797F120BAC90047CE0FDBE
:104653009004887401F0A37404F0A3747FF09004B1
:1046630079125E8EE4FFEFC3946474809480506487
:1046730075F005EFA42404F582E5F03400F583E03A
:10468300F4604EE490047EF090047EE0FD7C00C371
:104693009404748094805033E0FE75F005EFA424F5
:1046A30000F582E5F03400F583E5822EF582E435EA
:1046B30083F583E0FB747F2EF582E43404F583E015
:1046C300B5030890047EE004F080BDED64044C6003
:1046D300030F8092EFC3946474809480502675F026
:1046E30005EFA42404F582E5F03400F583E0FE90A1
:1046F300047DE0FDEE6D6005ED64037007900483B7
:10470300EFF0800690048374FFF0900483E0FF22AF
:10471300900479EBF0A3EAF0A3E9F0A3EDF0E490C1
:10472300047EF090047DE0FF7E007004A3F0803CE3
:10473300EF64024E700790047E04F0802F90047E95
:104743007402F090047EE0FFC394647480948050FC
:104753001B75F005EFA42404F582E5F03400F5831E
:10476300E0F4600890047EE004F080D790047EE0DB
:10477300FFC3946474809480507A900234EFF07E87
:10478300007F047DFF7B017A04797F120BAC9004D8
:104793007CE0FD9004887401F0A37404F0A3747F9B
:1047A300F0900479125E8E90047EE075F005A424E7
:1047B30000F9740035F0A801FC7D017B017A0479CE
:1047C3007F7E007F041205D490047DE0FFA3E07593
:1047D300F005A42404F582E5F03400F583EFF07BC3
:1047E300017A0079009004A07401F0A374F4F07FBF
:1047F300010230927F0122900668E064017071A388
:10480300E0700D7D047F051272577D01E4FF800C7B
:10481300900669E0640270097D047F05126F46808B
:104823000F900669E0C39404748094804002B2F848
:10483300900669E004F090067FE025E0FFE433FE94
:10484300EF2406FFE43EFE900669E0C39FEE64801A
:10485300F874809850030248DDE4F07D047F05126C
:104863006F467D01E4FF126F469006687404F022E0
:10487300900668E06403704BA3E070057D01FF8040
:104883001D900669E0640170097D047F051272576B
:10489300800F900669E0640370077D047F05126F43
:1048A30046900669E004F0E0C39404748094804069
:1048B30029E4F07D047F05126F467D01E4FF126F4A
:1048C300468011900668E06404700F7D02FF125C5D
:1048D30099EF70069006687402F02290047BEFF063
:1048E30012867BEF6401702F90047BE0FF541070FD
:1048F30026EF640860217F0812742D90047BE02466
:10490300FE600E24FE600D240360030249BE02868E
:104913001D028623028629E49003A0F012866FEF1E
:104923006401703190047BE0FFFD64086027EF545D
:10493300107022EDF4FFE4F4FE90039AE0FDFBEF28
:104943005B6004E4F0800E90047BE04D90039AF0EA
:104953007F4B02742D7F521285AB12867E7BFF7ACA
:104963008179C27F037E00126EB990047BE01460EC
:104973002614602D24FE603324FC603924F6600D78
:10498300047035900234E0FF127DA3802B90023433
:10499300E0FF127DBD8021900234E0FF12839B80F3
:1049A30017900234E0FF1283AB800D900234E0FFD6
:1049B3001283BB80031286171282DA2290047BEFE4
:1049C300F0E490047EF090069FE06F7003024A9635
:1049D300126CC2EF64017003024A967F0112863C97
:1049E3007F077E00127C567F4112863F90047BE056
:1049F300606824FE60261460422402707B7F0112EB
:104A03007D687F01127D68E4FF127D687F50127D0F
:104A13006890047CE4F0A3749BF0805C7F01127DBA
:104A2300687F02127D687F02127D68E4FF127D6851
:104A330090047CE4F0A3744EF0803D7F01127D6806
:104A43007F04127D687F04127D68E4FF127D689005
:104A5300047CE4F0A37452F0801E7F04127D68E4AA
:104A6300FF127D68E4FF127D687FC8127D689004A1
:104A73007C7401F0A37415F090047CE0FEA3E0FFC6
:104A83001270C41242F190047EEFF090047BE09028
:104A9300069FF022900501EBF0A3EAF0A3E9F0E40E
:104AA300900509F0A3F0D3900508E0940090050762
:104AB300E0648094805003024B50900501E0FBA317
:104AC300E0FAA3E0F9900509E0FEA3E0F5828E8306
:104AD300120613601090050AE004F070DD900509DA
:104AE300E004F080D5900504E0FBA3E0FAA3E0F92D
:104AF3001205FA603E900504A3E475F0011206D294
:104B0300A9F0FA1205FAFF900501E0FBA3E0FAA36E
:104B1300E0F9900509E475F0011206D285F082F5FB
:104B230083EF12065290050774FFF5F01206BC4599
:104B3300F070B2900501E0FBA3E0FAA3E0F9900561
:104B430009E0FEA3E0F5828E83E41206529005018C
:104B5300E0FBA3E0FAA3E0F922E4900477F0C201BA
:104B630012001EE4900476F0900476E0C3940C7473
:104B73008094804003024C1530030343AD102000A2
:104B83000575910780F8C200AFACEFFEADABEDFF4A
:104B9300900476E0FD25E02436F582E43404F583C1
:104BA300EEF0A3EFF0EDC3940B74809480502DEDE1
:104BB30025E024D7F582E43403F583E0FEA3E0F592
:104BC300CA53CC7FEE5401C313E41342CC53CCC07D
:104BD300ED90869D93543F42CC75C901900476E0D5
:104BE300FF122708900476E0FF12526A900476E0E1
:104BF300FF1263A530010F900429E0F470089004BC
:104C030076E0900429F0200212900476E004F0028A
:104C13004B6B20010690042974FFF022C20120048B
:104C23006D908696E493FD700D90875993C313FF9F
:104C330074019313801575F002EDA42457F582E5F2
:104C4300F03487F583E493FF740193900474CFF0F9
:104C5300A3EFF0E4900473F0900473E0C3940C7436
:104C63008094805071E0FF2405F582E43404F583D9
:104C7300E4F0C205900474E0FDA3E0900477CDF066
:104C8300A3EDF012237C900473E004F080CA9086B5
:104C930099E493FD700D90875993C313FF740193A7
:104CA30013801575F002EDA42457F582E5F03487DF
:104CB300F583E493FF740193900474CFF0A3EFF0B2
:104CC300D205900474E0FFA3E0900477CFF0A3EF44
:104CD300F0E4FF12237C90042974FFF022900499DE
:104CE300EBF0A3EAF0A3E9F0E49004A0F07F2EFE3A
:104CF3001281EC53FBFDE4F5FAF5FE7596585397D4
:104D0300EF53FBEF43FC40FF90049FE0FEEFC39E95
:104D13005064E4A3F074FFFDFCED1DAA0470011CB4
:104D23004A6029E5FB30E4F1E5FB548070EB900425
:104D330099E0FBA3E0FAA3E0F98F82758300E5FA1B
:104D430012065253FBEF9004A07401F053FB7F5300
:104D5300FBDFE5FE601D900499E0FBA3E0FAA3E00E
:104D6300F98F82758300E5FA1206529004A074ACA1
:104D7300F080030F809253FCBF43FB029004A0E03A
:104D830064AC700F90049CE0FBA3E0FAA3E0F9EF9E
:104D93001206409004A0E0FF2253CCBFA204E433E8
:104DA300C43333544042CC300403024E54E49004E1
:104DB30078F0900729E0FF900478E0C39F40030256
:104DC3004E54E0FF75F002A424D5F582E5F03403D8
:104DD300F583E0FCA3E0FDEF90869C93FF127571D1
:104DE300900478E0FD75F002A42436F582E5F034F2
:104DF30004F583EEF0A3EFF075F002EDA42436F58D
:104E030082E5F03404F583E0FEA3E0FF75F002EDE4
:104E1300A424EDF582E5F03403F583EEF0A3EFF07F
:104E230075F002EDA42436F582E5F03404F583E051
:104E3300FEA3E0FF75F002EDA42411F582E5F03442
:104E430004F583EEF0A3EFF0900478E004F0024D54
:104E5300B522900480EBF0A3EAF0A3E9F090048775
:104E6300EFF0A37470F0E4FF900486E0FEEFC39EBE
:104E73005023900480E0FBA3E0FAA3E0F98F82754E
:104E83008300120613FE74892FF582E43404F5833C
:104E9300EEF00F80D37B017A047987900486E024B7
:104EA30002900497F07F01127219900486E0FC24AB
:104EB30089F582E43404F583EFF0EEFF748A2CF570
:104EC30082E43404F583EFF07B017A04798790045C
:104ED30086E02404FD125117EF640160037F012271
:104EE30090049C7401F0A37404F0A37487F0A3747A
:104EF30003F0900483E0FBA3E0FAA3E0F9124CE093
:104F0300EF64017F0060027F0122900476EBF0A33F
:104F1300EAF0A3E9F078797C047D017BFF7A877955
:104F2300737E007F061205D47596585397FB7B0159
:104F33007A047979126E2AEF60037F012290047953
:104F4300E054C0C41313540375F003A4240464048D
:104F530060037F01227B017A0479797D017F9312BB
:104F63005449EF60037F0122900476E0FBA3E0FA4B
:104F7300A3E0F8AC02AD037B017A0479797E007F6C
:104F8300051205D49004837401F0A37404F0A37490
:104F930079F0A37405F0900476E0FBA3E0FAA3E0B4
:104FA300F97F93124E55EF60037F0122900479E05D
:104FB30054247F017001FF2290047AEBF0A3EAF0FE
:104FC300A3E9F0E4FFFEEFC3940A748094805015C4
:104FD300EF75F00EA42435F582E43402F583E0F492
:104FE30060030F80E1EFC3940A748094805074903F
:104FF3000234EFF075F00EA42435F582E43402F5A3
:1050030083EFF075F00EA42436F582E43402F583C1
:10501300EDF0E4FEEEC3940C748094805031900460
:105023007AE0FBA3E0FAA3E0F98E8275830012060F
:1050330013FDEF75F00EA42437F582E43402F583F3
:10504300E5822EF582E43583F583EDF00E80C57B92
:10505300017A0279359004A0E4F0A3748CF07F0305
:105063000230927F01227B01E0FCA3E0FD90050169
:10507300EBF0A3EAF0A3E9F0A3ECF0A3EDF0E4A3D3
:10508300F0A3F09005067413F0900506E0FD7C0094
:10509300C3940A74809480407A900504E0FEA3E0F0
:1050A300FF120686AF05900508EFF0D394097480CC
:1050B30094804004E024F6F0900508E0FF90050793
:1050C300E0FD900501E0FBA3E0FAA3E0F91273F41D
:1050D300EF6014900508E004F0E0D3940974809421
:1050E3008040D5E4F080D1900508E0FF900501E011
:1050F300FBA3E0FAA3E0F9900507E0F582758300CE
:10510300EF120652900507E004F0900506E014F054
:1051130002508C22900499EBF0A3EAF0A3E9F0A3E8
:10512300EDF07596585397FDE06004640170239089
:105133000499E0FBA3E0FAA3E0F91205FAF5F953A9
:10514300FCC190049CE0FF25E0543E42FC43FC017B
:10515300806B900499E0FBA3E0FAA3E0F91205FA4F
:10516300F5F9900001120613F5FA53FCC190049C63
:10517300E0FF25E0543E42FC43FC01127D397D02F1
:1051830090049CE0FEEDC39E5033ED90049930E013
:1051930014E0FBA3E0FAA3E0F98D82758300120605
:1051A30013F5FA8012E0FBA3E0FAA3E0F98D827510
:1051B3008300120613F5F9127D390D80C3127D3970
:1051C30022900668E0640260030252667D02FF12C9
:1051D3005C99EF6401600302526690066BE0701302
:1051E30090067FF012857D90066A7401F0E49006C4
:1051F30068F022E490050FF090066804F090066BC7
:10520300E090067FF0E490050FF090050FE0FF3388
:1052130095E0FEC3EF9413EE64809480502B746C7E
:105223002FF58274063EF583E0FF601D90050FE0C5
:10523300FD3395E0FC746B2DF58274063CF583EF2A
:10524300F090050FE004F080C190050FE0FF339567
:10525300E0FE746B2FF58274063EF583E4F090064E
:1052630069F0221247FA2274A12FF582E43403F580
:1052730083E07049744E2FF582E43404F583E4F03F
:1052830074C92FF582E43403F583E004F074C92F65
:10529300F582E43403F583E0FE908758E493FDEE52
:1052A300D39D406474C92FF582E43403F583E4F09D
:1052B30074052FF582E43404F583E4F02274C92FD6
:1052C300F582E43403F583E4F0744E2FF582E4347D
:1052D30004F583E004F0744E2FF582E43404F5837F
:1052E300E0FE908757E493FDEED39D401B744E2F51
:1052F300F582E43404F583E4F074052FF582E43495
:1053030004F5837401F0D2012290047F126CB4EF90
:10531300640170037FFF227F0112863C7F087E00B9
:10532300127C567F0412863F90047FE0FF127D6853
:10533300900480E0FF127D68900480A3E0FF127D5B
:1053430068900482E0FF127D68900482A3E0FF125C
:105353007D68900480E0FCA3E0FDECFF7E009004F8
:105363007FE0240DFBE433CB2FFFEE3BFE7C00EF0D
:105373002DFDEC3E9004821270AE7D071242F39035
:105383000487EFF09006AAE0FEA3E07C002400FF70
:10539300EC3EF9900484E0FBA3E0FAA3E0C98FF0AC
:1053A3001206E8900487E0FF2275962B5397F89036
:1053B300047FE05407429753CDF3A3E025E025E0B3
:1053C300540C42CD53CDFDA3E025E0540242CD530E
:1053D300CDFEA3E0540142CD53CBBFA3E0C433338E
:1053E300544042CB53CCBFA3E0C43333544042CCEC
:1053F30075962B5397C7A3E03333335438429753EF
:10540300CD8FA3E0C4547042CD53CBC0A3E0543F2F
:1054130042CB53ADDFA3E0C433542042AD75962D88
:105423005397FDE4F5C953F1DF90048AE0640170FA
:105433001153F6DF900489E0C43354E042F643E6A7
:10544300202253E6DF2290047FEFF0A3EDF0A3EBDD
:10545300F0A3EAF0A3E9F078847C047D017BFF7A72
:105463008779697E007F0A1205D490047FE0900457
:105473008EF0A37420F07B017A04798E7D021251A1
:1054830017EF640160037F012290049C7401F0A371
:105493007404F0A37498F0A37405F07B017A047983
:1054A3008E124CE0EF64017031FEEEC394057480FC
:1054B30094805023748E2EF582E43404F583E0FD4A
:1054C300900481E0FBA3E0FAA3E0F98E82758300E8
:1054D300ED1206520E80D37F0022EF7F0070027F11
:1054E3000122787E7C047D017BFF7A8779827E00AE
:1054F3007F021205D490047C744AF0A37464F07B99
:10550300017A04797C7D02126B7F7F907E01127A8F
:10551300139004867401F0A37404F0A3747EF0A3C3
:105523007402F07B017A04797CE4FD12355E900409
:105533007EE0FEB44A08A3E0B445037FFF22EEB445
:105543004A0A90047FE0B430037F002290047EE097
:10555300B44A08A3E0B431037F012290047EE0FE45
:10556300B44A08A3E0B432037F0222EEB44A0A909D
:10557300047FE0B433037F03227FFF2233DA929E5A
:1055830035B16011377FE5FE392184893AAEC3FF17
:105593003C1D955B3D6358473E75FDF03F317218E6
:1055A3003F800000C2D5020262020258BD80FA5059
:1055B300F302025FED33EC330460F17B3B7AAA79AB
:1055C300B8783F120287ED33EC3392D5247B501128
:1055D300A2D570DB500BED448024045004A2D58087
:1055E300CEEFFBEEFAEDF9ECF81201ECEFF582F4F5
:1055F30004FC1201B81200BDC08290557F740912D9
:1056030004C6ED33CC33D0F092D525F0A2D570018A
:10561300C313CC13FD22E4900476F0A3F012823C72
:10562300EF64017002FF22900644E075F003A424A6
:1056330023F582E43406F583E0120640900644E045
:10564300FF75F003A42424F582E43406F583E09087
:105653000001120652EF75F003A42425F582E43409
:1056630006F583E0900002120652900644E0FF75AF
:10567300F003A42423F582E43406F58374FFF0EFEA
:1056830075F003A42424F582E43406F58374FFF053
:10569300EF75F003A42425F582E43406F58374FF43
:1056A300F0128296900644EFF07F012290869BE4ED
:1056B30093900729F0E4900473F0900729E0FF909A
:1056C3000473E0FEC39F5077E0FF25E024BCF5821E
:1056D300E43486F583E493FC740193FD75F002EFE3
:1056E300A424D5F582E5F03403F583ECF0A3EDF0C3
:1056F300EE90869C93FF123751900473E0FF75F090
:1057030002A42436F582E5F03404F583E4F0A3F033
:1057130075F002EFA424EDF582E5F03403F583E49C
:10572300F0A3F075F002EFA42411F582E5F0340440
:10573300F583E4F0A3F0900473E004F00256BD2275
:1057430090047374FFF0A3F01283E9EF64017020F7
:105753001284C2EF701A1282B8EF700F9005B4E092
:10576300700E04F07F02127A808005E49005B4F095
:10577300128651900473EFF0F4601EE0FF12674647
:10578300900474EFF0F46011E0651B600FE0FBF52B
:105793001BE4FDFF127A838003751BFF128660EF03
:1057A30060057F04127A801282C9EF6008E4FBFD72
:1057B3007F03127A83128407EF6008E4FBFD7F0501
:1057C300127A831283F8EF6008E4FBFD7F06127AF6
:1057D30083221282FB12855A1276A0127700127965
:1057E300031273BB1277C0126D4C1277607B027D7C
:1057F300087F05123AED7D087F05126F46E4FB7DB5
:10580300407F06123AED7B027D107F02123AED7D56
:10581300107F021272577B027D087F02123AED7DE0
:10582300087F02127257E4FB7D207F06123AEDE4F3
:10583300FB7D107F03123AEDE4FB7D207F03123AD8
:10584300EDE4FB7D407F03123AEDE4FB7D807F03B3
:10585300123AED128592128033127B750284D8902E
:10586300047DEBF0A3EAF0A3E9F0A3EDF0E4FFEF8E
:10587300C3940A748094805047E4FEEEC3940C747E
:10588300809480503390047DE0FBA3E0FAA3E0F919
:105893008E82758300120613FDEF75F00EA4243774
:1058A300F582E43402F583E5822EF582E43583F54F
:1058B30083E0B505030E80C3EE640C60030F80AF75
:1058C300EFC3940A74809480501FEF75F00EA424E4
:1058D30036F582E43402F583E0FE900480E0FDEEC9
:1058E3006D6008ED64037001227FFF22787FE4F688
:1058F300D8FD758120025936026872E493A3F8E457
:1059030093A34003F68001F208DFF48029E493A314
:10591300F85407240CC8C333C4540F4420C883402D
:1059230004F456800146F6DFE4800B0102040810FC
:10593300204080902A57E47E019360BCA3FF543F2C
:1059430030E509541FFEE493A360010ECF54C02534
:10595300E060A840B8E493A3FAE493A3F8E493A324
:10596300C8C582C8CAC583CAF0A3C8C582C8CAC588
:1059730083CADFE9DEE780BE7E017FF47DFF7B0122
:105983007A007900120BAC7B017A0079009004A0B5
:105993007401F0A374F4F07F011230927E007F3C17
:1059A3007DFF7B017A0179F4120BAC7B017A0179DB
:1059B300F49004A0E4F0A3743CF07F02123092123E
:1059C30000167E007F8C7DFF7B017A027935120BF6
:1059D300AC7B017A0279359004A0E4F0A3748CF0D7
:1059E3007F03123092750801750901E4F50AF50B7E
:1059F300F50DFB7A0079089004A0F0A3740FF0E48E
:105A0300FF02309290047BEFF0E024CEF582E43481
:105A130006F583E024FB602924FE6035246E604193
:105A230024FE6047240570537F4E12742D12867531
:105A3300EF60057F2512742DE49006D3F0A3F08068
:105A43003A1285E77F1012742D128675EF602C8051
:105A5300251285E77F1712742D128675EF601C805F
:105A6300157F7712742D12848580107F4F12742D49
:105A7300128675EF60057F2512742D90047BE02458
:105A8300CEF582E43406F583E09006D5F022900447
:105A93007CEBF0A3EAF0A3E9F0ED900481600CE065
:105AA3002400FE900480E03446800AE02400FE9047
:105AB3000480E03444900484F0A3CEF0C2AFE4FD4C
:105AC300FCD3900483E09D900482E09C403A75D21D
