:100000000251EE02004E53E1DF323202675853E1F3
:0A001000F7323202006653F1F732B6
:10001B0002688BE4F5C9C20053F1DF9002B5E0FE34
:10002B00A3E0F5CA53CC7FEE5401C313E41342CCC7
:10003B0053CCC09078C9E493543F42CC75C901228C
:07004B0002006E5388FD3234
:100053000200161278B17F2A1268FE7F600278814F
:070063000277FA5388F7321F
:07006B0002001253F1FB3209
:100073000266137F891268FE126D567F41027881F2
:0700830002009653E1BF32B9
:07008B0002679653E17F328A
:0700930002000E53E1FD32F3
:07009B0002000A4387012265
:0600A3000200067F0022AE
:0600AB000200860260CC99
:1000B30002008E020258E86480F8E933E8336011E5
:1000C3000460F0ED33EC337009E8FCE9FDEAFEEB84
:1000D300FF220460DED3EB9FEA9EE99DE8C2E78C32
:1000E300F0C2F795F0400CE8CCF8E9CDF9EACEFA86
:1000F300EBCFFB12022385D0F05804700320D5B355
:10010300E80470075002B2D502026292D5EC046093
:10011300F7E4CCC0E0C398F8603B94186008400D46
:10012300D0E0FB02023AE4FBFAC9FC8028E830E4A1
:1001330006E4C9FBE4CAFCE830E305E4C9CACBFC26
:10014300E854076010F8C3E913F9EA13FAEB13FB59
:10015300EC13FCD8F130F52FC3E49CFCEF9BFFEECE
:100163009AFEED99FDD0E0FBEF4E4D4C701222DB71
:100173000302025FEC2CFCEF33FFEE33FEED33FDA5
:10018300ED30E7EB02023AEF2BFFEE3AFEED39FDDD
:10019300D0E0FB50130BBB0003020262ED13FDEE34
:1001A30013FEEF13FFEC13FC02023A75F020800EEE
:1001B30075F010800575F0087D007E007F00339296
:1001C300D530D503120818EC334010EF33FFEE336C
:1001D300FEED33FDEC33FCD5F0ED22E5F0247EA2F9
:1001E300D513CC92E7CDCEFF22EDD2E7CD33EC335E
:1001F30092D524814006E4FFFEFDFC22FCE4CFCE31
:10020300CDCC24E0501174FF80EDC3CC13CCCD13BF
:10021300CDCE13CECF13CF0470F030D5DE02081845
:10022300E9D2E7C933E833F892D5EDD2E7CD33EC21
:1002330033FC5002B2D522EC30E7100FBF000C0E96
:10024300BE00080DBD00040BEB6014A2D5EB13FC3C
:10025300ED92E7FD2274FFFCFDFEFF22E480F8A28D
:10026300D574FF13FC7D80E480EFED33EC33601035
:1002730004700FED547F7005740292E0227404221F
:100283000422E422EC4D6011E8497017ED33EC339E
:1002930004600DE4FCFFFEFD22E933E8330470F84B
:1002A30002025812022358046009E4CC2481500648
:1002B30028500902026228400302025FC0E0EB4AB1
:1002C3007044B98006D0E0FB02024EEF4E701CBDB5
:1002D3008008EBFFEAFEE9FD80EBE98DF0A4FEE583
:1002E300F0020370E9CDF9EAFEEBFFEF89F0A4FC1D
:1002F300E5F0CE89F0A42EFFE435F0CD89F0A42DEE
:10030300FEE435F08067EF4E7005BD80D780C3EF04
:100313008BF0A4ACF0EE8BF0A42CFCE435F0F8EFFA
:100323008AF0A42CE5F038FCE433CB8DF0A42CFC4C
:10033300E5F03BF8EE8AF0A42CFCE5F038F8E43362
:10034300CF89F0A42CFCE5F038CF3400CE89F0A49B
:100353002FFFE5F03EFEE433C98DF0A42EFEE5F059
:1003630039CD8AF0A42FFFE5F03EFEE43DFD33D006
:10037300E0FB50070BBB000F020262EC2CFCEF33D7
:10038300FFEE33FEED33FD02023A74F8CC6480CC09
:10039300C86480C8F58204604FC3EB9FF5F0EA9E02
:1003A30042F0E99D42F0E89C45F0603C501DE58237
:1003B3005FFFE582D313CB5BCBF42B5582FB502835
:1003C3000ABA002409B9002008801DE5825BFBE519
:1003D30082D313CF5FCFF4C3132F5582FF50090E7F
:1003E300BE00050DBD00010CC3EB9FF5F0EA9E4274
:1003F300F0E99D42F0E89C45F06007CC4820E70116
:10040300B3EC22ED33EC33600A047003BD8004ECDB
:10041300B2E7FC22020262EC5D046005E859047055
:1004230003020258120223580460F6EC4860F2EC0F
:100433007004FDFEFF22C860DB2481C85009C39805
:100443006002500602025F9850CAF582E9294B4ABE
:100453007005AB8202024E75F0007C1A7880C3EF00
:100463009BEE9AED99400DC3EF9BFFEE9AFEED993B
:10047300FDE842F0DC23ACF0D0E0FFD0E0FED0E0BA
:10048300FDAB8220E7101BEB60BAEC2CFCEF33FFD3
:10049300EE33FEED33FD02023AE803F830E705C020
:1004A300F075F000EF2FFFEE33FEED33FD40B83073
:1004B300E7C280AAC0E0EFFBEEFAEDF9ECF8120216
:1004C30087D0E0F5F0EFFBEEFAEDF9ECF8120873E4
:1004D300A3A3A3A3E8C0E0E9C0E0EAC0E0EBC0E067
:1004E300C0F012028712088FA3A3A3A31200BDD0EA
:1004F300F0D0E0FBD0E0FAD0E0F9D0E0F8D5F0D4CA
:1005030022E709F608DFFA8046E709F208DFFA80F6
:100513003E88828C83E709F0A3DFFA8032E309F691
:1005230008DFFA8078E309F208DFFA807088828CAA
:1005330083E309F0A3DFFA806489828A83E0A3F668
:1005430008DFFA805889828A83E0A3F208DFFA8001
:100553004C80D280FA80C680D4806980F280338058
:100563001080A680EA809A80A880DA80E280CA8020
:100573003389828A83ECFAE493A3C8C582C8CCC5C5
:1005830083CCF0A3C8C582C8CCC583CCDFE9DEE742
:10059300800D89828A83E493A3F608DFF9ECFAA934
:1005A300F0EDFB2289828A83ECFAE0A3C8C582C8F6
:1005B300CCC583CCF0A3C8C582C8CCC583CCDFEA45
:1005C300DEE880DB89828A83E493A3F208DFF98083
:1005D300CC88F0EF60010E4E60C388F0ED2402B4C6
:1005E300040050B9F582EB2402B4040050AF232376
:1005F30045822390055473BB010689828A83E022D6
:100603005002E722BBFE02E32289828A83E493221B
:10061300BB010CE58229F582E5833AF583E022509C
:1006230006E92582F8E622BBFE06E92582F8E222E6
:10063300E58229F582E5833AF583E49322BB01063B
:1006430089828A83F0225002F722BBFE01F322F84B
:10065300BB010DE58229F582E5833AF583E8F022B3
:100663005006E92582C8F622BBFE05E92582C8F2B9
:1006730022EF8DF0A4A8F0CF8CF0A428CE8DF0A4A7
:100683002EFE22BC000BBE0029EF8DF084FFADF0DF
:1006930022E4CCF875F008EF2FFFEE33FEEC33FCC9
:1006A300EE9DEC984005FCEE9DFE0FD5F0E9E4CEFF
:1006B300FD22EDF8F5F0EE8420D21CFEADF075F0CE
:1006C30008EF2FFFED33FD4007985006D5F0F222D7
:1006D300C398FD0FD5F0EA22C2D5EC30E709B2D5B5
:1006E300E4C39DFDE49CFCEE30E715B2D5E4C39F63
:1006F300FFE49EFE120686C3E49DFDE49CFC80039A
:1007030012068630D507C3E49FFFE49EFE22C5F0A0
:10071300F8A3E028F0C5F0F8E5821582700215838E
:10072300E038F022A3F8E0C5F025F0F0E582158269
:1007330070021583E0C838F0E82275F0087582006E
:10074300EF2FFFEE33FECD33CDCC33CCC58233C593
:10075300829BED9AEC99E58298400CF582EE9BFE24
:10076300ED9AFDEC99FC0FD5F0D6E4CEFBE4CDFA7F
:10077300E4CCF9A88222B800C1B90059BA002DEC23
:100783008BF084CFCECDFCE5F0CBF97818EF2FFFBB
:10079300EE33FEED33FDEC33FCEB33FB10D7039963
:1007A3004004EB99FB0FD8E5E4F9FA227818EF2F10
:1007B300FFEE33FEED33FDEC33FCC933C910D7052F
:1007C3009BE99A4007EC9BFCE99AF90FD8E0E4C94E
:1007D300FAE4CCFB2275F010EF2FFFEE33FEED337E
:1007E300FDCC33CCC833C810D7079BEC9AE89940AB
:1007F3000AED9BFDEC9AFCE899F80FD5F0DAE4CD0D
:10080300FBE4CCFAE4C8F922CFF4CFCEF4CECDF496
:10081300CDCCF4CC22C3E49FFFE49EFEE49DFDE433
:100823009CFC22EB9FF5F0EA9E42F0E99D42F0EC3E
:100833006480C864809845F022EB9FF5F0EA9E42FD
:10084300F0E99D42F0E89C45F022E8600FECC31309
:10085300FCED13FDEE13FEEF13FFD8F122E8600F5A
:10086300EFC333FFEE33FEED33FDEC33FCD8F1225F
:10087300E493FC740193FD740293FE740393FF22CB
:10088300E0F8A3E0F9A3E0FAA3E0FB22E493F87411
:100893000193F9740293FA740393FB22ECF0A3ED32
:1008A300F0A3EEF0A3EFF022A8828583F0D083D0EB
:1008B300821208C21208C21208C21208C2E473E408
:1008C30093A3C583C5F0C583C8C582C8F0A3C583F8
:1008D300C5F0C583C8C582C822D083D082F8E4930B
:1008E3007012740193700DA3A393F8740193F582AE
:1008F3008883E4737402936860EFA3A3A380DF8A01
:10090300838982E473EC8EF0A4CCC5F0CCCDF8EFF0
:10091300A4CEC5F02DFDE43CFCE8A42EC8C5F03DF3
:10092300FDE43CFCEFA4FFE5F028FEE43DFDE43CE0
:10093300FC22E709F60870FA8046E709F20870FA24
:10094300803E88828C83E709F0A370FA807EE309F6
:10095300F60870FA8076E309F20870FA806E8882EE
:100963008C83E309F0A370FA806289828A83E0A30F
:10097300F60870FA805689828A83E0A3F20870FA37
:10098300804A80D280FA80C680D4806580F280312C
:10099300801080A680EA809A80A880DA80E280CAEC
:1009A300803189828A83ECFAE493A3C8C582C8CCD8
:1009B300C583CCF0A3C8C582C8CCC583CC70E980FD
:1009C3000D89828A83E493A3F60870F9ECFAA9F0FF
:1009D300EDFB2289828A83ECFAE0A3C8C582C8CCE6
:1009E300C583CCF0A3C8C582C8CCC583CC70EA80CC
:1009F300DD89828A83E493A3F20870F980CE88F0BC
:100A0300ED2402B4040050C4F582EB2402B40400C4
:100A130050BA232345822390098573E3F5F009E255
:100A230008B5F06BDFF58067E3F5F009E608B5F08C
:100A33005EDFF5805A87F009E608B5F052DFF680ED
:100A43004E87F009E208B5F046DFF6804288828CD3
:100A53008387F009E0A3B5F036DFF6803288828C15
:100A63008387F009E493A3B5F025DFF5802188821D
:100A73008C83E3F5F009E0A3B5F014DFF58010886B
:100A8300828C83E3F5F009E493A3B5F002DFF4026B
:100A93000B4D808780E9809080D4803E8015806EE6
:100AA300807E809D80B7808D80A380518074803C40
:100AB300020B5989828A83ECFAE493F5F0A3C8C543
:100AC30082C8CCC583CCE493A3C8C582C8CCC583F4
:100AD300CCB5F076DFE3DEE1807089828A83E4932C
:100AE300F5F0A3E208B5F062DFF4805E89828A83C1
:100AF300E0F5F0A3E608B5F051DFF5804D89828A71
:100B030083E0F5F0A3E208B5F040DFF5803C89828D
:100B13008A83E493F5F0A3E608B5F02EDFF4802A88
:100B23008002805789828A83ECFAE493F5F0A3C8A4
:100B3300C582C8CCC583CCE0A3C8C582C8CCC58355
:100B4300CCB5F006DFE4DEE280007FFFB5F0020FF4
:100B53002240027F012289828A83ECFAE0F5F0A326
:100B6300C8C582C8CCC583CCE0A3C8C582C8CCC5E0
:100B730083CCB5F0D5DFE5DEE380CF89828A83ECD1
:100B8300FAE0F5F0A3C8C582C8CCC583CCE493A32F
:100B9300C8C582C8CCC583CCB5F0AFDFE4DEE28044
:100BA300A988F0EF60010E4E60ABED2402B404009F
:100BB3005098F582EB2402B40400508E232345821F
:100BC30023900A9573EF4E6012EF60010EEDBB01A7
:100BD3000B89828A83F0A3DFFCDEFA2289F05007B7
:100BE300F709DFFCA9F022BBFEFCF309DFFCA9F047
:100BF30022900356EFF0127884A3EFF01208DC0C76
:100C030050010C50020C50120C5013120614120611
:100C1300151206160C501711E63211E6331206347C
:100C23001206351206360C50410C50421206501271
:100C33007F5312AD54130D550C456013157000000E
:100C430013207F011278819003577401F0127516F7
:100C5300EF6401700B12788A7F2E1268FE02785AB5
:100C6300900594E07065900356E0640A703AA3E03F
:100C73006441700302132012764D900357E0FD7C0C
:100C830000640170057F60021201ED64024C70057F
:100C93007F01021201900687E06401600302127C67
:100CA30074FFF07F01021201900356E0640B701B86
:100CB300A3E06401600302132012764DE490058ED5
:100CC300F07F831268FE7F0202120112764D9003B9
:100CD30056E0FFC374809480407CD3EF9409748002
:100CE30094805072900594E0C39420748094805053
:100CF30065900357E0FF64016005EF64027016908E
:100D03000356E0FF900594E0FE04F074952EF582FF
:100D1300E43405803D900593E0FF7E00701A900354
:100D230056E0FD900594E0FC04F074952CF582E404
:100D33003405F583EDF0801EEF64014E70189003C7
:100D430056E0FF900594E0FE04F074B52EF582E4BE
:100D53003405F583EFF0900356E0640A6003020E56
:100D630037900593E0FF7E00700FA3E0FD14F0744D
:100D7300952DF582E434058015EF64014E701490CF
:100D83000594E0FF14F074B52FF582E43405F58380
:100D930074FFF0900594E06003021320900357E082
:100DA300640270057F83021312900593E0703D90F7
:100DB3000357E0FF64126005EF641770057F62025A
:100DC3001312900357E0641370057F74021312909B
:100DD3000357E0644170057F89021312900357E0C3
:100DE300644260030213207F62021312900593E0B2
:100DF30064016003021320900357E0FF641260054F
:100E0300EF641770057F68021312900357E06413B1
:100E130070057F04021312900357E0644170057F4D
:100E230068021312900357E0644260030213207FA9
:100E330068021312900356E0640B600B900594E074
:100E430064086003021320900594E0FF7E00C394BE
:100E530006748094804003020F39900357E06401C5
:100E63006003020F18EF64027010900595E0700A9A
:100E7300A3E0700612771E020F91900594E06401BF
:100E8300700CA3E064057006126C53020F91900579
:100E930094E06401700CA3E06406700612658A0294
:100EA3000F91900594E06402702AA3E0640170241A
:100EB300A3E06408701E78587C037D017BFF7A7978
:100EC30079A6FE7F0F1205D47B017A037958127736
:100ED300BF020F91900594E064027032A3E0702E7C
:100EE300A3E0640170281278A8EF6401700E9005E6
:100EF3008E04F07F831268FE7F02800C7F01126FE5
:100F0300377F5F1268FE7F01127881020F917F01A4
:100F130012669880797F651268FEE4900594F090DC
:100F23000593E07003020FE3900593E0640160030F
:100F3300021320021034900357E064017057A3F0AA
:100F43007B017A057995900594E0FD122CD69003E8
:100F530058EFF0F470077F011266988031900358C0
:100F6300E064FE70181278A8EF64017010FF126F2E
:100F7300377F601268FE7F011278818011900358D9
:100F8300E0640170047F1180027F01123E59E490F6
:100F93000594F0804B900357E0640270507B017A14
:100FA300057995900594E0FDE490036BF012412CD4
:100FB300EFF470077F8C1268FE802090058EE0644A
:100FC300017010FF126F377F601268FE7F01127885
:100FD3008180087F0112782A127274E4900594F0DC
:100FE300FE7F207DFF7B017A057995804F900593E5
:100FF300E0704C900357E0FF6412601BEF641770BE
:10100300028014900357E0641370047F04801690E9
:101013000357E0644170047F68800A900357E064DB
:101023004270057F681268FE9005937401F0E4A393
:10103300F0FE7F207DFF7B017A0579B5020BC89016
:101043000593E06401600302132078957C057D011C
:101053007B017A0579B5FE7F08120BA4EF3395E087
:101063004F60030211DE900357E0641370507B015D
:101073007A057995900594E0FD90036B7401F01265
:10108300412C900358EFF0F470057F710211E0904A
:101093000358E0FF7D01125E89EF7017900358E05B
:1010A3009001F4F07F051268FE9001F4E0FF1275E1
:1010B300EE80057F6E1268FE12775E0211E37B01FC
:1010C3007A057995900594E0FD90036B7403F01213
:1010D300412CEFF460057F860211E0900357E06432
:1010E3001270467B017A057995900594E0FD900393
:1010F3006B7401F0124218EF640170077F6E12687F
:10110300FE800D7F051268FE9001F4E0FF1275DE8C
:10111300900687E06401700B74FFF07F0112788101
:101123000211E31277540211E3900357E064417014
:10113300377B017A057995900594E0FDE490036B84
:10114300F0124218EF640170077F6E1268FE800D83
:101153007F051268FE9001F4E0FF1275DE1278A598
:10116300EF703912774A8078900357E06442702E0B
:101173007B017A057995900594E0FDE490036BF08B
:10118300124218EF640170077F6E1268FE800D7FB4
:10119300051268FE9001F4E0FF1275DE80389003BB
:1011A30057E06417703A7B017A057995900594E0CE
:1011B300FD90036B7402F0124218EF640170077F15
:1011C3006E1268FE801012786C7F051268FE900123
:1011D300F4E0FF1275DE12727480057FD31268FE8D
:1011E300026D56900356E0640A60030213201276E0
:1011F3004D900687E06401700874FFF07F01027868
:10120300818076900356E0640B706012764D9003F4
:1012130057E024EB604614604624E26028146042E1
:1012230014604224E66041243C60030213201257F9
:10123300F8EF700A7F051268FE12784280057F0876
:101243001268FE8034125BA7EF700A7F051268FEF6
:1012530012784E80057F081268FE801D026FAC0273
:1012630076D1026FC90276DE026656900356E064B9
:101273000A600302132012764D027274900356E043
:10128300640A700612764D025962900356E07003A9
:10129300021320127830900356E0D39F507F1276CA
:1012A3004D900356E014FF025F5212783C900358AE
:1012B300EFF06496700B12764D900356E0FF025CDC
:1012C300EC900358E064997035900356E0640A701B
:1012D3001812764D1277051278A2EF600280287FEC
:1012E300587E02126D7C0276F8900356E0640B7010
:1012F3002C12764D1277057D017F990265CF127806
:10130300A2EF601912764D02768912788A7F4D0218
:1013130068FE12788A7F2F1268FE12769822900355
:101323008DE0F9A3E0FAA3E09003B8C9F0A3EAF0D3
:10133300A3E9F0A37401F0A37403F0A37496F090EF
:10134300038AE0FBA3E0FAA3E0F99003B5EBF0A373
:10135300EAF0A3E9F0900006120613FF3395E0FECE
:10136300EF24D0FFEE34FFFE7C007D0A120674C02A
:1013730006C007900005120613FF3395E0FEEF2425
:10138300D0FFEE34FFFE7D64120674D0E02FFFD051
:10139300E03EFE900007120613FD3395E0FCED24BA
:1013A300D0FDEC34FFCD2FFFED3E9003BEF0A3EF55
:1013B300F0E49003CAF0A3F09003B8E0FBA3E0FAD3
:1013C300A3E0F912748D9003D5EEF0A3EFF0E4904F
:1013D30003E1F0A3F07A0379E39003BE124A82E4B7
:1013E3009003CAF0A3F09003CAE0FEA3E0FFC39406
:1013F30005EE6480948050639003B5E0FBA3E0FAAC
:10140300A3E0F98F828E83120613FF3395E0FEEF7C
:1014130024D0FFEE34FF9003EDF0A3EFF09003ED43
:10142300E0FEA3E024E3F58274033EF583E0FD9040
:1014330003CBE025E0FF9003CAE033FE74C02FF531
:101443008274033EF583E4F0A3EDF09003CBE00454
:10145300F070939003CAE004F0808B7E007F097DD7
:10146300007B017A0379CC120BC89003D5E070049A
:10147300A3E06408701678CC7C037D019003B8E088
:10148300FBA3E0FAA3E0F9120A018079D39003D613
:10149300E094089003D5E06480948040279003B8DB
:1014A300E0F9A3E0FAA3E09003F2C9F0A3EAF0A302
:1014B300E9F0A3E4F0A37408F07B017A0379CC127A
:1014C3005D55804178CC7C037D019003B8E0FBA39C
:1014D300E0FAA3E0F9120A019003F274FFF0A37497
:1014E30079F0A374C0F09003D5E0FEA3E0FFC374CA
:1014F300089F9003F6F0E49E9003F5F07B017A03D6
:1015030079CC1244B09003CDE0FB3395E0FA90031D
:10151300CCE0FF3395E0FEC3EF9BFFEE9AFE900312
:10152300CEE0F9FD3395E0FCEF2DFFEE3CFEA3E0AA
:10153300FD3395E0FCC3EF9DFFEE9CFEA3E0FD337E
:1015430095E0FCEF2DFFEE3CFEA3E0FD3395E0FCC0
:10155300C3EF9DFFEE9CFEA3E0FD3395E0FCEF2D72
:10156300FFEE3CFEA3E0FD3395E0FCC3EF9DFFEEF1
:101573009C9003D7F0A3EFF0C374309BFFE49AFE73
:10158300E9FD3395E0FCEF2DFFEE3CFE9003CFE049
:10159300F9FB3395E0FAC3EF9BFFEE9AFEA3E0FB62
:1015A3003395E0FAEF2BFFEE3AFEA3E0FB3395E031
:1015B300FAC3EF9BFFEE9AFEA3E0FB3395E0FAEF4D
:1015C3002BFFEE3AFEA3E0FB3395E0FAC3EF9BFF5C
:1015D300EE9A9003D9F0A3EFF0E9FF3395E0FEC351
:1015E300ED9FFFEC9EFE9003D0E0FD3395E0FCEF12
:1015F3002DFFEE3CFEA3E0FB3395E0FAC3EF9BFF28
:10160300EE9AFEA3E0FB3395E0FAEF2BFFEE3AFEF2
:10161300A3E0FB3395E0FAC3EF9BFFEE9A9003DB65
:10162300F0A3EFF0E9FF3395E0FEC374309FCFE4FE
:101633009ECF2DCF3CFE9003D1E0FD3395E0FCC35C
:10164300EF9DFFEE9CFEA3E0F9FB3395E0FAEF2B51
:10165300FFEE3AFEA3E0FB3395E0FAC3EF9BFFEE08
:101663009A9003DDF0A3EFF09003D0E0FF3395E011
:10167300FEC3EF9DFFEE9CFEE9FD3395E0FCEF2DED
:10168300FFEE3CFE9003D3E0FD3395E0FCC3EF9DFA
:10169300FFEE9C9003DFF0A3EFF0E49003CAF0A306
:1016A300F09003CAE0FAA3E0FB25E0FFEA33FE74FF
:1016B300D72FF58274033EF583E0FCA3E0FD74C0ED
:1016C3002FF58274033EF583E0FEA3E0C39DFFEE96
:1016D3009CCF2464CF3400FE7C007D0A1206DBEB32
:1016E30025E0FFEA33FE74C02FF58274033EF583D1
:1016F300ECF0A3EDF09003CBE004F070069003CA86
:10170300E004F09003CAE07004A3E064057092E47F
:101713009003CAF0A3F09003CAE0FEA3E0FFC394D2
:1017230005EE6480948040030217E37C007D02127F
:1017330006DBED4C7027E025E0FF9003CAE033FEA3
:1017430074C02FF58274033EF583A3E025E0FD0505
:1017530082D5820215831582E033FC80289003CB67
:10176300E025E0FF9003CAE033FE74C02FF58274D6
:10177300033EF583E0FEA3E0FF7C007D03120674C5
:10178300AC06AD07EC1201B3C004C005C006C00728
:101793009003F31208AB40000000D007D006D00539
:1017A300D004123659C004C005C006C0079003E137
:1017B300E0FCA3E0FDEC1201B3D003D002D001D0D2
:1017C300001200BD1201EC9003E1EEF0A3EFF090E4
:1017D30003CBE004F070069003CAE004F00217198B
:1017E3009003E1E0FEA3E0FF9003BEE06E7003A36D
:1017F300E06F60030218BA9003C0A3E0FF9003BB3D
:10180300E0FBA3E0FAA3E0F9EF1206409003C2A3C2
:10181300E0FF9003BBE0FBA3E0FAA3E0F990000133
:10182300EF1206529003C4A3E090000212065290F6
:1018330003C6A3E09000031206529003C8A3E090EE
:1018430000041206529003B5E0FBA3E0FAA3E0F90B
:1018530090000512061324D0FF9003BBE0FBA3E026
:10186300FAA3E0F9900005EF1206529003B5E0FBEE
:10187300A3E0FAA3E0F990000612061324D0FF9028
:1018830003BBE0FBA3E0FAA3E0F9900006EF120626
:10189300529003B5E0FBA3E0FAA3E0F9900007122E
:1018A300061324D0FF9003BBE0FBA3E0FAA3E0F907
:1018B300900007EF020652E49003CAF0A3F09003EE
:1018C300CAE0FEA3E0FFC39408EE64809480502432
:1018D3009003BBE0FBA3E0FAA3E0F98F828E83744D
:1018E300FF1206529003CBE004F070D29003CAE0DB
:1018F30004F080CA229003B5EBF0A3EAF0A3E9F069
:1019030090000612061375F00AA4FDACF0900005D2
:1019130012061375F064A42DFFE5F03CFE9000075A
:101923001206137C002FFFEC3E9003BEF0A3EFF0F2
:101933009003B8E0FBA3E0FAA3E0F912748D9003DF
:10194300D3EEF0A3EFF0E4A3F0A3F09003E1F0A350
:10195300F07A0379E39003BE124A82E49003D5F050
:10196300A3F09003D5E0FEA3E0FFC39405EE6480EB
:10197300948050599003B5E0FBA3E0FAA3E0F98FFC
:10198300828E83120613FF9003EDE4F0A3EFF09031
:1019930003EDE0FEA3E024E3F58274033EF583E068
:1019A300FD9003D6E025E0FF9003D5E033FE74C03D
:1019B3002FF58274033EF583E4F0A3EDF09003D694
:1019C300E004F0709D9003D5E004F080957E007FE5
:1019D300097D007B017A0379CA120BC89003D3E017
:1019E3007004A3E06408701678CA7C037D01900339
:1019F300B8E0FBA3E0FAA3E0F9120A018079D390DF
:101A030003D4E094089003D3E0648094804027904B
:101A130003B8E0F9A3E0FAA3E09003F2C9F0A3EA64
:101A2300F0A3E9F0A3E4F0A37408F07B017A03794F
:101A3300CA125D55804178CA7C037D019003B8E0EA
:101A4300FBA3E0FAA3E0F9120A019003F274FFF09A
:101A5300A37479F0A374C0F09003D3E0FEA3E0FF76
:101A6300C374089F9003F6F0E49E9003F5F07B01A6
:101A73007A0379CA1244B09003CBE0FB3395E0FAC2
:101A83009003CAE0FF3395E0FEC3EF9BFFEE9AFE9F
:101A93009003CCE0F9FD3395E0FCEF2DFFEE3CFE27
:101AA300A3E0FD3395E0FCC3EF9DFFEE9CFEA3E0B6
:101AB300FD3395E0FCEF2DFFEE3CFEA3E0FD3395F7
:101AC300E0FCC3EF9DFFEE9CFEA3E0FD3395E0FC3D
:101AD300EF2DFFEE3CFEA3E0FD3395E0FCC3EF9D4D
:101AE300FFEE9C9003D7F0A3EFF0C374309BFFE4A9
:101AF3009AFEE9FD3395E0FCEF2DFFEE3CFE9003EB
:101B0300CDE0F9FB3395E0FAC3EF9BFFEE9AFEA31A
:101B1300E0FB3395E0FAEF2BFFEE3AFEA3E0FB3355
:101B230095E0FAC3EF9BFFEE9AFEA3E0FB3395E04B
:101B3300FAEF2BFFEE3AFEA3E0FB3395E0FAC3EF97
:101B43009BFFEE9A9003D9F0A3EFF0E9FF3395E002
:101B5300FEC3ED9FFFEC9EFE9003CEE0FD3395E0C8
:101B6300FCEF2DFFEE3CFEA3E0FB3395E0FAC3EF61
:101B73009BFFEE9AFEA3E0FB3395E0FAEF2BFFEE1B
:101B83003AFEA3E0FB3395E0FAC3EF9BFFEE9A9096
:101B930003DBF0A3EFF0E9FF3395E0FEC374309F5E
:101BA300CFE49ECF2DCF3CFE9003CFE0FD3395E0F5
:101BB300FCC3EF9DFFEE9CFEA3E0F9FB3395E0FA37
:101BC300EF2BFFEE3AFEA3E0FB3395E0FAC3EF9B66
:101BD300FFEE9A9003DDF0A3EFF09003CEE0FF3326
:101BE30095E0FEC3EF9DFFEE9CFEE9FD3395E0FC1F
:101BF300EF2DFFEE3CFE9003D1E0FD3395E0FCC3F7
:101C0300EF9DFFEE9C9003DFF0A3EFF0E49003D58C
:101C1300F0A3F09003D5E0FAA3E0FB25E0FFEA335D
:101C2300FE74D72FF58274033EF583E0FCA3E0FD39
:101C330074C02FF58274033EF583E0FEA3E0C39DD9
:101C4300FFEE9CCF2464CF3400FE7C007D0A120695
:101C5300DBEB25E0FFEA33FE74C02FF58274033E0D
:101C6300F583ECF0A3EDF09003D6E004F07006905A
:101C730003D5E004F09003D5E07004A3E06405709D
:101C830092E49003D5F0A3F09003D5E0FEA3E0FF28
:101C9300C39405EE648094804003021D557C007D4F
:101CA300021206DBED4C7027E025E0FF9003D5E040
:101CB30033FE74C02FF58274033EF583A3E025E061
:101CC300FD0582D5820215831582E033FC802890BE
:101CD30003D6E025E0FF9003D5E033FE74C02FF573
:101CE3008274033EF583E0FEA3E0FF7C007D0312D4
:101CF3000674AC06AD07EC1201B3C004C005C00600
:101D0300C0079003F31208AB40000000D007D006D1
:101D1300D005D004123659C004C005C006C00790D0
:101D230003E1E0FCA3E0FDEC1201B3D003D002D049
:101D330001D0001200BD1201EC9003E1EEF0A3EF1D
:101D4300F09003D6E004F070069003D5E004F002AF
:101D53001C8B9003E1E0FEA3E0FF9003BEE06E70F6
:101D630003A3E06F6003021E269003C0A3E0FF906D
:101D730003BBE0FBA3E0FAA3E0F9EF1206409003F4
:101D8300C2A3E0FF9003BBE0FBA3E0FAA3E0F9905A
:101D93000001EF1206529003C4A3E0900002120662
:101DA300529003C6A3E09000031206529003C8A307
:101DB300E09000041206529003B5E0FBA3E0FAA3FF
:101DC300E0F9900005120613FF9003BBE0FBA3E0CC
:101DD300FAA3E0F9900005EF1206529003B5E0FB79
:101DE300A3E0FAA3E0F9900006120613FF9003BBE9
:101DF300E0FBA3E0FAA3E0F9900006EF120652908D
:101E030003B5E0FBA3E0FAA3E0F990000712061381
:101E1300FF9003BBE0FBA3E0FAA3E0F9900007EF18
:101E2300020652E49003D5F0A3F09003D5E0FEA39D
:101E3300E0FFC39408EE6480948050249003BBE0D9
:101E4300FBA3E0FAA3E0F98F828E8374FF1206529C
:101E53009003D6E004F070D29003D5E004F080CA7A
:101E630022900356EFF0A205920690035A7403F0F2
:101E73001264FF3005030221EF900356E0FF25E0D3
:101E830024E9F582E43478F583E493FC740193FD4B
:101E930075F002EFA424B5F582E5F03402F583EC86
:101EA300F0A3EDF0900356E0FE9078C993FF900302
:101EB30059F075F002EEA424B5F582E5F03402F58D
:101EC30083E0FCA3E0FD1269D6900356E0FD75F0B4
:101ED30002A42416F582E5F03403F583EEF0A3EFB4
:101EE300F075F002EDA42416F582E5F03403F583D2
:101EF300E0FEA3E0FF900357E0FCA3E0FDD3EF9DDA
:101F0300EE9C50030220DA900356E0FF75F002A422
:101F13002416F582E5F03403F583E0FCA3E0FD909D
:101F23000357E0FAA3E0FBD3ED9BEC9A5003021FA7
:101F3300F675910775F002EFA424B5F582E5F03448
:101F430002F583E0FEA3E0C394FFEE940140030295
:101F53001FF6900356E0FF75F002A424B5F582E561
:101F6300F03402F583E475F00112071175F002EF06
:101F7300A424B5F582E5F03402F583E0FCA3E0FD8B
:101F8300900359E0FF1269D6900356E0FD75F00205
:101F9300A42416F582E5F03403F583EEF0A3EFF005
:101FA30075F002EDA42416F582E5F03403F583E021
:101FB300FEA3E0FF75F002EDA424CDF582E5F03435
:101FC30002F583EEF0A3EFF075F002EDA42416F50D
:101FD30082E5F03403F583E0FEA3E0FF75F002ED44
:101FE300A424F1F582E5F03402F583EEF0A3EFF0DB
:101FF300021F0AE5CDC454072409F9E47F01FEFD5D
:10200300FCA801120860EF24F6FBEE34FFFAED346E
:10201300FFF9EC34FFF8900356E075F002A42416A0
:10202300F582E5F03403F583E0FEA3E0FFE4FCFD75
:10203300D312083C40030220DA900356E0FF75F008
:1020430002A424B5F582E5F03402F583E475F001CA
:1020530012071175F002EFA424B5F582E5F03402FE
:10206300F583E0FCA3E0FD900359E0FF1269D690ED
:102073000356E0FD75F002A42416F582E5F034035F
:10208300F583EEF0A3EFF075F002EDA42416F582CC
:10209300E5F03403F583E0FEA3E0FF75F002EDA461
:1020A30024CDF582E5F03402F583EEF0A3EFF0756D
:1020B300F002EDA42416F582E5F03403F583E0FE87
:1020C300A3E0FF75F002EDA424F1F582E5F03402FC
:1020D300F583EEF0A3EFF0900356E075F002A4242D
:1020E30016F582E5F03403F583E0FEA3E0FF9003E9
:1020F30057E0FCA3E0FDD3EF9DEE9C40030221EFEC
:10210300900356E0FF75F002A42416F582E5F0343F
:1021130003F583E0FCA3E0FD900357E0FAA3E0FBA3
:10212300C3ED9BEC9A40030221EF75910775F00212
:10213300EFA424B5F582E5F03402F583E0FEA3E0D5
:10214300D39400EE940050030221EF900356E0FF76
:1021530075F002A424B5F582E5F03402F58374FF2B
:10216300F5F012071175F002EFA424B5F582E5F03E
:102173003402F583E0FCA3E0FD900359E0FF12690C
:10218300D6900356E0FD75F002A42416F582E5F01F
:102193003403F583EEF0A3EFF075F002EDA42416FB
:1021A300F582E5F03403F583E0FEA3E0FF75F0026A
:1021B300EDA424CDF582E5F03402F583EEF0A3EF30
:1021C300F075F002EDA42416F582E5F03403F583EF
:1021D300E0FEA3E0FF75F002EDA424F1F582E5F043
:1021E3003402F583EEF0A3EFF002210322AB07EBF9
:1021F30025E02440F582E43479F583E493FF740108
:102203009390035ACFF0A3EFF0EB25E02440F5823F
:10221300E43479F583E493FC740193FD907930E41D
:1022230093FF7E00120674EEC4F854F0C868FEEF04
:10223300C4540F48FF90035CEEF0A3EFF075F00277
:10224300EBA42416F582E5F03403F583E0FEA3E066
:10225300FF75F002EBA424CDF582E5F03402F5839B
:10226300E0FCA3E0C39FFFEC9EFE900358F0A3EFB6
:10227300F0C3EE6480948050030223CDA3E0FEA359
:10228300E0FF900358E0FCA3E0FD9FEE6480F8ECD0
:10229300648098401074812BF582E43402F58374D2
:1022A30001F002239990035CE0FEA3E0FFC3ED9FDE
:1022B300EE6480F8EC648098405874462BF582E411
:1022C3003403F583E004F074992BF582E43402F5CA
:1022D30083E4F0743A2BF582E43403F583E4F07479
:1022E3008D2BF582E43402F583E4F074462BF582FA
:1022F300E43403F583E0FF90067BE0FEEFC39E50DA
:102303000302239974462BF582E43403F583E4F046
:10231300806E74462BF582E43403F583E4F07499FC
:102323002BF582E43402F583E004F0743A2BF58252
:10233300E43403F583E4F0748D2BF582E43402F581
:1023430083E4F074992BF582E43402F583E0FF9083
:10235300067DE0FEEFC39E403D74992BF582E43485
:1023630002F583E4F075F002EBA424CDF582E5F0E9
:102373003402F583E0FEA3E0D39400EE940040160C
:1023830075F002EBA424CDF582E5F03402F58374F5
:10239300FFF5F0120711907982E493FE740193FF25
:1023A300C390035BE09FFF90035AE09EFEC390033C
:1023B30059E09F900358E09E400302253E74812B11
:1023C300F582E43402F583E4F02274812BF582E490
:1023D3003402F583E4F090035CE0FEA3E0FFC3E482
:1023E3009FFFE49EFEC3900359E09FEE6480F89044
:1023F3000358E0648098406C74462BF582E4340300
:10240300F583E4F074992BF582E43402F583E4F068
:10241300743A2BF582E43403F583E004F0748D2BD6
:10242300F582E43402F583E4F0743A2BF582E43464
:1024330003F583E0FF90067AE0FEEFC39E500302AC
:10244300253E743A2BF582E43403F583E4F075F00A
:1024530002EBA424CDF582E5F03402F583E475F0B4
:102463000102253B74462BF582E43403F583E4F043
:1024730074992BF582E43402F583E4F0743A2BF576
:1024830082E43403F583E4F0748D2BF582E43402A3
:10249300F583E004F0748D2BF582E43402F583E0D8
:1024A300FF90067CE0FEEFC39E500302253E748D31
:1024B3002BF582E43402F583E4F090035BE025E03E
:1024C300FD90035AE033FCE0A2E713FEA3E0132DD3
:1024D300FFEE3CFEC3E49FFFE49EFED3900359E06E
:1024E3009FEE6480F8900358E0648098502975F05B
:1024F30002EBA42416F582E5F03403F583E0FEA392
:10250300E0FF75F002EBA424CDF582E5F03402F58B
:1025130083EEF0A3EFF02290035CE0FEA3E0FF7CE8
:10252300007D051206DB75F002EBA424CDF582E5F0
:10253300F03402F583EE8FF01207112290038AEB39
:10254300F0A3EAF0A3E9F0E49003AEF0A3F0A3F064
:10255300A3F0A3F0A3F0A3F0FE7F08FD7B017A03B1
:102563007996120BC87E007F087D007B017A037980
:102573009E120BC87E007F087D007B017A0379A63B
:10258300120BC8900390E0FBA3E0FAA3E0F9EA4939
:102593004B700302280B1205FAF460030226BB906A
:1025A3000001120613F460030226BB900002120618
:1025B30013F460030226BB900003120613F46003B6
:1025C3000226BB900004120613F460030226BB909C
:1025D3000005120613F460030226BB9000061206E0
:1025E30013F460030226BB900007120613F4600382
:1025F3000226BB121321900396E0F9F470069003B0
:10260300AEF0FF22900397E0FF7E007C037DE8128B
:102613000674AA06AB07E9FF7E007C277D1012062D
:1026230074EF2BFDEE3AFCA3E075F064A42DFDE5F9
:10263300F03CFCA3E075F00AA42DFFE5F03CFEA3FB
:10264300E07C002FFFEC3EFE9003AFF0A3EFF0C35E
:102653009003B2E09FEE6480F89003B1E064809849
:102663004003022803E49003B3F0A3F090038AE04D
:10267300FBA3E0FAA3E0F99003B3E0FEA3E0FFF5C8
:10268300828E8312061324D0FD749E2FF582740369
:102693003EF583EDF09003B4E004F070069003B3CD
:1026A300E004F09003B3E07004A3E0640870BD900D
:1026B30003AE7401F002280390038DE0F9A3E0FA5E
:1026C300A3E09003B8C9F0A3EAF0A3E9F0A374016F
:1026D300F0A37403F0A374A6F0900390E0FBA3E0CF
:1026E300FAA3E0F91218F89003A6E0F470030228A5
:1026F3000C121321900396E0F4700302280C90034C
:1027030097E0FF7E007C037DE8120674AA06AB0700
:10271300900396E0FF7E007C277D10120674EF2B5A
:10272300FDEE3AFC900398E075F064A42DFDE5F00E
:102733003CFCA3E075F00AA42DFFE5F03CFEA3E00A
:102743007C002FFFEC3E9003AFF0A3EFF09003A7C4
:10275300E0FF7E007C037DE8120674AA06AB0790B7
:1027630003A6E0FF7E007C277D10120674EF2BFD8D
:10277300EE3AFC9003A8E075F064A42DFDE5F03C6F
:10278300FCA3E075F00AA42DFFE5F03CFEA3E07C7A
:10279300002FFFEC3EFE9003B1F0A3EFF0D39003C4
:1027A300B0E09FEE6480F89003AFE06480984050FF
:1027B300E49003B3F0A3F090038AE0FBA3E0FAA351
:1027C300E0F99003B3E0FEA3E0FFF5828E831206E7
:1027D3001324D0FD749E2FF58274033EF583EDF030
:1027E3009003B4E004F070069003B3E004F09003A8
:1027F300B3E07004A3E0640870BD9003AE7401F00D
:102803007E007F087D008009E49003AEF0FE7F0820
:10281300FD900393E0FBA3E0FAA3E0F9120BC89049
:102823000393E0FBA3E0FAA3E0F8AC02AD037B0162
:102833007A03799E7E007F081205D49003AEE0FFF1
:10284300227B01E4FD90036FEBF0A3EAF0A3E9F030
:10285300A3EDF0E4900377F0A3F0A3F0A37403F0E7
:10286300A374E8F0EDD3940074809480500302299C
:10287300A0C2AFE4900377F0900372E0FF90037778
:10288300E0FEC39F502190036FE0FBA3E0FAA3E0B7
:10289300F98E82758300120613FDE4FF126D3090EA
:1028A3000377E004F080D190037A74FFF5F0120708
:1028B3001145F0700302299B7F017E00126D7C900D
:1028C3000668E0C394027480948040DBE49003774D
:1028D300F0900668E0FF900377E0FEC39F506274B8
:1028E300522EF582E43406F583E0FD644B6022ED5D
:1028F3006449601DED64426018ED64466013ED6445
:1029030052600EED644D6009ED644A6004EDB471EC
:1029130028EDB44A07900379EEF08025EEFDC3EF6E
:102923009DFFE49400FEC3EF9402EE648094804024
:1029330008900377E0900379F0900377E004F08048
:1029430090900379E0900377F0900668E0FF90039E
:1029530077E0FEC39F4003022A8D74522EF582E472
:102963003406F583E0FF900373E0FBA3E0FAA3E0F2
:10297300F9900378E0FEF582758300EF120652901A
:102983000376E0146E7003022A8D900378E004F05E
:10299300900377E004F080B1D2AF022A98C2AF90DF
:1029A300037A74FFF5F012071145F07003022A96BB
:1029B3007F017E00126D7C900668E0C394027480F0
:1029C300948040DBE4900377F0900668E0FF900387
:1029D30077E0FEC39F506274522EF582E43406F50D
:1029E30083E0FD644B6022ED6449601DED64426049
:1029F30018ED64466013ED6452600EED644D60099A
:102A0300ED644A6004EDB47128EDB44A079003798C
:102A1300EEF08025EEFDC3EF9DFFE49400FEC3EFCF
:102A23009402EE648094804008900377E0900379E9
:102A3300F0900377E004F08090900379E0900377BF
:102A4300F0900668E0FF900377E0FEC39F503B746D
:102A5300522EF582E43406F583E0FF900373E0FB26
:102A6300A3E0FAA3E0F9900378E0FEF58275830012
:102A7300EF120652900376E0146E600E900378E036
:102A830004F0900377E004F080B7E4900668F0D296
:102A9300AFFF22D2AF7F00227B007A007908900338
:102AA3008EE4F0A3740FF0E4FF90038AEFF0A3EB3E
:102AB300F0A3EAF0A3E9F07F0912781890038AE003
:102AC300147003022BA624FE7003022C73240360EC
:102AD30003022CD09003937401F0A37400F0A37449
:102AE30000F0A37401F0A374F4F0E4FF127812E48D
:102AF300FF126F8FE4900390F0A3F090038EE0FE3B
:102B0300A3E0FFC3900391E09F900390E09E5037B2
:102B1300E0FCA3E0FD90038BE0FBA3E0FAA3E0F964
:102B23008D828C83120613FBE4FF1258EA90039202
:102B3300EFF070037F0122900391E004F070BC90EA
:102B43000390E004F080B4E4900390F0A3F09003CA
:102B530096E0FEA3E0FFC3900391E09F900390E013
:102B63009E4003022CD3E0FEA3E0FF2418FDE43EC5
:102B7300FC900393E0FBA3E0FAA3E0F98F828E833A
:102B8300120613FBE4FF1258EA900392EFF070036E
:102B93007F0122900391E004F070B3900390E0046E
:102BA300F080AB900393E4F0A37400F0A37408F0F7
:102BB300A3E4F0A3740FF0E4FF127812E4FF126FA2
:102BC3008FE4900390F0A3F0900396E0FEA3E0FF60
:102BD300C3900391E09F900390E09E5037E0FCA3E5
:102BE300E0FD900393E0FBA3E0FAA3E0F98D828C70
:102BF30083120613FBE4FF1258EA900392EFF0707E
:102C0300037F0122900391E004F070BC900390E0F5
:102C130004F080B4E4900390F0A3F090038EE0FE00
:102C2300A3E0FFC3900391E09F900390E09E4003D5
:102C3300022CD3E0FEA3E0FF2418FDE43EFC900346
:102C43008BE0FBA3E0FAA3E0F98F828E83120613D5
:102C5300FBE4FF1258EA900392EFF070037F012226
:102C6300900391E004F070B3900390E004F080AB24
:102C73007F011278127F01126F8FE4900390F0A30B
:102C8300F090038EE0FEA3E0FFC3900391E09F90DA
:102C93000390E09E503AE0FCA3E0FD90038BE0FB41
:102CA300A3E0FAA3E0F98D828C83120613FB7F0164
:102CB3001258EA900392EFF070037F012290039180
:102CC300E004F070BC900390E004F080B47F012234
:102CD3007F0022900367EBF0A3EAF0A3E9F0A3EDF2
:102CE300F0E4A3F0A3F0900377F0A374FFF0E49073
:102CF300036BF090036BE0FFC39464748094804093
:102D030003022DEC75F005EFA42404F582E5F034FD
:102D130000F583E0F47003022DE37E007F087DFF5E
:102D23007B017A03796F120BC890036BE075F00592
:102D3300A42400F9740035F0FA7B01C00390038DDD
:102D4300EBF0A37403F0A3746FF0D00312540C9050
:102D53000377EFF0E490036DF0900377E0FF9003C7
:102D63006DE02FFFE433FE90036AE0FDD3EF9D7423
:102D730080F86E98505EE490036EF0900377E0FF66
:102D830090036EE0FEC39F5037EEFF90036DE02F7C
:102D9300FFE433FE900367E0FBA3E0FAA3E0F98FBF
:102DA300828E83120613FF90036EE0246FF582E494
:102DB3003403F583E0B5070890036EE004F080BBAD
:102DC300900377E0FF90036EE06F600890036DE07F
:102DD30004F08085900377E0FF90036EE06F600955
:102DE30090036BE004F0022CF690036BE0C3946451
:102DF300748094805007E0FF9001F4F022E4900384
:102E030089F0FE7F087DFF7B017A037979120BC875
:102E130090038D7401F0A37403F0A37479F07B0124
:102E23007A00790012540C900377EFF0E490036B6F
:102E3300F090036BE0FFC394087480948050757422
:102E4300792FF582E43403F583E0F490036B700E7D
:102E5300E02479F582E43403F583E4F0800EE02482
:102E630079F582E43403F583E02430F0900367E0DE
:102E7300FBA3E0FAA3E0F990036BE0FFF58275830F
:102E830000120613FEF4700E746F2FF582E4340300
:102E9300F583E4F0801590036BE0FFEE2430FE74BD
:102EA3006F2FF582E43403F583EEF090036BE004B7
:102EB300F0022E3490038D7401F0A37403F0A37415
:102EC30079F0A3E4F0A37400F0A3740FF0A37401EA
:102ED300F0A37403F0A37481F07B017A03796F127A
:102EE300253F900389EFF0D39400748094804019B8
:102EF300780F7C007D007B017A0379817E007F0857
:102F03001205D4122A9B7FFE227FFF22C101C10337
:102F1300C102C10041035200420666000041066837
:102F23000041063A004106510041063B0054063D6C
:102F3300000000000000000000000000000000008E
:102F43000000000041063C00420685000041068760
:102F5300FF41068803011700011900011800011A37
:102F63000041059400410593FF011CFF011BFF4134
:102F7300058F0041058E00410590004105910041F8
:102F830005920041058D00609404AF0223000327DE
:102F9300000423000725000826000A27000D23004C
:102FA3000F25000824001627001E27002023001FDA
:102FB30027002823002B24002C24002D2400514219
:102FC300524325005146524925005144524525009C
:102FD300514852472500514A524B25005133523430
:102FE300533525005136523853392500513A523C56
:102FF300533D2500513E52405341250006270051C1
:10300300422500513052312500513A523C2500519E
:10301300305232533354345535565D576125004190
:1030230004A80042049F00004204A100004204AA35
:10303300000041049E004104A9004104AC00410486
:1030430005004104AD004104AE0042049C0000436E
:1030530004A50000006082041A01030000000107B8
:1030630000000001080000000109000000010BFF3F
:103073007790010CFF7151010CFF716A010CFF7114
:1030830083010A0000000A04FF6E99020800000091
:103093000209000000020BFF7790030DFF6FAC03E2
:1030A3000FFF76D10310FF77680747FF6FC9074902
:1030B300FF76DE074AFF77860882FF76EB096A0010
:1030C300000009840000006A69FF70ED6A68FF71FF
:1030D30006846FFF711F8470FF71385E061C01E662
:1030E30002B303BB05C307CB0895099B0ADA06E0C5
:1030F3006AA76AA783A184AD9EFFFFFF4C05ED007D
:1031030000000000000000000000004106820042B1
:10311300068300004101F4FF41066A004106710085
:1031230042066F000044066B9607999B41066900AF
:10313300420680000041067E0041067F0000AB0787
:10314300EBC3942074809480500AE47F01FEFDFC5D
:10315300A803800BE47F01FEFDFCEB24E0F9F812E9
:10316300086090035412089FEBC3942074809480EA
:103173005003023239759651900354A3A3A3E0FF81
:10318300EF4297759652900354E0FCA3E0FDA3E051
:10319300FEA3E0FF780812084DEF4297EBC3942497
:1031A30074809480500E900354A3A3A3E0540FFFA4
:1031B300EF42EA22EBC3942674809480501B900361
:1031C30054E0FCA3E0FDA3E0FEA3E0FF78041208B3
:1031D3004DEF5403FFEF42EB22EBFFC3942C7480BB
:1031E30094805037EF642A6005EF642B70129003CC
:1031F30054E0FCA3E0FDA3E0FEA3E0FF780480100D
:10320300900354E0FCA3E0FDA3E0FEA3E0FF7806F7
:1032130012084DEF54CFFFEF42EC22900354E0FC31
:10322300A3E0FDA3E0FEA3E0FF780C12084DEF54EA
:103233000FFFEF42EE22759626900354A3A3A3E05B
:10324300FFEF4297759627900354E0FCA3E0FDA39C
:10325300E0FEA3E0FF780812084DEF540FFFEF42A2
:1032630097759628900354E0FCA3E0FDA3E0FEA32A
:10327300E0FF781012084DEF42977596299003549A
:10328300E0FCA3E0FDA3E0FEA3E0FF781812084DE5
:10329300AB07EB4297900354E0FCA3E0FDA3E0FEF1
:1032A300A3E0FF7802120860EF54FCFFEF42EB90BB
:1032B3000354E0FCA3E0FDA3E0FEA3E0FF780212C9
:1032C300084DEF5430FFEF42EC900354E0FCA3E0D1
:1032D300FDA3E0FEA3E0FF780412084DEF54F0FFD6
:1032E300EF42EE900354E0FCA3E0FDA3E0FEA3E075
:1032F300FF780C12084DEF54F0FFEF42EF900354A8
:10330300E0FCA3E0FDA3E0FEA3E0FF781412084D68
:10331300EF540FFFEF42F2EB42F722900356EFF028
:10332300E4A3F0A3F0127884A3EFF06470700B129F
:10333300788A7F2F1268FE027698900359E06460C2
:1033430070057F01127881900359E0FF7E006401CC
:10335300600DEF64326008EF643360030234E0EF22
:1033630064544E700B12783CEF640760030234E040
:1033730012788A127516EF640170087F2E1268FEA8
:10338300027866900359E064547037900593E0FF28
:10339300126121900357EFF060030234E09005932C
:1033A300E07003023473126F19900357EFF0700A41
:1033B3007D017F071265CF0234C47FD31268FE02FA
:1033C30034C47B017A037958126850900357EFF0A5
:1033D3006003023456900359E0640170057F0402D0
:1033E3003E59900359E0643270057F190234DD9031
:1033F3000359E0643360030234E0900593E0FF1265
:103403006121900357EFF07045900593E0700280BF
:103413005F126F19900357EFF0702CA3E0FF125A5D
:10342300C2900357EFF07015A3E09001F4F07F050D
:103433001268FE9001F4E0FF12760E80057F6E1293
:1034430068FE12777C80057FD31268FE80737F7AD3
:103453000234DD900359E064327070900593E0FF0D
:10346300126121900357EFF0705D900593E0700CAB
:103473007F181268FE9005937401F022126F199061
:103483000357EFF07036FF1274CA900357EFF070D2
:103493000F7F051268FE9001F4E0FF1275FE8005B0
:1034A3007F6E1268FE900687E06401700A74FFF075
:1034B3007F01127881800A12777280057FD31268A8
:1034C300FEE4900593F0227F7A800F900359E06425
:1034D3000170057F040266987F801268FE22EFB4B4
:1034E300070040030236589034F1F8282873023558
:1034F3000602352D02355302359E0235EC02360F96
:10350300023632EB7009ED42EA7596170235A7EBE6
:1035130064017009ED42EA75961702364BEB6402BB
:103523006003023658EDF452EA22EB7008ED42EBE9
:10353300759618806FEB64017009ED42EB75961870
:1035430002364BEB64026003023658EDF452EB2271
:10355300EB7008ED42EC7596198049EB6401700934
:10356300ED42EC75961902364BEB64027015EDF4DF
:1035730052ECED54307003023658759625C4540F3F
:1035830002363CEB64036003023658EDF452EC75EB
:103593009625ED5430C4540F429722EB700AED4246
:1035A300EE75961BED02363CEB64017009ED42EEBD
:1035B30075961B02364BEB64027015EDF452EEED7B
:1035C300543070030236587596251313543F80699F
:1035D300EB64036003023658EDF452EE759625ED65
:1035E30054301313543F429722EB7009ED42EF75A9
:1035F300961CED8044EB64017008ED42EF75961C58
:103603008046EB6402704EEDF452EF22EB7009ED4D
:1036130042F275961DED8021EB64017008ED42F2D4
:1036230075961D8023EB6402702BEDF452F222EBAE
:10363300700BED42F775961EEDF4529722EB640181
:10364300700AED42F775961EED429722EB64027005
:1036530004EDF452F7229003EF12089FE4FFFE7D7E
:10366300807C3F9003EFE0F8A3E0F9A3E0FAA3E046
:10367300FB12038D70069003EF0237B39003EFE064
:10368300FCA3E0FDA3E0FEA3E0FF12026DFBA3E0B9
:10369300FCA3E0FDA3E0FEA3E0FF12026DFFB40173
:1036A30008E4FFFE7D807C3F22EF64046029EB6425
:1036B300046024EBB40130E4FFFEFDFC9003F3E06F
:1036C300F8A3E0F9A3E0FAA3E0FB12038D6008403E
:1036D30006E4FFFEFDFC229003F31208ABFFFFFF9D
:1036E300FF9003F30237B3E49003F7F0A3F0FFFE78
:1036F300FDFC9003EFE0F8A3E0F9A3E0FAA3E0FBFD
:1037030012038D505F9003F3E0FCA3E0FDA3E0FE02
:10371300A3E0FF1201EC9003F7EEF0A3EFF0FDCC72
:10372300EECCEC1201B3C8ECC8C9EDC9CAEECACBE2
:10373300EFCB9003F3E0FCA3E0FDA3E0FEA3E0FFE7
:103743001200B9E4FBFAF9F812038D708A9003EFC3
:10375300E0FCA3E0FDA3E0FEA3E0FF120406900358
:10376300EF12089F9003EFE0FCA3E0FDA3E0FEA3AC
:10377300E0FF123A559003F3E0F8A3E0F9A3E0FA6F
:10378300A3E0FB120287124F439003F312089F90AA
:1037930003F8E030E0179003F3E0FCA3E0FDA3E0BF
:1037A300FEA3E0FF1204069003F312089F9003F3B5
:1037B300E0FCA3E0FDA3E0FEA3E0FF229003697415
:1037C300FFF0786C7C037D01FB7A7979BB7E007F07
:1037D300031205D490036A7442F0A37464F07B016E
:1037E3007A03796A7D021262667F2C7E01126D7CF8
:1037F3009003737401F0A37403F0A3746CF0A374C7
:1038030003F07B017A03796AE4FD12284890036C84
:10381300E064427047A3E024BB601514602924F9D7
:10382300601624FB6023240660030238ED7FFF2229
:103833007F081268FE7FFF229006877401F07F6283
:103843001268FE7F12800F80759006877401F07FE7
:10385300171268FE7F321278810238ED90036CE014
:10386300FF644D600AEF64466005EF645270789020
:10387300036EE0FB90036D7005E024D0800CE02420
:10388300D075F00AA4FFEB24D02F9001F4F090033D
:103893006CE024BA602824F460282405704C90015D
:1038A300F4E0FF7D01125E89900369EFF070317FD0
:1038B300051268FE9001F4E0FF1275EE802C7F087C
:1038C30080209001F4E0FF125AC2900369EFF07078
:1038D3000F7F051268FE9001F4E0FF12760E800A56
:1038E3007F6E1268FE80037F01227F00221278849C
:1038F3009003FEEFF09004AD7401F090049EE06439
:103903000170309004A2E004F070069004A1E0047A
:10391300F09004AAE0FEA3E0FFC39004A2E09F900E
:1039230004A1E09E400D90049E7402F0E49004A173
:10393300F0A3F09004A9E06401701B9004ACE004D0
:10394300F0E0C3940A74809480400B9004A974023D
:10395300F0E49004ACF09004AEE0D394007480944F
:1039630080402A90049DE004F0700690049CE004DB
:10397300F090049CE0FEA3E0FFE4FCFD7B587A0298
:10398300F9F8D31208265005E49004AEF012630050
:10399300EF7003023A199003FEE0FF64616077EF72
:1039A3006460607290049EE06401606A12701EEFAE
:1039B30070641274DEEF705E9003FFF09004A0E079
:1039C30004F0700690049FE004F09003FEE0FF64AF
:1039D300126014EF6413600FEF6441600AEF643206
:1039E3006005EF64337011D39004A0E094C8900491
:1039F3009FE094004017800FD39004A0E09464905C
:103A0300049FE0940040069003FF7401F09003FFCD
:103A1300E0600A026429E490049FF0A3F0223E923E
:103A230048DA3ECCCCCD3F2AAAAB400000003F8011
:103A330000003F9837F03FB504F33FD744FC3E31D5
:103A430072173EB172173F0515913EDE5BD9D20462
:103A53008002C204EDD2E7F8CD33EC3304700BBD22
:103A6300800592D502026202025840FBD31460F231
:103A7300F5F07C3FEE7A00C39496C8948B40230AFA
:103A8300C89469C8941A401A0AC89468C8941F4015
:103A9300110AC8945AC89425400805F07A00CDC28B
:103AA300E7CDC0F09003F912089FEA2323C0E02476
:103AB30031F582E4343AF58312088F1200BDECC06D
:103AC300E0EDC0E0EEC0E0EFC0E01208739003F950
:103AD3001208831200B9D0E0FBD0E0FAD0E0F9D0AD
:103AE300E0B2E7F812041A9003F912089F903A2102
:103AF30074031204B79003F9120883120287D0E00B
:103B0300600F243DF582E4343AF58312088F1200E6
:103B1300BD9003F912089FD0E0C3947FFDE49400A5
:103B2300FC1201B37B187A727931783F12028790C5
:103B330003F91208831200BD30040B7BD97A5B7939
:103B4300DE783E12028722E4FEEEC39F4003023C6E
:103B53005DE4FCECC39E4003023C09ED75F00AA44E
:103B63002443F582E43405F583E5822CF582E435BC
:103B730083F583E0FBED75F00AA42443F582E43476
:103B830005F583E5822EF582E43583F583E0F96B51
:103B93007057ED75F00AA42443F582E43405F583E8
:103BA300E5822EF582E43583F583E004F0ED75F0CC
:103BB3000AA42443F582E43405F583E5822EF582D5
:103BC300E43583F583E0640A701AED75F00AA424E2
:103BD30043F582E43405F583E5822EF582E43583EB
:103BE300F583E4F0E4FC023B56ED700A74682EF5AD
:103BF30082E43405800874832EF582E43405F5836A
:103C0300E9F00C023B56EE704DED7024ED75F00AB1
:103C1300A42443F582E43405F583E5822EF582E49A
:103C23003583F583E0FC74682EF582E43405802245
:103C3300ED75F00AA42443F582E43405F583E582A7
:103C43002EF582E43583F583E0FC74832EF582E45C
:103C53003405F583ECF00E023B4C7F0022900367A2
:103C6300EBF0A3EAF0A3E9F0E4A3F0A3F0A3F0A33D
:103C7300F0A3F0A3F0A3F0900367E0FBA3E0FAA3A3
:103C8300E0F990000112061375F00AA4FDACF09060
:103C93000367A3A31205FA75F064A42DFFE5F03CB6
:103CA300FE9000021206137C002FFFEC3E90036D82
:103CB300F0A3EFF0900367A3A3900001120613751E
:103CC300F00AA4FDACF0900367A3A39000021206D0
:103CD3001375F064A42DFFE5F03CFE1205FA7C0099
:103CE3002FFFEC3E90036FF0A3EFF0E4FBEBFF7EBE
:103CF30000C3940A748094805053C3740A9FFDE4F4
:103D03009EFC90036DE0FEA3E0FF120686AF0590D4
:103D1300036BEFF0FAEBFFC3740A9FFDE49400FC1E
:103D230090036FE0FEA3E0FF120686AF0590036CDD
:103D3300EFF074432BF582E43405F583EAF0744D18
:103D43002BF582E43405F583EFF00B80A0E4FD7FCF
:103D53000A123B4A7D017F0A123B4A7F00227B0005
:103D63007A007908900358E4F0A3740FF0E4FF128B
:103D73003F4FAF08EF64016005EF64027076E49093
:103D83000353F07B017A00790090035804F0A37485
:103D9300F4F07F01123F4F7B017A0179F5900358CC
:103DA300E4F0A3748CF07F03123F4FD3E50B940030
:103DB300748094805003023E58900353E0FFFD7CCF
:103DC30000C3946474809480501A75F005EFA424A2
:103DD30004F582E5F03400F583E06008900353E0D6
:103DE30004F080D5C3ED9464EC648094804066E471
:103DF300F50B80567E017FF47DFF7B017A0079000D
:103E0300120BC87B017A00790090038E7401F0A332
:103E130074F4F07F01122AAC7E007F8C7DFF7B015E
:103E23007A0179F5120BC87B017A0179F590038E3B
:103E3300E4F0A3748CF07F03122AAC7508017509B2
:103E430001E4F50AF50BF50CF50DFB7A0079089002
:103E5300038E122AA522900367EFF01278A8EF646D
:103E630001702F900367E0FF54107026EF64086021
:103E7300217F081268FE900367E024FE600E24FE93
:103E8300600D24036003023F4E02785A02786002F9
:103E93007866E49004AEF012789CEF640170319080
:103EA3000367E0FFFD64086027EF54107022EDF410
:103EB300FFE4F4FE9004A8E0FDFBEF5B6004E4F094
:103EC300800E900367E04D9004A8F07F4B0268FEDC
:103ED3007F521278811278AB7BFF7A7479787F03F3
:103EE3007E001264B8900367E014602324FD602908
:103EF30024FC602F24F6600D04702B9001F4E0FF86
:103F030012706E80219001F4E0FF12708880179088
:103F130001F4E0FF12761E800D9001F4E0FF1276AB
:103F23002E8003127854900688E0601F64017003AA
:103F330002756C900688E064027002800B9006881C
:103F4300E06403700612756C12757D22900355EBC5
:103F5300F0A3EAF0A3E9F0EF14606024FE7003021B
:103F630040142403600302403FE4FF127812E490FC
:103F7300035AF0A3F0900358E0FEA3E0FFA3E0FC94
:103F8300A3E0FDC39FEC9E400302403FE4FF126E9B
:103F9300DA900355E0FBA3E0FAA3E0F990035AE0BB
:103FA300FCA3E0F5828C83EF12065290035BE004DE
:103FB300F070C290035AE004F080BAE4FF12781262
:103FC300E490035AF0A3F0900358E0FEA3E0FFA3AC
:103FD300E0FCA3E0FDC39FEC9E5061ED2418FDE4DB
:103FE3003CFCE4FF126EDA900355E0FBA3E0FAA376
:103FF300E0F990035AE0FCA3E0F5828C83EF12060C
:104003005290035BE004F070BE90035AE004F0802A
:10401300B67F01127812900355E0FBA3E0FAA3E008
:10402300F9E4900360F0A3F0900358E0FFA3E0905D
:104033000362CFF0A3EFF07D0112530422E4F99061
:104043000358F0A3F0FEEEC3940C74809480506088
:1040530074E52EF582E43402F583E06050EE25E04A
:104063002416F582E43403F583E0FCA3E0FDEE259A
:10407300E024CDF582E43402F583E0FAA3E0C39DA6
:10408300FDEA9CFC900356F0A3EDF0D3900359E0B6
:104093009DEC6480F8900358E0648098500F90037F
:1040A30056E0FDA3E0A3CDF0A3EDF0A9060E8096A4
:1040B300900309E069606FE0FE25E02416F582E4D1
:1040C3003403F583E0FCA3E0FDEE25E024CDF58287
:1040D300E43402F583E0FAA3E0C39DFEEA9C900377
:1040E30056F0A3CEF0900356E0FEA3E0FFC3900387
:1040F30059E09FFF900358E09EFE900356F0A3EF14
:10410300F0E925E02440F582E43479F583E493FC77
:10411300740193FDD3EF9DEC6480F8EE64809840C6
:1041230005900309E9F0AF0122900367EBF0A3EADE
:10413300F0A3E9F0A3EDF0E490036CF09003717445
:10414300FFF07E007F04FD7B017A03796D120BC8BB
:1041530090036AE0FD9003767401F0A37403F0A367
:10416300746DF0900367125701E4FFEFC394647416
:10417300809480506475F005EFA42404F582E5F083
:104183003400F583E0F4604EE490036CF090036C2C
:10419300E0FD7C00C39404748094805033E0FE758A
:1041A300F005EFA42400F582E5F03400F583E58201
:1041B3002EF582E43583F583E0FB746D2EF582E4FE
:1041C3003403F583E0B5030890036CE004F080BD8D
:1041D300ED64044C60030F8092EFC3946474809485
:1041E30080502675F005EFA42404F582E5F0340031
:1041F300F583E0FE90036BE0FDEE6D6005ED640377
:104203007007900371EFF0800690037174FFF090D4
:104213000371E0FF22900367EBF0A3EAF0A3E9F058
:10422300A3EDF0E490036CF090036BE0FF7E00706D
:1042330004A3F0803CEF64024E700790036C04F01B
:10424300802F90036C7402F090036CE0FFC39464BE
:1042530074809480501B75F005EFA42404F582E567
:10426300F03400F583E0F4600890036CE004F08020
:10427300D790036CE0FFC3946474809480507A9069
:1042830001F4EFF07E007F047DFF7B017A03796DFB
:10429300120BC890036AE0FD9003767401F0A374D7
:1042A30003F0A3746DF090036712570190036CE061
:1042B30075F005A42400F9740035F0A801FC7D0114
:1042C3007B017A03796D7E007F041205D490036B22
:1042D300E0FFA3E075F005A42404F582E5F03400C3
:1042E300F583EFF07B017A00790090038E7401F07F
:1042F300A374F4F07F01022AAC7F012290063AE016
:1043030064017071A3E0700D7D047F051268127D56
:1043130001E4FF800C90063BE0640270097D047F9A
:1043230005126545800F90063BE0C39404748094A6
:10433300804002B2F890063BE004F0900651E0257D
:10434300E0FFE433FEEF2406FFE43EFE90063BE08D
:10435300C39FEE6480F874809850030243E2E4F054
:104363007D047F051265457D01E4FF1265459006D6
:104373003A7404F02290063AE06403704BA3E070B1
:10438300057D01FF801D90063BE0640170097D04FB
:104393007F05126812800F90063BE0640370077D6F
:1043A300047F0512654590063BE004F0E0C39404E6
:1043B300748094804029E4F07D047F051265457D77
:1043C30001E4FF126545801190063AE06404700F22
:1043D3007D02FF12550CEF700690063A7402F0222C
:1043E300E4FFFEEEC3940A74809480502D74432E30
:1043F300F582E43405F583E0601D640960197443B4
:104403002EF582E43405F583E0FD74572FF582E43D
:104413003405F583EDF00F0E80C9E4FFFEEEC3947F
:104423000A74809480502D744D2EF582E43405F582
:1044330083E0601D64096019744D2EF582E4340530
:10444300F583E0FD74722FF582E43405F583EDF016
:104453000F0E80C9E4FFFEEEC3940A74809480506B
:104463001E74432EF582E43405F583E0FD600D747C
:104473005F2FF582E43405F583EDF00F0E80D8E469
:10448300FFFEEEC3940A74809480501E744D2EF583
:1044930082E43405F583E0FD600D747A2FF582E440
:1044A3003405F583EDF00F0E80D87F00229003EFE3
:1044B300EBF0A3EAF0A3E9F0E49003F7F0A3F0D361
:1044C3009003F6E094009003F5E064809480500339
:1044D3000245699003EFE0FBA3E0FAA3E0F9900340
:1044E300F7E0FEA3E0F5828E8312061360109003BB
:1044F300F8E004F070DD9003F7E004F080D590035A
:10450300F2E0FBA3E0FAA3E0F91205FA603E9003A0
:10451300F2A3E475F001120727A9F0FA1205FAFFD6
:104523009003EFE0FBA3E0FAA3E0F99003F7E4754F
:10453300F00112072785F082F583EF1206529003EC
:10454300F574FFF5F012071145F070B29003EFE038
:10455300FBA3E0FAA3E0F99003F7E0FEA3E0F58202
:104563008E83E41206529003EFE0FBA3E0FAA3E08C
:10457300F922E4900357F0C20112001EE49003569F
:10458300F0900356E0C3940C748094804003024679
:104593002E30030343AD1020000575910780F8C248
:1045A30000AFACEFFEADABEDFF900356E0FD25E0B1
:1045B3002416F582E43403F583EEF0A3EFF0EDC3A4
:1045C300940B74809480502DED25E024B7F582E49C
:1045D3003402F583E0FEA3E0F5CA53CC7FEE540129
:1045E300C313E41342CC53CCC0ED9078CA93543F29
:1045F30042CC75C901900356E0FF1221F090035697
:10460300E0FF124D30900356E0FF125C1830010FAB
:10461300900309E0F47008900356E0900309F0203A
:104623000212900356E004F0024584200106900331
:104633000974FFF022C20120046D9078C3E493FD56
:10464300700D90798693C313FF74019313801575CE
:10465300F002EDA42484F582E5F03479F583E49344
:10466300FF740193900354CFF0A3EFF0E49003534E
:10467300F0900353E0C3940C748094805071E0FF76
:1046830024E5F582E43402F583E4F0C20590035493
:10469300E0FDA3E0900357CDF0A3EDF0121E64906C
:1046A3000353E004F080CA9078C6E493FD700D9044
:1046B300798693C313FF74019313801575F002ED8C
:1046C300A42484F582E5F03479F583E493FF74013F
:1046D30093900354CFF0A3EFF0D205900354E0FF7F
:1046E300A3E0900357CFF0A3EFF0E4FF121E649012
:1046F300030974FFF022900379EBF0A3EAF0A3E936
:10470300F0E4900380F07F2EFE1274A253FBFDE4CD
:10471300F5FAF5FE7596585397EF53FBEF43FC40BC
:10472300FF90037FE0FEEFC39E5064E4A3F074FFA9
:10473300FDFCED1DAA0470011C4A6029E5FB30E471
:10474300F1E5FB548070EB900379E0FBA3E0FAA35F
:10475300E0F98F82758300E5FA12065253FBEF905E
:1047630003807401F053FB7F53FBDFE5FE601D9074
:104773000379E0FBA3E0FAA3E0F98F82758300E5F8
:10478300FA12065290038074ACF080030F809253A8
:10479300FCBF43FB02900380E064AC700F90037C8A
:1047A300E0FBA3E0FAA3E0F9EF120640900380E0F8
:1047B300FF2253CCBFA204E433C43333544042CC6E
:1047C30030040302486DE4900358F0900689E0FF3B
:1047D300900358E0C39F400302486DE0FF75F00269
:1047E300A424B5F582E5F03402F583E0FCA3E0FDF3
:1047F300EF9078C993FF1269D6900358E0FD75F0E6
:1048030002A42416F582E5F03403F583EEF0A3EF5A
:10481300F075F002EDA42416F582E5F03403F58378
:10482300E0FEA3E0FF75F002EDA424CDF582E5F0F0
:104833003402F583EEF0A3EFF075F002EDA4241635
:10484300F582E5F03403F583E0FEA3E0FF75F002A3
:10485300EDA424F1F582E5F03402F583EEF0A3EF45
:10486300F0900358E004F00247CE22900360EBF08F
:10487300A3EAF0A3E9F0900367EFF0A37470F0E408
:10488300FF900366E0FEEFC39E5023900360E0FBBE
:10489300A3E0FAA3E0F98F82758300120613FE7476
:1048A300692FF582E43403F583EEF00F80D37B01A7
:1048B3007A037967900366E02402900377F07F011F
:1048C3001267D4900366E0FC2469F582E43403F5AF
:1048D30083EFF0EEFF746A2CF582E43403F583EF83
:1048E300F07B017A037967900366E02404FD124BA1
:1048F300DDEF640160037F012290037C7401F0A368
:104903007403F0A37467F0A37403F0900363E0FBF4
:10491300A3E0FAA3E0F91246F9EF64017F00600215
:104923007F0122900356EBF0A3EAF0A3E9F0785954
:104933007C037D017BFF7A7979A07E007F061205D7
:10494300D47596585397FB7B017A0379591263E127
:10495300EF60037F0122900359E054C0C413135442
:104963000375F003A42404640460037F01227B0124
:104973007A0379597D017F93124E6FEF60037F01B4
:1049830022900356E0FBA3E0FAA3E0F8AC02AD03E8
:104993007B017A0379597E007F051205D490036366
:1049A3007401F0A37403F0A37459F0A37405F09099
:1049B3000356E0FBA3E0FAA3E0F97F9312486EEFFE
:1049C30060037F0122900359E054247F017001FFAB
:1049D3002290035AEBF0A3EAF0A3E9F0E4FFFEEF21
:1049E300C3940A748094805015EF75F00EA424F5D7
:1049F300F582E43401F583E0F460030F80E1EFC353
:104A0300940A7480948050749001F4EFF075F00E62
:104A1300A424F5F582E43401F583EFF075F00EA4D8
:104A230024F6F582E43401F583EDF0E4FEEEC3945D
:104A33000C74809480503190035AE0FBA3E0FAA3F6
:104A4300E0F98E82758300120613FDEF75F00EA454
:104A530024F7F582E43401F583E5822EF582E4350B
:104A630083F583EDF00E80C57B017A0179F5900320
:104A73008EE4F0A3748CF07F03022AAC7F01227BC7
:104A830001E0FCA3E0FD9003EFEBF0A3EAF0A3E960
:104A9300F0A3ECF0A3EDF0E4A3F0A3F09003F4741F
:104AA30013F09003F4E0FD7C00C3940A74809480B7
:104AB300407A9003F2E0FEA3E0FF1206DBAF05901D
:104AC30003F6EFF0D39409748094804004E024F655
:104AD300F09003F6E0FF9003F5E0FD9003EFE0FBB9
:104AE300A3E0FAA3E0F91268C5EF60149003F6E0BF
:104AF30004F0E0D394097480948040D5E4F080D12D
:104B03009003F6E0FF9003EFE0FBA3E0FAA3E0F9E4
:104B13009003F5E0F582758300EF1206529003F5DA
:104B2300E004F09003F4E014F0024AA522786C7CD0
:104B3300037D017BFF7A7979BE7E007F021205D463
:104B430090036A744AF0A37464F07B017A03796A70
:104B53007D021262667FF47E01126D7C9003737492
:104B630001F0A37403F0A3746CF0A37402F07B014F
:104B73007A03796AE4FD12284890036CE0FEB44A94
:104B830008A3E0B445037FFF22EEB44A0E90036D01
:104B9300E0B43007E4900688F0FF2290036CE0B4A1
:104BA3004A0DA3E0B431089006887401F0FF229007
:104BB300036CE0FEB44A0DA3E0B432089006887497
:104BC30002F0FF22EEB44A0F90036DE0B433089075
:104BD30006887403F0FF227FFF22900379EBF0A392
:104BE300EAF0A3E9F0A3EDF07596585397FDE06062
:104BF3000464017023900379E0FBA3E0FAA3E0F9D6
:104C03001205FAF5F953FCC190037CE0FF25E0544B
:104C13003E42FC43FC01806B900379E0FBA3E0FA86
:104C2300A3E0F91205FAF5F9900001120613F5FA5B
:104C330053FCC190037CE0FF25E0543E42FC43FC5F
:104C4300011270027D0290037CE0FEEDC39E50339F
:104C5300ED90037930E014E0FBA3E0FAA3E0F98DD3
:104C630082758300120613F5FA8012E0FBA3E0FAC3
:104C7300A3E0F98D82758300120613F5F912700211
:104C83000D80C31270022290063AE06402600302B0
:104C93004D2C7D02FF12550CEF64016003024D2C75
:104CA30090063DE07013900651F01277D090063CC9
:104CB3007401F0E490063AF022E49003FDF09006CC
:104CC3003A04F090063DE0900651F0E49003FDF0C5
:104CD3009003FDE0FF3395E0FEC3EF9413EE648091
:104CE3009480502B743E2FF58274063EF583E0FFCB
:104CF300601D9003FDE0FD3395E0FC743D2DF582CE
:104D030074063CF583EFF09003FDE004F080C1905E
:104D130003FDE0FF3395E0FE743D2FF58274063EFC
:104D2300F583E4F090063BF0221242FF2274812FB8
:104D3300F582E43402F583E07049742E2FF582E4A2
:104D43003403F583E4F074A92FF582E43402F58388
:104D5300E004F074A92FF582E43402F583E0FE90B9
:104D63007985E493FDEED39D406474A92FF582E425
:104D73003402F583E4F074E52FF582E43402F5831D
:104D8300E4F02274A92FF582E43402F583E4F0748D
:104D93002E2FF582E43403F583E004F0742E2FF50F
:104DA30082E43403F583E0FE907984E493FDEED34B
:104DB3009D401B742E2FF582E43403F583E4F074D5
:104DC300E52FF582E43402F5837401F0D2012275F4
:104DD300962B5397F890035FE05407429753CDF314
:104DE300A3E025E025E0540C42CD53CDFDA3E025FF
:104DF300E0540242CD53CDFEA3E0540142CD53CB48
:104E0300BFA3E0C43333544042CB53CCBFA3E0C46D
:104E13003333544042CC75962B5397C7A3E03333B7
:104E2300335438429753CD8FA3E0C4547042CD53CB
:104E3300CBC0A3E0543F42CB53ADDFA3E0C4335414
:104E43002042AD75962D5397FDE4F5C953F1DF90DC
:104E5300036AE06401701153F6DF900369E0C43321
:104E630054E042F643E6202253E6DF2290035FEF4D
:104E7300F0A3EDF0A3EBF0A3EAF0A3E9F078647CF0
:104E8300037D017BFF7A7979967E007F0A1205D430
:104E930090035FE090036EF0A37420F07B017A032C
:104EA300796E7D02124BDDEF640160037F01229076
:104EB300037C7401F0A37403F0A37478F0A3740566
:104EC300F07B017A03796E1246F9EF64017031FECB
:104ED300EEC39405748094805023746E2EF582E49F
:104EE3003403F583E0FD900361E0FBA3E0FAA3E064
:104EF300F98E82758300ED1206520E80D37F002255
:104F0300EF7F0070027F012233DA929E35B1601188
:104F1300377FE5FE392184893AAEC3FF3C1D955B9B
:104F23003D6358473E75FDF03F3172183F800000E6
:104F3300C2D5020262020258BD80FA50F302025F38
:104F4300ED33EC330460F17B3B7AAA79B8783F12F6
:104F53000287ED33EC3392D5247B5011A2D570DB5D
:104F6300500BED448024045004A2D580CEEFFBEE19
:104F7300FAEDF9ECF81201ECEFF582F404FC1201FE
:104F8300B81200BDC082904F0B74091204C6ED33F2
:104F9300CC33D0F092D525F0A2D57001C313CC1336
:104FA300FD22E4900356F0A3F01274F2EF64017053
:104FB30002FF2290061AE075F003A424F9F582E4B7
:104FC3003405F583E012064090061AE0FF75F003FE
:104FD300A424FAF582E43405F583E0900001120677
:104FE30052EF75F003A424FBF582E43405F583E066
:104FF30090000212065290061AE0FF75F003A424F3
:10500300F9F582E43405F58374FFF0EF75F003A43A
:1050130024FAF582E43405F58374FFF0EF75F003A9
:10502300A424FBF582E43405F58374FFF01275289C
:1050330090061AEFF07F01229078C8E493900689D6
:10504300F0E4900353F0900689E0FF900353E0FEF1
:10505300C39F5077E0FF25E024E9F582E43478F537
:1050630083E493FC740193FD75F002EFA424B5F57A
:1050730082E5F03402F583ECF0A3EDF0EE9078C90D
:1050830093FF123141900353E0FF75F002A42416FD
:10509300F582E5F03403F583E4F0A3F075F002EF55
:1050A300A424CDF582E5F03402F583E4F0A3F07592
:1050B300F002EFA424F1F582E5F03402F583E4F085
:1050C300A3F0900353E004F0025049229003537479
:1050D300FFF0A3F012765CEF6401702012772AEFE1
:1050E300701A12754AEF700F90058FE0700E04F07E
:1050F3007F02126E0E8005E490058FF012787E9089
:105103000353EFF0F4601EE0FF125EEE900354EFE2
:10511300F0F46011E0651B600FE0FBF51BE4FDFF9D
:10512300126E118003751BFF127890EF60057F04E8
:10513300126E0E12755BEF6008E4FBFD7F03126EC7
:105143001112767AEF6008E4FBFD7F05126E1112EF
:10515300766BEF6008E4FBFD7F06126E112290036D
:105163005DEBF0A3EAF0A3E9F0A3EDF0E4FFEFC3F6
:10517300940A748094805047E4FEEEC3940C7480C8
:105183009480503390035DE0FBA3E0FAA3E0F98E33
:1051930082758300120613FDEF75F00EA424F7F554
:1051A30082E43401F583E5822EF582E43583F583C9
:1051B300E0B505030E80C3EE640C60030F80AFEF10
:1051C300C3940A74809480501FEF75F00EA424F6E4
:1051D300F582E43401F583E0FE900360E0FDEE6DBB
:1051E3006008ED64037001227FFF22787FE4F6D824
:1051F300FD758120025235025FB6E493A3F8E49370
:10520300A34003F68001F208DFF48029E493A3F8B6
:105213005407240CC8C333C4540F4420C883400428
:10522300F456800146F6DFE4800B010204081020E7
:105233004080902F0FE47E019360BCA3FF543F3066
:10524300E509541FFEE493A360010ECF54C025E08B
:1052530060A840B8E493A3FAE493A3F8E493A3C843
:10526300C582C8CAC583CAF0A3C8C582C8CAC583D4
:10527300CADFE9DEE780BE12759E1277A4126AD3F5
:10528300126B33126D07126BF312634C126B937B29
:10529300027D087F051234E17D087F05126545E430
:1052A300FB7D407F061234E17B027D107F021234C6
:1052B300E17D107F021268127B027D087F021234A7
:1052C300E17D087F02126812E4FB7D207F06123421
:1052D300E1E4FB7D107F031234E1E4FB7D207F03D7
:1052E3001234E1E4FB7D407F031234E1E4FB7D8073
:1052F3007F031234E11277DE1272FE126E780277A8
:105303004090035CEBF0A3EAF0A3E9F0ED900361B6
:10531300600CE02400FE900360E03446800AE02441
:1053230000FE900360E03444900364F0A3CEF0C227
:10533300AFE4FDFCD3900363E09D900362E09C40E7
:105343003A75D288900364E0FAA3E0FBEAF5CEEB6A
:10535300F5CF90035CE0FBA3E0FAA3E0F98D828C28
:1053630083E5D4120652900365E004F070069003BF
:1053730064E004F00DBD00010C80B9E4F5D2F5CE74
:10538300F5CFD2AF22E4FE900369F0A3741AF09034
:1053930004A4EFF07F147D007B017A047906120BDD
:1053A300C8E49004A3F0FE90036AE0FFEEC39F50AD
:1053B30057EE75F005A4241AF582E43404F583E06E
:1053C300FF9004A4E0FDEF6D703B900369E0FF25BF
:1053D300E02406F582E43404F583EEF075F005A4C9
:1053E300241BF582E43404F583E0FDEF25E0240774
:1053F300F582E43404F583EDF0900369E004F09062
:1054030004A3E004F00E809F2290038AEBF0A3EA4A
:10541300F0A3E9F0E4FF900390F0EFC394047480E9
:105423009480506090038AE0FBA3E0FAA3E0F98F35
:1054330082758300120613FEF46049EE54F0C454DF
:105443000FFD90038DE0FBA3E475F001120727A97C
:10545300F0FAED120640900390E004F0EE540F646E
:105463000F6021EE540FFD90038DE0FBA3E475F074
:1054730001120727A9F0FAED120640900390E00409
:10548300F00F8096900390E0FF2253C4FC53C4F3C3
:1054930043C40453C4BF43C44053C4CF43C4305371
:1054A300C47F43C48053C38143C30E53C38143C3E7
:1054B3000C75963253978343977C7596325397FCBA
:1054C3004397037596425397FC43970275C1FF7543
:1054D30096425397F34397047596425397EF439736
:1054E300107596425397DF126EBA75965343970120
:1054F30043F78075962A43974043F74075962D539B
:1055030097FE75962D43970122EFB40700507590CF
:105513005519F828287302552E02553B02554802A7
:10552300555502556202556F02557CE5F85D7F00C3
:1055330060027F01AE07804CE5805D7F0060027FE3
:1055430001AE07803FE5905D7F0060027F01AE07FB
:105553008032E5B05D7F0060027F01AE078025E504
:10556300C05D7F0060027F01AE078018E5C85D7FE4
:105573000060027F01AE07800BE5D85D7F0060020B
:105583007F01AE07AF0622125685900357EFF090C6
:105593000681E004F07006900680E004F0EF6401F9
:1055A3007012127884EF646170031275047F08121D
:1055B3003E598043900357E06402600FD390068105
:1055C300E0941E900680E094004034127884EF64E7
:1055D300617003127504900357E0640270077F2221
:1055E3001268FE8012127884EF6401700A7F081239
:1055F30068FE7F60127881E4900680F0A3F0227F3A
:10560300011275BE229078BAE493900353F0907818
:10561300BBE493900354F09078BCE493900355F06B
:105623009078BDE493900356F09078BEE493900392
:1056330057F09078BFE493900358F09078C2E493C6
:10564300900359F09078C3E49390035AF09078C490
:10565300E49390035BF09078C0E49390035CF0A331
:105663007401F09078C1E49390035EF0785F7C035B
:105673007D017B017A0379537E007F0C1205D402EE
:105683004DD2785A7C037D017BFF7A7979B97E000C
:105693007F021205D4900358744BF0A37464F07B1B
:1056A300017A0379587D021262667F2C7E01126DA6
:1056B3007C9003737401F0A37403F0A3745AF0A3F2
:1056C3007402F07B017A037958E4FD1228489003B1
:1056D3005AE0FEB44B08A3E0B44F037F0122EEB4BB
:1056E3004B0A90035BE0B445037F022290035AE028
:1056F300B44B08A3E0B44B037F03227F0022E0FBFB
:10570300A3E0FAA3E0F9900372EBF0A3EAF0A3E9B4
:10571300F0A3EDF0E4FC900379F0900375E0FDEC69
:10572300C39D5055900372E0FBA3E0FAA3E0F9AFE9
:10573300048F82758300120613540F900379F00CC3
:10574300900375E0FFECC39F500D8C8275830012AC
:105753000613540FFE80027E0F900379E0C454F0C9
:105763004EFF900376E0FBA3E475F001120727A92F
:10577300F0FAEF1206400C80A122900403EFF0E44C
:10578300A3F090063AE070227D02FF12550CEF64FD
:1057930001701790063A04F0900403E0900651F06C
:1057A300E490063BF012758E8048E4900404F09078
:1057B3000404E0FFFD7C00C39414748094805015AE
:1057C300743D2FF582E43406F583E0600890040409
:1057D300E004F080DAC3ED9414EC648094805012FA
:1057E300900403E0FFA3E0243DF582E43406F5834F
:1057F300EFF07F01229003687401F08058900368F2
:10580300E0FFC3946474809480504F75F005EFA457
:105813002404F582E5F03400F583E06401703390ED
:105823000368E075F005A42404F582E5F03400F57F
:105833008374FFF0900004C083C082FDEF75F00510
:10584300A42400F9740035F0FA7B01D007D00612C6
:105853000BC8900368E004F080A37B017A00790011
:1058630090038E7401F0A374F4F07F01022AACE478
:10587300900367F090063AE0700B7D02FF12550C1F
:10588300EF640160611277D0E4900367F0900367DF
:10589300E0FFFD3395E0FCC3ED9414EC6480948049
:1058A3005019EF3395E0FE743D2FF58274063EF5F3
:1058B30083E4F0900367E004F080D290063BE0C3FA
:1058C3009404748094804010E4900651F090063A5A
:1058D3007403F0E4A3F0800BE4900651F090063AD1
:1058E3007403F012758E22900398ECF0A3EDF0A3ED
:1058F300EBF0AA0775965BAD97C2AFE4F5CFF5CE93
:10590300EA25E025E042CE900398E0FEA3E0F5CF40
:10591300EE540342CEA3E0F5D175D2690000000036
:10592300E4F5CFF5CEAF05EDAF02900398700CE030
:10593300FCA3E0FD126EDAA907800AE0FCA3E0FDF8
:10594300126CDDA90790039AE0B50106A37401F078
:105953008005E490039BF0D2AF90039BE0FF22907D
:1059630004A4E0640170057F01027881E490036779
:10597300F0A3741AF0E4900367F0900368E0FF90DB
:105983000367E0FEC39F5039EE75F005A4241BF5B1
:1059930082E43404F583E0FF9004A4E0FEEFB5064F
:1059A30018900367E075F005A4241AF582E4340423
:1059B300F583E09004A4F08008900367E004F0808E
:1059C300B99004A4E0FF1253889004A4E0FF126985
:1059D3006C1268FE22900368EFF0E0246BF582E41A
:1059E3003406F583E024F96025246E603124FE60DB
:1059F30037240570437F4E1268FE1278A2EF6005CC
:105A03007F251268FEE490066FF0A3F0802A1278D7
:105A13001E7F171268FE1278A2EF601C80157F7735
:105A23001268FE1276F880107F4F1268FE1278A279
:105A3300EF60057F251268FE900368E0246BF58212
:105A4300E43406F583E0900671F022E4FF900689C2
:105A5300E0FEEFC39E506374462FF582E43403F5F2
:105A630083E4F074992FF582E43402F583E4F0744F
:105A73003A2FF582E43403F583E4F0748D2FF58235
:105A8300E43402F583E4F074A92FF582E43402F5DB
:105A930083E4F0742E2FF582E43403F583E4F07489
:105AA300812FF582E43402F583E4F074E52FF58267
:105AB300E43402F583E4F00F8093E4FF026471EFB2
:105AC300C3940A748094805066EF75F00EA424F595
