:10000000024E8302004E53E1DF32320263ED53E1D0
:0A001000F7323202006653F1F732B6
:10001B00026520E4F5C9C20053F1DF9002B5E0FEA2
:10002B00A3E0F5CA53CC7FEE5401C313E41342CCC7
:10003B0053CCC090752CE493543F42CC75C901222C
:07004B0002006E5388FD3234
:100053000200161275147F2A1265937F600274E4FE
:0700630002745D5388F732BF
:07006B0002001253F1FB3209
:100073000262A87F891265931269EB7F410274E4DF
:0700830002009653E1BF32B9
:07008B0002642B53E17F32F8
:0700930002000E53E1FD32F3
:07009B0002000A4387012265
:0600A3000200067F0022AE
:0600AB00020086025D6107
:1000B30002008E020258E86480F8E933E8336011E5
:1000C3000460F0ED33EC337009E8FCE9FDEAFEEB84
:1000D300FF220460DED3EB9FEA9EE99DE8C2E78C32
:1000E300F0C2F795F0400CE8CCF8E9CDF9EACEFA86
:1000F300EBCFFB12022385D0F05804700320D5B355
:10010300E80470075002B2D502026292D5EC046093
:10011300F7E4CCC0E0C398F8603B94186008400D46
:10012300D0E0FB02023AE4FBFAC9FC8028E830E4A1
:1001330006E4C9FBE4CAFCE830E305E4C9CACBFC26
:10014300E854076010F8C3E913F9EA13FAEB13FB59
:10015300EC13FCD8F130F52FC3E49CFCEF9BFFEECE
:100163009AFEED99FDD0E0FBEF4E4D4C701222DB71
:100173000302025FEC2CFCEF33FFEE33FEED33FDA5
:10018300ED30E7EB02023AEF2BFFEE3AFEED39FDDD
:10019300D0E0FB50130BBB0003020262ED13FDEE34
:1001A30013FEEF13FFEC13FC02023A75F020800EEE
:1001B30075F010800575F0087D007E007F00339296
:1001C300D530D5031207C3EC334010EF33FFEE33C2
:1001D300FEED33FDEC33FCD5F0ED22E5F0247EA2F9
:1001E300D513CC92E7CDCEFF22EDD2E7CD33EC335E
:1001F30092D524814006E4FFFEFDFC22FCE4CFCE31
:10020300CDCC24E0501174FF80EDC3CC13CCCD13BF
:10021300CDCE13CECF13CF0470F030D5DE0207C39B
:10022300E9D2E7C933E833F892D5EDD2E7CD33EC21
:1002330033FC5002B2D522EC30E7100FBF000C0E96
:10024300BE00080DBD00040BEB6014A2D5EB13FC3C
:10025300ED92E7FD2274FFFCFDFEFF22E480F8A28D
:10026300D574FF13FC7D80E480EFED33EC33601035
:1002730004700FED547F7005740292E0227404221F
:100283000422E422EC4D6011E8497017ED33EC339E
:1002930004600DE4FCFFFEFD22E933E8330470F84B
:1002A30002025812022358046009E4CC2481500648
:1002B30028500902026228400302025FC0E0EB4AB1
:1002C3007044B98006D0E0FB02024EEF4E701CBDB5
:1002D3008008EBFFEAFEE9FD80EBE98DF0A4FEE583
:1002E300F0020370E9CDF9EAFEEBFFEF89F0A4FC1D
:1002F300E5F0CE89F0A42EFFE435F0CD89F0A42DEE
:10030300FEE435F08067EF4E7005BD80D780C3EF04
:100313008BF0A4ACF0EE8BF0A42CFCE435F0F8EFFA
:100323008AF0A42CE5F038FCE433CB8DF0A42CFC4C
:10033300E5F03BF8EE8AF0A42CFCE5F038F8E43362
:10034300CF89F0A42CFCE5F038CF3400CE89F0A49B
:100353002FFFE5F03EFEE433C98DF0A42EFEE5F059
:1003630039CD8AF0A42FFFE5F03EFEE43DFD33D006
:10037300E0FB50070BBB000F020262EC2CFCEF33D7
:10038300FFEE33FEED33FD02023A74F8CC6480CC09
:10039300C86480C8F58204604FC3EB9FF5F0EA9E02
:1003A30042F0E99D42F0E89C45F0603C501DE58237
:1003B3005FFFE582D313CB5BCBF42B5582FB502835
:1003C3000ABA002409B9002008801DE5825BFBE519
:1003D30082D313CF5FCFF4C3132F5582FF50090E7F
:1003E300BE00050DBD00010CC3EB9FF5F0EA9E4274
:1003F300F0E99D42F0E89C45F06007CC4820E70116
:10040300B3EC22ED33EC33600A047003BD8004ECDB
:10041300B2E7FC22020262EC5D046005E859047055
:1004230003020258120223580460F6EC4860F2EC0F
:100433007004FDFEFF22C860DB2481C85009C39805
:100443006002500602025F9850CAF582E9294B4ABE
:100453007005AB8202024E75F0007C1A7880C3EF00
:100463009BEE9AED99400DC3EF9BFFEE9AFEED993B
:10047300FDE842F0DC23ACF0D0E0FFD0E0FED0E0BA
:10048300FDAB8220E7101BEB60BAEC2CFCEF33FFD3
:10049300EE33FEED33FD02023AE803F830E705C020
:1004A300F075F000EF2FFFEE33FEED33FD40B83073
:1004B300E7C280AAC0E0EFFBEEFAEDF9ECF8120216
:1004C30087D0E0F5F0EFFBEEFAEDF9ECF812081E39
:1004D300A3A3A3A3E8C0E0E9C0E0EAC0E0EBC0E067
:1004E300C0F012028712083AA3A3A3A31200BDD03F
:1004F300F0D0E0FBD0E0FAD0E0F9D0E0F8D5F0D4CA
:1005030022E709F608DFFA8046E709F208DFFA80F6
:100513003E88828C83E709F0A3DFFA8032E309F691
:1005230008DFFA8078E309F208DFFA807088828CAA
:1005330083E309F0A3DFFA806489828A83E0A3F668
:1005430008DFFA805889828A83E0A3F208DFFA8001
:100553004C80D280FA80C680D4806980F280338058
:100563001080A680EA809A80A880DA80E280CA8020
:100573003389828A83ECFAE493A3C8C582C8CCC5C5
:1005830083CCF0A3C8C582C8CCC583CCDFE9DEE742
:10059300800D89828A83E493A3F608DFF9ECFAA934
:1005A300F0EDFB2289828A83ECFAE0A3C8C582C8F6
:1005B300CCC583CCF0A3C8C582C8CCC583CCDFEA45
:1005C300DEE880DB89828A83E493A3F208DFF98083
:1005D300CC88F0EF60010E4E60C388F0ED2402B4C6
:1005E300040050B9F582EB2402B4040050AF232376
:1005F30045822390055473BB010689828A83E022D6
:100603005002E722BBFE02E32289828A83E493221B
:10061300BB010CE58229F582E5833AF583E022509C
:1006230006E92582F8E622BBFE06E92582F8E222E6
:10063300E58229F582E5833AF583E49322BB01063B
:1006430089828A83F0225002F722BBFE01F322F84B
:10065300BB010DE58229F582E5833AF583E8F022B3
:100663005006E92582C8F622BBFE05E92582C8F2B9
:1006730022EF8DF0A4A8F0CF8CF0A428CE8DF0A4A7
:100683002EFE22C2D5EC30E709B2D5E4C39DFDE4CA
:100693009CFCEE30E715B2D5E4C39FFFE49EFE1247
:1006A3000B9FC3E49DFDE49CFC8003120B9F30D59C
:1006B30007C3E49FFFE49EFE22C5F0F8A3E028F001
:1006C300C5F0F8E582158270021583E038F022A3A5
:1006D300F8E0C5F025F0F0E582158270021583E09D
:1006E300C838F0E82275F008758200EF2FFFEE336B
:1006F300FECD33CDCC33CCC58233C5829BED9AEC92
:1007030099E58298400CF582EE9BFEED9AFDEC99FB
:10071300FC0FD5F0D6E4CEFBE4CDFAE4CCF9A88205
:1007230022B800C1B90059BA002DEC8BF084CFCEAA
:10073300CDFCE5F0CBF97818EF2FFFEE33FEED3368
:10074300FDEC33FCEB33FB10D703994004EB99FB2F
:100753000FD8E5E4F9FA227818EF2FFFEE33FEED18
:1007630033FDEC33FCC933C910D7059BE99A400725
:10077300EC9BFCE99AF90FD8E0E4C9FAE4CCFB223C
:1007830075F010EF2FFFEE33FEED33FDCC33CCC805
:1007930033C810D7079BEC9AE899400AED9BFDEC10
:1007A3009AFCE899F80FD5F0DAE4CDFBE4CCFAE44F
:1007B300C8F922CFF4CFCEF4CECDF4CDCCF4CC22F5
:1007C300C3E49FFFE49EFEE49DFDE49CFC22EB9FBB
:1007D300F5F0EA9E42F0E99D42F0EC6480C8648043
:1007E3009845F022EB9FF5F0EA9E42F0E99D42F036
:1007F300E89C45F022E8600FECC313FCED13FDEE1B
:1008030013FEEF13FFD8F122E8600FEFC333FFEEBF
:1008130033FEED33FDEC33FCD8F122E493FC740199
:1008230093FD740293FE740393FF22E0F8A3E0F9AF
:10083300A3E0FAA3E0FB22E493F8740193F97402B2
:1008430093FA740393FB22ECF0A3EDF0A3EEF0A371
:10085300EFF022A8828583F0D083D08212086D1234
:10086300086D12086D12086DE473E493A3C583C584
:10087300F0C583C8C582C8F0A3C583C5F0C583C8C6
:10088300C582C822D083D082F8E493701274019396
:10089300700DA3A393F8740193F5828883E47374B2
:1008A30002936860EFA3A3A380DF8A838982E47342
:1008B300EC8EF0A4CCC5F0CCCDF8EFA4CEC5F02DD2
:1008C300FDE43CFCE8A42EC8C5F03DFDE43CFCEF90
:1008D300A4FFE5F028FEE43DFDE43CFC22E709F635
:1008E3000870FA8046E709F20870FA803E88828C25
:1008F30083E709F0A370FA807EE309F60870FA80B3
:1009030076E309F20870FA806E88828C83E309F03B
:10091300A370FA806289828A83E0A3F60870FA8062
:100923005689828A83E0A3F20870FA804A80D280D3
:10093300FA80C680D4806580F28031801080A680E2
:10094300EA809A80A880DA80E280CA803189828A2C
:1009530083ECFAE493A3C8C582C8CCC583CCF0A3C7
:10096300C8C582C8CCC583CC70E9800D89828A83CF
:10097300E493A3F60870F9ECFAA9F0EDFB2289825F
:100983008A83ECFAE0A3C8C582C8CCC583CCF0A3A4
:10099300C8C582C8CCC583CC70EA80DD89828A83CE
:1009A300E493A3F20870F980CE88F0ED2402B40436
:1009B3000050C4F582EB2402B4040050BA2323454B
:1009C300822390093073E3F5F009E208B5F06BDF99
:1009D300F58067E3F5F009E608B5F05EDFF5805AC8
:1009E30087F009E608B5F052DFF6804E87F009E29A
:1009F30008B5F046DFF6804288828C8387F009E0F1
:100A0300A3B5F036DFF6803288828C8387F009E461
:100A130093A3B5F025DFF5802188828C83E3F5F07D
:100A230009E0A3B5F014DFF5801088828C83E3F529
:100A3300F009E493A3B5F002DFF4020AF88087809B
:100A4300E9809080D4803E8015806E807E809D807A
:100A5300B7808D80A380518074803C020B0489820F
:100A63008A83ECFAE493F5F0A3C8C582C8CCC583A6
:100A7300CCE493A3C8C582C8CCC583CCB5F076DFDC
:100A8300E3DEE1807089828A83E493F5F0A3E208D0
:100A9300B5F062DFF4805E89828A83E0F5F0A3E635
:100AA30008B5F051DFF5804D89828A83E0F5F0A324
:100AB300E208B5F040DFF5803C89828A83E493F550
:100AC300F0A3E608B5F02EDFF4802A800280578970
:100AD300828A83ECFAE493F5F0A3C8C582C8CCC537
:100AE30083CCE0A3C8C582C8CCC583CCB5F006DFF0
:100AF300E4DEE280007FFFB5F0020F2240027F01B7
:100B03002289828A83ECFAE0F5F0A3C8C582C8CCB7
:100B1300C583CCE0A3C8C582C8CCC583CCB5F0D50A
:100B2300DFE5DEE380CF89828A83ECFAE0F5F0A388
:100B3300C8C582C8CCC583CCE493A3C8C582C8CC3E
:100B4300C583CCB5F0AFDFE4DEE280A988F0EF60C7
:100B5300010E4E60ABED2402B404005098F582EB15
:100B63002402B40400508E2323458223900A407349
:100B7300EF4E6012EF60010EEDBB010B89828A8399
:100B8300F0A3DFFCDEFA2289F05007F709DFFCA9A6
:100B9300F022BBFEFCF309DFFCA9F022BC000BBE74
:100BA3000029EF8DF084FFADF022E4CCF875F00856
:100BB300EF2FFFEE33FEEC33FCEE9DEC984005FC8B
:100BC300EE9DFE0FD5F0E9E4CEFD22EDF8F5F0EE53
:100BD3008420D21CFEADF075F008EF2FFFED33FD3E
:100BE3004007985006D5F0F222C398FD0FD5F0EADE
:100BF30022900400EFF01274E7A3EFF01208870CC1
:100C030050010C50020C50120C501311C81411C88F
:100C13001511C8160C501711AB3211AB3311C83470
:100C230011C83511C8360C50410C504211C850122E
:100C33004153126F5412CF550C456012D770000008
:100C430012E27F011274E49004017401F0127193B3
:100C5300EF6401700B1274ED7F2E1265930274BD65
:100C6300900539E07062900400E0640A7037A3E0F5
:100C7300644170030212E21272B9900401E0FD7C38
:100C830000640170057F600211C3ED64024C7005BE
:100C93007F010211C390062CE0700302123EE4F0C0
:100CA3007F010211C3900400E0640B701BA3E06496
:100CB3000160030212E21272B9E4900536F07F83F9
:100CC3001265937F020211C31272B9900400E0FF10
:100CD300C374809480407CD3EF94097480948050D3
:100CE30072900539E0C39420748094805065900419
:100CF30001E0FF64016005EF64027016900400E0F8
:100D0300FF900539E0FE04F0743A2EF582E43405D1
:100D1300803D900538E0FF7E00701A900400E0FDEE
:100D2300900539E0FC04F0743A2CF582E43405F5BF
:100D330083EDF0801EEF64014E7018900400E0FF15
:100D4300900539E0FE04F0745A2EF582E43405F57B
:100D530083EFF0900400E0640A6003020E34900510
:100D630038E0FF7E00700FA3E0FD14F0743A2DF518
:100D730082E434058015EF64014E7014900539E068
:100D8300FF14F0745A2FF582E43405F58374FFF0F1
:100D9300900539E060030212E2900401E0640270FE
:100DA300057F830212D4900538E0703D900401E082
:100DB300FF64126005EF641770057F620212D4901E
:100DC3000401E0641370057F740212D4900401E0FF
:100DD300644170057F890212D4900401E06442608B
:100DE300030212E27F620212D4900538E0640160CC
:100DF300030212E2900401E0FF64126005EF64173E
:100E030070057F680212D4900401E0641370057FBB
:100E1300040212D4900401E0644170057F68021259
:100E2300D4900401E0644260030212E27F6802127C
:100E3300D4900400E0640B600B900539E064086013
:100E4300030212E2900539E0FF7E00C3940674802A
:100E530094804003020F01900401E06401707EEF6F
:100E63006402701090053AE0700AA3E070061273F2
:100E73008A020F59900539E06401700CA3E0640500
:100E830070061268E8020F59900539E06401700C8E
:100E9300A3E06406700612621F020F59900539E041
:100EA30064027032A3E0702EA3E06401702812750F
:100EB3000BEF6401700E90053604F07F8312659387
:100EC3007F02800C7F01126BCC7F5F1265937F01E1
:100ED3001274E4020F597F0112632D80797F65122A
:100EE3006593E4900539F0900538E07003020FAB89
:100EF300900538E0640160030212E2020FFC9004E3
:100F030001E064017057A3F07B017A05793A9005FB
:100F130039E0FD122C98900402EFF0F470077F0182
:100F230012632D8031900402E064FE701812750B79
:100F3300EF64017010FF126BCC7F601265937F0129
:100F43001274E48011900402E0640170047F118044
:100F5300027F01124084E4900539F0804B90040134
:100F6300E0640270507B017A05793A900539E0FD1F
:100F7300E4900407F0123DCDEFF470077F8C126507
:100F8300938020900536E064017010FF126BCC7FD4
:100F9300601265937F011274E480087F0112748DDF
:100FA300126EF1E4900539F0FE7F207DFF7B017A1C
:100FB30005793A804F900538E0704C900401E0FFCA
:100FC3006412601BEF641770028014900401E064E4
:100FD3001370047F048016900401E0644170047F61
:100FE30068800A900401E0644270057F681265938B
:100FF3009005387401F0E4A3F0FE7F207DFF7B01B0
:101003007A05795A020B73900538E0640160030294
:1010130012E2783A7C057D017B017A05795AFE7FDD
:1010230008120B4FEF3395E04F60030211A39004B6
:1010330001E0641370507B017A05793A900539E039
:10104300FD9004077401F0123DCD900402EFF0F41B
:1010530070057F710211A5900402E0FF7D01125B10
:101063001EEF7017900402E09001F4F07F05126503
:10107300939001F4E0FF12725A80057F6E1265931C
:101083001273CA0211A87B017A05793A900539E0F7
:10109300FD9004077403F0123DCDEFF460057F86E5
:1010A3000211A5900401E0641270437B017A057973
:1010B3003A900539E0FD9004077401F0123EB9EF50
:1010C300640170077F6E126593800D7F051265932F
:1010D3009001F4E0FF12724A90062CE0600AE4F0FB
:1010E3007F011274E40211A81273C00211A89004C4
:1010F30001E0644170377B017A05793A900539E064
:10110300FDE4900407F0123EB9EF640170077F6EAF
:10111300126593800D7F051265939001F4E0FF1231
:10112300724A127508EF70391273B6807890040111
:10113300E06442702E7B017A05793A900539E0FD2F
:10114300E4900407F0123EB9EF640170077F6E125A
:101153006593800D7F051265939001F4E0FF127291
:101163004A8038900401E06417703A7B017A05796C
:101173003A900539E0FD9004077402F0123EB9EF8E
:10118300640170077F6E12659380101274CF7F0520
:101193001265939001F4E0FF12724A126EF180051A
:1011A3007FD31265930269EB900400E0640A600345
:1011B3000212E21272B990062CE06007E4F07F019C
:1011C3000274E48076900400E0640B70601272B9DC
:1011D300900401E024EB604614604624E260281486
:1011E300604214604224E66041243C60030212E240
:1011F30012548DEF700A7F051265931274A5800552
:101203007F08126593803412583CEF700A7F0512F1
:1012130065931274B180057F08126593801D026C7B
:101223004102733D026C5E02734A0262EB9004005A
:10123300E0640A60030212E21272B9026EF19004D2
:1012430000E0640A70061272B90255F7900400E0D8
:1012530070030212E2127493900400E0D39F507F54
:101263001272B9900400E014FF025BE712749F90BE
:101273000402EFF06496700B1272B9900400E0FF61
:10128300025981900402E064997035900400E0648F
:101293000A70181272B9127371127505EF60028029
:1012A300287F587E02126A11027364900400E0647E
:1012B3000B702C1272B91273717D017F99026264F3
:1012C300127505EF60191272B90272F51274ED7F8F
:1012D3004D0265931274ED7F2F12659312730422EE
:1012E300900429E0F9A3E0FAA3E0900454C9F0A321
:1012F300EAF0A3E9F0A37401F0A37404F0A3743239
:10130300F0900426E0FBA3E0FAA3E0F9900451EB8C
:10131300F0A3EAF0A3E9F0900006120613FF339559
:10132300E0FEEF24D0FFEE34FFFE7C007D0A1206C0
:1013330074C006C007900005120613FF3395E0FE44
:10134300EF24D0FFEE34FFFE7D64120674D0E02F4D
:10135300FFD0E03EFE900007120613FD3395E0FC3C
:10136300ED24D0FDEC34FFCD2FFFED3E90045AF079
:10137300A3EFF0E4900466F0A3F0900454E0FBA321
:10138300E0FAA3E0F912710A900471EEF0A3EFF012
:10139300E490047DF0A3F07A04797F90045A124715
:1013A3002AE4900466F0A3F0900466E0FEA3E0FF55
:1013B300C39405EE648094805063900451E0FBA3D2
:1013C300E0FAA3E0F98F828E83120613FF3395E0D0
:1013D300FEEF24D0FFEE34FF900489F0A3EFF090EA
:1013E3000489E0FEA3E0247FF58274043EF583E0E4
:1013F300FD900467E025E0FF900466E033FE745C33
:101403002FF58274043EF583E4F0A3EDF0900467B6
:10141300E004F07093900466E004F0808B7E007F1C
:10142300097D007B017A047968120B73900471E0E3
:101433007004A3E06408701678687C047D0190044E
:1014430054E0FBA3E0FAA3E0F91209AC8079D3904E
:101453000472E09408900471E064809480402790C3
:101463000454E0F9A3E0FAA3E090048EC9F0A3EAE0
:10147300F0A3E9F0A3E4F0A37408F07B017A047904
:10148300681259EA804178687C047D01900454E035
:10149300FBA3E0FAA3E0F91209AC90048E74FFF009
:1014A300A37476F0A37414F0900471E0FEA3E0FF3C
:1014B300C374089F900492F0E49E900491F07B0122
:1014C3007A047968124158900469E0FB3395E0FA95
:1014D300900468E0FF3395E0FEC3EF9BFFEE9AFEB6
:1014E30090046AE0F9FD3395E0FCEF2DFFEE3CFE3E
:1014F300A3E0FD3395E0FCC3EF9DFFEE9CFEA3E06C
:10150300FD3395E0FCEF2DFFEE3CFEA3E0FD3395AC
:10151300E0FCC3EF9DFFEE9CFEA3E0FD3395E0FCF2
:10152300EF2DFFEE3CFEA3E0FD3395E0FCC3EF9D02
:10153300FFEE9C900473F0A3EFF0C374309BFFE4C1
:101543009AFEE9FD3395E0FCEF2DFFEE3CFE90049F
:101553006BE0F9FB3395E0FAC3EF9BFFEE9AFEA332
:10156300E0FB3395E0FAEF2BFFEE3AFEA3E0FB330B
:1015730095E0FAC3EF9BFFEE9AFEA3E0FB3395E001
:10158300FAEF2BFFEE3AFEA3E0FB3395E0FAC3EF4D
:101593009BFFEE9A900475F0A3EFF0E9FF3395E01B
:1015A300FEC3ED9FFFEC9EFE90046CE0FD3395E0DF
:1015B300FCEF2DFFEE3CFEA3E0FB3395E0FAC3EF17
:1015C3009BFFEE9AFEA3E0FB3395E0FAEF2BFFEED1
:1015D3003AFEA3E0FB3395E0FAC3EF9BFFEE9A904C
:1015E3000477F0A3EFF0E9FF3395E0FEC374309F77
:1015F300CFE49ECF2DCF3CFE90046DE0FD3395E00C
:10160300FCC3EF9DFFEE9CFEA3E0F9FB3395E0FAEC
:10161300EF2BFFEE3AFEA3E0FB3395E0FAC3EF9B1B
:10162300FFEE9A900479F0A3EFF090046CE0FF339F
:1016330095E0FEC3EF9DFFEE9CFEE9FD3395E0FCD4
:10164300EF2DFFEE3CFE90046FE0FD3395E0FCC30D
:10165300EF9DFFEE9C90047BF0A3EFF0E490046613
:10166300F0A3F0900466E0FAA3E0FB25E0FFEA3381
:10167300FE74732FF58274043EF583E0FCA3E0FD52
:10168300745C2FF58274043EF583E0FEA3E0C39DF2
:10169300FFEE9CCF2464CF3400FE7C007D0A12064B
:1016A30086EB25E0FFEA33FE745C2FF58274043E7B
:1016B300F583ECF0A3EDF0900467E004F07006907E
:1016C3000466E004F0900466E07004A3E06405702F
:1016D30092E4900466F0A3F0900466E0FEA3E0FFBA
:1016E300C39405EE6480948040030217A57C007DBB
:1016F30002120686ED4C7027E025E0FF900466E0B9
:1017030033FE745C2FF58274043EF583A3E025E079
:10171300FD0582D5820215831582E033FC80289073
:101723000467E025E0FF900466E033FE745C2FF568
:101733008274043EF583E0FEA3E0FF7C007D031288
:101743000674AC06AD07EC1201B3C004C005C006B5
:10175300C00790048F12085640000000D007D0063F
:10176300D005D004123607C004C005C006C00790D8
:10177300047DE0FCA3E0FDEC1201B3D003D002D062
:1017830001D0001200BD1201EC90047DEEF0A3EF36
:10179300F0900467E004F07006900466E004F00241
:1017A30016DB90047DE0FEA3E0FF90045AE06E7028
:1017B30003A3E06F600302187C90045CA3E0FF9036
:1017C3000457E0FBA3E0FAA3E0F9EF12064090040C
:1017D3005EA3E0FF900457E0FBA3E0FAA3E0F990D7
:1017E3000001EF120652900460A3E090000212067B
:1017F30052900462A3E0900003120652900464A383
:10180300E0900004120652900451E0FBA3E0FAA317
:10181300E0F990000512061324D0FF900457E0FB73
:10182300A3E0FAA3E0F9900005EF120652900451E9
:10183300E0FBA3E0FAA3E0F990000612061324D01C
:10184300FF900457E0FBA3E0FAA3E0F9900006EF52
:10185300120652900451E0FBA3E0FAA3E0F99000D2
:101863000712061324D0FF900457E0FBA3E0FAA36A
:10187300E0F9900007EF020652E4900466F0A3F04B
:10188300900466E0FEA3E0FFC39408EE64809480B6
:101893005024900457E0FBA3E0FAA3E0F98F828E73
:1018A3008374FF120652900467E004F070D2900430
:1018B30066E004F080CA22900451EBF0A3EAF0A39F
:1018C300E9F090000612061375F00AA4FDACF0903F
:1018D300000512061375F064A42DFFE5F03CFE909D
:1018E30000071206137C002FFFEC3E90045AF0A36E
:1018F300EFF0900454E0FBA3E0FAA3E0F912710ABD
:1019030090046FEEF0A3EFF0E4A3F0A3F090047D56
:10191300F0A3F07A04797F90045A12472AE49004E2
:1019230071F0A3F0900471E0FEA3E0FFC39405EE11
:10193300648094805059900451E0FBA3E0FAA3E043
:10194300F98F828E83120613FF900489E4F0A3EFCC
:10195300F0900489E0FEA3E0247FF58274043EF551
:1019630083E0FD900472E025E0FF900471E033FE14
:10197300745C2FF58274043EF583E4F0A3EDF090DC
:101983000472E004F0709D900471E004F080957E91
:10199300007F097D007B017A047966120B73900442
:1019A3006FE07004A3E06408701678667C047D0120
:1019B300900454E0FBA3E0FAA3E0F91209AC8079A8
:1019C300D3900470E0940890046FE06480948040A6
:1019D30027900454E0F9A3E0FAA3E090048EC9F041
:1019E300A3EAF0A3E9F0A3E4F0A37408F07B017A7F
:1019F3000479661259EA804178667C047D0190047B
:101A030054E0FBA3E0FAA3E0F91209AC90048E744E
:101A1300FFF0A37476F0A37414F090046FE0FEA3B8
:101A2300E0FFC374089F900492F0E49E900491F049
:101A33007B017A047966124158900467E0FB339581
:101A4300E0FA900466E0FF3395E0FEC3EF9BFFEE00
:101A53009AFE900468E0F9FD3395E0FCEF2DFFEE6C
:101A63003CFEA3E0FD3395E0FCC3EF9DFFEE9CFE3F
:101A7300A3E0FD3395E0FCEF2DFFEE3CFEA3E0FD7C
:101A83003395E0FCC3EF9DFFEE9CFEA3E0FD339591
:101A9300E0FCEF2DFFEE3CFEA3E0FD3395E0FCC33D
:101AA300EF9DFFEE9C900473F0A3EFF0C374309BA3
:101AB300FFE49AFEE9FD3395E0FCEF2DFFEE3CFEDB
:101AC300900469E0F9FB3395E0FAC3EF9BFFEE9ACC
:101AD300FEA3E0FB3395E0FAEF2BFFEE3AFEA3E023
:101AE300FB3395E0FAC3EF9BFFEE9AFEA3E0FB33D3
:101AF30095E0FAEF2BFFEE3AFEA3E0FB3395E0FA15
:101B0300C3EF9BFFEE9A900475F0A3EFF0E9FF3368
:101B130095E0FEC3ED9FFFEC9EFE90046AE0FD336B
:101B230095E0FCEF2DFFEE3CFEA3E0FB3395E0FADE
:101B3300C3EF9BFFEE9AFEA3E0FB3395E0FAEF2B96
:101B4300FFEE3AFEA3E0FB3395E0FAC3EF9BFFEE13
:101B53009A900477F0A3EFF0E9FF3395E0FEC374A6
:101B6300309FCFE49ECF2DCF3CFE90046BE0FD333E
:101B730095E0FCC3EF9DFFEE9CFEA3E0F9FB3395DC
:101B8300E0FAEF2BFFEE3AFEA3E0FB3395E0FAC356
:101B9300EF9BFFEE9A900479F0A3EFF090046AE0D4
:101BA300FF3395E0FEC3EF9DFFEE9CFEE9FD339509
:101BB300E0FCEF2DFFEE3CFE90046DE0FD3395E07D
:101BC300FCC3EF9DFFEE9C90047BF0A3EFF0E49049
:101BD3000471F0A3F0900471E0FAA3E0FB25E0FFA9
:101BE300EA33FE74732FF58274043EF583E0FCA39D
:101BF300E0FD745C2FF58274043EF583E0FEA3E000
:101C0300C39DFFEE9CCF2464CF3400FE7C007D0A8D
:101C1300120686EB25E0FFEA33FE745C2FF582742F
:101C2300043EF583ECF0A3EDF0900472E004F07051
:101C330006900471E004F0900471E07004A3E06482
:101C4300057092E4900471F0A3F0900471E0FEA398
:101C5300E0FFC39405EE648094804003021D177C6B
:101C6300007D02120686ED4C7027E025E0FF90040C
:101C730071E033FE745C2FF58274043EF583A3E0B8
:101C830025E0FD0582D5820215831582E033FC80B1
:101C930028900472E025E0FF900471E033FE745C49
:101CA3002FF58274043EF583E0FEA3E0FF7C007D04
:101CB30003120674AC06AD07EC1201B3C004C005F1
:101CC300C006C00790048F12085640000000D007DA
:101CD300D006D005D004123607C004C005C006C024
:101CE3000790047DE0FCA3E0FDEC1201B3D003D028
:101CF30002D001D0001200BD1201EC90047DEEF081
:101D0300A3EFF0900472E004F07006900471E00415
:101D1300F0021C4D90047DE0FEA3E0FF90045AE026
:101D23006E7003A3E06F6003021DE890045CA3E000
:101D3300FF900457E0FBA3E0FAA3E0F9EF1206409B
:101D430090045EA3E0FF900457E0FBA3E0FAA3E056
:101D5300F9900001EF120652900460A3E090000294
:101D6300120652900462A3E09000031206529004FC
:101D730064A3E0900004120652900451E0FBA3E038
:101D8300FAA3E0F9900005120613FF900457E0FB55
:101D9300A3E0FAA3E0F9900005EF12065290045174
:101DA300E0FBA3E0FAA3E0F9900006120613FF900C
:101DB3000457E0FBA3E0FAA3E0F9900006EF120654
:101DC30052900451E0FBA3E0FAA3E0F9900007125C
:101DD3000613FF900457E0FBA3E0FAA3E0F9900099
:101DE30007EF020652E4900471F0A3F0900471E04F
:101DF300FEA3E0FFC39408EE648094805024900413
:101E030057E0FBA3E0FAA3E0F98F828E8374FF12FD
:101E13000652900472E004F070D2900471E004F072
:101E230080CA22900400EFF0A20592069004047485
:101E330003F01261943005030221B1900400E0FF26
:101E430025E0244CF582E43475F583E493FC7401B6
:101E530093FD75F002EFA424B5F582E5F03402F5A5
:101E630083ECF0A3EDF0900400E0FE90752C93FF5B
:101E7300900403F075F002EEA424B5F582E5F03486
:101E830002F583E0FCA3E0FD12666B900400E0FD25
:101E930075F002A42416F582E5F03403F583EEF021
:101EA300A3EFF075F002EDA42416F582E5F03403F8
:101EB300F583E0FEA3E0FF900401E0FCA3E0FDD383
:101EC300EF9DEE9C500302209C900400E0FF75F010
:101ED30002A42416F582E5F03403F583E0FCA3E0C5
:101EE300FD900401E0FAA3E0FBD3ED9BEC9A5003D1
:101EF300021FB875910775F002EFA424B5F582E5CA
:101F0300F03402F583E0FEA3E0C394FFEE940140B6
:101F130003021FB8900400E0FF75F002A424B5F596
:101F230082E5F03402F583E475F0011206BC75F026
:101F330002EFA424B5F582E5F03402F583E0FCA3B7
:101F4300E0FD900403E0FF12666B900400E0FD7572
:101F5300F002A42416F582E5F03403F583EEF0A332
:101F6300EFF075F002EDA42416F582E5F03403F5E5
:101F730083E0FEA3E0FF75F002EDA424CDF582E536
:101F8300F03402F583EEF0A3EFF075F002EDA42434
:101F930016F582E5F03403F583E0FEA3E0FF75F068
:101FA30002EDA424F1F582E5F03402F583EEF0A30B
:101FB300EFF0021ECCE5CDC454072409F9E47F01F8
:101FC300FEFDFCA80112080BEF24F6FBEE34FFFA2A
:101FD300ED34FFF9EC34FFF8900400E075F002A44F
:101FE3002416F582E5F03403F583E0FEA3E0FFE475
:101FF300FCFDD31207E7400302209C900400E0FF9E
:1020030075F002A424B5F582E5F03402F583E47596
:10201300F0011206BC75F002EFA424B5F582E5F0D9
:102023003402F583E0FCA3E0FD900403E0FF1266B5
:102033006B900400E0FD75F002A42416F582E5F030
:102043003403F583EEF0A3EFF075F002EDA424164C
:10205300F582E5F03403F583E0FEA3E0FF75F002BB
:10206300EDA424CDF582E5F03402F583EEF0A3EF81
:10207300F075F002EDA42416F582E5F03403F58340
:10208300E0FEA3E0FF75F002EDA424F1F582E5F094
:102093003402F583EEF0A3EFF0900400E075F00254
:1020A300A42416F582E5F03403F583E0FEA3E0FFF4
:1020B300900401E0FCA3E0FDD3EF9DEE9C400302FE
:1020C30021B1900400E0FF75F002A42416F582E527
:1020D300F03403F583E0FCA3E0FD900401E0FAA3F0
:1020E300E0FBC3ED9BEC9A40030221B175910775A8
:1020F300F002EFA424B5F582E5F03402F583E0FEA7
:10210300A3E0D39400EE940050030221B1900400A5
:10211300E0FF75F002A424B5F582E5F03402F583FF
:1021230074FFF5F01206BC75F002EFA424B5F58236
:10213300E5F03402F583E0FCA3E0FD900403E0FF47
:1021430012666B900400E0FD75F002A42416F5827C
:10215300E5F03403F583EEF0A3EFF075F002EDA4A0
:102163002416F582E5F03403F583E0FEA3E0FF7562
:10217300F002EDA424CDF582E5F03402F583EEF010
:10218300A3EFF075F002EDA42416F582E5F0340315
:10219300F583E0FEA3E0FF75F002EDA424F1F582E0
:1021A300E5F03402F583EEF0A3EFF00220C522AB95
:1021B30007EB25E024A3F582E43475F583E493FF6C
:1021C300740193900404CFF0A3EFF0EB25E024A374
:1021D300F582E43475F583E493FC740193FD907503
:1021E30093E493FF7E00120674EEC4F854F0C868BB
:1021F300FEEFC4540F48FF900406EEF0A3EFF07512
:10220300F002EBA42416F582E5F03403F583E0FE37
:10221300A3E0FF75F002EBA424CDF582E5F03402D0
:10222300F583E0FCA3E0C39FFFEC9EFE900402F065
:10223300A3EFF0C3EE64809480500302238FA3E0E6
:10224300FEA3E0FF900402E0FCA3E0FD9FEE6480A8
:10225300F8EC648098401074812BF582E43402F525
:10226300837401F002235B900406E0FEA3E0FFC346
:10227300ED9FEE6480F8EC648098405874462BF52B
:1022830082E43403F583E004F074992BF582E4349B
:1022930002F583E4F0743A2BF582E43403F583E426
:1022A300F0748D2BF582E43402F583E4F074462B4D
:1022B300F582E43403F583E0FF900620E0FEEFC3EC
:1022C3009E500302235B74462BF582E43403F583AB
:1022D300E4F0806E74462BF582E43403F583E4F076
:1022E30074992BF582E43402F583E004F0743A2BFD
:1022F300F582E43403F583E4F0748D2BF582E43442
:1023030002F583E4F074992BF582E43402F583E05B
:10231300FF900622E0FEEFC39E403D74992BF582A9
:10232300E43402F583E4F075F002EBA424CDF582E6
:10233300E5F03402F583E0FEA3E0D39400EE9400CD
:10234300401675F002EBA424CDF582E5F03402F5D6
:102353008374FFF5F01206BC9075E5E493FE7401F7
:1023630093FFC3900405E09FFF900404E09EFEC327
:10237300900403E09F900402E09E40030225007452
:10238300812BF582E43402F583E4F02274812BF58A
:1023930082E43402F583E4F0900406E0FEA3E0FF58
:1023A300C3E49FFFE49EFEC3900403E09FEE6480BA
:1023B300F8900402E0648098406C74462BF582E444
:1023C3003403F583E4F074992BF582E43402F58346
:1023D300E4F0743A2BF582E43403F583E004F074FB
:1023E3008D2BF582E43402F583E4F0743A2BF58205
:1023F300E43403F583E0FF90061FE0FEEFC39E5035
:1024030003022500743A2BF582E43403F583E4F0E8
:1024130075F002EBA424CDF582E5F03402F583E4F4
:1024230075F0010224FD74462BF582E43403F58331
:10243300E4F074992BF582E43402F583E4F0743A02
:102443002BF582E43403F583E4F0748D2BF582E4F9
:102453003402F583E004F0748D2BF582E43402F545
:1024630083E0FF900621E0FEEFC39E5003022500A8
:10247300748D2BF582E43402F583E4F0900405E0D7
:1024830025E0FD900404E033FCE0A2E713FEA3E0A3
:10249300132DFFEE3CFEC3E49FFFE49EFED39004A6
:1024A30003E09FEE6480F8900402E0648098502972
:1024B30075F002EBA42416F582E5F03403F583E00E
:1024C300FEA3E0FF75F002EBA424CDF582E5F03422
:1024D30002F583EEF0A3EFF022900406E0FEA3E002
:1024E300FF7C007D0512068675F002EBA424CDF572
:1024F30082E5F03402F583EE8FF01206BC229004DD
:1025030026EBF0A3EAF0A3E9F0E490044AF0A3F089
:10251300A3F0A3F0A3F0A3F0A3F0FE7F08FD7B01DB
:102523007A047932120B737E007F087D007B017A77
:1025330004793A120B737E007F087D007B017A04D5
:102543007942120B7390042CE0FBA3E0FAA3E0F9A9
:10255300EA494B70030227CD1205FAF46003022601
:102563007D900001120613F4600302267D900002A1
:10257300120613F4600302267D900003120613F47F
:10258300600302267D900004120613F46003022602
:102593007D900005120613F4600302267D90000669
:1025A300120613F4600302267D900007120613F44B
:1025B300600302267D1212E3900432E0F9F4700600
:1025C30090044AF0FF22900433E0FF7E007C037DF9
:1025D300E8120674AA06AB07E9FF7E007C277D108C
:1025E300120674EF2BFDEE3AFCA3E075F064A42D04
:1025F300FDE5F03CFCA3E075F00AA42DFFE5F03CFB
:10260300FEA3E07C002FFFEC3EFE90044BF0A3EF13
:10261300F0C390044EE09FEE6480F890044DE064B4
:10262300809840030227C5E490044FF0A3F0900480
:1026330026E0FBA3E0FAA3E0F990044FE0FEA3E059
:10264300FFF5828E8312061324D0FD743A2FF58290
:1026530074043EF583EDF0900450E004F0700690AE
:10266300044FE004F090044FE07004A3E0640870AA
:10267300BD90044A7401F00227C5900429E0F9A330
:10268300E0FAA3E0900454C9F0A3EAF0A3E9F0A3AD
:102693007401F0A37404F0A37442F090042CE0FBE3
:1026A300A3E0FAA3E0F91218BA900442E0F470032D
:1026B3000227CE1212E3900432E0F470030227CE15
:1026C300900433E0FF7E007C037DE8120674AA06C3
:1026D300AB07900432E0FF7E007C277D1012067466
:1026E300EF2BFDEE3AFC900434E075F064A42DFD6D
:1026F300E5F03CFCA3E075F00AA42DFFE5F03CFEF9
:10270300A3E07C002FFFEC3E90044BF0A3EFF0908E
:102713000443E0FF7E007C037DE8120674AA06AB47
:1027230007900442E0FF7E007C277D10120674EFC1
:102733002BFDEE3AFC900444E075F064A42DFDE516
:10274300F03CFCA3E075F00AA42DFFE5F03CFEA3EA
:10275300E07C002FFFEC3EFE90044DF0A3EFF0D39E
:1027630090044CE09FEE6480F890044BE064809802
:102773004050E490044FF0A3F0900426E0FBA3E064
:10278300FAA3E0F990044FE0FEA3E0FFF5828E8305
:1027930012061324D0FD743A2FF58274043EF58398
:1027A300EDF0900450E004F0700690044FE004F064
:1027B30090044FE07004A3E0640870BD90044A7471
:1027C30001F07E007F087D008009E490044AF0FE5A
:1027D3007F08FD90042FE0FBA3E0FAA3E0F9120BBE
:1027E3007390042FE0FBA3E0FAA3E0F8AC02AD037F
:1027F3007B017A04793A7E007F081205D490044A5B
:10280300E0FF227B01E4FD90040BEBF0A3EAF0A3CD
:10281300E9F0A3EDF0E4900413F0A3F0A3F0A374A4
:1028230003F0A374E8F0EDD3940074809480500314
:10283300022962C2AFE4900413F090040EE0FF900B
:102843000413E0FEC39F502190040BE0FBA3E0FAC6
:10285300A3E0F98E82758300120613FDE4FF12696B
:10286300C5900413E004F080D190041674FFF5F0D2
:102873001206BC45F0700302295D7F017E00126AD7
:102883001190060DE0C394027480948040DBE490C1
:102893000413F090060DE0FF900413E0FEC39F5075
:1028A3006274F72EF582E43405F583E0FD644B6032
:1028B30022ED6449601DED64426018ED64466013C7
:1028C300ED6452600EED644D6009ED644A6004ED01
:1028D300B47128EDB44A07900415EEF08025EEFD9F
:1028E300C3EF9DFFE49400FEC3EF9402EE64809473
:1028F300804008900413E0900415F0900413E00462
:10290300F08090900415E0900413F090060DE0FF22
:10291300900413E0FEC39F4003022A4F74F72EF581
:1029230082E43405F583E0FF90040FE0FBA3E0FAB3
:10293300A3E0F9900414E0FEF582758300EF12061C
:1029430052900412E0146E7003022A4F900414E0B4
:1029530004F0900413E004F080B1D2AF022A5AC20B
:10296300AF90041674FFF5F01206BC45F070030235
:102973002A587F017E00126A1190060DE0C394026B
:102983007480948040DBE4900413F090060DE0FF24
:10299300900413E0FEC39F506274F72EF582E43473
:1029A30005F583E0FD644B6022ED6449601DED6431
:1029B300426018ED64466013ED6452600EED644DA1
:1029C3006009ED644A6004EDB47128EDB44A0790E0
:1029D3000415EEF08025EEFDC3EF9DFFE49400FEA9
:1029E300C3EF9402EE648094804008900413E09057
:1029F3000415F0900413E004F08090900415E09027
:102A03000413F090060DE0FF900413E0FEC39F5003
:102A13003B74F72EF582E43405F583E0FF90040F51
:102A2300E0FBA3E0FAA3E0F9900414E0FEF582755D
:102A33008300EF120652900412E0146E600E9004AD
:102A430014E004F0900413E004F080B7E490060D62
:102A5300F0D2AFFF22D2AF7F00227B007A00790849
:102A630090042AE4F0A3740FF0E4FF900426EFF03F
:102A7300A3EBF0A3EAF0A3E9F07F0912747B9004BF
:102A830026E0147003022B6824FE7003022C352405
:102A9300036003022C9290042F7401F0A37400F0DE
:102AA300A37400F0A37401F0A374F4F0E4FF1274B0
:102AB30075E4FF126C24E490042CF0A3F090042A34
:102AC300E0FEA3E0FFC390042DE09F90042CE09E62
:102AD3005037E0FCA3E0FD900427E0FBA3E0FAA35A
:102AE300E0F98D828C83120613FBE4FF12557F906D
:102AF300042EEFF070037F012290042DE004F070A8
:102B0300BC90042CE004F080B4E490042CF0A3F017
:102B1300900432E0FEA3E0FFC390042DE09F9004F5
:102B23002CE09E4003022C95E0FEA3E0FF2418FD59
:102B3300E43EFC90042FE0FBA3E0FAA3E0F98F82CC
:102B43008E83120613FBE4FF12557F90042EEFF0E1
:102B530070037F012290042DE004F070B390042CE5
:102B6300E004F080AB90042FE4F0A37400F0A374AE
:102B730008F0A3E4F0A3740FF0E4FF127475E4FF0C
:102B8300126C24E490042CF0A3F0900432E0FEA332
:102B9300E0FFC390042DE09F90042CE09E5037E0AB
:102BA300FCA3E0FD90042FE0FBA3E0FAA3E0F98D82
:102BB300828C83120613FBE4FF12557F90042EEFE1
:102BC300F070037F012290042DE004F070BC9004A8
:102BD3002CE004F080B4E490042CF0A3F090042AD9
:102BE300E0FEA3E0FFC390042DE09F90042CE09E41
:102BF3004003022C95E0FEA3E0FF2418FDE43EFC15
:102C0300900427E0FBA3E0FAA3E0F98F828E8312FE
:102C13000613FBE4FF12557F90042EEFF070037F41
:102C2300012290042DE004F070B390042CE004F032
:102C330080AB7F011274757F01126C24E490042C25
:102C4300F0A3F090042AE0FEA3E0FFC390042DE07C
:102C53009F90042CE09E503AE0FCA3E0FD900427F3
:102C6300E0FBA3E0FAA3E0F98D828C83120613FB49
:102C73007F0112557F90042EEFF070037F012290A5
:102C8300042DE004F070BC90042CE004F080B47FC9
:102C930001227F0022900403EBF0A3EAF0A3E9F002
:102CA300A3EDF0E4A3F0A3F0900413F0A374FFF0FA
:102CB300E4900407F0900407E0FFC39464748094E5
:102CC300804003022DAE75F005EFA42404F582E5E0
:102CD300F03400F583E0F47003022DA57E007F0835
:102CE3007DFF7B017A04790B120B73900407E07567
:102CF300F005A42400F9740035F0FA7B01C00390B9
:102D03000429EBF0A37404F0A3740BF0D003125066
:102D1300A1900413EFF0E4900409F0900413E0FF92
:102D2300900409E02FFFE433FE900406E0FDD3EFA7
:102D33009D7480F86E98505EE490040AF09004133A
:102D4300E0FF90040AE0FEC39F5037EEFF900409B2
:102D5300E02FFFE433FE900403E0FBA3E0FAA3E0DB
:102D6300F98F828E83120613FF90040AE0240BF579
:102D730082E43404F583E0B5070890040AE004F024
:102D830080BB900413E0FF90040AE06F6008900496
:102D930009E004F08085900413E0FF90040AE06FDB
:102DA3006009900407E004F0022CB8900407E0C324
:102DB3009464748094805007E0FF9001F4F022E45F
:102DC300900425F0FE7F087DFF7B017A04791512BC
:102DD3000B739004297401F0A37404F0A37415F029
:102DE3007B017A0079001250A1900413EFF0E49074
:102DF3000407F0900407E0FFC394087480948050A4
:102E03007574152FF582E43404F583E0F490040718
:102E1300700EE02415F582E43404F583E4F0800EAB
:102E2300E02415F582E43404F583E02430F09004C3
:102E330003E0FBA3E0FAA3E0F9900407E0FFF582C7
:102E4300758300120613FEF4700E740B2FF582E4E3
:102E53003404F583E4F08015900407E0FFEE24309A
:102E6300FE740B2FF582E43404F583EEF09004072F
:102E7300E004F0022DF69004297401F0A37404F029
:102E8300A37415F0A3E4F0A37400F0A3740FF0A3EC
:102E93007401F0A37404F0A3741DF07B017A047928
:102EA3000B122501900425EFF0D3940074809480D5
:102EB3004019780F7C007D007B017A04791D7E0028
:102EC3007F081205D4122A5D7FFE227FFF22C101F3
:102ED300C103C102C1004103520042060B0000417D
:102EE300060D004105DF004105F6004105E00054F1
:102EF30005E20000000000000000000000000000E8
:102F03000000000000004105E10042062A000041E4
:102F1300062C00011700011900011800011A0041D5
:102F2300053900410538FF011CFF011BFF4105372F
:102F3300004105360041053500609404A1022300D9
:102F43000327000423000725000826000A27000D95
:102F530023000F25000824001627001E2700202326
:102F6300001F27002823002B24002C24002D2400DD
:102F7300514252432500514652492500514452457E
:102F83002500514852472500514A524B25005133E1
:102F93005234533525005136523853392500513AAE
:102FA300523C533D2500513E5240534125000627D4
:102FB3000051422500513052312500513A523C25EF
:102FC3000051305232533354345535565D576125D1
:102FD300004103F6004203ED00004203EF0000420C
:102FE30003F800004103EC004103F7004103FA003A
:102FF300410353004103FB004103FC004203EA0089
:10300300004303F300000060820368010300000033
:103013000107000000010800000001090000000191
:103023000BFF73FC010CFF6DE6010CFF6DFF010C40
:10303300FF6E18010A0000000A04FF6B2E0208004D
:1030430000000209000000020BFF73FC030DFF6C7C
:1030530041030FFF733D0310FF73D40747FF6C5EFB
:103063000749FF734A074AFF73F20882FF73570940
:103073006A00000009840000006A69FF6D826A68C3
:10308300FF6D9B846FFF6DB48470FF6DCD5E05C1D2
:1030930001E602B303BB05C307CB0895099B0ADA14
:1030A30006E06AA76AA783A184AD9EFFFFFF4C05D4
:1030B300920000000000000000000000004106270D
:1030C3000042062800004101F4FF41060F004106BB
:1030D300160042061400004406109607999B410609
:1030E3000E0042062500004106230041062400008D
:1030F300AB07EBC3942074809480500AE47F01FEF5
:10310300FDFCA803800BE47F01FEFDFCEB24E0F94A
:10311300F812080B9003FE12084AEBC39420748044
:10312300948050030231EB7596519003FEA3A3A341
:10313300E0FFEF42977596529003FEE0FCA3E0FD9B
:10314300A3E0FEA3E0FF78081207F8EF4297EBC372
:10315300942474809480500E9003FEA3A3A3E054A0
:103163000FFFEF42EA22EBC3942674809480501B36
:103173009003FEE0FCA3E0FDA3E0FEA3E0FF7804E0
:103183001207F8EF5403FFEF42EB22EBFFC3942C3B
:10319300748094805037EF642A6005EF642B7012BB
:1031A3009003FEE0FCA3E0FDA3E0FEA3E0FF7804B0
:1031B30080109003FEE0FCA3E0FDA3E0FEA3E0FF8C
:1031C30078061207F8EF54CFFFEF42EC229003FE8C
:1031D300E0FCA3E0FDA3E0FEA3E0FF780C1207F8F8
:1031E300EF540FFFEF42EE227596269003FEA3A342
:1031F300A3E0FFEF42977596279003FEE0FCA3E060
:10320300FDA3E0FEA3E0FF78081207F8EF540FFFD9
:10321300EF42977596289003FEE0FCA3E0FDA3E040
:10322300FEA3E0FF78101207F8EF429775962990F6
:1032330003FEE0FCA3E0FDA3E0FEA3E0FF78181289
:1032430007F8AB07EB42979003FEE0FCA3E0FDA376
:10325300E0FEA3E0FF780212080BEF54FCFFEF42FD
:10326300EB9003FEE0FCA3E0FDA3E0FEA3E0FF7808
:10327300021207F8EF5430FFEF42EC9003FEE0FC3C
:10328300A3E0FDA3E0FEA3E0FF78041207F8EF54E8
:10329300F0FFEF42EE9003FEE0FCA3E0FDA3E0FEAF
:1032A300A3E0FF780C1207F8EF54F0FFEF42EF9022
:1032B30003FEE0FCA3E0FDA3E0FEA3E0FF7814120D
:1032C30007F8EF540FFFEF42F2EB42F722900400AE
:1032D300EFF0E4A3F0A3F01274E7A3EFF0647070CF
:1032E3000B1274ED7F2F126593027304900403E0B5
:1032F300646070057F011274E4900403E0FF7E00B4
:103303006401600DEF64326008EF643360030234DC
:103313008EEF64544E700B12749FEF6407600302C8
:10332300348E1274ED127193EF640170087F2E12C4
:1033330065930274C9900403E064547037900538B0
:10334300E0FF125DB6900401EFF0600302348E904B
:103353000538E07003023425126BAE900401EFF0E0
:10336300700A7D017F071262640234727FD3126593
:10337300930234727B017A0479021264E5900401AA
:10338300EFF06003023408900403E0640170057FEA
:1033930004024084900403E0643270057F19023410
:1033A3008B900403E06433600302348E900538E0AD
:1033B300FF125DB6900401EFF07045900538E070A0
:1033C30002805F126BAE900401EFF0702CA3E0FF5C
:1033D300125757900401EFF07015A3E09001F4F039
:1033E3007F051265939001F4E0FF12727A80057FE6
:1033F3006E1265931273E880057FD3126593806F15
:103403007F7A02348B900403E06432706C90053849
:10341300E0FF125DB6900401EFF07059900538E0BB
:10342300700C7F181265939005387401F022126BAB
:10343300AE900401EFF07032FF127147900401EF78
:10344300F0700F7F051265939001F4E0FF12726A2A
:1034530080057F6E12659390062CE07008F07F0163
:103463001274E4800A1273DE80057FD3126593E43D
:10347300900538F0227F7A800F900403E064017096
:10348300057F0402632D7F8012659322EFB407004A
:10349300400302360690349FF82828730234B4029E
:1034A30034DB02350102354C02359A0235BD023553
:1034B300E0EB7009ED42EA759617023555EB6401AE
:1034C3007009ED42EA7596170235F9EB6402600361
:1034D300023606EDF452EA22EB7008ED42EB7596E4
:1034E30018806FEB64017009ED42EB759618023595
:1034F300F9EB64026003023606EDF452EB22EB7043
:1035030008ED42EC7596198049EB64017009ED42B0
:10351300EC7596190235F9EB64027015EDF452EC73
:10352300ED54307003023606759625C4540F0235E8
:10353300EAEB64036003023606EDF452EC7596255C
:10354300ED5430C4540F429722EB700AED42EE75EE
:10355300961BED0235EAEB64017009ED42EE7596B8
:103563001B0235F9EB64027015EDF452EEED5430A5
:1035730070030236067596251313543F8069EB6476
:10358300036003023606EDF452EE759625ED5430D2
:103593001313543F429722EB7009ED42EF75961CCB
:1035A300ED8044EB64017008ED42EF75961C804694
:1035B300EB6402704EEDF452EF22EB7009ED42F230
:1035C30075961DED8021EB64017008ED42F275964E
:1035D3001D8023EB6402702BEDF452F222EB700B8F
:1035E300ED42F775961EEDF4529722EB6401700AD3
:1035F300ED42F775961EED429722EB64027004EDDF
:10360300F452F72290048B12084AE4FFFE7D807C7B
:103613003F90048BE0F8A3E0F9A3E0FAA3E0FB12E8
:10362300038D700690048B02376190048BE0FCA33A
:10363300E0FDA3E0FEA3E0FF12026DFBA3E0FCA309
:10364300E0FDA3E0FEA3E0FF12026DFFB40108E476
:10365300FFFE7D807C3F22EF64046029EB640460FD
:1036630024EBB40130E4FFFEFDFC90048FE0F8A3EB
:10367300E0F9A3E0FAA3E0FB12038D60084006E43F
:10368300FFFEFDFC2290048F120856FFFFFFFF9000
:10369300048F023761E4900493F0A3F0FFFEFDFC76
:1036A30090048BE0F8A3E0F9A3E0FAA3E0FB120394
:1036B3008D505F90048FE0FCA3E0FDA3E0FEA3E048
:1036C300FF1201EC900493EEF0A3EFF0FDCCEECCEF
:1036D300EC1201B3C8ECC8C9EDC9CAEECACBEFCB33
:1036E30090048FE0FCA3E0FDA3E0FEA3E0FF120043
:1036F300B9E4FBFAF9F812038D708A90048BE0FCAD
:10370300A3E0FDA3E0FEA3E0FF12040690048B12E6
:10371300084A90048BE0FCA3E0FDA3E0FEA3E0FFD6
:10372300123A0390048FE0F8A3E0F9A3E0FAA3E0D0
:10373300FB120287124BD890048F12084A9004940C
:10374300E030E01790048FE0FCA3E0FDA3E0FEA3CC
:10375300E0FF12040690048F12084A90048FE0FCE5
:10376300A3E0FDA3E0FEA3E0FF2290040574FFF0B5
:1037730078087C047D01FB7A76790F7E007F031243
:1037830005D49004067442F0A37464F07B017A04B8
:1037930079067D02125EFB7F2C7E01126A11900472
:1037A3000F7401F0A37404F0A37408F0A37403F07E
:1037B3007B017A047906E4FD12280A900408E06488
:1037C300427047A3E024BB601514602924F96016F6
:1037D30024FB60232406600302389B7FFF227F08BB
:1037E3001265937FFF2290062C7401F07F621265AD
:1037F300937F12800F807590062C7401F07F17124F
:1038030065937F321274E402389B900408E0FF64EE
:103813004D600AEF64466005EF6452707890040AC5
:10382300E0FB9004097005E024D0800CE024D075FF
:10383300F00AA4FFEB24D02F9001F4F0900408E0E9
:1038430024BA602824F460282405704C9001F4E025
:10385300FF7D01125B1E900405EFF070317F0512AE
:1038630065939001F4E0FF12725A802C7F08802048
:103873009001F4E0FF125757900405EFF0700F7FAB
:10388300051265939001F4E0FF12727A800A7F6E4D
:1038930012659380037F01227F00221274E7900454
:1038A3009AEFF09003FB7401F09003ECE064017075
:1038B300309003F0E004F070069003EFE004F09022
:1038C30003F8E0FEA3E0FFC39003F0E09F9003EF53
:1038D300E09E400D9003EC7402F0E49003EFF0A33C
:1038E300F09003F7E06401701B9003FAE004F0E04A
:1038F300C3940A74809480400B9003F77402F0E43D
:103903009003FAF09003FCE0D39400748094804019
:103913002A9003EBE004F070069003EAE004F090D1
:1039230003EAE0FEA3E0FFE4FCFD7B587A02F9F82A
:10393300D31207D15005E49003FCF0125F95EF70AA
:10394300030239C790049AE0FF64616077EF646013
:1039530060729003ECE06401606A126CB3EF706410
:1039630012715BEF705E90049BF09003EEE004F045
:1039730070069003EDE004F090049AE0FF64126097
:1039830014EF6413600FEF6441600AEF6432600563
:10399300EF64337011D39003EEE094C89003EDE02D
:1039A30094004017800FD39003EEE094649003EDEE
:1039B300E09400400690049B7401F090049BE06047
:1039C3000A0260BEE49003EDF0A3F0223E9248DACF
:1039D3003ECCCCCD3F2AAAAB400000003F80000084
:1039E3003F9837F03FB504F33FD744FC3E3172179D
:1039F3003EB172173F0515913EDE5BD9D2048002BA
:103A0300C204EDD2E7F8CD33EC3304700BBD80056F
:103A130092D502026202025840FBD31460F2F5F021
:103A23007C3FEE7A00C39496C8948B40230AC894D3
:103A330069C8941A401A0AC89468C8941F40110AA6
:103A4300C8945AC89425400805F07A00CDC2E7CD42
:103A5300C0F090049512084AEA2323C0E024DFF55E
:103A630082E43439F58312083A1200BDECC0E0ED6C
:103A7300C0E0EEC0E0EFC0E012081E90049512080B
:103A83002E1200B9D0E0FBD0E0FAD0E0F9D0E0B2DA
:103A9300E7F812041A90049512084A9039CF740378
:103AA3001204B790049512082E120287D0E0600F1B
:103AB30024EBF582E43439F58312083A1200BD9001
:103AC300049512084AD0E0C3947FFDE49400FC12ED
:103AD30001B37B187A727931783F1202879004958B
:103AE30012082E1200BD30040B7BD97A5B79DE7885
:103AF3003E120287227B007A007908900402E4F0E8
:103B0300A3740FF0E4FF123BF0AF08EF640160050C
:103B1300EF64027076E49003FDF07B017A00790094
:103B230090040204F0A374F4F07F01123BF07B01D4
:103B33007A0179F5900402E4F0A3748CF07F031208
:103B43003BF0D3E50B9400748094805003023BEF69
:103B53009003FDE0FFFD7C00C39464748094805067
:103B63001A75F005EFA42404F582E5F03400F5831B
:103B7300E060089003FDE004F080D5C3ED9464ECAD
:103B8300648094804066E4F50B80567E017FF47D6B
:103B9300FF7B017A007900120B737B017A007900B5
:103BA30090042A7401F0A374F4F07F01122A6E7E4C
:103BB300007F8C7DFF7B017A0179F5120B737B010A
:103BC3007A0179F590042AE4F0A3748CF07F031250
:103BD3002A6E750801750901E4F50AF50BF50CF574
:103BE3000DFB7A00790890042A122A67229003FFBA
:103BF300EBF0A3EAF0A3E9F0EF14606024FE700396
:103C0300023CB524036003023CE0E4FF127475E454
:103C1300900404F0A3F0900402E0FEA3E0FFA3E00D
:103C2300FCA3E0FDC39FEC9E4003023CE0E4FF12D3
:103C33006B6F9003FFE0FBA3E0FAA3E0F9900404A9
:103C4300E0FCA3E0F5828C83EF120652900405E0BA
:103C530004F070C2900404E004F080BAE4FF12742C
:103C630075E4900404F0A3F0900402E0FEA3E0FFE7
:103C7300A3E0FCA3E0FDC39FEC9E5061ED2418FD7F
:103C8300E43CFCE4FF126B6F9003FFE0FBA3E0FA5C
:103C9300A3E0F9900404E0FCA3E0F5828C83EF1227
:103CA3000652900405E004F070BE900404E004F0B2
:103CB30080B67F011274759003FFE0FBA3E0FAA3C3
:103CC300E0F9E490040AF0A3F0900402E0FFA3E01B
:103CD30090040CCFF0A3EFF07D01124F9922E4F989
:103CE300900402F0A3F0FEEEC3940C748094805011
:103CF3006074E52EF582E43402F583E06050EE252E
:103D0300E02416F582E43403F583E0FCA3E0FDEE42
:103D130025E024CDF582E43402F583E0FAA3E0C381
:103D23009DFDEA9CFC900400F0A3EDF0D390040306
:103D3300E09DEC6480F8900402E0648098500F905A
:103D43000400E0FDA3E0A3CDF0A3EDF0A9060E80EF
:103D530096900309E069606FE0FE25E02416F58282
:103D6300E43403F583E0FCA3E0FDEE25E024CDF588
:103D730082E43402F583E0FAA3E0C39DFEEA9C905B
:103D83000400F0A3CEF0900400E0FEA3E0FFC39094
:103D93000403E09FFF900402E09EFE900400F0A362
:103DA300EFF0E925E024A3F582E43475F583E49389
:103DB300FC740193FDD3EF9DEC6480F8EE6480986E
:103DC3004005900309E9F0AF0122900403EBF0A34F
:103DD300EAF0A3E9F0A3EDF0E4900408F090040DF9
:103DE30074FFF07E007F04FD7B017A047909120BD6
:103DF30073900406E0FD9004127401F0A37404F0C0
:103E0300A37409F0900403125396E4FFEFC3946480
:103E130074809480506475F005EFA42404F582E562
:103E2300F03400F583E0F4604EE4900408F090046D
:103E330008E0FD7C00C39404748094805033E0FE5A
:103E430075F005EFA42400F582E5F03400F583E571
:103E5300822EF582E43583F583E0FB74092EF58227
:103E6300E43404F583E0B50308900408E004F0802B
:103E7300BDED64044C60030F8092EFC394647480BF
:103E83009480502675F005EFA42404F582E5F03400
:103E930000F583E0FE900407E0FDEE6D6005ED6440
:103EA30003700790040DEFF0800690040D74FFF08B
:103EB30090040DE0FF22900403EBF0A3EAF0A3E9E2
:103EC300F0A3EDF0E4900408F0900407E0FF7E0017
:103ED3007004A3F0803CEF64024E70079004080462
:103EE300F0802F9004087402F0900408E0FFC3945C
:103EF3006474809480501B75F005EFA42404F5824C
:103F0300E5F03400F583E0F46008900408E004F081
:103F130080D7900408E0FFC3946474809480507A3F
:103F23009001F4EFF07E007F047DFF7B017A04793A
:103F330009120B73900406E0FD9004127401F0A3C0
:103F43007404F0A37409F0900403125396900408C8
:103F5300E075F005A42400F9740035F0A801FC7D98
:103F6300017B017A0479097E007F041205D4900451
:103F730007E0FFA3E075F005A42404F582E5F0341F
:103F830000F583EFF07B017A00790090042A740135
:103F9300F0A374F4F07F01022A6E7F01229005DF03
:103FA300E064017071A3E0700D7D047F051264A7C6
:103FB3007D01E4FF800C9005E0E0640270097D045C
:103FC3007F051261DA800F9005E0E0C394047480EA
:103FD30094804002B2F89005E0E004F09005F6E02A
:103FE30025E0FFE433FEEF2406FFE43EFE9005E008
:103FF300E0C39FEE6480F87480985003024083E42A
:10400300F07D047F051261DA7D01E4FF1261DA902D
:1040130005DF7404F0229005DFE06403704BA3E036
:1040230070057D01FF801D9005E0E0640170097D4E
:10403300047F051264A7800F9005E0E06403700716
:104043007D047F051261DA9005E0E004F0E0C3949B
:1040530004748094804029E4F07D047F051261DAC2
:104063007D01E4FF1261DA80119005DFE0640470E2
:104073000F7D02FF1251A1EF70069005DF7402F06D
:1040830022900404EFF012750BEF6401702F90047B
:1040930004E0FF54107026EF640860217F08126566
:1040A30093900404E024FE600E24FE600D2403605C
:1040B300030241570274BD0274C30274C9E490033E
:1040C300FCF01274FFEF64017031900404E0FFFD13
:1040D30064086027EF54107022EDF4FFE4F4FE90BF
:1040E30003F6E0FDFBEF5B6004E4F0800E90040454
:1040F300E04D9003F6F07F4B0265937F521274E418
:1041030012750E7BFF7A7079F57F037E0012614D85
:10411300900404E014602324FD602924FC602F2410
:10412300F6600D04702B9001F4E0FF126D03802103
:104133009001F4E0FF126D1D80179001F4E0FF126F
:10414300728A800D9001F4E0FF12729A8003127458
:10415300B71271E92290048BEBF0A3EAF0A3E9F024
:10416300E4900493F0A3F0D3900492E094009004BD
:1041730091E064809480500302421190048BE0FB31
:10418300A3E0FAA3E0F9900493E0FEA3E0F5828EA6
:10419300831206136010900494E004F070DD900421
:1041A30093E004F080D590048EE0FBA3E0FAA3E053
:1041B300F91205FA603E90048EA3E475F00112062D
:1041C300D2A9F0FA1205FAFF90048BE0FBA3E0FA00
:1041D300A3E0F9900493E475F0011206D285F0820E
:1041E300F583EF12065290049174FFF5F01206BCAA
:1041F30045F070B290048BE0FBA3E0FAA3E0F990E2
:104203000493E0FEA3E0F5828E83E4120652900449
:104213008BE0FBA3E0FAA3E0F922E4900401F0C2EF
:104223000112001EE4900400F0900400E0C3940C1B
:104233007480948040030242D630030343AD1020C0
:10424300000575910780F8C200AFACEFFEADABED92
:10425300FF900400E0FD25E02416F582E43403F525
:1042630083EEF0A3EFF0EDC3940B74809480502D94
:10427300ED25E024B7F582E43402F583E0FEA3E004
:10428300F5CA53CC7FEE5401C313E41342CC53CC91
:10429300C0ED90752D93543F42CC75C90190040035
:1042A300E0FF1221B2900400E0FF12492B900400BA
:1042B300E0FF1258AD30010F900309E0F47008904D
:1042C3000400E0900309F0200212900400E004F0DF
:1042D30002422C20010690030974FFF022C2012040
:1042E300046D907526E493FD700D9075E993C313E7
:1042F300FF74019313801575F002EDA424E7F58292
:10430300E5F03475F583E493FF7401939003FECFD6
:10431300F0A3EFF0E49003FDF09003FDE0C3940CF1
:10432300748094805071E0FF24E5F582E43402F553
:1043330083E4F0C2059003FEE0FDA3E0900401CD09
:10434300F0A3EDF0121E269003FDE004F080CA9066
:104353007529E493FD700D9075E993C313FF740100
:104363009313801575F002EDA424E7F582E5F0348C
:1043730075F583E493FF7401939003FECFF0A3EFED
:10438300F0D2059003FEE0FFA3E0900401CFF0A379
:10439300EFF0E4FF121E2690030974FFF02290044D
:1043A30023EBF0A3EAF0A3E9F0E490042AF07F2ED4
:1043B300FE12711F53FBFDE4F5FAF5FE7596585393
:1043C30097EF53FBEF43FC40FF900429E0FEEFC35C
:1043D3009E5064E4A3F074FFFDFCED1DAA0470017C
:1043E3001C4A6029E5FB30E4F1E5FB548070EB9057
:1043F3000423E0FBA3E0FAA3E0F98F82758300E5D1
:10440300FA12065253FBEF90042A7401F053FB7F18
:1044130053FBDFE5FE601D900423E0FBA3E0FAA35A
:10442300E0F98F82758300E5FA12065290042A742C
:10443300ACF080030F809253FCBF43FB0290042A2D
:10444300E064AC700F900426E0FBA3E0FAA3E0F96C
:10445300EF12064090042AE0FF2253CCBFA204E4EB
:1044630033C43333544042CC300403024515E49043
:104473000402F090062DE0FF900402E0C39F400386
:10448300024515E0FF75F002A424B5F582E5F0348A
:1044930002F583E0FCA3E0FDEF90752C93FF126619
:1044A3006B900402E0FD75F002A42416F582E5F09A
:1044B3003403F583EEF0A3EFF075F002EDA42416B8
:1044C300F582E5F03403F583E0FEA3E0FF75F00227
:1044D300EDA424CDF582E5F03402F583EEF0A3EFED
:1044E300F075F002EDA42416F582E5F03403F583AC
:1044F300E0FEA3E0FF75F002EDA424F1F582E5F000
:104503003402F583EEF0A3EFF0900402E004F0022E
:1045130044762290040AEBF0A3EAF0A3E9F09004B6
:1045230011EFF0A37470F0E4FF900410E0FEEFC30A
:104533009E502390040AE0FBA3E0FAA3E0F98F82E4
:10454300758300120613FE74132FF582E43404F509
:1045530083EEF00F80D37B017A047911900410E08D
:104563002402900421F07F01126469900410E0FC9E
:104573002413F582E43404F583EFF0EEFF74142C76
:10458300F582E43404F583EFF07B017A047911902A
:104593000410E02404FD1247D8EF640160037F0197
:1045A300229004267401F0A37404F0A37411F0A301
:1045B3007403F090040DE0FBA3E0FAA3E0F91243C7
:1045C300A1EF64017F0060027F0122900400EBF001
:1045D300A3EAF0A3E9F078037C047D017BFF7A76FC
:1045E30079037E007F061205D47596585397FB7B9B
:1045F300017A047903126076EF60037F012290044D
:1046030003E054C0C41313540375F003A4240464D7
:104613000460037F01227B017A0479037D017F9388
:10462300124A6AEF60037F0122900400E0FBA3E0DB
:10463300FAA3E0F8AC02AD037B017A0479037E00B0
:104643007F051205D490040D7401F0A37404F0A344
:104653007403F0A37405F0900400E0FBA3E0FAA355
:10466300E0F97F93124516EF60037F012290040364
:10467300E054247F017001FF22900404EBF0A3EACD
:10468300F0A3E9F0E4FFFEEFC3940A748094805032
:1046930015EF75F00EA424F5F582E43401F583E0FB
:1046A300F460030F80E1EFC3940A74809480507424
:1046B3009001F4EFF075F00EA424F5F582E43401D3
:1046C300F583EFF075F00EA424F6F582E43401F5DA
:1046D30083EDF0E4FEEEC3940C748094805031902B
:1046E3000404E0FBA3E0FAA3E0F98E8275830012D1
:1046F3000613FDEF75F00EA424F7F582E43401F5FB
:1047030083E5822EF582E43583F583EDF00E80C5D3
:104713007B017A0179F590042AE4F0A3748CF07F8D
:1047230003022A6E7F01227B01E0FCA3E0FD9004DB
:104733008BEBF0A3EAF0A3E9F0A3ECF0A3EDF0E434
:10474300A3F0A3F09004907413F0900490E0FD7C28
:1047530000C3940A74809480407A90048EE0FEA390
:10476300E0FF120686AF05900492EFF0D39409742C
:104773008094804004E024F6F0900492E0FF9004DB
:1047830091E0FD90048BE0FBA3E0FAA3E0F912654E
:104793005AEF6014900492E004F0E0D3940974801B
:1047A300948040D5E4F080D1900492E0FF90048B94
:1047B300E0FBA3E0FAA3E0F9900491E0F5827583AE
:1047C30000EF120652900491E004F0900490E0147C
:1047D300F002474D22900423EBF0A3EAF0A3E9F0A3
:1047E300A3EDF07596585397FDE0600464017023C0
:1047F300900423E0FBA3E0FAA3E0F91205FAF5F92C
:1048030053FCC1900426E0FF25E0543E42FC43FCE8
:1048130001806B900423E0FBA3E0FAA3E0F9120507
:10482300FAF5F9900001120613F5FA53FCC190044E
:1048330026E0FF25E0543E42FC43FC01126C977DC9
:1048430002900426E0FEEDC39E5033ED9004233026
:10485300E014E0FBA3E0FAA3E0F98D827583001274
:104863000613F5FA8012E0FBA3E0FAA3E0F98D82C8
:10487300758300120613F5F9126C970D80C3126C41
:1048830097229005DFE0640260030249277D02FF5F
:104893001251A1EF640160030249279005E2E07021
:1048A300139005F6F01274339005E17401F0E4906F
:1048B30005DFF022E4900499F09005DF04F0900501
:1048C300E2E09005F6F0E4900499F0900499E0FF9B
:1048D3003395E0FEC3EF9413EE64809480502B7401
:1048E300E32FF58274053EF583E0FF601D90049984
:1048F300E0FD3395E0FC74E22DF58274053CF5830D
:10490300EFF0900499E004F080C1900499E0FF3344
:1049130095E0FE74E22FF58274053EF583E4F09092
:1049230005E0F022123FA02274812FF582E43402C5
:10493300F583E07049742E2FF582E43403F583E4A4
:10494300F074A92FF582E43402F583E004F074A92E
:104953002FF582E43402F583E0FE9075E8E493FDDD
:10496300EED39D406474A92FF582E43402F583E409
:10497300F074E52FF582E43402F583E4F02274A9A0
:104983002FF582E43402F583E4F0742E2FF582E4EC
:104993003403F583E004F0742E2FF582E43403F539
:1049A30083E0FE9075E7E493FDEED39D401B742EE8
:1049B3002FF582E43403F583E4F074E52FF582E404
:1049C3003402F5837401F0D2012275962B5397F8C4
:1049D300900409E05407429753CDF3A3E025E02563
:1049E300E0540C42CD53CDFDA3E025E0540242CD6B
:1049F30053CDFEA3E0540142CD53CBBFA3E0C43358
:104A030033544042CB53CCBFA3E0C433335440426E
:104A1300CC75962B5397C7A3E0333333543842975F
:104A230053CD8FA3E0C4547042CD53CBC0A3E05405
:104A33003F42CB53ADDFA3E0C433542042AD759660
:104A43002D5397FDE4F5C953F1DF900414E064019D
:104A5300701153F6DF900413E0C43354E042F6437D
:104A6300E6202253E6DF22900409EFF0A3EDF0A342
:104A7300EBF0A3EAF0A3E9F0780E7C047D017BFF61
:104A83007A7579F97E007F0A1205D4900409E090C3
:104A93000418F0A37420F07B017A0479187D0212C4
:104AA30047D8EF640160037F01229004267401F06C
:104AB300A37404F0A37422F0A37405F07B017A04B9
:104AC30079181243A1EF64017031FEEEC3940574AB
:104AD300809480502374182EF582E43404F583E027
:104AE300FD90040BE0FBA3E0FAA3E0F98E8275834B
:104AF30000ED1206520E80D37F0022EF7F0070027A
:104B03007F012278087C047D017BFF7A7679127E0F
:104B1300007F021205D4900406744AF0A37464F073
:104B23007B017A0479067D02125EFB7F2C7E0112E3
:104B33006A1190040F7401F0A37404F0A37408F0D5
:104B4300A37402F07B017A047906E4FD12280A902B
:104B53000408E0FEB44A08A3E0B445037FFF22EE55
:104B6300B44A0A900409E0B430037F002290040899
:104B7300E0B44A08A3E0B431037F0122900408E0C3
:104B8300FEB44A08A3E0B432037F0222EEB44A0A19
:104B9300900409E0B433037F03227FFF2233DA92C8
:104BA3009E35B16011377FE5FE392184893AAEC362
:104BB300FF3C1D955B3D6358473E75FDF03F3172E9
:104BC300183F800000C2D5020262020258BD80FA7B
:104BD30050F302025FED33EC330460F17B3B7AAABE
:104BE30079B8783F120287ED33EC3392D5247B50AA
:104BF30011A2D570DB500BED448024045004A2D5E0
:104C030080CEEFFBEEFAEDF9ECF81201ECEFF58252
:104C1300F404FC1201B81200BDC082904BA07409C9
:104C23001204C6ED33CC33D0F092D525F0A2D57063
:104C330001C313CC13FD22E4900400F0A3F012711E
:104C43006FEF64017002FF229005BFE075F003A4CB
:104C5300249EF582E43405F583E01206409005BFF7
:104C6300E0FF75F003A4249FF582E43405F583E0A7
:104C7300900001120652EF75F003A424A0F582E41C
:104C83003405F583E09000021206529005BFE0FF61
:104C930075F003A4249EF582E43405F58374FFF0D4
:104CA300EF75F003A4249FF582E43405F58374FFC4
:104CB300F0EF75F003A424A0F582E43405F58374C2
:104CC300FFF01271A59005BFEFF07F012290752BC5
:104CD300E49390062DF0E49003FDF090062DE0FFA1
:104CE3009003FDE0FEC39F5077E0FF25E0244CF5E1
:104CF30082E43475F583E493FC740193FD75F0024B
:104D0300EFA424B5F582E5F03402F583ECF0A3EDCE
:104D1300F0EE90752C93FF1230F39003FDE0FF75D6
:104D2300F002A42416F582E5F03403F583E4F0A33E
:104D3300F075F002EFA424CDF582E5F03402F5839B
:104D4300E4F0A3F075F002EFA424F1F582E5F0346A
:104D530002F583E4F0A3F09003FDE004F0024CDEDF
:104D6300229003FD74FFF0A3F01272C8EF64017088
:104D730020127396EF701A1271C7EF700F900537F8
:104D8300E0700E04F07F02126AA38005E4900537F9
:104D9300F01274E19003FDEFF0F4601EE0FF125B8C
:104DA300839003FEEFF0F46011E0651B600FE0FBFE
:104DB300F51BE4FDFF126AA68003751BFF1274F353
:104DC300EF60057F04126AA31271D8EF6008E4FB59
:104DD300FD7F03126AA61272E6EF6008E4FBFD7F13
:104DE30005126AA61272D7EF6008E4FBFD7F061274
:104DF3006AA622900407EBF0A3EAF0A3E9F0A3ED7F
:104E0300F0E4FFEFC3940A748094805047E4FEEE0D
:104E1300C3940C748094805033900407E0FBA3E0A8
:104E2300FAA3E0F98E82758300120613FDEF75F085
:104E33000EA424F7F582E43401F583E5822EF5828E
:104E4300E43583F583E0B505030E80C3EE640C609F
:104E5300030F80AFEFC3940A74809480501FEF75E3
:104E6300F00EA424F6F582E43401F583E0FE900409
:104E73000AE0FDEE6D6008ED64037001227FFF22FE
:104E8300787FE4F6D8FD758120024ECA025C4BE4BC
:104E930093A3F8E493A34003F68001F208DFF480C0
:104EA30029E493A3F85407240CC8C333C4540F4410
:104EB30020C8834004F456800146F6DFE4800B01EA
:104EC30002040810204080902ED1E47E019360BC40
:104ED300A3FF543F30E509541FFEE493A360010E82
:104EE300CF54C025E060A840B8E493A3FAE493A3A9
:104EF300F8E493A3C8C582C8CAC583CAF0A3C8C5CA
:104F030082C8CAC583CADFE9DEE780BE12720A120D
:104F130074101267681267C812699C126888125F5E
:104F2300E11268287B027D087F0512348F7D087F9C
:104F3300051261DAE4FB7D407F0612348F7B027D2C
:104F4300107F0212348F7D107F021264A77B027DD3
:104F5300087F0212348F7D087F021264A7E4FB7D71
:104F6300207F0612348FE4FB7D107F0312348FE41D
:104F7300FB7D207F0312348FE4FB7D407F031234DB
:104F83008FE4FB7D807F0312348F127441126F7B99
:104F9300126B0D0273AC900406EBF0A3EAF0A3E9E5
:104FA300F0ED90040B600CE02400FE90040AE03462
:104FB30046800AE02400FE90040AE0344490040E84
:104FC300F0A3CEF0C2AFE4FDFCD390040DE09D90BE
:104FD300040CE09C403A75D28890040EE0FAA3E0FA
:104FE300FBEAF5CEEBF5CF900406E0FBA3E0FAA3D2
:104FF300E0F98D828C83E5D412065290040FE0040D
:10500300F0700690040EE004F00DBD00010C80B9B1
:10501300E4F5D2F5CEF5CFD2AF22E4FE900405F04D
:10502300A3741AF09003F2EFF07F147D007B017AF2
:10503300037954120B73E49003F1F0FE900406E03D
:10504300FFEEC39F5057EE75F005A42468F582E484
:105053003403F583E0FF9003F2E0FDEF6D703B90C6
:105063000405E0FF25E02454F582E43403F583EEE0
:10507300F075F005A42469F582E43403F583E0FDBB
:10508300EF25E02455F582E43403F583EDF0900435
:1050930005E004F09003F1E004F00E809F229004F9
:1050A30026EBF0A3EAF0A3E9F0E4FF90042CF0EF81
:1050B300C39404748094805060900426E0FBA3E0C2
:1050C300FAA3E0F98F82758300120613FEF4604998
:1050D300EE54F0C4540FFD900429E0FBA3E475F0F3
:1050E300011206D2A9F0FAED12064090042CE00456
:1050F300F0EE540F640F6021EE540FFD900429E08D
:10510300FBA3E475F0011206D2A9F0FAED120640F2
:1051130090042CE004F00F809690042CE0FF2253BF
:10512300C4FC53C4F343C40453C4BF43C44053C473
:10513300CF43C43053C47F43C48053C38143C30E9E
:1051430053C38143C30C75963253978343977C753E
:1051530096325397FC4397037596425397FC4397B4
:105163000275C1FF7596425397F3439704759642B0
:105173005397EF4397107596425397DF126B4F7512
:10518300965343970143F78075962A43974043F715
:105193004075962D5397FE75962D43970122EFB4D4
:1051A300070050759051AEF82828730251C302517D
:1051B300D00251DD0251EA0251F7025204025211A8
:1051C300E5F85D7F0060027F01AE07804CE5805DFE
:1051D3007F0060027F01AE07803FE5905D7F006046
:1051E300027F01AE078032E5B05D7F0060027F0180
:1051F300AE078025E5C05D7F0060027F01AE0780BA
:1052030018E5C85D7F0060027F01AE07800BE5D81B
:105213005D7F0060027F01AE07AF062212531A9032
:105223000401EFF0900626E004F07006900625E0F6
:1052330004F0EF640170121274E7EF6461700312FB
:1052430071817F081240848043900401E06402600E
:105253000FD3900626E0941E900625E09400403478
:105263001274E7EF64617003127181900401E064CA
:105273000270077F2212659380121274E7EF6401B4
:10528300700A7F081265937F601274E4E490062528
:10529300F0A3F0227F0112722A2290751DE49390ED
:1052A30003FDF090751EE4939003FEF090751FE4E8
:1052B300939003FFF0907520E493900400F09075B1
:1052C30021E493900401F0907522E493900402F09A
:1052D300907525E493900403F0907526E49390046D
:1052E30004F0907527E493900405F0907523E493FC
:1052F300900406F0A37401F0907524E493900408DD
:10530300F078097C047D017B017A0379FD7E007FBF
:105313000C1205D40249CD78047C047D017BFF7A0D
:1053230076790D7E007F021205D4900402744BF04F
:10533300A37464F07B017A0479027D02125EFB7F21
:105343002C7E01126A1190040F7401F0A37404F00F
:10535300A37404F0A37402F07B017A047902E4FDE0
:1053630012280A900404E0FEB44B08A3E0B44F03F0
:105373007F0122EEB44B0A900405E0B445037F029B
:1053830022900404E0B44B08A3E0B44B037F032250
:105393007F0022E0FBA3E0FAA3E0F990040EEBF018
:1053A300A3EAF0A3E9F0A3EDF0E4FC900415F09078
:1053B3000411E0FDECC39D505590040EE0FBA3E007
:1053C300FAA3E0F9AF048F82758300120613540F1A
:1053D300900415F00C900411E0FFECC39F500D8C6A
:1053E30082758300120613540FFE80027E0F900411
:1053F30015E0C454F04EFF900412E0FBA3E475F0F3
:10540300011206D2A9F0FAEF1206400C80A12290F5
:10541300049FEFF0E4A3F09005DFE070227D02FF2C
:105423001251A1EF640170179005DF04F090049FFF
:10543300E09005F6F0E49005E0F01271FA8048E49C
:105443009004A0F09004A0E0FFFD7C00C3941474CA
:10545300809480501574E22FF582E43405F583E0DF
:1054630060089004A0E004F080DAC3ED9414EC64C7
:10547300809480501290049FE0FFA3E024E2F58221
:10548300E43405F583EFF07F01229004047401F006
:105493008058900404E0FFC3946474809480504F58
:1054A30075F005EFA42404F582E5F03400F583E0FC
:1054B30064017033900404E075F005A42404F582BC
:1054C300E5F03400F58374FFF0900004C083C082DC
:1054D300FDEF75F005A42400F9740035F0FA7B01A3
:1054E300D007D006120B73900404E004F080A37B72
:1054F300017A00790090042A7401F0A374F4F07F18
:1055030001022A6EE4900404F09005DFE0700B7D45
:1055130002FF1251A1EF64016061127433E490043D
:1055230004F0900404E0FFFD3395E0FCC3ED941414
:10553300EC648094805019EF3395E0FE74E22FF50C
:105543008274053EF583E4F0900404E004F080D215
:105553009005E0E0C39404748094804010E49005C7
:10556300F6F09005DF7403F0E4A3F0800BE49005FC
:10557300F6F09005DF7403F01271FA22900434EC14
:10558300F0A3EDF0A3EBF0AA0775965BAD97C2AF5E
:10559300E4F5CFF5CEEA25E025E042CE900434E0F1
:1055A300FEA3E0F5CFEE540342CEA3E0F5D175D2CE
:1055B3006900000000E4F5CFF5CEAF05EDAF029032
:1055C3000434700CE0FCA3E0FD126B6FA907800AA2
:1055D300E0FCA3E0FD126972A907900436E0B5016F
:1055E30006A37401F08005E4900437F0D2AF900471
:1055F30037E0FF229003F2E0640170057F0102743B
:10560300E4E4900403F0A3741AF0E4900403F0902C
:105613000404E0FF900403E0FEC39F5039EE75F0ED
:1056230005A42469F582E43403F583E0FF9003F2D3
:10563300E0FEEFB50618900403E075F005A42468B6
:10564300F582E43403F583E09003F2F080089004DC
:1056530003E004F080B99003F2E0FF12501D9003C1
:10566300F2E0FF12660112659322900404EFF0E06A
:105673002410F582E43406F583E024F96025246ED2
:10568300603124FE6037240570437F4E1265931208
:105693007505EF60057F25126593E4900614F0A36A
:1056A300F0802A1274817F17126593127505EF60DB
:1056B3001C80157F7712659312736480107F4F12DD
:1056C3006593127505EF60057F25126593900404B9
:1056D300E02410F582E43406F583E0900616F02208
:1056E300E4FF90062DE0FEEFC39E506374462FF552
:1056F30082E43403F583E4F074992FF582E43402F1
:10570300F583E4F0743A2FF582E43403F583E4F08F
:10571300748D2FF582E43402F583E4F074A92FF538
:1057230082E43402F583E4F0742E2FF582E434032B
:10573300F583E4F074812FF582E43402F583E4F019
:1057430074E52FF582E43402F583E4F00F8093E4EB
:10575300FF026106EFC3940A748094805066EF756C
:10576300F00EA424F5F582E43401F583E06F705460
:10577300EF75F00EA424F5F582E43401F58374FF8C
:10578300F0EF75F00EA424F6F582E43401F583748A
:10579300FFF090000CC083C082FDEF75F00EA424CF
:1057A300F7F9740135F0FA7B01D007D006120B73B9
:1057B3007B017A0179F590042AE4F0A3748CF07FDD
:1057C30003022A6E7F0122127419C2041242E0906E
:1057D3007526E49375F002A424E9F582E5F03475A7
:1057E300F583E493FE740193FFE4FCFD7803120850
:1057F3000BE47B0AFAF9F81207249002A7EEF0A350
:10580300EFF0907526E49375F002A424E9F582E5A0
:10581300F03475F583E493FE740193FF907590E47F
:1058230093FD7C001208B3E47B0AFAF9F81207240B
:105833009002A5EEF0A3EFF022E4900404F0F090C0
:105843000404E0FFC3940A748094805049E0FE7519
:10585300F00EA424F6F582E43401F58374FFF0EE30
:1058630075F00EA424F5F582E43401F58374FFF09A
:1058730090000CC083C082FDEF75F00EA424F7F9ED
:10588300740135F0FA7B01D007D006120B73900434
:1058930004E004F080A97B017A0179F590042AE4FD
:1058A300F0A3748CF07F03022A6EC202EF25E0247A
:1058B30016F582E43403F583E0FCA3E0FD9002A730
:1058C300E0FAA3E0FBC3ED9BEC9A5020EF25E02424
:1058D30016F582E43403F583E0FEA3E0FF9002A50E
:1058E300E0FCA3E0FDC3EF9DEE9C5028900352E043
:1058F30004F0E0C3940A748094804018E4F0D20268
:10590300F5C953F1DFC200C20190030974FFF0C26D
:105913000412445D2278047C047D017BFF7A76794E
:10592300097E007F021205D49004027449F0A37427
:1059330064F07B017A0479027D02125EFB7F327E82
:1059430000126A1190040F7401F0A37404F0A3749D
:1059530004F0A37402F07A04790212280690040476
:10596300E0FEB44908A3E0B44F037F0122EEB4493B
:105973000A900405E0B445037F02227F00229004CD
:1059830003EFF0640A702A127505EF602490061481
:10599300E07002A3E0700590060E801190060EE001
:1059A30004F0E0D39402748094804005E4F0127212
:1059B300F5900403E0FF7E007401A807088005C387
:1059C30033CE33CED8F9FF900614E04EFEA3E04F5A
:1059D300FF900614EEF0A3EFF0BE0F0ABFFF077DA2
:1059E300017F961262642290048BEBF0A3EAF0A38A
:1059F300E9F0E4900493F0A3F090049174FFF5F0C0
:105A03001206D245F0603C90048EE0FBA3E0FAA3BB
:105A1300E0F91205FAFF90048BE0FBA3E0FAA3E0A0
:105A2300F9900493E475F0011206D285F082F583B0
:105A3300EF120652EF60C290048FE475F001120674
:105A4300BC80B690048BE0FBA3E0FAA3E0F9227ECE
:105A5300017FF47DFF7B017A007900120B737B01D8
:105A63007A00790090042A7401F0A374F4F07F01A2
:105A7300122A6E7E007F8C7DFF7B017A0179F512FD
:105A83000B737B017A0179F590042AE4F0A3748CFB
:105A9300F07F03122A6E750801750901E4F50AF512
:105AA3000BF50DFB7A00790890042AF0A3740FF02C
:105AB300E4FF022A6EE4900401F0900626E004F06D
:105AC3007006900625E004F0125918900401EFF0D7
