:1000000002394602008EE4FF0259CC02519BE4FF04
:10001000025917020096E4FF0259EF025384E4F5F7
:10002000C9C20053F1DF900412E0FEA3E0F5CA5309
:10003000CC7FEE5401C313E41342CC53CCC0906385
:10004000A9E493543F42CC75C9012202009EE4FF0B
:10005000025A120200861263917F2A1254317F01E4
:100060000263170262ED53E1DF323202007253E1A4
:10007000F732320250977F901254311258817F41EB
:0A00800002631702634153F1F732E7
:07008B000251D95388FD3238
:0700930002006E5388F732F2
:07009B0002006A53F1FB3281
:0700A30002006653E1BF32C9
:0700AB000200A653E17F32C1
:1000B3000200AEEC4D6011E8497017ED33EC3304E8
:1000C300600DE4FCFFFEFD22E933E8330470F8021F
:1000D30002A812027358046009E4CC248150062854
:1000E30050090202B22840030202AFC0E0EB4A709B
:1000F30044B98006D0E0FB02029EEF4E701CBD8027
:1001030008EBFFEAFEE9FD80EBE98DF0A4FEE5F0E4
:1001130002019FE9CDF9EAFEEBFFEF89F0A4FCE5CC
:10012300F0CE89F0A42EFFE435F0CD89F0A42DFEA6
:10013300E435F08067EF4E7005BD80D780C3EF8B49
:10014300F0A4ACF0EE8BF0A42CFCE435F0F8EF8ACD
:10015300F0A42CE5F038FCE433CB8DF0A42CFCE5C3
:10016300F03BF8EE8AF0A42CFCE5F038F8E433CF4A
:1001730089F0A42CFCE5F038CF3400CE89F0A42F0D
:10018300FFE5F03EFEE433C98DF0A42EFEE5F03921
:10019300CD8AF0A42FFFE5F03EFEE43DFD33D0E031
:1001A300FB50070BBB000F0202B2EC2CFCEF33FF3A
:1001B300EE33FEED33FD02028A74F8CC6480CCC8C2
:1001C3006480C8F58204604FC3EB9FF5F0EA9E425A
:1001D300F0E99D42F0E89C45F0603C501DE5825FEC
:1001E300FFE582D313CB5BCBF42B5582FB50280A5C
:1001F300BA002409B9002008801DE5825BFBE58273
:10020300D313CF5FCFF4C3132F5582FF50090EBE14
:1002130000050DBD00010CC3EB9FF5F0EA9E42F013
:10022300E99D42F0E89C45F06007CC4820E701B324
:10023300EC2275F020800E75F010800575F0087DB6
:10024300007E007F003392D530D50312059BEC333B
:100253004010EF33FFEE33FEED33FDEC33FCD5F00E
:10026300ED22E5F0247EA2D513CC92E7CDCEFF227A
:10027300E9D2E7C933E833F892D5EDD2E7CD33ECD1
:1002830033FC5002B2D522EC30E7100FBF000C0E46
:10029300BE00080DBD00040BEB6014A2D5EB13FCEC
:1002A300ED92E7FD2274FFFCFDFEFF22E480F8A23D
:1002B300D574FF13FC7D80E480EFE709F608DFFACD
:1002C3008046E709F208DFFA803E88828C83E709DB
:1002D300F0A3DFFA8032E309F608DFFA8078E30956
:1002E300F208DFFA807088828C83E309F0A3DFFAD7
:1002F300806489828A83E0A3F608DFFA80588982C2
:100303008A83E0A3F208DFFA804C80D280FA80C6A9
:1003130080D4806980F28033801080A680EA809A3E
:1003230080A880DA80E280CA803389828A83ECFAEB
:10033300E493A3C8C582C8CCC583CCF0A3C8C58247
:10034300C8CCC583CCDFE9DEE7800D89828A83E4EC
:1003530093A3F608DFF9ECFAA9F0EDFB2289828A70
:1003630083ECFAE0A3C8C582C8CCC583CCF0A3C88C
:10037300C582C8CCC583CCDFEADEE880DB89828A0C
:1003830083E493A3F208DFF980CC88F0EF60010ED9
:100393004E60C388F0ED2402B4040050B9F582EB3B
:1003A3002402B4040050AF232345822390030D732A
:1003B300BB010689828A83E0225002E722BBFE0248
:1003C300E32289828A83E49322BB010CE58229F527
:1003D30082E5833AF583E0225006E92582F8E62296
:1003E300BBFE06E92582F8E222E58229F582E58350
:1003F3003AF583E49322BB010689828A83F0225073
:1004030002F722BBFE01F322F8BB010DE58229F5B9
:1004130082E5833AF583E8F0225006E92582C8F69F
:1004230022BBFE05E92582C8F222EF8DF0A4A8F0D5
:10043300CF8CF0A428CE8DF0A42EFE22C2D5EC30B2
:10044300E709B2D5E4C39DFDE49CFCEE30E715B2A9
:10045300D5E4C39FFFE49EFE12087CC3E49DFDE444
:100463009CFC800312087C30D507C3E49FFFE49E05
:10047300FE22C5F0F8A3E028F0C5F0F8E582158266
:1004830070021583E038F022A3F8E0C5F025F0F000
:10049300E582158270021583E0C838F0E822BB01BB
:1004A3000A89828A83F0E5F0A3F0225006F709A7B0
:1004B300F01922BBFE06F3E5F009F3192275F008E3
:1004C300758200EF2FFFEE33FECD33CDCC33CCC599
:1004D3008233C5829BED9AEC99E58298400CF582B4
:1004E300EE9BFEED9AFDEC99FC0FD5F0D6E4CEFB26
:1004F300E4CDFAE4CCF9A88222B800C1B90059BA14
:10050300002DEC8BF084CFCECDFCE5F0CBF9781841
:10051300EF2FFFEE33FEED33FDEC33FCEB33FB103B
:10052300D703994004EB99FB0FD8E5E4F9FA227855
:1005330018EF2FFFEE33FEED33FDEC33FCC933C967
:1005430010D7059BE99A4007EC9BFCE99AF90FD871
:10055300E0E4C9FAE4CCFB2275F010EF2FFFEE3391
:10056300FEED33FDCC33CCC833C810D7079BEC9AD0
:10057300E899400AED9BFDEC9AFCE899F80FD5F059
:10058300DAE4CDFBE4CCFAE4C8F922CFF4CFCEF41D
:10059300CECDF4CDCCF4CC22C3E49FFFE49EFEE4A5
:1005A3009DFDE49CFC22EB9FF5F0EA9E42F0E99D61
:1005B30042F0EC6480C864809845F022EB9FF5F02C
:1005C300EA9E42F0E99D42F0E89C45F022E8600F84
:1005D300ECC313FCED13FDEE13FEEF13FFD8F12272
:1005E300E8600FEFC333FFEE33FEED33FDEC33FC76
:1005F300D8F122ECF0A3EDF0A3EEF0A3EFF022A8E4
:10060300828583F0D083D08212061912061912064E
:1006130019120619E473E493A3C583C5F0C583C80F
:10062300C582C8F0A3C583C5F0C583C8C582C822E7
:10063300BB010789828A830206025005E9F8020892
:10064300D1BBFE05E9F80208EA22D083D082F8E4A0
:10065300937012740193700DA3A393F8740193F52F
:10066300828883E4737402936860EFA3A3A380DF9B
:100673008A838982E473EC8EF0A4CCC5F0CCCDF8E8
:10068300EFA4CEC5F02DFDE43CFCE8A42EC8C5F0D4
:100693003DFDE43CFCEFA4FFE5F028FEE43DFDE472
:1006A3003CFC22E3F5F009E208B5F06BDFF5806767
:1006B300E3F5F009E608B5F05EDFF5805A87F00947
:1006C300E608B5F052DFF6804E87F009E208B5F090
:1006D30046DFF6804288828C8387F009E0A3B5F079
:1006E30036DFF6803288828C8387F009E493A3B5E2
:1006F300F025DFF5802188828C83E3F5F009E0A300
:10070300B5F014DFF5801088828C83E3F5F009E4FB
:1007130093A3B5F002DFF40207D5808780E98090C8
:1007230080D4803E8015806E807E809D80B7808DD2
:1007330080A380518074803C0207E189828A83EC24
:10074300FAE493F5F0A3C8C582C8CCC583CCE4937F
:10075300A3C8C582C8CCC583CCB5F076DFE3DEE1A0
:10076300807089828A83E493F5F0A3E208B5F0628E
:10077300DFF4805E89828A83E0F5F0A3E608B5F0B2
:1007830051DFF5804D89828A83E0F5F0A3E208B555
:10079300F040DFF5803C89828A83E493F5F0A3E699
:1007A30008B5F02EDFF4802A8002805789828A837D
:1007B300ECFAE493F5F0A3C8C582C8CCC583CCE0BA
:1007C300A3C8C582C8CCC583CCB5F006DFE4DEE29E
:1007D30080007FFFB5F0020F2240027F0122898251
:1007E3008A83ECFAE0F5F0A3C8C582C8CCC583CCF4
:1007F300E0A3C8C582C8CCC583CCB5F0D5DFE5DEA0
:10080300E380CF89828A83ECFAE0F5F0A3C8C5823E
:10081300C8CCC583CCE493A3C8C582C8CCC583CC5C
:10082300B5F0AFDFE4DEE280A988F0EF60010E4EA1
:1008330060ABED2402B404005098F582EB2402B4BB
:100843000400508E232345822390071D73EF4E60CF
:1008530012EF60010EEDBB010B89828A83F0A3DFE7
:10086300FCDEFA2289F05007F709DFFCA9F022BB6E
:10087300FEFCF309DFFCA9F022BC000BBE0029EF4C
:100883008DF084FFADF022E4CCF875F008EF2FFF74
:10089300EE33FEEC33FCEE9DEC984005FCEE9DFE42
:1008A3000FD5F0E9E4CEFD22EDF8F5F0EE8420D289
:1008B3001CFEADF075F008EF2FFFED33FD400798F8
:1008C3005006D5F0F222C398FD0FD5F0EA22D0836B
:1008D300D082E493F608740193F608740293F60841
:1008E300740393F6740473D083D082E493F2087490
:1008F3000193F208740293F208740393F27404737D
:10090300900602EFF012631D900603EFF012064DFE
:100913000965010965020965120965130D6E140D58
:100923006E150D6E160D46220D46230D6E240D6EAB
:10093300250D6E260D46320D46330D6E340D6E3584
:100943000D6E360965410965420D54430D54440D3E
:100953006E500DFB530E20540E80600E8570000008
:100963000E8A126019EF640170081263647F2E020D
:100973000E879006C6E07050900602E0640A702A63
:10098300A3E064417003020E8A126095900603E0AF
:10099300FD7C00640170057F60020E82ED64024CF1
:1009A3006003020DF87F01020E82900602E0640BE1
:1009B3007016A3E064016003020E8A1260957F8AB9
:1009C3001254317F02020E82126095900602E06497
:1009D3000A6003020AA09006C5E0FF7E00700FA321
:1009E300E0FD14F074C72DF582E434068015EF643E
:1009F300014E70149006C6E0FF14F074CF2FF582F9
:100A0300E43406F58374FFF09006C6E06003020E3B
:100A13008A900603E0640270057F8A020E879006BF
:100A2300C5E07037900603E0641270057F5D020E27
:100A330087900603E0641370057F78020E879006A3
:100A430003E0644170057F90020E87900603E06423
:100A5300426003020E8A7F5D020E879006C5E06442
:100A6300016003020E8A900603E0641270057F633F
:100A7300020E87900603E0641370057F04020E875D
:100A8300900603E0644170057F63020E87900603BE
:100A9300E064426003020E8A7F63020E87900602BF
:100AA300E0640B600B9006C6E064086003020CDE92
:100AB3009006C6E0FF7E00C3940674809480504382
:100AC300900603E06401701BEF6402700F9006C789
:100AD300E07009A3E0700512602B80517F01124B77
:100AE3002F804A7F60125431E49006C6F09006C509
:100AF300E0700280729006C5E064016003020E8A12
:100B0300020BB5900603E0640170297B017A067934
:100B1300C79006C6E0FD9006097402F0122B97EF0A
:100B2300F47F017005124B2F8003124325E49006D6
:100B3300C6F08033900603E0640270387B017A06C6
:100B430079C79006C6E0FDE4900609F0122B97EFF3
:100B5300F470077F9312543180087F0112632F12C0
:100B63005C44E49006C6F0FE7F087DFF7B017A06B5
:100B730079C780499006C5E07046900603E0641289
:100B830070028014900603E0641370047F048016DF
:100B9300900603E0644170047F63800A900603E0DB
:100BA300644270057F631254319006C57401F0E40A
:100BB300A3F0FE7F087DFF7B017A0679CF02085000
:100BC3009006C5E064016003020E8A78C77C067D47
:100BD300017B017A0679CFFE7F0812082CEF33954B
:100BE300E04F6003020CD6900603E0641270457B6D
:100BF300017A0679C79006C6E0FD9006097402F0F3
:100C0300122B97EFF460057F8D020CD87B017A06D7
:100C130079C79006C6E0FD9006097401F01228B466
:100C2300EF640170047F6980027F05125431126200
:100C330027020CDB900603E0644170267B017A06F1
:100C430079C79006C6E0FDE4900609F01228B4EFD8
:100C5300640170047F6980027F0512543112604F72
:100C63008076900603E0644270267B017A0679C79A
:100C73009006C6E0FDE4900609F01228B4EF640183
:100C830070047F6980027F05125431125C448048EE
:100C9300900603E0641370407B017A0679C79006DF
:100CA300C6E0FD9006097401F0122B97900604EF3D
:100CB300F0F470047F6F801D900604E0FF7D011245
:100CC300475EEF70047F0580027F69125431126220
:100CD3003180057FDA125431025881900603E0FF18
:100CE30064016005EF64027016900602E0FF90064F
:100CF300C6E0FE04F074C72EF582E43406803F900C
:100D030006C5E0FF7E007019900602E0FD9006C65E
:100D1300E0FC04F074C72CF582E43406F583EDF0AF
:100D230022EF64014E6003020E8A900602E0FF90F8
:100D330006C6E0FE04F074CF2EF582E43406F58394
:100D4300EFF022900602E0640A6003020E8A020DAD
:100D5300F5900602E0640A6003020E8A126095129F
:100D63006385EF700302621D020DF8900602E064D2
:100D73000B7074126095900603E012064D0DA214D9
:100D83000DD5150DD8160DB3240DDB250DDE260D5F
:100D9300C4340DE1350DE4360DE75000000E8A1220
:100DA3004151EF70047F0580027F08125431804562
:100DB300123C76EF70047F0580027F081254318065
:100DC3003412447DEF70047F0580027F0812543192
:100DD3008023025C0A026161025A5702603D025C91
:100DE3002702616E024D2B900602E0640A60030243
:100DF3000E8A126095025C44900602E0640A700653
:100E03001260950242B1126335900602E0D39F50FF
:100E130076126095900602E014FF02482712633BA6
:100E2300900604EFF06493700B126095900602E055
:100E3300FF0245C4900604E064967035900602E014
:100E4300640A7018126095126195126382EF600252
:100E530080287F587E021258CD026188900602E0F6
:100E6300640B70231260951261957D017F96025089
:100E730053126382EF60101260950261447F010296
:100E830063177F2F12543122C101C103C102C10074
:100E93004104AF00440739FFFFFFFF44073DFFFF55
:100EA300FFFF4406B5FFFFFFFF4206B900004106FE
:100EB300BB00440685FFFFFFFF410689004106A0F2
:100EC3000041068A0054068C000000000000000068
:100ED30000000000000000000000000041068B003D
:100EE3004406F0FFFFFFFF5006F4EF01FFFFFFFF93
:100EF3000100074101010050009B4406D7FFFFFF9B
:100F0300FF4106DB00440741FFFFFFFF440745FFA6
:100F1300FFFFFF440749FFFFFFFF44074DFFFFFFAC
:100F2300FF440729FFFFFFFF42072D00004407513D
:100F3300FFFFFFFF440755FFFFFFFF44075DFFFF70
:100F4300FFFF010E00011000010F00011100440614
:100F53005EFFFFFFFF44072FFFFFFFFF4107330043
:100F63004406BEFFFFFFFF4106C6004106C5FF4121
:100F730006C4FF4106C3FF4106C2004106BC00414F
:100F830006BD006092056C022300032700042300C2
:100F93000725000826000923000A27000B23000465
:100FA30023000D23000E27000F2500082400162719
:100FB300001E27002023001F27002823002B2400C6
:100FC3002C24002D240051425243250051465249FE
:100FD3002500514452452500514852472500514AA6
:100FE300524B250051335234533525005136523874
:100FF30053392500513A523C533D2500513E52404E
:1010030053412500062700514225005130523153E8
:10101300325433553456352500440554FFFFFFFF42
:1010230041056300420559000042055B000042058B
:101033006500004105580041056400410567004112
:1010430004B00041056201420569000041056800E2
:1010530041056B00420552000043055F000000603C
:101063009104C10103000000010400000001050018
:101073000000010600000001070000000108FF62F4
:10108300810109FF5D9902060000000207000000CC
:101093000208FF6281030AFF5C0A030CFF6161031C
:1010A3000DFF623B042AFF5A57042CFF603D042DB9
:1010B300FF62590544FF5C270546FF616E0547FF44
:1010C3006277067FFF617B0680000000805FFF6020
:1010D3004F8060FF60610767000000078100000028
:1010E3006766FF5D356765FF5D4E816CFF5D6781F8
:1010F3006DFF5D80440734FFFFFFFF410738006049
:10110300F602E801E102BA03C204CA05D2069C074B
:10111300A20E5D0FFF106011631205130614DA159A
:10112300661669175C186C196F1A721B751C051DFE
:10113300691E0C1F662078217B227E23042405254B
:10114300692666277E280529082E102F11300531C0
:101153001232693381345C351336143711389639BA
:10116300053A813B153C843D7E3E113F054081415C
:101173007E42054308481749184A054B194C5C4DF4
:101183001A4E1B4F185005511C521D5387547E5540
:10119300185605577E580559085A8A5B5D5C635D8E
:1011A300055E8D611062116305640567AE68216990
:1011B300226A216B226D4B6E216F22702171227284
:1011C3004C732274907505768A77637829792A7A25
:1011D300937B967C997D2E7E2F7F4280A881B4825B
:1011E30090837E874E8A7E8C4F8D058E08904D911D
:1011F3002192229A219BFFFFFF440761FFFFFFFF1C
:10120300440635FFFFFFFF41063900440722FFFF75
:10121300FFFF410726004207270000440258FFFF53
:10122300FFFF440705FFFFFFFF41070900410711C7
:101233000042070F000045070A93040596984107EB
:10124300040044071CFFFFFFFF4207200000410783
:101253001A0041071B0000900602EFF0A205920658
:101263009006067403F0124FC83005030215E5908B
:101273000602E0FF25E024C9F582E43463F583E444
:1012830093FC740193FD75F002EFA42412F582E53B
:10129300F03404F583ECF0A3EDF0900602E0FE9049
:1012A30063A993FF900605F075F002EEA42412F5EE
:1012B30082E5F03404F583E0FCA3E0FD12550990C8
:1012C3000602E0FD75F002A42473F582E5F0340410
:1012D300F583EEF0A3EFF075F002EDA42473F5822D
:1012E300E5F03404F583E0FEA3E0FF900603E0FCA1
:1012F300A3E0FDD3EF9DEE9C50030214D0900602B1
:10130300E0FF75F002A42473F582E5F03404F5835D
:10131300E0FCA3E0FD900603E0FAA3E0FBD3ED9B22
:10132300EC9A50030213EC75910775F002EFA424B5
:1013330012F582E5F03404F583E0FEA3E0C394FFE5
:10134300EE940140030213EC900602E0FF75F002F5
:10135300A42412F582E5F03404F583E475F0011258
:10136300047575F002EFA42412F582E5F03404F558
:1013730083E0FCA3E0FD900605E0FF12550990060B
:1013830002E0FD75F002A42473F582E5F03404F560
:1013930083EEF0A3EFF075F002EDA42473F582E57C
:1013A300F03404F583E0FEA3E0FF75F002EDA4241E
:1013B3002AF582E5F03404F583EEF0A3EFF075F03F
:1013C30002EDA42473F582E5F03404F583E0FEA373
:1013D300E0FF75F002EDA4244EF582E5F03404F548
:1013E30083EEF0A3EFF0021300E5CDC45407240904
:1013F300F9E47F01FEFDFCA8011205E3EF24F6FBEF
:10140300EE34FFFAED34FFF9EC34FFF8900602E016
:1014130075F002A42473F582E5F03404F583E0FE4D
:10142300A3E0FFE4FCFDD31205BF40030214D090F8
:101433000602E0FF75F002A42412F582E5F03404FD
:10144300F583E475F00112047575F002EFA424121C
:10145300F582E5F03404F583E0FCA3E0FD90060596
:10146300E0FF125509900602E0FD75F002A4247313
:10147300F582E5F03404F583EEF0A3EFF075F002A6
:10148300EDA42473F582E5F03404F583E0FEA3E0D4
:10149300FF75F002EDA4242AF582E5F03404F58308
:1014A300EEF0A3EFF075F002EDA42473F582E5F0FE
:1014B3003404F583E0FEA3E0FF75F002EDA4244EAF
:1014C300F582E5F03404F583EEF0A3EFF090060225
:1014D300E075F002A42473F582E5F03404F583E0AB
:1014E300FEA3E0FF900603E0FCA3E0FDD3EF9DEE37
:1014F3009C40030215E5900602E0FF75F002A42468
:1015030073F582E5F03404F583E0FCA3E0FD900677
:1015130003E0FAA3E0FBC3ED9BEC9A40030215E55D
:1015230075910775F002EFA42412F582E5F03404F7
:10153300F583E0FEA3E0D39400EE9400500302157C
:10154300E5900602E0FF75F002A42412F582E5F0AF
:101553003404F58374FFF5F012047575F002EFA4FB
:101563002412F582E5F03404F583E0FCA3E0FD905A
:101573000605E0FF125509900602E0FD75F002A48E
:101583002473F582E5F03404F583EEF0A3EFF075F0
:10159300F002EDA42473F582E5F03404F583E0FE54
:1015A300A3E0FF75F002EDA4242AF582E5F03404EC
:1015B300F583EEF0A3EFF075F002EDA42473F5824A
:1015C300E5F03404F583E0FEA3E0FF75F002EDA43B
:1015D300244EF582E5F03404F583EEF0A3EFF00238
:1015E30014F922AB07EB25E02420F582E43464F5FB
:1015F30083E493FF740193900606CFF0A3EFF0EB1F
:1016030025E02420F582E43464F583E493FC74013B
:1016130093FD906410E493FF7E0012042DEEC4F852
:1016230054F0C868FEEFC4540F48FF900608EEF06C
:10163300A3EFF075F002EBA42473F582E5F0340414
:10164300F583E0FEA3E0FF75F002EBA4242AF58204
:10165300E5F03404F583E0FCA3E0C39FFFEC9EFEBA
:10166300900604F0A3EFF0C3EE648094805003026D
:1016730017C3A3E0FEA3E0FF900604E0FCA3E0FD94
:101683009FEE6480F8EC648098401074DE2BF58242
:10169300E43403F5837401F002178F900608E0FE2B
:1016A300A3E0FFC3ED9FEE6480F8EC64809840589C
:1016B30074A32BF582E43404F583E004F074F62B71
:1016C300F582E43403F583E4F074972BF582E43474
:1016D30004F583E4F074EA2BF582E43403F583E440
:1016E300F074A32BF582E43404F583E0FF90075AEA
:1016F300E0FEEFC39E500302178F74A32BF582E421
:101703003404F583E4F0806E74A32BF582E434048F
:10171300F583E4F074F62BF582E43403F583E004F7
:10172300F074972BF582E43404F583E4F074EA2B28
:10173300F582E43403F583E4F074F62BF582E434A4
:1017430003F583E0FF90075CE0FEEFC39E403D742A
:10175300F62BF582E43403F583E4F075F002EBA491
:10176300242AF582E5F03404F583E0FEA3E0D39464
:1017730000EE9400401675F002EBA4242AF582E5EE
:10178300F03404F58374FFF5F0120475906462E499
:1017930093FE740193FFC3900607E09FFF90060634
:1017A300E09EFEC3900605E09F900604E09E400382
:1017B30002193474DE2BF582E43403F583E4F0225A
:1017C30074DE2BF582E43403F583E4F0900608E03D
:1017D300FEA3E0FFC3E49FFFE49EFEC3900605E083
:1017E3009FEE6480F8900604E0648098406C74A3D4
:1017F3002BF582E43404F583E4F074F62BF582E4EC
:101803003403F583E4F074972BF582E43404F58311
:10181300E004F074EA2BF582E43403F583E4F07416
:10182300972BF582E43404F583E0FF900759E0FE3B
:10183300EFC39E500302193474972BF582E43404EA
:10184300F583E4F075F002EBA4242AF582E5F03485
:1018530004F583E475F00102193174A32BF582E4D6
:101863003404F583E4F074F62BF582E43403F58352
:10187300E4F074972BF582E43404F583E4F074EA1E
:101883002BF582E43403F583E004F074EA2BF5824C
:10189300E43403F583E0FF90075BE0FEEFC39E5063
:1018A3000302193474EA2BF582E43403F583E4F07C
:1018B300900607E025E0FD900606E033FCE0A2E792
:1018C30013FEA3E0132DFFEE3CFEC3E49FFFE49E53
:1018D300FED3900605E09FEE6480F8900604E06472
:1018E3008098502975F002EBA42473F582E5F03457
:1018F30004F583E0FEA3E0FF75F002EBA4242AF5D0
:1019030082E5F03404F583EEF0A3EFF022900608AD
:10191300E0FEA3E0FF7C007D0512043F75F002EBBF
:10192300A4242AF582E5F03404F583EE8FF0120443
:101933007522900602EFF0E4A3F0A3F0A3F0126384
:101943001D900606EFF0647070057F2F021C6090F7
:101953000606E0FF64016017EF64226012EF642360
:10196300600DEF64436008EF64446003021C6390FE
:101973000606E06454700B12633BEF6405600302D8
:101983001C63126364126019EF640170057F2E02F9
:101993001C60120006900603EFF06003021C5990CE
:1019A30006C5E0FF12515C900603EFF06003021CD2
:1019B300599006C5E0FF7B017A06790412488B90A3
:1019C3000603EFF06003021AAE900606E0640170AE
:1019D30026900604A3E0FF7D021254D4900603EF81
:1019E300F0700A7F0212636D7F020243257F0312A8
:1019F300636D7F02024B2F900606E0FF6422600FA7
:101A0300EF6443600AEF64446005EF6454700A7F37
:101A13000312636D7F69021C60900606E064236015
:101A230003021C63900604A3E0FF7D011254D490CB
:101A33000603EFF0706B9006C5E0700C04F07F02B4
:101A430012636D7F11021C6012000E900603EFF00B
:101A53006003F4703F900604A3E0FF7D011252D1AE
:101A6300900603EFF0700EA3E0FEA3E0FF1262D82E
:101A7300900603EFF0900603E070097F0212636D96
:101A83007F0580077F0312636D7F691254311262F1
:101A93004F021C337F0312636D7F96125431021C75
:101AA300337F0312636D7F84021C60900606E0643B
:101AB30001700A7F0312636D7F96021C6090060615
:101AC300E0FF64226012EF6443600DEF644460083A
:101AD300EF64546003021C489006C5E0640260038F
:101AE300021C39120016900603EFF06003021C2952
:101AF300900606E0FF64226008EF64546003021B53
:101B0300B11255D6900604E4F0A3EFF0900604E07A
:101B13007003A3E0F4700D7F0312636D7F5C1254B6
:101B230031021C24900604E0FCA3E0FDE4FF124D07
:101B330079900603EFF0900606E06422703E90066B
:101B430003E07019A3A3E0FF7D011257579006032A
:101B5300EFF06009A3E0FEA3E0FF1262D890060352
:101B6300E070097F0212636D7F0580077F031263B4
:101B73006D7F69125431126245021C33900603E0F3
:101B8300700EA3E0FEA3E0FF1262D8900603EFF00D
:101B9300900603E070097F0212636D7D0180077F69
:101BA3000312636DE4FD7F04125053021C3390064D
:101BB30006E0FF7E0064437008900604F0A3F08003
:101BC3000DEF64444E7007900604F0A304F09006F2
:101BD30004E0FCA3E0FDE4FF124D79900603EFF06F
:101BE300700EA3A3E0FFE4FD125757900603EFF036
:101BF300900603E070097F0212636D7F0580077F03
:101C03000312636D7F69125431126385EF70129072
:101C13000606E064437005126061801412621D8041
:101C23000F125C44800A7F0312636D7F811254316B
:101C3300E49006C5F0229006C5E004F07F0212632B
:101C43006D7F118018900606E0642370137F0312E2
:101C5300636D7F8480077F0312636D7F111254319C
:101C6300227E017FF47DFF7B017A00790012085008
:101C73007B017A0079009006137401F0A374F4F0E9
:101C83007F0190060FEFF0A3EBF0A3EAF0A3E9F0D6
:101C93007F0912631190060FE0147003021D841470
:101CA3007003021E51147003021EB1240360030269
:101CB3001F0E9006187401F0A37400F0A37400F0D3
:101CC300A37401F0A374F4F0E4FF12630BE4FF12B6
:101CD3005BD0E4900615F0A3F0900613E0FEA3E0BA
:101CE300FFC3900616E09F900615E09E5037E0FC78
:101CF300A3E0FD900610E0FBA3E0FAA3E0F98D82D8
:101D03008C831203CCFBE4FF1240D9900617EFF04B
:101D130070037F0122900616E004F070BC90061554
:101D2300E004F080B4E4900615F0A3F090061BE005
:101D3300FEA3E0FFC3900616E09F900615E09E40C9
:101D430003021F11E0FEA3E0FF2418FDE43EFC9014
:101D53000618E0FBA3E0FAA3E0F98F828E83120357
:101D6300CCFBE4FF1240D9900617EFF070037F011C
:101D730022900616E004F070B3900615E004F0809C
:101D8300AB900618E4F0A37400F0A37408F0A3E486
:101D9300F0A37406F0E4FF12630BE4FF125BD0E4DC
:101DA300900615F0A3F090061BE0FEA3E0FFC3909E
:101DB3000616E09F900615E09E5037E0FCA3E0FD79
:101DC300900618E0FBA3E0FAA3E0F98D828C83125E
:101DD30003CCFBE4FF1240D9900617EFF070037FAA
:101DE3000122900616E004F070BC900615E004F0A2
:101DF30080B4E4900615F0A3F0900613E0FEA3E090
:101E0300FFC3900616E09F900615E09E4003021F55
:101E130011E0FEA3E0FF2418FDE43EFC900610E071
:101E2300FBA3E0FAA3E0F98F828E831203CCFBE4D9
:101E3300FF1240D9900617EFF070037F012290063E
:101E430016E004F070B3900615E004F080AB7F0158
:101E530012630BE4FF125BD0E4900615F0A3F0903D
:101E63000613E0FEA3E0FFC3900616E09F9006155D
:101E7300E09E4003021F11E0FCA3E0FD900610E08A
:101E8300FBA3E0FAA3E0F98D828C831203CCFBE47D
:101E9300FF1240D9900617EFF070037F01229006DE
:101EA30016E004F070B9900615E004F080B17F01EC
:101EB30012630B7F01125BD0E4900615F0A3F09040
:101EC3000613E0FEA3E0FFC3900616E09F900615FD
:101ED300E09E503AE0FCA3E0FD900610E0FBA3E097
:101EE300FAA3E0F98D828C831203CCFB7F011240AD
:101EF300D9900617EFF070037F0122900616E004D5
:101F0300F070BC900615E004F080B47F01227F00DE
:101F130022AB07EBC3942074809480500AE47F01C2
:101F2300FEFDFCA803800BE47F01FEFDFCEB24E037
:101F3300F9F81205E39006001205F6EBC39420743A
:101F4300809480500302200C759651900600A3A341
:101F5300A3E0FFEF4297759652900600E0FCA3E0E2
:101F6300FDA3E0FEA3E0FF78081205D0EF4297EB54
:101F7300C3942474809480500E900600A3A3A3E01E
:101F8300540FFFEF42EA22EBC394267480948050EF
:101F93001B900600E0FCA3E0FDA3E0FEA3E0FF78B6
:101FA300041205D0EF5403FFEF42EB22EBFFC3947F
:101FB3002C748094805037EF642A6005EF642B7093
:101FC30012900600E0FCA3E0FDA3E0FEA3E0FF788F
:101FD300048010900600E0FCA3E0FDA3E0FEA3E074
:101FE300FF78061205D0EF54CFFFEF42EC229006A4
:101FF30000E0FCA3E0FDA3E0FEA3E0FF780C1205E4
:10200300D0EF540FFFEF42EE22759626900600A301
:10201300A3A3E0FFEF4297759627900600E0FCA389
:10202300E0FDA3E0FEA3E0FF78081205D0EF540F14
:10203300FFEF4297759628900600E0FCA3E0FDA30E
:10204300E0FEA3E0FF78101205D0EF4297759629C2
:10205300900600E0FCA3E0FDA3E0FEA3E0FF7818F8
:102063001205D0AB07EB4297900600E0FCA3E0FD1E
:10207300A3E0FEA3E0FF78021205E3EF54FCFFEFB9
:1020830042EB900600E0FCA3E0FDA3E0FEA3E0FF2B
:1020930078021205D0EF5430FFEF42EC900600E0D7
:1020A300FCA3E0FDA3E0FEA3E0FF78041205D0EF5C
:1020B30054F0FFEF42EE900600E0FCA3E0FDA3E046
:1020C300FEA3E0FF780C1205D0EF54F0FFEF42EFD0
:1020D300900600E0FCA3E0FDA3E0FEA3E0FF78147C
:1020E3001205D0EF540FFFEF42F2EB42F7229006B6
:1020F30002EFF0E4A3F0A3F012631D900605EFF0E6
:10210300647070057F2F02226A900605E0FF640168
:10211300600DEF64326008EF6433600302226D9058
:102123000605E06454700B12633BEF640560030221
:10213300226D126364126019EF640170057F2E0231
:10214300226A900605E0645470379006C5E0FF12DA
:102153004C8B900603EFF0600302226D9006C5E0FE
:10216300700302221D125B78900603EFF0700A7D64
:10217300017F051250530222517F1C125431022257
:10218300517B017A067904125349900603EFF070EC
:102193006C900605E0640170057F040243259006F8
:1021A30005E0643270057F1902226A900605E06437
:1021B30033600302226D9006C5E0FF124C8B90063C
:1021C30003EFF070349006C5E07002804D125B7827
:1021D300900603EFF0701BA3E0FF124398900603F1
:1021E300EFF070047F0580027F6912543112626D33
:1021F30080057F1C12543180557F81806A900605CB
:10220300E0643270539006C5E0FF124C8B900603D6
:10221300EFF070409006C5E0700C7F1812543190B7
:1022230006C57401F022125B78900603EFF0701973
:10223300FF125FDF900603EFF070047F0580027FDB
:102243006912543112626380057F1C125431E49089
:1022530006C5F0227F81800F900605E064017005BA
:102263007F04024B2F7F8712543122EFB4070040C3
:10227300030223E590227EF8282873022293022288
:10228300BA0222E002232B02237902239C0223BFFA
:10229300EB7009ED42EA759617022334EB64017083
:1022A30009ED42EA7596170223D8EB640260030234
:1022B30023E5EDF452EA22EB7008ED42EB75961834
:1022C300806FEB64017009ED42EB7596180223D819
:1022D300EB640260030223E5EDF452EB22EB70089A
:1022E300ED42EC7596198049EB64017009ED42ECFF
:1022F3007596190223D8EB64027015EDF452ECEDD8
:10230300543070030223E5759625C4540F0223C984
:10231300EB640360030223E5EDF452EC759625EDBF
:102323005430C4540F429722EB700AED42EE759677
:102333001BED0223C9EB64017009ED42EE75961B98
:102343000223D8EB64027015EDF452EEED543070B5
:10235300030223E57596251313543F8069EB640349
:1023630060030223E5EDF452EE759625ED54301328
:1023730013543F429722EB7009ED42EF75961CED23
:102383008044EB64017008ED42EF75961C8046EBC8
:102393006402704EEDF452EF22EB7009ED42F275D8
:1023A300961DED8021EB64017008ED42F275961DD8
:1023B3008023EB6402702BEDF452F222EB700BEDF1
:1023C30042F775961EEDF4529722EB6401700AED05
:1023D30042F775961EED429722EB64027004EDF40A
:1023E30052F72212631D90062EEFF0900562E0640F
:1023F30001702490056AE004F07006900569E0041A
:10240300F0900569E07004A3E06402700A90056827
:1024130004F0E4A3F0A3F0900558E0640170309059
:10242300055CE004F0700690055BE004F090056540
:10243300E0FEA3E0FFC390055CE09F90055BE09E98
:10244300400D9005587402F0E490055BF0A3F09002
:102453000564E06401701B900567E004F0E0C39439
:102463000474809480400B9005647402F0E490053A
:1024730067F090056BE0D3940074809480402A90B9
:102483000553E004F07006900552E004F090055205
:10249300E0FEA3E0FFE4FCFD7B587A02F9F8D312D7
:1024A30005A95005E490056BF0124DC6EF700302C9
:1024B300255490062EE0FF64617003022554EF64F7
:1024C300607003022554900558E0640170030225EF
:1024D30054126084EF64017078125FF3EF707290AE
:1024E300062FF090055AE004F07006900559E004B9
:1024F300F090062EE0FF64126028EF64136023EF70
:102503006441601EEF64436019EF64446014EF6438
:1025130022600FEF6423600AEF64326005EF6433D7
:102523007011D390055AE094C8900559E094004087
:1025330017800FD390055AE09410900559E0942723
:10254300400690062F7401F090062FE0600A0246C1
:10255300F9E4900559F0A3F022900601EBF0A3EA09
:10256300F0A3E9F0EF1460651470030226291470D8
:10257300030226532403600302267EE4FF12630B47
:10258300E4900606F0A3F0900604E0FEA3E0FFA3A8
:10259300E0FCA3E0FDC39FEC9E400302267EE4FF24
:1025A300125AFC900601E0FBA3E0FAA3E0F99006BF
:1025B30006E0FCA3E0F5828C83EF12040B90060780
:1025C300E004F070C2900606E004F080BAE4FF1263
:1025D300630BE4900606F0A3F0900604E0FEA3E08C
:1025E300FFA3E0FCA3E0FDC39FEC9E400302267E15
:1025F300ED2418FDE43CFCE4FF125AFC900601E0D4
:10260300FBA3E0FAA3E0F9900606E0FCA3E0F58261
:102613008C83EF12040B900607E004F070BB900666
:1026230006E004F080B37F0112630B900601E0FB28
:10263300A3E0FAA3E0F9E490060CF0A3F0900604FB
:10264300E0FFA3E090060ECFF0A3EFF0E4FD8028B7
:102653007F0112630B900601E0FBA3E0FAA3E0F90C
:10266300E490060CF0A3F0900604E0FFA3E09006CC
:102673000ECFF0A3EFF07D01123B6E227B007A00B8
:102683007908900604E4F0A37406F0E4FF12255CD5
:10269300AF08EF64016008EF6402600302272CE4D3
:1026A3009005FFF07B017A00790090060404F0A303
:1026B30074F4F07F0112255C7B017A0179F49006B2
:1026C30004E4F0A37464F07F0212255C7B017A02B8
:1026D300795C900604E4F0A3748CF07F0312255C0C
:1026E300D3E50B94007480948050030227999005DE
:1026F300FFE0FFFD7C00C3946474809480501A75DE
:10270300F005EFA42404F582E5F03400F583E060DE
:10271300089005FFE004F080D5C3ED9464EC648079
:1027230094804072E4F50B805B121C647E007F642E
:102733007DFF7B017A0179F41208507B017A0179DC
:10274300F4900613E4F0A37464F07F02121C851264
:10275300004E7E007F8C7DFF7B017A02795C12083C
:10276300507B017A02795C900613E4F0A3748CF039
:102773007F03121C85750801750901E4F50AF50B41
:10278300F50CF50DFB7A007908900613F0A3740697
:10279300F0E4FF121C85227D037FE87E039006147C
:1027A300EEF0A3EFF0A3EDF0E4A3F0A3F090061492
:1027B30074FFF5F012047545F070030228B17F0130
:1027C3007E001258CD900616E02409FFE433FE90F4
:1027D30006BBE0C39FEE6480F874809840CFE4901A
:1027E3000617F09006BBE0FF900617E0FEC39F506C
:1027F3001774A12EF582E43406F583E064EF6008D4
:10280300900617E004F080DB900617E0FF24A1F5A3
:1028130082E43406F583E064EF709274A22FF582AC
:10282300E43406F583E064017083900617E0FD2429
:10283300A7F582E43406F583E0640760030227B05A
:1028430074A82DF582E43406F583E0FE74A92DF512
:1028530082E43406F583E07C002400FFEC3EFE9026
:102863000616E06F7001EE60030227B09006BBE02E
:10287300FF900617E0FEC39F502974A12EF582E452
:102883003406F583E0FF900618E024DCF582E43497
:1028930006F583EFF0900618E004F0900617E004C5
:1028A300F080C99006E5E0FFE49006BBF0227F01CB
:1028B30022900605EBF0A3EAF0A3E9F0A3EDF09074
:1028C300060A74FFF0900609E0702AA3F090060A46
:1028D300E0FFC3946474809480501A75F005EFA4EC
:1028E3002404F582E5F03400F583E0600890060ADD
:1028F300E004F080D890060AE0C394647480948066
:10290300402BE4F090060AE0FFC394647480948043
:10291300501B75F005EFA42404F582E5F03400F5AF
:1029230083E0F4600890060AE004F080D790060A7A
:10293300E0C394647480948050757E007F047DFFAF
:102943007B017A06790B120850900608E0FD900689
:10295300147401F0A37406F0A3740BF0900605122F
:102963003EEF90060AE075F005A42400F9740035E3
:10297300F0A801FC7D017B017A06790B7E007F04C0
:1029830012038D900609E0FFA3E075F005A424046B
:10299300F582E5F03400F583EFF07B017A007900EE
:1029A3009006137401F0A374F4F07F01021C857F79
:1029B3000122900608EBF0A3EAF0A3E9F0A3EDF0FF
:1029C300D39400748094805003022A53C2AF1257E9
:1029D300C17F501239D2E4900610F090060BE0FF4D
:1029E300900610E0FEC39F501F900608E0FBA3E093
:1029F300FAA3E0F98E827583001203CCFF1239D259
:102A0300900610E004F080D37F511239D2E490068F
:102A130010F090060FE0FFA3E0C39F50311249511D
:102A230090060CE0FBA3E0FAA3E0F9900610E0FEA9
:102A3300F582758300EF12040B90060FE0146E60AD
:102A43005AE4FF125832900610E004F080C4804B21
:102A5300C2AF1257C17F511239D2E4900610F090E1
:102A6300060FE0FFA3E0C39F503112495190060CBB
:102A7300E0FBA3E0FAA3E0F9900610E0FEF582750F
:102A83008300EF12040B90060FE0146E600DE4FF59
:102A9300125832900610E004F080C47F01125832BD
:102AA300D2AF125B5A7F0022E4F9900604F0A3F040
:102AB300FEEEC3940C74809480506074422EF582B1
:102AC300E43404F583E06050EE25E02473F582E4FA
:102AD3003404F583E0FCA3E0FDEE25E0242AF5822F
:102AE300E43404F583E0FAA3E0C39DFDEA9CFC9083
:102AF3000602F0A3EDF0D3900605E09DEC6480F8A8
:102B0300900604E0648098500F900602E0FDA3E075
:102B1300A3CDF0A3EDF0A9060E8096900466E069BC
:102B2300606FE0FE25E02473F582E43404F583E06E
:102B3300FCA3E0FDEE25E0242AF582E43404F583CA
:102B4300E0FAA3E0C39DFEEA9C900602F0A3CEF058
:102B5300900602E0FEA3E0FFC3900605E09FFF900E
:102B63000604E09EFE900602F0A3EFF0E925E024C0
:102B730020F582E43464F583E493FC740193FDD37C
:102B8300EF9DEC6480F8EE6480984005900466E95C
:102B9300F0AF0122900605EBF0A3EAF0A3E9F0A35E
:102BA300EDF0E490060AF090060F74FFF07E007FCC
:102BB30004FD7B017A06790B120850900608E0FDAC
:102BC3009006147401F0A37406F0A3740BF090063E
:102BD30005123EEFE4FFEFC3946474809480506465
:102BE30075F005EFA42404F582E5F03400F583E0E5
:102BF300F4604EE490060AF090060AE0FD7C00C300
:102C03009404748094805033E0FE75F005EFA4249F
:102C130000F582E5F03400F583E5822EF582E43594
:102C230083F583E0FB740B2EF582E43406F583E031
:102C3300B5030890060AE004F080BDED64044C601F
:102C4300030F8092EFC3946474809480502675F0D0
:102C530005EFA42404F582E5F03400F583E0FE904B
:102C63000609E0FDEE6D6005ED6402700790060F46
:102C7300EFF0800690060F74FFF090060FE0FF223E
:102C8300900607EFF0E490060AF09006DBE06F7021
:102C930003022D52124EB5EF64017003022D527FD1
:102CA300011263497F077E00125B9A7F4112634CD6
:102CB300900607E0606824FE6026146042240270D8
:102CC3007B7F01125CC87F01125CC8E4FF125CC801
:102CD3007F50125CC8900608E4F0A3749BF0805CFC
:102CE3007F01125CC87F02125CC87F02125CC8E4D9
:102CF300FF125CC8900608E4F0A3744EF0803D7F99
:102D030001125CC87F04125CC87F04125CC8E4FF34
:102D1300125CC8900608E4F0A37452F0801E7F048E
:102D2300125CC8E4FF125CC8E4FF125CC87FC812DF
:102D33005CC89006087401F0A37415F0900608E0CF
:102D4300FEA3E0FF125103900607E09006DBF0229A
:102D5300E4900603F0C20112001EE4900602F09014
:102D63000602E0C3940C748094804003022E0C305E
:102D7300030343AD1020000575910780F8C200AF2F
:102D8300ACEFFEADABEDFF900602E0FD25E0247352
:102D9300F582E43404F583EEF0A3EFF0EDC3940B76
:102DA30074809480502DED25E02414F582E43404DE
:102DB300F583E0FEA3E0F5CA53CC7FEE5401C313C1
:102DC300E41342CC53CCC0ED9063AA93543F42CC5E
:102DD30075C901900602E0FF1215E6900602E0FFB6
:102DE300123513900602E0FF1244EE30010F9004F7
:102DF30066E0F47008900602E0900466F020021288
:102E0300900602E004F0022D62200106900466742D
:102E1300FFF022C20120046D9063A3E493FD700DC3
:102E230090646693C313FF74019313801575F002C6
:102E3300EDA42464F582E5F03464F583E493FF7430
:102E43000193900600CFF0A3EFF0E49005FFF0901C
:102E530005FFE0C3940C748094805071E0FF24421A
:102E6300F582E43404F583E4F0C205900600E0FD46
:102E7300A3E0900603CDF0A3EDF012125A9005FFE4
:102E8300E004F080CA9063A6E493FD700D9064663D
:102E930093C313FF74019313801575F002EDA424FB
:102EA30064F582E5F03464F583E493FF7401939051
:102EB3000600CFF0A3EFF0D205900600E0FFA3E0F9
:102EC300900603CFF0A3EFF0E4FF12125A900466CA
:102ED30074FFF022900625EBF0A3EAF0A3E9F0E4F7
:102EE30090062CF07F2EFE125FCB53FBFDE4F5FA28
:102EF300F5FE7596585397EF53FBEF43FC40FF9055
:102F0300062BE0FEEFC39E5064E4A3F074FFFDFCC8
:102F1300ED1DAA0470011C4A6029E5FB30E4F1E5CC
:102F2300FB548070EB900625E0FBA3E0FAA3E0F9E5
:102F33008F82758300E5FA12040B53FBEF90062C86
:102F43007401F053FB7F53FBDFE5FE601D90062504
:102F5300E0FBA3E0FAA3E0F98F82758300E5FA12A0
:102F6300040B90062C74ACF080030F809253FCBFCB
:102F730043FB0290062CE064AC700F900628E0FB44
:102F8300A3E0FAA3E0F9EF1203F990062CE0FF2285
:102F9300900689E064017059A3E0700D7D047F05FC
:102FA3001252557D01E4FF800C90068AE0640270A2
:102FB300097D047F0512500E800F90068AE0C394AA
:102FC30004748094804002B2F890068AE004F09082
:102FD30006A0E025E0FFE433FEEF2406FFE43EFE17
:102FE30090068AE0C39FEE6480F87480984059800D
:102FF30041900689E06403704FA3E070057D01FFF3
:10300300801D90068AE0640170097D047F051252D9
:1030130055800F90068AE0640370077D047F0512D4
:10302300500E90068AE004F0E0C394047480948008
:103033004016E4F07D047F0512500E7D01E4FF127B
:10304300500E9006897402F02253CCBFA204E433DD
:10305300C43333544042CC300403023104E49006B9
:1030630004F0900765E0FF900604E0C39F4003026D
:103073003104E0FF75F002A42412F582E5F0340474
:10308300F583E0FCA3E0FDEF9063A993FF125509DC
:10309300900604E0FD75F002A42473F582E5F03494
:1030A30004F583EEF0A3EFF075F002EDA42473F5BD
:1030B30082E5F03404F583E0FEA3E0FF75F002ED52
:1030C300A4242AF582E5F03404F583EEF0A3EFF0AF
:1030D30075F002EDA42473F582E5F03404F583E082
:1030E300FEA3E0FF75F002EDA4244EF582E5F03473
:1030F30004F583EEF0A3EFF0900604E004F0023051
:10310300652290060CEBF0A3EAF0A3E9F090061316
:10311300EFF0A37470F0E4FF900612E0FEEFC39E9D
:10312300502390060CE0FBA3E0FAA3E0F98F82752D
:1031330083001203CCFE74152FF582E43406F58365
:10314300EEF00F80D37B017A067913900612E02408
:1031530002900623F07F01125217900612E0FC241E
:1031630015F582E43406F583EFF0EEFF74162CF5C3
:1031730082E43406F583EFF07B017A067913900637
:1031830012E02404FD12326BEF640160037F01221D
:103193009006287401F0A37406F0A37413F0A374CB
:1031A30003F090060FE0FBA3E0FAA3E0F9122ED799
:1031B300EF64017F0060027F0122900602EBF0A31F
:1031C300EAF0A3E9F078057C067D017BFF7A647958
:1031D300807E007F0612038D7596585397FB7B0103
:1031E3007A067905124F39EF60037F0122900605B5
:1031F300E054C0C41313540375F003A424046404FB
:1032030060037F01227B017A0679057D017F93129A
:1032130036F3EF60037F0122900602E0FBA3E0FA9E
:10322300A3E0F8AC02AD037B017A0679057E007F4B
:103233000512038D90060F7401F0A37406F0A374B6
:1032430005F0A37405F0900602E0FBA3E0FAA3E007
:10325300F97F93123105EF60037F0122900605E0A9
:1032630054247F017001FF22900625EBF0A3EAF0BE
:10327300A3E9F0A3EDF07596585397FDE06004645D
:10328300017023900625E0FBA3E0FAA3E0F9120303
:10329300B3F5F953FCC1900628E0FF25E0543E4204
:1032A300FC43FC01806B900625E0FBA3E0FAA3E05E
:1032B300F91203B3F5F99000011203CCF5FA53FCAC
:1032C300C1900628E0FF25E0543E42FC43FC011276
:1032D3005C7D7D02900628E0FEEDC39E5033ED90A9
:1032E300062530E014E0FBA3E0FAA3E0F98D827534
:1032F30083001203CCF5FA8012E0FBA3E0FAA3E00B
:10330300F98D827583001203CCF5F9125C7D0D8073
:10331300C3125C7D229005FF74FFF0A3F090056853
:10332300E06401701F1260A6EF700F9006C2E07098
:103333000E04F07F021259608005E49006C2F0E4A7
:10334300900568F012635E9005FFEFF0F46027E0EC
:10335300FF1247C3900600EFF0F4601AE0FF9006F7
:10336300C3E06F6017900600E0FB9006C3F0E4FD36
:10337300FF12596380069006C374FFF012636AEF6D
:1033830060057F041259601260B7EF6008E4FBFD2B
:103393007F03125963126126EF6008E4FBFD7F058A
:1033A300125963125C99EF6008E4FBFD7F01125927
:1033B30063126117EF6008E4FBFD7F061259632275
:1033C300900606EBF0A3EAF0A3E9F0E4FFFEEFC3F7
:1033D300940A748094805015EF75F00EA4245CF564
:1033E30082E43402F583E0F460030F80E1EFC394D9
:1033F3000A748094805070EF75F00EA4245CF582FB
:10340300E43402F583EFF075F00EA4245DF582E455
:103413003402F583EDF0E4FEEEC3940C74809480E3
:103423005031900606E0FBA3E0FAA3E0F98E827523
:1034330083001203CCFDEF75F00EA4245EF582E445
:103443003402F583E5822EF582E43583F583EDF0CE
:103453000E80C57B017A02795C900613E4F0A374B5
:103463008CF07F03021C857F0122900689E06402B1
:10347300600302350F7D02FF123D78EF64016003A4
:1034830002350F90068CE070139006A0F01262AE26
:1034930090068B7401F0E4900689F022E490062DE7
:1034A300F090068904F090068CE09006A0F0E4907A
:1034B300062DF090062DE0FF3395E0FEC3EF941345
:1034C300EE64809480502B748D2FF58274063EF544
:1034D30083E0FF601D90062DE0FD3395E0FC748CC6
:1034E3002DF58274063CF583EFF090062DE004F091
:1034F30080C190062DE0FF3395E0FE748C2FF5829A
:1035030074063EF583E4F090068AF022122F93228C
:1035130074DE2FF582E43403F583E07049748B2F56
:10352300F582E43404F583E4F074062FF582E43481
:1035330004F583E004F074062FF582E43404F58384
:10354300E0FE906465E493FDEED39D406474062F22
:10355300F582E43404F583E4F074422FF582E43415
:1035630004F583E4F02274062FF582E43404F58332
:10357300E4F0748B2FF582E43404F583E004F074F3
:103583008B2FF582E43404F583E0FE906464E493C6
:10359300FDEED39D401B748B2FF582E43404F58339
:1035A300E4F074422FF582E43404F5837401F0D21D
:1035B300012290060B124EA7EF640170037FFF22D6
:1035C3007F011263497F087E00125B9A7F1B12639F
:1035D3004C90060BE0FF125CC890060CE0FF125CF7
:1035E300C890060CA3E0FF125CC890060EE0FF1221
:1035F3005CC890060EA3E0FF125CC890060CE0FCCA
:10360300A3E0FDECFF7E0090060BE02424FBE433F3
:10361300CB2FFFEE3BFE7C00EF2DFDEC3EFC900636
:103623000E1250EE7D0712279C900613EFF09006C2
:10363300E6E0FEA3E07C002400FFEC3EF9900610D8
:10364300E0FBA3E0FAA3E0C98FF01204A1900613F4
:10365300E0FF2275962B5397F890060BE054074230
:103663009753CDF3A3E025E025E0540C42CD53CD91
:10367300FDA3E025E0540242CD53CDFEA3E0540167
:1036830042CD53CBBFA3E0C43333544042CB53CCDE
:10369300BFA3E0C43333544042CC75962B5397C732
:1036A300A3E03333335438429753CD8FA3E0C4544C
:1036B3007042CD53CBC0A3E0543F42CB53ADDFA305
:1036C300E0C433542042AD75962D5397FDE4F5C9FC
:1036D30053F1DF900616E06401701153F6DF900694
:1036E30015E0C43354E042F643E6202253E6DF22DA
:1036F30090060BEFF0A3EDF0A3EBF0A3EAF0A3E940
:10370300F078107C067D017BFF7A6479767E007FFA
:103713000A12038D90060BE090061AF0A37420F0B2
:103723007B017A06791A7D0212326BEF6401600322
:103733007F01229006287401F0A37406F0A3742479
:10374300F0A37405F07B017A06791A122ED7EF6481
:10375300017031FEEEC39405748094805023741A73
:103763002EF582E43406F583E0FD90060DE0FBA31D
:10377300E0FAA3E0F98E82758300ED12040B0E804C
:10378300D37F0022EF7F0070027F0122E4900602C4
:10379300F0A3F0126007EF64017002FF229006832A
:1037A300E075F003A42462F582E43406F583E012A5
:1037B30003F9900683E0FF75F003A42463F582E424
:1037C3003406F583E090000112040BEF75F003A4B7
:1037D3002464F582E43406F583E090000212040BBE
:1037E300900683E0FF75F003A42462F582E43406B7
:1037F300F58374FFF0EF75F003A42463F582E434DA
:1038030006F58374FFF0EF75F003A42464F582E4F6
:103813003406F58374FFF0126073900683EFF07F34
:1038230001229063A8E493900765F0E49005FFF00C
:10383300900765E0FF9005FFE0FEC39F5077E0FF30
:1038430025E024C9F582E43463F583E493FC740131
:1038530093FD75F002EFA42412F582E5F03404F52C
:1038630083ECF0A3EDF0EE9063A993FF121F149085
:1038730005FFE0FF75F002A42473F582E5F034043C
:10388300F583E4F0A3F075F002EFA4242AF582E5B2
:10389300F03404F583E4F0A3F075F002EFA4244EB2
:1038A300F582E5F03404F583E4F0A3F09005FFE03E
:1038B30004F002383322900609EBF0A3EAF0A3E9FF
:1038C300F0A3EDF0E4FFEFC3940A748094805047B3
:1038D300E4FEEEC3940C748094805033900609E0A8
:1038E300FBA3E0FAA3E0F98E827583001203CCFDFB
:1038F300EF75F00EA4245EF582E43402F583E582CD
:103903002EF582E43583F583E0B505030E80C3EE1F
:10391300640C60030F80AFEFC3940A7480948050EB
:103923001FEF75F00EA4245DF582E43402F583E005
:10393300FE90060CE0FDEE6D6008ED64027001225E
:103943007FFF22787FE4F6D8FD75812002398D024E
:103953004A15E493A3F8E493A34003F68001F20825
:10396300DFF48029E493A3F85407240CC8C333C4B9
:10397300540F4420C8834004F456800146F6DFE424
:10398300800B0102040810204080900E8BE47E011E
:103993009360BCA3FF543F30E509541FFEE493A397
:1039A30060010ECF54C025E060A840B8E493A3FAA9
:1039B300E493A3F8E493A3C8C582C8CAC583CAF035
:1039C300A3C8C582C8CAC583CADFE9DEE780BE9043
:1039D3000611EFF0E4A3F0900612E0C3940874809C
:1039E300948050375390F77F017E00125FCB90068F
:1039F30011E030E70543901080035390EF7F017E81
:103A030000125FCB4390087F017E00125FCB9006CC
:103A130011E025E0F0A3E004F080BC5390F77F01B0
:103A23007E00125FCB43EC107F017E00125FCB431D
:103A330090087F027E00125FCBE590A2E4920453CC
:103A430090F77F017E00125FCB53ECEF5390EF7F33
:103A5300017E00125FCBA2042275962D5397FE7D43
:103A6300087F051252557F057E001258CD7D0A7FCF
:103A7300061241C9900604EEF0A3EFF07D087F051E
:103A830012500E75962D439701900604E0FCA3E0B7
:103A9300FDE412023A7B677A407953783A1200B612
:103AA3009006061205F6E4FFFE7DA07C3F90060615
:103AB300E0F8A3E0F9A3E0FAA3E0FB1201BC500392
:103AC3007F0222E4FFFE7DC87C3F900606E0F8A358
:103AD300E0F9A3E0FAA3E0FB1201BC7F0050027FF0
:103AE3000122900607EFF0E0240AF582E43407F59B
:103AF30083E024FC6028146035246F604124FE6059
:103B030047240570537F4E125431126382EF6005D0
:103B13007F25125431E490070FF0A3F0803A12632B
:103B2300237F10125431126382EF602C80251263BD
:103B3300237F17125431126382EF601C80157F7E3E
:103B430012543112618880107F4F125431126382F4
:103B5300EF60057F25125431900607E0240AF582B1
:103B6300E43407F583E0900711F022900608EBF0A8
:103B7300A3EAF0A3E9F0ED90060D600CE02400FE4B
:103B830090060CE03446800AE02400FE90060CE028
:103B93003444900610F0A3CEF0C2AFE4FDFCD39002
:103BA300060FE09D90060EE09C403A75D288900681
:103BB30010E0FAA3E0FBEAF5CEEBF5CF900608E0C0
:103BC300FBA3E0FAA3E0F98D828C83E5D412040B06
:103BD300900611E004F07006900610E004F00DBDAD
:103BE30000010C80B9E4F5D2F5CEF5CFD2AF22E4D3
:103BF300FE900607F0A3741DF090055EEFF07F10B2
:103C03007D007B017A0479B1120850E490055DF0E0
:103C1300FE900608E0FFEEC39F5057EE75F005A433
:103C230024C1F582E43404F583E0FF90055EE0FDF2
:103C3300EF6D703B900607E0FF25E024B1F582E4C9
:103C43003404F583EEF075F005A424C2F582E43460
:103C530004F583E0FDEF25E024B2F582E43404F5B6
:103C630083EDF0900607E004F090055DE004F00EAC
:103C7300809F22E4900606F0FFFEF0900606E0FD2A
:103C8300C39432748094805059ED25E024F4F58276
:103C9300E43401F583E06042900606E025E024F574
:103CA300F582E43401F583E0FDF4602EEDFF7E0040
:103CB3001262D87E00EF7022900606E0FD25E02414
:103CC300F4F582E43401F58374FFF0ED25E024F587
:103CD300F582E43401F58374FFF0900606E004F006
:103CE30080997B017A0179F4900613E4F0A374645C
:103CF300F07F02021C8553C4FC53C4F343C4045332
:103D0300C4BF43C44053C4CF43C43053C47F43C42C
:103D13008053C38143C30E53C38143C30C7596328F
:103D230053978343977C7596325397FC4397037558
:103D330096425397FC43970275C1FF75964253977A
:103D4300F34397047596425397EF43971075964242
:103D53005397DF125ADC75965343970143F78075E7
:103D6300962A43974043F74075962D5397FE7596D1
:103D73002D43970122EFB407005075903D85F82835
:103D83002873023D9A023DA7023DB4023DC1023DA4
:103D9300CE023DDB023DE8E5F85D7F0060027F0176
:103DA300AE07804CE5805D7F0060027F01AE078037
:103DB3003FE5905D7F0060027F01AE078032E5B092
:103DC3005D7F0060027F01AE078025E5C05D7F0057
:103DD30060027F01AE078018E5C85D7F0060027F47
:103DE30001AE07800BE5D85D7F0060027F01AE075F
:103DF300AF062290639AE4939005FFF090639BE4EF
:103E030093900600F090639CE493900601F0906316
:103E13009DE493900602F090639EE493900603F072
:103E230090639FE493900604F09063A2E49390065A
:103E330005F09063A3E493900606F09063A4E493E3
:103E4300900607F09063A0E493900608F0A3740132
:103E5300F09063A1E49390060AF0780B7C067D0151
:103E63007B017A0579FF7E007F0C12038D023656A3
:103E730078067C067D017BFF7A6479887E007F0269
:103E830012038D900604744BF0A37464F07B017AE3
:103E93000679047D021248F37F0A7E001258CD9002
:103EA300060C7401F0A37406F0A37406F0A3740265
:103EB300F07B017A067904E4FD1229B5900606E049
:103EC300FEB44B08A3E0B44F037F0122EEB44B0AC8
:103ED300900607E0B445037F0222900606E0B44B48
:103EE30008A3E0B44B037F03227F0022E0FBA3E09F
:103EF300FAA3E0F9900610EBF0A3EAF0A3E9F0A32C
:103F0300EDF0E4FC900617F0900613E0FDECC39D82
:103F13005055900610E0FBA3E0FAA3E0F9AF048F3D
:103F2300827583001203CC540F900617F00C900691
:103F330013E0FFECC39F500D8C827583001203CCFA
:103F4300540FFE80027E0F900617E0C454F04EFF1C
:103F5300900614E0FBA3E475F00112048BA9F0FAB8
:103F6300EF1203F90C80A1221260D812628B125651
:103F7300371256971258091253F81256F77B027DDF
:103F8300087F0512226E7D087F0512500EE4FB7D2B
:103F9300407F0612226E7B027D107F0212226E7D0D
:103FA300107F021252557B027D087F0212226E7D22
:103FB300087F02125255E4FB7D207F0612226EE435
:103FC300FB7D107F0312226EE4FB7D207F03122210
:103FD3006EE4FB7D407F0312226EE4FB7D807F0352
:103FE30002226E900633EFF0E4A3F0900689E070AE
:103FF300227D02FF123D78EF640170179006890459
:10400300F0900633E09006A0F0E490068AF0126088
:10401300C88048E4900634F0900634E0FFFD7C004D
:10402300C39414748094805015748C2FF582E434F7
:1040330006F583E06008900634E004F080DAC3ED0F
:104043009414EC648094805012900633E0FFA3E054
:10405300248CF582E43406F583EFF07F0122E490AB
:104063000607F0900689E0700B7D02FF123D78EFA2
:10407300640160611262AEE4900607F0900607E007
:10408300FFFD3395E0FCC3ED9414EC648094805001
:1040930019EF3395E0FE748C2FF58274063EF58399
:1040A300E4F0900607E004F080D290068AE0C3941F
:1040B30004748094804010E49006A0F09006897404
:1040C30003F0E4A3F0800BE49006A0F0900689745B
:1040D30003F01260C82290061DECF0A3EDF0A3EBF1
:1040E300F0AA0775965BAD97C2AFE4F5CFF5CEEABC
:1040F30025E025E042CE90061DE0FEA3E0F5CFEEDD
:10410300540342CEA3E0F5D175D26900000000E468
:10411300F5CFF5CEAF05EDAF0290061D700CE0FCB8
:10412300A3E0FD125AFCA907800AE0FCA3E0FD12FC
:1041330057DFA90790061FE0B50106A37401F080BD
:1041430005E4900620F0D2AF900620E0FF22E49031
:104153000606F0F0900606E0FFC394647480948032
:10416300504F75F005EFA42404F582E5F03400F513
:1041730083E064017033900606E075F005A424041F
:10418300F582E5F03400F58374FFF0900004C083FA
:10419300C082FDEF75F005A42400F9740035F0FA30
:1041A3007B01D007D006120850900606E004F08089
:1041B300A37B017A0079009006137401F0A374F4D1
:1041C300F07F01021C8590060AEFF0A3EDF0A31225
:1041D300060200000000E4900610F090060BE0FFDA
:1041E300900610E0C39F503A90060CE0F8A3E0F964
:1041F300A3E0FAA3E0FB90060AE0FF12593CE4FCBB
:10420300FDEB2FFFEA3EFEED39FDEC38FC90060C8A
:104213001205F67F057E001258CD900610E004F0DB
:1042230080B990060BE0FBE4FAF9F8A3E0FCA3E005
:10423300FDA3E0FEA3E0FF0204FCE4FF900765E0BA
:10424300FEEFC39E506374A32FF582E43404F58319
:10425300E4F074F62FF582E43403F583E4F0749705
:104263002FF582E43404F583E4F074EA2FF582E455
:104273003403F583E4F074062FF582E43404F58304
:10428300E4F0748B2FF582E43404F583E4F074DEF8
:104293002FF582E43403F583E4F074422FF582E4CE
:1042A3003404F583E4F00F8093E4FF024F8190051B
:1042B3005EE0640170057F01026317E4900605F078
:1042C300A3741DF0E4900605F0900606E0FF900647
:1042D30005E0FEC39F5037EE75F005A424C2F582B6
:1042E300E43404F583E0FF90055EE0FEEFB50616C7
:1042F300900605E075F005A424C1F582E43404F5C5
:1043030083E090055EF0900605E004F080BB900525
:104313005EE0FF123BF290055EE0FF12549F1254E1
:104323003122900607EFF0E490056BF012637CEF07
:104333006401702B900607E0FF64086022EFF4FF2E
:10434300E4F44F7F0060027F01900563E0FE5F604D
:1043530004E4F0800A900607E05E900563F0227F94
:104363005212631712638B7BFF7A5F79A17F037EFF
:1043730000125ABB900607E024FE600F24FE600E75
:1043830024FC600D2407700C0261A20261AF02617C
:10439300BC12639722EFC3940A748094805066EF33
:1043A30075F00EA4245CF582E43402F583E06F70AB
:1043B30054EF75F00EA4245CF582E43402F58374A3
:1043C300FFF0EF75F00EA4245DF582E43402F5836B
:1043D30074FFF090000CC083C082FDEF75F00EA453
:1043E300245EF9740235F0FA7B01D007D006120877
:1043F300507B017A02795C900613E4F0A3748CF08D
:104403007F03021C857F0122126294C204122E16BE
:104413009063A3E49375F002A42466F582E5F03477
:1044230064F583E493FE740193FFE4FCFD780312C7
:1044330005E3E47B0AFAF9F81204FC900404EEF0B5
:10444300A3EFF09063A3E49375F002A42466F582CE
:10445300E5F03464F583E493FE740193FF90640DF7
:10446300E493FD7C00120679E47B0AFAF9F812045E
:10447300FC900402EEF0A3EFF022E4900606F0F0C5
:10448300900606E0FFC3940A748094805049E0FECE
:1044930075F00EA4245DF582E43402F58374FFF015
:1044A300EE75F00EA4245CF582E43402F58374FF08
:1044B300F090000CC083C082FDEF75F00EA4245E63
:1044C300F9740235F0FA7B01D007D0061208509038
:1044D3000606E004F080A97B017A02795C9006135A
:1044E300E4F0A3748CF07F03021C85C202EF25E085
:1044F3002473F582E43404F583E0FCA3E0FD900427
:1045030004E0FAA3E0FBC3ED9BEC9A5020EF25E017
:104513002473F582E43404F583E0FEA3E0FF900402
:1045230002E0FCA3E0FDC3EF9DEE9C50289004AF96
:10453300E004F0E0C3940A748094804018E4F0D25D
:1045430002F5C953F1DFC200C20190046674FFF0A3
:10455300C20412304C22121C647E007F647DFF7BF8
:10456300017A0179F41208507B017A0179F49006FB
:1045730013E4F0A37464F07F02121C8512004E7ED4
:10458300007F8C7DFF7B017A02795C1208507B01EE
:104593007A02795C900613E4F0A3748CF07F031223
:1045A3001C85750801750901E4F50AF50BF50DFB8A
:1045B3007A007908900613F0A37406F0E4FF021C56
:1045C30085900605EFF0640A702A126382EF602477
:1045D30090070FE07002A3E070059007048011902C
:1045E3000704E004F0E0D39402748094804005E46F
:1045F300F0126144900605E0FF7E007401A80708ED
:104603008005C333CE33CED8F9FF90070FE04EFEBB
:10461300A3E04FFF90070FEEF0A3EFF0BE0F0ABF2A
:10462300FF077D017F931250532290060AEFF0A3F8
:10463300ECF0A3EDF0124EB5EF640170037FFF229F
:104643007F011263497F067E00125B9A7F06126325
:104653004C90060AE0FF125CC890060BE0FF125C68
:10466300C890060BA3E0FF125CC890060BE0FCA306
:10467300E0FDECFF7E0090060AE0240DFBE433CB63
:104683002FFFEE3BFE7C00EF2D1250FF12279A22E4
:10469300900607EEF0A3EFF0A3ECF0A3EDF0124EBB
:1046A300B5EF640170037FFF227F011263497F0727
:1046B3007E00125B9A7F0C12634C900607E0FF1298
:1046C3005CC8900607A3E0FF125CC8900609E0FFF0
:1046D300125CC8900609A3E0FF125CC8900607E0CD
:1046E300FCA3E0FDEC2414FFE433FE7C00EF2D1269
:1046F30050E912279A2212631D900630EFF07E00D4
:10470300C39412748094804009EF94417480948020
:104713004029EF64534E6023EF64424E7002801BC6
:10472300900630E0FF64436005EF64447014126345
:1047330085EF7007900559F0A3F0227F08125431DA
:104743008013900630E06441700B900559F0A3F09C
:104753007F900254317F6012631722EFC394647415
:10476300809480505875F005EFA42404F582E5F099
:104773003400F583E06D704575F005EFA42404F56E
:1047830082E5F03400F58374FFF0900004C083C029
:1047930082FDEF75F005A42400F9740035F0FA7B6F
:1047A30001D007D0061208507B017A0079009006E9
:1047B300137401F0A374F4F07F01021C857F0122BE
:1047C3007EFFEFB40C0050599047D2F828287302AB
:1047D30047F60247FA0247FE024802024806024829
:1047E3000A02480E02481202481602481A02481EDC
:1047F3000248227E0A802AE4FE80267E0B80227EE7
:1048030007801E7E04801A7E0180167E0880127E39
:1048130009800E7E06800A7E0380067E0280027E69
:1048230005AF0622900605EFF0A3741DF090055D19
:10483300E0FDEFC39D40037F0122900605E025E0E4
:1048430024B1F582E43404F583E0FE75F005A42475
:10485300C3F582E43404F583A3E0FAA3E0F94A60E4
:1048630005120673801F900605E025E024B2F58249
:10487300E43404F583E0FF123BF290055EE0FF129F
:10488300549F1254317F0022900607EBF0A3EAF005
:10489300A3E9F0E4FEEFFD7C007005A304F080289B
:1048A300ED64014C700890060A7402F0801AED64FE
:1048B300024C700890060A7403F0800CED64034CFC
:1048C300700690060A7404F090060AE0FF9006074B
:1048D300E0F9A3E0FAA3E0900610C9F0A3EAF0A37D
:1048E300E9F07B2C7A01E4FDFC0235B57B017D0206
:1048F30090060AEBF0A3EAF0A3E9F0A3EDF0C2AF50
:104903001257C17F501239D25002802AE490060E0A
:10491300F090060DE0FFA3E0FEC39F502990060A26
:10492300E0FBA3E0FAA3E0F98E827583001203CCC7
:10493300FF1239D25008125B5AD2AF7F0122900680
:104943000EE004F080CBD2AF125B5A7F0022E490DA
:104953000612F043EC10900611F0900611E0C39498
:104963000874809480503A5390F77F027E00125F60
:10497300CB4390087F027E00125FCBE59030E407C3
:10498300900612E04401F0900611E0C3940774808E
:1049930094805005A3E025E0F0900611E004F08038
:1049A300B95390F753ECEF5390EF900612E0FF22C8
:1049B300123E73900603EFF0900721E004F07006B7
:1049C300900720E004F0EF6401701212631DEF649E
:1049D300617003125F8C7F081243258027900603C2
:1049E300E06402600FD3900721E0942C900720E04D
:1049F3009401401812631DEF64617003125F8C7F92
:104A030008125431E4900720F0A3F0227F011260D2
:104A1300F822E49005FEF0759255125A351261356D
:104A2300126358125FB6126376126361123CF97F08
:104A33000712635512629D125DB2EF701012638507
:104A4300EF700512007680057F0112631712631D54
:104A5300EF6461700812634512530E800675910767
:104A6300123318124EF012631DEF646070DF125B95
:104A7300ED80DAE4900607F0A3F0125F62EF6401C1
:104A83007002FF22900604E0FE900684E0FF75F0BA
:104A930003A42462F582E43406F583EEF090060560
:104AA300E0FEEF75F003A42463F582E43406F58396
:104AB300EEF0900606E0FEEF75F003A42464F582A1
:104AC300E43406F583EEF0126073900684EFF07F12
:104AD300012278057C067D017BFF7A6479867E005E
:104AE3007F0212038D9006037449F0A37464F07A75
:104AF3000679031248EF7F0A7E001258CD90060C08
:104B03007401F0A37406F0A37405F0A37402F07BA0
:104B1300017A067903E4FD1229B5900605E0B4494C
:104B230008A3E0B44F037F01227F0022E4900552E3
:104B3300F0A3F090056BE004F0EF24FE601D24FE6B
:104B4300602E2403703F7F9312543190056BE0C3B2
:104B5300940574809480402D0261C97F961254316C
:104B630090056BE0C394057480948040180261D66D
:104B73007F9912543190056BE0C39405748094803F
:104B830040031261E322E4FE900602F043FB017549
:104B9300962D5397FE7F14125FCB7F0712593C5318
:104BA300FBFE75962D43970190072DE07002A3E05D
:104BB300700890072DEEF0A3EFF0D3EF94F4EE948A
:104BC30001401890072EE024E2FD90072DE034FF0A
:104BD300FCC3EF9DEE9C50037F01227F002275965C
:104BE300515397BF7596545397DF53ECFE5390FE82
:104BF30075962D5397F77F027E001258CD75963028
:104C03005397E7439718E4F5FDF5FF43FD8053FD04
:104C1300CF43FD2053FDF043FD0553FFF743FF084A
:104C230053FFF843FF047596585397FD43FB024324
:104C3300FB0122900721E004F07006900720E004B6
:104C4300F0124AD5EF6401701A90071AE004F0E0FD
:104C5300C3940274809480400F1259A8E490071AF9
:104C6300F08018E490071AF0D3900721E09458904D
:104C73000720E09402400B125984E4900720F0A32C
:104C8300F022E4FF1260F822EFC394027480948050
:104C930040037F0122E4FEEEC3940C7480948050A1
:104CA3003574522EF582E43406F583E0FDEF75F09A
:104CB3000CA4243AF582E43406F583E5822EF582CA
:104CC300E43583F583EDF074522EF582E43406F572
:104CD30083E4F00E80C17F00229006057401F0D3B7
:104CE300900721E09400900720E0940040037F00A8
:104CF300221263947FFA7E001258CD125BB3EF70D9
:104D03000E7FFAFE1258CD125BB3900605EFF090BA
:104D13000605E06401700B900720F0A304F0FF1276
:104D230060F8900605E0FF22E4900605F07F51123B
:104D33006317125DCAEF60069006057401F0124115
:104D430051EF60069006057401F0123C76EF6006A1
:104D53009006057401F012447DEF60069006057419
:104D630001F0900605E070047F4C80027F08125426
:104D7300317F01026317900607ECF0A3EDF0E4FE28
:104D8300EFFD7C007005A304F08028ED64014C70F6
:104D9300089006097402F0801AED64024C700890C2
:104DA30006097403F0800CED64034C700690060949
:104DB3007404F0900609E0FF900607E0FCA3E0FD11
:104DC30002462DE4900630F01262D1EF702B90076B
:104DD30026E07035900728E004F07006900727E07E
:104DE30004F0C3900728E09428900727E09400403C
:104DF300189007267401F08010E4900727F0A3F0C1
:104E0300900726F090063004F0900630E0FF22432E
:104E1300C03075963453979F439740E4F5DEF5DF32
:104E23009006071206020000E100E4FF1255A453A6
:104E3300DDF753DDFB53DDFD53DDFE43DD0153DDC4
:104E4300EF43DD2043DE0843DE0453E1FB53F4FB71
:104E530043F40443E70443DD4022E4FFEFD3940A21
:104E6300748094805036EF75F003A42462F582E4D5
:104E73003406F58374FFF0EF75F003A42463F58221
:104E8300E43406F58374FFF0EF75F003A42464F5AE
:104E930082E43406F58374FFF00F80C0E490068348
:104EA300F0A3F022EFF0ECA3F0A3EDF0A3EAF0A35C
:104EB300EBF0E49006BBF07FEF125CC87F01125C5D
:104EC300C8125CB57810125CB79006D7E0FCA3E07B
:104ED300FDA3E0FEA3E0FF78081205D0125CC890A2
:104EE30006D7A3A3A3E0FF125CC87F00227B017A4D
:104EF3000579FF12378FEF603C1262A69005FFE041
:104F030014601914601E14602324FE6022146022AE
:104F130024067021900601E0FF020903900601E0D8
:104F2300FF021935900601E0FF0220F10258A702A3
:104F330061FC125D1C2290060BEBF0A3EAF0A3E9DF
:104F4300F0A37452F07B017A06790EE4FD12326B02
:104F5300EF70037F01229006287401F0A37406F01A
:104F6300A3740EF0A37402F090060BE0FBA3E0FA27
:104F7300A3E0F9122ED7EF7F0070027F0122EF70BA
:104F83001F9064119390075AF0906412E493900772
:104F93005CF0906413E493900759F0906414801EBE
:104FA300906415E49390075AF0906416E493900785
:104FB3005CF0906417E493900759F0906418E493BD
:104FC30090075BF02253CCBFA206E433C4333354BF
:104FD3004042CCE4900607F0900606E0FFA3E0C34E
:104FE3009F50277591072006199063A9E493FF90BA
:104FF3000412E0FCA3E0FD125509900608EEF0A3AD
:10500300EFF0900607E004F080CE22EFB4070050E3
:105013003E90501BF828287302503002503502503E
:105023003A02503F02504402504902504EEDF452AE
:10503300F822EDF4528022EDF4529022EDF452B0B6
:1050430022EDF452C022EDF452C822EDF452D822DC
:105053007E05E4FCECC39E5011740A2CF582E43403
:1050630007F583E06F60030C80EAAF05A804EF083F
:105073008002C333D8FCFF900709E02FF00CECC388
:105083009E5005AF04023AE5900709E0FF125DF96F
:1050930012614422C0E0C0F0C083C082C0D075D08A
:1050A30000C000C001C002C003C004C005C006C0E8
:1050B3000753F17FE5AE30E3031223E6D007D006B2
:1050C300D005D004D003D002D001D000D0D0D082FC
:1050D300D083D0F0D0E032FFE433FE7C00EF2DFF2D
:1050E300EC3EFEA3E02FFDEC3EA3FCE0FAA3E0FBC5
:1050F300EA7E002DFFEE3CFE7C00EF2BFFEC3EFE34
:10510300900614EEF0A3EFF0900614E0FF125CC8D3
:10511300900614A3E0FF025CC8AB07900624ECF0F2
:10512300A3EDF06BFBC454F06BFBFC900624E0FF93
:10513300EFFDEB75F008A4FFE5F06CFCEF6DFDE40B
:10514300C4F854F0C868FEEBC4540F48FFEE6CFE7D
:10515300EF6DFFEEF0A3EFF022E4FEEFFD7C0070B5
:105163000790060704F08028ED64014C7008900650
:10517300077402F0801AED64024C700890060774FD
:1051830003F0800CED64034C70069006077404F082
:10519300900607E0FF0253BEC0E0C0F0C083C082A8
:1051A300C0D075D000C000C001C002C003C004C09D
:1051B30005C006C0075388DF12346DD007D006D070
:1051C30005D004D003D002D001D000D0D0D082D0FB
:1051D30083D0F0D0E032C0E0C083C082C0D075D0AD
:1051E30000C007E5DF30E3219006BBE0C3941474ED
:1051F3008094805014E0FF04F074A12FF582E4340E
:1052030006F583E5E2F053DFF7D007D0D0D082D0A4
:1052130083D0E032900620EBF0A3EAF0A3E9F0EFAD
:10522300B401067463FCFD8004E4FEFF22900620B3
:10523300E0FBA3E475F00112048BA9F0FA1203B3A7
:10524300FAFF12511CAC06AD07900623E014F07070
:10525300DC22EFB407005037905262F8282873021B
:10526300527702527B02527F0252830252870252CA
:105273008B02528FED42F822ED428022ED429022C2
:10528300ED42B022ED42C022ED42C822ED42D822C7
:105293009005FE7401F0125EA57FFA7E001258CDD0
:1052A300125D03EF700E7FFAFE1258CD125D03906C
:1052B30005FEEFF09005FEE06401700C900720F00E
:1052C300A304F0E4FF1260F89005FEE0FF22AE07AE
:1052D3001254D4EF7032EE25E024F4F582E4340165
:1052E300F58374FFF0EE25E024F5F582E43401F54F
:1052F3008374FFF07B017A0179F4900613E4F0A341
:105303007464F07F02021C857F01227FFF9006BD3B
:10531300E004F0E0D39404748094804005E4F01238
:105323006208EF601212635BEF700C126379EF6037
:10533300061262DFEF700E1261F01247C39006C3CC
:10534300EFF0125F8C22900606EBF0A3EAF0A3E9DC
:10535300F07B017A0679527D021238B9900606E095
:10536300FBA3E0FAA3E0F9EF1203F9900606E0FBD2
:10537300A3E0FAA3E0F91203B3F47F0160027F0014
:1053830022C0E0C083C082C0D075D000C00753885C
:105393007FE5895430C4540F64026006850F8D8500
:1053A300118B9006BAE004F070069006B9E004F0A1
:1053B300D007D0D0D082D083D0E032900608EFF06F
:1053C300124EB5EF640170037FFF227F0112634920
:1053D3007F047E00125B9A7F0212634C900608E002
:1053E300FF125CC8900608E02407FFE433FE125165
:1053F3000312279A227B027D107F0412226E7D10F6
:105403007F041252557B017D207F0412226E7D2082
:105413007F041252557B027D807F0412226E7D80B1
:105423007F041252557B017D407F0402226E900659
:1054330031EFF0C3945D748094805005E0FF023F28
:10544300E6900631E024A3A3F0900632E0246CF545
:1054530082E43405F583E0FF600B123FE6900632E9
:10546300E004F080E422E4900601F043FB011231F2
:10547300BDEF700790060104F08005E4900601F08B
:1054830090072DE07002A3E07009900601E070031D
:10549300124B8953FBFE900601E0FF22E4FE75F0F8
:1054A30002EEA424E8F582E5F03402F583E0FDC3BF
:1054B300949B748094805007ED6F60030E80DF75BA
:1054C300F002EEA424E9F582E5F03402F583E0FF6F
:1054D30022EFC39432748094805028EF25E024F5A2
:1054E300F582E43401F583E06F7018EF25E024F4CE
:1054F300F582E43401F583E06D6005ED6402700329
:105503007F00227F0122AB078DCA53CC7FEC54016D
:10551300C313E41342CC53CCC0EB543F42CCC20080
:1055230075C90130030343AD102000057591078051
:10553300F8AFACEFFEADABEDFF22E4FFEFFD7C0077
:10554300C3946474809480501675F005EFA424040A
:10555300F582E5F03400F583E0F460030F80DDC3EA
:10556300ED9464EC648094805001227FFF22E4FF79
:10557300EFFD7C00C3940A748094805015EF75F09E
:105583000EA4245CF582E43402F583E0F460030F97
:1055930080DEC3ED940AEC6480948040037FFF2295
:1055A30022900606EFF0A3E0F8A3E0F9A3E0FAA344
:1055B300E0FB7F607EE37D167C001204FC90060610
:1055C300E070088FDCEE540342DE228FD6EE5403E4
:1055D30042D9227F02EFFD7C00C394327480948011
:1055E3005013EF25E024F5F582E43401F583E0F46C
:1055F30060030F80E0C3ED9432EC64809480400339
:105603007FFF2222E4FB7D107F0412226E7D107F38
:105613000412500EE4FB7D207F0412226E7D207F56
:105623000412500EE4FB7D807F0412226E7D807F86
:105633000402500E7B027D207F0112226E7B027DCD
:10564300407F0112226E7B027D807F0112226E7DDC
:10565300207F011252557D407F011252557D807F7C
:1056630001025255E4FB7D207F0112226EE4FB7D93
:10567300407F0112226EE4FB7D807F0112226E7D4A
:10568300207F0112500E7D407F0112500E7D807FDE
:105693000102500E7B027D017F0112226E7B027D8F
:1056A300027F0112226E7B027D047F0112226E7D36
:1056B300017F0112500E7D027F0112500E7D047F87
:1056C3000102500EE4FB7D017F0112226EE4FB7D9B
:1056D300027F0112226EE4FB7D047F0112226E7DA4
:1056E300017F0112500E7D027F0112500E7D047F57
:1056F3000102500E7B027D017F0612226E7D017F27
:105703000612500E7B027D047F0612226E7D047FFB
:105713000612500E7B027D027F0612226E7D027FEF
:105723000602500EE4FB7D017F0612226E7D017F8F
:105733000612500EE4FB7D047F0612226E7D047F69
:105743000612500EE4FB7D027F0612226E7D027F5D
:105753000602500EEF25E024F5F582E43401F583CB
:10576300EFF025E024F4F582E43401F583EDF07BDA
:10577300017A0179F4900613E4F0A37464F07F02D4
:10578300021C85E4FB7D02FF12226E7D02E4FF1200
:10579300500EE4FB7D01FF12226E7D01E4FF1250E7
:1057A3000EE4FB7D047F0512226E7D047F0502500B
:1057B3000EEFF0A3EBF0A3EAF0A3E9F0C2AF53ECD2
:1057C300EF4390104390087F017E00125FCB53900C
:1057D300EF7F017E00125FCB5390F722EF6009E465
:1057E3002DFBEC3446FA8007E42DFBEC3444FAC27B
:1057F300AF75D288EAF5CEEBF5CFAFD4E4F5D2F5A9
:10580300CEF5CFD2AF227B017D02E4FF12226E7B65
:10581300027D01E4FF12226E7D01E4FF12500E7B34
:10582300027D047F0512226E7D047F0502525553CB
:10583300ECEF5390EF5390F7EF6005439010800324
:105843005390EF7F017E00125FCB4390087F017E70
:1058530000125FCB5390F722EFFB7A00700C8DE2BE
:10586300E5DF541060FA53DFEF22EB64014A700D59
:10587300AF058FDBE5DA541060FA53DAEF22E490D8
:1058830006C6F09006C5F0FE7F087DFF7B017A0611
:1058930079C71208507E007F087DFF7B017A067965
:1058A300CF02085012631DEF6454700B12633BEF79
:1058B300649870030262E6124559EF70047F4C80CE
:1058C300027F0812543112007622AB07AA06D3EBEB
:1058D3009400EA940040177C037D5A759107ED1DEF
:1058E30070011CED4C70F4EB1B70E31A80E0225343
:1058F300DDBF1262CA125786125607125727125675
:10590300671256C775962D43970275962D439720B8
:1059130075925522124EB5EF640170037FFF227F0B
:1059230001126349125B967F0312634C7F077E006B
:105933001251037D0512279C2253C381EF25E054A6
:105943007E42C343C301E5F120E40575910780F668
:1059530053F1EFE5C5540FFEADC6EDFF22E4FBFDA9
:10596300900601EFF0A3EDF0A3EBF078047C067D45
:10597300017B017A0679017E007F0312038D024ABF
:1059830076E4FF125E2512631DEF645570077F01F5
:10599300126317800B12631DEF64617003125F8C37
:1059A3007F080254317F01125E2512631DEF645597
:1059B30070077F01126317800B12631DEF64617020
:1059C30003125F8C7F05025431124EB5EF640170F0
:1059D300037FFF227F01126349125B967F011263EB
:1059E3004C7F057E0012510312279A22124EB5EF07
:1059F300640170037FFF227F01126349125B967F6C
:105A03000512634C7F097E0012510312279A22125A
:105A13004EB5EF640170037FFF227F0112634912C9
:105A23005B967F0D12634C7F117E00125103122788
:105A33009A22C2AF7F0412615375962D5397DF7577
:105A430096305397F8D2AF75962D5397EF7FDC7E40
:105A5300050258CD1255D6EFF470087F5C1254310D
:105A6300025C447F101254317F0112636D12632371
:105A73007F221263172275962D5397DF75962D5348
:105A830097FD1256371256971258091253F81256A9
:105A9300F71262C3025E517C0C5393FB439304538E
:105AA30093FD4393025393F7ECF5947595CC53F11F
:105AB3007F53F67F53E67F22E490055BF0A3F090DB
:105AC3000565EEF0A3EFF090055FEBF0A3EAF0A31A
