:100000000238520200967F51025C9F024D99E4FF34
:1000100002543B02009EE4FF02551F024F09E4F523
:10002000C9C20053F1DF900418E0FEA3E0F5CA5303
:10003000CC7FEE5401C313E41342CC53CCC0905D8B
:1000400032E493543F42CC75C901220200A6E4FF7A
:100050000255B002008E125D11E490055BF07F61E5
:10006000025C9F025C7BE4FF0255D302008A53E1ED
:10007000DF3232024C95125D207F2A124FB67F018B
:10008000025C9F025CDF53E1F73232024DD753F13D
:02009000F73245
:070093000200865388FD32D4
:07009B000200725388F732E6
:0700A30002006E53F1FB3275
:0700AB000200AE53E1BF3279
:1000B300025CDBEC4D6011E8497017ED33EC33045F
:1000C300600DE4FCFFFEFD22E933E8330470F8021F
:1000D30002A812027358046009E4CC248150062854
:1000E30050090202B22840030202AFC0E0EB4A709B
:1000F30044B98006D0E0FB02029EEF4E701CBD8027
:1001030008EBFFEAFEE9FD80EBE98DF0A4FEE5F0E4
:1001130002019FE9CDF9EAFEEBFFEF89F0A4FCE5CC
:10012300F0CE89F0A42EFFE435F0CD89F0A42DFEA6
:10013300E435F08067EF4E7005BD80D780C3EF8B49
:10014300F0A4ACF0EE8BF0A42CFCE435F0F8EF8ACD
:10015300F0A42CE5F038FCE433CB8DF0A42CFCE5C3
:10016300F03BF8EE8AF0A42CFCE5F038F8E433CF4A
:1001730089F0A42CFCE5F038CF3400CE89F0A42F0D
:10018300FFE5F03EFEE433C98DF0A42EFEE5F03921
:10019300CD8AF0A42FFFE5F03EFEE43DFD33D0E031
:1001A300FB50070BBB000F0202B2EC2CFCEF33FF3A
:1001B300EE33FEED33FD02028A74F8CC6480CCC8C2
:1001C3006480C8F58204604FC3EB9FF5F0EA9E425A
:1001D300F0E99D42F0E89C45F0603C501DE5825FEC
:1001E300FFE582D313CB5BCBF42B5582FB50280A5C
:1001F300BA002409B9002008801DE5825BFBE58273
:10020300D313CF5FCFF4C3132F5582FF50090EBE14
:1002130000050DBD00010CC3EB9FF5F0EA9E42F013
:10022300E99D42F0E89C45F06007CC4820E701B324
:10023300EC2275F020800E75F010800575F0087DB6
:10024300007E007F003392D530D50312059BEC333B
:100253004010EF33FFEE33FEED33FDEC33FCD5F00E
:10026300ED22E5F0247EA2D513CC92E7CDCEFF227A
:10027300E9D2E7C933E833F892D5EDD2E7CD33ECD1
:1002830033FC5002B2D522EC30E7100FBF000C0E46
:10029300BE00080DBD00040BEB6014A2D5EB13FCEC
:1002A300ED92E7FD2274FFFCFDFEFF22E480F8A23D
:1002B300D574FF13FC7D80E480EFE709F608DFFACD
:1002C3008046E709F208DFFA803E88828C83E709DB
:1002D300F0A3DFFA8032E309F608DFFA8078E30956
:1002E300F208DFFA807088828C83E309F0A3DFFAD7
:1002F300806489828A83E0A3F608DFFA80588982C2
:100303008A83E0A3F208DFFA804C80D280FA80C6A9
:1003130080D4806980F28033801080A680EA809A3E
:1003230080A880DA80E280CA803389828A83ECFAEB
:10033300E493A3C8C582C8CCC583CCF0A3C8C58247
:10034300C8CCC583CCDFE9DEE7800D89828A83E4EC
:1003530093A3F608DFF9ECFAA9F0EDFB2289828A70
:1003630083ECFAE0A3C8C582C8CCC583CCF0A3C88C
:10037300C582C8CCC583CCDFEADEE880DB89828A0C
:1003830083E493A3F208DFF980CC88F0EF60010ED9
:100393004E60C388F0ED2402B4040050B9F582EB3B
:1003A3002402B4040050AF232345822390030D732A
:1003B300BB010689828A83E0225002E722BBFE0248
:1003C300E32289828A83E49322BB010CE58229F527
:1003D30082E5833AF583E0225006E92582F8E62296
:1003E300BBFE06E92582F8E222E58229F582E58350
:1003F3003AF583E49322BB010689828A83F0225073
:1004030002F722BBFE01F322F8BB010DE58229F5B9
:1004130082E5833AF583E8F0225006E92582C8F69F
:1004230022BBFE05E92582C8F222EF8DF0A4A8F0D5
:10043300CF8CF0A428CE8DF0A42EFE22C2D5EC30B2
:10044300E709B2D5E4C39DFDE49CFCEE30E715B2A9
:10045300D5E4C39FFFE49EFE120866C3E49DFDE45A
:100463009CFC800312086630D507C3E49FFFE49E1B
:10047300FE22C5F0F8A3E028F0C5F0F8E582158266
:1004830070021583E038F022A3F8E0C5F025F0F000
:10049300E582158270021583E0C838F0E822BB01BB
:1004A3000A89828A83F0E5F0A3F0225006F709A7B0
:1004B300F01922BBFE06F3E5F009F3192275F008E3
:1004C300758200EF2FFFEE33FECD33CDCC33CCC599
:1004D3008233C5829BED9AEC99E58298400CF582B4
:1004E300EE9BFEED9AFDEC99FC0FD5F0D6E4CEFB26
:1004F300E4CDFAE4CCF9A88222B800C1B90059BA14
:10050300002DEC8BF084CFCECDFCE5F0CBF9781841
:10051300EF2FFFEE33FEED33FDEC33FCEB33FB103B
:10052300D703994004EB99FB0FD8E5E4F9FA227855
:1005330018EF2FFFEE33FEED33FDEC33FCC933C967
:1005430010D7059BE99A4007EC9BFCE99AF90FD871
:10055300E0E4C9FAE4CCFB2275F010EF2FFFEE3391
:10056300FEED33FDCC33CCC833C810D7079BEC9AD0
:10057300E899400AED9BFDEC9AFCE899F80FD5F059
:10058300DAE4CDFBE4CCFAE4C8F922CFF4CFCEF41D
:10059300CECDF4CDCCF4CC22C3E49FFFE49EFEE4A5
:1005A3009DFDE49CFC22EB9FF5F0EA9E42F0E99D61
:1005B30042F0E89C45F022E8600FECC313FCED1316
:1005C300FDEE13FEEF13FFD8F122E8600FEFC33304
:1005D300FFEE33FEED33FDEC33FCD8F122ECF0A358
:1005E300EDF0A3EEF0A3EFF022A8828583F0D08391
:1005F300D082120603120603120603120603E473E3
:10060300E493A3C583C5F0C583C8C582C8F0A3C559
:1006130083C5F0C583C8C582C822BB010789828A06
:10062300830205EC5005E9F80208BBBBFE05E9F8B7
:100633000208D422D083D082F8E493701274019319
:10064300700DA3A393F8740193F5828883E4737404
:1006530002936860EFA3A3A380DF8A838982E47394
:10066300EC8EF0A4CCC5F0CCCDF8EFA4CEC5F02D24
:10067300FDE43CFCE8A42EC8C5F03DFDE43CFCEFE2
:10068300A4FFE5F028FEE43DFDE43CFC22E3F5F0A5
:1006930009E208B5F06BDFF58067E3F5F009E608DA
:1006A300B5F05EDFF5805A87F009E608B5F052DF52
:1006B300F6804E87F009E208B5F046DFF6804288FF
:1006C300828C8387F009E0A3B5F036DFF6803288A9
:1006D300828C8387F009E493A3B5F025DFF58021AD
:1006E30088828C83E3F5F009E0A3B5F014DFF5808D
:1006F3001088828C83E3F5F009E493A3B5F002DF5D
:10070300F40207BF808780E9809080D4803E801503
:10071300806E807E809D80B7808D80A380518074A1
:10072300803C0207CB89828A83ECFAE493F5F0A339
:10073300C8C582C8CCC583CCE493A3C8C582C8CC42
:10074300C583CCB5F076DFE3DEE1807089828A83EE
:10075300E493F5F0A3E208B5F062DFF4805E8982EA
:100763008A83E0F5F0A3E608B5F051DFF5804D8903
:10077300828A83E0F5F0A3E208B5F040DFF5803C20
:1007830089828A83E493F5F0A3E608B5F02EDFF4BB
:10079300802A8002805789828A83ECFAE493F5F0F9
:1007A300A3C8C582C8CCC583CCE0A3C8C582C8CCC6
:1007B300C583CCB5F006DFE4DEE280007FFFB5F051
:1007C300020F2240027F012289828A83ECFAE0F53C
:1007D300F0A3C8C582C8CCC583CCE0A3C8C582C872
:1007E300CCC583CCB5F0D5DFE5DEE380CF89828A43
:1007F30083ECFAE0F5F0A3C8C582C8CCC583CCE48A
:1008030093A3C8C582C8CCC583CCB5F0AFDFE4DE03
:10081300E280A988F0EF60010E4E60ABED2402B4D4
:1008230004005098F582EB2402B40400508E232375
:1008330045822390070773EF4E6012EF60010EEDC0
:10084300BB010B89828A83F0A3DFFCDEFA2289F0E5
:100853005007F709DFFCA9F022BBFEFCF309DFFC1C
:10086300A9F022BC000BBE0029EF8DF084FFADF090
:1008730022E4CCF875F008EF2FFFEE33FEEC33FCE7
:10088300EE9DEC984005FCEE9DFE0FD5F0E9E4CE1D
:10089300FD22EDF8F5F0EE8420D21CFEADF075F0EC
:1008A30008EF2FFFED33FD4007985006D5F0F222F5
:1008B300C398FD0FD5F0EA22D083D082E493F608E3
:1008C300740193F608740293F608740393F67404A0
:1008D30073D083D082E493F208740193F208740214
:1008E30093F208740393F2740473900600EFF0120A
:1008F3005CA5900601EFF0120637094C01094C0282
:10090300094C12094C130C94140C94150C94160CEA
:100913006C220C6C230C94240C94250C94260C6CE4
:10092300320C6C330C94340C94350C9436094C41D2
:100933000C7A420C7A430C94500D21530D49540DFB
:10094300B2550DAE6000000DC2900600E0FF1259D3
:10095300E09006C3E07053900600E0640A7030A391
:10096300E0FD7C00640170057F60020DBFED640251
:100973004C70057F01020DBF900601E064416003E6
:10098300020D1E125CCFEF7003020DC2020D1E900A
:100993000600E0640B7013A3E064016003020DC260
:1009A3007F8A124FB67F02020DBF900600E0640AF1
:1009B30070569006C2E0FF7E00700FA3E0FD14F0B6
:1009C30074C42DF582E434068015EF64014E70146F
:1009D3009006C3E0FF14F074CC2FF582E43406F5DF
:1009E3008374FFF09006C3E06003020DC29006011A
:1009F300E0FF6412600DEF64136008EF644160036D
:100A0300020DC27F5D024FB6900600E0640B600BDF
:100A13009006C3E064086003020BEE9006C3E0C3D4
:100A230094067480948050207F60124FB6E4900641
:100A3300C3F09006C2E0700280749006C2E06401C5
:100A43006003020DC2020AE8900601E06401702B04
:100A53007B017A0679C49006C3E0FD900607740211
:100A6300F0122A17EFF470077F93124FB680057FB9
:100A730001124B82E49006C3F08033900601E064D8
:100A83000270387B017A0679C49006C3E0FDE490D6
:100A93000607F0122A17EFF470077F93124FB68000
:100AA300087F01125CB11258D0E49006C3F0FE7FB8
:100AB300087DFF7B017A0679C48035900601E0FF4B
:100AC3006412600DEF64136008EF64416003020D6C
:100AD300C29006C2E0701C7F63124FB69006C274C8
:100AE30001F0E4A3F0FE7F087DFF7B017A0679CC59
:100AF30002083A9006C2E064016003020DC278C4A2
:100B03007C067D017B017A0679CCFE7F08120816EC
:100B1300EF3395E04F6003020BE6900601E06412A9
:100B230070457B017A0679C49006C3E0FD90060701
:100B33007402F0122A17EFF460057F8D020BE87B35
:100B4300017A0679C49006C3E0FD9006077401F0AC
:100B5300122734EF640170047F6980027F05124F0E
:100B6300B6125BA5020BEB900601E0644170317B8A
:100B7300017A0679C49006C3E0FDE4900607F012FB
:100B83002734EF640170047F6980027F05124FB63A
:100B9300125CCFEF7005125B22804D1258D0804853
:100BA300900601E0641370407B017A0679C49006D5
:100BB300C3E0FD9006077401F0122A17900602EFB6
:100BC300F0F470047F6F801D900602E0FF7D011238
:100BD30044E3EF70047F0580027F69124FB6125B16
:100BE300AF80057FDA124FB60254AF900601E0FFE3
:100BF30064016005EF64027016900600E0FF900642
:100C0300C3E0FE04F074C42EF582E43406805590EC
:100C13000601E0FF6412600DEF64136008EF6441A6
:100C23006003020DC29006C2E0FF7E0070199006B9
:100C330000E0FD9006C3E0FC04F074C42CF582E4EC
:100C43003406F583EDF022EF64014E6003020DC21A
:100C5300900600E0FF9006C3E0FE04F074CC2EF58E
:100C630082E43406F583EFF022900600E0640A6024
:100C730003020DC2020D1B900600E0640A6003022A
:100C83000DC2125C24125CCFEF7003025B9B020D5A
:100C93001E900600E0640B7074125C24900601E061
:100CA3001206370CC8140CFB150CFE160CD9240DB8
:100CB30001250D04260CEA340D07350D0A360D0DFA
:100CC3005000000DC2123EDDEF70047F0580027FED
:100CD30008124FB68045123AF9EF70047F0580027F
:100CE3007F08124FB68034124196EF70047F05805F
:100CF300027F08124FB6802302572D025AE1025A8F
:100D0300EE025AFB025B08025B1502000690060026
:100D1300E0640A6003020DC2125C240258D09006FC
:100D230000E0640A7006125C2402403D125CB79036
:100D33000600E0D39F4003020DC2125C249006001C
:100D4300E014FF0245AC125CD5900602EFF0649309
:100D53007010900600E0FF1259E0900600E0FF02D9
:100D630042DE900602E064967035900600E0640A65
:100D73007018125C24125B56125CC9EF6002802863
:100D83007F587E021254D5025B49900600E0640B43
:100D9300702D125C24125B567D017F96024C51121A
:100DA3005CC9EF601A125C24025AC47F01800D9063
:100DB3000600E0640A7008125C247F01125C9F2223
:100DC300C101C103C102C1004104B500440735FF9D
:100DD300FFFFFF440739FFFFFFFF4406B3FFFFFF99
:100DE300FF4206B700004106B900440683FFFFFF38
:100DF300FF4106870041069E004106880054068A8B
:100E030000000000000000000000000000000000DF
:100E130000000000410689004406EDFFFFFFFF507C
:100E230006F1EF01FFFFFFFF010007410101005041
:100E3300009B4406D4FFFFFFFF4106D80044073D53
:100E4300FFFFFFFF440741FFFFFFFF440745FFFF8D
:100E5300FFFF440749FFFFFFFF440725FFFFFFFF95
:100E6300420729000044074DFFFFFFFF440751FFDE
:100E7300FFFFFF440759FFFFFFFF010800010A00BE
:100E8300010900010B0044065CFFFFFFFF44072B31
:100E9300FFFFFFFF41072F004406BBFFFFFFFF419A
:100EA30006C3004106C2FF4106C1FF4106C0FF4120
:100EB30006BF004106BA006092056A0223000327B9
:100EC300000423000725000826000923000A270041
:100ED3000B23000423000D23000E27000F25000819
:100EE30024001627001E27002023001F2700282385
:100EF300002B24002C24002D2400514252432500B2
:100F03005146524925005144524525005148524704
:100F13002500514A524B2500513352345335250095
:100F23005136523853392500513A523C533D25002E
:100F3300513E52405341250006270051422500519E
:100F43003052315332543355345635250044055706
:100F5300FFFFFFFF4105650042055C000042055E9F
:100F63000000420567000041055B00410566004142
:100F7300056900430562000000609104C601030097
:100F8300000001040000000105000000010600004C
:100F93000001070000000108FF00060109FF578256
:100FA300020600000002070000000208FF5BFF03C7
:100FB3000AFF572D030CFF5AE1030DFF5BB9042A07
:100FC300FF5AEE042CFF5AFB042DFF5BD70544FFA9
:100FD3005B080546FF5B150547FF5BF5067FFF5B77
:100FE3003C0680000000805FFF5B228060FF5B2F78
:100FF300076700000007810000006766FF5821674C
:1010030065FF583A816CFF5853816DFF586C440754
:1010130030FFFFFFFF4107340060F602EE01E102FB
:10102300BA03C204CA05D2069C07A20E5D0FFF10C5
:101033006011631205130614DA15661669175C1836
:101043006C196F1A721B751C051D691E0C1F662017
:1010530078217B227E2304240525692666277E28A2
:101063000529082E102F11300531123269338134CE
:101073005C351336143711389639053A813B153CE4
:10108300843D7E3E113F054081417E420543084831
:101093001749184A054B194C5C4D1A4E1B4F1850F3
:1010A30005511C521D5387547E55185605577E58BB
:1010B3000559085A8A5B5D5C635D055E8D6110624C
:1010C300116305640567AE682169226A216B226D8D
:1010D3004B6E216F2270217122724C7322749075B2
:1010E30005768A77637829792A7A937B967C997D2A
:1010F3002E7E2F7F4280A881B48290837E874E8A82
:101103007E8C4F8D058E08904D912192229A219BC2
:10111300FFFFFF44075DFFFFFFFF440634FFFFFFB0
:10112300FF440717FFFFFFFF41071B0042071C0097
:1011330000440258FFFFFFFF440702FFFFFFFF4188
:1011430007060041070E0042070C000045070793FE
:10115300040596984107010044071FFFFFFFFF4264
:101163000723000041071E0000900600EFF0A205D0
:1011730092069006047403F0124B3C3005030214EC
:10118300F7900600E0FF25E02452F582E4345DF594
:1011930083E493FC740193FD75F002EFA42418F526
:1011A30082E5F03404F583ECF0A3EDF0900600E063
:1011B300FE905D3293FF900603F075F002EEA424D7
:1011C30018F582E5F03404F583E0FCA3E0FD12504A
:1011D3008E900600E0FD75F002A42479F582E5F017
:1011E3003404F583EEF0A3EFF075F002EDA4247957
:1011F300F582E5F03404F583E0FEA3E0FF900601F9
:10120300E0FCA3E0FDD3EF9DEE9C50030213E290BC
:101213000600E0FF75F002A42479F582E5F03404BA
:10122300F583E0FCA3E0FD900601E0FAA3E0FBD325
:10123300ED9BEC9A50030212FE75910775F002EFD5
:10124300A42418F582E5F03404F583E0FEA3E0C39B
:1012530094FFEE940140030212FE900600E0FF7536
:10126300F002A42418F582E5F03404F583E475F064
:101273000112047575F002EFA42418F582E5F03429
:1012830004F583E0FCA3E0FD900603E0FF12508E1B
:10129300900600E0FD75F002A42479F582E5F034B0
:1012A30004F583EEF0A3EFF075F002EDA42479F5D5
:1012B30082E5F03404F583E0FEA3E0FF75F002ED70
:1012C300A42430F582E5F03404F583EEF0A3EFF0C7
:1012D30075F002EDA42479F582E5F03404F583E09A
:1012E300FEA3E0FF75F002EDA42454F582E5F0348B
:1012F30004F583EEF0A3EFF0021212E5CDC4540718
:101303002409F9E47F01FEFDFCA8011205CDEF24B9
:10131300F6FBEE34FFFAED34FFF9EC34FFF89006F8
:1013230000E075F002A42479F582E5F03404F58336
:10133300E0FEA3E0FFE4FCFDD31205A94003021382
:10134300E2900600E0FF75F002A42418F582E5F0B0
:101353003404F583E475F00112047575F002EFA40B
:101363002418F582E5F03404F583E0FCA3E0FD9056
:101373000603E0FF12508E900600E0FD75F002A414
:101383002479F582E5F03404F583EEF0A3EFF075EC
:10139300F002EDA42479F582E5F03404F583E0FE50
:1013A300A3E0FF75F002EDA42430F582E5F03404E8
:1013B300F583EEF0A3EFF075F002EDA42479F58246
:1013C300E5F03404F583E0FEA3E0FF75F002EDA43D
:1013D3002454F582E5F03404F583EEF0A3EFF090A6
:1013E3000600E075F002A42479F582E5F03404F5F3
:1013F30083E0FEA3E0FF900601E0FCA3E0FDD3EF52
:101403009DEE9C40030214F7900600E0FF75F00286
:10141300A42479F582E5F03404F583E0FCA3E0FD30
:10142300900601E0FAA3E0FBC3ED9BEC9A400302B4
:1014330014F775910775F002EFA42418F582E5F00F
:101443003404F583E0FEA3E0D39400EE940050034C
:101453000214F7900600E0FF75F002A42418F58249
:10146300E5F03404F58374FFF5F012047575F002AA
:10147300EFA42418F582E5F03404F583E0FCA3E03F
:10148300FD900603E0FF12508E900600E0FD75F01C
:1014930002A42479F582E5F03404F583EEF0A3EF9A
:1014A300F075F002EDA42479F582E5F03404F583B8
:1014B300E0FEA3E0FF75F002EDA42430F582E5F031
:1014C3003404F583EEF0A3EFF075F002EDA4247974
:1014D300F582E5F03404F583E0FEA3E0FF75F00246
:1014E300EDA42454F582E5F03404F583EEF0A3EF84
:1014F300F002140B22AB07EB25E024A9F582E434B8
:101503005DF583E493FF740193900604CFF0A3EF9A
:10151300F0EB25E024A9F582E4345DF583E493FC44
:10152300740193FD905D99E493FF7E0012042DEE08
:10153300C4F854F0C868FEEFC4540F48FF90060681
:10154300EEF0A3EFF075F002EBA42479F582E5F059
:101553003404F583E0FEA3E0FF75F002EBA424302E
:10156300F582E5F03404F583E0FCA3E0C39FFFECD0
:101573009EFE900602F0A3EFF0C3EE6480948050C9
:10158300030216D5A3E0FEA3E0FF900602E0FCA34E
:10159300E0FD9FEE6480F8EC648098401074E42BC7
:1015A300F582E43403F5837401F00216A190060674
:1015B300E0FEA3E0FFC3ED9FEE6480F8EC64809847
:1015C300405874A92BF582E43404F583E004F074E5
:1015D300FC2BF582E43403F583E4F0749D2BF58250
:1015E300E43404F583E4F074F02BF582E43403F57A
:1015F30083E4F074A92BF582E43404F583E0FF90CF
:101603000756E0FEEFC39E50030216A174A92BF503
:1016130082E43404F583E4F0806E74A92BF582E44C
:101623003404F583E4F074FC2BF582E43403F5838E
:10163300E004F0749D2BF582E43404F583E4F07444
:10164300F02BF582E43403F583E4F074FC2BF5828C
:10165300E43403F583E0FF900758E0FEEFC39E40B8
:101663003D74FC2BF582E43403F583E4F075F0025A
:10167300EBA42430F582E5F03404F583E0FEA3E027
:10168300D39400EE9400401675F002EBA42430F5D9
:1016930082E5F03404F58374FFF5F0120475905D70
:1016A300EBE493FE740193FFC3900605E09FFF9064
:1016B3000604E09EFEC3900603E09F900602E09EB0
:1016C300400302184674E42BF582E43403F583E403
:1016D300F02274E42BF582E43403F583E4F09006FE
:1016E30006E0FEA3E0FFC3E49FFFE49EFEC3900673
:1016F30003E09FEE6480F8900602E0648098406CFB
:1017030074A92BF582E43404F583E4F074FC2BF51F
:1017130082E43403F583E4F0749D2BF582E434040E
:10172300F583E004F074F02BF582E43403F583E4ED
:10173300F0749D2BF582E43404F583E0FF900755A4
:10174300E0FEEFC39E5003021846749D2BF582E41E
:101753003404F583E4F075F002EBA42430F582E55C
:10176300F03404F583E475F00102184374A92BF5F2
:1017730082E43404F583E4F074FC2BF582E434034F
:10178300F583E4F0749D2BF582E43404F583E4F0EF
:1017930074F02BF582E43403F583E004F074F02B4A
:1017A300F582E43403F583E0FF900757E0FEEFC3CF
:1017B3009E500302184674F02BF582E43403F5833C
:1017C300E4F0900605E025E0FD900604E033FCE03C
:1017D300A2E713FEA3E0132DFFEE3CFEC3E49FFF3D
:1017E300E49EFED3900603E09FEE6480F890060229
:1017F300E0648098502975F002EBA42479F582E522
:10180300F03404F583E0FEA3E0FF75F002EBA424BB
:1018130030F582E5F03404F583EEF0A3EFF0229087
:101823000606E0FEA3E0FF7C007D0512043F75F091
:1018330002EBA42430F582E5F03404F583EE8FF057
:1018430012047522900600EFF0E4A3F0A3F0A3F0D6
:10185300125CA5900604EFF07E0064016017EF644C
:10186300226012EF6423600DEF64426008EF64436B
:101873006003021B53EF64544E700B125CD5EF648C
:10188300056003021B53125D0212000E900601EF66
:10189300F06003021B499006C2E0FF124D5A900606
:1018A30001EFF06003021B499006C2E0FF7B017A5F
:1018B300067902124610900601EFF0600302199EAA
:1018C300900604E06401701F900602A3E0FF7D020E
:1018D300125059900601EFF060030219A67F02121D
:1018E3005D0B7F02024B82900604E0FF6422600FCF
:1018F300EF6442600AEF64436005EF6454700A7F4B
:1019030003125D0B7F69021B50900604E0642360A1
:1019130003021B53900602A3E0FF7D01125059906E
:101923000601EFF0706B9006C2E0700C04F07F02CA
:10193300125D0B7F11021B50120016900601EFF08F
:101943006003F4703F900602A3E0FF7D01124E9105
:10195300900601EFF0700EA3E0FEA3E0FF125C66B9
:10196300900601EFF0900601E070097F02125D0B13
:101973007F0580077F03125D0B7F69124FB6125BF1
:10198300CD021B237F03125D0B7F96124FB6021B02
:10199300237F03125D0B7F84021B50900604E064D7
:1019A30001700A7F03125D0B7F96021B50900604A1
:1019B300E0FF64226012EF6442600DEF644360084D
:1019C300EF64546003021B389006C2E064026003B4
:1019D300021B2912004E900601EFF06003021B194F
:1019E300900604E0FF64226008EF64546003021A67
:1019F300A112515C900602E4F0A3EFF0900602E01E
:101A03007003A3E0F4700D7F03125D0B7F5C124F34
:101A1300B6021B14900602E0FCA3E0FDE4FF1248AB
:101A2300EF900601EFF0900604E06422703E90060A
:101A330001E07019A3A3E0FF7D011252DD900601BE
:101A4300EFF06009A3E0FEA3E0FF125C66900601DD
:101A5300E070097F02125D0B7F0580077F03125D33
:101A63000B7F69124FB6125BC3021B23900601E082
:101A7300700EA3E0FEA3E0FF125C66900601EFF098
:101A8300900601E070097F02125D0B7D0180077FE4
:101A930003125D0BE4FD7F04124C51021B239006DD
:101AA30004E0FF7E0064427008900602F0A3F08019
:101AB3000DEF64434E7007900602F0A304F0900606
:101AC30002E0FCA3E0FDE4FF1248EF900601EFF013
:101AD300700EA3A3E0FFE4FD1252DD900601EFF0C8
:101AE300900601E070097F02125D0B7F0580077F7E
:101AF30003125D0B7F69124FB6125CCFEF70129029
:101B03000604E064427005125B2F8014125B9B8015
:101B13000F1258D0800A7F03125D0B7F81124FB6DC
:101B2300E49006C2F0229006C2E004F07F02125D48
:101B33000B7F118018900604E0642370137F031257
:101B43005D0B7F8480077F03125D0B7F11124FB6FD
:101B530022EFF07B017A02795C900611E4F0A37422
:101B630006F0E4FF90060DEFF0A3EBF0A3EAF0A379
:101B7300E9F07F09125C9990060DE0147003021CD2
:101B830066147003021D34147003021D9424036051
:101B930003021DF19006167401F0A37400F0A37400
:101BA30000F0A37401F0A374F4F0E4FF125C93E477
:101BB300FF1256F3E4900613F0A3F0900611E0FE33
:101BC300A3E0FFC3900614E09F900613E09E5037F6
:101BD300E0FCA3E0FD90060EE0FBA3E0FAA3E0F92E
:101BE3008D828C831203CCFBE4FF123E65900615B5
:101BF300EFF070037F0122900614E004F070BC90B4
:101C03000613E004F080B4E4900613F0A3F090060A
:101C130019E0FEA3E0FFC3900614E09F900613E0D3
:101C23009E4003021DF4E0FEA3E0FF2418FDE43E02
:101C3300FC900616E0FBA3E0FAA3E0F98F828E8303
:101C43001203CCFBE4FF123E65900615EFF0700320
:101C53007F0122900614E004F070B3900613E004B1
:101C6300F080AB9006167401F0A37402F0A3745CC9
:101C7300F0A3E4F0A37406F0E4FF125C93E4FF1214
:101C830056F3E4900613F0A3F0900619E0FEA3E0E8
:101C9300FFC3900614E09F900613E09E5037E0FCCC
:101CA300A3E0FD900616E0FBA3E0FAA3E0F98D8222
:101CB3008C831203CCFBE4FF123E65900615EFF014
:101CC30070037F0122900614E004F070BC900613A9
:101CD300E004F080B4E4900613F0A3F0900611E062
:101CE300FEA3E0FFC3900614E09F900613E09E401E
:101CF30003021DF4E0FEA3E0FF2418FDE43EFC9084
:101D0300060EE0FBA3E0FAA3E0F98F828E831203B1
:101D1300CCFBE4FF123E65900615EFF070037F01E4
:101D230022900614E004F070B3900613E004F080F0
:101D3300AB7F01125C93E4FF1256F3E4900613F0B9
:101D4300A3F0900611E0FEA3E0FFC3900614E09F0A
:101D5300900613E09E4003021DF4E0FCA3E0FD9017
:101D6300060EE0FBA3E0FAA3E0F98D828C83120355
:101D7300CCFBE4FF123E65900615EFF070037F0184
:101D830022900614E004F070B9900613E004F0808A
:101D9300B17F01125C937F011256F3E4900613F0B6
:101DA300A3F0900611E0FEA3E0FFC3900614E09FAA
:101DB300900613E09E503AE0FCA3E0FD90060EE08F
:101DC300FBA3E0FAA3E0F98D828C831203CCFB7FA3
:101DD30001123E65900615EFF070037F0122900615
:101DE30014E004F070BC900613E004F080B47F01AB
:101DF300227F0022AB07EBC3942074809480500AA7
:101E0300E47F01FEFDFCA803800BE47F01FEFDFCE3
:101E1300EB24E0F9F81205CD9005FE1205E0EBC3C3
:101E23009420748094805003021EEF7596519005A0
:101E3300FEA3A3A3E0FFEF42977596529005FEE041
:101E4300FCA3E0FDA3E0FEA3E0FF78081205BAEFD0
:101E53004297EBC3942474809480500E9005FEA3A4
:101E6300A3A3E0540FFFEF42EA22EBC3942674804E
:101E73009480501B9005FEE0FCA3E0FDA3E0FEA3CD
:101E8300E0FF78041205BAEF5403FFEF42EB22EBB5
:101E9300FFC3942C748094805037EF642A6005EF5D
:101EA300642B70129005FEE0FCA3E0FDA3E0FEA30B
:101EB300E0FF780480109005FEE0FCA3E0FDA3E0C2
:101EC300FEA3E0FF78061205BAEF54CFFFEF42EC12
:101ED300229005FEE0FCA3E0FDA3E0FEA3E0FF7873
:101EE3000C1205BAEF540FFFEF42EE2275962690BF
:101EF30005FEA3A3A3E0FFEF42977596279005FE87
:101F0300E0FCA3E0FDA3E0FEA3E0FF78081205BA1E
:101F1300EF540FFFEF42977596289005FEE0FCA360
:101F2300E0FDA3E0FEA3E0FF78101205BAEF4297AD
:101F33007596299005FEE0FCA3E0FDA3E0FEA3E077
:101F4300FF78181205BAAB07EB42979005FEE0FC49
:101F5300A3E0FDA3E0FEA3E0FF78021205CDEF545A
:101F6300FCFFEF42EB9005FEE0FCA3E0FDA3E0FEE7
:101F7300A3E0FF78021205BAEF5430FFEF42EC9072
:101F830005FEE0FCA3E0FDA3E0FEA3E0FF7804125E
:101F930005BAEF54F0FFEF42EE9005FEE0FCA3E03C
:101FA300FDA3E0FEA3E0FF780C1205BAEF54F0FFA7
:101FB300EF42EF9005FEE0FCA3E0FDA3E0FEA3E00B
:101FC300FF78141205BAEF540FFFEF42F2EB42F71A
:101FD30022EFB40700400302214B901FE4F82828A6
:101FE30073021FF90220200220460220910220DF03
:101FF300022102022125EB7009ED42EA75961702D0
:10200300209AEB64017009ED42EA75961702213EAE
:10201300EB6402600302214BEDF452EA22EB7008F9
:10202300ED42EB759618806FEB64017009ED42EB9E
:1020330075961802213EEB6402600302214BEDF416
:1020430052EB22EB7008ED42EC7596198049EB6474
:10205300017009ED42EC75961902213EEB640270A2
:1020630015EDF452ECED5430700302214B759625B7
:10207300C4540F02212FEB6403600302214BEDF4E0
:1020830052EC759625ED5430C4540F429722EB70F1
:102093000AED42EE75961BED02212FEB64017009E8
:1020A300ED42EE75961B02213EEB64027015EDF4D2
:1020B30052EEED5430700302214B759625131354E1
:1020C3003F8069EB6403600302214BEDF452EE752C
:1020D3009625ED54301313543F429722EB7009EDCC
:1020E30042EF75961CED8044EB64017008ED42EFFE
:1020F30075961C8046EB6402704EEDF452EF22EBB2
:102103007009ED42F275961DED8021EB64017008B4
:10211300ED42F275961D8023EB6402702BEDF452B1
:10212300F222EB700BED42F775961EEDF4529722F7
:10213300EB6401700AED42F775961EED429722EBB0
:1021430064027004EDF452F722900600EFF0E4A36A
:10215300F0A3F0125CA5900603EFF07E006401602B
:102163000DEF64326008EF643360030222ACEF6466
:10217300544E700B125CD5EF640560030222AC125F
:102183005D02900603E0645470379006C2E0FF12CC
:10219300489E900601EFF060030222AC9006C2E075
:1021A300700302225D1256B8900601EFF0700A7DAB
:1021B300017F05124C510222917F1C124FB602225D
:1021C300917B017A067902124ECE900601EFF070F0
:1021D3006C900603E0640170057F04024B82900655
:1021E30003E0643270057F190222A9900603E064BC
:1021F3003360030222AC9006C2E0FF12489E9006B1
:1022030001EFF070349006C2E07002804D1256B8B0
:10221300900601EFF0701BA3E0FF1240B19006019E
:10222300EFF070047F0580027F69124FB6125BEBFB
:1022330080057F1C124FB680557F8180699006030D
:10224300E0643270539006C2E0FF12489E9006018C
:10225300EFF070409006C2E0700C7F18124FB690FA
:1022630006C27401F0221256B8900601EFF07019FD
:10227300FF1259BA900601EFF070047F0580027FC8
:1022830069124FB6125BE180057F1C124FB6E490D2
:1022930006C2F0227F81800E900603E06401700481
:1022A3007F9980027F87124FB6227B017A02795C85
:1022B300900602E4F0A37406F0E4FF1223ED90020B
:1022C3005CE0FF64016008EF64026003022362E4E0
:1022D3009005FDF07B017A00790090060204F0A3DB
:1022E30074F4F07F011223ED7B017A0179F49006F7
:1022F30002E4F0A37464F07F021223ED7B017A02FF
:102303007962900602E4F0A3748CF07F031223ED4C
:1023130090025FE0D394007480948050030223EC16
:102323009005FDE0FFFD7C00C394647480948050AD
:102333001A75F005EFA42404F582E5F03400F58363
:10234300E060089005FDE004F080D5C3ED9464ECF3
:102353006480948050030223ECE490025F807D7ECE
:10236300017FF47DFF7B017A00790012083A7B013B
:102373007A0079009006117401F0A374F4F07F01E0
:10238300121B677E007F647DFF7B017A0179F41263
:10239300083A7B017A0179F4900611E4F0A374649E
:1023A300F07F02121B671200667E007F8C7DFF7B2D
:1023B300017A02796212083A7B017A027962900605
:1023C30011E4F0A3748CF07F03121B6790025C741A
:1023D30001F0A3F0E4A3F0A3F0A3F0A3F07B017A50
:1023E30002795C900611121B60229005FFEBF0A3AB
:1023F300EAF0A3E9F0EF1460651470030224BA1441
:1024030070030224E42403600302250FE4FF125C3B
:1024130093E4900604F0A3F0900602E0FEA3E0FF2D
:10242300A3E0FCA3E0FDC39FEC9E400302250FE461
:10243300FF12567A9005FFE0FBA3E0FAA3E0F990C0
:102443000604E0FCA3E0F5828C83EF12040B9006F4
:1024530005E004F070C2900604E004F080BAE4FFE3
:10246300125C93E4900604F0A3F0900602E0FEA34E
:10247300E0FFA3E0FCA3E0FDC39FEC9E4003022525
:102483000FED2418FDE43CFCE4FF12567A9005FF9F
:10249300E0FBA3E0FAA3E0F9900604E0FCA3E0F577
:1024A300828C83EF12040B900605E004F070BB905E
:1024B3000604E004F080B37F01125C939005FFE013
:1024C300FBA3E0FAA3E0F9E490060AF0A3F0900678
:1024D30002E0FFA3E090060CCFF0A3EFF0E4FD8051
:1024E300287F01125C939005FFE0FBA3E0FAA3E0D1
:1024F300F9E490060AF0A3F0900602E0FFA3E0904F
:10250300060CCFF0A3EFF07D011239F1227D037F9A
:10251300E87E03900612EEF0A3EFF0A3EDF0E4A340
:10252300F0A3F090061274FFF5F012047545F070F5
:10253300030226277F017E001254D5900614E0245F
:1025430009FFE433FE9006B9E0C39FEE6480F8749C
:10255300809840CFE4900615F09006B9E0FF90060E
:1025630015E0FEC39F5017749F2EF582E43406F5E1
:1025730083E064EF6008900615E004F080DB9006CA
:1025830015E0FF249FF582E43406F583E064EF70E1
:102593009274A02FF582E43406F583E0640170831E
:1025A300900615E0FD24A5F582E43406F583E06486
:1025B30007600302252674A62DF582E43406F5830D
:1025C300E0FE74A72DF582E43406F583E07C002455
:1025D30000FFEC3EFE900614E06F7001EE60030214
:1025E30025269006B9E0FF900615E0FEC39F50290B
:1025F300749F2EF582E43406F583E0FF900616E01F
:1026030024D9F582E43406F583EFF0900616E0044E
:10261300F0900615E004F080C99006E2E0FFE49034
:1026230006B9F0227F0122125CA590062CEFF090F0
:10263300055BE06401703090055FE004F070069084
:10264300055EE004F0900567E0FEA3E0FFC390059C
:102653005FE09F90055EE09E400D90055B7402F085
:10266300E490055EF0A3F0900566E06401701B90B2
:102673000569E004F0E0C3940474809480400B90F7
:1026830005667402F0E4900569F012493CEF7003AB
:1026930002272C90062CE0FF6461700302272CEFC5
:1026A3006460700302272C90055BE06401607A127A
:1026B3005A03EF6401707290062DF090055DE004FB
:1026C300F0700690055CE004F090062CE0FF6412C5
:1026D3006028EF64136023EF6422601EEF642360BD
:1026E30019EF64326014EF6433600FEF6441600AE2
:1026F300EF64426005EF64437011D390055DE0948D
:10270300C890055CE094004017800FD390055DE00E
:10271300941090055CE09427400690062D7401F018
:1027230090062DE0600A0243AFE490055CF0A3F04D
:1027330022900603EBF0A3EAF0A3E9F0A3EDF090F7
:10274300060874FFF0900607E0702AA3F0900608CD
:10275300E0FFC3946474809480501A75F005EFA46D
:102763002404F582E5F03400F583E0600890060860
:10277300E004F080D8900608E0C3946474809480E9
:10278300402BE4F0900608E0FFC3946474809480C7
:10279300501B75F005EFA42404F582E5F03400F531
:1027A30083E0F46008900608E004F080D790060800
:1027B300E0C394647480948050757E007F047DFF31
:1027C3007B017A06790912083A900606E0FD900625
:1027D300127401F0A37406F0A37409F090060312B7
:1027E3003CF6900608E075F005A42400F974003562
:1027F300F0A801FC7D017B017A0679097E007F0444
:1028030012038D900607E0FFA3E075F005A42404EE
:10281300F582E5F03400F583EFF07B017A0079006F
:102823009006117401F0A374F4F07F01021B677F1B
:102833000122900604EBF0A3EAF0A3E9F0A3EDF084
:10284300D394007480948050030228D3C2AF1253F0
:10285300A17F501238DEE490060CF0900607E0FFEB
:1028630090060CE0FEC39F501F900604E0FBA3E01C
:10287300FAA3E0F98E827583001203CCFF1238DECF
:1028830090060CE004F080D37F511238DEE490060A
:102893000CF090060BE0FFA3E0C39F50311246D625
:1028A300900608E0FBA3E0FAA3E0F990060CE0FE33
:1028B300F582758300EF12040B90060BE0146E6033
:1028C3005AE4FF12541290060CE004F080C4804BCB
:1028D300C2AF1253A17F511238DEE490060CF09080
:1028E300060BE0FFA3E0C39F50311246D6900608C3
:1028F300E0FBA3E0FAA3E0F990060CE0FEF5827595
:102903008300EF12040B90060BE0146E600DE4FFDE
:1029130012541290060CE004F080C47F011254128A
:10292300D2AF12569A7F0022E4F9900602F0A3F088
:10293300FEEEC3940C74809480506074482EF5822C
:10294300E43404F583E06050EE25E02479F582E475
:102953003404F583E0FCA3E0FDEE25E02430F582AA
:10296300E43404F583E0FAA3E0C39DFDEA9CFC9004
:102973000600F0A3EDF0D3900603E09DEC6480F82D
:10298300900602E0648098500F900600E0FDA3E0FB
:10299300A3CDF0A3EDF0A9060E809690046CE06938
:1029A300606FE0FE25E02479F582E43404F583E0EA
:1029B300FCA3E0FDEE25E02430F582E43404F58346
:1029C300E0FAA3E0C39DFEEA9C900600F0A3CEF0DC
:1029D300900600E0FEA3E0FFC3900603E09FFF9094
:1029E3000602E09EFE900600F0A3EFF0E925E02446
:1029F300A9F582E4345DF583E493FC740193FDD37C
:102A0300EF9DEC6480F8EE648098400590046CE9D7
:102A1300F0AF0122900603EBF0A3EAF0A3E9F0A3E1
:102A2300EDF0E4900608F090060D74FFF07E007F51
:102A330004FD7B017A06790912083A900606E0FD47
:102A43009006127401F0A37406F0A37409F09006C3
:102A530003123CF6E4FFEFC39464748094805064E3
:102A630075F005EFA42404F582E5F03400F583E066
:102A7300F4604EE4900608F0900608E0FD7C00C385
:102A83009404748094805033E0FE75F005EFA42421
:102A930000F582E5F03400F583E5822EF582E43516
:102AA30083F583E0FB74092EF582E43406F583E0B5
:102AB300B50308900608E004F080BDED64044C60A3
:102AC300030F8092EFC3946474809480502675F052
:102AD30005EFA42404F582E5F03400F583E0FE90CD
:102AE3000607E0FDEE6D6005ED6402700790060DCC
:102AF300EFF0800690060D74FFF090060DE0FF22C4
:102B0300900605EFF0E4900608F09006D8E06F70A9
:102B130003022BDA124C1BEF64017003022BDA7FE2
:102B230001125CE77F077E001256DA7F41125CEAEE
:102B3300900605E0606824FE60261460422402705B
:102B43007B7F011257CD7F011257CDE4FF1257CD82
:102B53007F501257CD900606E4F0A3749BF0805C7F
:102B63007F011257CD7F021257CD7F021257CDE45A
:102B7300FF1257CD900606E4F0A3744EF0803D7F1C
:102B8300011257CD7F041257CD7F041257CDE4FFB6
:102B93001257CD900606E4F0A37452F0801E7F0412
:102BA3001257CDE4FF1257CDE4FF1257CD7FC81261
:102BB30057CD9006067401F0A37415F0900606E055
:102BC300FEA3E0FF124D01122510900608EFF090CE
:102BD3000605E09006D8F022E4900601F0C2011247
:102BE300001EE4900600F0900600E0C3940C74808D
:102BF30094804003022C9430030343AD102000055E
:102C030075910780F8C200AFACEFFEADABEDFF905E
:102C13000600E0FD25E02479F582E43404F583EE33
:102C2300F0A3EFF0EDC3940B74809480502DED2549
:102C3300E0241AF582E43404F583E0FEA3E0F5CA48
:102C430053CC7FEE5401C313E41342CC53CCC0EDF9
:102C5300905D3393543F42CC75C901900600E0FF69
:102C63001214F8900600E0FF123394900600E0FF80
:102C730012427330010F90046CE0F4700890060068
:102C8300E090046CF0200212900600E004F0022BA6
:102C9300EA20010690046C74FFF022C20120046D47
:102CA300905D2CE493FD700D905DEF93C313FF745F
:102CB300019313801575F002EDA424EDF582E5F080
:102CC300345DF583E493FF7401939005FECFF0A385
:102CD300EFF0E49005FDF09005FDE0C3940C7480E3
:102CE30094805071E0FF2448F582E43404F583E4D2
:102CF300F0C2059005FEE0FDA3E0900601CDF0A330
:102D0300EDF012116C9005FDE004F080CA905D2F88
:102D1300E493FD700D905DEF93C313FF7401931360
:102D2300801575F002EDA424EDF582E5F0345DF530
:102D330083E493FF7401939005FECFF0A3EFF0D2E9
:102D4300059005FEE0FFA3E0900601CFF0A3EFF0AE
:102D5300E4FF12116C90046C74FFF022900623EBD5
:102D6300F0A3EAF0A3E9F0E490062AF07F2EFE1226
:102D7300599253FBFDE4F5FAF5FE7596585397EF18
:102D830053FBEF43FC40FF900629E0FEEFC39E5048
:102D930064E4A3F074FFFDFCED1DAA0470011C4A5A
:102DA3006029E5FB30E4F1E5FB548070EB900623EA
:102DB300E0FBA3E0FAA3E0F98F82758300E5FA1242
:102DC300040B53FBEF90062A7401F053FB7F53FB74
:102DD300DFE5FE601D900623E0FBA3E0FAA3E0F924
:102DE3008F82758300E5FA12040B90062A74ACF007
:102DF30080030F809253FCBF43FB0290062AE064DA
:102E0300AC700F900626E0FBA3E0FAA3E0F9EF1203
:102E130003F990062AE0FF22900687E064017059C7
:102E2300A3E0700D7D047F05124E537D01E4FF8006
:102E33000C900688E0640270097D047F05124BC87C
:102E4300800F900688E0C39404748094804002B29B
:102E5300F8900688E004F090069EE025E0FFE43356
:102E6300FEEF2406FFE43EFE900688E0C39FEE6477
:102E730080F874809840598041900687E06403701D
:102E83004FA3E070057D01FF801D900688E064017B
:102E930070097D047F05124E53800F900688E0640D
:102EA3000370077D047F05124BC8900688E004F089
:102EB300E0C39404748094804016E4F07D047F059D
:102EC300124BC87D01E4FF124BC89006877402F0D1
:102ED3002253CCBFA204E433C43333544042CC3036
:102EE3000403022F8CE4900602F0900761E0FF9048
:102EF3000602E0C39F4003022F8CE0FF75F002A49B
:102F03002418F582E5F03404F583E0FCA3E0FDEF3B
:102F1300905D3293FF12508E900602E0FD75F00231
:102F2300A42479F582E5F03404F583EEF0A3EFF001
:102F330075F002EDA42479F582E5F03404F583E01D
:102F4300FEA3E0FF75F002EDA42430F582E5F03432
:102F530004F583EEF0A3EFF075F002EDA42479F508
:102F630082E5F03404F583E0FEA3E0FF75F002EDA3
:102F7300A42454F582E5F03404F583EEF0A3EFF0D6
:102F8300900602E004F0022EED2290060AEBF0A375
:102F9300EAF0A3E9F0900611EFF0A37470F0E4FFF8
:102FA300900610E0FEEFC39E502390060AE0FBA3B9
:102FB300E0FAA3E0F98F827583001203CCFE741349
:102FC3002FF582E43406F583EEF00F80D37B017A8C
:102FD300067911900610E02402900621F07F011279
:102FE3004E15900610E0FC2413F582E43406F583B5
:102FF300EFF0EEFF74142CF582E43406F583EFF062
:103003007B017A067911900610E02404FD1230F357
:10301300EF640160037F01229006267401F0A3741C
:1030230006F0A37411F0A37403F090060DE0FBA364
:10303300E0FAA3E0F9122D5FEF64017F0060027FE5
:103043000122900600EBF0A3EAF0A3E9F078037CF9
:10305300067D017BFF7A5E79097E007F0612038D70
:103063007596585397FB7B017A067903124A66EFEC
:1030730060037F0122900603E054C0C4131354037A
:1030830075F003A42404640460037F01227B017AA6
:103093000679037D017F93123572EF60037F01226E
:1030A300900600E0FBA3E0FAA3E0F8AC02AD037BDB
:1030B300017A0679037E007F0512038D90060D7455
:1030C30001F0A37406F0A37403F0A37405F0900653
:1030D30000E0FBA3E0FAA3E0F97F93122F8DEF60EA
:1030E300037F0122900603E054247F017001FF2235
:1030F300900623EBF0A3EAF0A3E9F0A3EDF07596B5
:10310300585397FDE0600464017023900623E0FBAD
:10311300A3E0FAA3E0F91203B3F5F953FCC1900657
:1031230026E0FF25E0543E42FC43FC01806B900601
:1031330023E0FBA3E0FAA3E0F91203B3F5F990004F
:10314300011203CCF5FA53FCC1900626E0FF25E0FB
:10315300543E42FC43FC011257667D02900626E072
:10316300FEEDC39E5033ED90062330E014E0FBA345
:10317300E0FAA3E0F98D827583001203CCF5FA809F
:1031830012E0FBA3E0FAA3E0F98D8275830012033A
:10319300CCF5F91257660D80C312576622900604C8
:1031A300EBF0A3EAF0A3E9F0E4FFFEEFC3940A74A3
:1031B3008094805015EF75F00EA42462F582E434F8
:1031C30002F583E0F460030F80E1EFC3940A748097
:1031D30094805070EF75F00EA42462F582E43402FB
:1031E300F583EFF075F00EA42463F582E43402F561
:1031F30083EDF0E4FEEEC3940C7480948050319020
:103203000604E0FBA3E0FAA3E0F98E8275830012C3
:1032130003CCFDEF75F00EA42464F582E43402F5CB
:1032230083E5822EF582E43583F583EDF00E80C5C8
:103233007B017A027962900611E4F0A3748CF07F2B
:1032430003021B677F0122900687E064026003028A
:1032530032EC7D02FF123BFBEF640160030232ECB0
:1032630090068AE0701390069EF0125C3C900689EB
:103273007401F0E4900687F022E490062BF09006A8
:103283008704F090068AE090069EF0E490062BF007
:1032930090062BE0FF3395E0FEC3EF9413EE6480BA
:1032A3009480502B748B2FF58274063EF583E0FFD8
:1032B300601D90062BE0FD3395E0FC748A2DF582AA
:1032C30074063CF583EFF090062BE004F080C19088
:1032D300062BE0FF3395E0FE748A2FF58274063ED9
:1032E300F583E4F0900688F022122E1B2290060943
:1032F300EFF0EC124C10EF640170037FFF227F01AB
:10330300125CE77F087E001256DA7F1B125CEA909C
:103313000609E0FF1257CD90060AE0FF1257CD9041
:10332300060AA3E0FF1257CD90060CE0FF1257CD1B
:1033330090060CA3E0FF1257CD90060AE0FCA3E031
:10334300FDECFF7E00900609E02424FBE433CB2F41
:10335300FFEE3BFE7C00EF2DFDEC3EFC90060C12D5
:103363004CEC7D07122512900611EFF09006E3E076
:10337300FEA3E07C002400FFEC3EF990060EE0FB88
:10338300A3E0FAA3E0C98FF01204A1900611E0FFB5
:103393002274E42FF582E43403F583E070497491D9
:1033A3002FF582E43404F583E4F0740C2FF582E402
:1033B3003404F583E004F0740C2FF582E43404F54F
:1033C30083E0FE905DEEE493FDEED39D4064740CC8
:1033D3002FF582E43404F583E4F074482FF582E496
:1033E3003404F583E4F022740C2FF582E43404F5FD
:1033F30083E4F074912FF582E43404F583E004F060
:1034030074912FF582E43404F583E0FE905DEDE4DE
:1034130093FDEED39D401B74912FF582E43404F5A4
:1034230083E4F074482FF582E43404F5837401F0E7
:10343300D201229005FD74FFF0A3F0125A14EF702D
:10344300129006BFE0701104F0E4FBFD7F021254FA
:103453008E8005E49006BFF0125CFC9005FDEFF052
:10346300F46027E0FF1245489005FEEFF0F4601A80
:10347300E0FF9006C0E06F60179005FEE0FB90064A
:10348300C0F0E4FDFF12548E80069006C074FFF076
:10349300125D08EF6008E4FBFD7F0412548E125A9C
:1034A30025EF6008E4FBFD7F0312548E125AA6EF4A
:1034B3006008E4FBFD7F0512548E12579EEF6008EF
:1034C300E4FBFD7F0112548E125A97EF60031254EE
:1034D300892275962B5397F8900609E05407429773
:1034E30053CDF3A3E025E025E0540C42CD53CDFDAD
:1034F300A3E025E0540242CD53CDFEA3E0540142A4
:10350300CD53CBBFA3E0C43333544042CB53CCBFE2
:10351300A3E0C43333544042CC75962B5397C7A3CF
:10352300E03333335438429753CD8FA3E0C4547000
:1035330042CD53CBC0A3E0543F42CB53ADDFA3E016
:10354300C433542042AD75962D5397FDE4F5C9530A
:10355300F1DF900614E06401701153F6DF90061357
:10356300E0C43354E042F643E6202253E6DF2290E0
:103573000609EFF0A3EDF0A3EBF0A3EAF0A3E9F063
:10358300780E7C067D017BFF7A5D79FF7E007F0AE2
:1035930012038D900609E0900618F0A37420F07BC7
:1035A300017A0679187D021230F3EF640160037F1C
:1035B30001229006267401F0A37406F0A37422F08E
:1035C300A37405F07B017A067918122D5FEF64016D
:1035D3007031FEEEC3940574809480502374182ECA
:1035E300F582E43406F583E0FD90060BE0FBA3E0EF
:1035F300FAA3E0F98E82758300ED12040B0E80D3DB
:103603007F0022EF7F0070027F0122E4900600F02A
:10361300A3F01259CEEF64017002FF22900681E0FD
:1036230075F003A42460F582E43406F583E0120305
:10363300F9900681E0FF75F003A42461F582E43478
:1036430006F583E090000112040BEF75F003A42448
:1036530062F582E43406F583E090000212040B90D5
:103663000681E0FF75F003A42460F582E43406F5D7
:103673008374FFF0EF75F003A42461F582E434064C
:10368300F58374FFF0EF75F003A42462F582E4344C
:1036930006F58374FFF01259F2900681EFF07F0173
:1036A30022905D31E493900761F0E49005FDF09082
:1036B3000761E0FF9005FDE0FEC39F5077E0FF2523
:1036C300E02452F582E4345DF583E493FC740193C2
:1036D300FD75F002EFA42418F582E5F03404F583B8
:1036E300ECF0A3EDF0EE905D3293FF121DF7900521
:1036F300FDE0FF75F002A42479F582E5F03404F5CA
:1037030083E4F0A3F075F002EFA42430F582E5F032
:103713003404F583E4F0A3F075F002EFA42454F528
:1037230082E5F03404F583E4F0A3F09005FDE004B2
:10373300F00236B222900631EFF0E4A3F090068750
:10374300E070227D02FF123BFBEF640170179006CD
:103753008704F0900631E090069EF0E4900688F02E
:10376300125A58805AE4900633F0F0900633E0FF83
:10377300FD3395E0FCC3ED9414EC64809480501AFF
:10378300EF3395E0FE748A2FF58274063EF583E0ED
:103793006008900633E004F080D1C3ED9414EC6428
:1037A300809480501A900631E0FF900633E0FD3399
:1037B30095E0FC748A2DF58274063CF583EFF07F67
:1037C3000122900607EBF0A3EAF0A3E9F0A3EDF0E2
:1037D300E4FFEFC3940A748094805047E4FEEEC381
:1037E300940C748094805033900607E0FBA3E0FAB6
:1037F300A3E0F98E827583001203CCFDEF75F00E02
:10380300A42464F582E43402F583E5822EF582E490
:103813003583F583E0B505030E80C3EE640C6003C6
:103823000F80AFEFC3940A74809480501FEF75F03C
:103833000EA42463F582E43402F583E0FE90060AC5
:10384300E0FDEE6D6008ED64027001227FFF2278D7
:103853007FE4F6D8FD758120023899024347E4934B
:10386300A3F8E493A34003F68001F208DFF4802970
:10387300E493A3F85407240CC8C333C4540F44205F
:10388300C8834004F456800146F6DFE4800B01024E
:10389300040810204080900DC3E47E019360BCA314
:1038A300FF543F30E509541FFEE493A360010ECF9C
:1038B30054C025E060A840B8E493A3FAE493A3F8C6
:1038C300E493A3C8C582C8CAC583CAF0A3C8C58286
:1038D300C8CAC583CADFE9DEE780BE90060DEFF0F4
:1038E300E4A3F090060EE0C39408748094805037EC
:1038F3005390F77F017E0012599290060DE030E756
:103903000543901080035390EF7F017E001259927C
:103913004390087F017E0012599290060DE025E046
:10392300F0A3E004F080BC5390F77F017E001259AE
:103933009243EC107F017E001259924390087F025C
:103943007E00125992E590A2E492045390F77F010E
:103953007E0012599253ECEF5390EF7F017E0012D9
:103963005992A20422900605EFF0E02407F582E4C1
:103973003407F583E024FC6028146035246F60412C
:1039830024FE6047240570537F4E124FB6125CC964
:10399300EF60057F25124FB6E490070CF0A3F0808B
:1039A3003A125CAB7F10124FB6125CC9EF602C80E9
:1039B30025125CAB7F17124FB6125CC9EF601C80F7
:1039C300157F7E124FB6125B4980107F4F124FB6A0
:1039D300125CC9EF60057F25124FB6900605E024FF
:1039E30007F582E43407F583E090070EF022900692
:1039F30006EBF0A3EAF0A3E9F0ED90060B600CE010
:103A03002400FE90060AE03446800AE02400FE907B
:103A1300060AE0344490060EF0A3CEF0C2AFE4FDF4
:103A2300FCD390060DE09D90060CE09C403A75D2C5
:103A33008890060EE0FAA3E0FBEAF5CEEBF5CF9013
:103A43000606E0FBA3E0FAA3E0F98D828C83E5D4BC
:103A530012040B90060FE004F0700690060EE004CB
:103A6300F00DBD00010C80B9E4F5D2F5CEF5CFD24F
:103A7300AF22E4FE900605F0A3741DF0900561EFFC
:103A8300F07F107D007B017A0479B612083AE49046
:103A93000560F0FE900606E0FFEEC39F5057EE75FB
:103AA300F005A424C6F582E43404F583E0FF900511
:103AB30061E0FDEF6D703B900605E0FF25E024B665
:103AC300F582E43404F583EEF075F005A424C7F51C
:103AD30082E43404F583E0FDEF25E024B7F582E4C6
:103AE3003404F583EDF0900605E004F0900560E002
:103AF30004F00E809F22E4900603F0FFFEF0900690
:103B030003E0FDC39432748094805059ED25E02482
:103B1300F4F582E43401F583E06042900603E02586
:103B2300E024F5F582E43401F583E0FDF4602EED45
:103B3300FF7E00125C667E00EF7022900603E0FDBC
:103B430025E024F4F582E43401F58374FFF0ED25D8
:103B5300E024F5F582E43401F58374FFF090060365
:103B6300E004F080997B017A0179F4900611E4F086
:103B7300A37464F07F02021B6753C4FC53C4F34372
:103B8300C40453C4BF43C44053C4CF43C43053C419
:103B93007F43C48053C38143C30E53C38143C30CC8
:103BA30075963253978343977C7596325397FC43AC
:103BB30097037596425397FC43970275C1FF759619
:103BC300425397F34397047596425397EF439710E5
:103BD3007596425397DF12565A759653439701438E
:103BE300F78075962A43974043F74075962D539770
:103BF300FE75962D43970122EFB407005075903C54
:103C030008F8282873023C1D023C2A023C37023C78
:103C130044023C51023C5E023C6BE5F85D7F006070
:103C2300027F01AE07804CE5805D7F0060027F016B
:103C3300AE07803FE5905D7F0060027F01AE0780A5
:103C430032E5B05D7F0060027F01AE078025E5C0ED
:103C53005D7F0060027F01AE078018E5C85D7F00CD
:103C630060027F01AE07800BE5D85D7F0060027FB5
:103C730001AE07AF0622905D23E4939005FDF0901B
:103C83005D24E4939005FEF0905D25E4939005FF99
:103C9300F0905D26E493900600F0905D27E4939006
:103CA3000601F0905D28E493900602F0905D2BE40A
:103CB30093900603F0905D2CE493900604F0905DDE
:103CC3002DE493900605F0905D29E493900606F0A9
:103CD300A37401F0905D2AE493900608F078097CC0
:103CE300067D017B017A0579FD7E007F0C12038D31
:103CF3000234D5E0FBA3E0FAA3E0F990060EEBF063
:103D0300A3EAF0A3E9F0A3EDF0E4FC900615F0902C
:103D13000611E0FDECC39D505590060EE0FBA3E0B9
:103D2300FAA3E0F9AF048F827583001203CC540F1A
:103D3300900615F00C900611E0FFECC39F500D8C1C
:103D4300827583001203CC540FFE80027E0F90060F
:103D530015E0C454F04EFF900612E0FBA3E475F0A7
:103D63000112048BA9F0FAEF1203F90C80A12212BD
:103D73005A68125C091251BD12521D1253E9124FB7
:103D83007D12527D7B027D087F05121FD47D087F43
:103D930005124BC8E4FB7D407F06121FD47B027DD6
:103DA300107F02121FD47D107F02124E537B027DBF
:103DB300087F02121FD47D087F02124E53E4FB7D5D
:103DC300207F06121FD4E4FB7D107F03121FD4E46F
:103DD300FB7D207F03121FD4E4FB7D407F03121F72
:103DE300D4E4FB7D807F03021FD4E4900605F090AA
:103DF3000687E0700B7D02FF123BFBEF64016061FD
:103E0300125C3CE4900605F0900605E0FFFD339557
:103E1300E0FCC3ED9414EC648094805019EF339567
:103E2300E0FE748A2FF58274063EF583E4F0900673
:103E330005E004F080D2900688E0C3940474809473
:103E4300804010E490069EF09006877403F0E4A38C
:103E5300F0800BE490069EF09006877403F0125AEC
:103E6300582290061BECF0A3EDF0A3EBF0AA077524
:103E7300965BAD97C2AFE4F5CFF5CEEA25E025E03A
:103E830042CE90061BE0FEA3E0F5CFEE540342CEF4
:103E9300A3E0F5D175D26900000000E4F5CFF5CEBB
:103EA300AF05EDAF0290061B700CE0FCA3E0FD1222
:103EB300567AA907800AE0FCA3E0FD1253BFA907C5
:103EC30090061DE0B50106A37401F08005E4900699
:103ED3001EF0D2AF90061EE0FF22E4900603F0F03E
:103EE300900603E0FFC3946474809480504F75F090
:103EF30005EFA42404F582E5F03400F583E06401C2
:103F03007033900603E075F005A42404F582E5F010
:103F13003400F58374FFF0900004C083C082FDEF8A
:103F230075F005A42400F9740035F0FA7B01D0077D
:103F3300D00612083A900603E004F080A37B017ACE
:103F43000079009006117401F0A374F4F07F01026C
:103F53001B67900603EFF0A3EDF0A31205EC00003E
:103F63000000E4900609F0900604E0FF900609E0E3
:103F7300C39F503A900605E0F8A3E0F9A3E0FAA343
:103F8300E0FB900603E0FF125544E4FCFDEB2FFF3A
:103F9300EA3EFEED39FDEC38FC9006051205E07FA4
:103FA300057E001254D5900609E004F080B990060E
:103FB30004E0FBE4FAF9F8A3E0FCA3E0FDA3E0FED0
:103FC300A3E0FF0204FCE4FF900761E0FEEFC39E61
:103FD300506374A92FF582E43404F583E4F074FC90
:103FE3002FF582E43403F583E4F0749D2FF582E426
:103FF3003404F583E4F074F02FF582E43403F5839D
:10400300E4F0740C2FF582E43404F583E4F0749146
:104013002FF582E43404F583E4F074E42FF582E4AD
:104023003403F583E4F074482FF582E43404F58314
:10403300E4F00F8093E4FF024AAE900561E064016F
:1040430070057F01025C9FE4900603F0A3741DF0EA
:10405300E4900603F0900604E0FF900603E0FEC33D
:104063009F5037EE75F005A424C7F582E43404F5B8
:1040730083E0FF900561E0FEEFB50616900603E0CE
:1040830075F005A424C6F582E43404F583E09005B5
:1040930061F0900603E004F080BB900561E0FF123D
:1040A3003A75900561E0FF125024124FB622EFC318
:1040B300940A748094805066EF75F00EA42462F520
:1040C30082E43402F583E06F7054EF75F00EA4249C
:1040D30062F582E43402F58374FFF0EF75F00EA409
:1040E3002463F582E43402F58374FFF090000CC07E
:1040F30083C082FDEF75F00EA42464F9740235F0D9
:10410300FA7B01D007D00612083A7B017A02796262
:10411300900611E4F0A3748CF07F03021B677F0108
:1041230022125C12C204122C9E905D2CE49375F053
:1041330002A424EFF582E5F0345DF583E493FE7485
:104143000193FFE4FCFD78031205CDE47B0AFAF941
:10415300F81204FC90040AEEF0A3EFF0905D2CE457
:104163009375F002A424EFF582E5F0345DF583E462
:1041730093FE740193FF905D96E493FD7C00120619
:1041830063E47B0AFAF9F81204FC900408EEF0A346
:10419300EFF022E4900603F0F0900603E0FFC394EF
:1041A3000A748094805049E0FE75F00EA42463F5F0
:1041B30082E43402F58374FFF0EE75F00EA42462FA
:1041C300F582E43402F58374FFF090000CC083C0E1
:1041D30082FDEF75F00EA42464F9740235F0FA7BC6
:1041E30001D007D00612083A900603E004F080A934
:1041F3007B017A027962900611E4F0A3748CF07F5C
:1042030003021B6775962D5397FE7D087F05124E9B
:10421300537F057E001254D57D0A7F06123F5590C9
:1042230005FDEEF0A3EFF07D087F05124BC87596F0
:104233002D4397019005FDE0FCA3E0FDE412023A53
:104243007B677A407953783A1200B69005FF1205DE
:10425300E0E4FFFE7DC87C3F9005FFE0F8A3E0F9B2
:10426300A3E0FAA3E0FB1201BC7F0050027F01220E
:10427300C202EF25E02479F582E43404F583E0FCFF
:10428300A3E0FD90040AE0FAA3E0FBC3ED9BEC9AE4
:104293005020EF25E02479F582E43404F583E0FE31
:1042A300A3E0FF900408E0FCA3E0FDC3EF9DEE9CB8
:1042B30050289004B5E004F0E0C3940A748094801D
:1042C3004018E4F0D202F5C953F1DFC200C20190F5
:1042D300046C74FFF0C204122ED422900603EFF094
:1042E300640A702A125CC9EF602490070CE0700224
:1042F300A3E070059007018011900701E004F0E04E
:10430300D39402748094804005E4F0125AC490065A
:1043130003E0FF7E007401A807088005C333CE3392
:10432300CED8F9FF90070CE04EFEA3E04FFF9007B5
:104333000CEEF0A3EFF0BE0F0ABFFF077D017F93E2
:10434300124C5122E49005FCF07592551255F61269
:104353005AB5125CF6125CBD125D14125CFF123B7F
:104363007C7F07125CF3124207EF640170057F2F15
:10437300124FB6125C1B125CCFEF7005125B3C80D0
:10438300057F01125C9F125CA5EF64617008125CEB
:10439300E3124AF58006759107123436124A1D124C
:1043A3005CA5EF646070DF12571080DA125CA59091
:1043B300062EEFF07E00C3941274809480400AD3DB
:1043C300EF943674809480403EEF64534E700280C5
:1043D3003690062EE0FF64426005EF6443700F12CF
:1043E3005CCFEF700790055CF0A3F0228019900674
:1043F3002EE064417018125CCFEF700B90055CF0F7
:10440300A3F07F5D024FB67F08124FB680007F6036
:10441300125C9F22900608EFF0A3ECF0A3EDF012DC
:104423004C1BEF640170037FFF227F01125CE77F67
:10443300067E001256DA7F06125CEA900608E0FF59
:104443001257CD900609E0FF1257CD900609A3E05D
:10445300FF1257CD900609E0FCA3E0FDECFF7E00C0
:10446300900608E0240DFBE433CB2FFFEE3BFE7CEC
:1044730000EF2D124CFD12251022900605EEF0A33D
:10448300EFF0A3ECF0A3EDF0124C1BEF640170030B
:104493007FFF227F01125CE77F077E001256DA7FDF
:1044A3000C125CEA900605E0FF1257CD900605A3B7
:1044B300E0FF1257CD900607E0FF1257CD90060795
:1044C300A3E0FF1257CD900605E0FCA3E0FDEC242A
:1044D30014FFE433FE7C00EF2D124CE7122510226B
:1044E300EFC3946474809480505875F005EFA4244E
:1044F30004F582E5F03400F583E06D704575F00551
:10450300EFA42404F582E5F03400F58374FFF09002
:104513000004C083C082FDEF75F005A42400F97484
:104523000035F0FA7B01D007D00612083A7B017AF6
:104533000079009006117401F0A374F4F07F010276
:104543001B677F01227EFFEFB40C00505990455743
:10455300F828287302457B02457F0245830245877D
:1045630002458B02458F02459302459702459B0204
:10457300459F0245A30245A77E0A802AE4FE8026C2
:104583007E0B80227E07801E7E04801A7E018016A9
:104593007E0880127E09800E7E06800A7E038006D6
:1045A3007E0280027E05AF0622900603EFF0A3741D
:1045B3001DF0900560E0FDEFC39D40037F01229055
:1045C3000603E025E024B6F582E43404F583E0FE37
:1045D30075F005A424C8F582E43404F583A3E0FA56
:1045E300A3E0F94A600512065D801F900603E025EB
:1045F300E024B7F582E43404F583E0FF123A7590C2
:104603000561E0FF125024124FB67F002290060589
:10461300EBF0A3EAF0A3E9F0E4FEEFFD7C00700504
:10462300A304F08028ED64014C700890060874021E
:10463300F0801AED64024C70089006087403F08051
:104643000CED64034C70069006087404F0900608A1
:10465300E0FF900605E0F9A3E0FAA3E090060EC997
:10466300F0A3EAF0A3E9F07B2C7A01E4FDFC02322B
:10467300F07B017D02900604EBF0A3EAF0A3E9F0DE
:10468300A3EDF0C2AF1253A17F501238DE50028067
:104693002AE4900608F0900607E0FFA3E0FEC39F1C
:1046A3005029900604E0FBA3E0FAA3E0F98E82759B
:1046B30083001203CCFF1238DE500812569AD2AF91
:1046C3007F0122900608E004F080CBD2AF12569A05
:1046D3007F0022E490060EF043EC1090060DF0905C
:1046E300060DE0C3940874809480503A5390F77F8A
:1046F300027E001259924390087F027E0012599263
:10470300E59030E40790060EE04401F090060DE0DA
:10471300C39407748094805005A3E025E0F09006CD
:104723000DE004F080B95390F753ECEF5390EF9002
:10473300060EE0FF22E4900605F0A3F0125968EF9D
:1047430064017002FF22900602E0FE900682E0FF01
:1047530075F003A42460F582E43406F583EEF0904B
:104763000603E0FEEF75F003A42461F582E434064A
:10477300F583EEF0900604E0FEEF75F003A42462E7
:10478300F582E43406F583EEF01259F2900682EFD7
:10479300F07F012278027C067D017BFF7A5E790F30
:1047A3007E007F0212038D9006007449F0A37464A7
:1047B300F07A0679001246747F0A7E001254D5906F
:1047C30006087401F0A37406F0A37402F0A3740244
:1047D300F07B017A067900E4FD122835900602E0A9
:1047E300B44908A3E0B44F037F01227F0022E4FE13
:1047F300900600F043FB0175962D5397FE7F14122C
:1048030059927F0712554453FBFE75962D4397012A
:10481300900729E07002A3E07008900729EEF0A347
:10482300EFF0D3EF94F4EE9401401890072AE024BC
:10483300E2FD900729E034FFFCC3EF9DEE9C50039B
:104843007F01227F00227596515397BF759654536B
:1048530097DF53ECFE5390FE75962D5397F77F0227
:104863007E001254D57596305397E7439718E4F5B5
:10487300FDF5FF43FD8053FDCF43FD2053FDF04382
:10488300FD0553FFF743FF0853FFF843FF047596F5
:10489300585397FD43FB0243FB0122EFC394027479
:1048A30080948040037F0122E4FEEEC3940C748065
:1048B3009480503574502EF582E43406F583E0FD80
:1048C300EF75F00CA42438F582E43406F583E58211
:1048D3002EF582E43583F583EDF074502EF582E4F2
:1048E3003406F583E4F00E80C17F0022900605ECC8
:1048F300F0A3EDF0E4FEEFFD7C007005A304F0806F
:1049030028ED64014C70089006077402F0801AEDDC
:1049130064024C70089006077403F0800CED640386
:104923004C70069006077404F0900607E0FF9006AB
:1049330005E0FCA3E0FD024417E490062EF0125CB0
:104943005FEF702B90071BE0703590071DE004F0BC
:10495300700690071CE004F0C390071DE0942890B4
:10496300071CE09400401890071B7401F08010E4CA
:1049730090071CF0A3F090071BF090062E04F09014
:10498300062EE0FF2243C03075963453979F43971A
:1049930040E4F5DEF5DF9006011205EC0000E100CE
:1049A300E4FF12512A53DDF753DDFB53DDFD53DDE5
:1049B300FE43DD0153DDEF43DD2043DE0843DE0428
:1049C30053E1FB53F4FB43F40443E70443DD402288
:1049D300E4FFEFD3940A748094805036EF75F003AC
:1049E300A42460F582E43406F58374FFF0EF75F0D8
:1049F30003A42461F582E43406F58374FFF0EF75B4
:104A0300F003A42462F582E43406F58374FFF00F07
:104A130080C0E4900681F0A3F0227B017A0579FD42
:104A230012360EEF603C125C349005FDE014601901
:104A330014601E14602324FE602214602224067076
:104A4300219005FFE0FF0208ED9005FFE0FF02184B
:104A5300479005FFE0FF02214C0259A6025B6F124B
:104A6300530C22900609EBF0A3EAF0A3E9F0A37438
:104A730052F07B017A06790CE4FD1230F3EF7003F8
:104A83007F01229006267401F0A37406F0A3740C30
:104A9300F0A37402F0900609E0FBA3E0FAA3E0F9A7
:104AA300122D5FEF7F0070027F0122EF701F905D78
:104AB3009A93900756F0905D9BE493900758F0907B
:104AC3005D9CE493900755F0905D9D801E905D9EE4
:104AD300E493900756F0905D9FE493900758F0900D
:104AE3005DA0E493900755F0905DA1E49390075780
:104AF300F0227FFF9006BAE004F0E0D394047480C0
:104B030094804005E4F0125B86EF6012125CF9EFCB
:104B1300700C125D17EF6006125C6DEF7011125B83
:104B2300631245489006C0EFF0125C2C125CBD1274
:104B33005A97EF60031254892253CCBFA206E43381
:104B4300C43333544042CCE4900605F0900604E0AD
:104B5300FFA3E0C39F5027759107200619905D328C
:104B6300E493FF900418E0FCA3E0FD12508E90063E
:104B730006EEF0A3EFF0900605E004F080CE22905D
:104B83000605EFF0125CC3EF64017023900605E0A5
:104B9300FFF4FDE4F44D7E0060027E01900565E0C4
:104BA300FD5E6004E4F08007ED5F900565F0227F11
:104BB30052125C9F125D1A7BFF7A59797D7F037EC7
:104BC3000012563922EFB40700503E904BD5F82817
:104BD3002873024BEA024BEF024BF4024BF9024BF0
:104BE300FE024C03024C08EDF452F822EDF452801D
:104BF30022EDF4529022EDF452B022EDF452C02291
:104C0300EDF452C822EDF452D822EEF0EFA3F0A354
:104C1300EDF0A3EAF0A3EBF07FEF1257CD7F011283
:104C230057CD1257BA78101257BC9006D4E0FCA3A4
:104C3300E0FDA3E0FEA3E0FF78081205BA1257CD0A
:104C43009006D4A3A3A3E0FF1257CD7F00227E05D5
:104C5300E4FCECC39E501174072CF582E43407F591
:104C630083E06F60030C80EAAF05A804EF088002BD
:104C7300C333D8FCFF900706E02FF00CECC39E5023
:104C830005AF04023968900706E0FF125885125AEF
:104C9300C422C0E0C0F0C083C082C0D075D000C0C1
:104CA30000C001C002C003C004C005C006C0075352
:104CB300F17FE5AE30E30312262AD007D006D005F4
:104CC300D004D003D002D001D000D0D0D082D08382
:104CD300D0F0D0E032FFE433FE7C00EF2DFFEC3E5A
:104CE300FEA3E02FFDEC3EA3FCE0FAA3E0FBEA7E8B
:104CF300002DFFEE3CFE7C00EF2BFFEC3EFE90060A
:104D030012EEF0A3EFF0900612E0FF1257CD9006DB
:104D130012A3E0FF0257CDAB07900622ECF0A3ED00
:104D2300F06BFBC454F06BFBFC900622E0FFEFFD3D
:104D3300EB75F008A4FFE5F06CFCEF6DFDE4C4F83F
:104D430054F0C868FEEBC4540F48FFEE6CFEEF6DE1
:104D5300FFEEF0A3EFF022E4FEEFFD7C007007907E
:104D6300060504F08028ED64014C70089006057474
:104D730002F0801AED64024C70089006057403F08B
:104D8300800CED64034C70069006057404F09006E5
:104D930005E0FF024F43C0E0C0F0C083C082C0D033
:104DA30075D000C000C001C002C003C004C005C06C
:104DB30006C0075388DF12324AD007D006D005D089
:104DC30004D003D002D001D000D0D0D082D083D081
:104DD300F0D0E032C0E0C083C082C0D075D000C044
:104DE30007E5DF30E3219006B9E0C394147480949F
:104DF300805014E0FF04F0749F2FF582E43406F52D
:104E030083E5E2F053DFF7D007D0D0D082D083D050
:104E1300E03290061EEBF0A3EAF0A3E9F0EFB40151
:104E2300067463FCFD8004E4FEFF2290061EE0FB93
:104E3300A3E475F00112048BA9F0FA1203B3FAFF8D
:104E4300124D1AAC06AD07900621E014F070DC2277
:104E5300EFB407005037904E60F8282873024E7560
:104E6300024E79024E7D024E81024E85024E890228
:104E73004E8DED42F822ED428022ED429022ED422A
:104E8300B022ED42C022ED42C822ED42D822AE0745
:104E9300125059EF7032EE25E024F4F582E4340128
:104EA300F58374FFF0EE25E024F5F582E43401F593
:104EB3008374FFF07B017A0179F4900611E4F0A387
:104EC3007464F07F02021B677F0122900604EBF0FB
:104ED300A3EAF0A3E9F07B017A0679507D02123749
:104EE300C5900604E0FBA3E0FAA3E0F9EF1203F98F
:104EF300900604E0FBA3E0FAA3E0F91203B3F47F06
:104F03000160027F0022C0E0C083C082C0D075D0A0
:104F130000C00753887FE5895430C4540F6402608E
:104F23000685098D850B8B9006B8E004F07006901A
:104F330006B7E004F0D007D0D0D082D083D0E032DF
:104F4300900606EFF0124C1BEF640170037FFF2203
:104F53007F01125CE77F047E001256DA7F02125C47
:104F6300EA900606E0FF1257CD900606E02407FFFD
:104F7300E433FE124D01122510227B027D107F04C3
:104F8300121FD47D107F04124E537B017D207F04BA
:104F9300121FD47D207F04124E537B027D807F0439
:104FA300121FD47D807F04124E537B017D407F040A
:104FB300021FD490062FEFF0C3945D748094805049
:104FC30005E0FF02373890062FE024A3A3F09006F4
:104FD30030E0246AF582E43405F583E0FF600B12C8
:104FE3003738900630E004F080E422E49005FFF0C7
:104FF30043FB01123045EF70079005FF04F0800575
:10500300E49005FFF0900729E07002A3E070099097
:1050130005FFE070031247F153FBFE9005FFE0FF2D
:1050230022E4FE75F002EEA424EEF582E5F03402EC
:10503300F583E0FDC3949B748094805007ED6F600B
:10504300030E80DF75F002EEA424EFF582E5F03461
:1050530002F583E0FF22EFC39432748094805028DA
:10506300EF25E024F5F582E43401F583E06F701851
:10507300EF25E024F4F582E43401F583E06D600567
:10508300ED640270037F00227F0122AB078DCA53B8
:10509300CC7FEC5401C313E41342CC53CCC0EB5488
:1050A3003F42CCC20075C90130030343AD10200059
:1050B3000575910780F8AFACEFFEADABEDFF22E4D1
:1050C300FFEFFD7C00C3946474809480501675F0E8
:1050D30005EFA42404F582E5F03400F583E0F460E1
:1050E300030F80DDC3ED9464EC648094805001224F
:1050F3007FFF229005FC7401F01259537FFA7E0062
:105103001254D5125808EF700E7FFAFE1254D512BE
:1051130058089005FCEFF09005FCE0FF6401700671
:10512300900723F0A3F022900600EFF0A3E0F8A38A
:10513300E0F9A3E0FAA3E0FB7F607EE37D167C0049
:105143001204FC900600E070088FDCEE540342DE8C
:10515300228FD6EE540342D9227F02EFFD7C00C397
:105163009432748094805013EF25E024F5F582E4A3
:105173003401F583E0F460030F80E0C3ED9432EC77
:105183006480948040037FFF2222E4FB7D107F0430
:10519300121FD47D107F04124BC8E4FB7D207F04D3
:1051A300121FD47D207F04124BC8E4FB7D807F0453
:1051B300121FD47D807F04024BC87B027D207F01B8
:1051C300121FD47B027D407F01121FD47B027D809E
:1051D3007F01121FD47D207F01124E537D407F013A
:1051E300124E537D807F01024E53E4FB7D207F01ED
:1051F300121FD4E4FB7D407F01121FD4E4FB7D80AA
:105203007F01121FD47D207F01124BC87D407F0197
:10521300124BC87D807F01024BC87B027D017F0159
:10522300121FD47B027D027F01121FD47B027D04F7
:105233007F01121FD47D017F01124BC87D027F01C4
:10524300124BC87D047F01024BC8E4FB7D017F0143
:10525300121FD4E4FB7D027F01121FD4E4FB7D0403
:105263007F01121FD47D017F01124BC87D027F0194
:10527300124BC87D047F01024BC87B027D017F0670
:10528300121FD47D017F06124BC87B027D047F066B
:10529300121FD47D047F06124BC87B027D027F065A
:1052A300121FD47D027F06024BC8E4FB7D017F06FB
:1052B300121FD47D017F06124BC8E4FB7D047F06D9
:1052C300121FD47D047F06124BC8E4FB7D027F06C8
:1052D300121FD47D027F06024BC8EF25E024F5F5AB
:1052E30082E43401F583EFF025E024F4F582E4341D
:1052F30001F583EDF07B017A0179F4900611E4F076
:10530300A37464F07F02021B67900724E004F0702B
:1053130006900723E004F0124797EF64017003023D
:10532300558CC3900724E09496900723E0940040A3
:1053330003025568125B7B22E4FB7D02FF121FD43C
:105343007D02E4FF124BC8E4FB7D01FF121FD47DF5
:1053530001E4FF124BC8E4FB7D047F05121FD47DDB
:10536300047F05024BC875962D5397DF75962D5311
:1053730097FD1251BD12521D1253E9124F7D125265
:105383007D125C511258FF1249887FC87E00025477
:10539300D5EFF0A3EBF0A3EAF0A3E9F0C2AF53EC2F
:1053A300EF4390104390087F017E0012599253906F
:1053B300EF7F017E001259925390F722EF6009E4C8
:1053C3002DFBEC3446FA8007E42DFBEC3444FAC29F
:1053D300AF75D288EAF5CEEBF5CFAFD4E4F5D2F5CD
:1053E300CEF5CFD2AF227B017D02E4FF121FD47B27
:1053F300027D01E4FF121FD47D01E4FF124BC87B41
:10540300027D047F05121FD47D047F05024E535392
:10541300ECEF5390EF5390F7EF6005439010800348
:105423005390EF7F017E001259924390087F017ED3
:10543300001259925390F722E49006B9F0124C1BD4
:10544300EF640170037FFF227F01125CE71256D6DF
:105453007F01125CEA7F057E00124D0112251022A6
:10546300EFFB7A00700C8DE2E5DF541060FA53DF36
:10547300EF22EB64014A700DAF058FDBE5DA5410C0
:1054830060FA53DAEF22E4FBFD7F069005FFEFF0AD
:10549300A3EDF0A3EBF078027C067D017B017A0596
:1054A30079FF7E007F0312038D024738E49006C321
:1054B300F09006C2F0FE7F087DFF7B017A0679C477
:1054C30012083A7E007F087DFF7B017A0679CC02C1
:1054D300083AAB07AA06D3EB9400EA940040177C82
:1054E300037D5A759107ED1D70011CED4C70F4EBB3
:1054F3001B70E31A80E02253DDBF125C5812533B4A
:1055030012518D1252AD1251ED12524D75962D431B
:10551300970275962D43972075925522124C1BEFD7
:10552300640170037FFF227F01125CE71256D67F6E
:1055330003125CEA7F077E00124D017D05122512DE
:105543002253C381EF25E0547E42C343C301E5F1F7
:1055530020E40575910780F653F1EFE5C5540FFE7E
:10556300ADC6EDFF22E4FF1258B7125CA5EF6455F8
:1055730070077F01125C9F800B125CA5EF64617062
:1055830003125C2C7F08024FB67F011258B7125CDE
:10559300A5EF645570077F01125C9F800B125CA519
:1055A300EF64617003125C2C7F05024FB6124C1B33
:1055B300EF640170037FFF227F01125CE71256D66E
:1055C3007F05125CEA7F097E00124D01122510222D
:1055D300124C1BEF640170037FFF227F01125CE713
:1055E3001256D67F0D125CEA7F117E00124D011216
:1055F300251022C2AF7F04125AD375962D5397DF1D
:105603007596305397F8D2AF75962D5397EF7FDC8D
:105613007E050254D57C0C5393FB4393045393FDB3
:105623004393025393F7ECF5947595CC53F17F5361
:10563300F67F53E67F22E490055EF0A3F0900567C2
:10564300EEF0A3EFF0900562EBF0A3EAF0A3E9F02C
:1056530090055B7401F02275962AE4F597759653CD
:10566300F597759654F597759655F597759656F57E
:1056730097759657F59722EF25E025E0FEC3E4944E
:1056830000FF74FC9E8F82F583E5822DF582E5830E
:105693003CF583E493FF225390F753ECEF5390EFE1
:1056A3007F017E001259924390087F017E001259B8
:1056B300924390102278387C067D017B017A06792B
:1056C300447E007F0C120816EF3395E04F7F017084
:1056D30001FF227F037E00900612EEF0A3EFF0900D
:1056E3000612E0FF1257CD900612A3E0FF0257CD3A
:1056F300C2AFE4F5CFF5CEEF25E025E042CE75D27B
:105703009600000000E4F5CFF5CED2AF229006C09C
:10571300E0F47015125D05EF700F125D17EF60096D
:10572300125C6DEF6003120056221250C2EFF47048
:10573300087F5C124FB60258D07F5D124FB61254E9
:10574300AF7F12125C9F225389FC4389025389FB6A
:10575300C3E49FFF74019EFEAD078D8C8D8AE4FF29
:105763000257EE74FFFFFEEF1FAC0670011E4C6084
:105773000BE5FB30E3F153FBF77F01227F0022129D
:1057830050F6EF70087F08124FB60258D07F5512BB
:105793005C9F7F2F124FB6125B7B227D407F0412EA
:1057A3003BFBEF700A900734E0700904F0FF22E43A
:1057B300900734F07F002278189006D4E0FCA3E031
:1057C300FDA3E0FEA3E0FF1205BAAD07E4FF025418
:1057D300639005FF74FFF0122BDB30010812292BB5
:1057E3009005FFEFF09005FFE0FF22EFFD7C0070D6
:1057F30007858C08858A0A22ED64014C7006858D25
:1058030009858B0B229005FD7469F0A37464F07A0B
:105813000579FD124674EF7F0070027F01227F0736
:10582300125CB17F01125A47EF70047F2180027F1F
:1058330022124FB60258D07F07125CB1E4FF125A0E
:1058430047EF70047F2180027F22124FB60258D0A7
:105853007F07125CB1E4FF125A36EF70047F218098
:10586300027F22124FB60258D07F07125CB17F012C
:10587300125A36EF70047F2180027F22124FB60244
:1058830058D0900260EFF07B017A02795C900611A8
:10589300E4F0A37406F0E4FF021B6790025FEFF0ED
:1058A3007B017A02795C900611E4F0A37406F0E4BC
:1058B300FF021B67900261EFF07B017A02795C9033
:1058C3000611E4F0A37406F0E4FF021B6790056180
:1058D300E0FF123A75900561E0FF125024124FB6B3
:1058E3007F53025C9F75962D5397FD122BDB7596A4
:1058F3002D4397027F003001027F01227D207F012B
:10590300124BC87D407F01124BC87D807F01024B43
:10591300C87D017F06124E537D047F06124E537DD0
:10592300027F06024BC87D017F06124E537D047F22
:1059330006124BC87D027F06024E537D047F06127A
:105943004BC87D027F06124BC87D017F06024BC800
:105953009005FD7477F0A37464F07B017A0579FDFB
:105963007D02024678900682E0FF1259F29006818A
:10597300E0B507037F01227F0022125D207F2912F9
:105983004FB67BFF7A5A79787F3C7E00025639D333
:10599300EF9400EE9400400A759107EF1F70F01E1C
:1059A30080ED22125CA5EF6454700B125CD5EF649A
:1059B300987003125C7422EF75F00CA42438F97408
:1059C3000635F0FA7B017D010231A0900682E0FFEB
:1059D300900681E0B507037F01227F002290060332
:1059E300EFF0125D02900603E02450FF024FB6EF82
:1059F300C3940A748094805004EF04FF227F002232
:105A03009006BFE07008A3E0F470037F01227F00DB
:105A1300227B017A067950124FEEEF7F0160027FFD
:105A2300002290071BE0640170067402F07F0122DC
:105A33007F002290025EE0B507037F002290025EA2
:105A4300121B542290025DE0B507037F00229002EF
:105A53005D121B54225388DF53B8FD43B80243A899
:105A630002438810227B027D107F06121FD47D1013
:105A73007F06024BC8125D1D7BFF7A0079767F0398
:105A83007E00025639900689E064017004F07F01BC
:105A9300227F0022900566E064027004F07F0122F9
:105AA3007F002290055BE064027004F07F01227F97
:105AB3000022123D72125C511258FF125618025BFB
:105AC30091125CCFEF7003025B3C7F01125C9F225B
