:10000000024EC902004E53E1DF323202643353E143
:0A001000F7323202006653F1F732B6
:10001B00026566E4F5C9C20053F1DF9002B5E0FE5C
:10002B00A3E0F5CA53CC7FEE5401C313E41342CCC7
:10003B0053CCC090759BE493543F42CC75C90122BD
:07004B0002006E5388FD3234
:100053000200161275837F2A1265D97F60027553D9
:070063000274CC5388F73250
:07006B0002001253F1FB3209
:100073000262EE7F891265D9126A317F410275539C
:0700830002009653E1BF32B9
:07008B0002647153E17F32B2
:0700930002000E53E1FD32F3
:07009B0002000A4387012265
:0600A3000200067F0022AE
:0600AB00020086025DA7C1
:1000B30002008E020258E86480F8E933E8336011E5
:1000C3000460F0ED33EC337009E8FCE9FDEAFEEB84
:1000D300FF220460DED3EB9FEA9EE99DE8C2E78C32
:1000E300F0C2F795F0400CE8CCF8E9CDF9EACEFA86
:1000F300EBCFFB12022385D0F05804700320D5B355
:10010300E80470075002B2D502026292D5EC046093
:10011300F7E4CCC0E0C398F8603B94186008400D46
:10012300D0E0FB02023AE4FBFAC9FC8028E830E4A1
:1001330006E4C9FBE4CAFCE830E305E4C9CACBFC26
:10014300E854076010F8C3E913F9EA13FAEB13FB59
:10015300EC13FCD8F130F52FC3E49CFCEF9BFFEECE
:100163009AFEED99FDD0E0FBEF4E4D4C701222DB71
:100173000302025FEC2CFCEF33FFEE33FEED33FDA5
:10018300ED30E7EB02023AEF2BFFEE3AFEED39FDDD
:10019300D0E0FB50130BBB0003020262ED13FDEE34
:1001A30013FEEF13FFEC13FC02023A75F020800EEE
:1001B30075F010800575F0087D007E007F00339296
:1001C300D530D5031207C3EC334010EF33FFEE33C2
:1001D300FEED33FDEC33FCD5F0ED22E5F0247EA2F9
:1001E300D513CC92E7CDCEFF22EDD2E7CD33EC335E
:1001F30092D524814006E4FFFEFDFC22FCE4CFCE31
:10020300CDCC24E0501174FF80EDC3CC13CCCD13BF
:10021300CDCE13CECF13CF0470F030D5DE0207C39B
:10022300E9D2E7C933E833F892D5EDD2E7CD33EC21
:1002330033FC5002B2D522EC30E7100FBF000C0E96
:10024300BE00080DBD00040BEB6014A2D5EB13FC3C
:10025300ED92E7FD2274FFFCFDFEFF22E480F8A28D
:10026300D574FF13FC7D80E480EFED33EC33601035
:1002730004700FED547F7005740292E0227404221F
:100283000422E422EC4D6011E8497017ED33EC339E
:1002930004600DE4FCFFFEFD22E933E8330470F84B
:1002A30002025812022358046009E4CC2481500648
:1002B30028500902026228400302025FC0E0EB4AB1
:1002C3007044B98006D0E0FB02024EEF4E701CBDB5
:1002D3008008EBFFEAFEE9FD80EBE98DF0A4FEE583
:1002E300F0020370E9CDF9EAFEEBFFEF89F0A4FC1D
:1002F300E5F0CE89F0A42EFFE435F0CD89F0A42DEE
:10030300FEE435F08067EF4E7005BD80D780C3EF04
:100313008BF0A4ACF0EE8BF0A42CFCE435F0F8EFFA
:100323008AF0A42CE5F038FCE433CB8DF0A42CFC4C
:10033300E5F03BF8EE8AF0A42CFCE5F038F8E43362
:10034300CF89F0A42CFCE5F038CF3400CE89F0A49B
:100353002FFFE5F03EFEE433C98DF0A42EFEE5F059
:1003630039CD8AF0A42FFFE5F03EFEE43DFD33D006
:10037300E0FB50070BBB000F020262EC2CFCEF33D7
:10038300FFEE33FEED33FD02023A74F8CC6480CC09
:10039300C86480C8F58204604FC3EB9FF5F0EA9E02
:1003A30042F0E99D42F0E89C45F0603C501DE58237
:1003B3005FFFE582D313CB5BCBF42B5582FB502835
:1003C3000ABA002409B9002008801DE5825BFBE519
:1003D30082D313CF5FCFF4C3132F5582FF50090E7F
:1003E300BE00050DBD00010CC3EB9FF5F0EA9E4274
:1003F300F0E99D42F0E89C45F06007CC4820E70116
:10040300B3EC22ED33EC33600A047003BD8004ECDB
:10041300B2E7FC22020262EC5D046005E859047055
:1004230003020258120223580460F6EC4860F2EC0F
:100433007004FDFEFF22C860DB2481C85009C39805
:100443006002500602025F9850CAF582E9294B4ABE
:100453007005AB8202024E75F0007C1A7880C3EF00
:100463009BEE9AED99400DC3EF9BFFEE9AFEED993B
:10047300FDE842F0DC23ACF0D0E0FFD0E0FED0E0BA
:10048300FDAB8220E7101BEB60BAEC2CFCEF33FFD3
:10049300EE33FEED33FD02023AE803F830E705C020
:1004A300F075F000EF2FFFEE33FEED33FD40B83073
:1004B300E7C280AAC0E0EFFBEEFAEDF9ECF8120216
:1004C30087D0E0F5F0EFFBEEFAEDF9ECF812081E39
:1004D300A3A3A3A3E8C0E0E9C0E0EAC0E0EBC0E067
:1004E300C0F012028712083AA3A3A3A31200BDD03F
:1004F300F0D0E0FBD0E0FAD0E0F9D0E0F8D5F0D4CA
:1005030022E709F608DFFA8046E709F208DFFA80F6
:100513003E88828C83E709F0A3DFFA8032E309F691
:1005230008DFFA8078E309F208DFFA807088828CAA
:1005330083E309F0A3DFFA806489828A83E0A3F668
:1005430008DFFA805889828A83E0A3F208DFFA8001
:100553004C80D280FA80C680D4806980F280338058
:100563001080A680EA809A80A880DA80E280CA8020
:100573003389828A83ECFAE493A3C8C582C8CCC5C5
:1005830083CCF0A3C8C582C8CCC583CCDFE9DEE742
:10059300800D89828A83E493A3F608DFF9ECFAA934
:1005A300F0EDFB2289828A83ECFAE0A3C8C582C8F6
:1005B300CCC583CCF0A3C8C582C8CCC583CCDFEA45
:1005C300DEE880DB89828A83E493A3F208DFF98083
:1005D300CC88F0EF60010E4E60C388F0ED2402B4C6
:1005E300040050B9F582EB2402B4040050AF232376
:1005F30045822390055473BB010689828A83E022D6
:100603005002E722BBFE02E32289828A83E493221B
:10061300BB010CE58229F582E5833AF583E022509C
:1006230006E92582F8E622BBFE06E92582F8E222E6
:10063300E58229F582E5833AF583E49322BB01063B
:1006430089828A83F0225002F722BBFE01F322F84B
:10065300BB010DE58229F582E5833AF583E8F022B3
:100663005006E92582C8F622BBFE05E92582C8F2B9
:1006730022EF8DF0A4A8F0CF8CF0A428CE8DF0A4A7
:100683002EFE22C2D5EC30E709B2D5E4C39DFDE4CA
:100693009CFCEE30E715B2D5E4C39FFFE49EFE1247
:1006A3000B9FC3E49DFDE49CFC8003120B9F30D59C
:1006B30007C3E49FFFE49EFE22C5F0F8A3E028F001
:1006C300C5F0F8E582158270021583E038F022A3A5
:1006D300F8E0C5F025F0F0E582158270021583E09D
:1006E300C838F0E82275F008758200EF2FFFEE336B
:1006F300FECD33CDCC33CCC58233C5829BED9AEC92
:1007030099E58298400CF582EE9BFEED9AFDEC99FB
:10071300FC0FD5F0D6E4CEFBE4CDFAE4CCF9A88205
:1007230022B800C1B90059BA002DEC8BF084CFCEAA
:10073300CDFCE5F0CBF97818EF2FFFEE33FEED3368
:10074300FDEC33FCEB33FB10D703994004EB99FB2F
:100753000FD8E5E4F9FA227818EF2FFFEE33FEED18
:1007630033FDEC33FCC933C910D7059BE99A400725
:10077300EC9BFCE99AF90FD8E0E4C9FAE4CCFB223C
:1007830075F010EF2FFFEE33FEED33FDCC33CCC805
:1007930033C810D7079BEC9AE899400AED9BFDEC10
:1007A3009AFCE899F80FD5F0DAE4CDFBE4CCFAE44F
:1007B300C8F922CFF4CFCEF4CECDF4CDCCF4CC22F5
:1007C300C3E49FFFE49EFEE49DFDE49CFC22EB9FBB
:1007D300F5F0EA9E42F0E99D42F0EC6480C8648043
:1007E3009845F022EB9FF5F0EA9E42F0E99D42F036
:1007F300E89C45F022E8600FECC313FCED13FDEE1B
:1008030013FEEF13FFD8F122E8600FEFC333FFEEBF
:1008130033FEED33FDEC33FCD8F122E493FC740199
:1008230093FD740293FE740393FF22E0F8A3E0F9AF
:10083300A3E0FAA3E0FB22E493F8740193F97402B2
:1008430093FA740393FB22ECF0A3EDF0A3EEF0A371
:10085300EFF022A8828583F0D083D08212086D1234
:10086300086D12086D12086DE473E493A3C583C584
:10087300F0C583C8C582C8F0A3C583C5F0C583C8C6
:10088300C582C822D083D082F8E493701274019396
:10089300700DA3A393F8740193F5828883E47374B2
:1008A30002936860EFA3A3A380DF8A838982E47342
:1008B300EC8EF0A4CCC5F0CCCDF8EFA4CEC5F02DD2
:1008C300FDE43CFCE8A42EC8C5F03DFDE43CFCEF90
:1008D300A4FFE5F028FEE43DFDE43CFC22E709F635
:1008E3000870FA8046E709F20870FA803E88828C25
:1008F30083E709F0A370FA807EE309F60870FA80B3
:1009030076E309F20870FA806E88828C83E309F03B
:10091300A370FA806289828A83E0A3F60870FA8062
:100923005689828A83E0A3F20870FA804A80D280D3
:10093300FA80C680D4806580F28031801080A680E2
:10094300EA809A80A880DA80E280CA803189828A2C
:1009530083ECFAE493A3C8C582C8CCC583CCF0A3C7
:10096300C8C582C8CCC583CC70E9800D89828A83CF
:10097300E493A3F60870F9ECFAA9F0EDFB2289825F
:100983008A83ECFAE0A3C8C582C8CCC583CCF0A3A4
:10099300C8C582C8CCC583CC70EA80DD89828A83CE
:1009A300E493A3F20870F980CE88F0ED2402B40436
:1009B3000050C4F582EB2402B4040050BA2323454B
:1009C300822390093073E3F5F009E208B5F06BDF99
:1009D300F58067E3F5F009E608B5F05EDFF5805AC8
:1009E30087F009E608B5F052DFF6804E87F009E29A
:1009F30008B5F046DFF6804288828C8387F009E0F1
:100A0300A3B5F036DFF6803288828C8387F009E461
:100A130093A3B5F025DFF5802188828C83E3F5F07D
:100A230009E0A3B5F014DFF5801088828C83E3F529
:100A3300F009E493A3B5F002DFF4020AF88087809B
:100A4300E9809080D4803E8015806E807E809D807A
:100A5300B7808D80A380518074803C020B0489820F
:100A63008A83ECFAE493F5F0A3C8C582C8CCC583A6
:100A7300CCE493A3C8C582C8CCC583CCB5F076DFDC
:100A8300E3DEE1807089828A83E493F5F0A3E208D0
:100A9300B5F062DFF4805E89828A83E0F5F0A3E635
:100AA30008B5F051DFF5804D89828A83E0F5F0A324
:100AB300E208B5F040DFF5803C89828A83E493F550
:100AC300F0A3E608B5F02EDFF4802A800280578970
:100AD300828A83ECFAE493F5F0A3C8C582C8CCC537
:100AE30083CCE0A3C8C582C8CCC583CCB5F006DFF0
:100AF300E4DEE280007FFFB5F0020F2240027F01B7
:100B03002289828A83ECFAE0F5F0A3C8C582C8CCB7
:100B1300C583CCE0A3C8C582C8CCC583CCB5F0D50A
:100B2300DFE5DEE380CF89828A83ECFAE0F5F0A388
:100B3300C8C582C8CCC583CCE493A3C8C582C8CC3E
:100B4300C583CCB5F0AFDFE4DEE280A988F0EF60C7
:100B5300010E4E60ABED2402B404005098F582EB15
:100B63002402B40400508E2323458223900A407349
:100B7300EF4E6012EF60010EEDBB010B89828A8399
:100B8300F0A3DFFCDEFA2289F05007F709DFFCA9A6
:100B9300F022BBFEFCF309DFFCA9F022BC000BBE74
:100BA3000029EF8DF084FFADF022E4CCF875F00856
:100BB300EF2FFFEE33FEEC33FCEE9DEC984005FC8B
:100BC300EE9DFE0FD5F0E9E4CEFD22EDF8F5F0EE53
:100BD3008420D21CFEADF075F008EF2FFFED33FD3E
:100BE3004007985006D5F0F222C398FD0FD5F0EADE
:100BF30022900400EFF0127556A3EFF01208870C51
:100C030050010C50020C50120C501311D11411D17D
:100C13001511D1160C501711B13211B13311D13452
:100C230011D13511D1360C50410C504211D1501213
:100C33004A5312785412D8550C456012E0700000E4
:100C430012EB7F011275539004017401F01271F1DC
:100C5300EF6401700B12755C7F2E1265D902752C3F
:100C6300900539E07065900400E0640A703AA3E0EF
:100C7300644170030212EB127328900401E0FD7CBF
:100C830000640170057F600211CCED64024C7005B5
:100C93007F010211CC90062CE0640160030212472D
:100CA30074FFF07F010211CC900400E0640B701B11
:100CB300A3E0640160030212EB127328E49005368B
:100CC300F07F831265D97F020211CC12732890043E
:100CD30000E0FFC374809480407CD3EF9409748058
:100CE30094805072900539E0C394207480948050AE
:100CF30065900401E0FF64016005EF6402701690E3
:100D03000400E0FF900539E0FE04F0743A2EF5820A
:100D1300E43405803D900538E0FF7E00701A9004AE
:100D230000E0FD900539E0FC04F0743A2CF582E410
:100D33003405F583EDF0801EEF64014E70189004C6
:100D430000E0FF900539E0FE04F0745A2EF582E4CA
:100D53003405F583EFF0900400E0640A6003020EAB
:100D630037900538E0FF7E00700FA3E0FD14F074A8
:100D73003A2DF582E434058015EF64014E7014902A
:100D83000539E0FF14F0745A2FF582E43405F58336
:100D930074FFF0900539E060030212EB900401E068
:100DA300640270057F830212DD900538E0703D9088
:100DB3000401E0FF64126005EF641770057F6202AF
:100DC30012DD900401E0641370057F740212DD905C
:100DD3000401E0644170057F890212DD900401E0A3
:100DE300644260030212EB7F620212DD900538E079
:100DF300640160030212EB900401E0FF64126005DA
:100E0300EF641770057F680212DD900401E064133C
:100E130070057F040212DD900401E0644170057FD8
:100E2300680212DD900401E0644260030212EB7F6A
:100E3300680212DD900400E0640B600B900539E05A
:100E4300640860030212EB900539E0FF7E00C3944F
:100E530006748094804003020F04900401E064014F
:100E6300707EEF6402701090053AE0700AA3E070A0
:100E7300061273F9020F5C900539E06401700CA34C
:100E8300E06405700612692E020F5C900539E06478
:100E930001700CA3E064067006126265020F5C9099
:100EA3000539E064027032A3E0702EA3E0640170A0
:100EB3002812757AEF6401700E90053604F07F8373
:100EC3001265D97F02800C7F01126C127F5F12655D
:100ED300D97F01127553020F5C7F0112637380790E
:100EE3007F651265D9E4900539F0900538E0700309
:100EF300020FAE900538E0640160030212EB020FAB
:100F0300FF900401E064017057A3F07B017A057937
:100F13003A900539E0FD122CA1900402EFF0F47031
:100F2300077F011263738031900402E064FE70183E
:100F330012757AEF64017010FF126C127F601265F4
:100F4300D97F011275538011900402E0640170048B
:100F53007F1180027F01123C01E4900539F0804B40
:100F6300900401E0640270507B017A05793A9005A0
:100F730039E0FDE4900407F0123ED4EFF470077FEC
:100F83008C1265D98020900536E064017010FF1241
:100F93006C127F601265D97F0112755380087F013F
:100FA3001274FC126F4FE4900539F0FE7F207DFF31
:100FB3007B017A05793A804F900538E0704C9004B4
:100FC30001E0FF6412601BEF641770028014900449
:100FD30001E0641370047F048016900401E064410F
:100FE30070047F68800A900401E0644270057F68A2
:100FF3001265D99005387401F0E4A3F0FE7F207DDB
:10100300FF7B017A05795A020B73900538E064017E
:1010130060030212EB783A7C057D017B017A057946
:101023005AFE7F08120B4FEF3395E04F6003021116
:10103300A9900401E0641370507B017A05793A901A
:101043000539E0FD9004077401F0123ED4900402C8
:10105300EFF0F470057F710211AB900402E0FF7DA5
:1010630001125B64EF7017900402E09001F4F07FCB
:10107300051265D99001F4E0FF1272C980057F6EF5
:101083001265D91274390211AE7B017A05793A904F
:101093000539E0FD9004077403F0123ED4EFF460C9
:1010A300057F860211AB900401E0641270467B0158
:1010B3007A05793A900539E0FD9004077401F0123E
:1010C3003FC0EF640170077F6E1265D9800D7F0505
:1010D3001265D99001F4E0FF1272B990062CE06416
:1010E30001700B74FFF07F011275530211AE12747D
:1010F3002F0211AE900401E0644170377B017A0541
:10110300793A900539E0FDE4900407F0123FC0EF0F
:10111300640170077F6E1265D9800D7F051265D952
:101123009001F4E0FF1272B9127577EF70391274FF
:10113300258078900401E06442702E7B017A057962
:101143003A900539E0FDE4900407F0123FC0EF64E4
:101153000170077F6E1265D9800D7F051265D990E6
:1011630001F4E0FF1272B98038900401E064177053
:101173003A7B017A05793A900539E0FD90040774CA
:1011830002F0123FC0EF640170077F6E1265D980D1
:101193001012753E7F051265D99001F4E0FF1272BB
:1011A300B9126F4F80057FD31265D9026A3190045B
:1011B30000E0640A60030212EB12732890062CE02D
:1011C3006401700874FFF07F010275538076900408
:1011D30000E0640B7060127328900401E024EB605C
:1011E3004614604624E2602814604214604224E6F8
:1011F3006041243C60030212EB1254D3EF700A7F68
:10120300051265D912751480057F081265D98034DB
:10121300125882EF700A7F051265D9127520800576
:101223007F081265D9801D026C870273AC026CA41F
:101233000273B9026331900400E0640A600302128E
:10124300EB127328026F4F900400E0640A700612D9
:10125300732802563D900400E070030212EB1275EE
:1012630002900400E0D39F507F127328900400E0A3
:1012730014FF025C2D12750E900402EFF064967059
:101283000B127328900400E0FF0259C7900402E098
:1012930064997035900400E0640A70181273281280
:1012A30073E0127574EF600280287F587E02126A21
:1012B300570273D3900400E0640B702C127328124E
:1012C30073E07D017F990262AA127574EF601912AF
:1012D300732802736412755C7F4D0265D912755CC5
:1012E3007F2F1265D912737322900429E0F9A3E0CA
:1012F300FAA3E0900454C9F0A3EAF0A3E9F0A374BD
:1013030001F0A37404F0A37432F0900426E0FBA36D
:10131300E0FAA3E0F9900451EBF0A3EAF0A3E9F0BB
:10132300900006120613FF3395E0FEEF24D0FFEE84
:1013330034FFFE7C007D0A120674C006C0079000CD
:1013430005120613FF3395E0FEEF24D0FFEE34FFC2
:10135300FE7D64120674D0E02FFFD0E03EFE9000C5
:1013630007120613FD3395E0FCED24D0FDEC34FFAA
:10137300CD2FFFED3E90045AF0A3EFF0E490046606
:10138300F0A3F0900454E0FBA3E0FAA3E0F9127198
:1013930068900471EEF0A3EFF0E490047DF0A3F005
:1013A3007A04797F90045A12475DE4900466F0A3AF
:1013B300F0900466E0FEA3E0FFC39405EE6480941E
:1013C300805063900451E0FBA3E0FAA3E0F98F821D
:1013D3008E83120613FF3395E0FEEF24D0FFEE3425
:1013E300FF900489F0A3EFF0900489E0FEA3E024CA
:1013F3007FF58274043EF583E0FD900467E025E009
:10140300FF900466E033FE745C2FF58274043EF5AE
:1014130083E4F0A3EDF0900467E004F0709390048C
:1014230066E004F0808B7E007F097D007B017A04F7
:101433007968120B73900471E07004A3E064087080
:101443001678687C047D01900454E0FBA3E0FAA3C2
:10145300E0F91209AC8079D3900472E09408900407
:1014630071E0648094804027900454E0F9A3E0FA8B
:10147300A3E090048EC9F0A3EAF0A3E9F0A3E4F09B
:10148300A37408F07B017A047968125A308041789A
:10149300687C047D01900454E0FBA3E0FAA3E0F927
:1014A3001209AC90048E74FFF0A37476F0A37483D6
:1014B300F0900471E0FEA3E0FFC374089F900492D0
:1014C300F0E49E900491F07B017A04796812418BD9
:1014D300900469E0FB3395E0FA900468E0FF3395EC
:1014E300E0FEC3EF9BFFEE9AFE90046AE0F9FD3342
:1014F30095E0FCEF2DFFEE3CFEA3E0FD3395E0FC11
:10150300C3EF9DFFEE9CFEA3E0FD3395E0FCEF2DC2
:10151300FFEE3CFEA3E0FD3395E0FCC3EF9DFFEE41
:101523009CFEA3E0FD3395E0FCEF2DFFEE3CFEA314
:10153300E0FD3395E0FCC3EF9DFFEE9C900473F058
:10154300A3EFF0C374309BFFE49AFEE9FD3395E00B
:10155300FCEF2DFFEE3CFE90046BE0F9FB3395E0CE
:10156300FAC3EF9BFFEE9AFEA3E0FB3395E0FAEF9D
:101573002BFFEE3AFEA3E0FB3395E0FAC3EF9BFFAC
:10158300EE9AFEA3E0FB3395E0FAEF2BFFEE3AFE73
:10159300A3E0FB3395E0FAC3EF9BFFEE9A9004754B
:1015A300F0A3EFF0E9FF3395E0FEC3ED9FFFEC9E60
:1015B300FE90046CE0FD3395E0FCEF2DFFEE3CFE66
:1015C300A3E0FB3395E0FAC3EF9BFFEE9AFEA3E0A3
:1015D300FB3395E0FAEF2BFFEE3AFEA3E0FB3395E6
:1015E300E0FAC3EF9BFFEE9A900477F0A3EFF0E9E4
:1015F300FF3395E0FEC374309FCFE49ECF2DCF3CE5
:10160300FE90046DE0FD3395E0FCC3EF9DFFEE9C7F
:10161300FEA3E0F9FB3395E0FAEF2BFFEE3AFEA3CE
:10162300E0FB3395E0FAC3EF9BFFEE9A900479F069
:10163300A3EFF090046CE0FF3395E0FEC3EF9DFF52
:10164300EE9CFEE9FD3395E0FCEF2DFFEE3CFE90B2
:10165300046FE0FD3395E0FCC3EF9DFFEE9C900427
:101663007BF0A3EFF0E4900466F0A3F0900466E04F
:10167300FAA3E0FB25E0FFEA33FE74732FF58274CF
:10168300043EF583E0FCA3E0FD745C2FF582740453
:101693003EF583E0FEA3E0C39DFFEE9CCF2464CF21
:1016A3003400FE7C007D0A120686EB25E0FFEA3358
:1016B300FE745C2FF58274043EF583ECF0A3EDF029
:1016C300900467E004F07006900466E004F0900470
:1016D30066E07004A3E064057092E4900466F0A3EE
:1016E300F0900466E0FEA3E0FFC39405EE648094EB
:1016F3008040030217AE7C007D02120686ED4C701B
:1017030027E025E0FF900466E033FE745C2FF5824A
:1017130074043EF583A3E025E0FD0582D58202151E
:10172300831582E033FC8028900467E025E0FF9076
:101733000466E033FE745C2FF58274043EF583E0A7
:10174300FEA3E0FF7C007D03120674AC06AD07EC3C
:101753001201B3C004C005C006C00790048F12086D
:101763005640000000D007D006D005D0041236182A
:10177300C004C005C006C00790047DE0FCA3E0FDE3
:10178300EC1201B3D003D002D001D0001200BD127D
:1017930001EC90047DEEF0A3EFF0900467E004F019
:1017A3007006900466E004F00216E490047DE0FE07
:1017B300A3E0FF90045AE06E7003A3E06F6003029E
:1017C300188590045CA3E0FF900457E0FBA3E0FAC4
:1017D300A3E0F9EF12064090045EA3E0FF900457E4
:1017E300E0FBA3E0FAA3E0F9900001EF12065290A8
:1017F3000460A3E0900002120652900462A3E090FA
:101803000003120652900464A3E0900004120652EF
:10181300900451E0FBA3E0FAA3E0F990000512065F
:101823001324D0FF900457E0FBA3E0FAA3E0F99060
:101833000005EF120652900451E0FBA3E0FAA3E087
:10184300F990000612061324D0FF900457E0FBA37F
:10185300E0FAA3E0F9900006EF120652900451E07B
:10186300FBA3E0FAA3E0F990000712061324D0FFCC
:10187300900457E0FBA3E0FAA3E0F9900007EF021E
:101883000652E4900466F0A3F0900466E0FEA3E041
:10189300FFC39408EE648094805024900457E0FBC7
:1018A300A3E0FAA3E0F98F828E8374FF12065290AD
:1018B3000467E004F070D2900466E004F080CA226A
:1018C300900451EBF0A3EAF0A3E9F09000061206AE
:1018D3001375F00AA4FDACF090000512061375F021
:1018E30064A42DFFE5F03CFE9000071206137C0074
:1018F3002FFFEC3E90045AF0A3EFF0900454E0FB6A
:10190300A3E0FAA3E0F912716890046FEEF0A3EF7D
:10191300F0E4A3F0A3F090047DF0A3F07A04797FC0
:1019230090045A12475DE4900471F0A3F09004719F
:10193300E0FEA3E0FFC39405EE64809480505990C9
:101943000451E0FBA3E0FAA3E0F98F828E83120631
:1019530013FF900489E4F0A3EFF0900489E0FEA361
:10196300E0247FF58274043EF583E0FD900472E089
:1019730025E0FF900471E033FE745C2FF58274045C
:101983003EF583E4F0A3EDF0900472E004F0709D63
:10199300900471E004F080957E007F097D007B0157
:1019A3007A047966120B7390046FE07004A3E06409
:1019B30008701678667C047D01900454E0FBA3E074
:1019C300FAA3E0F91209AC8079D3900470E094088B
:1019D30090046FE0648094804027900454E0F9A35E
:1019E300E0FAA3E090048EC9F0A3EAF0A3E9F0A320
:1019F300E4F0A37408F07B017A047966125A30800C
:101A03004178667C047D01900454E0FBA3E0FAA3D3
:101A1300E0F91209AC90048E74FFF0A37476F0A37E
:101A23007483F090046FE0FEA3E0FFC374089F90FB
:101A33000492F0E49E900491F07B017A047966129B
:101A4300418B900467E0FB3395E0FA900466E0FF76
:101A53003395E0FEC3EF9BFFEE9AFE900468E0F936
:101A6300FD3395E0FCEF2DFFEE3CFEA3E0FD339547
:101A7300E0FCC3EF9DFFEE9CFEA3E0FD3395E0FC8D
:101A8300EF2DFFEE3CFEA3E0FD3395E0FCC3EF9D9D
:101A9300FFEE9CFEA3E0FD3395E0FCEF2DFFEE3C53
:101AA300FEA3E0FD3395E0FCC3EF9DFFEE9C9004A5
:101AB30073F0A3EFF0C374309BFFE49AFEE9FD33A8
:101AC30095E0FCEF2DFFEE3CFE900469E0F9FB335B
:101AD30095E0FAC3EF9BFFEE9AFEA3E0FB3395E09C
:101AE300FAEF2BFFEE3AFEA3E0FB3395E0FAC3EFE8
:101AF3009BFFEE9AFEA3E0FB3395E0FAEF2BFFEE9C
:101B03003AFEA3E0FB3395E0FAC3EF9BFFEE9A9016
:101B13000475F0A3EFF0E9FF3395E0FEC3ED9FFFFB
:101B2300EC9EFE90046AE0FD3395E0FCEF2DFFEEA2
:101B33003CFEA3E0FB3395E0FAC3EF9BFFEE9AFE76
:101B4300A3E0FB3395E0FAEF2BFFEE3AFEA3E0FBB5
:101B53003395E0FAC3EF9BFFEE9A900477F0A3EF7F
:101B6300F0E9FF3395E0FEC374309FCFE49ECF2DA1
:101B7300CF3CFE90046BE0FD3395E0FCC3EF9DFF8B
:101B8300EE9CFEA3E0F9FB3395E0FAEF2BFFEE3A70
:101B9300FEA3E0FB3395E0FAC3EF9BFFEE9A9004BC
:101BA30079F0A3EFF090046AE0FF3395E0FEC3EF12
:101BB3009DFFEE9CFEE9FD3395E0FCEF2DFFEE3C2F
:101BC300FE90046DE0FD3395E0FCC3EF9DFFEE9CBA
:101BD30090047BF0A3EFF0E4900471F0A3F0900481
:101BE30071E0FAA3E0FB25E0FFEA33FE74732FF5FF
:101BF3008274043EF583E0FCA3E0FD745C2FF58260
:101C030074043EF583E0FEA3E0C39DFFEE9CCF2466
:101C130064CF3400FE7C007D0A120686EB25E0FFCC
:101C2300EA33FE745C2FF58274043EF583ECF0A373
:101C3300EDF0900472E004F07006900471E004F09B
:101C4300900471E07004A3E064057092E490047161
:101C5300F0A3F0900471E0FEA3E0FFC39405EE64EB
:101C63008094804003021D207C007D02120686EDD5
:101C73004C7027E025E0FF900471E033FE745C2F85
:101C8300F58274043EF583A3E025E0FD0582D58249
:101C93000215831582E033FC8028900472E025E06E
:101CA300FF900471E033FE745C2FF58274043EF5FB
:101CB30083E0FEA3E0FF7C007D03120674AC06AD57
:101CC30007EC1201B3C004C005C006C00790048F1F
:101CD30012085640000000D007D006D005D00412E9
:101CE3003618C004C005C006C00790047DE0FCA3FD
:101CF300E0FDEC1201B3D003D002D001D0001200FA
:101D0300BD1201EC90047DEEF0A3EFF0900472E0BD
:101D130004F07006900471E004F0021C5690047DF8
:101D2300E0FEA3E0FF90045AE06E7003A3E06F604F
:101D330003021DF190045CA3E0FF900457E0FBA3B2
:101D4300E0FAA3E0F9EF12064090045EA3E0FF90EF
:101D53000457E0FBA3E0FAA3E0F9900001EF1206B9
:101D630052900460A3E0900002120652900462A312
:101D7300E0900003120652900464A3E09000041262
:101D83000652900451E0FBA3E0FAA3E0F9900005AA
:101D9300120613FF900457E0FBA3E0FAA3E0F990C7
:101DA3000005EF120652900451E0FBA3E0FAA3E012
:101DB300F9900006120613FF900457E0FBA3E0FA24
:101DC300A3E0F9900006EF120652900451E0FBA342
:101DD300E0FAA3E0F9900007120613FF900457E01E
:101DE300FBA3E0FAA3E0F9900007EF020652E490A8
:101DF3000471F0A3F0900471E0FEA3E0FFC3940824
:101E0300EE648094805024900457E0FBA3E0FAA38F
:101E1300E0F98F828E8374FF120652900472E004FD
:101E2300F070D2900471E004F080CA22900400EFB5
:101E3300F0A20592069004047403F01261DA3005EF
:101E4300030221BA900400E0FF25E024BBF582E4FD
:101E53003475F583E493FC740193FD75F002EFA4EC
:101E630024B5F582E5F03402F583ECF0A3EDF090B0
:101E73000400E0FE90759B93FF900403F075F0025D
:101E8300EEA424B5F582E5F03402F583E0FCA3E08B
:101E9300FD1266B1900400E0FD75F002A42416F56E
:101EA30082E5F03403F583EEF0A3EFF075F002ED75
:101EB300A42416F582E5F03403F583E0FEA3E0FFE6
:101EC300900401E0FCA3E0FDD3EF9DEE9C500302E0
:101ED30020A5900400E0FF75F002A42416F582E526
:101EE300F03403F583E0FCA3E0FD900401E0FAA3E2
:101EF300E0FBD3ED9BEC9A5003021FC1759107756C
:101F0300F002EFA424B5F582E5F03402F583E0FE98
:101F1300A3E0C394FFEE94014003021FC1900400A9
:101F2300E0FF75F002A424B5F582E5F03402F583F1
:101F3300E475F0011206BC75F002EFA424B5F58236
:101F4300E5F03402F583E0FCA3E0FD900403E0FF39
:101F53001266B1900400E0FD75F002A42416F58228
:101F6300E5F03403F583EEF0A3EFF075F002EDA492
:101F73002416F582E5F03403F583E0FEA3E0FF7554
:101F8300F002EDA424CDF582E5F03402F583EEF002
:101F9300A3EFF075F002EDA42416F582E5F0340307
:101FA300F583E0FEA3E0FF75F002EDA424F1F582D2
:101FB300E5F03402F583EEF0A3EFF0021ED5E5CD94
:101FC300C454072409F9E47F01FEFDFCA8011208AB
:101FD3000BEF24F6FBEE34FFFAED34FFF9EC34FF9C
:101FE300F8900400E075F002A42416F582E5F034BD
:101FF30003F583E0FEA3E0FFE4FCFDD31207E74013
:10200300030220A5900400E0FF75F002A424B5F5B7
:1020130082E5F03402F583E475F0011206BC75F035
:1020230002EFA424B5F582E5F03402F583E0FCA3C6
:10203300E0FD900403E0FF1266B1900400E0FD753B
:10204300F002A42416F582E5F03403F583EEF0A341
:10205300EFF075F002EDA42416F582E5F03403F5F4
:1020630083E0FEA3E0FF75F002EDA424CDF582E545
:10207300F03402F583EEF0A3EFF075F002EDA42443
:1020830016F582E5F03403F583E0FEA3E0FF75F077
:1020930002EDA424F1F582E5F03402F583EEF0A31A
:1020A300EFF0900400E075F002A42416F582E5F049
:1020B3003403F583E0FEA3E0FF900401E0FCA3E01A
:1020C300FDD3EF9DEE9C40030221BA900400E0FF94
:1020D30075F002A42416F582E5F03403F583E0FCE1
:1020E300A3E0FD900401E0FAA3E0FBC3ED9BEC9AAF
:1020F30040030221BA75910775F002EFA424B5F5E8
:1021030082E5F03402F583E0FEA3E0D39400EE947D
:102113000050030221BA900400E0FF75F002A424EA
:10212300B5F582E5F03402F58374FFF5F01206BCD1
:1021330075F002EFA424B5F582E5F03402F583E0EF
:10214300FCA3E0FD900403E0FF1266B1900400E0FD
:10215300FD75F002A42416F582E5F03403F583EE51
:10216300F0A3EFF075F002EDA42416F582E5F03448
:1021730003F583E0FEA3E0FF75F002EDA424CDF5A3
:1021830082E5F03402F583EEF0A3EFF075F002ED93
:10219300A42416F582E5F03403F583E0FEA3E0FF03
:1021A30075F002EDA424F1F582E5F03402F583EE37
:1021B300F0A3EFF00220CE22AB07EB25E02412F5CB
:1021C30082E43476F583E493FF740193900404CF9F
:1021D300F0A3EFF0EB25E02412F582E43476F583E7
:1021E300E493FC740193FD907602E493FF7E001266
:1021F3000674EEC4F854F0C868FEEFC4540F48FFE9
:10220300900406EEF0A3EFF075F002EBA42416F5AC
:1022130082E5F03403F583E0FEA3E0FF75F002EB03
:10222300A424CDF582E5F03402F583E0FCA3E0C3FA
:102233009FFFEC9EFE900402F0A3EFF0C3EE6480D8
:1022430094805003022398A3E0FEA3E0FF900402CE
:10225300E0FCA3E0FD9FEE6480F8EC6480984010FE
:1022630074812BF582E43402F5837401F002236454
:10227300900406E0FEA3E0FFC3ED9FEE6480F8EC5C
:10228300648098405874462BF582E43403F583E068
:1022930004F074992BF582E43402F583E4F0743A84
:1022A3002BF582E43403F583E4F0748D2BF582E49B
:1022B3003402F583E4F074462BF582E43403F583AA
:1022C300E0FF900620E0FEEFC39E500302236474F8
:1022D300462BF582E43403F583E4F0806E74462BD9
:1022E300F582E43403F583E4F074992BF582E43446
:1022F30002F583E004F0743A2BF582E43403F583AA
:10230300E4F0748D2BF582E43402F583E4F07499E0
:102313002BF582E43402F583E0FF900622E0FEEF22
:10232300C39E403D74992BF582E43402F583E4F0B7
:1023330075F002EBA424CDF582E5F03402F583E0D9
:10234300FEA3E0D39400EE9400401675F002EBA4D4
:1023530024CDF582E5F03402F58374FFF5F012061F
:10236300BC907654E493FE740193FFC3900405E09C
:102373009FFF900404E09EFEC3900403E09F90043B
:1023830002E09E400302250974812BF582E43402A6
:10239300F583E4F02274812BF582E43402F583E4BF
:1023A300F0900406E0FEA3E0FFC3E49FFFE49EFE7B
:1023B300C3900403E09FEE6480F8900402E064801D
:1023C30098406C74462BF582E43403F583E4F0748F
:1023D300992BF582E43402F583E4F0743A2BF58209
:1023E300E43403F583E004F0748D2BF582E43402C6
:1023F300F583E4F0743A2BF582E43403F583E0FFCC
:1024030090061FE0FEEFC39E5003022509743A2B8A
:10241300F582E43403F583E4F075F002EBA424CDF4
:10242300F582E5F03402F583E475F00102250674C4
:10243300462BF582E43403F583E4F074992BF5829B
:10244300E43402F583E4F0743A2BF582E43403F5C3
:1024530083E4F0748D2BF582E43402F583E004F019
:10246300748D2BF582E43402F583E0FF900621E0BE
:10247300FEEFC39E5003022509748D2BF582E434CD
:1024830002F583E4F0900405E025E0FD900404E008
:1024930033FCE0A2E713FEA3E0132DFFEE3CFEC3E3
:1024A300E49FFFE49EFED3900403E09FEE6480F874
:1024B300900402E0648098502975F002EBA424167E
:1024C300F582E5F03403F583E0FEA3E0FF75F00247
:1024D300EBA424CDF582E5F03402F583EEF0A3EF0F
:1024E300F022900406E0FEA3E0FF7C007D051206C7
:1024F3008675F002EBA424CDF582E5F03402F58372
:10250300EE8FF01206BC22900426EBF0A3EAF0A3B0
:10251300E9F0E490044AF0A3F0A3F0A3F0A3F0A33E
:10252300F0A3F0FE7F08FD7B017A047932120B736E
:102533007E007F087D007B017A04793A120B737E5B
:10254300007F087D007B017A047942120B739004AB
:102553002CE0FBA3E0FAA3E0F9EA494B700302275E
:10256300D61205FAF46003022686900001120613C0
:10257300F46003022686900002120613F46003023D
:102583002686900003120613F46003022686900049
:1025930004120613F4600302268690000512061344
:1025A300F46003022686900006120613F460030209
:1025B3002686900007120613F46003022686121281
:1025C300EC900432E0F9F4700690044AF0FF229094
:1025D3000433E0FF7E007C037DE8120674AA06AB99
:1025E30007E9FF7E007C277D10120674EF2BFDEEBA
:1025F3003AFCA3E075F064A42DFDE5F03CFCA3E0F8
:1026030075F00AA42DFFE5F03CFEA3E07C002FFF4C
:10261300EC3EFE90044BF0A3EFF0C390044EE09F1A
:10262300EE6480F890044DE064809840030227CE66
:10263300E490044FF0A3F0900426E0FBA3E0FAA398
:10264300E0F990044FE0FEA3E0FFF5828E831206CB
:102653001324D0FD743A2FF58274043EF583EDF014
:10266300900450E004F0700690044FE004F09004EE
:102673004FE07004A3E0640870BD90044A7401F055
:102683000227CE900429E0F9A3E0FAA3E0900454D2
:10269300C9F0A3EAF0A3E9F0A37401F0A37404F072
:1026A300A37442F090042CE0FBA3E0FAA3E0F91238
:1026B30018C3900442E0F470030227D71212EC907F
:1026C3000432E0F470030227D7900433E0FF7E0066
:1026D3007C037DE8120674AA06AB07900432E0FF80
:1026E3007E007C277D10120674EF2BFDEE3AFC90E2
:1026F3000434E075F064A42DFDE5F03CFCA3E07523
:10270300F00AA42DFFE5F03CFEA3E07C002FFFECD4
:102713003E90044BF0A3EFF0900443E0FF7E007C77
:10272300037DE8120674AA06AB07900442E0FF7E1D
:10273300007C277D10120674EF2BFDEE3AFC90040B
:1027430044E075F064A42DFDE5F03CFCA3E075F0D6
:102753000AA42DFFE5F03CFEA3E07C002FFFEC3E36
:10276300FE90044DF0A3EFF0D390044CE09FEE6491
:1027730080F890044BE06480984050E490044FF05C
:10278300A3F0900426E0FBA3E0FAA3E0F990044F42
:10279300E0FEA3E0FFF5828E8312061324D0FD74BE
:1027A3003A2FF58274043EF583EDF0900450E00473
:1027B300F0700690044FE004F090044FE07004A31F
:1027C300E0640870BD90044A7401F07E007F087DC8
:1027D300008009E490044AF0FE7F08FD90042FE096
:1027E300FBA3E0FAA3E0F9120B7390042FE0FBA321
:1027F300E0FAA3E0F8AC02AD037B017A04793A7EF8
:10280300007F081205D490044AE0FF227B01E4FD17
:1028130090040BEBF0A3EAF0A3E9F0A3EDF0E4904E
:102823000413F0A3F0A3F0A37403F0A374E8F0ED92
:10283300D3940074809480500302296BC2AFE49058
:102843000413F090040EE0FF900413E0FEC39F50C6
:102853002190040BE0FBA3E0FAA3E0F98E827583D9
:1028630000120613FDE4FF126A0B900413E004F058
:1028730080D190041674FFF5F01206BC45F0700386
:102883000229667F017E00126A5790060DE0C39409
:10289300027480948040DBE4900413F090060DE012
:1028A300FF900413E0FEC39F506274F72EF582E499
:1028B3003405F583E0FD644B6022ED6449601DED52
:1028C30064426018ED64466013ED6452600EED647B
:1028D3004D6009ED644A6004EDB47128EDB44A0714
:1028E300900415EEF08025EEFDC3EF9DFFE4940008
:1028F300FEC3EF9402EE648094804008900413E0DA
:10290300900415F0900413E004F08090900415E017
:10291300900413F090060DE0FF900413E0FEC39FB4
:102923004003022A5874F72EF582E43405F583E058
:10293300FF90040FE0FBA3E0FAA3E0F9900414E096
:10294300FEF582758300EF120652900412E0146EB6
:102953007003022A58900414E004F0900413E00476
:10296300F080B1D2AF022A63C2AF90041674FFF5B0
:10297300F01206BC45F07003022A617F017E00124B
:102983006A5790060DE0C394027480948040DBE4A0
:10299300900413F090060DE0FF900413E0FEC39F34
:1029A300506274F72EF582E43405F583E0FD644B41
:1029B3006022ED6449601DED64426018ED64466079
:1029C30013ED6452600EED644D6009ED644A6004DA
:1029D300EDB47128EDB44A07900415EEF08025EEAE
:1029E300FDC3EF9DFFE49400FEC3EF9402EE648009
:1029F30094804008900413E0900415F0900413E0D1
:102A030004F08090900415E0900413F090060DE01C
:102A1300FF900413E0FEC39F503B74F72EF582E44E
:102A23003405F583E0FF90040FE0FBA3E0FAA3E095
:102A3300F9900414E0FEF582758300EF12065290BC
:102A43000412E0146E600E900414E004F09004137A
:102A5300E004F080B7E490060DF0D2AFFF22D2AFCE
:102A63007F00227B007A00790890042AE4F0A374A3
:102A73000FF0E4FF900426EFF0A3EBF0A3EAF0A33A
:102A8300E9F07F091274EA900426E0147003022B24
:102A93007124FE7003022C3E24036003022C9B90DE
:102AA300042F7401F0A37400F0A37400F0A3740165
:102AB300F0A374F4F0E4FF1274E4E4FF126C6AE42C
:102AC30090042CF0A3F090042AE0FEA3E0FFC3904F
:102AD300042DE09F90042CE09E5037E0FCA3E0FD22
:102AE300900427E0FBA3E0FAA3E0F98D828C831224
:102AF3000613FBE4FF1255C590042EEFF070037F1D
:102B0300012290042DE004F070BC90042CE004F04A
:102B130080B4E490042CF0A3F0900432E0FEA3E030
:102B2300FFC390042DE09F90042CE09E4003022CF1
:102B33009EE0FEA3E0FF2418FDE43EFC90042FE09A
:102B4300FBA3E0FAA3E0F98F828E83120613FBE462
:102B5300FF1255C590042EEFF070037F01229004FD
:102B63002DE004F070B390042CE004F080AB9004EB
:102B73002FE4F0A37400F0A37408F0A3E4F0A374AB
:102B83000FF0E4FF1274E4E4FF126C6AE490042C87
:102B9300F0A3F0900432E0FEA3E0FFC390042DE025
:102BA3009F90042CE09E5037E0FCA3E0FD90042F9F
:102BB300E0FBA3E0FAA3E0F98D828C83120613FBFA
:102BC300E4FF1255C590042EEFF070037F012290AD
:102BD300042DE004F070BC90042CE004F080B4E415
:102BE30090042CF0A3F090042AE0FEA3E0FFC3902E
:102BF300042DE09F90042CE09E4003022C9EE0FEF7
:102C0300A3E0FF2418FDE43EFC900427E0FBA3E0CF
:102C1300FAA3E0F98F828E83120613FBE4FF1255A9
:102C2300C590042EEFF070037F012290042DE00481
:102C3300F070B390042CE004F080AB7F011274E4D5
:102C43007F01126C6AE490042CF0A3F090042AE054
:102C5300FEA3E0FFC390042DE09F90042CE09E5060
:102C63003AE0FCA3E0FD900427E0FBA3E0FAA3E035
:102C7300F98D828C83120613FB7F011255C59004D4
:102C83002EEFF070037F012290042DE004F070BC5E
:102C930090042CE004F080B47F01227F0022900492
:102CA30003EBF0A3EAF0A3E9F0A3EDF0E4A3F0A3B0
:102CB300F0900413F0A374FFF0E4900407F0900481
:102CC30007E0FFC39464748094804003022DB775BA
:102CD300F005EFA42404F582E5F03400F583E0F475
:102CE3007003022DAE7E007F087DFF7B017A04799D
:102CF3000B120B73900407E075F005A42400F9741C
:102D03000035F0FA7B01C003900429EBF0A37404AF
:102D1300F0A3740BF0D0031250E7900413EFF0E428
:102D2300900409F0900413E0FF900409E02FFFE4FE
:102D330033FE900406E0FDD3EF9D7480F86E985047
:102D43005EE490040AF0900413E0FF90040AE0FEAE
:102D5300C39F5037EEFF900409E02FFFE433FE904A
:102D63000403E0FBA3E0FAA3E0F98F828E8312064B
:102D730013FF90040AE0240BF582E43404F583E0A6
:102D8300B5070890040AE004F080BB900413E0FF49
:102D930090040AE06F6008900409E004F0808590D5
:102DA3000413E0FF90040AE06F6009900407E00455
:102DB300F0022CC1900407E0C394647480948050A3
:102DC30007E0FF9001F4F022E4900425F0FE7F0871
:102DD3007DFF7B017A047915120B7390042974012A
:102DE300F0A37404F0A37415F07B017A0079001248
:102DF30050E7900413EFF0E4900407F0900407E029
:102E0300FFC3940874809480507574152FF582E481
:102E13003404F583E0F4900407700EE02415F58282
:102E2300E43404F583E4F0800EE02415F582E43401
:102E330004F583E02430F0900403E0FBA3E0FAA35D
:102E4300E0F9900407E0FFF582758300120613FE94
:102E5300F4700E740B2FF582E43404F583E4F080F0
:102E630015900407E0FFEE2430FE740B2FF582E487
:102E73003404F583EEF0900407E004F0022DFF9094
:102E830004297401F0A37404F0A37415F0A3E4F00F
:102E9300A37400F0A3740FF0A37401F0A37404F0FF
:102EA300A3741DF07B017A04790B12250A90042583
:102EB300EFF0D39400748094804019780F7C007DE8
:102EC300007B017A04791D7E007F081205D4122A43
:102ED300667FFE227FFF22C101C103C102C10041FF
:102EE30003520042060B000041060D004105DF00BE
:102EF3004105F6004105E0005405E2000000000032
:102F0300000000000000000000000000000000417D
:102F130005E10042062A000041062CFF41062D036D
:102F2300011700011900011800011A0041053900B9
:102F3300410538FF011CFF011BFF41053700410517
:102F4300360041053500609404A1022300032700E5
:102F53000423000725000826000A27000D23000F7D
:102F630025000824001627001E27002023001F2702
:102F7300002823002B24002C24002D24005142522E
:102F830043250051465249250051445245250051DD
:102F93004852472500514A524B250051335234536E
:102FA3003525005136523853392500513A523C5396
:102FB3003D2500513E524053412500062700514212
:102FC3002500513052312500513A523C25005130F1
:102FD3005232533354345535565D576125004103FE
:102FE300F6004203ED00004203EF00004203F80045
:102FF300004103EC004103F7004103FA004103538E
:10300300004103FB004103FC004203EA00004303C9
:10301300F300000060820368010300000001070061
:10302300000001080000000109000000010BFF740B
:103033006B010CFF6E2C010CFF6E45010CFF6E5EE5
:10304300010A0000000A04FF6B740208000000027A
:1030530009000000020BFF746B030DFF6C87030F65
:10306300FF73AC0310FF74430747FF6CA40749FFCA
:1030730073B9074AFF74610882FF73C6096A0000C7
:103083000009840000006A69FF6DC86A68FF6DE18A
:10309300846FFF6DFA8470FF6E135E05C101E60253
:1030A300B303BB05C307CB0895099B0ADA06E06A9D
:1030B300A76AA783A184AD9EFFFFFF4C0592000082
:1030C3000000000000000000000041062700420647
:1030D3002800004101F4FF41060F0041061600429B
:1030E300061400004406109607999B41060E004201
:1030F30006250000410623004106240000AB07EB30
:10310300C3942074809480500AE47F01FEFDFCA8E0
:1031130003800BE47F01FEFDFCEB24E0F9F81208C9
:103123000B9003FE12084AEBC394207480948050E2
:10313300030231F87596519003FEA3A3A3E0FFEFBA
:1031430042977596529003FEE0FCA3E0FDA3E0FED8
:10315300A3E0FF78081207F8EF4297EBC3942474B7
:10316300809480500E9003FEA3A3A3E0540FFFEFBF
:1031730042EA22EBC3942674809480501B9003FE92
:10318300E0FCA3E0FDA3E0FEA3E0FF78041207F850
:10319300EF5403FFEF42EB22EBFFC3942C748094B4
:1031A300805037EF642A6005EF642B70129003FEA2
:1031B300E0FCA3E0FDA3E0FEA3E0FF780480109011
:1031C30003FEE0FCA3E0FDA3E0FEA3E0FF7806120C
:1031D30007F8EF54CFFFEF42EC229003FEE0FCA38D
:1031E300E0FDA3E0FEA3E0FF780C1207F8EF540F15
:1031F300FFEF42EE227596269003FEA3A3A3E0FF02
:10320300EF42977596279003FEE0FCA3E0FDA3E051
:10321300FEA3E0FF78081207F8EF540FFFEF429781
:103223007596289003FEE0FCA3E0FDA3E0FEA3E077
:10323300FF78101207F8EF42977596299003FEE086
:10324300FCA3E0FDA3E0FEA3E0FF78181207F8ABB0
:1032530007EB42979003FEE0FCA3E0FDA3E0FEA38F
:10326300E0FF780212080BEF54FCFFEF42EB9003F0
:10327300FEE0FCA3E0FDA3E0FEA3E0FF780212075B
:10328300F8EF5430FFEF42EC9003FEE0FCA3E0FDC7
:10329300A3E0FEA3E0FF78041207F8EF54F0FFEF7A
:1032A30042EE9003FEE0FCA3E0FDA3E0FEA3E0FFFB
:1032B300780C1207F8EF54F0FFEF42EF9003FEE0B3
:1032C300FCA3E0FDA3E0FEA3E0FF78141207F8EFF0
:1032D300540FFFEF42F2EB42F722900400EFF0E4C9
:1032E300A3F0A3F0127556A3EFF06470700B127580
:1032F3005C7F2F1265D9027373900403E0646070DE
:10330300057F01127553900403E0FF7E00640160A2
:103313000DEF64326008EF6433600302349FEF649F
:10332300544E700B12750EEF6407600302349F1244
:10333300755C1271F1EF640170087F2E1265D9027A
:103343007538900403E064547037900538E0FF1239
:103353005DFC900401EFF0600302349F900538E0B8
:103363007003023432126BF4900401EFF0700A7DA3
:10337300017F071262AA0234837FD31265D9023414
:10338300837B017A04790212652B900401EFF060CC
:1033930003023415900403E0640170057F04023CCA
:1033A30001900403E0643270057F1902349C900499
:1033B30003E06433600302349F900538E0FF125D3D
:1033C300FC900401EFF07045900538E07002805FD7
:1033D300126BF4900401EFF0702CA3E0FF12579DE1
:1033E300900401EFF07015A3E09001F4F07F051253
:1033F30065D99001F4E0FF1272E980057F6E1265D2
:10340300D912745780057FD31265D980737F7A02EE
:10341300349C900403E064327070900538E0FF122E
:103423005DFC900401EFF0705D900538E0700C7F57
:10343300181265D99005387401F022126BF49004C8
:1034430001EFF07036FF1271A5900401EFF0700FD9
:103453007F051265D99001F4E0FF1272D980057FD0
:103463006E1265D990062CE06401700A74FFF07F38
:1034730001127553800A12744D80057FD31265D9EA
:10348300E4900538F0227F7A800F900403E0640112
:1034930070057F040263737F801265D922EFB4073E
:1034A3000040030236179034B0F82828730234C55D
:1034B3000234EC02351202355D0235AB0235CE0221
:1034C30035F1EB7009ED42EA759617023566EB6448
:1034D300017009ED42EA75961702360AEB64026041
:1034E30003023617EDF452EA22EB7008ED42EB7556
:1034F3009618806FEB64017009ED42EB7596180224
:10350300360AEB64026003023617EDF452EB22EB4A
:103513007008ED42EC7596198049EB64017009ED72
:1035230042EC75961902360AEB64027015EDF452FB
:10353300ECED54307003023617759625C4540F0210
:1035430035FBEB64036003023617EDF452EC75961A
:1035530025ED5430C4540F429722EB700AED42EE2E
:1035630075961BED0235FBEB64017009ED42EE75B8
:10357300961B02360AEB64027015EDF452EEED541D
:103583003070030236177596251313543F8069EB89
:1035930064036003023617EDF452EE759625ED547D
:1035A300301313543F429722EB7009ED42EF7596A7
:1035B3001CED8044EB64017008ED42EF75961C80AE
:1035C30046EB6402704EEDF452EF22EB7009ED42CC
:1035D300F275961DED8021EB64017008ED42F275E2
:1035E300961D8023EB6402702BEDF452F222EB70F4
:1035F3000BED42F775961EEDF4529722EB640170C2
:103603000AED42F775961EED429722EB64027004B1
:10361300EDF452F72290048B12084AE4FFFE7D80FA
:103623007C3F90048BE0F8A3E0F9A3E0FAA3E0FB6E
:1036330012038D700690048B02377290048BE0FCAA
:10364300A3E0FDA3E0FEA3E0FF12026DFBA3E0FCF9
:10365300A3E0FDA3E0FEA3E0FF12026DFFB40108A7
:10366300E4FFFE7D807C3F22EF64046029EB640469
:103673006024EBB40130E4FFFEFDFC90048FE0F81E
:10368300A3E0F9A3E0FAA3E0FB12038D6008400670
:10369300E4FFFEFDFC2290048F120856FFFFFFFF9C
:1036A30090048F023772E4900493F0A3F0FFFEFDC1
:1036B300FC90048BE0F8A3E0F9A3E0FAA3E0FB128B
:1036C300038D505F90048FE0FCA3E0FDA3E0FEA315
:1036D300E0FF1201EC900493EEF0A3EFF0FDCCEECB
:1036E300CCEC1201B3C8ECC8C9EDC9CAEECACBEF22
:1036F300CB90048FE0FCA3E0FDA3E0FEA3E0FF1268
:1037030000B9E4FBFAF9F812038D708A90048BE098
:10371300FCA3E0FDA3E0FEA3E0FF12040690048BEC
:1037230012084A90048BE0FCA3E0FDA3E0FEA3E0B3
:10373300FF123A1490048FE0F8A3E0F9A3E0FAA390
:10374300E0FB120287124C1E90048F12084A900469
:1037530094E030E01790048FE0FCA3E0FDA3E0FECB
:10376300A3E0FF12040690048F12084A90048FE02E
:10377300FCA3E0FDA3E0FEA3E0FF2290040574FF99
:10378300F078087C047D01FB7A76797E7E007F03E6
:103793001205D49004067442F0A37464F07B017A9A
:1037A3000479067D02125F417F2C7E01126A5790D5
:1037B300040F7401F0A37404F0A37408F0A374035A
:1037C300F07B017A047906E4FD122813900408E0E3
:1037D30064427047A3E024BB601514602924F96098
:1037E3001624FB6023240660030238AC7FFF227F8C
:1037F300081265D97FFF2290062C7401F07F6212B4
:1038030065D97F12800F807590062C7401F07F17A5
:103813001265D97F321275530238AC900408E0FF69
:10382300644D600AEF64466005EF6452707890045B
:103833000AE0FB9004097005E024D0800CE024D05A
:1038430075F00AA4FFEB24D02F9001F4F090040844
:10385300E024BA602824F460282405704C9001F415
:10386300E0FF7D01125B64900405EFF070317F058A
:103873001265D99001F4E0FF1272C9802C7F088091
:10388300209001F4E0FF12579D900405EFF0700FB4
:103893007F051265D99001F4E0FF1272E9800A7F77
:1038A3006E1265D980037F01227F00221275569024
:1038B300049AEFF09003FB7401F09003ECE06401D1
:1038C30070309003F0E004F070069003EFE004F032
:1038D3009003F8E0FEA3E0FFC39003F0E09F9003A2
:1038E300EFE09E400D9003EC7402F0E49003EFF0E0
:1038F300A3F09003F7E06401701B9003FAE004F077
:10390300E0C3940A74809480400B9003F77402F030
:10391300E49003FAF09003FCE0D394007480948065
:10392300402A9003EBE004F070069003EAE004F011
:103933009003EAE0FEA3E0FFE4FCFD7B587A02F982
:10394300F8D31207D15005E49003FCF0125FDBEFCC
:1039530070030239D890049AE0FF64616077EF64E2
:103963006060729003ECE06401606A126CF9EF70BE
:10397300641271B9EF705E90049BF09003EEE00463
:10398300F070069003EDE004F090049AE0FF6412F7
:103993006014EF6413600FEF6441600AEF643260F8
:1039A30005EF64337011D39003EEE094C89003EDF8
:1039B300E094004017800FD39003EEE094649003EB
:1039C300EDE09400400690049B7401F090049BE0AA
:1039D300600A026104E49003EDF0A3F0223E9248F2
:1039E300DA3ECCCCCD3F2AAAAB400000003F80009A
:1039F300003F9837F03FB504F33FD744FC3E3172A4
:103A0300173EB172173F0515913EDE5BD9D2048094
:103A130002C204EDD2E7F8CD33EC3304700BBD8062
:103A23000592D502026202025840FBD31460F2F5FC
:103A3300F07C3FEE7A00C39496C8948B40230AC867
:103A43009469C8941A401A0AC89468C8941F40110C
:103A53000AC8945AC89425400805F07A00CDC2E7F5
:103A6300CDC0F090049512084AEA2323C0E024F065
:103A7300F582E43439F58312083A1200BDECC0E054
:103A8300EDC0E0EEC0E0EFC0E012081E9004951216
:103A9300082E1200B9D0E0FBD0E0FAD0E0F9D0E074
:103AA300B2E7F812041A90049512084A9039E074A8
:103AB300031204B790049512082E120287D0E06017
:103AC3000F24FCF582E43439F58312083A1200BD61
:103AD30090049512084AD0E0C3947FFDE49400FC5F
:103AE3001201B37B187A727931783F1202879004FE
:103AF3009512082E1200BD30040B7BD97A5B79DE58
:103B0300783E120287227B007A007908900402E44F
:103B1300F0A3740FF0E4FF123CF7AF08EF64016009
:103B230005EF64027076E49003FDF07B017A00797F
:103B33000090040204F0A374F4F07F01123CF77BBD
:103B4300017A0179F5900402E4F0A3748CF07F0309
:103B5300123CF7D3E50B9400748094805003023C2D
:103B6300009003FDE0FFFD7C00C3946474809480A7
:103B7300501A75F005EFA42404F582E5F03400F53E
:103B830083E060089003FDE004F080D5C3ED946406
:103B9300EC648094804066E4F50B80567E017FF4EC
:103BA3007DFF7B017A007900120B737B017A007928
:103BB3000090042A7401F0A374F4F07F01122A77B1
:103BC3007E007F8C7DFF7B017A0179F5120B737B7D
:103BD300017A0179F590042AE4F0A3748CF07F0351
:103BE300122A77750801750901E4F50AF50BF50C3E
:103BF300F50DFB7A00790890042A122A70229004AA
:103C030004EFF012757AEF6401702F900404E0FF63
:103C130054107026EF640860217F081265D9900460
:103C230004E024FE600E24FE600D24036003023CC6
:103C3300F602752C027532027538E49003FCF0121B
:103C4300756EEF64017031900404E0FFFD64086059
:103C530027EF54107022EDF4FFE4F4FE9003F6E036
:103C6300FDFBEF5B6004E4F0800E900404E04D90F4
:103C730003F6F07F4B0265D97F5212755312757D9F
:103C83007BFF7A7179537F037E0012619390040462
:103C9300E014602324FD602924FC602F24F6600DCA
:103CA30004702B9001F4E0FF126D4980219001F420
:103CB300E0FF126D6380179001F4E0FF1272F98048
:103CC3000D9001F4E0FF127309800312752690062C
:103CD3002DE0601F6401700302724790062DE064BB
:103CE300027002800B90062DE06403700612724787
:103CF300127258229003FFEBF0A3EAF0A3E9F0EF6E
:103D030014606024FE7003023DBC24036003023D83
:103D1300E7E4FF1274E4E4900404F0A3F0900402D7
:103D2300E0FEA3E0FFA3E0FCA3E0FDC39FEC9E4005
:103D330003023DE7E4FF126BB59003FFE0FBA3E052
:103D4300FAA3E0F9900404E0FCA3E0F5828C83EF8E
:103D5300120652900405E004F070C2900404E004DB
:103D6300F080BAE4FF1274E4E4900404F0A3F0904A
:103D73000402E0FEA3E0FFA3E0FCA3E0FDC39FEC8D
:103D83009E5061ED2418FDE43CFCE4FF126BB590FA
:103D930003FFE0FBA3E0FAA3E0F9900404E0FCA333
:103DA300E0F5828C83EF120652900405E004F07074
:103DB300BE900404E004F080B67F011274E4900323
:103DC300FFE0FBA3E0FAA3E0F9E490040AF0A3F018
:103DD300900402E0FFA3E090040CCFF0A3EFF07D8A
:103DE30001124FDF22E4F9900402F0A3F0FEEEC3C8
:103DF300940C74809480506074E52EF582E4340250
:103E0300F583E06050EE25E02416F582E43403F5F3
:103E130083E0FCA3E0FDEE25E024CDF582E434024B
:103E2300F583E0FAA3E0C39DFDEA9CFC900400F057
:103E3300A3EDF0D3900403E09DEC6480F8900402BA
:103E4300E0648098500F900400E0FDA3E0A3CDF060
:103E5300A3EDF0A9060E8096900309E069606FE078
:103E6300FE25E02416F582E43403F583E0FCA3E0A9
:103E7300FDEE25E024CDF582E43402F583E0FAA3D8
:103E8300E0C39DFEEA9C900400F0A3CEF0900400F2
:103E9300E0FEA3E0FFC3900403E09FFF900402E071
:103EA3009EFE900400F0A3EFF0E925E02412F582D2
:103EB300E43476F583E493FC740193FDD3EF9DEC36
:103EC3006480F8EE6480984005900309E9F0AF013F
:103ED30022900403EBF0A3EAF0A3E9F0A3EDF0E4EE
:103EE300900408F090040D74FFF07E007F04FD7BC6
:103EF300017A047909120B73900406E0FD90041211
:103F03007401F0A37404F0A37409F0900403125332
:103F1300DCE4FFEFC3946474809480506475F0050F
:103F2300EFA42404F582E5F03400F583E0F4604E59
:103F3300E4900408F0900408E0FD7C00C39404744A
:103F43008094805033E0FE75F005EFA42400F582E1
:103F5300E5F03400F583E5822EF582E43583F583BD
:103F6300E0FB74092EF582E43404F583E0B503081D
:103F7300900408E004F080BDED64044C60030F80FE
:103F830092EFC3946474809480502675F005EFA477
:103F93002404F582E5F03400F583E0FE900407E0A5
:103FA300FDEE6D6005ED6403700790040DEFF08086
:103FB3000690040D74FFF090040DE0FF22900403BB
:103FC300EBF0A3EAF0A3E9F0A3EDF0E4900408F02A
:103FD300900407E0FF7E007004A3F0803CEF6402CE
:103FE3004E700790040804F0802F9004087402F0C8
:103FF300900408E0FFC3946474809480501B75F0B0
:1040030005EFA42404F582E5F03400F583E0F460C1
:1040130008900408E004F080D7900408E0FFC394FC
:104023006474809480507A9001F4EFF07E007F04F2
:104033007DFF7B017A047909120B73900406E0FD7E
:104043009004127401F0A37404F0A37409F09004B3
:10405300031253DC900408E075F005A42400F974FE
:104063000035F0A801FC7D017B017A0479097E000B
:104073007F041205D4900407E0FFA3E075F005A4C4
:104083002404F582E5F03400F583EFF07B017A0038
:10409300790090042A7401F0A374F4F07F01022ADA
:1040A300777F01229005DFE064017071A3E0700D5A
:1040B3007D047F051264ED7D01E4FF800C9005E033
:1040C300E0640270097D047F05126220800F900571
:1040D300E0E0C39404748094804002B2F89005E059
:1040E300E004F09005F6E025E0FFE433FEEF24065C
:1040F300FFE43EFE9005E0E0C39FEE6480F8748029
:1041030098500302418AE4F07D047F051262207D0A
:1041130001E4FF1262209005DF7404F0229005DFB2
:10412300E06403704BA3E070057D01FF801D9005E3
:10413300E0E0640170097D047F051264ED800F9057
:1041430005E0E0640370077D047F0512622090059B
:10415300E0E004F0E0C39404748094804029E4F028
:104163007D047F051262207D01E4FF12622080112D
:104173009005DFE06404700F7D02FF1251E7EF70DA
:10418300069005DF7402F02290048BEBF0A3EAF0B3
:10419300A3E9F0E4900493F0A3F0D3900492E094A5
:1041A30000900491E06480948050030242449004A0
:1041B3008BE0FBA3E0FAA3E0F9900493E0FEA3E015
:1041C300F5828E831206136010900494E004F0705D
:1041D300DD900493E004F080D590048EE0FBA3E02F
:1041E300FAA3E0F91205FA603E90048EA3E475F099
:1041F300011206D2A9F0FA1205FAFF90048BE0FB34
:10420300A3E0FAA3E0F9900493E475F0011206D257
:1042130085F082F583EF12065290049174FFF5F056
:104223001206BC45F070B290048BE0FBA3E0FAA346
:10423300E0F9900493E0FEA3E0F5828E83E4120696
:104243005290048BE0FBA3E0FAA3E0F922E490048C
:1042530001F0C20112001EE4900400F0900400E09B
:10426300C3940C74809480400302430930030343D6
:10427300AD1020000575910780F8C200AFACEFFECA
:10428300ADABEDFF900400E0FD25E02416F582E4DC
:104293003403F583EEF0A3EFF0EDC3940B74809435
:1042A30080502DED25E024B7F582E43402F583E058
:1042B300FEA3E0F5CA53CC7FEE5401C313E41342CB
:1042C300CC53CCC0ED90759C93543F42CC75C9013F
:1042D300900400E0FF1221BB900400E0FF124A0BA0
:1042E300900400E0FF1258F330010F900309E0F44B
:1042F3007008900400E0900309F02002129004007B
:10430300E004F002425F20010690030974FFF022EB
:10431300C20120046D907595E493FD700D9076585D
:1043230093C313FF74019313801575F002EDA42456
:1043330056F582E5F03476F583E493FF74019390A8
:1043430003FECFF0A3EFF0E49003FDF09003FDE054
:10435300C3940C748094805071E0FF24E5F582E4EB
:104363003402F583E4F0C2059003FEE0FDA3E09080
:104373000401CDF0A3EDF0121E2F9003FDE004F035
:1043830080CA907598E493FD700D90765893C3138B
:10439300FF74019313801575F002EDA42456F58282
:1043A300E5F03476F583E493FF7401939003FECF35
:1043B300F0A3EFF0D2059003FEE0FFA3E090040129
:1043C300CFF0A3EFF0E4FF121E2F90030974FFF068
:1043D30022900423EBF0A3EAF0A3E9F0E490042A8B
:1043E300F07F2EFE12717D53FBFDE4F5FAF5FE75A9
:1043F30096585397EF53FBEF43FC40FF900429E09B
:10440300FEEFC39E5064E4A3F074FFFDFCED1DAA10
:104413000470011C4A6029E5FB30E4F1E5FB54809C
:1044230070EB900423E0FBA3E0FAA3E0F98F82751D
:104433008300E5FA12065253FBEF90042A7401F04D
:1044430053FB7F53FBDFE5FE601D900423E0FBA3DA
:10445300E0FAA3E0F98F82758300E5FA1206529021
:10446300042A74ACF080030F809253FCBF43FB0219
:1044730090042AE064AC700F900426E0FBA3E0FAFA
:10448300A3E0F9EF12064090042AE0FF2253CCBFC9
:10449300A204E433C43333544042CC300403024512
:1044A30048E4900402F090062EE0FF900402E0C37B
:1044B3009F4003024548E0FF75F002A424B5F5824E
:1044C300E5F03402F583E0FCA3E0FDEF90759B93E8
:1044D300FF1266B1900402E0FD75F002A42416F504
:1044E30082E5F03403F583EEF0A3EFF075F002ED0F
:1044F300A42416F582E5F03403F583E0FEA3E0FF80
:1045030075F002EDA424CDF582E5F03402F583EED7
:10451300F0A3EFF075F002EDA42416F582E5F03474
:1045230003F583E0FEA3E0FF75F002EDA424F1F5AB
:1045330082E5F03402F583EEF0A3EFF0900402E09D
:1045430004F00244A92290040AEBF0A3EAF0A3E9E1
:10455300F0900411EFF0A37470F0E4FF900410E006
:10456300FEEFC39E502390040AE0FBA3E0FAA3E00E
:10457300F98F82758300120613FE74132FF582E4FC
:104583003404F583EEF00F80D37B017A0479119024
:104593000410E02402900421F07F011264AF900420
:1045A30010E0FC2413F582E43404F583EFF0EEFF0E
:1045B30074142CF582E43404F583EFF07B017A0460
:1045C3007911900410E02404FD1248B8EF640160EF
:1045D300037F01229004267401F0A37404F0A374F2
:1045E30011F0A37403F090040DE0FBA3E0FAA3E041
:1045F300F91243D4EF64017F0060027F012290042B
:1046030000EBF0A3EAF0A3E9F078037C047D017BDF
:10461300FF7A7679727E007F061205D47596585319
:1046230097FB7B017A0479031260BCEF60037F017F
:1046330022900403E054C0C41313540375F003A47D
:104643002404640460037F01227B017A0479037DDF
:10465300017F93124B4AEF60037F0122900400E035
:10466300FBA3E0FAA3E0F8AC02AD037B017A047983
:10467300037E007F051205D490040D7401F0A3742A
:1046830004F0A37403F0A37405F0900400E0FBA30B
:10469300E0FAA3E0F97F93124549EF60037F01221B
:1046A300900403E054247F017001FF22900404EB83
:1046B300F0A3EAF0A3E9F0E4FFFEEFC3940A7480E9
:1046C30094805015EF75F00EA424F5F582E43401BF
:1046D300F583E0F460030F80E1EFC3940A748094E0
:1046E3008050749001F4EFF075F00EA424F5F58278
:1046F300E43401F583EFF075F00EA424F6F582E4BB
:104703003401F583EDF0E4FEEEC3940C74809480E1
:104713005031900404E0FBA3E0FAA3E0F98E827524
:104723008300120613FDEF75F00EA424F7F582E45F
:104733003401F583E5822EF582E43583F583EDF0CC
:104743000E80C57B017A0179F590042AE4F0A37405
:104753008CF07F03022A777F01227B01E0FCA3E038
:10476300FD90048BEBF0A3EAF0A3E9F0A3ECF0A334
:10477300EDF0E4A3F0A3F09004907413F090049090
:10478300E0FD7C00C3940A74809480407A90048E88
:10479300E0FEA3E0FF120686AF05900492EFF0D38C
:1047A3009409748094804004E024F6F0900492E02D
:1047B300FF900491E0FD90048BE0FBA3E0FAA3E0FB
:1047C300F91265A0EF6014900492E004F0E0D39432
:1047D300097480948040D5E4F080D1900492E0FF86
:1047E30090048BE0FBA3E0FAA3E0F9900491E0F5D9
:1047F30082758300EF120652900491E004F0900456
:1048030090E014F00247802278087C047D017BFF4E
:104813007A7679817E007F021205D4900406744A69
:10482300F0A37464F07B017A0479067D02125F4180
:104833007FF47E01126A5790040F7401F0A374048D
:10484300F0A37408F0A37402F07B017A047906E400
:10485300FD122813900408E0FEB44A08A3E0B4450F
:10486300037FFF22EEB44A0E900409E0B43007E45C
:1048730090062DF0FF22900408E0B44A0DA3E0B4A3
:10488300310890062D7401F0FF22900408E0FEB475
:104893004A0DA3E0B4320890062D7402F0FF22EE15
:1048A300B44A0F900409E0B4330890062D7403F062
:1048B300FF227FFF22900423EBF0A3EAF0A3E9F0A9
:1048C300A3EDF07596585397FDE0600464017023DF
:1048D300900423E0FBA3E0FAA3E0F91205FAF5F94B
:1048E30053FCC1900426E0FF25E0543E42FC43FC08
:1048F30001806B900423E0FBA3E0FAA3E0F9120527
:10490300FAF5F9900001120613F5FA53FCC190046D
:1049130026E0FF25E0543E42FC43FC01126CDD7DA2
:1049230002900426E0FEEDC39E5033ED9004233045
:10493300E014E0FBA3E0FAA3E0F98D827583001293
:104943000613F5FA8012E0FBA3E0FAA3E0F98D82E7
:10495300758300120613F5F9126CDD0D80C3126C1A
:10496300DD229005DFE064026003024A077D02FF57
:104973001251E7EF64016003024A079005E2E07019
:10498300139005F6F01274A29005E17401F0E4901F
:1049930005DFF022E4900499F09005DF04F0900520
:1049A300E2E09005F6F0E4900499F0900499E0FFBA
:1049B3003395E0FEC3EF9413EE64809480502B7420
:1049C300E32FF58274053EF583E0FF601D900499A3
:1049D300E0FD3395E0FC74E22DF58274053CF5832C
:1049E300EFF0900499E004F080C1900499E0FF3364
:1049F30095E0FE74E22FF58274053EF583E4F090B2
:104A030005E0F0221240A72274812FF582E43402DC
:104A1300F583E07049742E2FF582E43403F583E4C3
:104A2300F074A92FF582E43402F583E004F074A94D
:104A33002FF582E43402F583E0FE907657E493FD8C
:104A4300EED39D406474A92FF582E43402F583E428
:104A5300F074E52FF582E43402F583E4F02274A9BF
:104A63002FF582E43402F583E4F0742E2FF582E40B
:104A73003403F583E004F0742E2FF582E43403F558
:104A830083E0FE907656E493FDEED39D401B742E97
:104A93002FF582E43403F583E4F074E52FF582E423
:104AA3003402F5837401F0D2012275962B5397F8E3
:104AB300900409E05407429753CDF3A3E025E02582
:104AC300E0540C42CD53CDFDA3E025E0540242CD8A
:104AD30053CDFEA3E0540142CD53CBBFA3E0C43377
:104AE30033544042CB53CCBFA3E0C433335440428E
:104AF300CC75962B5397C7A3E0333333543842977F
:104B030053CD8FA3E0C4547042CD53CBC0A3E05424
:104B13003F42CB53ADDFA3E0C433542042AD75967F
:104B23002D5397FDE4F5C953F1DF900414E06401BC
:104B3300701153F6DF900413E0C43354E042F6439C
:104B4300E6202253E6DF22900409EFF0A3EDF0A361
:104B5300EBF0A3EAF0A3E9F0780E7C047D017BFF80
:104B63007A7679687E007F0A1205D4900409E09072
:104B73000418F0A37420F07B017A0479187D0212E3
:104B830048B8EF640160037F01229004267401F0AA
:104B9300A37404F0A37422F0A37405F07B017A04D8
:104BA30079181243D4EF64017031FEEEC394057497
:104BB300809480502374182EF582E43404F583E046
:104BC300FD90040BE0FBA3E0FAA3E0F98E8275836A
:104BD30000ED1206520E80D37F0022EF7F00700299
:104BE3007F012233DA929E35B16011377FE5FE39BA
:104BF3002184893AAEC3FF3C1D955B3D6358473E14
:104C030075FDF03F3172183F800000C2D502026289
:104C1300020258BD80FA50F302025FED33EC330415
:104C230060F17B3B7AAA79B8783F120287ED33ECC7
:104C33003392D5247B5011A2D570DB500BED448009
:104C430024045004A2D580CEEFFBEEFAEDF9ECF884
:104C53001201ECEFF582F404FC1201B81200BDC09E
:104C630082904BE674091204C6ED33CC33D0F09234
:104C7300D525F0A2D57001C313CC13FD22E4900413
:104C830000F0A3F01271CDEF64017002FF229005D2
:104C9300BFE075F003A4249EF582E43405F583E0B8
:104CA3001206409005BFE0FF75F003A4249FF58230
:104CB300E43405F583E0900001120652EF75F0032A
:104CC300A424A0F582E43405F583E09000021206E3
:104CD300529005BFE0FF75F003A4249EF582E434EF
:104CE30005F58374FFF0EF75F003A4249FF582E4C8
:104CF3003405F58374FFF0EF75F003A424A0F58267
:104D0300E43405F58374FFF01272039005BFEFF0EE
:104D13007F012290759AE49390062EF0E49003FDB0
:104D2300F090062EE0FF9003FDE0FEC39F5077E076
:104D3300FF25E024BBF582E43475F583E493FC742A
:104D43000193FD75F002EFA424B5F582E5F034027A
:104D5300F583ECF0A3EDF0EE90759B93FF12310019
:104D63009003FDE0FF75F002A42416F582E5F0340C
:104D730003F583E4F0A3F075F002EFA424CDF582EC
:104D8300E5F03402F583E4F0A3F075F002EFA42418
:104D9300F1F582E5F03402F583E4F0A3F09003FD2E
:104DA300E004F0024D24229003FD74FFF0A3F012FF
:104DB3007337EF64017020127405EF701A127225B5
:104DC300EF700F900537E0700E04F07F02126AE96E
:104DD3008005E4900537F01275509003FDEFF0F471
:104DE300601EE0FF125BC99003FEEFF0F46011E078
:104DF300651B600FE0FBF51BE4FDFF126AEC80030B
:104E0300751BFF127562EF60057F04126AE9127267
:104E130036EF6008E4FBFD7F03126AEC127355EF73
:104E23006008E4FBFD7F05126AEC127346EF60082D
:104E3300E4FBFD7F06126AEC22900407EBF0A3EA81
:104E4300F0A3E9F0A3EDF0E4FFEFC3940A748094B8
:104E5300805047E4FEEEC3940C74809480503390EA
:104E63000407E0FBA3E0FAA3E0F98E827583001246
:104E73000613FDEF75F00EA424F7F582E43401F573
:104E830083E5822EF582E43583F583E0B505030ED1
:104E930080C3EE640C60030F80AFEFC3940A748089
:104EA3009480501FEF75F00EA424F6F582E43401CC
:104EB300F583E0FE90040AE0FDEE6D6008ED640307
:104EC3007001227FFF22787FE4F6D8FD75812002EE
:104ED3004F10025C91E493A3F8E493A34003F6809C
:104EE30001F208DFF48029E493A3F85407240CC8E3
:104EF300C333C4540F4420C8834004F4568001468E
:104F0300F6DFE4800B0102040810204080902EDAC3
:104F1300E47E019360BCA3FF543F30E509541FFEB8
:104F2300E493A360010ECF54C025E060A840B8E429
:104F330093A3FAE493A3F8E493A3C8C582C8CAC5AC
:104F430083CAF0A3C8C582C8CAC583CADFE9DEE73E
:104F530080BE12727912747F1267AE12680E1269E4
:104F6300E21268CE12602712686E7B027D087F050D
:104F73001234A07D087F05126220E4FB7D407F068A
:104F83001234A07B027D107F021234A07D107F02B9
:104F93001264ED7B027D087F021234A07D087F023C
:104FA3001264EDE4FB7D207F061234A0E4FB7D1048
:104FB3007F031234A0E4FB7D207F031234A0E4FBC3
:104FC3007D407F031234A0E4FB7D807F031234A075
:104FD3001274B0126FD9126B5302741B900406EB58
:104FE300F0A3EAF0A3E9F0ED90040B600CE02400D9
:104FF300FE90040AE03446800AE02400FE90040A8E
:10500300E0344490040EF0A3CEF0C2AFE4FDFCD331
:1050130090040DE09D90040CE09C403A75D288907A
:10502300040EE0FAA3E0FBEAF5CEEBF5CF9004061D
:10503300E0FBA3E0FAA3E0F98D828C83E5D41206AA
:105043005290040FE004F0700690040EE004F00D9B
:10505300BD00010C80B9E4F5D2F5CEF5CFD2AF2275
:10506300E4FE900405F0A3741AF09003F2EFF07FCE
:10507300147D007B017A037954120B73E49003F1DE
:10508300F0FE900406E0FFEEC39F5057EE75F00567
:10509300A42468F582E43403F583E0FF9003F2E08F
:1050A300FDEF6D703B900405E0FF25E02454F5828D
:1050B300E43403F583EEF075F005A42469F582E486
:1050C3003403F583E0FDEF25E02455F582E4340352
:1050D300F583EDF0900405E004F09003F1E004F0B3
:1050E3000E809F22900426EBF0A3EAF0A3E9F0E4FC
:1050F300FF90042CF0EFC39404748094805060906C
:105103000426E0FBA3E0FAA3E0F98F827583001283
:105113000613FEF46049EE54F0C4540FFD900429C5
:10512300E0FBA3E475F0011206D2A9F0FAED120632
:105133004090042CE004F0EE540F640F6021EE5411
:105143000FFD900429E0FBA3E475F0011206D2A938
:10515300F0FAED12064090042CE004F00F809690D4
:10516300042CE0FF2253C4FC53C4F343C40453C4CC
:10517300BF43C44053C4CF43C43053C47F43C480EC
:1051830053C38143C30E53C38143C30C7596325338
:10519300978343977C7596325397FC439703759691
:1051A300425397FC43970275C1FF7596425397F399
:1051B3004397047596425397EF439710759642535E
:1051C30097DF126B9575965343970143F780759656
:1051D3002A43974043F74075962D5397FE75962DB6
:1051E30043970122EFB4070050759051F4F8282833
:1051F3007302520902521602522302523002523DE6
:1052030002524A025257E5F85D7F0060027F01AE09
:1052130007804CE5805D7F0060027F01AE07803F21
:10522300E5905D7F0060027F01AE078032E5B05DEF
:105233007F0060027F01AE078025E5C05D7F0060CF
:10524300027F01AE078018E5C85D7F0060027F0121
:10525300AE07800BE5D85D7F0060027F01AE07AF2C
:105263000622125360900401EFF0900626E004F04A
:105273007006900625E004F0EF6401701212755673
:10528300EF646170031271DF7F08123C0180439069
:105293000401E06402600FD3900626E0941E90069A
:1052A30025E094004034127556EF64617003127167
:1052B300DF900401E0640270077F221265D9801237
:1052C300127556EF6401700A7F081265D97F601268
:1052D3007553E4900625F0A3F0227F011272992200
:1052E30090758CE4939003FDF090758DE493900397
:1052F300FEF090758EE4939003FFF090758FE49326
:10530300900400F0907590E493900401F0907591EF
:10531300E493900402F0907594E493900403F09066
:105323007595E493900404F0907596E493900405C6
:10533300F0907592E493900406F0A37401F09075D5
:1053430093E493900408F078097C047D017B017A4F
:105353000379FD7E007F0C1205D4024AAD78047CEC
:10536300047D017BFF7A76797C7E007F021205D46F
:10537300900402744BF0A37464F07B017A04790205
:105383007D02125F417F2C7E01126A5790040F74D5
:1053930001F0A37404F0A37404F0A37402F07B017E
:1053A3007A047902E4FD122813900404E0FEB44B5E
:1053B30008A3E0B44F037F0122EEB44B0A90040527
:1053C300E0B445037F0222900404E0B44B08A3E059
:1053D300B44B037F03227F0022E0FBA3E0FAA3E0A8
:1053E300F990040EEBF0A3EAF0A3E9F0A3EDF0E4E7
:1053F300FC900415F0900411E0FDECC39D50559012
:10540300040EE0FBA3E0FAA3E0F9AF048F827583F7
:1054130000120613540F900415F00C900411E0FFD2
:10542300ECC39F500D8C82758300120613540FFE3C
:1054330080027E0F900415E0C454F04EFF900412D6
:10544300E0FBA3E475F0011206D2A9F0FAEF12060D
:10545300400C80A12290049FEFF0E4A3F09005DFBD
:10546300E070227D02FF1251E7EF6401701790058F
:10547300DF04F090049FE09005F6F0E49005E0F07F
:105483001272698048E49004A0F09004A0E0FFFD4C
:105493007C00C3941474809480501574E22FF582B9
:1054A300E43405F583E060089004A0E004F080DABA
:1054B300C3ED9414EC64809480501290049FE0FF39
:1054C300A3E024E2F582E43405F583EFF07F0122C3
:1054D3009004047401F08058900404E0FFC39464C2
:1054E30074809480504F75F005EFA42404F582E591
:1054F300F03400F583E064017033900404E075F048
:1055030005A42404F582E5F03400F58374FFF090DC
:105513000004C083C082FDEF75F005A42400F97474
:105523000035F0FA7B01D007D006120B7390040408
:10553300E004F080A37B017A00790090042A7401CF
:10554300F0A374F4F07F01022A77E4900404F0904E
:1055530005DFE0700B7D02FF1251E7EF640160612C
:105563001274A2E4900404F0900404E0FFFD339568
:10557300E0FCC3ED9414EC648094805019EF3395F0
:10558300E0FE74E22FF58274053EF583E4F09004A7
:1055930004E004F080D29005E0E0C39404748094A6
:1055A300804010E49005F6F09005DF7403F0E4A367
:1055B300F0800BE49005F6F09005DF7403F01272AF
:1055C3006922900434ECF0A3EDF0A3EBF0AA077585
:1055D300965BAD97C2AFE4F5CFF5CEEA25E025E0C3
:1055E30042CE900434E0FEA3E0F5CFEE540342CE66
:1055F300A3E0F5D175D26900000000E4F5CFF5CE44
:10560300AF05EDAF02900434700CE0FCA3E0FD1293
:105613006BB5A907800AE0FCA3E0FD1269B8A907EE
:10562300900436E0B50106A37401F08005E490040C
:1056330037F0D2AF900437E0FF229003F2E0640129
:1056430070057F01027553E4900403F0A3741AF00C
:10565300E4900403F0900404E0FF900403E0FEC32D
:105663009F5039EE75F005A42469F582E43403F5FF
:1056730083E0FF9003F2E0FEEFB50618900403E029
:1056830075F005A42468F582E43403F583E0900300
:10569300F2F08008900403E004F080B99003F2E094
:1056A300FF1250639003F2E0FF1266471265D9229E
:1056B300900404EFF0E02410F582E43406F583E06F
:1056C30024F96025246E603124FE6037240570437D
:1056D3007F4E1265D9127574EF60057F251265D967
:1056E300E4900614F0A3F0802A1274F07F17126579
:1056F300D9127574EF601C80157F771265D9127308
:10570300D380107F4F1265D9127574EF60057F2522
:105713001265D9900404E02410F582E43406F5837D
:10572300E0900616F022E4FF90062EE0FEEFC39E03
:10573300506374462FF582E43403F583E4F07499DF
:105743002FF582E43402F583E4F0743A2FF582E412
:105753003403F583E4F0748D2FF582E43402F5838A
:10576300E4F074A92FF582E43402F583E4F0742E97
:105773002FF582E43403F583E4F074812FF582E49A
:105783003402F583E4F074E52FF582E43402F58303
:10579300E4F00F8093E4FF02614CEFC3940A74803A
:1057A30094805066EF75F00EA424F5F582E434017D
:1057B300F583E06F7054EF75F00EA424F5F582E4E1
:1057C3003401F58374FFF0EF75F00EA424F6F5822F
:1057D300E43401F58374FFF090000CC083C082FDB4
:1057E300EF75F00EA424F7F9740135F0FA7B01D0BC
:1057F30007D006120B737B017A0179F590042AE432
:10580300F0A3748CF07F03022A777F01221274883D
:10581300C204124313907595E49375F002A42458BF
:10582300F582E5F03476F583E493FE740193FFE4A7
:10583300FCFD780312080BE47B0AFAF9F81207243B
:105843009002A7EEF0A3EFF0907595E49375F00244
:10585300A42458F582E5F03476F583E493FE7401CD
:1058630093FF9075FFE493FD7C001208B3E47B0A79
:10587300FAF9F81207249002A5EEF0A3EFF022E460
:10588300900404F0F0900404E0FFC3940A7480943D
:10589300805049E0FE75F00EA424F6F582E434014D
:1058A300F58374FFF0EE75F00EA424F5F582E4346D
:1058B30001F58374FFF090000CC083C082FDEF7587
:1058C300F00EA424F7F9740135F0FA7B01D007D068
:1058D30006120B73900404E004F080A97B017A01A3
:1058E30079F590042AE4F0A3748CF07F03022A77FD
:1058F300C202EF25E02416F582E43403F583E0FCCD
:10590300A3E0FD9002A7E0FAA3E0FBC3ED9BEC9AB2
:105913005020EF25E02416F582E43403F583E0FEFE
:10592300A3E0FF9002A5E0FCA3E0FDC3EF9DEE9C86
:105933005028900352E004F0E0C3940A74809480EA
:105943004018E4F0D202F5C953F1DFC200C201905E
:10595300030974FFF0C2041244902278047C047D8E
:10596300017BFF7A7679787E007F021205D490045A
:10597300027449F0A37464F07B017A0479027D0216
:10598300125F417F327E00126A5790040F7401F058
:10599300A37404F0A37404F0A37402F07A047902EC
:1059A30012280F900404E0FEB44908A3E0B44F03A7
:1059B3007F0122EEB4490A900405E0B445037F0257
:1059C300227F0022900403EFF0640A702A12757498
:1059D300EF6024900614E07002A3E0700590060EB9
:1059E300801190060EE004F0E0D39402748094805A
:1059F3004005E4F0127364900403E0FF7E00740139
:105A0300A807088005C333CE33CED8F9FF90061418
:105A1300E04EFEA3E04FFF900614EEF0A3EFF0BEBE
:105A23000F0ABFFF077D017F961262AA2290048BA3
:105A3300EBF0A3EAF0A3E9F0E4900493F0A3F09071
:105A4300049174FFF5F01206D245F0603C90048E89
:105A5300E0FBA3E0FAA3E0F91205FAFF90048BE060
:105A6300FBA3E0FAA3E0F9900493E475F0011206B6
:105A7300D285F082F583EF120652EF60C290048F55
:105A8300E475F0011206BC80B690048BE0FBA3E042
:105A9300FAA3E0F9227E017FF47DFF7B017A00798E
:105AA30000120B737B017A00790090042A7401F0D1
:105AB300A374F4F07F01122A777E007F8C7DFF7B35
:105AC300017A0179F5120B737B017A0179F5900460
