:1000000002458D0200667F5102667202599053E1EB
:10001000DF323202006E53E1F73232025B3BE4F52D
:10002000C9C20953F1DF900417E0FEA3E0F5CA53FB
:10003000CC7FEE5401C313E41342CC53CCC0906A7E
:10004000BBE493543F42CC75C9012202008653F1B0
:02005000F73285
:1000530002004E1266DBE4900555F07F6102667282
:0700630002664E5388FD32D6
:07006B0002001A5388F7326E
:100073000258081266EA7F2A125BAE7F010266729B
:0700830002009E53F1FB3265
:07008B000258CF53E1BF3220
:0700930002001653E17F3269
:07009B0002001253E1FD32E7
:0700A30002000E4387012259
:0600AB0002008E025FBAA4
:1000B3000200960203D7E86480F8E933E83360115D
:1000C3000460F0ED33EC337009E8FCE9FDEAFEEB84
:1000D300FF220460DED3EB9FEA9EE99DE8C2E78C32
:1000E300F0C2F795F0400CE8CCF8E9CDF9EACEFA86
:1000F300EBCFFB1203A285D0F05804700320D5B3D5
:10010300E80470075002B2D50203E192D5EC046013
:10011300F7E4CCC0E0C398F8603B94186008400D46
:10012300D0E0FB0203B9E4FBFAC9FC8028E830E421
:1001330006E4C9FBE4CAFCE830E305E4C9CACBFC26
:10014300E854076010F8C3E913F9EA13FAEB13FB59
:10015300EC13FCD8F130F52FC3E49CFCEF9BFFEECE
:100163009AFEED99FDD0E0FBEF4E4D4C701222DB71
:10017300030203DEEC2CFCEF33FFEE33FEED33FD25
:10018300ED30E7EB0203B9EF2BFFEE3AFEED39FD5D
:10019300D0E0FB50130BBB00030203E1ED13FDEEB4
:1001A30013FEEF13FFEC13FC0203B9EC4D6011E8EF
:1001B300497017ED33EC3304600DE4FCFFFEFD22C0
:1001C300E933E8330470F80203D71203A25804603A
:1001D30009E4CC248150062850090203E128400396
:1001E3000203DEC0E0EB4A7044B98006D0E0FB02B4
:1001F30003CDEF4E701CBD8008EBFFEAFEE9FD80E6
:10020300EBE98DF0A4FEE5F0020297E9CDF9EAFEF1
:10021300EBFFEF89F0A4FCE5F0CE89F0A42EFFE418
:1002230035F0CD89F0A42DFEE435F08067EF4E70F4
:1002330005BD80D780C3EF8BF0A4ACF0EE8BF0A4A8
:100243002CFCE435F0F8EF8AF0A42CE5F038FCE45C
:1002530033CB8DF0A42CFCE5F03BF8EE8AF0A42C14
:10026300FCE5F038F8E433CF89F0A42CFCE5F03852
:10027300CF3400CE89F0A42FFFE5F03EFEE433C96E
:100283008DF0A42EFEE5F039CD8AF0A42FFFE5F022
:100293003EFEE43DFD33D0E0FB50070BBB000F02F5
:1002A30003E1EC2CFCEF33FFEE33FEED33FD0203F1
:1002B300B974F8CC6480CCC86480C8F58204604FFC
:1002C300C3EB9FF5F0EA9E42F0E99D42F0E89C45BE
:1002D300F0603C501DE5825FFFE582D313CB5BCB1F
:1002E300F42B5582FB50280ABA002409B9002008D0
:1002F300801DE5825BFBE582D313CF5FCFF4C3138D
:100303002F5582FF50090EBE00050DBD00010CC321
:10031300EB9FF5F0EA9E42F0E99D42F0E89C45F040
:100323006007CC4820E701B3EC2275F020800E75FE
:10033300F010800575F0087D007E007F003392D5B4
:1003430030D50312099CEC334010EF33FFEE33FE3C
:10035300ED33FDEC33FCD5F0ED22E5F0247EA2D5A0
:1003630013CC92E7CDCEFF22EDD2E7CD33EC33921F
:10037300D524814006E4FFFEFDFC22FCE4CFCECD74
:10038300CC24E0501174FF80EDC3CC13CCCD13CD3E
:10039300CE13CECF13CF0470F030D5DE02099CE923
:1003A300D2E7C933E833F892D5EDD2E7CD33EC3356
:1003B300FC5002B2D522EC30E7100FBF000C0EBE8A
:1003C30000080DBD00040BEB6014A2D5EB13FCED8C
:1003D30092E7FD2274FFFCFDFEFF22E480F8A2D524
:1003E30074FF13FC7D80E480EFF920E73624F95095
:1003F300037907E4F42402FBE58215827002158376
:10040300DBF6E024FB501BE96014E4F0E58215827F
:1004130070021583E004F0B40A08E4F0D9EE740125
:10042300F00A22C2D522ED33EC3392D5FA602AB416
:10043300FF33EDC2E77BFF60067A04794EE4227A4C
:1004430004795720D5047A047952224E614E002B49
:10045300494E46002D494E4600E47A08F0A3DAFCE3
:100463007B00740722C083C082ECC0E0EDC0E0EEE5
:10047300C0E0EFC0E0EA75F010A4CAABF075F04D30
:10048300A42BFBE435F0FCEA2410FAEB34C5FBECB7
:1004930034D9FCEDC2E7FF75F056A4F42411C5F07E
:1004A300F434C58FF0A42AE5F03BE43CF020E714D4
:1004B3001205FED0E0FFD0E0FED0E0FDD0E0FC125C
:1004C30005318014F4041205FED0E0FFD0E0FED025
:1004D300E0FDD0E0FC1201AED082D083E0FAEDD291
:1004E300E7CD33EC332482FBE4C3CF33CFCE33CE1B
:1004F300CD33CD33DBF37B0775F00A846004F0A3BF
:100503001B0AE5F0F0A38FF0740AA4FFACF08EF0A1
:10051300740AA42CFEACF050010C8DF0740AA42CC8
:10052300FDE435F0F0A3DBDE7407220203E1EC5DAA
:10053300046005E8590470030203D71203A25804A8
:1005430060F6EC4860F2EC7004FDFEFF22C860DB4D
:100553002481C85009C398600250060203DE9850F4
:10056300CAF582E9294B4A7005AB820203CD75F0C7
:10057300007C1A7880C3EF9BEE9AED99400DC3EF90
:100583009BFFEE9AFEED99FDE842F0DC23ACF0D040
:10059300E0FFD0E0FED0E0FDAB8220E7101BEB6074
:1005A300BAEC2CFCEF33FFEE33FEED33FD0203B95F
:1005B300E803F830E705C0F075F000EF2FFFEE33E6
:1005C300FEED33FD40B830E7C280AA3F8000004112
:1005D30020000042C80000447A0000461C40004747
:1005E300C35000497424004B1896804CBEBC205A5B
:1005F3000E1BCA6753C21C749DC5AEFB600654072D
:10060300601C232312062CEB5438600912061812BF
:1006130006271201AEECF8EDF9EEFAEFCB22EB125E
:10062300062780F1543803241C9005CEFE93FC0E5C
:10063300EE93FD0EEE930ECE93FF22E709F608DF4D
:10064300FA8046E709F208DFFA803E88828C83E766
:1006530009F0A3DFFA8032E309F608DFFA8078E3D2
:1006630009F208DFFA807088828C83E309F0A3DF44
:10067300FA806489828A83E0A3F608DFFA805889C6
:10068300828A83E0A3F208DFFA804C80D280FA806A
:10069300C680D4806980F28033801080A680EA808F
:1006A3009A80A880DA80E280CA803389828A83ECC8
:1006B300FAE493A3C8C582C8CCC583CCF0A3C8C54C
:1006C30082C8CCC583CCDFE9DEE7800D89828A83CB
:1006D300E493A3F608DFF9ECFAA9F0EDFB22898293
:1006E3008A83ECFAE0A3C8C582C8CCC583CCF0A347
:1006F300C8C582C8CCC583CCDFEADEE880DB89824B
:100703008A83E493A3F208DFF980CC88F0EF6001D9
:100713000E4E60C388F0ED2402B4040050B9F58294
:10072300EB2402B4040050AF232345822390068EAA
:1007330073BB010689828A83E0225002E722BBFE53
:1007430002E32289828A83E49322BB010CE5822996
:10075300F582E5833AF583E0225006E92582F8E63F
:1007630022BBFE06E92582F8E222E58229F582E52D
:10077300833AF583E49322BB010689828A83F022BC
:100783005002F722BBFE01F322F8BB010DE58229DB
:10079300F582E5833AF583E8F0225006E92582C81D
:1007A300F622BBFE05E92582C8F222EF8DF0A4A84C
:1007B300F0CF8CF0A428CE8DF0A42EFE22BC000B2B
:1007C300BE0029EF8DF084FFADF022E4CCF875F084
:1007D30008EF2FFFEE33FEEC33FCEE9DEC98400563
:1007E300FCEE9DFE0FD5F0E9E4CEFD22EDF8F5F029
:1007F300EE8420D21CFEADF075F008EF2FFFED3331
:10080300FD4007985006D5F0F222C398FD0FD5F0AE
:10081300EA22C2D5EC30E709B2D5E4C39DFDE49CDE
:10082300FCEE30E715B2D5E4C39FFFE49EFE12074A
:10083300C0C3E49DFDE49CFC80031207C030D507D0
:10084300C3E49FFFE49EFE22C5F0F8A3E028F0C5B1
:10085300F0F8E582158270021583E038F022A3F8E0
:10086300E0C5F025F0F0E582158270021583E0C83B
:1008730038F0E822BB010A89828A83E0F5F0A3E01D
:1008830022500687F009E71922BBFE07E3F5F009BA
:10089300E3192289828A83E493F5F074019322BBDE
:1008A300010A89828A83F0E5F0A3F0225006F70952
:1008B300A7F01922BBFE06F3E5F009F3192275F040
:1008C30008758200EF2FFFEE33FECD33CDCC33CC52
:1008D300C58233C5829BED9AEC99E58298400CF56D
:1008E30082EE9BFEED9AFDEC99FC0FD5F0D6E4CE9B
:1008F300FBE4CDFAE4CCF9A88222B800C1B90059CF
:10090300BA002DEC8BF084CFCECDFCE5F0CBF9789B
:1009130018EF2FFFEE33FEED33FDEC33FCEB33FB2F
:1009230010D703994004EB99FB0FD8E5E4F9FA22B9
:100933007818EF2FFFEE33FEED33FDEC33FCC933B4
:10094300C910D7059BE99A4007EC9BFCE99AF90F7C
:10095300D8E0E4C9FAE4CCFB2275F010EF2FFFEEE8
:1009630033FEED33FDCC33CCC833C810D7079BEC33
:100973009AE899400AED9BFDEC9AFCE899F80FD5AB
:10098300F0DAE4CDFBE4CCFAE4C8F922CFF4CFCE1D
:10099300F4CECDF4CDCCF4CC22C3E49FFFE49EFE91
:1009A300E49DFDE49CFC22EB9FF5F0EA9E42F0E916
:1009B3009D42F0E89C45F022E8600FECC313FCED88
:1009C30013FDEE13FEEF13FFD8F122E8600FEFC320
:1009D30033FFEE33FEED33FDEC33FCD8F122ECF0C4
:1009E300A3EDF0A3EEF0A3EFF022A8828583F0D06D
:1009F30083D082120A04120A04120A04120A04E4BB
:100A030073E493A3C583C5F0C583C8C582C8F0A3A7
:100A1300C583C5F0C583C8C582C822BB01078982C7
:100A23008A830209ED5005E9F8020C87BBFE05E94C
:100A3300F8020CA022F8E0FBA3A3E0F925F0F0E50F
:100A430082158270021583E0FA38F022EBF0A3EAF4
:100A5300F0A3E9F022D083D082F8E49370127401FA
:100A630093700DA3A393F8740193F5828883E473C1
:100A73007402936860EFA3A3A380DF8A838982E46F
:100A830073EC8EF0A4CCC5F0CCCDF8EFA4CEC5F0BA
:100A93002DFDE43CFCE8A42EC8C5F03DFDE43CFC80
:100AA300EFA4FFE5F028FEE43DFDE43CFC22E3F582
:100AB300F009E208B5F06BDFF58067E3F5F009E6CE
:100AC30008B5F05EDFF5805A87F009E608B5F05205
:100AD300DFF6804E87F009E208B5F046DFF6804284
:100AE30088828C8387F009E0A3B5F036DFF6803285
:100AF30088828C8387F009E493A3B5F025DFF58022
:100B03002188828C83E3F5F009E0A3B5F014DFF5C7
:100B1300801088828C83E3F5F009E493A3B5F00297
:100B2300DFF4020BE0808780E9809080D4803E80F0
:100B330015806E807E809D80B7808D80A3805180DC
:100B430074803C020BEC89828A83ECFAE493F5F01F
:100B5300A3C8C582C8CCC583CCE493A3C8C582C847
:100B6300CCC583CCB5F076DFE3DEE1807089828A81
:100B730083E493F5F0A3E208B5F062DFF4805E89C5
:100B8300828A83E0F5F0A3E608B5F051DFF5804DE6
:100B930089828A83E0F5F0A3E208B5F040DFF580AF
:100BA3003C89828A83E493F5F0A3E608B5F02EDF4F
:100BB300F4802A8002805789828A83ECFAE493F5D1
:100BC300F0A3C8C582C8CCC583CCE0A3C8C582C87E
:100BD300CCC583CCB5F006DFE4DEE280007FFFB551
:100BE300F0020F2240027F012289828A83ECFAE01D
:100BF300F5F0A3C8C582C8CCC583CCE0A3C8C58221
:100C0300C8CCC583CCB5F0D5DFE5DEE380CF8982E0
:100C13008A83ECFAE0F5F0A3C8C582C8CCC583CCBF
:100C2300E493A3C8C582C8CCC583CCB5F0AFDFE4D9
:100C3300DEE280A988F0EF60010E4E60ABED240286
:100C4300B404005098F582EB2402B40400508E23C0
:100C530023458223900B2873EF4E6012EF60010E41
:100C6300EDBB010B89828A83F0A3DFFCDEFA2289C4
:100C7300F05007F709DFFCA9F022BBFEFCF309DF04
:100C8300FCA9F022D083D082E493F608740193F692
:100C930008740293F608740393F6740473D083D034
:100CA30082E493F208740193F208740293F20874D5
:100CB3000393F2740473E5082477F582E43406F5AC
:100CC30083E0050822900674300703900677E475E5
:100CD300F001120A380207342000E97F2ED2008087
:100CE30018EF540F2490D43440D4FF30040BEF2476
:100CF300BFB41A0050032461FFE50960021509051A
:100D03000CE50C7002050B30070E900674E475F0C9
:100D130001120A38EF02077A0264057403D20780CE
:100D230003E4C207F508900674120A4FE4F509F5C7
:100D33000BF50CE50960077F20120CFC80F5750AA2
:100D4300FFC201C200C202C203C205C206C2081228
:100D53000CC8FF700D3007057F00120D0DAF0CAEF0
:100D63000B22B4255FC2D5C204120CC8FF24D0B431
:100D73000A00501A75F00A780930D50508B6FF0144
:100D830006C6A426F620D5047002D20380D924CF48
:100D9300B41A00EF5004C2E5D204020FFFD201805F
:100DA300C6D20080C0D20280BCD2D580BAD2058020
:100DB300B47F20120CFC2002077401B5090040F136
:100DC300120CB9FF120CFC020D36D208D206809524
:100DD300120CB9FB120CB9FA120CB9F94A4B700692
:100DE30079FD7A107BFF20022EE509602A7E008EB2
:100DF3008275830012074D60060EEE650A70F0C21D
:100E0300D5EBC0E0EAC0E0E9C0E0EE121060D0E04C
:100E1300F9D0E0FAD0E0FB120734FF60AAEBC0E0A0
:100E2300EAC0E0E9C0E0120CFCD0E02401F9D0E014
:100E33003400FAD0E0FBE50A0460DCD50AD98087E8
:100E4300D20280A212104260F7E50A700104120375
:100E5300ECA90A600DE50A600914F50A1210EAEF1D
:100E630060F3EA30E702F404C3995079EAF4250AFF
:100E73000430E701E404F50A800D12104260C1EA70
:100E8300050A250A1203ECEA9006A3F030E701E411
:100E9300250A04D50A0420050114121060E4C0E0F9
:100EA3001210EA9006A3E0601320E70714F0120C77
:100EB300E4802204F0D0E014C0E07F00120CE4E5EB
:100EC3000A6007120CDB150A800B300503120CDBDA
:100ED300D0E0020D36D0E00480C4121042609EE5DB
:100EE3000A041203EC9006A3EAF0E50A2005026067
:100EF3000104240412106074FF04C0E01210EA120B
:100F03000CE4E50A2005026003120CDBD0E0B50A0D
:100F1300E87F45120CEE9006A3E07F2B30E7047FB9
:100F23002DF404C0E0120CFCD0E075F00A84C0F08C
:100F3300120CE5D0E0120CE5020D3679108002792F
:100F430008C206C2088008D2D5790A8004790AC289
:100F5300D5E50A047002F50AE4FAFDFEFF120CB9A6
:100F6300FC7B08200113120CB9FD7B1030000A1220
:100F73000CB9FE120CB9FF7B20EC3382D592D5500D
:100F830013C3E43000069FFFE49EFEE42001039DAB
:100F9300FDE49CFCE4CBF8C201EC700CCFCECDCCCD
:100FA300E824F8F870F38017C3EF33FFEE33FEED58
:100FB30033FDEC33FCEB33FB994002FB0FD8E9EB39
:100FC300300105F8D0E0C448B201C0E00AEC4D4E50
:100FD3004F78207B0070C2EAB50A0040BCC0E01223
:100FE3001062D0F0D0E0200104C4C0E0C4B201C05C
:100FF300F0120CE5D0F0D5F0EB020D36120A580DC5
:10100300D3530F3E580DA44C0DA0420F424F0F4A2D
:10101300440F4A490DB9430F50550E7D460EDD4529
:101023000E4747111D500DA82D0DAC2E0DCF2B0DC6
:10103300B0230DCD2011062A0D684800000DC7E529
:101043000AB4FF03750A06120CB9FC120CB9FD129F
:101053000CB9FE120CB9FF90069C020429790AA26E
:10106300D5200314300509B910020404B90801049A
:10107300A2D52006025001042002689202B509009D
:101083005034C0E07F203003197F30A20272067211
:1010930005500F1210B9C202C206C205C2087F3042
:1010A300800F300503E9C0E0120CFC300503D0E0EB
:1010B300F9D0E0B509CC3005177F30B9100C120C0C
:1010C300FC7F583004077F788003B90803120CFCB7
:1010D3003002057F2D020CFC7F202008F87F2B2097
:1010E30006F322920280CF7F00B40700500B249CAA
:1010F300F582E43406F583E0FF22286E756C6C29D3
:1011030000D201120CB93001F8C201780930D501BF
:1011130008F6020D682D50434958120CB92403B444
:1011230005004001E490111893120CED743A120C6F
:10113300EDD203750904020F3E900659EFF01266D3
:101143007890065AEFF0120A581192011192021187
:10115300921211921314C01414C01514C01614B2B1
:101163002214B22314C02414C02514C02614B2328E
:1011730014B23314C03414C03514C0361192411460
:10118300B24214B24314C050154D5300001572906F
:101193000659E0FF1263F39006B7E07052900659C8
:1011A300E0640A702FA3E0FD7C00640170047F609B
:1011B300803AED64024C70047F01803090065AE05F
:1011C3006441600302154A1266AEEFF47003021520
:1011D3007202154A900659E0640B7013A3E0640190
:1011E30060030215727F8A125BAE7F020266729001
:1011F3000659E0640A70569006B6E0FF7E00700F51
:10120300A3E0FD14F074B82DF582E434068015EFE5
:1012130064014E70149006B7E0FF14F074D82FF5F4
:1012230082E43406F58374FFF09006B7E0600302AE
:10123300157290065AE0FF6412600DEF64136008A4
:10124300EF644160030215727F5D025BAE90065945
:10125300E0640B600B9006B7E06420600302143473
:101263009006B7E0C394067480948050207F601288
:101273005BAEE49006B7F09006B6E070028074901F
:1012830006B6E06401600302157202132D90065A3C
:10129300E06401702B7B017A0679B89006B7E0FD14
:1012A3009006607402F01235D8EFF470077F931242
:1012B3005BAE80057F0112577DE49006B7F0803363
:1012C30090065AE0640270387B017A0679B890067A
:1012D300B7E0FDE4900660F01235D8EFF470077FB5
:1012E30093125BAE80087F011266841262CBE49096
:1012F30006B7F0FE7F207DFF7B017A0679B8803543
:1013030090065AE0FF6412600DEF64136008EF6407
:101313004160030215729006B6E0701C7F63125B96
:10132300AE9006B67401F0E4A3F0FE7F207DFF7B50
:10133300017A0679D8020C5B9006B6E0640160037B
:1013430002157278B87C067D017B017A0679D8FE96
:101353007F20120C37EF3395E04F600302142C907B
:10136300065AE0641270457B017A0679B89006B795
:10137300E0FD9006607402F01235D8EFF460057F4B
:101383008D02142E7B017A0679B89006B7E0FD90A2
:1013930006607401F01233EBEF640170047F69801F
:1013A300027F05125BAE12658602143190065AE085
:1013B300644170327B017A0679B89006B7E0FDE4A8
:1013C300900660F01233EBEF640170047F698002D2
:1013D3007F05125BAE1266AEEFF4700512657C807A
:1013E3004D1262CB804890065AE0641370407B0133
:1013F3007A0679B89006B7E0FD9006607401F012A2
:1014030035D890065BEFF0F470047F6F801D900673
:101413005BE0FF7D01125045EF70047F0580027F82
:1014230069125BAE12659080057FDA125BAE0260D3
:101433001E90065AE0FF64016005EF640270169087
:101443000659E0FF9006B7E0FE04F074B82EF5826B
:10145300E43406805590065AE0FF6412600DEF6491
:10146300136008EF644160030215729006B6E0FF53
:101473007E007019900659E0FD9006B7E0FC04F079
:1014830074B82CF582E43406F583EDF022EF6401A1
:101493004E6003021572900659E0FF9006B7E0FE16
:1014A30004F074D82EF582E43406F583EFF022902D
:1014B3000659E0640A600302157202154790065943
:1014C300E0640B707712660590065AE0120A58140E
:1014D300F414152A15152D16150524153025153365
:1014E30026151934153635153936153C50000015B7
:1014F30072124A9CEF70047F0580027F08125BAE74
:101503008045124A9CEF70071266A27F0580027F16
:1015130008125BAE8031124DC6EF70047F05800266
:101523007F08125BAE80200261AD0264E70264F4BF
:1015330002650102650E02651B020006900659E072
:10154300640A702B1266050262CB900659E0640AA6
:101553007006126605024BFC12668A900659E0D3A8
:101563009F500C126605900659E014FF12510E228B
:10157300900659EFF0E4A3F0A3F0A3F0126678907D
:10158300065DEFF064016017EF64226012EF6423DD
:10159300600DEF64426008EF644360030219A41214
:1015A300660512669090065AEFF060030219849064
:1015B30006B6E0FF12595090065AEFF07BFF7A68A7
:1015C30079F512544B9006B6E0FD7F23122E1B9043
:1015D300065AE0600302197C9006B6E0FF7B017AAD
:1015E30006795B12517290065AEFF07BFF7A6979A4
:1015F3001312544B90065BA3E0FD7F23122E1B9026
:10160300065AE060030217C390065DE0640170555B
:1016130090065BE0FEA3E0FF7D02125C5190065A48
:10162300EFF07BFF7A69793712544B7BFF7A697944
:101633005512544B90065BA3E0FD7F23122E1B7BB8
:10164300FF7A69797012544B90065AE0FD7F23129A
:101653002E1B90065AE060030217E17F021266D543
:101663007F0202577D90065DE0FF6422600FEF6406
:1016730042600AEF64436005EF6454700A7F03120B
:1016830066D57F690219A190065DE06423600302B9
:1016930019A490065BE0FEA3E0FF7D01125C51906C
:1016A300065AEFF07BFF7A69798C12544B7BFF7AF1
:1016B30069795512544B90065BA3E0FD7F23122EEC
:1016C3001B7BFF7A69797012544B90065AE0FD7FB9
:1016D30023122E1B90065AE060030217B99006B638
:1016E300E0700C04F07F021266D57F110219A1127B
:1016F300669690065AEFF06006F460030217969020
:10170300065BA3E0FF7D01125A8790065AEFF07B38
:10171300FF7A6979A812544B90065AE0FD7F231291
:101723002E1B7BFF7A6979C212544B90065BA3E0B0
:10173300FD7F23122E1B90065AE07022A3E0FEA326
:10174300E0FF12664790065AEFF07BFF7A6979DB78
:1017530012544B90065BA3E0FD7F23122E1B9006D1
:101763005AE070097F021266D57F05801D7BFF7AE0
:101773006979EA12544B90065AE0FF7E001228DD85
:1017830012544B7F031266D57F69125BAE1265AEAE
:101793000219407BFF7A6979FD12544B90065AE097
:1017A300FF7E001228DD12544B7F031266D57F960D
:1017B300125BAE0219407F031266D57F840219A122
:1017C30090065DE0640170207BFF7A6A790F125402
:1017D3004B90065AE0FF7E001228DD12544B7F0324
:1017E3001266D57F960219A190065DE0FF64226020
:1017F30012EF6442600DEF64436008EF64546003CA
:101803000219559006B6E064016003021946126698
:101813009C90065AEFF0600302192D90065DE0FFDD
:1018230064226008EF645460030218CD125D2090B7
:10183300065BE4F0A3EFF090065BE07003A3E0F433
:10184300700D7F031266D57F5C125BAE0219289080
:10185300065BE0FCA3E0FDE4FF12558490065AEF1B
:10186300F090065DE06422703C90065AE0700EA38F
:10187300A3E0FF7D01125EA090065AEFF090065A96
:10188300E070097F021266D57F0580107BFF7A6ABC
:10189300793312544B7F031266D57F69125BAE1204
:1018A30065A402194090065AE0700EA3E0FEA3E07F
:1018B300FF12664790065AEFF090065AE070047FD5
:1018C3000280027F031266D5807390065DE0FF7E7F
:1018D300006442700890065BF0A3F0800DEF644350
:1018E3004E700790065BF0A304F090065BE0FCA348
:1018F300E0FDE4FF12558490065AEFF0700EA3A3A7
:10190300E0FFE4FD125EA090065AEFF090065AE065
:1019130070097F021266D57F0580077F031266D5A3
:101923007F69125BAE1262CB80137BFF7A6A7951B7
:1019330012544B7F031266D57F81125BAEE490068F
:10194300B6F0229006B6E004F07F021266D57F114E
:10195300804C90065DE0642370477BFF7A6A79656B
:1019630012544B90065AE0FF7E001228DD12544BAE
:101973007F031266D57F8480257BFF7A6A7987800F
:10198300067BFF7A6A799912544B90065AE0FF7EE0
:10199300001228DD12544B7F031266D57F11125BB0
:1019A300AE22900659EFF0A201920290065D7403F5
:1019B300F0125737300103021D30900659E0FF251E
:1019C300E024DBF582E4346AF583E493FC74019349
:1019D300FD75F002EFA42417F582E5F03404F583D6
:1019E300ECF0A3EDF0900659E0FE906ABB93FF90F4
:1019F300065CF075F002EEA42417F582E5F03404DA
:101A0300F583E0FCA3E0FD125C86900659E0FD75CA
:101A1300F002A42478F582E5F03404F583EEF0A314
:101A2300EFF075F002EDA42478F582E5F03404F5C7
:101A330083E0FEA3E0FF90065AE0FCA3E0FDD3EFB2
:101A43009DEE9C5003021C1B900659E0FF75F002AB
:101A5300A42478F582E5F03404F583E0FCA3E0FDEB
:101A630090065AE0FAA3E0FBD3ED9BEC9A500302F5
:101A73001B3775910775F002EFA42417F582E5F083
:101A83003404F583E0FEA3E0C394FFEE9401400326
:101A9300021B37900659E0FF75F002A42417F58264
:101AA300E5F03404F583E475F00112084B75F00298
:101AB300EFA42417F582E5F03404F583E0FCA3E0FA
:101AC300FD90065CE0FF125C86900659E0FD75F020
:101AD30002A42478F582E5F03404F583EEF0A3EF55
:101AE300F075F002EDA42478F582E5F03404F58373
:101AF300E0FEA3E0FF75F002EDA4242FF582E5F0EC
:101B03003404F583EEF0A3EFF075F002EDA424782E
:101B1300F582E5F03404F583E0FEA3E0FF75F002FF
:101B2300EDA42453F582E5F03404F583EEF0A3EF3E
:101B3300F0021A4BE5CDC454072409F9E47F01FEF2
:101B4300FDFCA8011209CEEF24F6FBEE34FFFAEDFB
:101B530034FFF9EC34FFF8900659E075F002A42441
:101B630078F582E5F03404F583E0FEA3E0FFE4FCBE
:101B7300FDD31209AA4003021C1B900659E0FF750E
:101B8300F002A42417F582E5F03404F583E475F03C
:101B93000112084B75F002EFA42417F582E5F03427
:101BA30004F583E0FCA3E0FD90065CE0FF125C8695
:101BB300900659E0FD75F002A42478F582E5F0342F
:101BC30004F583EEF0A3EFF075F002EDA42478F5AD
:101BD30082E5F03404F583E0FEA3E0FF75F002ED47
:101BE300A4242FF582E5F03404F583EEF0A3EFF09F
:101BF30075F002EDA42478F582E5F03404F583E072
:101C0300FEA3E0FF75F002EDA42453F582E5F03462
:101C130004F583EEF0A3EFF0900659E075F002A40B
:101C23002478F582E5F03404F583E0FEA3E0FF9029
:101C3300065AE0FCA3E0FDD3EF9DEE9C4003021D9A
:101C430030900659E0FF75F002A42478F582E5F0A0
:101C53003404F583E0FCA3E0FD90065AE0FAA3E028
:101C6300FBC3ED9BEC9A4003021D3075910775F0A1
:101C730002EFA42417F582E5F03404F583E0FEA314
:101C8300E0D39400EE94005003021D30900659E017
:101C9300FF75F002A42417F582E5F03404F583748C
:101CA300FFF5F012084B75F002EFA42417F582E557
:101CB300F03404F583E0FCA3E0FD90065CE0FF1242
:101CC3005C86900659E0FD75F002A42478F582E560
:101CD300F03404F583EEF0A3EFF075F002EDA424E5
:101CE30078F582E5F03404F583E0FEA3E0FF75F0B8
:101CF30002EDA4242FF582E5F03404F583EEF0A37E
:101D0300EFF075F002EDA42478F582E5F03404F5E4
:101D130083E0FEA3E0FF75F002EDA42453F582E512
:101D2300F03404F583EEF0A3EFF0021C4422C10A61
:101D3300C10CC10BC1094104B4004407B2FFFFFF4A
:101D4300FF44070CFFFFFFFF420712000042071486
:101D53000000410711004107160041071000410729
:101D630072004107890041077300540775000000A2
:101D73000000000000000000000000000000000060
:101D8300004107740050078AEF01FFFFFFFF0100C6
:101D9300074101010050009B4405F4FFFFFFFF438F
:101DA300061B000000410601004106540041061EC7
:101DB3000041061F0041065300410620004205F87A
:101DC30000005906020000000000000000000000AF
:101DD30000000000000000000000000000004207B7
:101DE300C10000010D00010F00010E0001100041B0
:101DF30007C4004406AFFFFFFFFF4106B7004106DB
:101E0300B6FF4106B5FF4106B4FF4106B3004106E4
:101E1300AE0060920562022300032700042300073B
:101E230025000826000923000A27000B23000423AA
:101E3300000D23000E27000F25000824001627009D
:101E43001E27002023001F27002823002B24002CFB
:101E530024002D2400514252432500514652492566
:101E630000514452452500514852472500514A52DA
:101E73004B250051335234533525005136523853D4
:101E8300392500513A523C533D2500513E524053AF
:101E9300412500062700514225005130523153326B
:101EA3005433553456352500440551FFFFFFFF4198
:101EB300055F0042055600004205580000420560D8
:101EC30000004105550043055C000000608C04C51B
:101ED30001030000000104000000010500000001EF
:101EE3000600000001070000000108FF00060206CB
:101EF30000000002070000000208FF65E0030AFF7C
:101F030061AD030CFF64E7030DFF659A042AFF64C8
:101F1300F4042CFF6501042DFF65B80544FF650E2D
:101F23000546FF651B0547FF65D6067FFF6542062D
:101F330080000000805FFF65288060FF65350767CC
:101F430000000007810000006766FF62366765FFD7
:101F5300624F816CFF6268816DFF628144079CFF61
:101F6300FFFFFF4207A200004207A600004207A0AE
:101F730000004207A4000042079A000060F602ED49
:101F830001E102BA03C204CA05D2069C07A20E5D90
:101F93000FFF106011631205130614DA1566166934
:101FA300175C186C196F1A721B751C051D691E0CC2
:101FB3001F662078217B227E23042405256926665B
:101FC300277E280529082E102F113005311232697A
:101FD3003381345C351336143711389639053A8119
:101FE3003B153C843D7E3E113F054081417E4205C9
:101FF3004308481749184A054B194C5C4D1A4E1BA8
:102003004F185005511C521D5387547E55185605C1
:10201300577E580559085A8A5B5D5C635D055E8D82
:10202300611062116305640567AE682169226A2144
:102033006B226D4B6E216F2270217122724C7322C1
:1020430074907505768A77637829792A7A937B96D3
:102053007C997D2E7E2F7F4280A881B48290837EDF
:10206300874E8A7E8C4F8D058E08904D912192224A
:102073009A219BFFFFFF4407BAFFFFFFFF4107BE03
:10208300004207BF0000440258FFFFFFFF00AB07F9
:10209300EB25E02432F582E4346BF583E493FF749B
:1020A300019390065DCFF0A3EFF0EB25E02432F52A
:1020B30082E4346BF583E493FC740193FD906B220B
:1020C300E493FF7E001207AEEEC4F854F0C868FE36
:1020D300EFC4540F48FF90065FEEF0A3EFF075F0E6
:1020E30002EBA42478F582E5F03404F583E0FEA343
:1020F300E0FF75F002EBA4242FF582E5F03404F53C
:1021030083E0FCA3E0C39FFFEC9EFE90065BF0A37D
:10211300EFF0C3EE64809480500302226EA3E0FECE
:10212300A3E0FF90065BE0FCA3E0FD9FEE6480F874
:10213300EC648098401074E32BF582E43403F58358
:102143007401F002223A90065FE0FEA3E0FFC3EDC4
:102153009FEE6480F8EC648098405874A82BF58255
:10216300E43404F583E004F074FB2BF582E43403D8
:10217300F583E4F0749C2BF582E43404F583E4F0F6
:1021830074EF2BF582E43403F583E4F074A82BF5A4
:1021930082E43404F583E0FF9007B7E0FEEFC39ECB
:1021A300500302223A74A82BF582E43404F583E445
:1021B300F0806E74A82BF582E43404F583E4F074A4
:1021C300FB2BF582E43403F583E004F0749C2BF5D8
:1021D30082E43404F583E4F074EF2BF582E43403F2
:1021E300F583E4F074FB2BF582E43403F583E0FF1D
:1021F3009007B9E0FEEFC39E403D74FB2BF582E4EC
:102203003403F583E4F075F002EBA4242FF582E5A3
:10221300F03404F583E0FEA3E0D39400EE94004091
:102223001675F002EBA4242FF582E5F03404F58350
:1022330074FFF5F012084B906B74E493FE740193F2
:10224300FFC390065EE09FFF90065DE09EFEC39095
:10225300065CE09F90065BE09E40030223DF74E38D
:102263002BF582E43403F583E4F02274E32BF58247
:10227300E43403F583E4F090065FE0FEA3E0FFC3DC
:10228300E49FFFE49EFEC390065CE09FEE6480F84B
:1022930090065BE0648098406C74A82BF582E4346C
:1022A30004F583E4F074FB2BF582E43403F583E453
:1022B300F0749C2BF582E43404F583E004F074EFAE
:1022C3002BF582E43403F583E4F0749C2BF582E46C
:1022D3003404F583E0FF9007B6E0FEEFC39E50039E
:1022E3000223DF749C2BF582E43404F583E4F07558
:1022F300F002EBA4242FF582E5F03404F583E475B2
:10230300F0010223DC74A82BF582E43404F583E4A2
:10231300F074FB2BF582E43403F583E4F0749C2B17
:10232300F582E43404F583E4F074EF2BF582E434AE
:1023330003F583E004F074EF2BF582E43403F583B3
:10234300E0FF9007B8E0FEEFC39E50030223DF7463
:10235300EF2BF582E43403F583E4F090065EE02589
:10236300E0FD90065DE033FCE0A2E713FEA3E0137B
:102373002DFFEE3CFEC3E49FFFE49EFED390065C7C
:10238300E09FEE6480F890065BE0648098502975C6
:10239300F002EBA42478F582E5F03404F583E0FE43
:1023A300A3E0FF75F002EBA4242FF582E5F03404DB
:1023B300F583EEF0A3EFF02290065FE0FEA3E0FFCB
:1023C3007C007D0512081575F002EBA4242FF5821D
:1023D300E5F03404F583EE8FF012084B22EFF07B27
:1023E300017A02795C90066AE4F0A37405F0E4FFD5
:1023F300900666EFF0A3EBF0A3EAF0A3E9F07F0900
:1024030012666C900666E01470030224F2147003E3
:102413000225C01470030226202403600302267DD4
:1024230090066F7401F0A37400F0A37400F0A3741A
:1024330001F0A374F4F0E4FF126666E4FF12619006
:10244300E490066CF0A3F090066AE0FEA3E0FFC3FD
:1024530090066DE09F90066CE09E5037E0FCA3E091
:10246300FD900667E0FBA3E0FAA3E0F98D828C837D
:1024730012074DFBE4FF124A2490066EEFF070033F
:102483007F012290066DE004F070BC90066CE004BE
:10249300F080B4E490066CF0A3F0900672E0FEA323
:1024A300E0FFC390066DE09F90066CE09E40030240
:1024B3002680E0FEA3E0FF2418FDE43EFC90066FB7
:1024C300E0FBA3E0FAA3E0F98F828E8312074DFBB2
:1024D300E4FF124A2490066EEFF070037F0122900E
:1024E300066DE004F070B390066CE004F080AB90EE
:1024F300066F7401F0A37402F0A3745CF0A3E4F01C
:10250300A37405F0E4FF126666E4FF126190E490A1
:10251300066CF0A3F0900672E0FEA3E0FFC3900602
:102523006DE09F90066CE09E5037E0FCA3E0FD90C9
:10253300066FE0FBA3E0FAA3E0F98D828C83120718
:102543004DFBE4FF124A2490066EEFF070037F0107
:102553002290066DE004F070BC90066CE004F080FD
:10256300B4E490066CF0A3F090066AE0FEA3E0FFEB
:10257300C390066DE09F90066CE09E4003022680A8
:10258300E0FEA3E0FF2418FDE43EFC900667E0FBB9
:10259300A3E0FAA3E0F98F828E8312074DFBE4FFD9
:1025A300124A2490066EEFF070037F012290066DAD
:1025B300E004F070B390066CE004F080AB7F01128E
:1025C3006666E4FF126190E490066CF0A3F0900657
:1025D3006AE0FEA3E0FFC390066DE09F90066CE007
:1025E3009E4003022680E0FCA3E0FD900667E0FB2B
:1025F300A3E0FAA3E0F98D828C8312074DFBE4FF7D
:10260300124A2490066EEFF070037F012290066D4C
:10261300E004F070B990066CE004F080B17F011221
:1026230066667F01126190E490066CF0A3F0900659
:102633006AE0FEA3E0FFC390066DE09F90066CE0A6
:102643009E503AE0FCA3E0FD900667E0FBA3E0FAAE
:10265300A3E0F98D828C8312074DFB7F01124A247C
:1026630090066EEFF070037F012290066DE004F098
:1026730070BC90066CE004F080B47F01227BFF7A8B
:102683006B798F120D247F00227D037FE87E0390F8
:10269300066EEEF0A3EFF0A3EDF0E4900672F0A364
:1026A300F0A3F0A3F090067774EFF0A37401F09019
:1026B30005F4E0FCA3E0FDA3E0FEA3E0FF7818121D
:1026C30009BB900679EFF09005F4E0FCA3E0FDA3CD
:1026D300E0FEA3E0FF78101209BB90067AEFF090BA
:1026E30005F4E0FCA3E0FDA3E0FEA3E0FF780812FD
:1026F30009BB90067BEFF09005F4A3A3A3E090063B
:102703007CF0A37407F07E007F327D007B017A06A4
:102713007921120C5B90066E74FFF5F012084B459D
:10272300F070030228DA7F017E0012604490067085
:10273300E02409FFE433FE900716E0C39FEE6480B4
:10274300F874809840CFE4900672F0A3F0900716D7
:10275300E0FF900672E0FCA3E0FDC39FEC94005001
:102763002574F82DF58274063CF583E0FF90067717
:10277300E0FEEF6E6010900673E004F070069006C2
:1027830072E004F080C774F82DF58274063CF5837B
:10279300E0FF900677E0FEEF6E600302271874F9FE
:1027A3002DF58274063CF583E0FF900678E0FEEF9A
:1027B3006E600302271874FE2DF58274063CF583C0
:1027C300E0FF90067DE0FEEF6E600302271874FFC2
:1027D3002DF58274063CF583E0FE74002DF58274BA
:1027E300073CF583E07C002400FFEC3EFE9006707E
:1027F300E06F7001EE6003022718900716E0FF9068
:102803000672E0FCA3E0FDC39FEC9400503C74F817
:102813002DF58274063CF583E0FF900674E0FCA37B
:10282300E02421F58274063CF583EFF0900675E011
:1028330004F07006900674E004F0900673E004F070
:102843007006900672E004F080B090062AE09006CD
:1028530071F07BFF7A6679ED12544B900670E0FDC0
:102863007F21122E1B900629E0FD7F21122E1BE4EF
:10287300900672F0A3F0900716E0FF900672E0FC5A
:10288300A3E0FDC39FEC9400502174212DF58274C5
:10289300063CF583E0FD7F26122E1B900673E004B1
:1028A300F07006900672E004F080CB7E007F147D0A
:1028B300007B017A0679F8120C5BE4900716F0FEB0
:1028C3007F14FD7B017A077917120C5BE4900711E3
:1028D300F0900671E0FF227F0122EE6003022AAC32
:1028E300EF120A58293000294101295202296303B2
:1028F30029740429850529960629A70729B80829D3
:10290300C90929DA0A29EB0B29F9102A0A112A1B0A
:10291300152A2C182A3C192A4C1A2A5C1B2A6C1CCF
:102923002A7C1F2A8C202A9C2100002AAC90065E58
:1029330074FFF0A37467F0A37403F0022ABA90063D
:102943005E74FFF0A37467F0A37408F0022ABA90D0
:10295300065E74FFF0A37467F0A37418F0022ABA3A
:1029630090065E74FFF0A37467F0A3742BF0022A41
:10297300BA90065E74FFF0A37467F0A3743EF0028E
:102983002ABA90065E74FFF0A37467F0A3745FF035
:10299300022ABA90065E74FFF0A37467F0A3747FF3
:1029A300F0022ABA90065E74FFF0A37467F0A37472
:1029B3009AF0022ABA90065E74FFF0A37467F0A33C
:1029C30074CFF0022ABA90065E74FFF0A37467F026
:1029D300A374DCF0022ABA90065E74FFF0A3746756
:1029E300F0A374EBF0022ABA90065E74FFF0A374AE
:1029F30067F0A374FAF090065E74FFF0A37468F0B6
:102A0300A3741FF0022ABA90065E74FFF0A37468E1
:102A1300F0A3742DF0022ABA90065E74FFF0A3743B
:102A230068F0A3743EF0022ABA90065E74FFF0A326
:102A33007468F0A37463F0807E90065E74FFF0A365
:102A43007468F0A37475F0806E90065E74FFF0A353
:102A53007468F0A37482F0805E90065E74FFF0A346
:102A63007468F0A37491F0804E90065E74FFF0A337
:102A73007468F0A374A6F0803E90065E74FFF0A322
:102A83007468F0A374BBF0802E90065E74FFF0A30D
:102A93007468F0A374C6F0801E90065E74FFF0A302
:102AA3007468F0A374D1F0800E90065E74FFF0A3F7
:102AB3007468F0A374E0F090065EE0FBA3E0FAA371
:102AC300E0F922AB07EBC3942074809480500AE4AE
:102AD3007F01FEFDFCA803800BE47F01FEFDFCEB00
:102AE30024E0F9F81209CE9006571209E1EBC394DA
:102AF30020748094805003022BBE75965190065724
:102B0300A3A3A3E0FFEF4297759652900657E0FC0C
:102B1300A3E0FDA3E0FEA3E0FF78081209BBEF42A8
:102B230097EBC3942474809480500E900657A3A30C
:102B3300A3E0540FFFEF42EA22EBC3942674809480
:102B430080501B900657E0FCA3E0FDA3E0FEA3E04A
:102B5300FF78041209BBEF5403FFEF42EB22EBFFB4
:102B6300C3942C748094805037EF642A6005EF641B
:102B73002B7012900657E0FCA3E0FDA3E0FEA3E058
:102B8300FF78048010900657E0FCA3E0FDA3E0FE6D
:102B9300A3E0FF78061209BBEF54CFFFEF42EC220C
:102BA300900657E0FCA3E0FDA3E0FEA3E0FF780C52
:102BB3001209BBEF540FFFEF42EE227596269006E3
:102BC30057A3A3A3E0FFEF4297759627900657E01C
:102BD300FCA3E0FDA3E0FEA3E0FF78081209BBEF2E
:102BE300540FFFEF4297759628900657E0FCA3E039
:102BF300FDA3E0FEA3E0FF78101209BBEF42977537
:102C03009629900657E0FCA3E0FDA3E0FEA3E0FFB6
:102C130078181209BBAB07EB4297900657E0FCA369
:102C2300E0FDA3E0FEA3E0FF78021209CEEF54FC1F
:102C3300FFEF42EB900657E0FCA3E0FDA3E0FEA309
:102C4300E0FF78021209BBEF5430FFEF42EC90062D
:102C530057E0FCA3E0FDA3E0FEA3E0FF7804120924
:102C6300BBEF54F0FFEF42EE900657E0FCA3E0FD0C
:102C7300A3E0FEA3E0FF780C1209BBEF54F0FFEFD3
:102C830042EF900657E0FCA3E0FDA3E0FEA3E0FFC4
:102C930078141209BBEF540FFFEF42F2EB42F72215
:102CA300EFB407004003022E1A902CB3F8282873C0
:102CB300022CC8022CEF022D15022D60022DAE024C
:102CC3002DD1022DF4EB7009ED42EA759617022D12
:102CD30069EB64017009ED42EA759617022E0DEB5C
:102CE30064026003022E1AEDF452EA22EB7008ED3F
:102CF30042EB759618806FEB64017009ED42EB753A
:102D03009618022E0DEB64026003022E1AEDF452A4
:102D1300EB22EB7008ED42EC7596198049EB6401E8
:102D23007009ED42EC759619022E0DEB64027015D5
:102D3300EDF452ECED54307003022E1A759625C44F
:102D4300540F022DFEEB64036003022E1AEDF452BE
:102D5300EC759625ED5430C4540F429722EB700A5C
:102D6300ED42EE75961BED022DFEEB64017009ED4D
:102D730042EE75961B022E0DEB64027015EDF452B4
:102D8300EEED54307003022E1A7596251313543F3B
:102D93008069EB64036003022E1AEDF452EE75961C
:102DA30025ED54301313543F429722EB7009ED4243
:102DB300EF75961CED8044EB64017008ED42EF75EE
:102DC300961C8046EB6402704EEDF452EF22EB70DA
:102DD30009ED42F275961DED8021EB64017008ED5B
:102DE30042F275961D8023EB6402702BEDF452F2D0
:102DF30022EB700BED42F775961EEDF4529722EB22
:102E03006401700AED42F775961EED429722EB645A
:102E1300027004EDF452F72290067FEFF0A3EDF079
:102E2300E4A3F0A3F0EDFF90068DE4F0A3EFF0121E
:102E330056197E007F0A7D007B017A067983120C86
:102E43005BE4900681F0900681E0C3940A74809459
:102E530080501290067FE0FDE4FF125FF890068138
:102E6300E004F080E1E4900681F090068DE0FEA39B
:102E7300E0FF7C007D0A1207C0EF4E606690068D6E
:102E8300E0FAA3E0FB7C007D0AFFAE021207C0AFAD
:102E930005900681E0FE04F074832EF582E4340687
:102EA300F583EFF07C007D0AAF03AE021207C090FA
:102EB300068DEEF0A3EFF0C3940AEE940050AB90AE
:102EC300068DA3E0FF900681E0FE2483F582E434BF
:102ED30006F583EFF074842EF582E43406F583E47B
:102EE300F08087900681E07005900680802D900623
:102EF30081E0D39400748094804029E0FF14F0743F
:102F0300832FF582E43406F583E02430FDE4FF12D9
:102F13005FF8900681E070D6900683E02430FDE4EC
:102F2300FF125FF8E4900681F0900681E0C3940AF3
:102F330074809480501290067FE0FDE4FF125FF8E6
:102F4300900681E004F080E17D0DE4FF125FF87DDF
:102F53000AE4FF025FF87D087F05125A0C7D0A7FA1
:102F630006124B14900656EEF0A3EFF07BFF7A6B3C
:102F7300797812544B900656E0FD7F23122E1B9056
:102F83000656A3E0FD7F23122E1B900656E0FCA3FA
:102F9300E0FDE41203327B677A407953783A1201F9
:102FA300AE9006581209E1900658E0FCA3E0FDA399
:102FB300E0FEA3E0FF12036B900656EEF0A3EFF0E2
:102FC3007BFF7A6B798312544B900656A3E0FD7F07
:102FD30023122E1B900658E0FCA3E0FDA3E0FEA302
:102FE300E0FFC004C005C006C007900656E0FCA37E
:102FF300E0FDE4120332A804A905AA06AB07D00733
:10300300D006D005D0041200B99006581209E190F9
:103013000658E0FCA3E0FDA3E0FEA3E0FFE4FBFA17
:10302300797A78441201AE9006581209E190065855
:10303300E0FCA3E0FDA3E0FEA3E0FF12036BAD07FA
:103043007F23122E1BE4FFFE7DC87C42900658E0CE
:10305300F8A3E0F9A3E0FAA3E0FB1202B4500C904A
:103063000656E07004A3E06401600FC3900657E0C6
:103073009401900656E0940050057F2F125BAE7DBD
:10308300087F050257C37B017A02795C90065BE4F3
:10309300F0A37405F0E4FF1231B990025CE0FF6421
:1030A300016005EF64027077E4900656F07B017AC5
:1030B30000790090065B04F0A374F4F07F011231F1
:1030C300B9900656E0FFFD7C00C39464748094803D
:1030D300501A75F005EFA42404F582E5F03400F5E9
:1030E30083E06008900656E004F080D5C3ED946455
:1030F300EC6480948050287B017A0179F490065B1C
:10310300E4F0A37464F07F021231B97B017A02798F
:103113006190065BE4F0A3748CF07F030231B97E07
:10312300017FF47DFF7B017A007900120C5B7B0148
:103133007A00790090066A7401F0A374F4F07F01B9
:103143001223F37E007F647DFF7B017A0179F41201
:103153000C5B7B017A0179F490066AE4F0A3746452
:10316300F07F021223F37E007F8C7DFF7B017A02C6
:103173007961120C5B7B017A02796190066AE4F053
:10318300A3748CF07F031223F390025C74FFF0A30B
:103193007401F0E4A3F0A3F0A3F07B017A02795C5D
:1031A30090066A1223EC90079AE07004A3E064018E
:1031B30070031266A222900658EBF0A3EAF0A3E98B
:1031C300F0EF146065147003023286147003023248
:1031D300B0240360030232DBE4FF126666E4900668
:1031E3005DF0A3F090065BE0FEA3E0FFA3E0FCA389
:1031F300E0FDC39FEC9E40030232DBE4FF12613526
:10320300900658E0FBA3E0FAA3E0F990065DE0FC2A
:10321300A3E0F5828C83EF12078C90065EE004F046
:1032230070C290065DE004F080BAE4FF126666E4C3
:1032330090065DF0A3F090065BE0FEA3E0FFA3E041
:10324300FCA3E0FDC39FEC9E40030232DBED241898
:10325300FDE43CFCE4FF126135900658E0FBA3E07B
:10326300FAA3E0F990065DE0FCA3E0F5828C83EF1E
:1032730012078C90065EE004F070BB90065DE004DC
:10328300F080B37F01126666900658E0FBA3E0FA74
:10329300A3E0F9E4900663F0A3F090065BE0FFA3DC
:1032A300E0900665CFF0A3EFF0E4FD80287F0112E4
:1032B3006666900658E0FBA3E0FAA3E0F9E4900603
:1032C30063F0A3F090065BE0FFA3E0900665CFF008
:1032D300A3EFF07D0112472D22900659EFF0E4A3EE
:1032E300F0A3F012667890065CEFF06401600DEFD6
:1032F30064326008EF643360030233EA1266CC7B06
:10330300017A06795B125B0090065AEFF0706C90BD
:10331300065CE0640170057F0402577D90065CE063
:10332300643270057F190233E790065CE064336012
:10333300030233EA9006B6E0FF12549C90065AEF5C
:10334300F070349006B6E07002804D12615590061D
:103353005AEFF0701BA3E0FF124C7090065AEFF087
:1033630070047F0580027F69125BAE1265CC805CBE
:103373007F1C125BAE80557F81806990065CE064A0
:103383003270539006B6E0FF12549C90065AEFF049
:1033930070409006B6E0700C7F18125BAE9006B6D4
:1033A3007401F02212615590065AEFF07019FF1262
:1033B30063CD90065AEFF070047F0580027F691297
:1033C3005BAE1265C280057F1C125BAEE49006B64D
:1033D300F0227F81800E90065CE0640170047F9987
:1033E30080027F87125BAE2290065CEBF0A3EAF0CB
:1033F300A3E9F0A3EDF090066174FFF0900660E09E
:10340300702AA3F0900661E0FFC3946474809480F3
:10341300501A75F005EFA42404F582E5F03400F5A5
:1034230083E06008900661E004F080D8900661E0D4
:10343300C3946474809480402BE4F0900661E0FFB1
:10344300C3946474809480501B75F005EFA4240426
:10345300F582E5F03400F583E0F46008900661E05E
:1034630004F080D7900661E0C39464748094805024
:10347300757E007F047DFF7B017A067962120C5B07
:1034830090065FE0FD90066B7401F0A37406F0A351
:103493007462F090065C124930900661E075F005A5
:1034A300A42400F9740035F0A801FC7D017B017AA6
:1034B3000679627E007F0412070E900660E0FFA388
:1034C300E075F005A42404F582E5F03400F583EFFC
:1034D300F07B017A00790090066A7401F0A374F41A
:1034E300F07F010223F37F0122E4F990065BF0A34E
:1034F300F0FEEEC3940C74809480506074472EF5F4
:1035030082E43404F583E06050EE25E02478F5820C
:10351300E43404F583E0FCA3E0FDEE25E0242FF57D
:1035230082E43404F583E0FAA3E0C39DFDEA9CFC46
:10353300900659F0A3EDF0D390065CE09DEC648017
:10354300F890065BE0648098500F900659E0FDA365
:10355300E0A3CDF0A3EDF0A9060E809690046BE0F6
:1035630069606FE0FE25E02478F582E43404F58396
:10357300E0FCA3E0FDEE25E0242FF582E43404F51E
:1035830083E0FAA3E0C39DFEEA9C900659F0A3CE24
:10359300F0900659E0FEA3E0FFC390065CE09FFFB6
:1035A30090065BE09EFE900659F0A3EFF0E925E05C
:1035B3002432F582E4346BF583E493FC740193FDC8
:1035C300D3EF9DEC6480F8EE648098400590046B23
:1035D300E9F0AF012290065CEBF0A3EAF0A3E9F077
:1035E300A3EDF0E4900661F090066674FFF07E00B0
:1035F3007F04FD7B017A067962120C5B90065FE023
:10360300FD90066B7401F0A37406F0A37462F0904E
:10361300065C124930E4FFEFC394647480948050D5
:103623006475F005EFA42404F582E5F03400F58316
:10363300E0F4604EE4900661F0900661E0FD7C00EA
:10364300C39404748094805033E0FE75F005EFA4B6
:103653002400F582E5F03400F583E5822EF582E45B
:103663003583F583E0FB74622EF582E43406F5833B
:10367300E0B50308900661E004F080BDED64044CFE
:1036830060030F8092EFC394647480948050267516
:10369300F005EFA42404F582E5F03400F583E0FEA1
:1036A300900660E0FDEE6D6005ED64027007900624
:1036B30066EFF0800690066674FFF0900666E0FF02
:1036C300221266789006A6EFF0900555E06401702B
:1036D30030900559E004F07006900558E004F0902E
:1036E3000560E0FEA3E0FFC3900559E09F900558F5
:1036F300E09E400D9005557402F0E4900558F0A348
:10370300F01254EDEF70030237A39006A6E0FF64B6
:103713006170030237A3EF646070030237A390055F
:1037230055E06401607A126427EF640170729006B9
:10373300A7F0900557E004F07006900556E004F0FA
:103743009006A6E0FF64126028EF64136023EF6421
:1037530022601EEF64236019EF64326014EF643358
:10376300600FEF6441600AEF64426005EF644370E9
:1037730011D3900557E094C8900556E09400401784
:10378300800FD3900557E09410900556E09427409E
:10379300069006A77401F09006A7E0600A024F0E98
:1037A300E4900556F0A3F02290065EEFF0E4900655
:1037B30061F0A3F0A3F0A3F090061FE06F70030283
:1037C3003880125300EF640170030238807F0112C6
:1037D30000AE7F077E001261777F411266B49006C8
:1037E3005EE0606824FE60261460422402707B7FE2
:1037F30001125FBA7F01125FBAE4FF125FBA7F5012
:10380300125FBA90065FE4F0A3749BF0805C7F01C3
:10381300125FBA7F02125FBA7F02125FBAE4FF122D
:103823005FBA90065FE4F0A3744EF0803D7F01120F
:103833005FBA7F04125FBA7F04125FBAE4FF125FBC
:10384300BA90065FE4F0A37452F0801E7F04125F07
:10385300BAE4FF125FBAE4FF125FBA7FC8125FBA1D
:1038630090065F7401F0A37415F090065FE0FEA369
:10387300E0FF12587490065EE090061FF022E49079
:10388300065AF0C20A12001EE4900659F090065937
:10389300E0C3940C74809480400302393A300C03E3
:1038A30043AD1020090575910780F8C209AFACEF4D
:1038B300FEADABEDFF900659E0FD25E02478F582DF
:1038C300E43404F583EEF0A3EFF0EDC3940B7480BE
:1038D3009480502DED25E02419F582E43404F5831A
:1038E300E0FEA3E0F5CA53CC7FEE5401C313E41307
:1038F30042CC53CCC0ED906ABC93543F42CC75C9C3
:1039030001900659E0FF122091900659E0FF124002
:103913004B900659E0FF124EA3300A0F90046BE060
:10392300F47008900659E090046BF0200B12900697
:1039330059E004F0023890200A0690046B74FFF0FB
:1039430022C20A20006D906AB5E493FD700D906B5E
:10395300A693C313FF74019313801575F002EDA4AE
:1039630024A4F582E5F0346BF583E493FF740193AB
:10397300900657CFF0A3EFF0E4900656F09006566A
:10398300E0C3940C748094805071E0FF2447F58267
:10399300E43404F583E4F0C201900657E0FDA3E0AC
:1039A30090065ACDF0A3EDF01219A5900656E00447
:1039B300F080CA906AB8E493FD700D906BA693C330
:1039C30013FF74019313801575F002EDA424A4F57D
:1039D30082E5F0346BF583E493FF7401939006570B
:1039E300CFF0A3EFF0D201900657E0FFA3E09006DB
:1039F3005ACFF0A3EFF0E4FF1219A590046B74FF04
:103A0300F02290067CEBF0A3EAF0A3E9F0E4900641
:103A130083F07F2EFE1263B953FBFDE4F5FAF5FE46
:103A23007596585397EF53FBEF43FC40FF90068284
:103A3300E0FEEFC39E5064E4A3F074FFFDFCED1DB4
:103A4300AA0470011C4A6029E5FB30E4F1E5FB544C
:103A53008070EB90067CE0FBA3E0FAA3E0F98F8291
:103A6300758300E5FA12078C53FBEF90068374010C
:103A7300F053FB7F53FBDFE5FE601D90067CE0FB0C
:103A8300A3E0FAA3E0F98F82758300E5FA12078CAD
:103A930090068374ACF080030F809253FCBF43FB0A
:103AA30002900683E064AC700F90067FE0FBA3E016
:103AB300FAA3E0F9EF12077A900683E0FF2290075A
:103AC30072E064017059A3E0700D7D047F05125A02
:103AD3000C7D01E4FF800C900773E0640270097DA4
:103AE300047F051257C3800F900773E0C3940474D7
:103AF3008094804002B2F8900773E004F090078945
:103B0300E025E0FFE433FEEF2406FFE43EFE9007EA
:103B130073E0C39FEE6480F87480984059804190AD
:103B23000772E06403704FA3E070057D01FF801D01
:103B3300900773E0640170097D047F05125A0C80BD
:103B43000F900773E0640370077D047F051257C36A
:103B5300900773E004F0E0C39404748094804016EB
:103B6300E4F07D047F051257C37D01E4FF1257C3C0
:103B73009007727402F02253CCBFA200E433C43323
:103B830033544042CC300003023C32E490065BF0F5
:103B93009007C3E0FF90065BE0C39F4003023C3203
:103BA300E0FF75F002A42417F582E5F03404F583F1
:103BB300E0FCA3E0FDEF906ABB93FF125C869006E6
:103BC3005BE0FD75F002A42478F582E5F03404F59A
:103BD30083EEF0A3EFF075F002EDA42478F582E50F
:103BE300F03404F583E0FEA3E0FF75F002EDA424B6
:103BF3002FF582E5F03404F583EEF0A3EFF075F0D2
:103C030002EDA42478F582E5F03404F583E0FEA305
:103C1300E0FF75F002EDA42453F582E5F03404F5DA
:103C230083EEF0A3EFF090065BE004F0023B9322F7
:103C3300900663EBF0A3EAF0A3E9F090066AEFF0D5
:103C4300A37470F0E4FF900669E0FEEFC39E502377
:103C5300900663E0FBA3E0FAA3E0F98F827583008B
:103C630012074DFE746C2FF582E43406F583EEF0F3
:103C73000F80D37B017A06796A900669E02402906B
:103C8300067AF07F011259CE900669E0FC246CF5A8
:103C930082E43406F583EFF0EEFF746D2CF582E4D5
:103CA3003406F583EFF07B017A06796A900669E0C2
:103CB3002404FD123E4FEF640160037F012290064E
:103CC3007F7401F0A37406F0A3746AF0A37403F085
:103CD300900666E0FBA3E0FAA3E0F9123A05EF646D
:103CE300017F0060027F0122900662EFF0A3ECF0F7
:103CF300A3EDF0A3EAF0A3EBF0125300EF6401701D
:103D030004FE7FFF227F011200AE7F087E00126156
:103D1300777F1B1266B4900662E0FF125FBA9006CB
:103D230063E0FF125FBA900663A3E0FF125FBA90ED
:103D33000665E0FF125FBA900665A3E0FF125FBA63
:103D4300900663E0FCA3E0FDECFF7E00900662E0DA
:103D53002424FBE433CB2FFFEE3BFE7C00EF2DFD51
:103D6300EC3EFC90066512585F7D0712268E900686
:103D73006AE4F0A3EFF090062BE0FEA3E07C0024BE
:103D830000FFEC3EF9900667E0FBA3E0FAA3E0C96D
:103D93008FF01208A290066AE0FEA3E0FF229006CD
:103DA30059EBF0A3EAF0A3E9F0785C7C067D017B94
:103DB300FF7A6B79C07E007F0612070E7596585303
:103DC30097FB7B017A06795C125661EF60037F01F2
:103DD3002290065CE054C0C41313540375F003A48B
:103DE3002404640460037F01227B017A06795C7DED
:103DF300017F9312418AEF60037F0122900659E00D
:103E0300FBA3E0FAA3E0F8AC02AD037B017A0679E9
:103E13005C7E007F0512070E9006667401F0A374A2
:103E230006F0A3745CF0A37405F0900659E0FBA3BD
:103E3300E0FAA3E0F97F93123C33EF60037F0122A2
:103E430090065CE054247F017001FF2290067CEB16
:103E5300F0A3EAF0A3E9F0A3EDF07596585397FDAC
:103E6300E060046401702390067CE0FBA3E0FAA306
:103E7300E0F9120734F5F953FCC190067FE0FF2502
:103E8300E0543E42FC43FC01806B90067CE0FBA3C4
:103E9300E0FAA3E0F9120734F5F990000112074D97
:103EA300F5FA53FCC190067FE0FF25E0543E42FC47
:103EB30043FC011261E67D0290067FE0FEEDC39EA6
:103EC3005033ED90067C30E014E0FBA3E0FAA3E06E
:103ED300F98D8275830012074DF5FA8012E0FBA37A
:103EE300E0FAA3E0F98D8275830012074DF5F9120C
:103EF30061E60D80C31261E62290065DEBF0A3EA52
:103F0300F0A3E9F0E4FFFEEFC3940A7480948050B9
:103F130015EF75F00EA42461F582E43402F583E015
:103F2300F460030F80E1EFC3940A748094805070AF
:103F3300EF75F00EA42461F582E43402F583EFF00B
:103F430075F00EA42462F582E43402F583EDF0E407
:103F5300FEEEC3940C74809480503190065DE0FBB8
:103F6300A3E0FAA3E0F98E8275830012074DFDEFFB
:103F730075F00EA42463F582E43402F583E5822E02
:103F8300F582E43583F583EDF00E80C57B017A027B
:103F9300796190066AE4F0A3748CF07F030223F343
:103FA3007F0122900772E0640260030240477D02B2
:103FB300FF124835EF64016003024047900775E044
:103FC3007012900772F0900789F012661D900774C3
:103FD3007401F022E49006A5F090077204F09007B4
:103FE30075E0900789F0E49006A5F09006A5E0FF40
:103FF3003395E0FEC3EF9413EE64809480502B74EA
:10400300762FF58274073EF583E0FF601D9006A5C9
:10401300E0FD3395E0FC74752DF58274073CF58360
:10402300EFF09006A5E004F080C19006A5E0FF3311
:1040330095E0FE74752FF58274073EF583E4F090E6
:104043000773F022123AC12274E32FF582E434039A
:10405300F583E0704974902FF582E43404F583E42A
:10406300F0740B2FF582E43404F583E004F0740B51
:104073002FF582E43404F583E0FE906B77E493FD3F
:10408300EED39D4064740B2FF582E43404F583E48E
:10409300F074472FF582E43404F583E4F022740BC3
:1040A3002FF582E43404F583E4F074902FF582E471
:1040B3003404F583E004F074902FF582E43404F5BE
:1040C30083E0FE906B76E493FDEED39D401B7490EA
:1040D3002FF582E43404F583E4F074472FF582E48A
:1040E3003404F5837401F0D20A2275962B5397F8A2
:1040F300900662E05407429753CDF3A3E025E025F1
:10410300E0540C42CD53CDFDA3E025E0540242CD53
:1041130053CDFEA3E0540142CD53CBBFA3E0C43340
:1041230033544042CB53CCBFA3E0C4333354404257
:10413300CC75962B5397C7A3E03333335438429748
:1041430053CD8FA3E0C4547042CD53CBC0A3E054EE
:104153003F42CB53ADDFA3E0C433542042AD759649
:104163002D5397FDE4F5C953F1DF90066DE064012B
:10417300701153F6DF90066CE0C43354E042F6430B
:10418300E6202253E6DF22900662EFF0A3EDF0A3D0
:10419300EBF0A3EAF0A3E9F078677C067D017BFFEF
:1041A3007A6B79B67E007F0A12070E900662E09062
:1041B3000671F0A37420F07B017A0679717D0212F7
:1041C3003E4FEF640160037F012290067F7401F08C
:1041D300A37406F0A3747BF0A37405F07B017A0645
:1041E3007971123A05EF64017031FEEEC3940574E0
:1041F300809480502374712EF582E43406F583E0B5
:10420300FD900664E0FBA3E0FAA3E0F98E827583D8
:1042130000ED12078C0E80D37F0022EF7F00700227
:104223007F0122E4900659F0A3F01263E1EF6401E9
:104233007002FF22900770E075F003A4244FF5820B
:10424300E43407F583E012077A900770E0FF75F016
:1042530003A42450F582E43407F583E090000112AF
:10426300078CEF75F003A42451F582E43407F5833A
:10427300E090000212078C900770E0FF75F003A432
:10428300244FF582E43407F58374FFF0EF75F003F0
:10429300A42450F582E43407F58374FFF0EF75F03E
:1042A30003A42451F582E43407F58374FFF0126408
:1042B30016900770EFF07F0122906ABAE49390079B
:1042C300C3F0E4900656F09007C3E0FF900656E073
:1042D300FEC39F5077E0FF25E024DBF582E4346AD8
:1042E300F583E493FC740193FD75F002EFA42417A6
:1042F300F582E5F03404F583ECF0A3EDF0EE906A7B
:10430300BB93FF122AC6900656E0FF75F002A42461
:1043130078F582E5F03404F583E4F0A3F075F00258
:10432300EFA4242FF582E5F03404F583E4F0A3F041
:1043330075F002EFA42453F582E5F03404F583E429
:10434300F0A3F0900656E004F00242CA229006560B
:10435300EBF0A3EAF0A3E9F0E490065AF0A3F0121D
:104363005300EF640170037FFF227F011200AE123E
:1043730061737F1D1266B47F217E001258747D0520
:1043830012268E900659EFF090062BE0FEA3E07CF8
:10439300002400FFEC3EF9900656E0FBA3E0FAA3ED
:1043A300E0C98FF01208A2900659E0701F7BFF7AD4
:1043B3006679F712544B900656E0FBA3E0FAA3E0AC
:1043C300F9120877FD7F21122E1B800D900659E00C
:1043D300FF7E001228DD12544B900659E0FF229015
:1043E300065674FFF0A3F0126438EF700F9006B313
:1043F300E0700E04F07F0212608D8005E49006B336
:10440300F01266C6900656EFF0F46027E0FF1250F4
:10441300AA900657EFF0F4601AE0FF9006B4E06F3D
:104423006017900657E0FB9006B4F0E4FDFF1260BE
:104433009080069006B474FFF01266D2EF60057F99
:104443000412608D126449EF6008E4FBFD7F0312E0
:1044530060901264BBEF6008E4FBFD7F051260907F
:104463001246A4EF4E6008E4FBFD7F011260902228
:104473009006ABEFF0E4A3F0900772E070227D02A8
:10448300FF124835EF6401701790077204F090062D
:10449300ABE0900789F0E4900773F012647C805AD4
:1044A300E49006ADF0F09006ADE0FFFD3395E0FC3F
:1044B300C3ED9414EC64809480501AEF3395E0FEBE
:1044C30074752FF58274073EF583E060089006AD9E
:1044D300E004F080D1C3ED9414EC64809480501A0E
:1044E3009006ABE0FF9006ADE0FD3395E0FC7475FC
:1044F3002DF58274073CF583EFF07F01229006606F
:10450300EBF0A3EAF0A3E9F0A3EDF0E4FFEFC3942B
:104513000A748094805047E4FEEEC3940C74809434
:10452300805033900660E0FBA3E0FAA3E0F98E82AB
:1045330075830012074DFDEF75F00EA42463F58219
:10454300E43402F583E5822EF582E43583F583E0D6
:10455300B505030E80C3EE640C60030F80AFEFC399
:10456300940A74809480501FEF75F00EA42462F5B2
:1045730082E43402F583E0FE900663E0FDEE6D60B5
:1045830008ED64027001227FFF22787FE4F6D8FDF4
:104593007581210245D4024E37E493A3F8E493A333
:1045A3004003F68001F208DFF48029E493A3F85472
:1045B30007240CC8C333C4540F4420C8834004F4F5
:1045C30056800146F6DFE4800B0102040810204008
:1045D30080901D31E47E019360BCA3FF543F30E51E
:1045E30009541FFEE493A360010ECF54C025E0607D
:1045F300A840B8E493A3FAE493A3F8E493A3C8C54B
:1046030082C8CAC583CAF0A3C8C582C8CAC583CA3B
:10461300DFE9DEE780BE7B027D087F05122CA3E481
:10462300FB7D407F06122CA353C4FC53C4F343C445
:104633000453C4BF43C44053C4CF43C43053C47FA3
:1046430043C48053C38143C30E53C38143C30C7517
:10465300963253978343977C7596325397FC4397CF
:10466300037596425397FC43970275C1FF759642B3
:104673005397F34397047596425397EF43971075F7
:1046830096425397DF12611575965343970143F78B
:104693008075962A43974043F74075962D5397FEAE
:1046A300227D407F04124835EF70099007A4F0A3E0
:1046B30004F08007E49007A4F0A3F09007A4E0FEC1
:1046C300A3E0FF64014E701C9007A0E0FCA3E0FD93
:1046D300EF6D7002EE6C600C9007A0E4F0A304F0A1
:1046E3007E00FF229007A4E0FEA3E0FF4E701A9025
:1046F30007A0E0FCA3E0FDEF6D7002EE6C600AE43E
:104703009007A0F0A3F0FEFF229007A4E0FEA3E031
:10471300FF64014E70139007A0E0FCA3E0FDEFB52A
:104723000507EEB50403E4FEFF2290065FEBF0A35A
:10473300EAF0A3E9F0ED900664600CE02400FE903B
:104743000663E03446800AE02400FE900663E0340A
:1047530044900667F0A3CEF0C2AFE4FDFCD390060D
:1047630066E09D900665E09C403A75D288900667A6
:10477300E0FAA3E0FBEAF5CEEBF5CF90065FE0FBB2
:10478300A3E0FAA3E0F98D828C83E5D412078C9021
:104793000668E004F07006900667E004F00DBD00C3
:1047A300010C80B9E4F5D2F5CEF5CFD2AF22E4FE09
:1047B30090065EF0A3741CF090055BEFF07F107D14
:1047C300007B017A0479B5120C5BE490055AF0FE84
:1047D30090065FE0FFEEC39F5057EE75F005A424EB
:1047E300C5F582E43404F583E0FF90055BE0FDEF5B
:1047F3006D703B90065EE0FF25E024B5F582E4345E
:1048030004F583EEF075F005A424C6F582E43404C0
:10481300F583E0FDEF25E024B6F582E43404F58367
:10482300EDF090065EE004F090055AE004F00E808F
:104833009F22EFB407005075904842F8282873026E
:10484300485702486402487102487E02488B024876
:10485300980248A5E5F85D7F0060027F01AE0780FE
:104863004CE5805D7F0060027F01AE07803FE590ED
:104873005D7F0060027F01AE078032E5B05D7F009F
:1048830060027F01AE078025E5C05D7F0060027F87
:1048930001AE078018E5C85D7F0060027F01AE07A7
:1048A300800BE5D85D7F0060027F01AE07AF062273
:1048B300906AACE493900656F0906AADE493900648
:1048C30057F0906AAEE493900658F0906AAFE49381
:1048D300900659F0906AB0E49390065AF0906AB14A
:1048E300E49390065BF0906AB4E49390065CF090D6
:1048F3006AB5E49390065DF0906AB6E49390065E21
:10490300F0906AB2E49390065FF0A37401F0906AAA
:10491300B3E493900661F078627C067D017B017AB3
:104923000679567E007F0C12070E0240EDE0FBA3D2
:10493300E0FAA3E0F9900667EBF0A3EAF0A3E9F04D
:10494300A3EDF0E4FC90066EF090066AE0FDECC384
:104953009D5055900667E0FBA3E0FAA3E0F9AF048E
:104963008F8275830012074D540F90066EF00C90E2
:10497300066AE0FFECC39F500D8C8275830012071B
:104983004D540FFE80027E0F90066EE0C454F04E2D
:10499300FF90066BE0FBA3E475F001120861A9F038
:1049A300FAEF12077A0C80A122E490065EF09007DA
:1049B30072E0700B7D02FF124835EF6401606112F3
:1049C300661DE490065EF090065EE0FFFD3395E021
:1049D300FCC3ED9414EC648094805019EF3395E09C
:1049E300FE74752FF58274073EF583E4F090065E3E
:1049F300E004F080D2900773E0C394047480948041
:104A03004010E4900789F09007727403F0E4A3F078
:104A1300800BE4900789F09007727403F012647CB2
:104A230022900674ECF0A3EDF0A3EBF0AA077596C1
:104A33005BAD97C2AFE4F5CFF5CEEA25E025E042C2
:104A4300CE900674E0FEA3E0F5CFEE540342CEA36E
:104A5300E0F5D175D26900000000E4F5CFF5CEAFE3
:104A630005EDAF02900674700CE0FCA3E0FD12614B
:104A730035A907800AE0FCA3E0FD125F54A9079063
:104A83000676E0B50106A37401F08005E49006778D
:104A9300F0D2AF900677E0FF22E490065CF0F0904E
:104AA300065CE0FFC3946474809480504F75F005F6
:104AB300EFA42404F582E5F03400F583E06401708B
:104AC3003390065CE075F005A42404F582E5F03428
:104AD30000F58374FFF0900004C083C082FDEF757E
:104AE300F005A42400F9740035F0FA7B01D007D057
:104AF30006120C5B90065CE004F080A37B017A0055
:104B0300790090066A7401F0A374F4F07F01022324
:104B1300F390065CEFF0A3EDF0A31209ED000000A3
:104B230000E4900662F090065DE0FF900662E0C349
:104B33009F503A90065EE0F8A3E0F9A3E0FAA3E001
:104B4300FB90065CE0FF126069E4FCFDEB2FFFEADB
:104B53003EFEED39FDEC38FC90065E1209E17F055F
:104B63007E00126044900662E004F080B990065D16
:104B7300E0FBE4FAF9F8A3E0FCA3E0FDA3E0FEA365
:104B8300E0FF0208FDE4FF9007C3E0FEEFC39E5081
:104B93006374A82FF582E43404F583E4F074FB2FE7
:104BA300F582E43403F583E4F0749C2FF582E43456
:104BB30004F583E4F074EF2FF582E43403F583E422
:104BC300F0740B2FF582E43404F583E4F074902F32
:104BD300F582E43404F583E4F074E32FF582E434DE
:104BE30003F583E4F074472FF582E43404F583E49A
:104BF300F00F8093E4FF0256A990055BE064017017
:104C0300057F01026672E490065CF0A3741CF0E475
:104C130090065CF090065DE0FF90065CE0FEC39FAB
:104C23005037EE75F005A424C6F582E43404F58309
:104C3300E0FF90055BE0FEEFB5061690065CE075BD
:104C4300F005A424C5F582E43404F583E090055B04
:104C5300F090065CE004F080BB90055BE0FF124738
:104C6300B190055BE0FF125C1C125BAE22EFC394B4
:104C73000A748094805066EF75F00EA42461F58267
:104C8300E43402F583E06F7054EF75F00EA42461F1
:104C9300F582E43402F58374FFF0EF75F00EA4247B
:104CA30062F582E43402F58374FFF090000CC08354
:104CB300C082FDEF75F00EA42463F9740235F0FA97
:104CC3007B01D007D006120C5B7B017A02796190DD
:104CD300066AE4F0A3748CF07F030223F37F0122BE
:104CE3001265F3C200123944906AB5E49375F00279
:104CF300A424A6F582E5F0346BF583E493FE7401F6
:104D030093FFE4FCFD78031209CEE47B0AFAF9F879
:104D13001208FD900409EEF0A3EFF0906AB5E49356
:104D230075F002A424A6F582E5F0346BF583E493D1
:104D3300FE740193FF906B1FE493FD7C00120A84C1
:104D4300E47B0AFAF9F81208FD900407EEF0A3EFEA
:104D5300F022900671EBF0A3EAF0A3E9F0A3EDF0E3
:104D6300E4A3F01255397E007F147D007B017A079E
:104D73007917120C5B900674E0FF7E0078177C07AE
:104D83007D01900671E0FBA3E0FAA3E0F912070EA0
:104D9300900674E0900711F0E4900675F0900674A5
:104DA300E0FFA3E0FEC39F501974172EF582E4348D
:104DB30007F583E0FDE4FF125FF8900675E004F069
:104DC30080DB22E490065CF0F090065CE0FFC39485
:104DD3000A748094805049E0FE75F00EA42462F5B5
:104DE30082E43402F58374FFF0EE75F00EA42461BF
:104DF300F582E43402F58374FFF090000CC083C0A5
:104E030082FDEF75F00EA42463F9740235F0FA7B8A
:104E130001D007D006120C5B90065CE004F080A979
:104E23007B017A02796190066AE4F0A3748CF07FC7
:104E3300030223F3E4900655F07592551260B11204
:104E430064CA1266C01256F01266DE1266C91246B2
:104E5300197F071266BD7592AA7F011262B3122FE2
:104E6300591265FC1266AEEFF470051265428005B7
:104E73007F011266721262FA126678EF646170083B
:104E83001200A612588D8013126678EF64607008C2
:104E930075910712631080031243E2125A4A80D5B8
:104EA300C20BEF25E02478F582E43404F583E0FCBB
:104EB300A3E0FD900409E0FAA3E0FBC3ED9BEC9AA9
:104EC3005020EF25E02478F582E43404F583E0FEF6
:104ED300A3E0FF900407E0FCA3E0FDC3EF9DEE9C7D
:104EE30050289004B4E004F0E0C3940A74809480E2
:104EF3004018E4F0D20BF5C953F1DFC209C20A909E
:104F0300046B74FFF0C200123B7A2212667890069B
:104F1300A8EFF07E00C3941274809480400AD3EF0C
:104F23009436748094804040EF64534E700280380E
:104F33009006A8E0FF64426005EF644370101266B8
:104F4300AEEFF47007900556F0A3F022801A900696
:104F5300A8E0644170191266AEEFF4700B90055629
:104F6300F0A3F07F5D025BAE7F08125BAE80007F33
:104F7300601266722290065EEEF0A31252F3EF64A3
:104F8300017004FE7FFF227F011200AE7F077E00C7
:104F93001261777F0C1266B490065EE0FF125FBA6F
:104FA30090065EA3E0FF125FBA900660E0FF125F17
:104FB300BA900660A3E0FF125FBA90065EE0FCA31E
:104FC300E0FDEC2414FFE433FE7C00EF2D12585A6D
:104FD3007F907E0112604412268C7E002212648C24
:104FE3001265EA125DB1125DE1125F7E125B75120A
:104FF3005E117B027D087F05122CA37D087F0512BD
:1050030057C37B027D407F06122CA37D407F06128F
:1050130057C37B027D107F02122CA37D107F0212E7
:1050230057C37B027D087F02122CA37D087F0212E7
:1050330057C37B027D207F06122CA37D207F0602AF
:1050430057C3EFC3946474809480505875F005EF90
:10505300A42404F582E5F03400F583E06D70457512
:10506300F005EFA42404F582E5F03400F58374FF22
:10507300F0900004C083C082FDEF75F005A4240006
:10508300F9740035F0FA7B01D007D006120C5B7B74
:10509300017A00790090066A7401F0A374F4F07F3A
:1050A300010223F37F01227EFFEFB40C00505990DD
:1050B30050B9F82828730250DD0250E10250E5028E
:1050C30050E90250ED0250F10250F50250F902503E
:1050D300FD0251010251050251097E03802A7E021D
:1050E30080267E0180227E06801E7E09801A7E0B2A
:1050F30080167E0580127E04800E7E07800A7E0A5B
:105103008006E4FE80027E08AF062290065CEFF084
:10511300A3741CF090055AE0FDEFC39D40037F018B
:105123002290065CE025E024B5F582E43404F5839F
:10513300E0FE75F005A424C7F582E43404F583A3E7
:10514300E0FAA3E0F94A6005120A7E801F90065C2C
:10515300E025E024B6F582E43404F583E0FF12474A
:10516300B190055BE0FF125C1C125BAE7F002290E6
:10517300065EEBF0A3EAF0A3E9F0EFFB7A0070051B
:10518300A304F08028EB64014A700890066174025E
:10519300F0801AEB64024A70089006617403F08091
:1051A3000CEB64034A70069006617404F090066188
:1051B300E0FF90065EE0F9A3E0FAA3E0900667C97A
:1051C300F0A3EAF0A3E9F07B2C7A01E4FDFC023CB6
:1051D300EB9006611252F3EF64017004FE7FFF222D
:1051E3007F011200AE7F067E001261777F06126692
:1051F300B4900661E0FF125FBA900662E0FF125FAF
:10520300BA900662A3E0FF125FBA900662E0FCA3C5
:10521300E0FDECFF7E00900661E0240DFBE433CB60
:105223002FFFEE3BFE7C00EF2D12587012268C7E72
:105233000022E490065EF0A3F0FE7F14FD7B017A6A
:105243000679F8120C5BE4900716F0FE7F14FD7BE1
:10525300017A077917120C5BE4900711F07F2C7E1B
:1052630001126044125300EF64017004FE7FFF22B9
:105273007F011200AE1261737F011266B47F057E57
:10528300001258747F327E0012604412268C7E0016
:1052930022E490065EF0A3F012638FEF64017002C4
:1052A300FF2290065BE0FE900771E0FF75F003A418
:1052B300244FF582E43407F583EEF090065CE0FEBC
:1052C300EF75F003A42450F582E43407F583EEF080
:1052D30090065DE0FEEF75F003A42451F582E434FB
:1052E30007F583EEF0126416900771EFF07F012249
:1052F300EFF0A3ECF0A3EDF0E4A3F0A3F07F1E9096
:105303000653E0700DEFD394007480948040031F24
:1053130080ED7FEF125FBA7F01125FBA125FA77849
:1053230010125FA99005F4E0FCA3E0FDA3E0FEA347
:10533300E0FF78081209BB125FBA9005F4A3A3A398
:10534300E0FF125FBA7F0022E4FE900659F043FBB0
:105353000175962D5397FE7F141263B97F07126070
:105363006953FBFE75962D4397019007C1E07002C8
:10537300A3E070089007C1EEF0A3EFF0D3EF94F42D
:10538300EE940140189007C2E024E2FD9007C1E0CB
:1053930034FFFCC3EF9DEE9C50037F01227F00226C
:1053A3007596515397BF7596545397DF53ECFE533D
:1053B30090FE75962D5397F77F027E001260447519
:1053C30096305397E7439718E4F5FDF5FF43FD80C7
:1053D30053FDCF43FD2053FDF043FD0553FFF7433A
:1053E300FF0853FFF843FF047596585397FD43FB9B
:1053F3000243FB0122E4900656F0A3F0A3F0A3F0CE
:10540300120A1E00000000125300EF640170037FB4
:10541300FF227F011200AE1261737F531266B4E460
:10542300FF125FBAE4FF125FBAE4FF125FBAE4FF50
:10543300125FBA7F577E0012587412268C7E00903A
:105443000656EEF0A3EFF02290067FEBF0A3EAF00E
:10545300A3E9F012561990067FE0FBA3E0FAA3E05C
:10546300F9120734640D602390000112074D640A9A
:10547300601990067FA3E475F001120861A9F0FAA0
:10548300120734FDE4FF125FF880CB7D0DE4FF12B9
:105493005FF87D0AE4FF025FF8EFC394027480941F
:1054A3008040037F0122E4FEEEC3940C7480948059
:1054B300503574432EF582E43407F583E0FDEF7530
:1054C300F00CA4242BF582E43407F583E5822EF552
:1054D30082E43583F583EDF074432EF582E43407DB
:1054E300F583E4F00E80C17F0022E49006A8F01259
:1054F3006640EF702B9007BEE070359007C0E00464
:10550300F070069007BFE004F0C39007C0E0942852
:105513009007BFE0940040189007BE7401F080101C
:10552300E49007BFF0A3F09007BEF09006A804F044
:105533009006A8E0FF2243C03075963453979F43EB
:105543009740E4F5DEF5DF9006901209ED0000E1E7
:1055530000E4FF125CEE53DDF753DDFB53DDFD5337
:10556300DDFE43DD0153DDEF43DD2043DE0843DE93
:105573000453E1FB53F4FB43F40443E70443DD40EA
:105583002290065EECF0A3EDF0EFFB7A007005A32A
:1055930004F08028EB64014A70089006607402F0FE
:1055A300801AEB64024A70089006607403F0800C62
:1055B300EB64034A70069006607404F0900660E0A2
:1055C300FF90065EE0FCA3E0FD0251D4E4FFEFD3BD
:1055D300940A748094805036EF75F003A4244FF539
:1055E30082E43407F58374FFF0EF75F003A42450CD
:1055F300F582E43407F58374FFF0EF75F003A42418
:1056030051F582E43407F58374FFF00F80C0E49012
:105613000770F0A3F02243B03075963453979F433D
:105623009720E4F5DEF5DF9006901209ED0000E126
:1056330000E4FF125CEE53DDF753DDFB53DDFD5356
:10564300DDFE43DD0153DDEF43DD2043DE0843DEB2
:105653000453E1FB53F4FB43E70443DD402290068C
:1056630062EBF0A3EAF0A3E9F0A37452F07B017AB2
:10567300067965E4FD123E4FEF70037F0122900629
:105683007F7401F0A37406F0A37465F0A37402F0B1
:10569300900662E0FBA3E0FAA3E0F9123A05EF7F7C
:1056A3000070027F0122EF701F906B23939007B766
:1056B300F0906B24E4939007B9F0906B25E49390FA
:1056C30007B6F0906B26801E906B27E4939007B784
:1056D300F0906B28E4939007B9F0906B29E49390D2
:1056E30007B6F0906B2AE4939007B8F0221255396D
:1056F30012662B9007A8E4F0A37403F09007A87434
:10570300FFF5F012084B45F060227B017A07799C84
:105713001253F8EF645570E490079AF0A304F0FB7A
:105723007A0779A21243507F010237ABE490079ABC
:10573300F0A3F02253CCBFA202E433C4333354406A
:1057430042CCE490065EF090065DE0FFA3E0C39FC9
:105753005027759107200219906ABBE493FF9004C8
:1057630017E0FCA3E0FD125C8690065FEEF0A3EF6A
:10577300F090065EE004F080CE2290065EEFF01219
:1057830066A8EF6401702390065EE0FFF4FDE4F485
:105793004D7E0060027E0190055FE0FD5E6004E4E3
:1057A300F08007ED5F90055FF0227F521266721260
:1057B30066E47BFF7A6379A47F037E001260F422A0
:1057C300EFB40700503E9057D0F82828730257E5EE
:1057D3000257EA0257EF0257F40257F90257FE0243
:1057E3005803EDF452F822EDF4528022EDF4529076
:1057F30022EDF452B022EDF452C022EDF452C8224D
:10580300EDF452D822C0E0C0F0C083C082C0D0758E
:10581300D000C000C001C002C003C004C005C00660
:10582300C00753F17FE5AE30E3031236C4D007D08F
:1058330006D005D004D003D002D001D000D0D0D000
:1058430082D083D0F0D0E032FFE433FE7C00EF2D32
:10585300FFEC3EFEA3E02FFDEC3EA3FCE0FAA3E049
:10586300FBEA7E002DFFEE3CFE7C00EF2BFFEC3EBF
:10587300FE90066EEEF0A3EFF090066EE0FF125F6F
:10588300BA90066EA3E0FF025FBA7FFF9006AEE018
:1058930004F0E0D39404748094804005E4F012652E
:1058A30067EF60161266C3EF70101266E1EF600ACD
:1058B3007D407F04124835EF701112654F1250AAD4
:1058C3009006B4EFF012660D1256F022C0E0C083CA
:1058D300C082C0D075D000C00753E1FBE5DF30E3E1
:1058E30021900716E0C39414748094805014E0FF51
:1058F30004F074F82FF582E43406F583E5E2F053FF
:10590300DFF7D007D0D0D082D083D0E032AB07907E
:10591300067BECF0A3EDF06BFBC454F06BFBFC9047
:10592300067BE0FFEFFDEB75F008A4FFE5F06CFCF0
:10593300EF6DFDE4C4F854F0C868FEEBC4540F489F
:10594300FFEE6CFEEF6DFFEEF0A3EFF022E4FDFC43
:10595300EFFB7A00700790065E04F08028EB640189
:105963004A700890065E7402F0801AEB64024A7073
:105973000890065E7403F0800CEB64034A70069093
:10598300065E7404F090065EE0FF025AC4C0E0C0F5
:10599300F0C083C082C0D075D000C000C001C00277
:1059A300C003C004C005C006C0075388DF123FA66A
:1059B300D007D006D005D004D003D002D001D00048
:1059C300D0D0D082D083D0F0D0E032900677EBF005
:1059D300A3EAF0A3E9F0EFB401067463FCFD8004CD
:1059E300E4FEFF22900677E0FBA3E475F0011208C2
:1059F30061A9F0FA120734FAFF125910AC06AD0789
:105A030090067AE014F070DC22EFB4070050379070
:105A13005A19F8282873025A2E025A32025A3602A9
:105A23005A3A025A3E025A42025A46ED42F822EDCF
:105A3300428022ED429022ED42B022ED42C022ED9F
:105A430042C822ED42D8227B017A067956124226B9
:105A5300EF6030126615900656E014601314601858
:105A630024FD601C2405701B900658E0FF02113CC6
:105A7300900658E0FF021573900658E0FF0232DCEF
:105A830012655B22AE07125C51EF7032EE25E02403
:105A9300F4F582E43401F58374FFF0EE25E024F598
:105AA300F582E43401F58374FFF07B017A0179F424
:105AB30090066AE4F0A37464F07F020223F37F018B
:105AC3002290065FEF1252FAEF64017004FE7FFF2B
