:1000000002702802004E53E1DF323202858A53E14A
:0A001000F7323202006653F1F732B6
:10001B000286BDE4F5C9C20953F1DF9003A7E0FEE8
:10002B00A3E0F5CA53CC7FEE5401C313E41342CCC7
:10003B0053CCC0909709E493543F42CC75C901222D
:07004B0002006E5388FD3234
:100053000200161296F17F2A1287307F600296C142
:070063000296345388F732C6
:07006B0002001253F1FB3209
:100073000284457F89128730128B887F410296C1A3
:0700830002009653E1BF32B9
:07008B000285C853E17F323A
:0700930002000E53E1FD32F3
:07009B0002000A4387012265
:0600A3000200067F0022AE
:0600AB00020086027F0640
:1000B30002008E020258E86480F8E933E8336011E5
:1000C3000460F0ED33EC337009E8FCE9FDEAFEEB84
:1000D300FF220460DED3EB9FEA9EE99DE8C2E78C32
:1000E300F0C2F795F0400CE8CCF8E9CDF9EACEFA86
:1000F300EBCFFB12022385D0F05804700320D5B355
:10010300E80470075002B2D502026292D5EC046093
:10011300F7E4CCC0E0C398F8603B94186008400D46
:10012300D0E0FB02023AE4FBFAC9FC8028E830E4A1
:1001330006E4C9FBE4CAFCE830E305E4C9CACBFC26
:10014300E854076010F8C3E913F9EA13FAEB13FB59
:10015300EC13FCD8F130F52FC3E49CFCEF9BFFEECE
:100163009AFEED99FDD0E0FBEF4E4D4C701222DB71
:100173000302025FEC2CFCEF33FFEE33FEED33FDA5
:10018300ED30E7EB02023AEF2BFFEE3AFEED39FDDD
:10019300D0E0FB50130BBB0003020262ED13FDEE34
:1001A30013FEEF13FFEC13FC02023A75F020800EEE
:1001B30075F010800575F0087D007E007F00339296
:1001C300D530D503120AEAEC334010EF33FFEE3398
:1001D300FEED33FDEC33FCD5F0ED22E5F0247EA2F9
:1001E300D513CC92E7CDCEFF22EDD2E7CD33EC335E
:1001F30092D524814006E4FFFEFDFC22FCE4CFCE31
:10020300CDCC24E0501174FF80EDC3CC13CCCD13BF
:10021300CDCE13CECF13CF0470F030D5DE020AEA71
:10022300E9D2E7C933E833F892D5EDD2E7CD33EC21
:1002330033FC5002B2D522EC30E7100FBF000C0E96
:10024300BE00080DBD00040BEB6014A2D5EB13FC3C
:10025300ED92E7FD2274FFFCFDFEFF22E480F8A28D
:10026300D574FF13FC7D80E480EFED33EC33601035
:1002730004700FED547F7005740292E0227404221F
:100283000422E422EC4D6011E8497017ED33EC339E
:1002930004600DE4FCFFFEFD22E933E8330470F84B
:1002A30002025812022358046009E4CC2481500648
:1002B30028500902026228400302025FC0E0EB4AB1
:1002C3007044B98006D0E0FB02024EEF4E701CBDB5
:1002D3008008EBFFEAFEE9FD80EBE98DF0A4FEE583
:1002E300F0020370E9CDF9EAFEEBFFEF89F0A4FC1D
:1002F300E5F0CE89F0A42EFFE435F0CD89F0A42DEE
:10030300FEE435F08067EF4E7005BD80D780C3EF04
:100313008BF0A4ACF0EE8BF0A42CFCE435F0F8EFFA
:100323008AF0A42CE5F038FCE433CB8DF0A42CFC4C
:10033300E5F03BF8EE8AF0A42CFCE5F038F8E43362
:10034300CF89F0A42CFCE5F038CF3400CE89F0A49B
:100353002FFFE5F03EFEE433C98DF0A42EFEE5F059
:1003630039CD8AF0A42FFFE5F03EFEE43DFD33D006
:10037300E0FB50070BBB000F020262EC2CFCEF33D7
:10038300FFEE33FEED33FD02023A74F8CC6480CC09
:10039300C86480C8F58204604FC3EB9FF5F0EA9E02
:1003A30042F0E99D42F0E89C45F0603C501DE58237
:1003B3005FFFE582D313CB5BCBF42B5582FB502835
:1003C3000ABA002409B9002008801DE5825BFBE519
:1003D30082D313CF5FCFF4C3132F5582FF50090E7F
:1003E300BE00050DBD00010CC3EB9FF5F0EA9E4274
:1003F300F0E99D42F0E89C45F06007CC4820E70116
:10040300B3EC22ED33EC33600A047003BD8004ECDB
:10041300B2E7FC22F920E73624F950037907E4F424
:100423002402FBE582158270021583DBF6E024FBD0
:10043300501BE96014E4F0E582158270021583E035
:1004430004F0B40A08E4F0D9EE7401F00A22C2D52C
:1004530022ED33EC3392D5FA602AB4FF33EDC2E7D1
:100463007BFF60067A047979E4227A04798220D5C5
:10047300047A04797D224E614E002B494E46002DAD
:10048300494E4600E47A08F0A3DAFC7B00740722A5
:10049300C083C082ECC0E0EDC0E0EEC0E0EFC0E09E
:1004A300EA75F010A4CAABF075F04DA42BFBE4354C
:1004B300F0FCEA2410FAEB34C5FBEC34D9FCEDC2B2
:1004C300E7FF75F056A4F42411C5F0F434C58FF09A
:1004D300A42AE5F03BE43CF020E714120629D0E01F
:1004E300FFD0E0FED0E0FDD0E0FC12055C8014F408
:1004F30004120629D0E0FFD0E0FED0E0FDD0E0FCFE
:10050300120287D082D083E0FAEDD2E7CD33EC3309
:100513002482FBE4C3CF33CFCE33CECD33CD33DB15
:10052300F37B0775F00A846004F0A31B0AE5F0F07F
:10053300A38FF0740AA4FFACF08EF0740AA42CFE0F
:10054300ACF050010C8DF0740AA42CFDE435F0F0EE
:10055300A3DBDE740722020262EC5D046005E85946
:10056300047003020258120223580460F6EC486038
:10057300F2EC7004FDFEFF22C860DB2481C8500941
:10058300C3986002500602025F9850CAF582E929B7
:100593004B4A7005AB8202024E75F0007C1A7880DC
:1005A300C3EF9BEE9AED99400DC3EF9BFFEE9AFECE
:1005B300ED99FDE842F0DC23ACF0D0E0FFD0E0FEA3
:1005C300D0E0FDAB8220E7101BEB60BAEC2CFCEF14
:1005D30033FFEE33FEED33FD02023AE803F830E772
:1005E30005C0F075F000EF2FFFEE33FEED33FD4055
:1005F300B830E7C280AA3F8000004120000042C813
:100603000000447A0000461C400047C35000497470
:1006130024004B1896804CBEBC205A0E1BCA67534D
:10062300C21C749DC5AEFB60065407601C232312D5
:100633000657EB543860091206431206521202871A
:10064300ECF8EDF9EEFAEFCB22EB12065280F154FF
:100653003803241C9005F9FE93FC0EEE93FD0EEE79
:10066300930ECE93FF22C0E0EFFBEEFAEDF9ECF828
:10067300120287D0E0F5F0EFFBEEFAEDF9ECF81299
:100683000B7FA3A3A3A3E8C0E0E9C0E0EAC0E0EBCB
:10069300C0E0C0F0120287120B9BA3A3A3A3120016
:1006A300BDD0F0D0E0FBD0E0FAD0E0F9D0E0F8D54F
:1006B300F0D422E709F608DFFA8046E709F208DFFB
:1006C300FA803E88828C83E709F0A3DFFA8032E365
:1006D30009F608DFFA8078E309F208DFFA80708808
:1006E300828C83E309F0A3DFFA806489828A83E042
:1006F300A3F608DFFA805889828A83E0A3F208DF31
:10070300FA804C80D280FA80C680D4806980F280DF
:1007130033801080A680EA809A80A880DA80E28005
:10072300CA803389828A83ECFAE493A3C8C582C85A
:10073300CCC583CCF0A3C8C582C8CCC583CCDFE9C4
:10074300DEE7800D89828A83E493A3F608DFF9EC60
:10075300FAA9F0EDFB2289828A83ECFAE0A3C8C5EB
:1007630082C8CCC583CCF0A3C8C582C8CCC583CC12
:10077300DFEADEE880DB89828A83E493A3F208DF81
:10078300F980CC88F0EF60010E4E60C388F0ED2451
:1007930002B4040050B9F582EB2402B4040050AF54
:1007A300232345822390070673BB010689828A832C
:1007B300E0225002E722BBFE02E32289828A83E41D
:1007C3009322BB010CE58229F582E5833AF583E0A8
:1007D300225006E92582F8E622BBFE06E92582F8C7
:1007E300E222E58229F582E5833AF583E49322BB8D
:1007F300010689828A83F0225002F722BBFE01F3AD
:1008030022F8BB010DE58229F582E5833AF583E8F9
:10081300F0225006E92582C8F622BBFE05E92582AF
:10082300C8F222EF8DF0A4A8F0CF8CF0A428CE8DCF
:10083300F0A42EFE22BC000BBE0029EF8DF084FF36
:10084300ADF022E4CCF875F008EF2FFFEE33FEECA9
:1008530033FCEE9DEC984005FCEE9DFE0FD5F0E9D0
:10086300E4CEFD22EDF8F5F0EE8420D21CFEADF0CF
:1008730075F008EF2FFFED33FD4007985006D5F0D4
:10088300F222C398FD0FD5F0EA22C2D5EC30E70976
:10089300B2D5E4C39DFDE49CFCEE30E715B2D5E48C
:1008A300C39FFFE49EFE120838C3E49DFDE49CFC55
:1008B300800312083830D507C3E49FFFE49EFE226D
:1008C300C5F0F8A3E028F0C5F0F8E58215827002C0
:1008D3001583E038F022A3F8E0C5F025F0F0E582B7
:1008E300158270021583E0C838F0E822BB0110E5D9
:1008F3008229F582E5833AF583E0F5F0A3E02250FF
:1009030009E92582F886F008E622BBFE0AE925827A
:10091300F8E2F5F008E222E5832AF583E993F5F09E
:10092300A3E99322BB010DC58229C582C5833AC5BC
:10093300830208C35011C58229F808E5F026F6188A
:10094300F5F0E58236F622BBFE11C58229F808E2EE
:1009530025F0F5F0F218E23582F222F8E58229F566
:1009630082E5832AF58374019325F0F5F0E4933847
:1009730022BB010A89828A83F0E5F0A3F0225006A4
:10098300F709A7F01922BBFE06F3E5F009F31922D4
:10099300F8BB0111E58229F582E5833AF583E8F096
:1009A300E5F0A3F0225009E92582C8F608A6F02253
:1009B300BBFE09E92582C8F2E5F008F222E88FF0D0
:1009C300A4CC8BF0A42CFCE98EF0A42CFC8AF0EDD3
:1009D300A42CFCEA8EF0A4CDA8F08BF0A42DCC3887
:1009E30025F0FDE98FF0A42CCD35F0FCEB8EF0A4BF
:1009F300FEA9F0EB8FF0A4CFC5F02ECD39FEE43C79
:100A0300FCEAA42DCE35F0FDE43CFC2275F008751C
:100A13008200EF2FFFEE33FECD33CDCC33CCC58236
:100A230033C5829BED9AEC99E58298400CF582EEF2
:100A33009BFEED9AFDEC99FC0FD5F0D6E4CEFBE4DA
:100A4300CDFAE4CCF9A88222B800C1B90059BA00A2
:100A53002DEC8BF084CFCECDFCE5F0CBF97818EFFD
:100A63002FFFEE33FEED33FDEC33FCEB33FB10D7FE
:100A730003994004EB99FB0FD8E5E4F9FA227818BF
:100A8300EF2FFFEE33FEED33FDEC33FCC933C9101A
:100A9300D7059BE99A4007EC9BFCE99AF90FD8E04C
:100AA300E4C9FAE4CCFB2275F010EF2FFFEE33FE1E
:100AB300ED33FDCC33CCC833C810D7079BEC9AE891
:100AC30099400AED9BFDEC9AFCE899F80FD5F0DA12
:100AD300E4CDFBE4CCFAE4C8F922CFF4CFCEF4CED4
:100AE300CDF4CDCCF4CC22C3E49FFFE49EFEE49D81
:100AF300FDE49CFC22EB9FF5F0EA9E42F0E99D4267
:100B0300F0EC6480C864809845F022EB9FF5F0EA2E
:100B13009E42F0E99D42F0E89C45F022E8600FEC2C
:100B2300C313FCED13FDEE13FEEF13FFD8F122E820
:100B3300600FEFC333FFEE33FEED33FDEC33FCD830
:100B4300F122BB010789828A83020F725005E9F8FB
:100B5300020F66BBFE05E9F8020F7E89828A8302D3
:100B63000B7FBB010789828A83020BAB5005E9F82F
:100B7300020F8ABBFE05E9F8020F9622E493FC7488
:100B83000193FD740293FE740393FF22E0F8A3E044
:100B9300F9A3E0FAA3E0FB22E493F8740193F97458
:100BA3000293FA740393FB22ECF0A3EDF0A3EEF0AF
:100BB300A3EFF022A8828583F0D083D082120BCEDC
:100BC300120BCE120BCE120BCEE473E493A3C583A8
:100BD300C5F0C583C8C582C8F0A3C583C5F0C58366
:100BE300C8C582C822BB010789828A83020BB7501A
:100BF30005E9F8020FA2BBFE05E9F8020FBB22A428
:100C03002582F582E5F03583F58322E0FBA3E0FA44
:100C1300A3E0F922F8E0FBA3A3E0F925F0F0E582D5
:100C2300158270021583E0FA38F022F8E0FBA3A3E3
:100C3300E025F0F9F0E582158270021583E038FAB9
:100C4300F022EBF0A3EAF0A3E9F022D083D082F8FC
:100C5300E4937012740193700DA3A393F87401933A
:100C6300F5828883E4737402936860EFA3A3A3807F
:100C7300DF8A838982E473EC8EF0A4CCC5F0CCCDFB
:100C8300F8EFA4CEC5F02DFDE43CFCE8A42EC8C5C6
:100C9300F03DFDE43CFCEFA4FFE5F028FEE43DFD60
:100CA300E43CFC22E709F60870FA8046E709F208FB
:100CB30070FA803E88828C83E709F0A370FA807E05
:100CC300E309F60870FA8076E309F20870FA806E99
:100CD30088828C83E309F0A370FA806289828A8315
:100CE300E0A3F60870FA805689828A83E0A3F208AB
:100CF30070FA804A80D280FA80C680D4806580F200
:100D03008031801080A680EA809A80A880DA80E211
:100D130080CA803189828A83ECFAE493A3C8C582AE
:100D2300C8CCC583CCF0A3C8C582C8CCC583CC705E
:100D3300E9800D89828A83E493A3F60870F9ECFABB
:100D4300A9F0EDFB2289828A83ECFAE0A3C8C5826D
:100D5300C8CCC583CCF0A3C8C582C8CCC583CC702E
:100D6300EA80DD89828A83E493A3F20870F980CE56
:100D730088F0ED2402B4040050C4F582EB2402B4DD
:100D8300040050BA2323458223900CF773E3F5F054
:100D930009E208B5F06BDFF58067E3F5F009E608D3
:100DA300B5F05EDFF5805A87F009E608B5F052DF4B
:100DB300F6804E87F009E208B5F046DFF6804288F8
:100DC300828C8387F009E0A3B5F036DFF6803288A2
:100DD300828C8387F009E493A3B5F025DFF58021A6
:100DE30088828C83E3F5F009E0A3B5F014DFF58086
:100DF3001088828C83E3F5F009E493A3B5F002DF56
:100E0300F4020EBF808780E9809080D4803E8015F5
:100E1300806E807E809D80B7808D80A3805180749A
:100E2300803C020ECB89828A83ECFAE493F5F0A32B
:100E3300C8C582C8CCC583CCE493A3C8C582C8CC3B
:100E4300C583CCB5F076DFE3DEE1807089828A83E7
:100E5300E493F5F0A3E208B5F062DFF4805E8982E3
:100E63008A83E0F5F0A3E608B5F051DFF5804D89FC
:100E7300828A83E0F5F0A3E208B5F040DFF5803C19
:100E830089828A83E493F5F0A3E608B5F02EDFF4B4
:100E9300802A8002805789828A83ECFAE493F5F0F2
:100EA300A3C8C582C8CCC583CCE0A3C8C582C8CCBF
:100EB300C583CCB5F006DFE4DEE280007FFFB5F04A
:100EC300020F2240027F012289828A83ECFAE0F535
:100ED300F0A3C8C582C8CCC583CCE0A3C8C582C86B
:100EE300CCC583CCB5F0D5DFE5DEE380CF89828A3C
:100EF30083ECFAE0F5F0A3C8C582C8CCC583CCE483
:100F030093A3C8C582C8CCC583CCB5F0AFDFE4DEFC
:100F1300E280A988F0EF60010E4E60ABED2402B4CD
:100F230004005098F582EB2402B40400508E23236E
:100F3300458223900E0773EF4E6012EF60010EEDB2
:100F4300BB010B89828A83F0A3DFFCDEFA2289F0DE
:100F53005007F709DFFCA9F022BBFEFCF309DFFC15
:100F6300A9F022E6FC08E6FD08E6FE08E6FF22E01B
:100F7300FCA3E0FDA3E0FEA3E0FF22E2FC08E2FD08
:100F830008E2FE08E2FF22ECF608EDF608EEF608AA
:100F9300EFF622ECF208EDF208EEF208EFF222D0BF
:100FA30083D082E493F608740193F608740293F6EF
:100FB30008740393F6740473D083D082E493F20825
:100FC300740193F208740293F208740393F27404A5
:100FD30073900284EFF01296C4A3EFF0120C4E113B
:100FE300E30111E30211E31211E31319231419238B
:100FF3001519231611E3171903321903331923346F
:1010030019233519233611E34111E34219235019EA
:101013009C5319CA541A2A551028601A3270103377
:101023008000001A3D7F011296C19002857401F081
:1010330090061CE07021900284E0640A700B129405
:10104300907F011296C1021999900284E0640B709B
:1010530006129490021353129490900284E0FF7E40
:1010630000C3748094804056D3EF940974809480B5
:10107300504C90061CE0C3942074809480503F90A1
:10108300061BE0FF701A900284E0FD90061CE0FC52
:1010930004F0741D2CF582E43406F583EDF0801E14
:1010A300EF64014E7018900284E0FF90061CE0FE8E
:1010B30004F0743D2EF582E43406F583EFF09002DC
:1010C30084E0640A705290061BE0FF7E00700FA359
:1010D300E0FD14F0741D2DF582E434068015EF64F1
:1010E300014E701490061CE0FF14F0743D2FF5823E
:1010F300E43406F58374FFF090061CE06003021AE3
:101103003D90061BE0700302135390061BE064013D
:101113006003021A3D02139B900284E0640B600B90
:1011230090061CE0640F6003021A3D90061CE0C3A6
:10113300940F7480948050167F65128730E4900674
:101143001CF090061BE06003021A3D0217007B01AE
:101153007A06791D125FDA90062AE0FF9005D7E040
:101163006F707690062BE0FF9005D8E06F706A9061
:101173000286F0125B48900286EFF0705C7B017A86
:1011830006791D1296AC9002D97401F0A37405F090
:10119300A374C3F0A37401F0A37405F0A374A8F0BF
:1011A3007B017A06791D7D0A122A04E4FF128FB5AA
:1011B300EF70107F051287301281CB7BFF7A97790E
:1011C300C6800E7F081287301281CB7BFF7A977916
:1011D300D81225EC128136804A7F0812873080436B
:1011E300129348EF6401700B1296CA7F2E12873058
:1011F30002969490061CE07065900284E0640A7085
:101203003AA3E064417003021A3D12949090028560
:10121300E0FD7C00640170057F6002191EED64022D
:101223004C70057F0102191E900755E06401700898
:1012330074FFF07F0102191E021999900284E06481
:101243000B701BA3E064016003021A3D129490E447
:10125300900616F07F831287307F0202191E1294C4
:1012630090900284E0FFC374809480407CD3EF9419
:101273000974809480507290061CE0C3942074809B
:1012830094805065900285E0FF64016005EF64027D
:101293007016900284E0FF90061CE0FE04F0741DBB
:1012A3002EF582E43406803D90061BE0FF7E00703D
:1012B3001A900284E0FD90061CE0FC04F0741D2CDF
:1012C300F582E43406F583EDF0801EEF64014E7081
:1012D30018900284E0FF90061CE0FE04F0743D2E9B
:1012E300F582E43406F583EFF0900284E0640A604B
:1012F300030213CA90061BE0FF7E00700FA3E0FDFC
:1013030014F0741D2DF582E434068015EF64014E4C
:10131300701490061CE0FF14F0743D2FF582E43442
:1013230006F58374FFF090061CE06003021A3D90FB
:101333000285E0640270057F83021A2F90061BE08A
:10134300703D900285E0FF64126005EF641770053D
:101353007F62021A2F900285E0641370057F740286
:101363001A2F900285E0644170057F89021A2F903D
:101373000285E064426003021A3D7F62021A2F90E5
:10138300061BE064016003021A3D900285E0FF64DE
:10139300126005EF641770057F68021A2F900285AB
:1013A300E0641370057F04021A2F900285E0644104
:1013B30070057F68021A2F900285E0644260030281
:1013C3001A3D7F68021A2F900284E0640B600B9031
:1013D300061CE064086003021A3D90061CE0FF7ED1
:1013E30000C39406748094804003021656900285CD
:1013F300E064016003021635EF6402701090061D6D
:10140300E0700AA3E070061295610216AE90061C06
:10141300E06401700CA3E064057006128A8502166D
:10142300AE90061CE06401700CA3E0640670061223
:1014330083BC0216AE90061CE0640260030215F43E
:10144300A3E0640160030215F4A3E06408600302EF
:1014530015F478887C027D017BFF7A98790AFE7FF8
:101463000F12078678977C027D017BFF7A987919A2
:101473007E007F32120786E4900286F0900286E0B7
:10148300C3940A74809480505AE4A3F0900287E0D6
:10149300C39405748094805042E0FF900286E0FE7E
:1014A30075F005A42497F582E43402F583E5822FD1
:1014B300F582E43583F583E0FDEE75F006A424DAC6
:1014C300F582E43405F583E5822FF582E43583F56F
:1014D30083EDF0900287E004F080B1900286E0048F
:1014E300F080997B017A027988125FDA900295E0A5
:1014F300FF9005D7E06F60030216AE900296E0FFFF
:101503009005D8E06F60030216AE7B017A027988FA
:101513001296AC9002D97401F0A37405F0A374C3BE
:10152300F0A37401F0A37405F0A374A8F07B017A0F
:101533000279887D0A122A04E4FF128FB5EF701036
:101543007F051287301281CB7BFF7A9779C6800E95
:101553007F081287301281CB7BFF7A9779D81225C7
:10156300EC1281369002D87401F0A37402F0A374D4
:10157300C9F07B017A0579CD1235461281CB7BFF09
:101583007A9779E89002D3E0FFA3E090031BCFF0B2
:10159300A3EFF09002D2E02401FE9002D1E03400E8
:1015A30090031DF0A3CEF09002CFE0FFA3E09003E1
:1015B3001FCFF0A3EFF09002CEE02408FE9002CDFF
:1015C300E03400900321F0A3CEF09002CBE0FFA320
:1015D300E0900323CFF0A3EFF09002C9E0FFA3E074
:1015E300900325CFF0A3EFF01225EC1281360216FB
:1015F300AE90061CE064027032A3E0702EA3E06498
:101603000170281296E8EF6401700E90061604F03C
:101613007F831287307F02800C7F01128D697F5F89
:101623001287307F011296C10216AE7F011284CA5F
:1016330080797F65128730E490061CF090061BE0EA
:10164300700302170090061BE064016003021A3D59
:10165300021751900285E064017057A3F07B017A71
:1016630006791D90061CE0FD1243C6900286EFF03A
:10167300F470077F011284CA8031900286E064FE11
:1016830070181296E8EF64017010FF128D697F6085
:101693001287307F011296C18011900286E06401A7
:1016A30070047F1180027F01125A52E490061CF0ED
:1016B300804B900285E0640270507B017A06791DAD
:1016C30090061CE0FDE49002D9F0125D23EFF47064
:1016D300077F8C1287308020900616E0640170101B
:1016E300FF128D697F601287307F011296C18008D7
:1016F3007F011296641290A6E490061CF0FE7F20F0
:101703007DFF7B017A06791D804F90061BE0704CAC
:10171300900285E0FF6412601BEF6417700280146F
:10172300900285E0641370047F048016900285E0C4
:10173300644170047F68800A900285E0644270050A
:101743007F6812873090061B7401F0E4A3F0FE7FDC
:10175300207DFF7B017A06793D020F3A90061BE05C
:1017630064016003021A3D781D7C067D017B017ACA
:1017730006793DFE7F08120F16EF3395E04F6003A5
:101783000218FB900285E0641370507B017A06799E
:101793001D90061CE0FD9002D97401F0125D2390A8
:1017A3000286EFF0F470057F710218FD900286E067
:1017B300FF7D01127CC3EF7017900286E09001F465
:1017C300F07F051287309001F4E0FF129431800519
:1017D3007F6E1287301295A10219007B017A067978
:1017E3001D90061CE0FD9002D97403F0125D23EFF7
:1017F300F460057F860218FD900285E0641270464E
:101803007B017A06791D90061CE0FD9002D97401D4
:10181300F0125E0FEF640170077F6E128730800D48
:101823007F051287309001F4E0FF12942190075551
:10183300E06401700B74FFF07F011296C10219007E
:10184300129597021900900285E0644170377B017D
:101853007A06791D90061CE0FDE49002D9F0125E31
:101863000FEF640170077F6E128730800D7F0512C2
:1018730087309001F4E0FF1294211296E5EF70395E
:1018830012958D8078900285E06442702E7B017AF8
:1018930006791D90061CE0FDE49002D9F0125E0F5C
:1018A300EF640170077F6E128730800D7F0512870A
:1018B300309001F4E0FF1294218038900285E064B7
:1018C30017703A7B017A06791D90061CE0FD9002A1
:1018D300D97402F0125E0FEF640170077F6E1287F6
:1018E3003080101296A67F051287309001F4E0FF36
:1018F3001294211290A680057FD3128730028B8821
:10190300900284E0640A6003021A3D1294909007E7
:1019130055E06401700874FFF07F010296C1807680
:10192300900284E0640B7060129490900285E0242E
:10193300EB604614604624E260281460421460425F
:1019430024E66041243C6003021A3D127632EF70B4
:101953000A7F0512873012967C80057F0812873034
:1019630080341279E1EF700A7F051287301296886E
:1019730080057F08128730801D028DC102951402F5
:101983008DDE029521028488900284E0640A60035C
:10199300021A3D1294900290A6900284E0640A70A9
:1019A3000612949002779C900284E07003021A3D21
:1019B30012966A900284E0D39F507F129490900213
:1019C30084E014FF027D8C129676900286EFF06419
:1019D30096700B129490900284E0FF027B26900293
:1019E30086E064997035900284E0640A701812945A
:1019F300901295481296E2EF600280287F587E028B
:101A0300128BAE02953B900284E0640B702C12940F
:101A1300901295487D017F990284011296E2EF604E
:101A2300191294900294CC1296CA7F4D02873012F9
:101A330096CA7F2F1287301294DB229002FBE0F9C3
:101A4300A3E0FAA3E0900326C9F0A3EAF0A3E9F028
:101A5300A37401F0A37403F0A37404F09002F8E0FC
:101A6300FBA3E0FAA3E0F9900323EBF0A3EAF0A3CE
:101A7300E9F09000061207C5FF3395E0FEEF24D08E
:101A8300FFEE34FFFE7C007D0A120826C006C00765
:101A93009000051207C5FF3395E0FEEF24D0FFEE5B
:101AA30034FFFE7D64120826D0E02FFFD0E03EFE17
:101AB3009000071207C5FD3395E0FCED24D0FDEC43
:101AC30034FFCD2FFFED3E90032CF0A3EFF0E49015
:101AD3000338F0A3F0900326E0FBA3E0FAA3E0F9B8
:101AE3001292BF900343EEF0A3EFF0E490034FF0A4
:101AF300A3F07A03795190032C12681CE490033805
:101B0300F0A3F0900338E0FEA3E0FFC39405EE6476
:101B13008094805063900323E0FBA3E0FAA3E0F9F1
:101B23008F828E831207C5FF3395E0FEEF24D0FF2B
:101B3300EE34FF90035BF0A3EFF090035BE0FEA3B2
:101B4300E02451F58274033EF583E0FD900339E010
:101B530025E0FF900338E033FE742E2FF5827403E3
:101B63003EF583E4F0A3EDF0900339E004F07093C5
:101B7300900338E004F0808B7E007F097D007B01B9
:101B83007A03793A120F3A900343E07004A3E064B6
:101B9300087016783A7C037D01900326E0FBA3E0EE
:101BA300FAA3E0F9120D738079D3900344E094080B
:101BB300900343E0648094804027900326E0F9A3D8
:101BC300E0FAA3E0900360C9F0A3EAF0A3E9F0A36D
:101BD300E4F0A37408F07B017A03793A127B8F80D7
:101BE30041783A7C037D01900326E0FBA3E0FAA34E
:101BF300E0F9120D7390036074FFF0A37498F0A3DF
:101C03007497F0900343E0FEA3E0FFC374089F9032
:101C13000364F0E49E900363F07B017A03793A1244
:101C2300624A90033BE0FB3395E0FA90033AE0FF0E
:101C33003395E0FEC3EF9BFFEE9AFE90033CE0F981
:101C4300FD3395E0FCEF2DFFEE3CFEA3E0FD339565
:101C5300E0FCC3EF9DFFEE9CFEA3E0FD3395E0FCAB
:101C6300EF2DFFEE3CFEA3E0FD3395E0FCC3EF9DBB
:101C7300FFEE9CFEA3E0FD3395E0FCEF2DFFEE3C71
:101C8300FEA3E0FD3395E0FCC3EF9DFFEE9C9003C4
:101C930045F0A3EFF0C374309BFFE49AFEE9FD33F4
:101CA30095E0FCEF2DFFEE3CFE90033DE0F9FB33A6
:101CB30095E0FAC3EF9BFFEE9AFEA3E0FB3395E0BA
:101CC300FAEF2BFFEE3AFEA3E0FB3395E0FAC3EF06
:101CD3009BFFEE9AFEA3E0FB3395E0FAEF2BFFEEBA
:101CE3003AFEA3E0FB3395E0FAC3EF9BFFEE9A9035
:101CF3000347F0A3EFF0E9FF3395E0FEC3ED9FFF49
:101D0300EC9EFE90033EE0FD3395E0FCEF2DFFEEED
:101D13003CFEA3E0FB3395E0FAC3EF9BFFEE9AFE94
:101D2300A3E0FB3395E0FAEF2BFFEE3AFEA3E0FBD3
:101D33003395E0FAC3EF9BFFEE9A900349F0A3EFCC
:101D4300F0E9FF3395E0FEC374309FCFE49ECF2DBF
:101D5300CF3CFE90033FE0FD3395E0FCC3EF9DFFD6
:101D6300EE9CFEA3E0F9FB3395E0FAEF2BFFEE3A8E
:101D7300FEA3E0FB3395E0FAC3EF9BFFEE9A9003DB
:101D83004BF0A3EFF090033EE0FF3395E0FEC3EF8B
:101D93009DFFEE9CFEE9FD3395E0FCEF2DFFEE3C4D
:101DA300FE900341E0FD3395E0FCC3EF9DFFEE9C05
:101DB30090034DF0A3EFF0E4900338F0A3F0900309
:101DC30038E0FAA3E0FB25E0FFEA33FE74452FF584
:101DD3008274033EF583E0FCA3E0FD742E2FF582AD
:101DE30074033EF583E0FEA3E0C39DFFEE9CCF2486
:101DF30064CF3400FE7C007D0A12088DEB25E0FFE2
:101E0300EA33FE742E2FF58274033EF583ECF0A3C0
:101E1300EDF0900339E004F07006900338E004F02D
:101E2300900338E07004A3E064057092E4900338F3
:101E3300F0A3F0900338E0FEA3E0FFC39405EE6443
:101E43008094804003021F007C007D0212088DED08
:101E53004C7027E025E0FF900338E033FE742E2F0B
:101E6300F58274033EF583A3E025E0FD0582D58268
:101E73000215831582E033FC8028900339E025E0C6
:101E8300FF900338E033FE742E2FF58274033EF582
:101E930083E0FEA3E0FF7C007D03120826AC06ADC1
:101EA30007EC1201B3C004C005C006C0079003616C
:101EB300120BB740000000D007D006D005D00412A3
:101EC3004EAAC004C005C006C00790034FE0FCA3A0
:101ED300E0FDEC1201B3D003D002D001D000120018
:101EE300BD1201EC90034FEEF0A3EFF0900339E045
:101EF30004F07006900338E004F0021E3690034F9E
:101F0300E0FEA3E0FF90032CE06E7003A3E06F609C
:101F130003021FD790032EA3E0FF900329E0FBA346
:101F2300E0FAA3E0F9EF1207F2900330A3E0FF9089
:101F33000329E0FBA3E0FAA3E0F9900001EF120804
:101F430004900332A3E0900002120804900334A328
:101F5300E0900003120804900336A3E090000412FB
:101F63000804900323E0FBA3E0FAA3E0F990000543
:101F73001207C524D0FF900329E0FBA3E0FAA3E0F6
:101F8300F9900005EF120804900323E0FBA3E0FAA5
:101F9300A3E0F99000061207C524D0FF900329E0BF
:101FA300FBA3E0FAA3E0F9900006EF120804900304
:101FB30023E0FBA3E0FAA3E0F99000071207C5248E
:101FC300D0FF900329E0FBA3E0FAA3E0F990000718
:101FD300EF020804E4900338F0A3F0900338E0FE26
:101FE300A3E0FFC39408EE648094805024900329F7
:101FF300E0FBA3E0FAA3E0F98F828E8374FF12085B
:1020030004900339E004F070D2900338E004F080C8
:10201300CA22900323EBF0A3EAF0A3E9F0900006B1
:102023001207C575F00AA4FDACF09000051207C5B0
:1020330075F064A42DFFE5F03CFE9000071207C580
:102043007C002FFFEC3E90032CF0A3EFF0900326CF
:10205300E0FBA3E0FAA3E0F91292BF900341EEF094
:10206300A3EFF0E4A3F0A3F090034FF0A3F07A03FF
:10207300795190032C12681CE4900343F0A3F09071
:102083000343E0FEA3E0FFC39405EE648094805015
:1020930059900323E0FBA3E0FAA3E0F98F828E8338
:1020A3001207C5FF90035BE4F0A3EFF090035BE03E
:1020B300FEA3E02451F58274033EF583E0FD900313
:1020C30044E025E0FF900343E033FE742E2FF582B6
:1020D30074033EF583E4F0A3EDF0900344E004F0D1
:1020E300709D900343E004F080957E007F097D009E
:1020F3007B017A037938120F3A900341E07004A30D
:10210300E06408701678387C037D01900326E0FBB9
:10211300A3E0FAA3E0F9120D738079D3900342E0B0
:102123009408900341E0648094804027900326E064
:10213300F9A3E0FAA3E0900360C9F0A3EAF0A3E9EE
:10214300F0A3E4F0A37408F07B017A037938127BDF
:102153008F804178387C037D01900326E0FBA3E068
:10216300FAA3E0F9120D7390036074FFF0A374985F
:10217300F0A37497F0900341E0FEA3E0FFC374085B
:102183009F900364F0E49E900363F07B017A0379EC
:102193003812624A900339E0FB3395E0FA90033832
:1021A300E0FF3395E0FEC3EF9BFFEE9AFE90033A08
:1021B300E0F9FD3395E0FCEF2DFFEE3CFEA3E0FDDF
:1021C3003395E0FCC3EF9DFFEE9CFEA3E0FD33954A
:1021D300E0FCEF2DFFEE3CFEA3E0FD3395E0FCC3F6
:1021E300EF9DFFEE9CFEA3E0FD3395E0FCEF2DFF9A
:1021F300EE3CFEA3E0FD3395E0FCC3EF9DFFEE9CB8
:10220300900345F0A3EFF0C374309BFFE49AFEE91B
:10221300FD3395E0FCEF2DFFEE3CFE90033BE0F930
:10222300FB3395E0FAC3EF9BFFEE9AFEA3E0FB338B
:1022330095E0FAEF2BFFEE3AFEA3E0FB3395E0FACD
:10224300C3EF9BFFEE9AFEA3E0FB3395E0FAEF2B7F
:10225300FFEE3AFEA3E0FB3395E0FAC3EF9BFFEEFC
:102263009A900347F0A3EFF0E9FF3395E0FEC3ED47
:102273009FFFEC9EFE90033CE0FD3395E0FCEF2DC9
:10228300FFEE3CFEA3E0FB3395E0FAC3EF9BFFEECA
:102293009AFEA3E0FB3395E0FAEF2BFFEE3AFEA3A1
:1022A300E0FB3395E0FAC3EF9BFFEE9A900349F00E
:1022B300A3EFF0E9FF3395E0FEC374309FCFE49EB4
:1022C300CF2DCF3CFE90033DE0FD3395E0FCC3EF03
:1022D3009DFFEE9CFEA3E0F9FB3395E0FAEF2BFFA5
:1022E300EE3AFEA3E0FB3395E0FAC3EF9BFFEE9AD1
:1022F30090034BF0A3EFF090033CE0FF3395E0FE37
:10230300C3EF9DFFEE9CFEE9FD3395E0FCEF2DFF4F
:10231300EE3CFE90033FE0FD3395E0FCC3EF9DFFF1
:10232300EE9C90034DF0A3EFF0E4900343F0A3F091
:10233300900343E0FAA3E0FB25E0FFEA33FE744594
:102343002FF58274033EF583E0FCA3E0FD742E2F8A
:10235300F58274033EF583E0FEA3E0C39DFFEE9C8C
:10236300CF2464CF3400FE7C007D0A12088DEB2558
:10237300E0FFEA33FE742E2FF58274033EF583ECFF
:10238300F0A3EDF0900344E004F07006900343E003
:1023930004F0900343E07004A3E064057092E490BA
:1023A3000343F0A3F0900343E0FEA3E0FFC39405CF
:1023B300EE6480948040030224727C007D02120844
:1023C3008DED4C7027E025E0FF900343E033FE746E
:1023D3002E2FF58274033EF583A3E025E0FD0582ED
:1023E300D5820215831582E033FC8028900344E0F4
:1023F30025E0FF900343E033FE742E2FF582740330
:102403003EF583E0FEA3E0FF7C007D03120826ACCB
:1024130006AD07EC1201B3C004C005C006C00790A7
:102423000361120BB740000000D007D006D005D0DF
:1024330004124EAAC004C005C006C00790034FE0B3
:10244300FCA3E0FDEC1201B3D003D002D001D00015
:102453001200BD1201EC90034FEEF0A3EFF09003D6
:1024630044E004F07006900343E004F00223A890D4
:10247300034FE0FEA3E0FF90032CE06E7003A3E0A4
:102483006F600302254390032EA3E0FF900329E02E
:10249300FBA3E0FAA3E0F9EF1207F2900330A3E005
:1024A300FF900329E0FBA3E0FAA3E0F9900001EF1A
:1024B300120804900332A3E0900002120804900370
:1024C30034A3E0900003120804900336A3E09000C5
:1024D30004120804900323E0FBA3E0FAA3E0F990BD
:1024E30000051207C5FF900329E0FBA3E0FAA3E070
:1024F300F9900005EF120804900323E0FBA3E0FA30
:10250300A3E0F99000061207C5FF900329E0FBA39F
:10251300E0FAA3E0F9900006EF120804900323E029
:10252300FBA3E0FAA3E0F99000071207C5FF9003AD
:1025330029E0FBA3E0FAA3E0F9900007EF02080407
:10254300E4900343F0A3F0900343E0FEA3E0FFC352
:102553009408EE648094805024900329E0FBA3E068
:10256300FAA3E0F98F828E8374FF12080490034468
:10257300E004F070D2900343E004F080CA22E51730
:10258300241BF582E43403F583E005172290031836
:1025930030070390031BE475F001120C170207AC1C
:1025A3002000E97F2ED2008018EF540F2490D434FA
:1025B30040D4FF30040BEF24BFB41A00500324614E
:1025C300FFE51860021518051BE51B7002051A309C
:1025D300070E900318E475F001120C17EF0207F2CF
:1025E30002935A7403D2078003E4C207F5179003DA
:1025F30018120C45E4F518F51AF51BE51860077F6A
:10260300201225C480F57519FFC201C200C202C29F
:1026130003C205C206C208122590FF700D300705DC
:102623007F001225D5AF1BAE1A22B4255FC2D5C2D7
:1026330004122590FF24D0B40A00501A75F00A78CA
:102643001830D50508B6FF0106C6A426F620D50422
:102653007002D20380D924CFB41A00EF5004C2E52C
:10266300D2040228C7D20180C6D20080C0D2028021
:10267300BCD2D580BAD20580B47F201225C42002F3
:10268300077401B5180040F1122581FF1225C40219
:1026930025FED208D2068095122581FB122581FAE8
:1026A300122581F94A4B700679C57A297BFF2002EE
:1026B3002EE518602A7E008E827583001207C5609E
:1026C300060EEE651970F0C2D5EBC0E0EAC0E0E992
:1026D300C0E0EE122928D0E0F9D0E0FAD0E0FB12F6
:1026E30007ACFF60AAEBC0E0EAC0E0E9C0E0122556
:1026F300C4D0E02401F9D0E03400FAD0E0FBE519BE
:102703000460DCD519D98087D20280A212290A601D
:10271300F7E519700104120417A919600DE5196092
:102723000914F5191229B2EF60F3EA30E702F40451
:10273300C3995079EAF425190430E701E404F51943
:10274300800D12290A60C1EA05192519120417EA36
:10275300900347F030E701E4251904D51904200557
:102763000114122928E4C0E01229B2900347E06063
:102773001320E70714F01225AC802204F0D0E014F4
:10278300C0E07F001225ACE51960071225A31519D7
:10279300800B3005031225A3D0E00225FED0E00410
:1027A30080C412290A609EE5190412041790034796
:1027B300EAF0E519200502600104240412292874B3
:1027C300FF04C0E01229B21225ACE519200502600E
:1027D300031225A3D0E0B519E87F451225B690036F
:1027E30047E07F2B30E7047F2DF404C0E01225C4BB
:1027F300D0E075F00A84C0F01225ADD0E01225AD0B
:102803000225FE791080027908C206C2088008D228
:10281300D5790A8004790AC2D5E519047002F5193D
:10282300E4FAFDFEFF122581FC7B0820011312252B
:1028330081FD7B1030000A122581FE122581FF7B6A
:1028430020EC3382D592D55013C3E43000069FFFAA
:10285300E49EFEE42001039DFDE49CFCE4CBF8C26E
:1028630001EC700CCFCECDCCE824F8F870F38017D0
:10287300C3EF33FFEE33FEED33FDEC33FCEB33FB01
:10288300994002FB0FD8E9EB300105F8D0E0C448CA
:10289300B201C0E00AEC4D4E4F78207B0070C2EAD3
:1028A300B5190040BCC0E012292AD0F0D0E02001C5
:1028B30004C4C0E0C4B201C0F01225ADD0F0D5F01D
:1028C300EB0225FE120C4E269B53280658266C4C11
:1028D300266842280A4F2812442812492681432891
:1028E300185527454627A545270F4729E550267044
:1028F3002D26742E26972B26782326952029CE2A3B
:102903002630480000268FE519B4FF037519061217
:102913002581FC122581FD122581FE122581FF9060
:102923000340020454790AA2D5200314300509B9DF
:1029330010020404B9080104A2D5200602500104C0
:102943002002689202B518005034C0E07F203003A3
:10295300197F30A20272067205500F122981C2023A
:10296300C206C205C2087F30800F300503E9C0E00C
:102973001225C4300503D0E0F9D0E0B518CC3005FA
:10298300177F30B9100C1225C47F583004077F78A5
:102993008003B908031225C43002057F2D0225C424
:1029A3007F202008F87F2B2006F322920280CF7F1E
:1029B30000B40700500B2440F582E43403F583E0B0
:1029C300FF22286E756C6C2900D20112258130011B
:1029D300F8C201781830D50108F60226302D50438D
:1029E30049581225812403B405004001E49029E0ED
:1029F300931225B5743A1225B5D20375180402282B
:102A0300069002D5EBF0A3EAF0A3E9F0A3EDF0E41E
:102A13009002FDF0A3F0A37405F0E4A3F090030B80
:102A2300120BB70000000090030F120BB700000059
:102A330000900313120BB700000000900317120B52
:102A4300B7000000007E007F0A7D007B017A0279D7
:102A5300DF120F3A7E007F0A7D007B017A0279E95B
:102A6300120F3AE49002FDF09002FDE0FFC3940AD6
:102A73007480948050479002DCE0FBA3E0FAA3E06B
:102A8300F99002FDE0FEF5827583001207C5FD741F
:102A9300DF2EF582E43402F583EDF08F8275830037
:102AA3001207C570109002FDE024DFF582E43402C2
:102AB300F583740AF09002FDE004F080AB90031EEE
:102AC3007401F0A37403F0A3740BF0A37401F0A3D7
:102AD3007403F0A3740FF09002D9E0FBA3E0FAA310
:102AE300E0F9125161E49002FEF09002FD7403F0EC
:102AF3009002FDE0FFC3940D7480948050319002E6
:102B0300D5E0FBA3E0FAA3E0F98F827583001207F7
:102B1300C5FF9002FEE024E9F582E43402F583EF79
:102B2300F09002FEE004F09002FDE004F080C1E4C6
:102B33009002FDF09002FDE0C3943B7480948040CA
:102B430003022D1690031E7401F0A37403F0A37403
:102B530013F0A37401F0A37403F0A37417F07B01C3
:102B63007A0279E912516190030FE0FCA3E0FDA31F
:102B7300E0FEA3E0FF900317E0F8A3E0F9A3E0FA77
:102B8300A3E0FBC3120B0E5044900313E0FCA3E03D
:102B9300FDA3E0FEA3E0C39401FFEE9400FEED94D9
:102BA30000FDEC9400FC900313120BAB900317E0B1
:102BB300FCA3E0FDA3E0FEA3E024A0FFEE3486FE29
:102BC300ED3401FDE43CFC900317120BAB90030BB7
:102BD300E0FCA3E0FDA3E0FEA3E0FF900313E0F815
:102BE300A3E0F9A3E0FAA3E0FBC3120B0E5021907C
:102BF3000313E0FCA3E0FDA3E0FEA3E024A0FFEEAB
:102C03003486FEED3401FDE43CFC900313120BAB60
:102C1300900313E0FCA3E0FDA3E0FEA3E0FF900319
:102C23000BE0F8A3E0F9A3E0FAA3E0FBC3EF9BFFFB
:102C3300EE9AFEED99FDEC98FC900313120BAB900A
:102C43000317E0FCA3E0FDA3E0FEA3E0FF90030F66
:102C5300E0F8A3E0F9A3E0FAA3E0FBC3EF9BFFEEE8
:102C63009AFEED99FDEC98FC900317120BAB7E00D6
:102C73007F0A7D007B017A0279F3120F3A900317E2
:102C8300E0FCA3E0FDA3E0FEA3E0FF90031F120B13
:102C9300AB9003237401F0A37402F0A374F3F0A3C5
:102CA300E4F0A37405F0A3E4F0A37405F090031318
:102CB300E0FCA3E0FDA3E0FEA3E0FF12561E7E00AE
:102CC3007F0A7D007B017A0279E9120F3AE49002D0
:102CD300FEF09002D8E0FF9002FEE0FEC39F502A70
:102CE30074F32EF582E43402F583E0FF74DF2EF5EE
:102CF30082E43402F583E024E8F582E43402F583C8
:102D0300EFF09002FEE004F080C89002FDE004F0D2
:102D1300022B377E007F0A7D007B017A0279F31252
:102D23000F3A9002EBE0900300F07E007F0A7D00F3
:102D33007B017A037901120F3A900300E075F006E4
:102D4300A424DAF9740535F0FA7B01C00390031E5D
:102D5300EBF0A37403F0A37401F0A3E4F0A37405F0
:102D6300F0D003126B6CE49002FDF09002D8E0FF08
:102D73009002FDE0FEC39F5066EE6402700D900367
:102D830000E0FF9002FDE024F38039E49002FEF0BE
:102D93009002FEE0FFC3940A74809480503974015A
:102DA3002FF582E43403F583E0FF9002FDE0FE2477
:102DB300E9F582E43402F583E0B507139002FEE0FF
:102DC300FF74F32EF582E43402F583EFF08008906C
:102DD30002FEE004F080B99002FDE004F0808C90E4
:102DE30002FD7402F09002D8E0FF9002FDE0FEC302
:102DF3009F502074F42EF582E43402F583E0FF74CF
:102E0300F32EF582E43402F583EFF09002FDE00443
:102E1300F080D2900300E0FF9002D8E0FE24F2F5A8
:102E230082E43402F583EFF0EEFF7E0078CD7C057B
:102E33007D017B017A0279F3020786900284EFF029
:102E4300A20192029002887403F0128331300103CD
:102E53000231C9900284E0FF25E02429F582E4349D
:102E630097F583E493FC740193FD75F002EFA424BA
:102E7300A7F582E5F03403F583ECF0A3EDF09002BF
:102E830084E0FE90970993FF900287F075F002EEBD
:102E9300A424A7F582E5F03403F583E0FCA3E0FD69
:102EA300128808900284E0FD75F002A42408F582DC
:102EB300E5F03404F583EEF0A3EFF075F002EDA432
:102EC3002408F582E5F03404F583E0FEA3E0FF90E7
:102ED3000285E0FCA3E0FDD3EF9DEE9C500302309E
:102EE300B4900284E0FF75F002A42408F582E5F0B3
:102EF3003404F583E0FCA3E0FD900285E0FAA3E04F
:102F0300FBD3ED9BEC9A5003022FD075910775F01C
:102F130002EFA424A7F582E5F03403F583E0FEA3D2
:102F2300E0C394FFEE94014003022FD0900284E0AB
:102F3300FF75F002A424A7F582E5F03403F583E4DA
:102F430075F0011208C375F002EFA424A7F582E51A
:102F5300F03403F583E0FCA3E0FD900287E0FF1269
:102F63008808900284E0FD75F002A42408F582E548
:102F7300F03404F583EEF0A3EFF075F002EDA42432
:102F830008F582E5F03404F583E0FEA3E0FF75F075
:102F930002EDA424BFF582E5F03403F583EEF0A33C
:102FA300EFF075F002EDA42408F582E5F03404F5A2
:102FB30083E0FEA3E0FF75F002EDA424E3F582E5D0
:102FC300F03403F583EEF0A3EFF0022EE4E5CDC475
:102FD30054072409F9E47F01FEFDFCA801120B321A
:102FE300EF24F6FBEE34FFFAED34FFF9EC34FFF88F
:102FF300900284E075F002A42408F582E5F034041D
:10300300F583E0FEA3E0FFE4FCFDD3120B0E4003C7
:103013000230B4900284E0FF75F002A424A7F58285
:10302300E5F03403F583E475F0011208C375F0028B
:10303300EFA424A7F582E5F03403F583E0FCA3E0D5
:10304300FD900287E0FF128808900284E0FD75F08E
:1030530002A42408F582E5F03404F583EEF0A3EF2F
:10306300F075F002EDA42408F582E5F03404F5834D
:10307300E0FEA3E0FF75F002EDA424BFF582E5F0C6
:103083003403F583EEF0A3EFF075F002EDA424080A
:10309300F582E5F03404F583E0FEA3E0FF75F0026A
:1030A300EDA424E3F582E5F03403F583EEF0A3EF1A
:1030B300F0900284E075F002A42408F582E5F03470
:1030C30004F583E0FEA3E0FF900285E0FCA3E0FDAE
:1030D300D3EF9DEE9C40030231C9900284E0FF755B
:1030E300F002A42408F582E5F03404F583E0FCA3A0
:1030F300E0FD900285E0FAA3E0FBC3ED9BEC9A4070
:10310300030231C975910775F002EFA424A7F58274
:10311300E5F03403F583E0FEA3E0D39400EE9400DE
:1031230050030231C9900284E0FF75F002A424A782
:10313300F582E5F03403F58374FFF5F01208C375E7
:10314300F002EFA424A7F582E5F03403F583E0FC55
:10315300A3E0FD900287E0FF128808900284E0FD5F
:1031630075F002A42408F582E5F03404F583EEF04B
:10317300A3EFF075F002EDA42408F582E5F0340422
:10318300F583E0FEA3E0FF75F002EDA424BFF58212
:10319300E5F03403F583EEF0A3EFF075F002EDA450
:1031A3002408F582E5F03404F583E0FEA3E0FF751F
:1031B300F002EDA424E3F582E5F03403F583EEF0A9
:1031C300A3EFF00230DD227B007A0079089002FC45
:1031D300E4F0A3740FF0E4FF9002F8EFF0A3EBF038
:1031E300A3EAF0A3E9F07F091296529002F8E014E3
:1031F30070030232DB24FE70030233A8147003024F
:103203003408240460030235409003017401F0A3E1
:103213007400F0A37400F0A37401F0A374F4F0E459
:10322300FF12964CE4FF128DA4E49002FEF0A3F08B
:103233009002FCE0FEA3E0FFC39002FFE09F900238
:10324300FEE09E5037E0FCA3E0FD9002F9E0FBA313
:10325300E0FAA3E0F98D828C831207C5FBE4FF1229
:103263007724900300EFF070037F01229002FFE0C8
:1032730004F070BC9002FEE004F080B4E49002FE1F
:10328300F0A3F0900304E0FEA3E0FFC39002FFE08D
:103293009F9002FEE09E4003023543E0FEA3E0FF61
:1032A3002418FDE43EFC900301E0FBA3E0FAA3E055
:1032B300F98F828E831207C5FBE4FF1277249003F4
:1032C30000EFF070037F01229002FFE004F070B37F
:1032D3009002FEE004F080AB900301E4F0A37400DD
:1032E300F0A37408F0A3E4F0A3740FF0E4FF1296C4
:1032F3004CE4FF128DA4E49002FEF0A3F0900304CB
:10330300E0FEA3E0FFC39002FFE09F9002FEE09E79
:103313005037E0FCA3E0FD900301E0FBA3E0FAA338
:10332300E0F98D828C831207C5FBE4FF12772490AA
:103333000300EFF070037F01229002FFE004F070BE
:10334300BC9002FEE004F080B4E49002FEF0A3F02F
:103353009002FCE0FEA3E0FFC39002FFE09F900217
:10336300FEE09E4003023543E0FEA3E0FF2418FD88
:10337300E43EFC9002F9E0FBA3E0FAA3E0F98F82BC
:103383008E831207C5FBE4FF127724900300EFF04E
:1033930070037F01229002FFE004F070B39002FEFD
:1033A300E004F080AB7F0112964C7F01128DA4E400
:1033B3009002FEF0A3F09002FCE0FEA3E0FFC390B6
:1033C30002FFE09F9002FEE09E4003023543E0FCD3
:1033D300A3E0FD9002F9E0FBA3E0FAA3E0F98D82FC
:1033E3008C831207C5FB7F01127724900300EFF053
:1033F30070037F01229002FFE004F070B99002FE97
:10340300E004F080B1900301E4F0A37400F0A3742E
:1034130008F0A3E4F0A3740FF0A37401F0A3740005
:10342300F0A37400F0A37401F0A374F4F0E4FF12AA
:10343300964CE4FF128DA4E49002FEF0A3F09003F7
:1034430004E0FEA3E0FFC39002FFE09F9002FEE0D2
:103453009E5037E0FCA3E0FD900301E0FBA3E0FAFC
:10346300A3E0F98D828C831207C5FBE4FF12772456
:10347300900300EFF070037F01229002FFE004F05D
:1034830070BC9002FEE004F080B4E49002FEF0A36E
:10349300F0900309E0FEA3E0FFC39002FFE09F90DA
:1034A30002FEE09E503DE0FEA3E0FF2418FDE43E53
:1034B300FC900306E0FBA3E0FAA3E0F98F828E837E
:1034C3001207C5FBE4FF127724900300EFF07003AB
:1034D3007F01229002FFE004F070B69002FEE00448
:1034E300F080AEE49002FEF0A3F09002FCE0FEA3B5
:1034F300E0FFC39002FFE09F9002FEE09E5041E098
:10350300FEA3E0FF2414FDEE3402FC9002F9E0FB7D
:10351300A3E0FAA3E0F98F828E831207C5FBE4FFD1
:10352300127724900300EFF070037F01229002FFD3
:10353300E004F070B59002FEE004F080AD7F01225C
:103543007F00229002D5EBF0A3EAF0A3E9F090020A
:10355300DB120BB700000000124D359002D8E0FBE0
:10356300A3E0FAA3E0F9EE8FF01209749002E67477
:103573000AF0A37401F0A37406F0A37469F0900237
:10358300D5E0FBA3E0FAA3E0F97D3C7C001245FF04
:103593007B017A067969124D359002D8E0FBA3E0EE
:1035A300FAA3E0F9900002EE8FF01209939002E67D
:1035B300740AF0A37401F0A37406F0A37469F07B9A
:1035C300017A06F97D3C7C001245FF7B017A06797E
:1035D300697D0A12617D9002DB120BABE47BF87A02
:1035E30088F9F89002DBE0FCA3E0FDA3E0FEA3E092
:1035F300FF120A4B7802120B32EF24B2FFEE3407AC
:10360300FE9002D8E0FBA3E0FAA3E0F990000AEEF3
:103613008FF01209939002DBE0FCA3E0FDA3E0FE30
:10362300A3E0FFE47BF87A88F9F8120A4BAC00AD0B
:1036330001AE02AF030236D09002DF7422F0A3740E
:1036430038F09002D8E0FBA3E0FAA3E0F990000A77
:103653001208EF5403700E9002E0E02418F0900279
:10366300DFE03400F09002DFE0FEA3E0FFEE3395ED
:10367300E0FDFC9002DBE0F8A3E0F9A3E0FAA3E0AD
:10368300FBC3120B0E404F9002D8E0FBA3E0FAA35A
:10369300E0F990000AE475F0011209279002DBE0DB
:1036A300FCA3E0FDA3E0FEA3E0FFC006C007A3E088
:1036B300FEA3E0FBAA06EA3395E0F9F8D007D006AB
:1036C300C3EF9BFFEE9AFEED99FDEC98FC9002DBB5
:1036D300120BAB02363BE47B18FAF9F89002DBE0FD
:1036E300FCA3E0FDA3E0FEA3E0FF120A4BAE02AF92
:1036F300039002D8E0FBA3E0FAA3E0F9900004EE04
:103703008FF01209939002DBE0FCA3E0FDA3E0FE3F
:10371300A3E0FFE47B18FAF9F8120A4B9002DB12DC
:103723000BAB9002DBE0FCA3E0FDA3E0FEA3E024EF
:1037330001FFE43EFEE43DFDE43CFC9002DB120BA2
:10374300AB9002D8E0FBA3E0FAA3E0F990000A12E1
:1037530008EF540370767F3CFEFDFC9002DBE0F83B
:10376300A3E0F9A3E0FAA3E0FBD3120B0E402490ED
:1037730002DBE0FCA3E0FDA3E0FEA3E024FFFFEEF9
:1037830034FFFEED34FFFDEC34FFFC9002DB120B43
:10379300AB8039E47F3CFEFDFC9002DBE0F8A3E064
:1037A300F9A3E0FAA3E0FBC3120B0E701F9002D83B
:1037B300E0FBA3E0FAA3E0F9900008E475F001123E
:1037C3000993900006E475F01D0238959002D8E045
:1037D300FBA3E0FAA3E0F9900008E4F5F0120993E3
:1037E3009002D8E0FBA3E0FAA3E0F99000081208E6
:1037F300EF245DF582740635F0F583E0FF3395E041
:10380300FEFDFC9002DBE0F8A3E0F9A3E0FAA3E0FD
:10381300FBD3120B0E40609002DBE0FCA3E0FDA3A0
:10382300E0FEA3E0FFC0079002D8E0FBA3E0FAA309
:10383300E0F99000081208EF245DF582740635F074
:10384300F583E0FB3395E0FAF9F8D007C3EF9BFF6C
:10385300EE9AFEED99FDEC98FC9002DB120BAB9017
:1038630002D8E0FBA3E0FAA3E0F9900008E475F0C6
:10387300011209270237E39002DBA3A3E0FEA3E0D2
:10388300FF9002D8E0FBA3E0FAA3E0F9900006EE74
:103893008FF012099322AB07EB25E02480F582E435
:1038A3003497F583E493FF740193900288CFF0A3D8
:1038B300EFF0EB25E02480F582E43497F583E4937D
:1038C300FC740193FD909770E493FF7E0012082629
:1038D300EEC4F854F0C868FEEFC4540F48FF9002DA
:1038E3008AEEF0A3EFF075F002EBA42408F582E56D
:1038F300F03404F583E0FEA3E0FF75F002EBA424AB
:10390300BFF582E5F03403F583E0FCA3E0C39FFF3A
:10391300EC9EFE900286F0A3EFF0C3EE64809480E9
:103923005003023A76A3E0FEA3E0FF900286E0FC98
:10393300A3E0FD9FEE6480F8EC64809840107473FC
:103943002BF582E43403F5837401F0023A429002CA
:103953008AE0FEA3E0FFC3ED9FEE6480F8EC648091
:1039630098405874382BF582E43404F583E004F06E
:10397300748B2BF582E43403F583E4F0742C2BF57C
:1039830082E43404F583E4F0747F2BF582E434039A
:10399300F583E4F074382BF582E43404F583E0FF17
:1039A300900749E0FEEFC39E5003023A4274382B5E
:1039B300F582E43404F583E4F0806E74382BF582E9
:1039C300E43404F583E4F0748B2BF582E43403F5DB
:1039D30083E004F0742C2BF582E43404F583E4F0E3
:1039E300747F2BF582E43403F583E4F0748B2BF5B9
:1039F30082E43403F583E0FF90074BE0FEEFC39EC0
:103A0300403D748B2BF582E43403F583E4F075F0C9
:103A130002EBA424BFF582E5F03403F583E0FEA3B3
:103A2300E0D39400EE9400401675F002EBA424BF9B
:103A3300F582E5F03403F58374FFF5F01208C390C3
:103A430097C2E493FE740193FFC3900289E09FFF42
:103A5300900288E09EFEC3900287E09F900286E07A
:103A63009E4003023BE774732BF582E43403F58332
:103A7300E4F02274732BF582E43403F583E4F090CD
:103A8300028AE0FEA3E0FFC3E49FFFE49EFEC3902F
:103A93000287E09FEE6480F8900286E0648098409D
:103AA3006C74382BF582E43404F583E4F0748B2BC7
:103AB300F582E43403F583E4F0742C2BF582E434CB
:103AC30004F583E004F0747F2BF582E43403F5837B
:103AD300E4F0742C2BF582E43404F583E0FF9007C3
:103AE30048E0FEEFC39E5003023BE7742C2BF582A4
:103AF300E43404F583E4F075F002EBA424BFF5820B
:103B0300E5F03403F583E475F001023BE474382BEC
:103B1300F582E43404F583E4F0748B2BF582E4340A
:103B230003F583E4F0742C2BF582E43404F583E489
:103B3300F0747F2BF582E43403F583E004F0747FA3
:103B43002BF582E43403F583E0FF90074AE0FEEFB0
:103B5300C39E5003023BE7747F2BF582E43403F5E5
:103B630083E4F0900289E025E0FD900288E033FCD5
:103B7300E0A2E713FEA3E0132DFFEE3CFEC3E49F98
:103B8300FFE49EFED3900287E09FEE6480F89002EC
:103B930086E0648098502975F002EBA42408F5822E
:103BA300E5F03404F583E0FEA3E0FF75F002EBA437
:103BB30024BFF582E5F03403F583EEF0A3EFF022A2
:103BC30090028AE0FEA3E0FF7C007D0512088D755C
:103BD300F002EBA424BFF582E5F03403F583EE8F06
:103BE300F01208C3229002F8EBF0A3EAF0A3E9F085
:103BF300E490031CF0A3F0A3F0A3F0A3F0A3F0A3BD
:103C0300F0FE7F08FD7B017A037904120F3A7E00F0
:103C13007F087D007B017A03790C120F3A7E007FC7
:103C2300087D007B017A037914120F3A9002FEE0BB
:103C3300FBA3E0FAA3E0F9EA494B7003023EB41296
:103C430007ACF46003023D649000011207C5F46001
:103C530003023D649000021207C5F46003023D6451
:103C63009000031207C5F46003023D649000041240
:103C730007C5F46003023D649000051207C5F460B4
:103C830003023D649000061207C5F46003023D641D
:103C93009000071207C5F46003023D64121A3E90B8
:103CA3000304E0F9F4700690031CF0FF229003056F
:103CB300E0FF7E007C037DE8120826AA06AB07E935
:103CC300FF7E007C277D10120826EF2BFDEE3AFCC9
:103CD300A3E075F064A42DFDE5F03CFCA3E075F0D2
:103CE3000AA42DFFE5F03CFEA3E07C002FFFEC3E91
:103CF300FE90031DF0A3EFF0C3900320E09FEE645A
:103D030080F890031FE06480984003023EACE49087
:103D13000321F0A3F09002F8E0FBA3E0FAA3E0F99B
:103D2300900321E0FEA3E0FFF5828E831207C524F2
:103D3300D0FD740C2FF58274033EF583EDF09003F0
:103D430022E004F07006900321E004F0900321E0E8
:103D53007004A3E0640870BD90031C7401F0023E7C
:103D6300AC9002FBE0F9A3E0FAA3E0900326C9F0CC
:103D7300A3EAF0A3E9F0A37401F0A37403F0A3741E
:103D830014F09002FEE0FBA3E0FAA3E0F912201581
:103D9300900314E0F47003023EB5121A3E9003043C
:103DA300E0F47003023EB5900305E0FF7E007C0360
:103DB3007DE8120826AA06AB07900304E0FF7E0005
:103DC3007C277D10120826EF2BFDEE3AFC900306AC
:103DD300E075F064A42DFDE5F03CFCA3E075F00A6A
:103DE300A42DFFE5F03CFEA3E07C002FFFEC3E900A
:103DF300031DF0A3EFF0900315E0FF7E007C037D2D
:103E0300E8120826AA06AB07900314E0FF7E007CA5
:103E1300277D10120826EF2BFDEE3AFC900316E0E7
:103E230075F064A42DFDE5F03CFCA3E075F00AA455
:103E33002DFFE5F03CFEA3E07C002FFFEC3EFE905F
:103E4300031FF0A3EFF0D390031EE09FEE6480F80E
:103E530090031DE06480984050E4900321F0A3F0A8
:103E63009002F8E0FBA3E0FAA3E0F9900321E0FE5F
:103E7300A3E0FFF5828E831207C524D0FD740C2FB7
:103E8300F58274033EF583EDF0900322E004F070B5
:103E930006900321E004F0900321E07004A3E064A2
:103EA3000870BD90031C7401F07E007F087D0080C4
:103EB30009E490031CF0FE7F08FD900301E0FBA3DF
:103EC300E0FAA3E0F9120F3A900301E0FBA3E0FA52
:103ED300A3E0F8AC02AD037B017A03790C7E007F8B
:103EE3000812078690031CE0FF22C10AC10CC10B14
:103EF300C109410444004207340000410736004130
:103F030007080041071F004107090054070B000081
:103F1300000000000000000000000000000000009E
:103F2300000041070A004207530000410755FF41C3
:103F3300075603011C00011E00011D00011F004163
:103F4300061C0041061BFF0123FF0122FF41061748
:103F53000041061600410618004106190041061AE1
:103F63000041061500609404EF02230003270004B8
:103F730023000725000826000A27000D23000F252C
:103F8300000824001627001E27002023001F2700F7
:103F93002823002B24002C24002D240051425243BB
:103FA30025005146524925005144524525005148A8
:103FB30052472500514A524B250051335234533551
:103FC30025005136523853392500513A523C533D5E
:103FD3002500513E524053412500062700514225FA
:103FE30000513052312500513A523C250051305294
:103FF30032533354345535565D576125004104E837
:10400300004204DF00004204E100004204EA000031
:104013004104DE004104E9004104EC004104450091
:104023004104ED004104EE004204DC00004304E5DA
:104033000000006082045A01030000000107000031
:104043000001080000000109000000010BFF95D3E7
:10405300010CFF8F83010CFF8F9C019EFF8DFB01E1
:104063000A0000000A04FF8CCB02080000000209CA
:10407300000000020BFF95D3030DFF8DC1030FFF5B
:1040830095140310FF95AB0747FF8DDE0749FF9596
:1040930021074AFF95C90882FF952E096A0000008F
:1040A30009840000006A69FF8F1F6A68FF8F3884E4
:1040B3006FFF8F518470FF8F6A5E06EA01E602B3D9
:1040C30003BB05C307CB0895099B0ADA06E06AA779
:1040D3006AA783A184AD9FFFFFFF4C06BB000000CE
:1040E300000000000000000000410750004207519B
:1040F30000004101F4FF4107380041073F00420738
:104103003D00004407399607999B41073700420752
:104113004E000041074C0041074D004A0669FF006D
:1041230000000000000000004C065D1F1C1F1E1F46
:104133001E1F1F1E1F1E1F603006730000001F007E
:104143003B005A0078009700B500D400F301110139
:1041530030014E0000001F003C005B007900980016
:10416300B600D500F401120131014F007B01E4FDDB
:104173009002DDEBF0A3EAF0A3E9F0A3EDF0E49005
:1041830002E5F0A3F0A3F0A37403F0A374E8F0ED49
:10419300D394007480948050030242CBC2AFE49066
:1041A30002E5F09002E0E0FF9002E5E0FEC39F50DD
:1041B300219002DDE0FBA3E0FAA3E0F98E82758390
:1041C300001207C5FDE4FF128B629002E5E004F0E4
:1041D30080D19002E874FFF5F01208C345F0700334
:1041E3000242C67F017E00128BAE900736E0C39475
:1041F300027480948040DBE49002E5F0900736E09F
:10420300FF9002E5E0FEC39F506274202EF582E426
:104213003407F583E0FD644B6022ED6449601DEDD6
:1042230064426018ED64466013ED6452600EED6401
:104233004D6009ED644A6004EDB47128EDB44A079A
:104243009002E7EEF08025EEFDC3EF9DFFE49400BE
:10425300FEC3EF9402EE6480948040089002E5E090
:104263009002E7F09002E5E004F080909002E7E02E
:104273009002E5F0900736E0FF9002E5E0FEC39F71
:1042830040030243B874202EF582E43407F583E03B
:10429300FF9002E1E0FBA3E0FAA3E0F99002E6E07D
:1042A300FEF582758300EF1208049002E4E0146EB9
:1042B30070030243B89002E6E004F09002E5E004E4
:1042C300F080B1D2AF0243C3C2AF9002E874FFF5EE
:1042D300F01208C345F070030243C17F017E001250
:1042E3008BAE900736E0C394027480948040DBE485
:1042F3009002E5F0900736E0FF9002E5E0FEC39FF1
:10430300506274202EF582E43407F583E0FD644B9C
:104313006022ED6449601DED64426018ED644660FF
:1043230013ED6452600EED644D6009ED644A600460
:10433300EDB47128EDB44A079002E7EEF08025EE64
:10434300FDC3EF9DFFE49400FEC3EF9402EE64808F
:10435300948040089002E5E09002E7F09002E5E0E7
:1043630004F080909002E7E09002E5F0900736E0D9
:10437300FF9002E5E0FEC39F503B74202EF582E4DC
:104383003407F583E0FF9002E1E0FBA3E0FAA3E04A
:10439300F99002E6E0FEF582758300EF12080490BF
:1043A30002E4E0146E600E9002E6E004F09002E591
:1043B300E004F080B7E4900736F0D2AFFF22D2AF2B
:1043C3007F00229002D5EBF0A3EAF0A3E9F0A3ED7E
:1043D300F0E4A3F0A3F09002E5F0A374FFF0E490FF
:1043E30002D9F09002D9E0FFC394647480948040B2
:1043F300030244DC75F005EFA42404F582E5F034F0
:1044030000F583E0F470030244D37E007F087DFF50
:104413007B017A0279DD120F3A9002D9E075F0053B
:10442300A42400F9740035F0FA7B01C0039002FB69
:10443300EBF0A37402F0A374DDF0D0031272469084
:1044430002E5EFF0E49002DBF09002E5E0FF90027A
:10445300DBE02FFFE433FE9002D8E0FDD3EF9D7441
:1044630080F86E98505EE49002DCF09002E5E0FF85
:104473009002DCE0FEC39F5037EEFF9002DBE02F9B
:10448300FFE433FE9002D5E0FBA3E0FAA3E0F98F4B
:10449300828E831207C5FF9002DCE024DDF582E4FF
:1044A3003402F583E0B507089002DCE004F080BB3A
:1044B3009002E5E0FF9002DCE06F60089002DBE031
:1044C30004F080859002E5E0FF9002DCE06F600974
:1044D3009002D9E004F00243E69002D9E0C3946469
:1044E300748094805007E0FF9001F4F022E490027E
:1044F300F7F0FE7F087DFF7B017A0279E7120F3A1E
:104503009002FB7401F0A37402F0A374E7F07B0143
:104513007A0079001272469002E5EFF0E49002D936
:10452300F09002D9E0FFC3940874809480507574AE
:10453300E72FF582E43402F583E0F49002D9700E9C
:10454300E024E7F582E43402F583E4F0800EE0240E
:10455300E7F582E43402F583E02430F09002D5E0FD
:10456300FBA3E0FAA3E0F99002D9E0FFF58275839B
:10457300001207C5FEF4700E74DD2FF582E43402D9
:10458300F583E4F080159002D9E0FFEE2430FE7449
:10459300DD2FF582E43402F583EEF09002D9E004D6
:1045A300F00245249002FB7401F0A37402F0A3749B
:1045B300E7F0A3E4F0A37400F0A3740FF0A3740175
:1045C300F0A37402F0A374EFF07B017A0279DD1299
:1045D3003BE89002F7EFF0D3940074809480401985
:1045E300780F7C007D007B017A0279EF7E007F08E3
:1045F3001207861231CA7FFE227FFF229002E1EB6F
:10460300F0A3EAF0A3E9F0A3ECF0A3EDF09002EC41
:10461300120BB7000000009002F0120BB70000006D
:10462300009002FE740AF0E49002EAF09002E6E0E1
:10463300FF9002EAE0FEC39F50289002E1E0FBA353
:10464300E0FAA3E0F98E827583001207C5F4700ABD
:104653009002EAE09002FEF080089002EAE004F0A3
:1046630080CA7E007F0A7DFF7B017A0279F4120FF4
:104673003AE49002EBF09002EAF09002FEE0FF9041
:1046830002EAE0C39F400302478D9002E1E0FBA3EF
:10469300E0FAA3E0F99002EAE0F5827583001207DD
:1046A300C5FFE4FCFDFEC004C005C006C0077F0AC9
:1046B3009002F0E0F8A3E0F9A3E0FAA3E0FB12090B
:1046C300C0D003D002D001D000EF2BFFEE3AFEEDB5
:1046D30039FDEC38FCC006C0079002E4E0FEA3E01D
:1046E300FBAA06E4F9F8D007D006120A4B9002ECB5
:1046F300120BAB9002E1E0FBA3E0FAA3E0F9900216
:10470300EAE0F5827583001207C5FFE4FCFDFEC0F5
:1047130004C005C006C0077F0A9002F0E0F8A3E0DA
:10472300F9A3E0FAA3E0FB1209C0D003D002D00141
:10473300D000EF2BFFEE3AFEED39FDEC38FCC0065E
:10474300C0079002E4E0FEA3E0FBAA06E4F9F8D078
:1047530007D006120A4BAC00AD01AE02AF039002C4
:10476300F0120BAB9002ECA3A3A3E0FF9002EBE0EB
:1047730024F4F582E43402F583EFF09002EBE004D5
:10478300F09002EAE004F002467DE49002EAF09041
:1047930002E6E0FF9002EAE0FEC39F501574F42E98
:1047A300F582E43402F583E070089002EAE004F055
:1047B30080DDE49002EBF09002E6E0FF9002EBE094
:1047C300FEC39F50529002EAE0FDC39F502874F449
:1047D3002DF582E43402F583E0FF9002E7E0FBA3CA
:1047E300E0FAA3E0F98E82758300EF1208049002C9
:1047F300EAE004F080199002E7E0FBA3E0FAA3E00B
:10480300F99002EBE0F58275830074FF12080490BF
:1048130002EBE004F080A07F0022AB07EBC39420FF
:1048230074809480500AE47F01FEFDFCA803800B92
:10483300E47F01FEFDFCEB24E0F9F8120B32900259
:1048430082120BABEBC39420748094805003024913
:1048530015759651900282A3A3A3E0FFEF429775CB
:104863009652900282E0FCA3E0FDA3E0FEA3E0FFEA
:104873007808120B1FEF4297EBC394247480948043
:10488300500E900282A3A3A3E0540FFFEF42EA224B
:10489300EBC3942674809480501B900282E0FCA3A7
:1048A300E0FDA3E0FEA3E0FF7804120B1FEF540327
:1048B300FFEF42EB22EBFFC3942C748094805037BC
:1048C300EF642A6005EF642B7012900282E0FCA370
:1048D300E0FDA3E0FEA3E0FF78048010900282E0F5
:1048E300FCA3E0FDA3E0FEA3E0FF7806120B1FEF9D
:1048F30054CFFFEF42EC22900282E0FCA3E0FDA341
:10490300E0FEA3E0FF780C120B1FEF540FFFEF4202
:10491300EE22759626900282A3A3A3E0FFEF4297AF
:10492300759627900282E0FCA3E0FDA3E0FEA3E0DE
:10493300FF7808120B1FEF540FFFEF42977596286D
:10494300900282E0FCA3E0FDA3E0FEA3E0FF781069
:10495300120B1FEF4297759629900282E0FCA3E0A9
:10496300FDA3E0FEA3E0FF7818120B1FAB07EB4299
:1049730097900282E0FCA3E0FDA3E0FEA3E0FF78B2
:1049830002120B32EF54FCFFEF42EB900282E0FC89
:10499300A3E0FDA3E0FEA3E0FF7802120B1FEF5498
:1049A30030FFEF42EC900282E0FCA3E0FDA3E0FEC7
:1049B300A3E0FF7804120B1FEF54F0FFEF42EE90D9
:1049C3000282E0FCA3E0FDA3E0FEA3E0FF780C126B
:1049D3000B1FEF54F0FFEF42EF900282E0FCA3E0E5
:1049E300FDA3E0FEA3E0FF7814120B1FEF540FFFAB
:1049F300EF42F2EB42F722900284EFF0E4A3F0A33C
:104A0300F01296C4A3EFF06470700B1296CA7F2F56
:104A13001287300294DB900287E0646070057F01A7
:104A23001296C1900287E0FF7E006401600DEF647F
:104A3300326008EF64336003024BBCEF64544E7082
:104A43000B129676EF64076003024BBC1296CA12F0
:104A53009348EF640170087F2E1287300296A0906E
:104A63000287E06454703790061BE0FF127F5B906F
:104A73000285EFF06003024BBC90061BE07003025B
:104A83004B4F128D4B900285EFF0700A7D017F072B
:104A9300128401024BA07FD3128730024BA07B010B
:104AA3007A027986128682900285EFF06003024BC8
:104AB30032900287E0640170057F04025A5290022B
:104AC30087E0643270057F19024BB9900287E06476
:104AD300336003024BBC90061BE0FF127F5B900226
:104AE30085EFF0704590061BE07002805F128D4BDE
:104AF300900285EFF0702CA3E0FF1278FC90028502
:104B0300EFF07015A3E09001F4F07F051287309069
:104B130001F4E0FF12945180057F6E1287301295E5
:104B2300BF80057FD312873080737F7A024BB990A1
:104B33000287E06432707090061BE0FF127F5B9087
:104B43000285EFF0705D90061BE0700C7F181287F2
:104B53003090061B7401F022128D4B900285EFF00A
:104B63007036FF1292FC900285EFF0700F7F0512F2
:104B730087309001F4E0FF12944180057F6E128725
:104B830030900755E06401700A74FFF07F011296BC
:104B9300C1800A1295B580057FD3128730E4900651
:104BA3001BF0227F7A800F900287E0640170057FFB
:104BB300040284CA7F8012873022EFB407004003C7
:104BC300024D34904BCDF8282873024BE2024C0976
:104BD300024C2F024C7A024CC8024CEB024D0EEBF6
:104BE3007009ED42EA759617024C83EB6401700974
:104BF300ED42EA759617024D27EB64026003024DFE
:104C030034EDF452EA22EB7008ED42EB759618800E
:104C13006FEB64017009ED42EB759618024D27EBBB
:104C230064026003024D34EDF452EB22EB7008EDA5
:104C330042EC7596198049EB64017009ED42EC75FD
:104C43009619024D27EB64027015EDF452ECED5406
:104C5300307003024D34759625C4540F024D18EB82
:104C630064036003024D34EDF452EC759625ED5464
:104C730030C4540F429722EB700AED42EE75961B37
:104C8300ED024D18EB64017009ED42EE75961B02BF
:104C93004D27EB64027015EDF452EEED54307003C2
:104CA300024D347596251313543F8069EB640360FA
:104CB30003024D34EDF452EE759625ED5430131383
:104CC300543F429722EB7009ED42EF75961CED803D
:104CD30044EB64017008ED42EF75961C8046EB646B
:104CE30002704EEDF452EF22EB7009ED42F275962D
:104CF3001DED8021EB64017008ED42F275961D8075
:104D030023EB6402702BEDF452F222EB700BED42B5
:104D1300F775961EEDF4529722EB6401700AED428B
:104D2300F775961EED429722EB64027004EDF45280
:104D3300F7229002E6740AF07D3C7C009002E1EBDE
:104D4300F0A3EAF0A3E9F0A3ECF0A3EDF09002E8FE
:104D5300120BB7000000009002EC120BB70000002A
:104D6300009002F0740AF0E49002E7F09002E6E0AB
:104D7300FFA3E0FEC39F50289002E1E0FBA3E0FA0B
:104D8300A3E0F98E827583001207C5F4700A9002BE
:104D9300E7E09002F0F080089002E7E004F080CCB6
:104DA300E49002E7F09002F0E0FF9002E7E0C39F97
:104DB3004003024E9B9002E1E0FBA3E0FAA3E0F97B
:104DC3009002E7E0F5827583001207C5FFE4FCFD5E
:104DD300FEC004C005C006C0077F0A9002ECE0F8DD
:104DE300A3E0F9A3E0FAA3E0FB1209C0D003D002C9
:104DF300D001D000EF2BFFEE3AFEED39FDEC38FC8D
:104E0300C006C0079002E4E0FEA3E0FBAA06E4F9B3
:104E1300F8D007D006120A4B9002E8120BAB9002AF
:104E2300E1E0FBA3E0FAA3E0F99002E7E0F5827585
:104E330083001207C5FFE4FCFDFEC004C005C006E5
:104E4300C0077F0A9002ECE0F8A3E0F9A3E0FAA31D
:104E5300E0FB1209C0D003D002D001D000EF2BFF3A
:104E6300EE3AFEED39FDEC38FCC006C0079002E4D3
:104E7300E0FEA3E0FBAA06E4F9F8D007D006120A85
:104E83004BAC00AD01AE02AF039002EC120BAB9042
:104E930002E7E004F0024DA89002ECE0FCA3E0FD81
:104EA300A3E0FEA3E0FF2290035D120BABE4FFFE41
:104EB3007D807C3F90035DE0F8A3E0F9A3E0FAA3D3
:104EC300E0FB12038D700690035D02500490035DB6
:104ED300E0FCA3E0FDA3E0FEA3E0FF12026DFBA351
:104EE300E0FCA3E0FDA3E0FEA3E0FF12026DFFB42C
:104EF3000108E4FFFE7D807C3F22EF64046029EB20
:104F030064046024EBB40130E4FFFEFDFC90036114
:104F1300E0F8A3E0F9A3E0FAA3E0FB12038D600835
:104F23004006E4FFFEFDFC22900361120BB7FFFF76
:104F3300FFFF900361025004E4900365F0A3F0FFC8
:104F4300FEFDFC90035DE0F8A3E0F9A3E0FAA3E023
:104F5300FB12038D505F900361E0FCA3E0FDA3E02F
:104F6300FEA3E0FF1201EC900365EEF0A3EFF0FD6A
:104F7300CCEECCEC1201B3C8ECC8C9EDC9CAEECA79
:104F8300CBEFCB900361E0FCA3E0FDA3E0FEA3E045
:104F9300FF1200B9E4FBFAF9F812038D708A90034B
:104FA3005DE0FCA3E0FDA3E0FEA3E0FF1204069096
:104FB300035D120BAB90035DE0FCA3E0FDA3E0FEF9
:104FC300A3E0FF125529900361E0F8A3E0F9A3E001
:104FD300FAA3E0FB120287126D7D900361120BAB03
:104FE300900366E030E017900361E0FCA3E0FDA3CB
:104FF300E0FEA3E0FF120406900361120BAB9003E3
:1050030061E0FCA3E0FDA3E0FEA3E0FF229003190F
:10501300EBF0A3EAF0A3E9F0EF14606624FE70035B
:105023000250DE147003025109240460030251602C
:10503300E4FF12964CE490031EF0A3F090031CE0EF
:10504300FEA3E0FFA3E0FCA3E0FDC39FEC9E4003AF
:10505300025160E4FF128D0C900319E0FBA3E0FA08
:10506300A3E0F990031EE0FCA3E0F5828C83EF122A
:10507300080490031FE004F070C290031EE004F0E4
:1050830080BAE4FF12964CE490031EF0A3F0900361
:105093001CE0FEA3E0FFA3E0FCA3E0FDC39FEC9EA6
:1050A3004003025160ED2418FDE43CFCE4FF128D43
:1050B3000C900319E0FBA3E0FAA3E0F990031EE0D0
:1050C300FCA3E0F5828C83EF12080490031FE00435
:1050D300F070BB90031EE004F080B37F0112964C86
:1050E300900319E0FBA3E0FAA3E0F9E4900324F0B2
:1050F300A3F090031CE0FFA3E0900326CFF0A3EFFF
:10510300F07D0102713EE4FF12964CE490031EF021
:10511300A3F090031CE0FEA3E0FFA3E0FCA3E0FDEB
:10512300C39FEC9E5037ED2414FDEC3402FCE4FFE6
:10513300128D0C900319E0FBA3E0FAA3E0F99003AE
:105143001EE0FCA3E0F5828C83EF12080490031F9A
:10515300E004F070BD90031EE004F080B5229003DC
:105163001BEBF0A3EAF0A3E9F0A3E0FBA3E0FAA3AF
:10517300E0F9120BE800000000900321E0FBA3E03C
:10518300FAA3E0F9120BE800000000E4900324F016
:10519300A3F090031BE0FBA3E0FAA3E0F990032440
:1051A300E0FEA3E0F5828E831207C5FFE4FCFDFE5B
:1051B300C004C005C006C00790031EE0FBA3E0FACD
:1051C300A3E0F9120B45E47B0AFAF9F81209C0D0FF
:1051D30003D002D001D000EF2BFFEE3AFEED39FDF4
:1051E300EC38FC90031EE0FBA3E0FAA3E0F9120BFA
:1051F30065900325E004F07006900324E004F0902A
:105203000324E07004A3E064057087900324E4F0B2
:10521300A37405F090031BE0FBA3E0FAA3E0F9906D
:105223000324E0FEA3E0F5828E831207C5FFE4FCAE
:10523300FDFEC004C005C006C007900321E0FBA328
:10524300E0FAA3E0F9120B45E47B0AFAF9F8120934
:10525300C0D003D002D001D000EF2BFFEE3AFEED19
:1052630039FDEC38FC900321E0FBA3E0FAA3E0F95D
:10527300120B65900325E004F07006900324E0040C
:10528300F0900324E07004A3E0640A70877F002297
:105293009002D774FFF078DA7C027D01FB7A98796B
:1052A300927E007F031207869002D87442F0A374A3
:1052B30064F07B017A0279D87D021280507F2C7EC4
:1052C30001128BAE9002E17401F0A37402F0A37497
:1052D300DAF0A37403F07B017A0279D8E4FD12417A
:1052E300739002DAE064427047A3E024BB601514B4
:1052F300602924F9601624FB60232406600302530B
:10530300C17FFF227F081287307FFF2290075574E9
:1053130001F07F621287307F12800F8075900755EE
:105323007401F07F171287307F321296C10253C186
:105333009002DAE0FF644D600AEF64466005EF64B3
:105343005270789002DCE0FB9002DB7005E024D021
:10535300800CE024D075F00AA4FFEB24D02F900139
:10536300F4F09002DAE024BA602824F460282405DB
:10537300704C9001F4E0FF7D01127CC39002D7EFE3
:10538300F070317F051287309001F4E0FF12943101
:10539300802C7F0880209001F4E0FF1278FC9002BB
:1053A300D7EFF0700F7F051287309001F4E0FF1202
:1053B3009451800A7F6E12873080037F01227F0021
:1053C300221296C490036CEFF09004ED7401F090F8
:1053D30004DEE0640170309004E2E004F0700690B3
:1053E30004E1E004F09004EAE0FEA3E0FFC39004CC
:1053F300E2E09F9004E1E09E400D9004DE7402F031
:10540300E49004E1F0A3F09004E9E06401701B90E0
:1054130004ECE004F0E0C3940A74809480400B90A1
:1054230004E97402F0E49004ECF09004EEE0D39409
:105433000074809480402A9004DDE004F0700690AC
:1054430004DCE004F09004DCE0FEA3E0FFE4FCFDF8
:105453007B587A02F9F8D3120AF85005E49004EE67
:10546300F01280EAEF70030254ED90036CE0FF64E6
:10547300616077EF646060729004DEE06401606AEB
:10548300128E50EF7064129310EF705E90036DF004
:105493009004E0E004F070069004DFE004F0900371
:1054A3006CE0FF64126014EF6413600FEF644160FB
:1054B3000AEF64326005EF64337011D39004E0E0C7
:1054C30094C89004DFE094004017800FD39004E069
:1054D300E094649004DFE09400400690036D74014F
:1054E300F090036DE0600A02825BE49004DFF0A3B6
:1054F300F0223E9248DA3ECCCCCD3F2AAAAB400004
:1055030000003F8000003F9837F03FB504F33FD7DA
:1055130044FC3E3172173EB172173F0515913EDED2
:105523005BD9D2008002C200EDD2E7F8CD33EC3371
:1055330004700BBD800592D502026202025840FB43
:10554300D31460F2F5F07C3FEE7A00C39496C894CE
:105553008B40230AC89469C8941A401A0AC89468ED
:10556300C8941F40110AC8945AC89425400805F0EE
:105573007A00CDC2E7CDC0F0900367120BABEA23EC
:1055830023C0E02405F582E43455F583120B9B1206
:1055930000BDECC0E0EDC0E0EEC0E0EFC0E0120BF8
:1055A3007F900367120B8F1200B9D0E0FBD0E0FAB3
:1055B300D0E0F9D0E0B2E7F812055C900367120B74
:1055C300AB9054F57403120669900367120B8F12A4
:1055D3000287D0E0600F2411F582E43455F583127D
:1055E3000B9B1200BD900367120BABD0E0C3947FFB
:1055F300FDE49400FC1201B37B187A727931783F91
:10560300120287900367120B8F1200BD30000B7BD1
:10561300D97A5B79DE783E12028722E490032AF07E
:10562300A3120BAB90031FE0FCA3E0FDA3E0FEA3DA
:10563300E0FF90032F120BABE490032AF090032AB0
:10564300E0C39405748094805068E47B0AFAF9F807
:10565300A3E0FCA3E0FDA3E0FEA3E0FF120A4BAF2F
:105663000390032AE0FDC3900327E09DFD900326EA
:10567300E09400CD24FFCD34FFFC900323E0FBA393
:10568300E0FAA3E0F98D828C83EF12080490032BD8
:10569300E0FCA3E0FDA3E0FEA3E0FFE47B0AFAF94C
:1056A300F8120A4B90032B120BAB90032AE004F081
:1056B300808BE490032AF090032AE0C3940574805E
:1056C30094805079E47B0AFAF9F890032FE0FCA365
:1056D300E0FDA3E0FEA3E0FF120A4BAF0390032813
:1056E300E0FCA3E0FD900327E02DFD900326E03CC2
:1056F300FC90032AE0FBC3ED9BFDEC9400CD24FF5B
:10570300CD34FFFC900323E0FBA3E0FAA3E0F98D83
:10571300828C83EF12080490032FE0FCA3E0FDA327
:10572300E0FEA3E0FFE47B0AFAF9F8120A4B9003C8
:105733002F120BAB90032AE004F00256BA7F00222B
:10574300E4FEEEC39F4003025856E4FCECC39E40C4
:1057530003025802ED75F00AA42483F582E43405AC
:10576300F583E5822CF582E43583F583E0FBED7563
:10577300F00AA42483F582E43405F583E5822EF54B
:1057830082E43583F583E0F96B7057ED75F00AA475
:105793002483F582E43405F583E5822EF582E4352E
:1057A30083F583E004F0ED75F00AA42483F582E425
:1057B3003405F583E5822EF582E43583F583E064D1
:1057C3000A701AED75F00AA42483F582E43405F512
:1057D30083E5822EF582E43583F583E4F0E4FC026D
:1057E300574FED700A74A82EF582E43405800874CF
:1057F300C32EF582E43405F583E9F00C02574FEE2E
:10580300704DED7024ED75F00AA42483F582E43421
:1058130005F583E5822EF582E43583F583E0FC7498
:10582300A82EF582E434058022ED75F00AA42483C2
:10583300F582E43405F583E5822EF582E43583F5BC
:1058430083E0FC74C32EF582E43405F583ECF00E9B
:105853000257457F00229002D5EBF0A3EAF0A3E9BB
:10586300F0E4A3F0A3F0A3F0A3F0A3F0A3F0A3F05C
:105873009002D5E0FBA3E0FAA3E0F9900001120740
:10588300C575F00AA4FDACF09002D5A3A31207AC32
:1058930075F064A42DFFE5F03CFE9000021207C5ED
:1058A3007C002FFFEC3E9002DBF0A3EFF09002D5DB
:1058B300A3A39000011207C575F00AA4FDACF090F4
:1058C30002D5A3A39000021207C575F064A42DFFAF
:1058D300E5F03CFE1207AC7C002FFFEC3E9002DDAE
:1058E300F0A3EFF0E4FBEBFF7E00C3940A74809413
:1058F300805053C3740A9FFDE49EFC9002DBE0FEDC
:10590300A3E0FF120838AF059002D9EFF0FAEBFFDE
:10591300C3740A9FFDE49400FC9002DDE0FEA3E063
:10592300FF120838AF059002DAEFF074832BF5828B
:10593300E43405F583EAF0748D2BF582E43405F540
:1059430083EFF00B80A0E4FD7F0A1257437D017FB4
:105953000A1257437F00227B007A00790890031CC8
:10596300E4F0A3740FF0E4FF125010AF08EF6401EA
:105973006005EF64027076E4900281F07B017A00A7
:10598300790090031C04F0A374F4F07F011250100B
:105993007B017A0179F590031CE4F0A3748CF07F0A
:1059A30003125010D3E50B940074809480500302CB
:1059B3005A51900281E0FFFD7C00C394647480948B
:1059C30080501A75F005EFA42404F582E5F0340045
:1059D300F583E06008900281E004F080D5C3ED9484
:1059E30064EC648094804066E4F50B80567E017F0E
:1059F300F47DFF7B017A007900120F3A7B017A0074
:105A030079009002FC7401F0A374F4F07F01123169
:105A1300DB7E007F8C7DFF7B017A0179F5120F3AE3
:105A23007B017A0179F59002FCE4F0A3748CF07F9A
:105A3300031231DB750801750901E4F50AF50BF56D
:105A43000CF50DFB7A0079089002FC1231D42290F8
:105A530002D5EFF01296E8EF6401702F9002D5E0C3
:105A6300FF54107026EF640860217F08128730907E
:105A730002D5E024FE600E24FE600D2403600302C1
:105A83005B4702969402969A0296A0E49004EEF085
:105A93001296DCEF640170319002D5E0FFFD6408DB
:105AA3006027EF54107022EDF4FFE4F4FE9004E855
:105AB300E0FDFBEF5B6004E4F0800E9002D5E04D67
:105AC3009004E8F07F4B0287307F521296C1129602
