:1000000002716502004E53E1DF32320286C753E1CE
:0A001000F7323202006653F1F732B6
:10001B000287FAE4F5C9C20953F1DF9003A7E0FEAA
:10002B00A3E0F5CA53CC7FEE5401C313E41342CCC7
:10003B0053CCC0909830E493543F42CC75C9012205
:07004B0002006E5388FD3234
:100053000200161298187F2A12886D7F600297E8B3
:0700630002974F5388F732AA
:07006B0002001253F1FB3209
:100073000285827F8912886D128CC57F410297E8C1
:0700830002009653E1BF32B9
:07008B0002870553E17F32FB
:0700930002000E53E1FD32F3
:07009B0002000A4387012265
:0600A3000200067F0022AE
:0600AB0002008602804302
:1000B30002008E020258E86480F8E933E8336011E5
:1000C3000460F0ED33EC337009E8FCE9FDEAFEEB84
:1000D300FF220460DED3EB9FEA9EE99DE8C2E78C32
:1000E300F0C2F795F0400CE8CCF8E9CDF9EACEFA86
:1000F300EBCFFB12022385D0F05804700320D5B355
:10010300E80470075002B2D502026292D5EC046093
:10011300F7E4CCC0E0C398F8603B94186008400D46
:10012300D0E0FB02023AE4FBFAC9FC8028E830E4A1
:1001330006E4C9FBE4CAFCE830E305E4C9CACBFC26
:10014300E854076010F8C3E913F9EA13FAEB13FB59
:10015300EC13FCD8F130F52FC3E49CFCEF9BFFEECE
:100163009AFEED99FDD0E0FBEF4E4D4C701222DB71
:100173000302025FEC2CFCEF33FFEE33FEED33FDA5
:10018300ED30E7EB02023AEF2BFFEE3AFEED39FDDD
:10019300D0E0FB50130BBB0003020262ED13FDEE34
:1001A30013FEEF13FFEC13FC02023A75F020800EEE
:1001B30075F010800575F0087D007E007F00339296
:1001C300D530D503120AEAEC334010EF33FFEE3398
:1001D300FEED33FDEC33FCD5F0ED22E5F0247EA2F9
:1001E300D513CC92E7CDCEFF22EDD2E7CD33EC335E
:1001F30092D524814006E4FFFEFDFC22FCE4CFCE31
:10020300CDCC24E0501174FF80EDC3CC13CCCD13BF
:10021300CDCE13CECF13CF0470F030D5DE020AEA71
:10022300E9D2E7C933E833F892D5EDD2E7CD33EC21
:1002330033FC5002B2D522EC30E7100FBF000C0E96
:10024300BE00080DBD00040BEB6014A2D5EB13FC3C
:10025300ED92E7FD2274FFFCFDFEFF22E480F8A28D
:10026300D574FF13FC7D80E480EFED33EC33601035
:1002730004700FED547F7005740292E0227404221F
:100283000422E422EC4D6011E8497017ED33EC339E
:1002930004600DE4FCFFFEFD22E933E8330470F84B
:1002A30002025812022358046009E4CC2481500648
:1002B30028500902026228400302025FC0E0EB4AB1
:1002C3007044B98006D0E0FB02024EEF4E701CBDB5
:1002D3008008EBFFEAFEE9FD80EBE98DF0A4FEE583
:1002E300F0020370E9CDF9EAFEEBFFEF89F0A4FC1D
:1002F300E5F0CE89F0A42EFFE435F0CD89F0A42DEE
:10030300FEE435F08067EF4E7005BD80D780C3EF04
:100313008BF0A4ACF0EE8BF0A42CFCE435F0F8EFFA
:100323008AF0A42CE5F038FCE433CB8DF0A42CFC4C
:10033300E5F03BF8EE8AF0A42CFCE5F038F8E43362
:10034300CF89F0A42CFCE5F038CF3400CE89F0A49B
:100353002FFFE5F03EFEE433C98DF0A42EFEE5F059
:1003630039CD8AF0A42FFFE5F03EFEE43DFD33D006
:10037300E0FB50070BBB000F020262EC2CFCEF33D7
:10038300FFEE33FEED33FD02023A74F8CC6480CC09
:10039300C86480C8F58204604FC3EB9FF5F0EA9E02
:1003A30042F0E99D42F0E89C45F0603C501DE58237
:1003B3005FFFE582D313CB5BCBF42B5582FB502835
:1003C3000ABA002409B9002008801DE5825BFBE519
:1003D30082D313CF5FCFF4C3132F5582FF50090E7F
:1003E300BE00050DBD00010CC3EB9FF5F0EA9E4274
:1003F300F0E99D42F0E89C45F06007CC4820E70116
:10040300B3EC22ED33EC33600A047003BD8004ECDB
:10041300B2E7FC22F920E73624F950037907E4F424
:100423002402FBE582158270021583DBF6E024FBD0
:10043300501BE96014E4F0E582158270021583E035
:1004430004F0B40A08E4F0D9EE7401F00A22C2D52C
:1004530022ED33EC3392D5FA602AB4FF33EDC2E7D1
:100463007BFF60067A047979E4227A04798220D5C5
:10047300047A04797D224E614E002B494E46002DAD
:10048300494E4600E47A08F0A3DAFC7B00740722A5
:10049300C083C082ECC0E0EDC0E0EEC0E0EFC0E09E
:1004A300EA75F010A4CAABF075F04DA42BFBE4354C
:1004B300F0FCEA2410FAEB34C5FBEC34D9FCEDC2B2
:1004C300E7FF75F056A4F42411C5F0F434C58FF09A
:1004D300A42AE5F03BE43CF020E714120629D0E01F
:1004E300FFD0E0FED0E0FDD0E0FC12055C8014F408
:1004F30004120629D0E0FFD0E0FED0E0FDD0E0FCFE
:10050300120287D082D083E0FAEDD2E7CD33EC3309
:100513002482FBE4C3CF33CFCE33CECD33CD33DB15
:10052300F37B0775F00A846004F0A31B0AE5F0F07F
:10053300A38FF0740AA4FFACF08EF0740AA42CFE0F
:10054300ACF050010C8DF0740AA42CFDE435F0F0EE
:10055300A3DBDE740722020262EC5D046005E85946
:10056300047003020258120223580460F6EC486038
:10057300F2EC7004FDFEFF22C860DB2481C8500941
:10058300C3986002500602025F9850CAF582E929B7
:100593004B4A7005AB8202024E75F0007C1A7880DC
:1005A300C3EF9BEE9AED99400DC3EF9BFFEE9AFECE
:1005B300ED99FDE842F0DC23ACF0D0E0FFD0E0FEA3
:1005C300D0E0FDAB8220E7101BEB60BAEC2CFCEF14
:1005D30033FFEE33FEED33FD02023AE803F830E772
:1005E30005C0F075F000EF2FFFEE33FEED33FD4055
:1005F300B830E7C280AA3F8000004120000042C813
:100603000000447A0000461C400047C35000497470
:1006130024004B1896804CBEBC205A0E1BCA67534D
:10062300C21C749DC5AEFB60065407601C232312D5
:100633000657EB543860091206431206521202871A
:10064300ECF8EDF9EEFAEFCB22EB12065280F154FF
:100653003803241C9005F9FE93FC0EEE93FD0EEE79
:10066300930ECE93FF22C0E0EFFBEEFAEDF9ECF828
:10067300120287D0E0F5F0EFFBEEFAEDF9ECF81299
:100683000B7FA3A3A3A3E8C0E0E9C0E0EAC0E0EBCB
:10069300C0E0C0F0120287120B9BA3A3A3A3120016
:1006A300BDD0F0D0E0FBD0E0FAD0E0F9D0E0F8D54F
:1006B300F0D422E709F608DFFA8046E709F208DFFB
:1006C300FA803E88828C83E709F0A3DFFA8032E365
:1006D30009F608DFFA8078E309F208DFFA80708808
:1006E300828C83E309F0A3DFFA806489828A83E042
:1006F300A3F608DFFA805889828A83E0A3F208DF31
:10070300FA804C80D280FA80C680D4806980F280DF
:1007130033801080A680EA809A80A880DA80E28005
:10072300CA803389828A83ECFAE493A3C8C582C85A
:10073300CCC583CCF0A3C8C582C8CCC583CCDFE9C4
:10074300DEE7800D89828A83E493A3F608DFF9EC60
:10075300FAA9F0EDFB2289828A83ECFAE0A3C8C5EB
:1007630082C8CCC583CCF0A3C8C582C8CCC583CC12
:10077300DFEADEE880DB89828A83E493A3F208DF81
:10078300F980CC88F0EF60010E4E60C388F0ED2451
:1007930002B4040050B9F582EB2402B4040050AF54
:1007A300232345822390070673BB010689828A832C
:1007B300E0225002E722BBFE02E32289828A83E41D
:1007C3009322BB010CE58229F582E5833AF583E0A8
:1007D300225006E92582F8E622BBFE06E92582F8C7
:1007E300E222E58229F582E5833AF583E49322BB8D
:1007F300010689828A83F0225002F722BBFE01F3AD
:1008030022F8BB010DE58229F582E5833AF583E8F9
:10081300F0225006E92582C8F622BBFE05E92582AF
:10082300C8F222EF8DF0A4A8F0CF8CF0A428CE8DCF
:10083300F0A42EFE22BC000BBE0029EF8DF084FF36
:10084300ADF022E4CCF875F008EF2FFFEE33FEECA9
:1008530033FCEE9DEC984005FCEE9DFE0FD5F0E9D0
:10086300E4CEFD22EDF8F5F0EE8420D21CFEADF0CF
:1008730075F008EF2FFFED33FD4007985006D5F0D4
:10088300F222C398FD0FD5F0EA22C2D5EC30E70976
:10089300B2D5E4C39DFDE49CFCEE30E715B2D5E48C
:1008A300C39FFFE49EFE120838C3E49DFDE49CFC55
:1008B300800312083830D507C3E49FFFE49EFE226D
:1008C300C5F0F8A3E028F0C5F0F8E58215827002C0
:1008D3001583E038F022A3F8E0C5F025F0F0E582B7
:1008E300158270021583E0C838F0E822BB0110E5D9
:1008F3008229F582E5833AF583E0F5F0A3E02250FF
:1009030009E92582F886F008E622BBFE0AE925827A
:10091300F8E2F5F008E222E5832AF583E993F5F09E
:10092300A3E99322BB010DC58229C582C5833AC5BC
:10093300830208C35011C58229F808E5F026F6188A
:10094300F5F0E58236F622BBFE11C58229F808E2EE
:1009530025F0F5F0F218E23582F222F8E58229F566
:1009630082E5832AF58374019325F0F5F0E4933847
:1009730022BB010A89828A83F0E5F0A3F0225006A4
:10098300F709A7F01922BBFE06F3E5F009F31922D4
:10099300F8BB0111E58229F582E5833AF583E8F096
:1009A300E5F0A3F0225009E92582C8F608A6F02253
:1009B300BBFE09E92582C8F2E5F008F222E88FF0D0
:1009C300A4CC8BF0A42CFCE98EF0A42CFC8AF0EDD3
:1009D300A42CFCEA8EF0A4CDA8F08BF0A42DCC3887
:1009E30025F0FDE98FF0A42CCD35F0FCEB8EF0A4BF
:1009F300FEA9F0EB8FF0A4CFC5F02ECD39FEE43C79
:100A0300FCEAA42DCE35F0FDE43CFC2275F008751C
:100A13008200EF2FFFEE33FECD33CDCC33CCC58236
:100A230033C5829BED9AEC99E58298400CF582EEF2
:100A33009BFEED9AFDEC99FC0FD5F0D6E4CEFBE4DA
:100A4300CDFAE4CCF9A88222B800C1B90059BA00A2
:100A53002DEC8BF084CFCECDFCE5F0CBF97818EFFD
:100A63002FFFEE33FEED33FDEC33FCEB33FB10D7FE
:100A730003994004EB99FB0FD8E5E4F9FA227818BF
:100A8300EF2FFFEE33FEED33FDEC33FCC933C9101A
:100A9300D7059BE99A4007EC9BFCE99AF90FD8E04C
:100AA300E4C9FAE4CCFB2275F010EF2FFFEE33FE1E
:100AB300ED33FDCC33CCC833C810D7079BEC9AE891
:100AC30099400AED9BFDEC9AFCE899F80FD5F0DA12
:100AD300E4CDFBE4CCFAE4C8F922CFF4CFCEF4CED4
:100AE300CDF4CDCCF4CC22C3E49FFFE49EFEE49D81
:100AF300FDE49CFC22EB9FF5F0EA9E42F0E99D4267
:100B0300F0EC6480C864809845F022EB9FF5F0EA2E
:100B13009E42F0E99D42F0E89C45F022E8600FEC2C
:100B2300C313FCED13FDEE13FEEF13FFD8F122E820
:100B3300600FEFC333FFEE33FEED33FDEC33FCD830
:100B4300F122BB010789828A83020F725005E9F8FB
:100B5300020F66BBFE05E9F8020F7E89828A8302D3
:100B63000B7FBB010789828A83020BAB5005E9F82F
:100B7300020F8ABBFE05E9F8020F9622E493FC7488
:100B83000193FD740293FE740393FF22E0F8A3E044
:100B9300F9A3E0FAA3E0FB22E493F8740193F97458
:100BA3000293FA740393FB22ECF0A3EDF0A3EEF0AF
:100BB300A3EFF022A8828583F0D083D082120BCEDC
:100BC300120BCE120BCE120BCEE473E493A3C583A8
:100BD300C5F0C583C8C582C8F0A3C583C5F0C58366
:100BE300C8C582C822BB010789828A83020BB7501A
:100BF30005E9F8020FA2BBFE05E9F8020FBB22A428
:100C03002582F582E5F03583F58322E0FBA3E0FA44
:100C1300A3E0F922F8E0FBA3A3E0F925F0F0E582D5
:100C2300158270021583E0FA38F022F8E0FBA3A3E3
:100C3300E025F0F9F0E582158270021583E038FAB9
:100C4300F022EBF0A3EAF0A3E9F022D083D082F8FC
:100C5300E4937012740193700DA3A393F87401933A
:100C6300F5828883E4737402936860EFA3A3A3807F
:100C7300DF8A838982E473EC8EF0A4CCC5F0CCCDFB
:100C8300F8EFA4CEC5F02DFDE43CFCE8A42EC8C5C6
:100C9300F03DFDE43CFCEFA4FFE5F028FEE43DFD60
:100CA300E43CFC22E709F60870FA8046E709F208FB
:100CB30070FA803E88828C83E709F0A370FA807E05
:100CC300E309F60870FA8076E309F20870FA806E99
:100CD30088828C83E309F0A370FA806289828A8315
:100CE300E0A3F60870FA805689828A83E0A3F208AB
:100CF30070FA804A80D280FA80C680D4806580F200
:100D03008031801080A680EA809A80A880DA80E211
:100D130080CA803189828A83ECFAE493A3C8C582AE
:100D2300C8CCC583CCF0A3C8C582C8CCC583CC705E
:100D3300E9800D89828A83E493A3F60870F9ECFABB
:100D4300A9F0EDFB2289828A83ECFAE0A3C8C5826D
:100D5300C8CCC583CCF0A3C8C582C8CCC583CC702E
:100D6300EA80DD89828A83E493A3F20870F980CE56
:100D730088F0ED2402B4040050C4F582EB2402B4DD
:100D8300040050BA2323458223900CF773E3F5F054
:100D930009E208B5F06BDFF58067E3F5F009E608D3
:100DA300B5F05EDFF5805A87F009E608B5F052DF4B
:100DB300F6804E87F009E208B5F046DFF6804288F8
:100DC300828C8387F009E0A3B5F036DFF6803288A2
:100DD300828C8387F009E493A3B5F025DFF58021A6
:100DE30088828C83E3F5F009E0A3B5F014DFF58086
:100DF3001088828C83E3F5F009E493A3B5F002DF56
:100E0300F4020EBF808780E9809080D4803E8015F5
:100E1300806E807E809D80B7808D80A3805180749A
:100E2300803C020ECB89828A83ECFAE493F5F0A32B
:100E3300C8C582C8CCC583CCE493A3C8C582C8CC3B
:100E4300C583CCB5F076DFE3DEE1807089828A83E7
:100E5300E493F5F0A3E208B5F062DFF4805E8982E3
:100E63008A83E0F5F0A3E608B5F051DFF5804D89FC
:100E7300828A83E0F5F0A3E208B5F040DFF5803C19
:100E830089828A83E493F5F0A3E608B5F02EDFF4B4
:100E9300802A8002805789828A83ECFAE493F5F0F2
:100EA300A3C8C582C8CCC583CCE0A3C8C582C8CCBF
:100EB300C583CCB5F006DFE4DEE280007FFFB5F04A
:100EC300020F2240027F012289828A83ECFAE0F535
:100ED300F0A3C8C582C8CCC583CCE0A3C8C582C86B
:100EE300CCC583CCB5F0D5DFE5DEE380CF89828A3C
:100EF30083ECFAE0F5F0A3C8C582C8CCC583CCE483
:100F030093A3C8C582C8CCC583CCB5F0AFDFE4DEFC
:100F1300E280A988F0EF60010E4E60ABED2402B4CD
:100F230004005098F582EB2402B40400508E23236E
:100F3300458223900E0773EF4E6012EF60010EEDB2
:100F4300BB010B89828A83F0A3DFFCDEFA2289F0DE
:100F53005007F709DFFCA9F022BBFEFCF309DFFC15
:100F6300A9F022E6FC08E6FD08E6FE08E6FF22E01B
:100F7300FCA3E0FDA3E0FEA3E0FF22E2FC08E2FD08
:100F830008E2FE08E2FF22ECF608EDF608EEF608AA
:100F9300EFF622ECF208EDF208EEF208EFF222D0BF
:100FA30083D082E493F608740193F608740293F6EF
:100FB30008740393F6740473D083D082E493F20825
:100FC300740193F208740293F208740393F27404A5
:100FD30073900284EFF01297EBA3EFF0120C4E1311
:100FE30042011342021342121342131A82141A8249
:100FF300151A82161342171A62321A62331A82348E
:101003001A82351A82361342411342421A82501A07
:10101300FB531B29541B89551028601B91701033F7
:101023008000001B9C7F011297E89002857401F0F9
:1010330090061CE07021900284E0640A700B129504
:10104300AB7F011297E8021AF8900284E0640B70F8
:10105300061295AB0214B21295AB900284E0FF7EA8
:1010630000C3748094804056D3EF940974809480B5
:10107300504C90061CE0C3942074809480503F90A1
:10108300061BE0FF701A900284E0FD90061CE0FC52
:1010930004F0741D2CF582E43406F583EDF0801E14
:1010A300EF64014E7018900284E0FF90061CE0FE8E
:1010B30004F0743D2EF582E43406F583EFF09002DC
:1010C30084E0640A705290061BE0FF7E00700FA359
:1010D300E0FD14F0741D2DF582E434068015EF64F1
:1010E300014E701490061CE0FF14F0743D2FF5823E
:1010F300E43406F58374FFF090061CE06003021BE2
:101103009C90061BE070030214B290061BE064017E
:101113006003021B9C0214FA900284E0640B600BD0
:1011230090061CE0640F6003021B9C90061CE0C346
:10113300940F7480948050217F6512886DE490062B
:101143001CF090061BE0700302185F90061BE0641E
:10115300016003021B9C0218B090061BE070087F1D
:101163006812886D0218A790061BE06401600302F1
:101173001B9C781D7C067D017B017A06793DFE7FF1
:101183000F120F16EF3395E04F600302133A7B0102
:101193007A06791D12608890062AE0FF9005D7E051
:1011A3006F600302131E90062BE0FF9005D8E06FDB
:1011B300600302131E78887C027D017BFF7A997994
:1011C30041FE7F32120786E4900286F0900286E0A9
:1011D300C3940A74809480505AE4A3F0900287E089
:1011E300C39405748094805042E0FF900286E0FE31
:1011F30075F005A42488F582E43402F583E5822F93
:10120300F582E43583F583E0FDEE75F006A424DA78
:10121300F582E43405F583E5822FF582E43583F521
:1012230083EDF0900287E004F080B1900286E00441
:10123300F080997B017A06791D1297D39002D974B5
:1012430001F0A37405F0A374C3F0A37401F0A374B5
:1012530005F0A374A8F07B017A06791D7D0A122B91
:1012630063E4FF1290F2EF60030213087B01900224
:10127300D804F0A37402F0A374BAF07A0579CD12FE
:1012830036E31283087BFF7A9879ED12274B7BFFB5
:101293007A9879FF9002C4E0FFA3E090031ECFF099
:1012A300A3EFF09002C3E02401FE9002C2E03400F9
:1012B300900320F0A3CEF09002C0E0FFA3E09003E0
:1012C30022CFF0A3EFF09002BFE02408FE9002BE0D
:1012D300E03400900324F0A3CEF09002BCE0FFA31F
:1012E300E0900326CFF0A3EFF09002BAE0FFA3E073
:1012F300900328CFF0A3EFF012274B1282737F05E0
:1013030012886D802A7F0812886D1283087BFF7A0A
:1013130099792112274B12827380141283087BFF61
:101323007A99793112274B1282737F0812886D7F65
:10133300011297E8021A5F7FD312886D021A5F12B7
:101343009485EF6401700B1297F17F2E12886D0262
:1013530097AF90061CE07065900284E0640A703ACF
:10136300A3E064417003021B9C1295AB900285E0DD
:10137300FD7C00640170057F60021A7DED64024C00
:1013830070057F01021A7D900755E06401700874AF
:10139300FFF07F01021A7D021AF8900284E0640BC9
:1013A300701BA3E064016003021B9C1295ABE490E5
:1013B3000616F07F8312886D7F02021A7D1295ABA9
:1013C300900284E0FFC374809480407CD3EF94093F
:1013D30074809480507290061CE0C39420748094AF
:1013E300805065900285E0FF64016005EF64027040
:1013F30016900284E0FF90061CE0FE04F0741D2E9C
:10140300F582E43406803D90061BE0FF7E00701AEF
:10141300900284E0FD90061CE0FC04F0741D2CF5A2
:1014230082E43406F583EDF0801EEF64014E7018FC
:10143300900284E0FF90061CE0FE04F0743D2EF55C
:1014430082E43406F583EFF0900284E0640A6003DB
:1014530002152990061BE0FF7E00700FA3E0FD1428
:10146300F0741D2DF582E434068015EF64014E708F
:101473001490061CE0FF14F0743D2FF582E434064B
:10148300F58374FFF090061CE06003021B9C90023E
:1014930085E0640270057F83021B8E90061BE0705B
:1014A3003D900285E0FF64126005EF641770057FCD
:1014B30062021B8E900285E0641370057F74021B29
:1014C3008E900285E0644170057F89021B8E900235
:1014D30085E064426003021B9C7F62021B8E9006C0
:1014E3001BE064016003021B9C900285E0FF641211
:1014F3006005EF641770057F68021B8E900285E01C
:10150300641370057F04021B8E900285E0644170B2
:10151300057F68021B8E900285E064426003021B14
:101523009C7F68021B8E900284E0640B600B900624
:101533001CE064086003021B9C90061CE0FF7E0015
:10154300C394067480948040030217B5900285E02B
:1015530064016003021794EF6402701090061DE0AB
:10156300700AA3E0700612967C02180D90061CE028
:101573006401700CA3E064057006128BC202180D9F
:1015830090061CE06401700CA3E0640670061284EC
:10159300F902180D90061CE064026003021753A3BE
:1015A300E064016003021753A3E0640860030217B9
:1015B3005378887C027D017BFF7A997973FE7F0FD4
:1015C30012078678977C027D017BFF7A9979827E68
:1015D300007F32120786E4900286F0900286E0C311
:1015E300940A74809480505AE4A3F0900287E0C375
:1015F3009405748094805042E0FF900286E0FE756B
:10160300F005A42497F582E43402F583E5822FF5EF
:1016130082E43583F583E0FDEE75F006A424DAF564
:1016230082E43405F583E5822FF582E43583F5837F
:10163300EDF0900287E004F080B1900286E004F0C0
:1016430080997B017A027988126088900295E0FF85
:101653009005D7E06F600302180D900296E0FF90AB
:1016630005D8E06F600302180D7B017A02798812B6
:1016730097D39002D97401F0A37405F0A374C3F057
:10168300A37401F0A37405F0A374A8F07B017A029C
:1016930079887D0A122B63E4FF1290F2EF70107FBA
:1016A3000512886D1283087BFF7A9879ED800E7F8F
:1016B3000812886D1283087BFF7A99792112274BD0
:1016C3001282739002D87401F0A37402F0A374C958
:1016D300F07B017A0579CD1236E31283087BFF7A1A
:1016E3009879FF9002D3E0FFA3E090031ECFF0A30D
:1016F300EFF09002D2E02401FE9002D1E03400909A
:101703000320F0A3CEF09002CFE0FFA3E0900322EA
:10171300CFF0A3EFF09002CEE02408FE9002CDE0DC
:101723003400900324F0A3CEF09002CBE0FFA3E0BB
:10173300900326CFF0A3EFF09002C9E0FFA3E0905F
:101743000328CFF0A3EFF012274B12827302180D78
:1017530090061CE064027032A3E0702EA3E06401E3
:10176300702812980FEF6401700E90061604F07F34
:101773008312886D7F02800C7F01128EA67F5F1219
:10178300886D7F011297E802180D7F01128607808A
:10179300797F6512886DE490061CF090061BE0705B
:1017A3000302185F90061BE064016003021B9C02A6
:1017B30018B0900285E064017057A3F07B017A06AC
:1017C300791D90061CE0FD124563900286EFF0F44C
:1017D30070077F011286078031900286E064FE70F5
:1017E3001812980FEF64017010FF128EA67F60121B
:1017F300886D7F011297E88011900286E064017082
:10180300047F1180027F01125BEFE490061CF080DD
:101813004B900285E0640270507B017A06791D903B
:10182300061CE0FDE49002D9F0125DD1EFF47007DD
:101833007F8C12886D8020900616E064017010FF83
:10184300128EA67F6012886D7F011297E880087F51
:101853000112977F1291E3E490061CF0FE7F207D36
:10186300FF7B017A06791D804F90061BE0704C9038
:101873000285E0FF6412601BEF641770028014900E
:101883000285E0641370047F048016900285E0648F
:101893004170047F68800A900285E0644270057F8E
:1018A3006812886D90061B7401F0E4A3F0FE7F209C
:1018B3007DFF7B017A06793D020F3A90061BE064B7
:1018C300016003021B9C781D7C067D017B017A0667
:1018D300793DFE7F08120F16EF3395E04F60030248
:1018E3001A5A900285E0641370507B017A06791DC1
:1018F30090061CE0FD9002D97401F0125DD19002B4
:1019030086EFF0F470057F71021A5C900286E0FFA7
:101913007D01127E00EF7017900286E09001F4F0D3
:101923007F0512886D9001F4E0FF12954C80057FCE
:101933006E12886D1296BC021A5F7B017A06791DBE
:1019430090061CE0FD9002D97403F0125DD1EFF410
:1019530060057F86021A5C900285E0641270467B04
:10196300017A06791D90061CE0FD9002D97401F0FE
:10197300125EBDEF640170077F6E12886D800D7F6C
:101983000512886D9001F4E0FF12953C900755E035
:101993006401700B74FFF07F011297E8021A5F1263
:1019A30096B2021A5F900285E0644170377B017A38
:1019B30006791D90061CE0FDE49002D9F0125EBD8D
:1019C300EF640170077F6E12886D800D7F051288AA
:1019D3006D9001F4E0FF12953C12980CEF703912F0
:1019E30096A88078900285E06442702E7B017A0687
:1019F300791D90061CE0FDE49002D9F0125EBDEF64
:101A0300640170077F6E12886D800D7F0512886DEB
:101A13009001F4E0FF12953C8038900285E0641752
:101A2300703A7B017A06791D90061CE0FD9002D97D
:101A33007402F0125EBDEF640170077F6E12886D51
:101A430080101297CD7F0512886D9001F4E0FF128C
:101A5300953C1291E380057FD312886D028CC5906B
:101A63000284E0640A6003021B9C1295AB90075545
:101A7300E06401700874FFF07F010297E8807690BC
:101A83000284E0640B70601295AB900285E024EB56
:101A9300604614604624E2602814604214604224C5
:101AA300E66041243C6003021B9C12776FEF700ACF
:101AB3007F0512886D12979780057F0812886D80C5
:101AC30034127B1EEF700A7F0512886D1297A38074
:101AD300057F0812886D801D028EFE02962F028FED
:101AE3001B02963C0285C5900284E0640A600302EF
:101AF3001B9C1295AB0291E3900284E0640A70068A
:101B03001295AB0278D9900284E07003021B9C12F9
:101B13009785900284E0D39F507F1295AB90028407
:101B2300E014FF027EC9129791900286EFF064964B
:101B3300700B1295AB900284E0FF027C63900286E7
:101B4300E064997035900284E0640A70181295ABD2
:101B5300129663129809EF600280287F587E021262
:101B63008CEB029656900284E0640B702C1295ABBA
:101B73001296637D017F9902853E129809EF6019E1
:101B83001295AB0295E71297F17F4D02886D12977C
:101B9300F17F2F12886D1295F6229002FBE0F9A3D4
:101BA300E0FAA3E0900326C9F0A3EAF0A3E9F0A3C7
:101BB3007401F0A37403F0A37404F09002F8E0FB43
:101BC300A3E0FAA3E0F9900323EBF0A3EAF0A3E97F
:101BD300F09000061207C5FF3395E0FEEF24D0FF17
:101BE300EE34FFFE7C007D0A120826C006C0079073
:101BF30000051207C5FF3395E0FEEF24D0FFEE3456
:101C0300FFFE7D64120826D0E02FFFD0E03EFE9059
:101C130000071207C5FD3395E0FCED24D0FDEC343D
:101C2300FFCD2FFFED3E90032CF0A3EFF0E49003E4
:101C330038F0A3F0900326E0FBA3E0FAA3E0F91247
:101C430093FC900343EEF0A3EFF0E490034FF0A373
:101C5300F07A03795190032C1268CAE4900338F0A8
:101C6300A3F0900338E0FEA3E0FFC39405EE648085
:101C730094805063900323E0FBA3E0FAA3E0F98F81
:101C8300828E831207C5FF3395E0FEEF24D0FFEE6B
:101C930034FF90035BF0A3EFF090035BE0FEA3E05F
:101CA3002451F58274033EF583E0FD900339E0256A
:101CB300E0FF900338E033FE742E2FF58274033E69
:101CC300F583E4F0A3EDF0900339E004F070939012
:101CD3000338E004F0808B7E007F097D007B017A6E
:101CE30003793A120F3A900343E07004A3E06408C7
:101CF3007016783A7C037D01900326E0FBA3E0FA9B
:101D0300A3E0F9120D738079D3900344E094089013
:101D13000343E0648094804027900326E0F9A3E026
:101D2300FAA3E0900360C9F0A3EAF0A3E9F0A3E407
:101D3300F0A37408F07B017A03793A127CCC8041DA
:101D4300783A7C037D01900326E0FBA3E0FAA3E04D
:101D5300F9120D7390036074FFF0A3749AF0A374E7
:101D63000EF0900343E0FEA3E0FFC374089F9003CB
:101D730064F0E49E900363F07B017A03793A126284
:101D8300F890033BE0FB3395E0FA90033AE0FF332E
:101D930095E0FEC3EF9BFFEE9AFE90033CE0F9FD56
:101DA3003395E0FCEF2DFFEE3CFEA3E0FD3395E021
:101DB300FCC3EF9DFFEE9CFEA3E0FD3395E0FCEF3B
:101DC3002DFFEE3CFEA3E0FD3395E0FCC3EF9DFF4A
:101DD300EE9CFEA3E0FD3395E0FCEF2DFFEE3CFE11
:101DE300A3E0FD3395E0FCC3EF9DFFEE9C9003451C
:101DF300F0A3EFF0C374309BFFE49AFEE9FD339543
:101E0300E0FCEF2DFFEE3CFE90033DE0F9FB339544
:101E1300E0FAC3EF9BFFEE9AFEA3E0FB3395E0FAF3
:101E2300EF2BFFEE3AFEA3E0FB3395E0FAC3EF9B03
:101E3300FFEE9AFEA3E0FB3395E0FAEF2BFFEE3AB9
:101E4300FEA3E0FB3395E0FAC3EF9BFFEE9A90030A
:101E530047F0A3EFF0E9FF3395E0FEC3ED9FFFECFE
:101E63009EFE90033EE0FD3395E0FCEF2DFFEE3C3C
:101E7300FEA3E0FB3395E0FAC3EF9BFFEE9AFEA3CC
:101E8300E0FB3395E0FAEF2BFFEE3AFEA3E0FB33E2
:101E930095E0FAC3EF9BFFEE9A900349F0A3EFF0AE
:101EA300E9FF3395E0FEC374309FCFE49ECF2DCF7F
:101EB3003CFE90033FE0FD3395E0FCC3EF9DFFEE56
:101EC3009CFEA3E0F9FB3395E0FAEF2BFFEE3AFE1D
:101ED300A3E0FB3395E0FAC3EF9BFFEE9A90034B2D
:101EE300F0A3EFF090033EE0FF3395E0FEC3EF9DD8
:101EF300FFEE9CFEE9FD3395E0FCEF2DFFEE3CFE8B
:101F0300900341E0FD3395E0FCC3EF9DFFEE9C9011
:101F1300034DF0A3EFF0E4900338F0A3F0900338FF
:101F2300E0FAA3E0FB25E0FFEA33FE74452FF582D8
:101F330074033EF583E0FCA3E0FD742E2FF5827459
:101F4300033EF583E0FEA3E0C39DFFEE9CCF246434
:101F5300CF3400FE7C007D0A12088DEB25E0FFEAFA
:101F630033FE742E2FF58274033EF583ECF0A3ED5C
:101F7300F0900339E004F07006900338E004F09029
:101F83000338E07004A3E064057092E4900338F032
:101F9300A3F0900338E0FEA3E0FFC39405EE648052
:101FA3009480400302205F7C007D0212088DED4C7B
:101FB3007027E025E0FF900338E033FE742E2FF501
:101FC3008274033EF583A3E025E0FD0582D58202FA
:101FD30015831582E033FC8028900339E025E0FF68
:101FE300900338E033FE742E2FF58274033EF5839D
:101FF300E0FEA3E0FF7C007D03120826AC06AD07DC
:10200300EC1201B3C004C005C006C00790036112FF
:102013000BB740000000D007D006D005D004125003
:1020230047C004C005C006C00790034FE0FCA3E00F
:10203300FDEC1201B3D003D002D001D0001200BDD9
:102043001201EC90034FEEF0A3EFF0900339E0049C
:10205300F07006900338E004F0021F9590034FE000
:10206300FEA3E0FF90032CE06E7003A3E06F600318
:1020730002213690032EA3E0FF900329E0FBA3E0A7
:10208300FAA3E0F9EF1207F2900330A3E0FF900305
:1020930029E0FBA3E0FAA3E0F9900001EF120804A2
:1020A300900332A3E0900002120804900334A3E0EB
:1020B300900003120804900336A3E0900004120872
:1020C30004900323E0FBA3E0FAA3E0F990000512D8
:1020D30007C524D0FF900329E0FBA3E0FAA3E0F9AE
:1020E300900005EF120804900323E0FBA3E0FAA39A
:1020F300E0F99000061207C524D0FF900329E0FB06
:10210300A3E0FAA3E0F9900006EF1208049003237A
:10211300E0FBA3E0FAA3E0F99000071207C524D07F
:10212300FF900329E0FBA3E0FAA3E0F9900007EF97
:10213300020804E4900338F0A3F0900338E0FEA310
:10214300E0FFC39408EE648094805024900329E058
:10215300FBA3E0FAA3E0F98F828E8374FF120804D5
:10216300900339E004F070D2900338E004F080CAA1
:1021730022900323EBF0A3EAF0A3E9F09000061208
:1021830007C575F00AA4FDACF09000051207C575EC
:10219300F064A42DFFE5F03CFE9000071207C57C18
:1021A300002FFFEC3E90032CF0A3EFF0900326E00A
:1021B300FBA3E0FAA3E0F91293FC900341EEF0A332
:1021C300EFF0E4A3F0A3F090034FF0A3F07A0379C8
:1021D3005190032C1268CAE4900343F0A3F09003D8
:1021E30043E0FEA3E0FFC39405EE6480948050595E
:1021F300900323E0FBA3E0FAA3E0F98F828E83121E
:1022030007C5FF90035BE4F0A3EFF090035BE0FEF0
:10221300A3E02451F58274033EF583E0FD9003446B
:10222300E025E0FF900343E033FE742E2FF5827424
:10223300033EF583E4F0A3EDF0900344E004F07073
:102243009D900343E004F080957E007F097D007B31
:10225300017A037938120F3A900341E07004A3E046
:102263006408701678387C037D01900326E0FBA395
:10227300E0FAA3E0F9120D738079D3900342E0945E
:1022830008900341E0648094804027900326E0F99E
:10229300A3E0FAA3E0900360C9F0A3EAF0A3E9F096
:1022A300A3E4F0A37408F07B017A037938127CCCA1
:1022B300804178387C037D01900326E0FBA3E0FA9C
:1022C300A3E0F9120D7390036074FFF0A3749AF006
:1022D300A3740EF0900341E0FEA3E0FFC374089FD4
:1022E300900364F0E49E900363F07B017A037938F2
:1022F3001262F8900339E0FB3395E0FA900338E07B
:10230300FF3395E0FEC3EF9BFFEE9AFE90033AE0A6
:10231300F9FD3395E0FCEF2DFFEE3CFEA3E0FD332A
:1023230095E0FCC3EF9DFFEE9CFEA3E0FD3395E03B
:10233300FCEF2DFFEE3CFEA3E0FD3395E0FCC3EF85
:102343009DFFEE9CFEA3E0FD3395E0FCEF2DFFEE39
:102353003CFEA3E0FD3395E0FCC3EF9DFFEE9C90B4
:102363000345F0A3EFF0C374309BFFE49AFEE9FD4D
:102373003395E0FCEF2DFFEE3CFE90033BE0F9FBD1
:102383003395E0FAC3EF9BFFEE9AFEA3E0FB339590
:10239300E0FAEF2BFFEE3AFEA3E0FB3395E0FAC33E
:1023A300EF9BFFEE9AFEA3E0FB3395E0FAEF2BFFE2
:1023B300EE3AFEA3E0FB3395E0FAC3EF9BFFEE9A00
:1023C300900347F0A3EFF0E9FF3395E0FEC3ED9FE1
:1023D300FFEC9EFE90033CE0FD3395E0FCEF2DFF08
:1023E300EE3CFEA3E0FB3395E0FAC3EF9BFFEE9ACE
:1023F300FEA3E0FB3395E0FAEF2BFFEE3AFEA3E0FA
:10240300FB3395E0FAC3EF9BFFEE9A900349F0A3E9
:10241300EFF0E9FF3395E0FEC374309FCFE49ECF26
:102423002DCF3CFE90033DE0FD3395E0FCC3EF9DD3
:10243300FFEE9CFEA3E0F9FB3395E0FAEF2BFFEEF2
:102443003AFEA3E0FB3395E0FAC3EF9BFFEE9A90CD
:10245300034BF0A3EFF090033CE0FF3395E0FEC3A2
:10246300EF9DFFEE9CFEE9FD3395E0FCEF2DFFEEC3
:102473003CFE90033FE0FD3395E0FCC3EF9DFFEE90
:102483009C90034DF0A3EFF0E4900343F0A3F0908E
:102493000343E0FAA3E0FB25E0FFEA33FE74452F94
:1024A300F58274033EF583E0FCA3E0FD742E2FF563
:1024B3008274033EF583E0FEA3E0C39DFFEE9CCF51
:1024C3002464CF3400FE7C007D0A12088DEB25E0E6
:1024D300FFEA33FE742E2FF58274033EF583ECF08E
:1024E300A3EDF0900344E004F07006900343E0048E
:1024F300F0900343E07004A3E064057092E490035A
:1025030043F0A3F0900343E0FEA3E0FFC39405EE82
:102513006480948040030225D17C007D0212088DE3
:10252300ED4C7027E025E0FF900343E033FE742E6B
:102533002FF58274033EF583A3E025E0FD0582D5E4
:10254300820215831582E033FC8028900344E02542
:10255300E0FF900343E033FE742E2FF58274033EB5
:10256300F583E0FEA3E0FF7C007D03120826AC06A2
:10257300AD07EC1201B3C004C005C006C007900349
:1025830061120BB740000000D007D006D005D0047D
:10259300125047C004C005C006C00790034FE0FCBB
:1025A300A3E0FDEC1201B3D003D002D001D000129E
:1025B30000BD1201EC90034FEEF0A3EFF090034443
:1025C300E004F07006900343E004F0022507900353
:1025D3004FE0FEA3E0FF90032CE06E7003A3E06FD7
:1025E30060030226A290032EA3E0FF900329E0FBE1
:1025F300A3E0FAA3E0F9EF1207F2900330A3E0FFA0
:10260300900329E0FBA3E0FAA3E0F9900001EF12A5
:102613000804900332A3E0900002120804900334EC
:10262300A3E0900003120804900336A3E090000493
:10263300120804900323E0FBA3E0FAA3E0F990005F
:10264300051207C5FF900329E0FBA3E0FAA3E0F915
:10265300900005EF120804900323E0FBA3E0FAA324
:10266300E0F99000061207C5FF900329E0FBA3E001
:10267300FAA3E0F9900006EF120804900323E0FBAD
:10268300A3E0FAA3E0F99000071207C5FF9003291E
:10269300E0FBA3E0FAA3E0F9900007EF020804E4EB
:1026A300900343F0A3F0900343E0FEA3E0FFC39441
:1026B30008EE648094805024900329E0FBA3E0FAA1
:1026C300A3E0F98F828E8374FF120804900344E021
:1026D30004F070D2900343E004F080CA22E517248B
:1026E3001EF582E43403F583E005172290031B30C3
:1026F300070390031EE475F001120C170207AC20C8
:1027030000E97F2ED2008018EF540F2490D4344078
:10271300D4FF30040BEF24BFB41A0050032461FF2D
:10272300E51860021518051BE51B7002051A300732
:102733000E90031BE475F001120C17EF0207F2026F
:1027430094977403D2078003E4C207F51790031B21
:10275300120C45E4F518F51AF51BE51860077F2000
:1027630012272380F57519FFC201C200C202C203FA
:10277300C205C206C2081226EFFF700D3007057F9F
:1027830000122734AF1BAE1A22B4255FC2D5C20490
:102793001226EFFF24D0B40A00501A75F00A7818F5
:1027A30030D50508B6FF0106C6A426F620D5047069
:1027B30002D20380D924CFB41A00EF5004C2E5D269
:1027C30004022A26D20180C6D20080C0D20280BC75
:1027D300D2D580BAD20580B47F20122723200207E6
:1027E3007401B5180040F11226E0FF1227230227D7
:1027F3005DD208D20680951226E0FB1226E0FA127B
:1028030026E0F94A4B700679247A2B7BFF20022EAF
:10281300E518602A7E008E827583001207C5600664
:102823000EEE651970F0C2D5EBC0E0EAC0E0E9C076
:10283300E0EE122A87D0E0F9D0E0FAD0E0FB1207ED
:10284300ACFF60AAEBC0E0EAC0E0E9C0E0122723D6
:10285300D0E02401F9D0E03400FAD0E0FBE519041C
:1028630060DCD519D98087D20280A2122A6960F769
:10287300E519700104120417A919600DE51960091F
:1028830014F519122B11EF60F3EA30E702F404C3D5
:10289300995079EAF425190430E701E404F5198025
:1028A3000D122A6960C1EA05192519120417EA9065
:1028B300034AF030E701E4251904D5190420050182
:1028C30014122A87E4C0E0122B1190034AE060132C
:1028D30020E70714F012270B802204F0D0E014C085
:1028E300E07F0012270BE5196007122702151980F4
:1028F3000B300503122702D0E002275DD0E00480ED
:10290300C4122A69609EE5190412041790034AEA67
:10291300F0E5192005026001042404122A8774FFDC
:1029230004C0E0122B1112270BE5192005026003E6
:10293300122702D0E0B519E87F4512271590034A04
:10294300E07F2B30E7047F2DF404C0E0122723D06F
:10295300E075F00A84C0F012270CD0E012270C02B5
:10296300275D791080027908C206C2088008D2D593
:10297300790A8004790AC2D5E519047002F519E4CD
:10298300FAFDFEFF1226E0FC7B082001131226E06D
:10299300FD7B1030000A1226E0FE1226E0FF7B20AA
:1029A300EC3382D592D55013C3E43000069FFFE485
:1029B3009EFEE42001039DFDE49CFCE4CBF8C201F0
:1029C300EC700CCFCECDCCE824F8F870F38017C3AD
:1029D300EF33FFEE33FEED33FDEC33FCEB33FB99CA
:1029E3004002FB0FD8E9EB300105F8D0E0C448B250
:1029F30001C0E00AEC4D4E4F78207B0070C2EAB56F
:102A0300190040BCC0E0122A89D0F0D0E0200104B4
:102A1300C4C0E0C4B201C0F012270CD0F0D5F0EB73
:102A230002275D120C4E27FA5329655827CB4C27F2
:102A3300C74229694F29714429714927E0432977FE
:102A43005528A446290445286E472B445027CF2DEB
:102A530027D32E27F62B27D72327F4202B2D2A27FE
:102A63008F48000027EEE519B4FF037519061226F7
:102A7300E0FC1226E0FD1226E0FE1226E0FF9003A2
:102A830043020454790AA2D5200314300509B9106E
:102A9300020404B9080104A2D5200602500104204F
:102AA30002689202B518005034C0E07F2030031949
:102AB3007F30A20272067205500F122AE0C202C2D0
:102AC30006C205C2087F30800F300503E9C0E0125B
:102AD3002723300503D0E0F9D0E0B518CC30051733
:102AE3007F30B9100C1227237F583004077F78807A
:102AF30003B908031227233002057F2D0227237F02
:102B0300202008F87F2B2006F322920280CF7F003B
:102B1300B40700500B2443F582E43403F583E0FF4C
:102B230022286E756C6C2900D2011226E03001F860
:102B3300C201781830D50108F602278F2D5043497A
:102B4300581226E02403B405004001E4902B3F9380
:102B5300122714743A122714D20375180402296534
:102B63009002D5EBF0A3EAF0A3E9F0A3EDF0E49033
:102B730002FDF0A3F0A37405F0E4A3F090030B129D
:102B83000BB70000000090030F120BB7000000000A
:102B9300900313120BB700000000900317120BB73A
:102BA300000000007E007F0A7D007B017A0279DF4E
:102BB300120F3A7E007F0A7D007B017A0279E912C7
:102BC3000F3AE49002FDF09002FDE0FFC3940A7413
:102BD30080948050479002DCE0FBA3E0FAA3E0F985
:102BE3009002FDE0FEF5827583001207C5FD74DFD8
:102BF3002EF582E43402F583EDF08F8275830012A3
:102C030007C570109002FDE024DFF582E43402F57D
:102C130083740AF09002FDE004F080AB90031E740D
:102C230001F0A37403F0A3740BF0A37401F0A37475
:102C330003F0A3740FF09002D9E0FBA3E0FAA3E042
:102C4300F91252FEE49002FEF09002FD7403F0903C
:102C530002FDE0FFC3940D7480948050319002D53F
:102C6300E0FBA3E0FAA3E0F98F827583001207C5A6
:102C7300FF9002FEE024E9F582E43402F583EFF0ED
:102C83009002FEE004F09002FDE004F080C1E490C5
:102C930002FDF09002FDE0C3943B748094804003F6
:102CA300022E7590031E7401F0A37403F0A3741332
:102CB300F0A37401F0A37403F0A37417F07B017AFB
:102CC3000279E91252FE90030FE0FCA3E0FDA3E0BA
:102CD300FEA3E0FF900317E0F8A3E0F9A3E0FAA353
:102CE300E0FBC3120B0E5044900313E0FCA3E0FD82
:102CF300A3E0FEA3E0C39401FFEE9400FEED940075
:102D0300FDEC9400FC900313120BAB900317E0FC53
:102D1300A3E0FDA3E0FEA3E024A0FFEE3486FEEDD6
:102D23003401FDE43CFC900317120BAB90030BE062
:102D3300FCA3E0FDA3E0FEA3E0FF900313E0F8A3F0
:102D4300E0F9A3E0FAA3E0FBC3120B0E50219003BA
:102D530013E0FCA3E0FDA3E0FEA3E024A0FFEE3418
:102D630086FEED3401FDE43CFC900313120BAB90A3
:102D73000313E0FCA3E0FDA3E0FEA3E0FF90030B3D
:102D8300E0F8A3E0F9A3E0FAA3E0FBC3EF9BFFEEB7
:102D93009AFEED99FDEC98FC900313120BAB900394
:102DA30017E0FCA3E0FDA3E0FEA3E0FF90030FE028
:102DB300F8A3E0F9A3E0FAA3E0FBC3EF9BFFEE9ACD
:102DC300FEED99FDEC98FC900317120BAB7E007F90
:102DD3000A7D007B017A0279F3120F3A900317E020
:102DE300FCA3E0FDA3E0FEA3E0FF90031F120BABE7
:102DF3009003237401F0A37402F0A374F3F0A3E42B
:102E0300F0A37405F0A3E4F0A37405F0900313E0BA
:102E1300FCA3E0FDA3E0FEA3E0FF1257BB7E007F0F
:102E23000A7D007B017A0279E9120F3AE49002FEEF
:102E3300F09002D8E0FF9002FEE0FEC39F502A7498
:102E4300F32EF582E43402F583E0FF74DF2EF5827E
:102E5300E43402F583E024E8F582E43402F583EFF9
:102E6300F09002FEE004F080C89002FDE004F0025E
:102E73002C967E007F0A7D007B017A0279F3120F84
:102E83003A9002EBE0900300F07E007F0A7D007B26
:102E9300017A037901120F3A900300E075F006A45A
:102EA30024DAF9740535F0FA7B01C00390031EEBB5
:102EB300F0A37403F0A37401F0A3E4F0A37405F08A
:102EC300D003126C1AE49002FDF09002D8E0FF9058
:102ED30002FDE0FEC39F5066EE6402700D90030096
:102EE300E0FF9002FDE024F38039E49002FEF090CD
:102EF30002FEE0FFC3940A74809480503974012F5A
:102F0300F582E43403F583E0FF9002FDE0FE24E95B
:102F1300F582E43402F583E0B507139002FEE0FF87
:102F230074F32EF582E43402F583EFF08008900207
:102F3300FEE004F080B99002FDE004F0808C900282
:102F4300FD7402F09002D8E0FF9002FDE0FEC39F03
:102F5300502074F42EF582E43402F583E0FF74F319
:102F63002EF582E43402F583EFF09002FDE004F0E5
:102F730080D2900300E0FF9002D8E0FE24F2F582B5
:102F8300E43402F583EFF0EEFF7E0078CD7C057D1F
:102F9300017B017A0279F3120786128308E4900217
:102FA300FDF09002FDE0FFC3940A748094805025E5
:102FB3007BFF7A9979B474CD2FF582E43405F583D8
:102FC300E0FF90031EE4F0A3EFF012274B9002FD05
:102FD300E004F080CD028273900284EFF0A20192AC
:102FE300029002887403F012846E30010302336688
:102FF300900284E0FF25E02450F582E43498F583C1
:10300300E493FC740193FD75F002EFA424A7F58209
:10301300E5F03403F583ECF0A3EDF0900284E0FED9
:1030230090983093FF900287F075F002EEA424A7E6
:10303300F582E5F03403F583E0FCA3E0FD12894556
:10304300900284E0FD75F002A42408F582E5F034D3
:1030530004F583EEF0A3EFF075F002EDA42408F578
:1030630082E5F03404F583E0FEA3E0FF900285E0FF
:10307300FCA3E0FDD3EF9DEE9C500302325190027E
:1030830084E0FF75F002A42408F582E5F03404F52A
:1030930083E0FCA3E0FD900285E0FAA3E0FBD3ED1F
:1030A3009BEC9A500302316D75910775F002EFA402
:1030B30024A7F582E5F03403F583E0FEA3E0C3948F
:1030C300FFEE9401400302316D900284E0FF75F03E
:1030D30002A424A7F582E5F03403F583E475F00137
:1030E3001208C375F002EFA424A7F582E5F03403B8
:1030F300F583E0FCA3E0FD900287E0FF1289459091
:103103000284E0FD75F002A42408F582E5F034049E
:10311300F583EEF0A3EFF075F002EDA42408F58239
:10312300E5F03404F583E0FEA3E0FF75F002EDA4BF
:1031330024BFF582E5F03403F583EEF0A3EFF075D9
:10314300F002EDA42408F582E5F03404F583E0FEF3
:10315300A3E0FF75F002EDA424E3F582E5F0340368
:10316300F583EEF0A3EFF0023081E5CDC4540724DC
:1031730009F9E47F01FEFDFCA801120B32EF24F6EE
:10318300FBEE34FFFAED34FFF9EC34FFF8900284E0
:10319300E075F002A42408F582E5F03404F583E039
:1031A300FEA3E0FFE4FCFDD3120B0E4003023251F9
:1031B300900284E0FF75F002A424A7F582E5F034C1
:1031C30003F583E475F0011208C375F002EFA4243C
:1031D300A7F582E5F03403F583E0FCA3E0FD90025C
:1031E30087E0FF128945900284E0FD75F002A42474
:1031F30008F582E5F03404F583EEF0A3EFF075F003
:1032030002EDA42408F582E5F03404F583E0FEA37F
:10321300E0FF75F002EDA424BFF582E5F03403F579
:1032230083EEF0A3EFF075F002EDA42408F582E538
:10323300F03404F583E0FEA3E0FF75F002EDA4246F
:10324300E3F582E5F03403F583EEF0A3EFF09002AB
:1032530084E075F002A42408F582E5F03404F583D4
:10326300E0FEA3E0FF900285E0FCA3E0FDD3EF9D29
:10327300EE9C4003023366900284E0FF75F002A4E3
:103283002408F582E5F03404F583E0FCA3E0FD9027
:103293000285E0FAA3E0FBC3ED9BEC9A4003023303
:1032A3006675910775F002EFA424A7F582E5F03463
:1032B30003F583E0FEA3E0D39400EE9400500302F1
:1032C3003366900284E0FF75F002A424A7F582E53B
:1032D300F03403F58374FFF5F01208C375F002EFC1
:1032E300A424A7F582E5F03403F583E0FCA3E0FD15
:1032F300900287E0FF128945900284E0FD75F00299
:10330300A42408F582E5F03404F583EEF0A3EFF08E
:1033130075F002EDA42408F582E5F03404F583E0AA
:10332300FEA3E0FF75F002EDA424BFF582E5F034BF
:1033330003F583EEF0A3EFF075F002EDA42408F596
:1033430082E5F03404F583E0FEA3E0FF75F002EDBF
:10335300A424E3F582E5F03403F583EEF0A3EFF064
:1033630002327A227B007A0079089002FCE4F0A30F
:10337300740FF0E4FF9002F8EFF0A3EBF0A3EAF090
:10338300A3E9F07F0912976D9002F8E0147003022D
:10339300347824FE70030235451470030235A524E6
:1033A3000460030236DD9003017401F0A37400F09E
:1033B300A37400F0A37401F0A374F4F0E4FF129774
:1033C30067E4FF128EE1E49002FEF0A3F09002FCAA
:1033D300E0FEA3E0FFC39002FFE09F9002FEE09EA9
:1033E3005037E0FCA3E0FD9002F9E0FBA3E0FAA371
:1033F300E0F98D828C831207C5FBE4FF127861909C
:103403000300EFF070037F01229002FFE004F070ED
:10341300BC9002FEE004F080B4E49002FEF0A3F05E
:10342300900304E0FEA3E0FFC39002FFE09F90023D
:10343300FEE09E40030236E0E0FEA3E0FF2418FD19
:10344300E43EFC900301E0FBA3E0FAA3E0F98F82E2
:103453008E831207C5FBE4FF127861900300EFF03F
:1034630070037F01229002FFE004F070B39002FE2C
:10347300E004F080AB900301E4F0A37400F0A374C4
:1034830008F0A3E4F0A3740FF0E4FF129767E4FFDE
:10349300128EE1E49002FEF0A3F0900304E0FEA399
:1034A300E0FFC39002FFE09F9002FEE09E5037E0F2
:1034B300FCA3E0FD900301E0FBA3E0FAA3E0F98D98
:1034C300828C831207C5FBE4FF127861900300EF3F
:1034D300F070037F01229002FFE004F070BC9002C1
:1034E300FEE004F080B4E49002FEF0A3F09002FC4E
:1034F300E0FEA3E0FFC39002FFE09F9002FEE09E88
:1035030040030236E0E0FEA3E0FF2418FDE43EFCA6
:103513009002F9E0FBA3E0FAA3E0F98F828E831215
:1035230007C5FBE4FF127861900300EFF070037F9F
:1035330001229002FFE004F070B39002FEE004F079
:1035430080AB7F011297677F01128EE1E49002FE48
:10355300F0A3F09002FCE0FEA3E0FFC39002FFE0C3
:103563009F9002FEE09E40030236E0E0FCA3E0FDF4
:103573009002F9E0FBA3E0FAA3E0F98D828C8312B9
:1035830007C5FB7F01127861900300EFF070037FA2
:1035930001229002FFE004F070B99002FEE004F013
:1035A30080B1900301E4F0A37400F0A37408F0A3C6
:1035B300E4F0A3740FF0A37401F0A37400F0A374F8
:1035C30000F0A37401F0A374F4F0E4FF129767E42E
:1035D300FF128EE1E49002FEF0A3F0900304E0FEFC
:1035E300A3E0FFC39002FFE09F9002FEE09E5037EE
:1035F300E0FCA3E0FD900301E0FBA3E0FAA3E0F904
:103603008D828C831207C5FBE4FF1278619003005F
:10361300EFF070037F01229002FFE004F070BC9092
:1036230002FEE004F080B4E49002FEF0A3F0900305
:1036330009E0FEA3E0FFC39002FFE09F9002FEE0DB
:103643009E503DE0FEA3E0FF2418FDE43EFC900302
:1036530006E0FBA3E0FAA3E0F98F828E831207C58D
:10366300FBE4FF127861900300EFF070037F012207
:103673009002FFE004F070B69002FEE004F080AE2A
:10368300E49002FEF0A3F09002FCE0FEA3E0FFC38F
:103693009002FFE09F9002FEE09E5041E0FEA3E017
:1036A300FF2414FDEE3402FC9002F9E0FBA3E0FAE0
:1036B300A3E0F98F828E831207C5FBE4FF127861C2
:1036C300900300EFF070037F01229002FFE004F00B
:1036D30070B59002FEE004F080AD7F01227F0022EE
:1036E3009002D5EBF0A3EAF0A3E9F09002DB120B12
:1036F300B700000000124ED29002D8E0FBA3E0FA1C
:10370300A3E0F9EE8FF01209749002E6740AF0A3B5
:103713007401F0A37406F0A37469F09002D5E0FB82
:10372300A3E0FAA3E0F97D3C7C0012479C7B017A7D
:10373300067969124ED29002D8E0FBA3E0FAA3E027
:10374300F9900002EE8FF01209939002E6740AF0EA
:10375300A37401F0A37406F0A37469F07B017A06E5
:10376300F97D3C7C0012479C7B017A0679697D0ACE
:1037730012622B9002DB120BABE47BF87A88F9F828
:103783009002DBE0FCA3E0FDA3E0FEA3E0FF120A4E
:103793004B7802120B32EF24B2FFEE3407FE900295
:1037A300D8E0FBA3E0FAA3E0F990000AEE8FF01251
:1037B30009939002DBE0FCA3E0FDA3E0FEA3E0FF9E
:1037C300E47BF87A88F9F8120A4BAC00AD01AE023B
:1037D300AF0302386D9002DF7422F0A37438F090C7
:1037E30002D8E0FBA3E0FAA3E0F990000A1208EF85
:1037F3005403700E9002E0E02418F09002DFE034EE
:1038030000F09002DFE0FEA3E0FFEE3395E0FDFC65
:103813009002DBE0F8A3E0F9A3E0FAA3E0FBC31214
:103823000B0E404F9002D8E0FBA3E0FAA3E0F9901F
:10383300000AE475F0011209279002DBE0FCA3E023
:10384300FDA3E0FEA3E0FFC006C007A3E0FEA3E0E4
:10385300FBAA06EA3395E0F9F8D007D006C3EF9B3D
:10386300FFEE9AFEED99FDEC98FC9002DB120BAB98
:103873000237D8E47B18FAF9F89002DBE0FCA3E006
:10388300FDA3E0FEA3E0FF120A4BAE02AF039002DA
:10389300D8E0FBA3E0FAA3E0F9900004EE8FF01266
:1038A30009939002DBE0FCA3E0FDA3E0FEA3E0FFAD
:1038B300E47B18FAF9F8120A4B9002DB120BAB9077
:1038C30002DBE0FCA3E0FDA3E0FEA3E02401FFE4B0
:1038D3003EFEE43DFDE43CFC9002DB120BAB9002A8
:1038E300D8E0FBA3E0FAA3E0F990000A1208EF5432
:1038F3000370767F3CFEFDFC9002DBE0F8A3E0F969
:10390300A3E0FAA3E0FBD3120B0E40249002DBE00A
:10391300FCA3E0FDA3E0FEA3E024FFFFEE34FFFEE3
:10392300ED34FFFDEC34FFFC9002DB120BAB80396E
:10393300E47F3CFEFDFC9002DBE0F8A3E0F9A3E0AA
:10394300FAA3E0FBC3120B0E701F9002D8E0FBA397
:10395300E0FAA3E0F9900008E475F00112099390EE
:103963000006E475F01D023A329002D8E0FBA3E0B2
:10397300FAA3E0F9900008E4F5F01209939002D855
:10398300E0FBA3E0FAA3E0F99000081208EF245D3E
:10399300F582740635F0F583E0FF3395E0FEFDFC18
:1039A3009002DBE0F8A3E0F9A3E0FAA3E0FBD31273
:1039B3000B0E40609002DBE0FCA3E0FDA3E0FEA35E
:1039C300E0FFC0079002D8E0FBA3E0FAA3E0F99080
:1039D30000081208EF245DF582740635F0F583E0E4
:1039E300FB3395E0FAF9F8D007C3EF9BFFEE9AFE9D
:1039F300ED99FDEC98FC9002DB120BAB9002D8E042
:103A0300FBA3E0FAA3E0F9900008E475F0011209C2
:103A1300270239809002DBA3A3E0FEA3E0FF90021C
:103A2300D8E0FBA3E0FAA3E0F9900006EE8FF012D2
:103A3300099322AB07EB25E024A7F582E43498F53C
:103A430083E493FF740193900288CFF0A3EFF0EB2C
:103A530025E024A7F582E43498F583E493FC74010C
:103A630093FD909897E493FF7E00120826EEC4F826
:103A730054F0C868FEEFC4540F48FF90028AEEF07A
:103A8300A3EFF075F002EBA42408F582E5F034040B
:103A9300F583E0FEA3E0FF75F002EBA424BFF582FB
:103AA300E5F03403F583E0FCA3E0C39FFFEC9EFE47
:103AB300900286F0A3EFF0C3EE648094805003027B
:103AC3003C13A3E0FEA3E0FF900286E0FCA3E0FD2D
:103AD3009FEE6480F8EC648098401074732BF58239
:103AE300E43403F5837401F0023BDF90028AE0FEC5
:103AF300A3E0FFC3ED9FEE6480F8EC648098405828
:103B030074382BF582E43404F583E004F0748B2BD2
:103B1300F582E43403F583E4F0742C2BF582E4346A
:103B230004F583E4F0747F2BF582E43403F583E436
:103B3300F074382BF582E43404F583E0FF900749F1
:103B4300E0FEEFC39E5003023BDF74382BF582E4A3
:103B53003404F583E4F0806E74382BF582E4340486
:103B6300F583E4F0748B2BF582E43403F583E004EE
:103B7300F0742C2BF582E43404F583E4F0747F2B8A
:103B8300F582E43403F583E4F0748B2BF582E4349B
:103B930003F583E0FF90074BE0FEEFC39E403D74C7
:103BA3008B2BF582E43403F583E4F075F002EBA488
:103BB30024BFF582E5F03403F583E0FEA3E0D3945C
:103BC30000EE9400401675F002EBA424BFF582E5E5
:103BD300F03403F58374FFF5F01208C39098E9E419
:103BE30093FE740193FFC3900289E09FFF900288C4
:103BF300E09EFEC3900287E09F900286E09E400312
:103C0300023D8474732BF582E43403F583E4F022DC
:103C130074732BF582E43403F583E4F090028AE0B5
:103C2300FEA3E0FFC3E49FFFE49EFEC3900287E090
:103C33009FEE6480F8900286E0648098406C74384C
:103C43002BF582E43404F583E4F0748B2BF582E4E2
:103C53003403F583E4F0742C2BF582E43404F58308
:103C6300E004F0747F2BF582E43403F583E4F0740D
:103C73002C2BF582E43404F583E0FF900748E0FE43
:103C8300EFC39E5003023D84742C2BF582E434046D
:103C9300F583E4F075F002EBA424BFF582E5F0347C
:103CA30003F583E475F001023D8174382BF582E45A
:103CB3003404F583E4F0748B2BF582E43403F58349
:103CC300E4F0742C2BF582E43404F583E4F0747F80
:103CD3002BF582E43403F583E004F0747F2BF58243
:103CE300E43403F583E0FF90074AE0FEEFC39E5000
:103CF30003023D84747F2BF582E43403F583E4F0FF
:103D0300900289E025E0FD900288E033FCE0A2E721
:103D130013FEA3E0132DFFEE3CFEC3E49FFFE49EDE
:103D2300FED3900287E09FEE6480F8900286E06401
:103D33008098502975F002EBA42408F582E5F0344D
:103D430004F583E0FEA3E0FF75F002EBA424BFF5C6
:103D530082E5F03403F583EEF0A3EFF02290028ABC
:103D6300E0FEA3E0FF7C007D0512088D75F002EBF9
:103D7300A424BFF582E5F03403F583EE8FF0120837
:103D8300C3229002F8EBF0A3EAF0A3E9F0E4900376
:103D93001CF0A3F0A3F0A3F0A3F0A3F0A3F0FE7F25
:103DA30008FD7B017A037904120F3A7E007F087DB8
:103DB300007B017A03790C120F3A7E007F087D00A5
:103DC3007B017A037914120F3A9002FEE0FBA3E021
:103DD300FAA3E0F9EA494B70030240511207ACF42D
:103DE3006003023F019000011207C5F46003023F24
:103DF300019000021207C5F46003023F0190000323
:103E03001207C5F46003023F019000041207C5F4D2
:103E13006003023F019000051207C5F46003023FEF
:103E2300019000061207C5F46003023F01900007EA
:103E33001207C5F46003023F01121B9D900304E0C7
:103E4300F9F4700690031CF0FF22900305E0FF7E57
:103E5300007C037DE8120826AA06AB07E9FF7E0073
:103E63007C277D10120826EF2BFDEE3AFCA3E075AC
:103E7300F064A42DFDE5F03CFCA3E075F00AA42D4D
:103E8300FFE5F03CFEA3E07C002FFFEC3EFE900339
:103E93001DF0A3EFF0C3900320E09FEE6480F89041
:103EA300031FE06480984003024049E4900321F03B
:103EB300A3F09002F8E0FBA3E0FAA3E0F99003215A
:103EC300E0FEA3E0FFF5828E831207C524D0FD74C4
:103ED3000C2FF58274033EF583EDF0900322E0048A
:103EE300F07006900321E004F0900321E07004A336
:103EF300E0640870BD90031C7401F0024049900215
:103F0300FBE0F9A3E0FAA3E0900326C9F0A3EAF0EB
:103F1300A3E9F0A37401F0A37403F0A37414F09065
:103F230002FEE0FBA3E0FAA3E0F91221749003146C
:103F3300E0F47003024052121B9D900304E0F470FE
:103F430003024052900305E0FF7E007C037DE812EC
:103F53000826AA06AB07900304E0FF7E007C277DBA
:103F630010120826EF2BFDEE3AFC900306E075F0E5
:103F730064A42DFDE5F03CFCA3E075F00AA42DFF3D
:103F8300E5F03CFEA3E07C002FFFEC3E90031DF028
:103F9300A3EFF0900315E0FF7E007C037DE8120899
:103FA30026AA06AB07900314E0FF7E007C277D1052
:103FB300120826EF2BFDEE3AFC900316E075F06431
:103FC300A42DFDE5F03CFCA3E075F00AA42DFFE56C
:103FD300F03CFEA3E07C002FFFEC3EFE90031FF0BD
:103FE300A3EFF0D390031EE09FEE6480F890031DCF
:103FF300E06480984050E4900321F0A3F09002F82D
:10400300E0FBA3E0FAA3E0F9900321E0FEA3E0FFC5
:10401300F5828E831207C524D0FD740C2FF58274AC
:10402300033EF583EDF0900322E004F07006900365
:1040330021E004F0900321E07004A3E0640870BD64
:1040430090031C7401F07E007F087D008009E490DA
:10405300031CF0FE7F08FD900301E0FBA3E0FAA33D
:10406300E0F9120F3A900301E0FBA3E0FAA3E0F8B2
:10407300AC02AD037B017A03790C7E007F08120743
:104083008690031CE0FF22C10AC10CC10BC1094188
:10409300044400420734000041073600410708008A
:1040A30041071F004107090054070B0000000000EF
:1040B30000000000000000000000000000000041BC
:1040C300070A004207530000410755FF4107560303
:1040D300011C00011E00011D00011F0041061C0000
:1040E30041061BFF0123FF0122FF41061700410682
:1040F3001600410618004106190041061A00410640
:104103001500609404EF0223000327000423000733
:1041130025000826000A27000D23000F2500082488
:10412300001627001E27002023001F270028230036
:104133002B24002C24002D240051425243250051EE
:1041430046524925005144524525005148524725BE
:1041530000514A524B2500513352345335250051F7
:1041630036523853392500513A523C533D250051BC
:104173003E5240534125000627005142250051304D
:1041830052312500513A523C2500513052325333BB
:1041930054345535565D576125004104E800420407
:1041A300DF00004204E100004204EA00004104DEB3
:1041B300004104E9004104EC00410445004104EDE1
:1041C300004104EE004204DC00004304E50000006B
:1041D3006082045A01030000000107000000010887
:1041E3000000000109000000010BFF96EE010CFF27
:1041F30090C0010CFF90D9019EFF8F38010A000087
:10420300000A04FF8E0802080000000209000000F3
:10421300020BFF96EE030DFF8EFE030FFF962F0397
:1042230010FF96C60747FF8F1B0749FF963C074AB7
:10423300FF96E40882FF9649096A0000000984009A
:1042430000006A69FF905C6A68FF9075846FFF9055
:104253008E8470FF90A75E06EA01E602B303BB05F6
:10426300C307CB0895099B0ADA06E06AA76AA78306
:10427300A184AD9FFFFFFF4C06BB000000000000C0
:1042830000000000000041075000420751000041B8
:1042930001F4FF4107380041073F0042073D00009A
:1042A3004407399607999B4107370042074E0000A0
:1042B30041074C0041074D004A0669FF000000001A
:1042C30000000000004C065D1F1C1F1E1F1E1F1F49
:1042D3001E1F1E1F603006730000001F003B005AA4
:1042E3000078009700B500D400F301110130014EAE
:1042F3000000001F003C005B0079009800B600D569
:1043030000F401120131014F007B01E4FD9002DD55
:10431300EBF0A3EAF0A3E9F0A3EDF0E49002E5F0FB
:10432300A3F0A3F0A37403F0A374E8F0EDD3940017
:10433300748094805003024468C2AFE49002E5F0B5
:104343009002E0E0FF9002E5E0FEC39F502190025F
:10435300DDE0FBA3E0FAA3E0F98E82758300120788
:10436300C5FDE4FF128C9F9002E5E004F080D1903C
:1043730002E874FFF5F01208C345F07003024463CA
:104383007F017E00128CEB900736E0C394027480A9
:10439300948040DBE49002E5F0900736E0FF900262
:1043A300E5E0FEC39F506274202EF582E43407F5E6
:1043B30083E0FD644B6022ED6449601DED6442605F
:1043C30018ED64466013ED6452600EED644D6009B0
:1043D300ED644A6004EDB47128EDB44A079002E736
:1043E300EEF08025EEFDC3EF9DFFE49400FEC3EFE6
:1043F3009402EE6480948040089002E5E09002E726
:10440300F09002E5E004F080909002E7E09002E58E
:10441300F0900736E0FF9002E5E0FEC39F40030201
:10442300455574202EF582E43407F583E0FF9002AE
:10443300E1E0FBA3E0FAA3E0F99002E6E0FEF582F7
:10444300758300EF1208049002E4E0146E70030217
:1044530045559002E6E004F09002E5E004F080B1F7
:10446300D2AF024560C2AF9002E874FFF5F01208C4
:10447300C345F0700302455E7F017E00128CEB9012
:104483000736E0C394027480948040DBE49002E535
:10449300F0900736E0FF9002E5E0FEC39F506274A0
:1044A300202EF582E43407F583E0FD644B6022EDB2
:1044B3006449601DED64426018ED64466013ED6469
:1044C30052600EED644D6009ED644A6004EDB47111
:1044D30028EDB44A079002E7EEF08025EEFDC3EF26
:1044E3009DFFE49400FEC3EF9402EE648094804049
:1044F300089002E5E09002E7F09002E5E004F08026
:10450300909002E7E09002E5F0900736E0FF90021A
:10451300E5E0FEC39F503B74202EF582E43407F59B
:1045230083E0FF9002E1E0FBA3E0FAA3E0F990024D
:10453300E6E0FEF582758300EF1208049002E4E0E2
:10454300146E600E9002E6E004F09002E5E004F0E1
:1045530080B7E4900736F0D2AFFF22D2AF7F0022BC
:104563009002D5EBF0A3EAF0A3E9F0A3EDF0E4A306
:10457300F0A3F09002E5F0A374FFF0E49002D9F009
:104583009002D9E0FFC39464748094804003024690
:104593007975F005EFA42404F582E5F03400F58382
:1045A300E0F470030246707E007F087DFF7B017A92
:1045B3000279DD120F3A9002D9E075F005A42400C8
:1045C300F9740035F0FA7B01C0039002FBEBF0A312
:1045D3007402F0A374DDF0D0031273839002E5EF4D
:1045E300F0E49002DBF09002E5E0FF9002DBE02FC5
:1045F300FFE433FE9002D8E0FDD3EF9D7480F86EA4
:1046030098505EE49002DCF09002E5E0FF9002DC5B
:10461300E0FEC39F5037EEFF9002DBE02FFFE43351
:10462300FE9002D5E0FBA3E0FAA3E0F98F828E832C
:104633001207C5FF9002DCE024DDF582E43402F5C5
:1046430083E0B507089002DCE004F080BB9002E54C
:10465300E0FF9002DCE06F60089002DBE004F08092
:10466300859002E5E0FF9002DCE06F60099002D9DB
:10467300E004F00245839002D9E0C394647480940B
:10468300805007E0FF9001F4F022E49002F7F0FE7F
:104693007F087DFF7B017A0279E7120F3A9002FBD4
:1046A3007401F0A37402F0A374E7F07B017A00793C
:1046B300001273839002E5EFF0E49002D9F09002C8
:1046C300D9E0FFC3940874809480507574E72FF584
:1046D30082E43402F583E0F49002D9700EE024E71B
:1046E300F582E43402F583E4F0800EE024E7F582FA
:1046F300E43402F583E02430F09002D5E0FBA3E03C
:10470300FAA3E0F99002D9E0FFF58275830012075E
:10471300C5FEF4700E74DD2FF582E43402F583E4F4
:10472300F080159002D9E0FFEE2430FE74DD2FF502
:1047330082E43402F583EEF09002D9E004F00246FD
:10474300C19002FB7401F0A37402F0A374E7F0A319
:10475300E4F0A37400F0A3740FF0A37401F0A37446
:1047630002F0A374EFF07B017A0279DD123D8590AC
:1047730002F7EFF0D39400748094804019780F7C93
:10478300007D007B017A0279EF7E007F08120786A5
:104793001233677FFE227FFF229002E1EBF0A3EA50
:1047A300F0A3E9F0A3ECF0A3EDF09002EC120BB749
:1047B300000000009002F0120BB70000000090020E
:1047C300FE740AF0E49002EAF09002E6E0FF900241
:1047D300EAE0FEC39F50289002E1E0FBA3E0FAA3C6
:1047E300E0F98E827583001207C5F4700A9002EA1D
:1047F300E09002FEF080089002EAE004F080CA7EB6
:10480300007F0A7DFF7B017A0279F4120F3AE4906C
:1048130002EBF09002EAF09002FEE0FF9002EAE081
:10482300C39F400302492A9002E1E0FBA3E0FAA3FD
:10483300E0F99002EAE0F5827583001207C5FFE410
:10484300FCFDFEC004C005C006C0077F0A9002F04D
:10485300E0F8A3E0F9A3E0FAA3E0FB1209C0D00358
:10486300D002D001D000EF2BFFEE3AFEED39FDEC84
:1048730038FCC006C0079002E4E0FEA3E0FBAA06F2
:10488300E4F9F8D007D006120A4B9002EC120BABF6
:104893009002E1E0FBA3E0FAA3E0F99002EAE0F57D
:1048A300827583001207C5FFE4FCFDFEC004C0054A
:1048B300C006C0077F0A9002F0E0F8A3E0F9A3E086
:1048C300FAA3E0FB1209C0D003D002D001D000EF5D
:1048D3002BFFEE3AFEED39FDEC38FCC006C0079025
:1048E30002E4E0FEA3E0FBAA06E4F9F8D007D00651
:1048F300120A4BAC00AD01AE02AF039002F0120BF3
:10490300AB9002ECA3A3A3E0FF9002EBE024F4F549
:1049130082E43402F583EFF09002EBE004F09002BE
:10492300EAE004F002481AE49002EAF09002E6E0BA
:10493300FF9002EAE0FEC39F501574F42EF582E463
:104943003402F583E070089002EAE004F080DDE4CD
:104953009002EBF09002E6E0FF9002EBE0FEC39FD3
:1049630050529002EAE0FDC39F502874F42DF58263
:10497300E43402F583E0FF9002E7E0FBA3E0FAA34F
:10498300E0F98E82758300EF1208049002EAE004D6
:10499300F080199002E7E0FBA3E0FAA3E0F99002AC
:1049A300EBE0F58275830074FF1208049002EBE0DC
:1049B30004F080A07F0022AB07EBC39420748094A3
:1049C30080500AE47F01FEFDFCA803800BE47F0115
:1049D300FEFDFCEB24E0F9F8120B32900282120B7D
:1049E300ABEBC39420748094805003024AB2759653
:1049F30051900282A3A3A3E0FFEF429775965290D2
:104A03000282E0FCA3E0FDA3E0FEA3E0FF7808122E
:104A13000B1FEF4297EBC3942474809480500E9045
:104A23000282A3A3A3E0540FFFEF42EA22EBC39455
:104A33002674809480501B900282E0FCA3E0FDA3C7
:104A4300E0FEA3E0FF7804120B1FEF5403FFEF42D5
:104A5300EB22EBFFC3942C748094805037EF642ACD
:104A63006005EF642B7012900282E0FCA3E0FDA3CB
:104A7300E0FEA3E0FF78048010900282E0FCA3E054
:104A8300FDA3E0FEA3E0FF7806120B1FEF54CFFF58
:104A9300EF42EC22900282E0FCA3E0FDA3E0FEA340
:104AA300E0FF780C120B1FEF540FFFEF42EE22755D
:104AB3009626900282A3A3A3E0FFEF429775962761
:104AC300900282E0FCA3E0FDA3E0FEA3E0FF7808F0
:104AD300120B1FEF540FFFEF429775962890028237
:104AE300E0FCA3E0FDA3E0FEA3E0FF7810120B1FA0
:104AF300EF4297759629900282E0FCA3E0FDA3E0C4
:104B0300FEA3E0FF7818120B1FAB07EB429790024E
:104B130082E0FCA3E0FDA3E0FEA3E0FF7802120B1A
:104B230032EF54FCFFEF42EB900282E0FCA3E0FD86
:104B3300A3E0FEA3E0FF7802120B1FEF5430FFEF58
:104B430042EC900282E0FCA3E0FDA3E0FEA3E0FFC1
:104B53007804120B1FEF54F0FFEF42EE900282E055
:104B6300FCA3E0FDA3E0FEA3E0FF780C120B1FEF14
:104B730054F0FFEF42EF900282E0FCA3E0FDA3E0DC
:104B8300FEA3E0FF7814120B1FEF540FFFEF42F266
:104B9300EB42F722900284EFF0E4A3F0A3F0129724
:104BA300EBA3EFF06470700B1297F17F2F12886DF7
:104BB3000295F6900287E0646070057F011297E822
:104BC300900287E0FF7E006401600DEF64326008AD
:104BD300EF64336003024D59EF64544E700B129728
:104BE30091EF64076003024D591297F1129485EF18
:104BF300640170087F2E12886D0297BB900287E0D4
:104C03006454703790061BE0FF128098900285EF82
:104C1300F06003024D5990061BE07003024CEC1246
:104C23008E88900285EFF0700A7D017F0712853E22
:104C3300024D3D7FD312886D024D3D7B017A02798F
:104C4300861287BF900285EFF06003024CCF90027B
:104C530087E0640170057F04025BEF900287E064E4
:104C63003270057F19024D56900287E0643360036A
:104C7300024D5990061BE0FF128098900285EFF0D9
:104C8300704590061BE07002805F128E889002854B
:104C9300EFF0702CA3E0FF127A39900285EFF070E9
:104CA30015A3E09001F4F07F0512886D9001F4E004
:104CB300FF12956C80057F6E12886D1296DA80055F
:104CC3007FD312886D80737F7A024D56900287E0FE
:104CD3006432707090061BE0FF128098900285EF9B
:104CE300F0705D90061BE0700C7F1812886D9006C3
:104CF3001B7401F022128E88900285EFF07036FF4C
:104D0300129439900285EFF0700F7F0512886D9031
:104D130001F4E0FF12955C80057F6E12886D9007A9
:104D230055E06401700A74FFF07F011297E8800A6E
:104D33001296D080057FD312886DE490061BF02273
:104D43007F7A800F900287E0640170057F040286FA
:104D5300077F8012886D22EFB407004003024ED113
:104D6300904D6AF8282873024D7F024DA6024DCC60
:104D7300024E17024E65024E88024EABEB7009EDF0
:104D830042EA759617024E20EB64017009ED42EA80
:104D9300759617024EC4EB64026003024ED1EDF424
:104DA30052EA22EB7008ED42EB759618806FEB64C4
:104DB300017009ED42EB759618024EC4EB64026074
:104DC30003024ED1EDF452EB22EB7008ED42EC7589
:104DD30096198049EB64017009ED42EC759619024E
:104DE3004EC4EB64027015EDF452ECED54307003D5
:104DF300024ED1759625C4540F024EB5EB64036081
:104E030003024ED1EDF452EC759625ED5430C454A3
:104E13000F429722EB700AED42EE75961BED024EA0
:104E2300B5EB64017009ED42EE75961B024EC4EBBF
:104E330064027015EDF452EEED54307003024ED15E
:104E43007596251313543F8069EB64036003024E88
:104E5300D1EDF452EE759625ED54301313543F42C1
:104E63009722EB7009ED42EF75961CED8044EB64DD
:104E7300017008ED42EF75961C8046EB6402704E9C
:104E8300EDF452EF22EB7009ED42F275961DED80C1
:104E930021EB64017008ED42F275961D8023EB64EB
:104EA30002702BEDF452F222EB700BED42F7759684
:104EB3001EEDF4529722EB6401700AED42F77596EA
:104EC3001EED429722EB64027004EDF452F7229038
:104ED30002E6740AF07D3C7C009002E1EBF0A3EA69
:104EE300F0A3E9F0A3ECF0A3EDF09002E8120BB706
:104EF300000000009002EC120BB7000000009002CB
:104F0300F0740AF0E49002E7F09002E6E0FFA3E019
:104F1300FEC39F50289002E1E0FBA3E0FAA3E0F96F
:104F23008E827583001207C5F4700A9002E7E09041
:104F330002F0F080089002E7E004F080CCE49002F5
:104F4300E7F09002F0E0FF9002E7E0C39F40030226
:104F530050389002E1E0FBA3E0FAA3E0F99002E706
:104F6300E0F5827583001207C5FFE4FCFDFEC00473
:104F7300C005C006C0077F0A9002ECE0F8A3E0F981
:104F8300A3E0FAA3E0FB1209C0D003D002D001D002
:104F930000EF2BFFEE3AFEED39FDEC38FCC006C006
:104FA300079002E4E0FEA3E0FBAA06E4F9F8D007C9
:104FB300D006120A4B9002E8120BAB9002E1E0FB21
:104FC300A3E0FAA3E0F99002E7E0F582758300120B
:104FD30007C5FFE4FCFDFEC004C005C006C0077F93
:104FE3000A9002ECE0F8A3E0F9A3E0FAA3E0FB12D5
:104FF30009C0D003D002D001D000EF2BFFEE3AFE60
:10500300ED39FDEC38FCC006C0079002E4E0FEA3D6
:10501300E0FBAA06E4F9F8D007D006120A4BAC006D
:10502300AD01AE02AF039002EC120BAB9002E7E0CE
:1050330004F0024F459002ECE0FCA3E0FDA3E0FE88
:10504300A3E0FF2290035D120BABE4FFFE7D807CA7
:105053003F90035DE0F8A3E0F9A3E0FAA3E0FB12BD
:10506300038D700690035D0251A190035DE0FCA3E4
:10507300E0FDA3E0FEA3E0FF12026DFBA3E0FCA3AF
:10508300E0FDA3E0FEA3E0FF12026DFFB40108E41C
:10509300FFFE7D807C3F22EF64046029EB640460A3
:1050A30024EBB40130E4FFFEFDFC900361E0F8A3C0
:1050B300E0F9A3E0FAA3E0FB12038D60084006E4E5
:1050C300FFFEFDFC22900361120BB7FFFFFFFF9071
:1050D30003610251A1E4900365F0A3F0FFFEFDFC20
:1050E30090035DE0F8A3E0F9A3E0FAA3E0FB120369
:1050F3008D505F900361E0FCA3E0FDA3E0FEA3E01D
:10510300FF1201EC900365EEF0A3EFF0FDCCEECCC3
:10511300EC1201B3C8ECC8C9EDC9CAEECACBEFCBD8
:10512300900361E0FCA3E0FDA3E0FEA3E0FF120017
:10513300B9E4FBFAF9F812038D708A90035DE0FC81
:10514300A3E0FDA3E0FEA3E0FF12040690035D12BB
:105153000BAB90035DE0FCA3E0FDA3E0FEA3E0FF47
:105163001256C6900361E0F8A3E0F9A3E0FAA3E0C6
:10517300FB120287126E2B900361120BAB90036636
:10518300E030E017900361E0FCA3E0FDA3E0FEA3A1
:10519300E0FF120406900361120BAB900361E0FC85
:1051A300A3E0FDA3E0FEA3E0FF229002C5EBF0A382
:1051B300EAF0A3E9F0EF14606624FE700302527B69
:1051C3001470030252A6240460030252FDE4FF128A
:1051D3009767E49002CAF0A3F09002C8E0FEA3E050
:1051E300FFA3E0FCA3E0FDC39FEC9E40030252FD3E
:1051F300E4FF128E499002C5E0FBA3E0FAA3E0F9B5
:105203009002CAE0FCA3E0F5828C83EF12080490BD
:1052130002CBE004F070C29002CAE004F080BAE46A
:10522300FF129767E49002CAF0A3F09002C8E0FE71
:10523300A3E0FFA3E0FCA3E0FDC39FEC9E400302B9
:1052430052FDED2418FDE43CFCE4FF128E4990026C
:10525300C5E0FBA3E0FAA3E0F99002CAE0FCA3E0F7
:10526300F5828C83EF1208049002CBE004F070BB4C
:105273009002CAE004F080B37F011297679002C5E1
:10528300E0FBA3E0FAA3E0F9E49002D0F0A3F090EE
:1052930002C8E0FFA3E09002D2CFF0A3EFF07D01BC
:1052A30002727BE4FF129767E49002CAF0A3F090C6
:1052B30002C8E0FEA3E0FFA3E0FCA3E0FDC39FEC74
:1052C3009E5037ED2414FDEC3402FCE4FF128E49AA
:1052D3009002C5E0FBA3E0FAA3E0F99002CAE0FC68
:1052E300A3E0F5828C83EF1208049002CBE004F074
:1052F30070BD9002CAE004F080B52290031BEBF06E
:10530300A3EAF0A3E9F0A3E0FBA3E0FAA3E0F91218
:105313000BE800000000900321E0FBA3E0FAA3E008
:10532300F9120BE800000000E4900324F0A3F090CE
:10533300031BE0FBA3E0FAA3E0F9900324E0FEA340
:10534300E0F5828E831207C5FFE4FCFDFEC004C0B6
:1053530005C006C00790031EE0FBA3E0FAA3E0F933
:10536300120B45E47B0AFAF9F81209C0D003D00204
:10537300D001D000EF2BFFEE3AFEED39FDEC38FC07
:1053830090031EE0FBA3E0FAA3E0F9120B65900380
:1053930025E004F07006900324E004F0900324E079
:1053A3007004A3E064057087900324E4F0A37405FC
:1053B300F090031BE0FBA3E0FAA3E0F9900324E0E1
:1053C300FEA3E0F5828E831207C5FFE4FCFDFEC059
:1053D30004C005C006C007900321E0FBA3E0FAA3C5
:1053E300E0F9120B45E47B0AFAF9F81209C0D0037D
:1053F300D002D001D000EF2BFFEE3AFEED39FDECE9
:1054030038FC900321E0FBA3E0FAA3E0F9120B655B
:10541300900325E004F07006900324E004F0900369
:1054230024E07004A3E0640A70877F00229002D70F
:1054330074FFF078DA7C027D01FB7A9A79097E00A9
:105443007F031207869002D87442F0A37464F07B42
:10545300017A0279D87D0212818D7F2C7E01128C14
:10546300EB9002E17401F0A37402F0A374DAF0A3E9
:105473007403F07B017A0279D8E4FD1243109002A1
:10548300DAE064427047A3E024BB6015146029246A
:10549300F9601624FB60232406600302555E7FFF38
:1054A300227F0812886D7FFF229007557401F07FD9
:1054B3006212886D7F12800F80759007557401F01A
:1054C3007F1712886D7F321297E802555E9002DAD9
:1054D300E0FF644D600AEF64466005EF6452707844
:1054E3009002DCE0FB9002DB7005E024D0800CE04E
:1054F30024D075F00AA4FFEB24D02F9001F4F09090
:1055030002DAE024BA602824F460282405704C9061
:1055130001F4E0FF7D01127E009002D7EFF07031BD
:105523007F0512886D9001F4E0FF12954C802C7F6B
:105533000880209001F4E0FF127A399002D7EFF04F
:10554300700F7F0512886D9001F4E0FF12956C8057
:105553000A7F6E12886D80037F01227F00221297DB
:10556300EB90036CEFF09004ED7401F09004DEE037
:10557300640170309004E2E004F070069004E1E00E
:1055830004F09004EAE0FEA3E0FFC39004E2E09F8E
:105593009004E1E09E400D9004DE7402F0E4900478
:1055A300E1F0A3F09004E9E06401701B9004ECE0E7
:1055B30004F0E0C3940A74809480400B9004E9746F
:1055C30002F0E49004ECF09004EEE0D394007480D5
:1055D3009480402A9004DDE004F070069004DCE03F
:1055E30004F09004DCE0FEA3E0FFE4FCFD7B587ACA
:1055F30002F9F8D3120AF85005E49004EEF012828F
:1056030027EF700302568A90036CE0FF64616077B2
:10561300EF646060729004DEE06401606A128F8D53
:10562300EF706412944DEF705E90036DF09004E0A0
:10563300E004F070069004DFE004F090036CE0FFF8
:1056430064126014EF6413600FEF6441600AEF6447
:10565300326005EF64337011D39004E0E094C89096
:1056630004DFE094004017800FD39004E0E09464DB
:105673009004DFE09400400690036D7401F0900302
:105683006DE0600A028398E49004DFF0A3F0223E09
:105693009248DA3ECCCCCD3F2AAAAB400000003F73
:1056A3008000003F9837F03FB504F33FD744FC3EFA
:1056B3003172173EB172173F0515913EDE5BD9D2A9
:1056C300008002C200EDD2E7F8CD33EC3304700B57
:1056D300BD800592D502026202025840FBD31460DA
:1056E300F2F5F07C3FEE7A00C39496C8948B402386
:1056F3000AC89469C8941A401A0AC89468C8941FBF
:1057030040110AC8945AC89425400805F07A00CD80
:10571300C2E7CDC0F0900367120BABEA2323C0E0CE
:1057230024A2F582E43456F583120B9B1200BDECE0
:10573300C0E0EDC0E0EEC0E0EFC0E0120B7F9003ED
:1057430067120B8F1200B9D0E0FBD0E0FAD0E0F97A
:10575300D0E0B2E7F812055C900367120BAB9056EA
:10576300927403120669900367120B8F120287D09B
:10577300E0600F24AEF582E43456F583120B9B12DE
:1057830000BD900367120BABD0E0C3947FFDE4949C
:1057930000FC1201B37B187A727931783F120287C9
:1057A300900367120B8F1200BD30000B7BD97A5B1D
:1057B30079DE783E12028722E490032AF0A3120BCB
:1057C300AB90031FE0FCA3E0FDA3E0FEA3E0FF908A
:1057D300032F120BABE490032AF090032AE0C39447
:1057E30005748094805068E47B0AFAF9F8A3E0FC1E
:1057F300A3E0FDA3E0FEA3E0FF120A4BAF03900377
:105803002AE0FDC3900327E09DFD900326E094006A
:10581300CD24FFCD34FFFC900323E0FBA3E0FAA3E8
:10582300E0F98D828C83EF12080490032BE0FCA334
:10583300E0FDA3E0FEA3E0FFE47B0AFAF9F8120A15
:105843004B90032B120BAB90032AE004F0808BE404
:1058530090032AF090032AE0C39405748094805047
:1058630079E47B0AFAF9F890032FE0FCA3E0FDA3A7
:10587300E0FEA3E0FF120A4BAF03900328E0FCA372
:10588300E0FD900327E02DFD900326E03CFC900310
:105893002AE0FBC3ED9BFDEC9400CD24FFCD34FF48
:1058A300FC900323E0FBA3E0FAA3E0F98D828C8351
:1058B300EF12080490032FE0FCA3E0FDA3E0FEA396
:1058C300E0FFE47B0AFAF9F8120A4B90032F120B5C
:1058D300AB90032AE004F00258577F0022E4FEEE67
:1058E300C39F40030259F3E4FCECC39E40030259F7
:1058F3009FED75F00AA42483F582E43405F583E56E
:10590300822CF582E43583F583E0FBED75F00AA480
:105913002483F582E43405F583E5822EF582E435AC
:1059230083F583E0F96B7057ED75F00AA42483F5D2
:1059330082E43405F583E5822EF582E43583F5832D
:10594300E004F0ED75F00AA42483F582E43405F550
:1059530083E5822EF582E43583F583E0640A701AC9
:10596300ED75F00AA42483F582E43405F583E5821A
:105973002EF582E43583F583E4F0E4FC0258ECED84
:10598300700A74A82EF582E43405800874C32EF5DA
:1059930082E43405F583E9F00C0258ECEE704DED2A
:1059A3007024ED75F00AA42483F582E43405F583AD
:1059B300E5822EF582E43583F583E0FC74A82EF5A9
:1059C30082E434058022ED75F00AA42483F582E491
:1059D3003405F583E5822EF582E43583F583E0FC17
:1059E30074C32EF582E43405F583ECF00E0258E21D
:1059F3007F00229002D5EBF0A3EAF0A3E9F0E4A341
:105A0300F0A3F0A3F0A3F0A3F0A3F0A3F09002D5CA
:105A1300E0FBA3E0FAA3E0F99000011207C575F0DB
:105A23000AA4FDACF09002D5A3A31207AC75F064F1
:105A3300A42DFFE5F03CFE9000021207C57C002F69
:105A4300FFEC3E9002DBF0A3EFF09002D5A3A3900E
:105A530000011207C575F00AA4FDACF09002D5A3AE
:105A6300A39000021207C575F064A42DFFE5F03C76
:105A7300FE1207AC7C002FFFEC3E9002DDF0A3EF9B
:105A8300F0E4FBEBFF7E00C3940A748094805053D0
:105A9300C3740A9FFDE49EFC9002DBE0FEA3E0FFDB
:105AA300120838AF059002D9EFF0FAEBFFC3740A7E
:105AB3009FFDE49400FC9002DDE0FEA3E0FF1208EA
:105AC30038AF059002DAEFF074832BF582E43405E6
