:1000000002649502004E53E1DF3232027A4753E137
:0A001000F7323202006653F1F732B6
:10001B00027B7AE4F5C9C20953F1DF9003AAE0FE33
:10002B00A3E0F5CA53CC7FEE5401C313E41342CCC7
:10003B0053CCC0908BDFE493543F42CC75C9012263
:07004B0002006E5388FD3234
:10005300020016128BC77F2A127BED7F60028B97FB
:07006300028B0A5388F732FB
:07006B0002001253F1FB3209
:100073000279027F89127BED1280457F41028B97C3
:0700830002009653E1BF32B9
:07008B00027A8553E17F3288
:0700930002000E53E1FD32F3
:07009B0002000A4387012265
:0600A3000200067F0022AE
:0600AB00020086027373DF
:1000B30002008E020258E86480F8E933E8336011E5
:1000C3000460F0ED33EC337009E8FCE9FDEAFEEB84
:1000D300FF220460DED3EB9FEA9EE99DE8C2E78C32
:1000E300F0C2F795F0400CE8CCF8E9CDF9EACEFA86
:1000F300EBCFFB12022385D0F05804700320D5B355
:10010300E80470075002B2D502026292D5EC046093
:10011300F7E4CCC0E0C398F8603B94186008400D46
:10012300D0E0FB02023AE4FBFAC9FC8028E830E4A1
:1001330006E4C9FBE4CAFCE830E305E4C9CACBFC26
:10014300E854076010F8C3E913F9EA13FAEB13FB59
:10015300EC13FCD8F130F52FC3E49CFCEF9BFFEECE
:100163009AFEED99FDD0E0FBEF4E4D4C701222DB71
:100173000302025FEC2CFCEF33FFEE33FEED33FDA5
:10018300ED30E7EB02023AEF2BFFEE3AFEED39FDDD
:10019300D0E0FB50130BBB0003020262ED13FDEE34
:1001A30013FEEF13FFEC13FC02023A75F020800EEE
:1001B30075F010800575F0087D007E007F00339296
:1001C300D530D503120A19EC334010EF33FFEE3369
:1001D300FEED33FDEC33FCD5F0ED22E5F0247EA2F9
:1001E300D513CC92E7CDCEFF22EDD2E7CD33EC335E
:1001F30092D524814006E4FFFEFDFC22FCE4CFCE31
:10020300CDCC24E0501174FF80EDC3CC13CCCD13BF
:10021300CDCE13CECF13CF0470F030D5DE020A1942
:10022300E9D2E7C933E833F892D5EDD2E7CD33EC21
:1002330033FC5002B2D522EC30E7100FBF000C0E96
:10024300BE00080DBD00040BEB6014A2D5EB13FC3C
:10025300ED92E7FD2274FFFCFDFEFF22E480F8A28D
:10026300D574FF13FC7D80E480EFED33EC33601035
:1002730004700FED547F7005740292E0227404221F
:100283000422E422EC4D6011E8497017ED33EC339E
:1002930004600DE4FCFFFEFD22E933E8330470F84B
:1002A30002025812022358046009E4CC2481500648
:1002B30028500902026228400302025FC0E0EB4AB1
:1002C3007044B98006D0E0FB02024EEF4E701CBDB5
:1002D3008008EBFFEAFEE9FD80EBE98DF0A4FEE583
:1002E300F0020370E9CDF9EAFEEBFFEF89F0A4FC1D
:1002F300E5F0CE89F0A42EFFE435F0CD89F0A42DEE
:10030300FEE435F08067EF4E7005BD80D780C3EF04
:100313008BF0A4ACF0EE8BF0A42CFCE435F0F8EFFA
:100323008AF0A42CE5F038FCE433CB8DF0A42CFC4C
:10033300E5F03BF8EE8AF0A42CFCE5F038F8E43362
:10034300CF89F0A42CFCE5F038CF3400CE89F0A49B
:100353002FFFE5F03EFEE433C98DF0A42EFEE5F059
:1003630039CD8AF0A42FFFE5F03EFEE43DFD33D006
:10037300E0FB50070BBB000F020262EC2CFCEF33D7
:10038300FFEE33FEED33FD02023A74F8CC6480CC09
:10039300C86480C8F58204604FC3EB9FF5F0EA9E02
:1003A30042F0E99D42F0E89C45F0603C501DE58237
:1003B3005FFFE582D313CB5BCBF42B5582FB502835
:1003C3000ABA002409B9002008801DE5825BFBE519
:1003D30082D313CF5FCFF4C3132F5582FF50090E7F
:1003E300BE00050DBD00010CC3EB9FF5F0EA9E4274
:1003F300F0E99D42F0E89C45F06007CC4820E70116
:10040300B3EC22ED33EC33600A047003BD8004ECDB
:10041300B2E7FC22F920E73624F950037907E4F424
:100423002402FBE582158270021583DBF6E024FBD0
:10043300501BE96014E4F0E582158270021583E035
:1004430004F0B40A08E4F0D9EE7401F00A22C2D52C
:1004530022ED33EC3392D5FA602AB4FF33EDC2E7D1
:100463007BFF60067A047979E4227A04798220D5C5
:10047300047A04797D224E614E002B494E46002DAD
:10048300494E4600E47A08F0A3DAFC7B00740722A5
:10049300C083C082ECC0E0EDC0E0EEC0E0EFC0E09E
:1004A300EA75F010A4CAABF075F04DA42BFBE4354C
:1004B300F0FCEA2410FAEB34C5FBEC34D9FCEDC2B2
:1004C300E7FF75F056A4F42411C5F0F434C58FF09A
:1004D300A42AE5F03BE43CF020E714120629D0E01F
:1004E300FFD0E0FED0E0FDD0E0FC12055C8014F408
:1004F30004120629D0E0FFD0E0FED0E0FDD0E0FCFE
:10050300120287D082D083E0FAEDD2E7CD33EC3309
:100513002482FBE4C3CF33CFCE33CECD33CD33DB15
:10052300F37B0775F00A846004F0A31B0AE5F0F07F
:10053300A38FF0740AA4FFACF08EF0740AA42CFE0F
:10054300ACF050010C8DF0740AA42CFDE435F0F0EE
:10055300A3DBDE740722020262EC5D046005E85946
:10056300047003020258120223580460F6EC486038
:10057300F2EC7004FDFEFF22C860DB2481C8500941
:10058300C3986002500602025F9850CAF582E929B7
:100593004B4A7005AB8202024E75F0007C1A7880DC
:1005A300C3EF9BEE9AED99400DC3EF9BFFEE9AFECE
:1005B300ED99FDE842F0DC23ACF0D0E0FFD0E0FEA3
:1005C300D0E0FDAB8220E7101BEB60BAEC2CFCEF14
:1005D30033FFEE33FEED33FD02023AE803F830E772
:1005E30005C0F075F000EF2FFFEE33FEED33FD4055
:1005F300B830E7C280AA3F8000004120000042C813
:100603000000447A0000461C400047C35000497470
:1006130024004B1896804CBEBC205A0E1BCA67534D
:10062300C21C749DC5AEFB60065407601C232312D5
:100633000657EB543860091206431206521202871A
:10064300ECF8EDF9EEFAEFCB22EB12065280F154FF
:100653003803241C9005F9FE93FC0EEE93FD0EEE79
:10066300930ECE93FF22C0E0EFFBEEFAEDF9ECF828
:10067300120287D0E0F5F0EFFBEEFAEDF9ECF81299
:100683000AAEA3A3A3A3E8C0E0E9C0E0EAC0E0EB9D
:10069300C0E0C0F0120287120ACAA3A3A3A31200E8
:1006A300BDD0F0D0E0FBD0E0FAD0E0F9D0E0F8D54F
:1006B300F0D422E709F608DFFA8046E709F208DFFB
:1006C300FA803E88828C83E709F0A3DFFA8032E365
:1006D30009F608DFFA8078E309F208DFFA80708808
:1006E300828C83E309F0A3DFFA806489828A83E042
:1006F300A3F608DFFA805889828A83E0A3F208DF31
:10070300FA804C80D280FA80C680D4806980F280DF
:1007130033801080A680EA809A80A880DA80E28005
:10072300CA803389828A83ECFAE493A3C8C582C85A
:10073300CCC583CCF0A3C8C582C8CCC583CCDFE9C4
:10074300DEE7800D89828A83E493A3F608DFF9EC60
:10075300FAA9F0EDFB2289828A83ECFAE0A3C8C5EB
:1007630082C8CCC583CCF0A3C8C582C8CCC583CC12
:10077300DFEADEE880DB89828A83E493A3F208DF81
:10078300F980CC88F0EF60010E4E60C388F0ED2451
:1007930002B4040050B9F582EB2402B4040050AF54
:1007A300232345822390070673BB010689828A832C
:1007B300E0225002E722BBFE02E32289828A83E41D
:1007C3009322BB010CE58229F582E5833AF583E0A8
:1007D300225006E92582F8E622BBFE06E92582F8C7
:1007E300E222E58229F582E5833AF583E49322BB8D
:1007F300010689828A83F0225002F722BBFE01F3AD
:1008030022F8BB010DE58229F582E5833AF583E8F9
:10081300F0225006E92582C8F622BBFE05E92582AF
:10082300C8F222EF8DF0A4A8F0CF8CF0A428CE8DCF
:10083300F0A42EFE22BC000BBE0029EF8DF084FF36
:10084300ADF022E4CCF875F008EF2FFFEE33FEECA9
:1008530033FCEE9DEC984005FCEE9DFE0FD5F0E9D0
:10086300E4CEFD22EDF8F5F0EE8420D21CFEADF0CF
:1008730075F008EF2FFFED33FD4007985006D5F0D4
:10088300F222C398FD0FD5F0EA22C2D5EC30E70976
:10089300B2D5E4C39DFDE49CFCEE30E715B2D5E48C
:1008A300C39FFFE49EFE120838C3E49DFDE49CFC55
:1008B300800312083830D507C3E49FFFE49EFE226D
:1008C300C5F0F8A3E028F0C5F0F8E58215827002C0
:1008D3001583E038F022A3F8E0C5F025F0F0E582B7
:1008E300158270021583E0C838F0E822E88FF0A47F
:1008F300CC8BF0A42CFCE98EF0A42CFC8AF0EDA4A4
:100903002CFCEA8EF0A4CDA8F08BF0A42DCC3825D6
:10091300F0FDE98FF0A42CCD35F0FCEB8EF0A4FEB6
:10092300A9F0EB8FF0A4CFC5F02ECD39FEE43CFC4B
:10093300EAA42DCE35F0FDE43CFC2275F008758267
:1009430000EF2FFFEE33FECD33CDCC33CCC5823356
:10095300C5829BED9AEC99E58298400CF582EE9B5B
:10096300FEED9AFDEC99FC0FD5F0D6E4CEFBE4CD79
:10097300FAE4CCF9A88222B800C1B90059BA002D13
:10098300EC8BF084CFCECDFCE5F0CBF97818EF2FCC
:10099300FFEE33FEED33FDEC33FCEB33FB10D703FB
:1009A300994004EB99FB0FD8E5E4F9FA227818EFA4
:1009B3002FFFEE33FEED33FDEC33FCC933C910D703
:1009C300059BE99A4007EC9BFCE99AF90FD8E0E410
:1009D300C9FAE4CCFB2275F010EF2FFFEE33FEEDE6
:1009E30033FDCC33CCC833C810D7079BEC9AE899B6
:1009F300400AED9BFDEC9AFCE899F80FD5F0DAE498
:100A0300CDFBE4CCFAE4C8F922CFF4CFCEF4CECDBB
:100A1300F4CDCCF4CC22C3E49FFFE49EFEE49DFD21
:100A2300E49CFC22EB9FF5F0EA9E42F0E99D42F044
:100A3300EC6480C864809845F022EB9FF5F0EA9E51
:100A430042F0E99D42F0E89C45F022E8600FECC3D8
:100A530013FCED13FDEE13FEEF13FFD8F122E86054
:100A63000FEFC333FFEE33FEED33FDEC33FCD8F170
:100A730022BB010789828A83020E755005E9F802B9
:100A83000E69BBFE05E9F8020E8189828A83020A98
:100A9300AEBB010789828A83020ADA5005E9F802AC
:100AA3000E8DBBFE05E9F8020E9922E493FC740156
:100AB30093FD740293FE740393FF22E0F8A3E0F91D
:100AC300A3E0FAA3E0FB22E493F8740193F9740220
:100AD30093FA740393FB22ECF0A3EDF0A3EEF0A3DF
:100AE300EFF022A8828583F0D083D082120AFD1210
:100AF3000AFD120AFD120AFDE473E493A3C583C53C
:100B0300F0C583C8C582C8F0A3C583C5F0C583C833
:100B1300C582C822BB010789828A83020AE650057F
:100B2300E9F8020EA5BBFE05E9F8020EBE22F8E0C5
:100B3300FBA3A3E0F925F0F0E5821582700215838B
:100B4300E0FA38F022EBF0A3EAF0A3E9F022D08335
:100B5300D082F8E4937012740193700DA3A393F8F9
:100B6300740193F5828883E4737402936860EFA33E
:100B7300A3A380DF8A838982E473EC8EF0A4CCC5BF
:100B8300F0CCCDF8EFA4CEC5F02DFDE43CFCE8A4F9
:100B93002EC8C5F03DFDE43CFCEFA4FFE5F028FEC4
:100BA300E43DFDE43CFC22E709F60870FA8046E7E1
:100BB30009F20870FA803E88828C83E709F0A370FB
:100BC300FA807EE309F60870FA8076E309F208708A
:100BD300FA806E88828C83E309F0A370FA806289BD
:100BE300828A83E0A3F60870FA805689828A83E0BA
:100BF300A3F20870FA804A80D280FA80C680D4803B
:100C03006580F28031801080A680EA809A80A88077
:100C1300DA80E280CA803189828A83ECFAE493A382
:100C2300C8C582C8CCC583CCF0A3C8C582C8CCC50F
:100C330083CC70E9800D89828A83E493A3F60870DC
:100C4300F9ECFAA9F0EDFB2289828A83ECFAE0A39E
:100C5300C8C582C8CCC583CCF0A3C8C582C8CCC5DF
:100C630083CC70EA80DD89828A83E493A3F20870DF
:100C7300F980CE88F0ED2402B4040050C4F582EB71
:100C83002402B4040050BA2323458223900BFA7341
:100C9300E3F5F009E208B5F06BDFF58067E3F5F003
:100CA30009E608B5F05EDFF5805A87F009E608B576
:100CB300F052DFF6804E87F009E208B5F046DFF622
:100CC300804288828C8387F009E0A3B5F036DFF693
:100CD300803288828C8387F009E493A3B5F025DF03
:100CE300F5802188828C83E3F5F009E0A3B5F01445
:100CF300DFF5801088828C83E3F5F009E493A3B5D4
:100D0300F002DFF4020DC2808780E9809080D480F6
:100D13003E8015806E807E809D80B7808D80A3800D
:100D2300518074803C020DCE89828A83ECFAE4936D
:100D3300F5F0A3C8C582C8CCC583CCE493A3C8C5CA
:100D430082C8CCC583CCB5F076DFE3DEE180708961
:100D5300828A83E493F5F0A3E208B5F062DFF480BE
:100D63005E89828A83E0F5F0A3E608B5F051DFF5EA
:100D7300804D89828A83E0F5F0A3E208B5F040DF75
:100D8300F5803C89828A83E493F5F0A3E608B5F005
:100D93002EDFF4802A8002805789828A83ECFAE46A
:100DA30093F5F0A3C8C582C8CCC583CCE0A3C8C55E
:100DB30082C8CCC583CCB5F006DFE4DEE280007FD9
:100DC300FFB5F0020F2240027F012289828A83EC61
:100DD300FAE0F5F0A3C8C582C8CCC583CCE0A3C8AC
:100DE300C582C8CCC583CCB5F0D5DFE5DEE380CFC3
:100DF30089828A83ECFAE0F5F0A3C8C582C8CCC522
:100E030083CCE493A3C8C582C8CCC583CCB5F0AF6B
:100E1300DFE4DEE280A988F0EF60010E4E60ABED07
:100E23002402B404005098F582EB2402B404005069
:100E33008E2323458223900D0A73EF4E6012EF60D9
:100E4300010EEDBB010B89828A83F0A3DFFCDEFA7E
:100E53002289F05007F709DFFCA9F022BBFEFCF35F
:100E630009DFFCA9F022E6FC08E6FD08E6FE08E639
:100E7300FF22E0FCA3E0FDA3E0FEA3E0FF22E2FCEF
:100E830008E2FD08E2FE08E2FF22ECF608EDF608B0
:100E9300EEF608EFF622ECF208EDF208EEF208EFB8
:100EA300F222D083D082E493F608740193F6087497
:100EB3000293F608740393F6740473D083D082E428
:100EC30093F208740193F208740293F20874039383
:100ED300F2740473900284EFF0128B9AA3EFF01272
:100EE3000B510F33010F33020F33120F3313163A23
:100EF30014163A15163A160F3317161A32161A33F2
:100F0300163A34163A35163A360F33410F33421632
:100F13003A5016B35316E1541741550F2860174939
:100F230070000017547F01128B979002857401F0B3
:100F330012881EEF6401700B128BA07F2E127BEDC3
:100F4300028B6A90061FE07065900284E0640A7069
:100F53003AA3E06441700302175412896690028534
:100F6300E0FD7C00640170057F60021635ED6402CC
:100F73004C70057F01021635900712E0640160038F
:100F83000216B074FFF07F01021635900284E0640C
:100F93000B701BA3E064016003021754128966E41B
:100FA300900619F07F83127BED7F020216351289BA
:100FB30066900284E0FFC374809480407CD3EF94F6
:100FC3000974809480507290061FE0C3942074804B
:100FD30094805065900285E0FF64016005EF640230
:100FE3007016900284E0FF90061FE0FE04F0742068
:100FF3002EF582E43406803D90061EE0FF7E0070ED
:101003001A900284E0FD90061FE0FC04F074202C8B
:10101300F582E43406F583EDF0801EEF64014E7033
:1010230018900284E0FF90061FE0FE04F074402E47
:10103300F582E43406F583EFF0900284E0640A60FD
:101043000302111A90061EE0FF7E00700FA3E0FD5D
:1010530014F074202DF582E434068015EF64014EFC
:10106300701490061FE0FF14F074402FF582E434EF
:1010730006F58374FFF090061FE060030217549097
:101083000285E0640270057F8302174690061EE026
:10109300703D900285E0FF64126005EF64177005F0
:1010A3007F62021746900285E0641370057F740225
:1010B3001746900285E0644170057F8902174690C8
:1010C3000285E0644260030217547F620217469070
:1010D300061EE064016003021754900285E0FF647A
:1010E300126005EF641770057F680217469002854A
:1010F300E0641370057F04021746900285E06441A3
:1011030070057F68021746900285E064426003021F
:1011130017547F68021746900284E0640B600B90BB
:10112300061FE06408600302175490061FE0FF7E69
:1011330000C3940674809480400302136D9002856B
:10114300E06401600302134CEF6402701090062008
:10115300E0700AA3E07006128A370213C590061FD7
:10116300E06401700CA3E064057006127F42021371
:10117300C590061FE06401700CA3E06406700612BC
:1011830078790213C590061FE06402600302130B13
:10119300A3E06401600302130BA3E064086003028D
:1011A300130B78887C027D017BFF7A8C79D7FE7FD5
:1011B3000F12078678977C027D017BFF7A8C79E694
:1011C3007E007F05120786789C7C027D017BFF7A77
:1011D3008C79EB7E007F0512078678A17C027D0166
:1011E3007BFF7A8C79F07E007F0512078678A67CD8
:1011F300027D017BFF7A8C79F57E007F32120786B0
:10120300E4900286F0900286E0C3940A748094808E
:10121300505AE4A3F0900287E0C39405748094804D
:101223005042E0FF900286E0FE75F005A424A6F587
:1012330082E43402F583E5822FF582E43583F58376
:10124300E0FDEE75F006A424DDF582E43405F583B4
:10125300E5822FF582E43583F583EDF0900287E094
:1012630004F080B1900286E004F080997B017A0259
:10127300798812550C900295E0FF9005DAE06F60D3
:10128300030213C5900296E0FF9005DBE06F600355
:101293000213C57B017A027988128B829002DC7477
:1012A30001F0A37402F0A3749CF0A37401F0A3747F
:1012B30002F0A374A1F07B017A0279977D0A1227C9
:1012C3001B1276887BFF7A8C799C90032BE4F0A326
:1012D3007442F01223031275F3E4FF12848BEF7050
:1012E300107F05127BED1276887BFF7A8C79B580AF
:1012F3000E7F08127BED1276887BFF7A8C79C712FA
:1013030023031275F30213C590061FE064027032C3
:10131300A3E0702EA3E064017028128BBEEF64017A
:10132300700E90061904F07F83127BED7F02800C10
:101333007F011282267F5F127BED7F01128B970262
:1013430013C57F0112798780797F65127BEDE49065
:10135300061FF090061EE0700302141790061EE0AD
:1013630064016003021754021468900285E064016B
:101373007057A3F07B017A06792090061FE0FD12D7
:101383003B48900286EFF0F470077F011279878063
:1013930031900286E064FE7018128BBEEF64017018
:1013A30010FF1282267F60127BED7F01128B9780E4
:1013B30011900286E0640170047F1180027F0112A4
:1013C3005073E490061FF0804B900285E064027036
:1013D300507B017A06792090061FE0FDE49002DC41
:1013E300F0125255EFF470077F8C127BED80209042
:1013F3000619E064017010FF1282267F60127BEDF4
:101403007F01128B9780087F01128B3A12857CE44F
:1014130090061FF0FE7F207DFF7B017A06792080F6
:101423004F90061EE0704C900285E0FF6412601B33
:10143300EF641770028014900285E0641370047FD8
:10144300048016900285E0644170047F68800A90EE
:101453000285E0644270057F68127BED90061E747E
:1014630001F0E4A3F0FE7F207DFF7B017A06794043
:10147300020E3D90061EE0640160030217547820BB
:101483007C067D017B017A067940FE7F08120E19E6
:10149300EF3395E04F6003021612900285E0641368
:1014A30070507B017A06792090061FE0FD9002DCE4
:1014B3007401F0125255900286EFF0F470057F71BB
:1014C300021614900286E0FF7D01127130EF70174F
:1014D300900286E09001F4F07F05127BED9001F419
:1014E300E0FF12890780057F6E127BED128A770277
:1014F30016177B017A06792090061FE0FD9002DC27
:101503007403F0125255EFF460057F8602161490AF
:101513000285E0641270467B017A06792090061FEB
:10152300E0FD9002DC7401F0125341EF6401700797
:101533007F6E127BED800D7F05127BED9001F4E051
:10154300FF1288F7900712E06401700B74FFF07FBD
:1015530001128B97021617128A6D021617900285D5
:10156300E0644170377B017A06792090061FE0FD25
:10157300E49002DCF0125341EF640170077F6E12B6
:101583007BED800D7F05127BED9001F4E0FF128867
:10159300F7128BBBEF7039128A638078900285E073
:1015A3006442702E7B017A06792090061FE0FDE4E9
:1015B3009002DCF0125341EF640170077F6E127BDF
:1015C300ED800D7F05127BED9001F4E0FF1288F7AB
:1015D3008038900285E06417703A7B017A0679209F
:1015E30090061FE0FD9002DC7402F0125341EF6499
:1015F3000170077F6E127BED8010128B7C7F0512CA
:101603007BED9001F4E0FF1288F712857C80057F63
:10161300D3127BED028045900284E0640A600302EA
:101623001754128966900712E06401700874FFF082
:101633007F01028B978076900284E0640B706012C6
:101643008966900285E024EB604614604624E260DC
:101653002814604214604224E66041243C60030283
:101663001754126A9FEF700A7F05127BED128B529B
:1016730080057F08127BED8034126E4EEF700A7F77
:1016830005127BED128B5E80057F08127BED801DBA
:1016930002829B0289EA0282B80289F702794590A5
:1016A3000284E0640A600302175412896602857C8F
:1016B300900284E0640A7006128966026C09900243
:1016C30084E07003021754128B40900284E0D39F8E
:1016D300507F128966900284E014FF0271F9128B25
:1016E3004C900286EFF06496700B12896690028428
:1016F300E0FF026F93900286E06499703590028454
:10170300E0640A7018128966128A1E128BB8EF60A1
:101713000280287F587E0212806B028A1190028415
:10172300E0640B702C128966128A1E7D017F990278
:1017330078BE128BB8EF60191289660289A2128BE8
:10174300A07F4D027BED128BA07F2F127BED1289C0
:10175300B1229002FEE0F9A3E0FAA3E0900329C9C5
:10176300F0A3EAF0A3E9F0A37401F0A37403F0A3D8
:101773007407F09002FBE0FBA3E0FAA3E0F9900307
:1017830026EBF0A3EAF0A3E9F09000061207C5FFE9
:101793003395E0FEEF24D0FFEE34FFFE7C007D0A9C
:1017A300120826C006C0079000051207C5FF33952F
:1017B300E0FEEF24D0FFEE34FFFE7D64120826D056
:1017C300E02FFFD0E03EFE9000071207C5FD3395E2
:1017D300E0FCED24D0FDEC34FFCD2FFFED3E900374
:1017E3002FF0A3EFF0E490033BF0A3F0900329E084
:1017F300FBA3E0FAA3E0F9128795900346EEF0A36A
:10180300EFF0E4900352F0A3F07A03795490032F9E
:10181300125C81E490033BF0A3F090033BE0FEA352
:10182300E0FFC39405EE648094805063900326E048
:10183300FBA3E0FAA3E0F98F828E831207C5FF337F
:1018430095E0FEEF24D0FFEE34FF90035EF0A3EFAC
:10185300F090035EE0FEA3E02454F58274033EF5AA
:1018630083E0FD90033CE025E0FF90033BE033FE83
:1018730074312FF58274033EF583E4F0A3EDF09009
:10188300033CE004F0709390033BE004F0808B7E14
:10189300007F097D007B017A03793D120E3D9003A1
:1018A30046E07004A3E064087016783D7C037D0174
:1018B300900329E0FBA3E0FAA3E0F9120C76807908
:1018C300D3900347E09408900346E06480948040FB
:1018D30027900329E0F9A3E0FAA3E0900363C9F09A
:1018E300A3EAF0A3E9F0A3E4F0A37408F07B017A80
:1018F30003793D126FFC8041783D7C037D019003A9
:1019030029E0FBA3E0FAA3E0F9120C7690036374D9
:10191300FFF0A3748DF0A37469F0900346E0FEA377
:10192300E0FFC374089F900367F0E49E900366F0A2
:101933007B017A03793D1256AF90033EE0FB33956A
:10194300E0FA90033DE0FF3395E0FEC3EF9BFFEE2B
:101953009AFE90033FE0F9FD3395E0FCEF2DFFEE97
:101963003CFEA3E0FD3395E0FCC3EF9DFFEE9CFE40
:10197300A3E0FD3395E0FCEF2DFFEE3CFEA3E0FD7D
:101983003395E0FCC3EF9DFFEE9CFEA3E0FD339592
:10199300E0FCEF2DFFEE3CFEA3E0FD3395E0FCC33E
:1019A300EF9DFFEE9C900348F0A3EFF0C374309BD0
:1019B300FFE49AFEE9FD3395E0FCEF2DFFEE3CFEDC
:1019C300900340E0F9FB3395E0FAC3EF9BFFEE9AF7
:1019D300FEA3E0FB3395E0FAEF2BFFEE3AFEA3E024
:1019E300FB3395E0FAC3EF9BFFEE9AFEA3E0FB33D4
:1019F30095E0FAEF2BFFEE3AFEA3E0FB3395E0FA16
:101A0300C3EF9BFFEE9A90034AF0A3EFF0E9FF3395
:101A130095E0FEC3ED9FFFEC9EFE900341E0FD3396
:101A230095E0FCEF2DFFEE3CFEA3E0FB3395E0FADF
:101A3300C3EF9BFFEE9AFEA3E0FB3395E0FAEF2B97
:101A4300FFEE3AFEA3E0FB3395E0FAC3EF9BFFEE14
:101A53009A90034CF0A3EFF0E9FF3395E0FEC374D3
:101A6300309FCFE49ECF2DCF3CFE900342E0FD3369
:101A730095E0FCC3EF9DFFEE9CFEA3E0F9FB3395DD
:101A8300E0FAEF2BFFEE3AFEA3E0FB3395E0FAC357
:101A9300EF9BFFEE9A90034EF0A3EFF0900341E02B
:101AA300FF3395E0FEC3EF9DFFEE9CFEE9FD33950A
:101AB300E0FCEF2DFFEE3CFE900344E0FD3395E0A8
:101AC300FCC3EF9DFFEE9C900350F0A3EFF0E49076
:101AD300033BF0A3F090033BE0FAA3E0FB25E0FF18
:101AE300EA33FE74482FF58274033EF583E0FCA3CA
:101AF300E0FD74312FF58274033EF583E0FEA3E02D
:101B0300C39DFFEE9CCF2464CF3400FE7C007D0A8E
:101B130012088DEB25E0FFEA33FE74312FF5827452
:101B2300033EF583ECF0A3EDF090033CE004F0708A
:101B33000690033BE004F090033BE07004A3E064F1
:101B4300057092E490033BF0A3F090033BE0FEA307
:101B5300E0FFC39405EE648094804003021C177C6D
:101B6300007D0212088DED4C7027E025E0FF900305
:101B73003BE033FE74312FF58274033EF583A3E01B
:101B830025E0FD0582D5820215831582E033FC80B2
:101B93002890033CE025E0FF90033BE033FE7431E3
:101BA3002FF58274033EF583E0FEA3E0FF7C007D06
:101BB30003120826AC06AD07EC1201B3C004C0053E
:101BC300C006C007900364120AE640000000D00775
:101BD300D006D005D0041244CBC004C005C006C053
:101BE30007900352E0FCA3E0FDEC1201B3D003D055
:101BF30002D001D0001200BD1201EC900352EEF0AE
:101C0300A3EFF090033CE004F0700690033BE00484
:101C1300F0021B4D900352E0FEA3E0FF90032FE080
:101C23006E7003A3E06F6003021CEE900331A3E028
:101C3300FF90032CE0FBA3E0FAA3E0F9EF1207F215
:101C4300900333A3E0FF90032CE0FBA3E0FAA3E0AF
:101C5300F9900001EF120804900335A3E09000020D
:101C6300120804900337A3E09000031208049003C2
:101C730039A3E0900004120804900326E0FBA3E0DC
:101C8300FAA3E0F99000051207C524D0FF90032CB6
:101C9300E0FBA3E0FAA3E0F9900005EF120804903B
:101CA3000326E0FBA3E0FAA3E0F99000061207C5C0
:101CB30024D0FF90032CE0FBA3E0FAA3E0F990000B
:101CC30006EF120804900326E0FBA3E0FAA3E0F971
:101CD3009000071207C524D0FF90032CE0FBA3E07C
:101CE300FAA3E0F9900007EF020804E490033BF045
:101CF300A3F090033BE0FEA3E0FFC39408EE6480EF
:101D03009480502490032CE0FBA3E0FAA3E0F98F26
:101D1300828E8374FF12080490033CE004F070D2B7
:101D230090033BE004F080CA22900326EBF0A3EA81
:101D3300F0A3E9F09000061207C575F00AA4FDAC04
:101D4300F09000051207C575F064A42DFFE5F03C83
:101D5300FE9000071207C57C002FFFEC3E90032F77
:101D6300F0A3EFF0900329E0FBA3E0FAA3E0F9125C
:101D73008795900344EEF0A3EFF0E4A3F0A3F09073
:101D83000352F0A3F07A03795490032F125C81E499
:101D9300900346F0A3F0900346E0FEA3E0FFC39454
:101DA30005EE648094805059900326E0FBA3E0FA8B
:101DB300A3E0F98F828E831207C5FF90035EE4F0E0
:101DC300A3EFF090035EE0FEA3E02454F5827403D6
:101DD3003EF583E0FD900347E025E0FF900346E0F6
:101DE30033FE74312FF58274033EF583E4F0A3EDE3
:101DF300F0900347E004F0709D900346E004F08008
:101E0300957E007F097D007B017A03793B120E3DAD
:101E1300900344E07004A3E064087016783B7C03ED
:101E23007D01900329E0FBA3E0FAA3E0F9120C760D
:101E33008079D3900345E09408900344E064809450
:101E4300804027900329E0F9A3E0FAA3E09003631D
:101E5300C9F0A3EAF0A3E9F0A3E4F0A37408F07BCC
:101E6300017A03793B126FFC8041783B7C037D014F
:101E7300900329E0FBA3E0FAA3E0F9120C769003A8
:101E83006374FFF0A3748DF0A37469F0900344E0CE
:101E9300FEA3E0FFC374089F900367F0E49E9003E2
:101EA30066F07B017A03793B1256AF90033CE0FB6B
:101EB3003395E0FA90033BE0FF3395E0FEC3EF9BDD
:101EC300FFEE9AFE90033DE0F9FD3395E0FCEF2D24
:101ED300FFEE3CFEA3E0FD3395E0FCC3EF9DFFEE78
:101EE3009CFEA3E0FD3395E0FCEF2DFFEE3CFEA34B
:101EF300E0FD3395E0FCC3EF9DFFEE9CFEA3E0FD08
:101F03003395E0FCEF2DFFEE3CFEA3E0FD3395E0BF
:101F1300FCC3EF9DFFEE9C900348F0A3EFF0C37466
:101F2300309BFFE49AFEE9FD3395E0FCEF2DFFEED5
:101F33003CFE90033EE0F9FB3395E0FAC3EF9BFFD1
:101F4300EE9AFEA3E0FB3395E0FAEF2BFFEE3AFEA9
:101F5300A3E0FB3395E0FAC3EF9BFFEE9AFEA3E009
:101F6300FB3395E0FAEF2BFFEE3AFEA3E0FB33954C
:101F7300E0FAC3EF9BFFEE9A90034AF0A3EFF0E978
:101F8300FF3395E0FEC3ED9FFFEC9EFE90033FE021
:101F9300FD3395E0FCEF2DFFEE3CFEA3E0FB339514
:101FA300E0FAC3EF9BFFEE9AFEA3E0FB3395E0FA62
:101FB300EF2BFFEE3AFEA3E0FB3395E0FAC3EF9B72
:101FC300FFEE9A90034CF0A3EFF0E9FF3395E0FEA8
:101FD300C374309FCFE49ECF2DCF3CFE900340E0EF
:101FE300FD3395E0FCC3EF9DFFEE9CFEA3E0F9FB00
:101FF3003395E0FAEF2BFFEE3AFEA3E0FB3395E0D7
:10200300FAC3EF9BFFEE9A90034EF0A3EFF0900319
:102013003FE0FF3395E0FEC3EF9DFFEE9CFEE9FD3D
:102023003395E0FCEF2DFFEE3CFE900342E0FD33E1
:1020330095E0FCC3EF9DFFEE9C900350F0A3EFF0FF
:10204300E4900346F0A3F0900346E0FAA3E0FB25F7
:10205300E0FFEA33FE74482FF58274033EF583E014
:10206300FCA3E0FD74312FF58274033EF583E0FE9B
:10207300A3E0C39DFFEE9CCF2464CF3400FE7C001D
:102083007D0A12088DEB25E0FFEA33FE74312FF54C
:102093008274033EF583ECF0A3EDF0900347E00474
:1020A300F07006900346E004F0900346E07004A34A
:1020B300E064057092E4900346F0A3F0900346E0D9
:1020C300FEA3E0FFC39405EE6480948040030221E5
:1020D300897C007D0212088DED4C7027E025E0FF1E
:1020E300900346E033FE74312FF58274033EF5838B
:1020F300A3E025E0FD0582D5820215831582E03336
:10210300FC8028900347E025E0FF900346E033FE80
:1021130074312FF58274033EF583E0FEA3E0FF7C68
:10212300007D03120826AC06AD07EC1201B3C00410
:10213300C005C006C007900364120AE64000000011
:10214300D007D006D005D0041244CBC004C005C0CC
:1021530006C007900352E0FCA3E0FDEC1201B3D0EC
:1021630003D002D001D0001200BD1201EC90035243
:10217300EEF0A3EFF0900347E004F07006900346FF
:10218300E004F00220BF900352E0FEA3E0FF9003BF
:102193002FE06E7003A3E06F600302225A900331B5
:1021A300A3E0FF90032CE0FBA3E0FAA3E0F9EF1216
:1021B30007F2900333A3E0FF90032CE0FBA3E0FAC4
:1021C300A3E0F9900001EF120804900335A3E09017
:1021D3000002120804900337A3E0900003120804DE
:1021E300900339A3E0900004120804900326E0FB57
:1021F300A3E0FAA3E0F99000051207C5FF90032CB2
:10220300E0FBA3E0FAA3E0F9900005EF12080490C5
:102213000326E0FBA3E0FAA3E0F99000061207C54A
:10222300FF90032CE0FBA3E0FAA3E0F9900006EF94
:10223300120804900326E0FBA3E0FAA3E0F9900060
:10224300071207C5FF90032CE0FBA3E0FAA3E0F914
:10225300900007EF020804E4900346F0A3F0900314
:1022630046E0FEA3E0FFC39408EE6480948050240C
:1022730090032CE0FBA3E0FAA3E0F98F828E837432
:10228300FF120804900347E004F070D2900346E085
:1022930004F080CA22E517242BF582E43403F58386
:1022A300E005172290032830070390032BE475F011
:1022B30001120B310207AC2000E97F2ED2008018F7
:1022C300EF540F2490D43440D4FF30040BEF24BFD9
:1022D300B41A0050032461FFE51860021518051BAA
:1022E300E51B7002051A30070E900328E475F00110
:1022F300120B31EF0207F20288307403D207800316
:10230300E4C207F517900328120B48E4F518F51AF1
:10231300F51BE51860077F201222DB80F57519FF96
:10232300C201C200C202C203C205C206C20812220F
:10233300A7FF700D3007057F001222ECAF1BAE1A0A
:1023430022B4255FC2D5C2041222A7FF24D0B40A47
:1023530000501A75F00A781830D50508B6FF010643
:10236300C6A426F620D5047002D20380D924CFB4A4
:102373001A00EF5004C2E5D2040225DED20180C662
:10238300D20080C0D20280BCD2D580BAD20580B43C
:102393007F201222DB2002077401B5180040F112DE
:1023A3002298FF1222DB022315D208D2068095124F
:1023B3002298FB122298FA122298F94A4B70067956
:1023C300DC7A267BFF20022EE518602A7E008E82AF
:1023D3007583001207C560060EEE651970F0C2D54D
:1023E300EBC0E0EAC0E0E9C0E0EE12263FD0E0F93E
:1023F300D0E0FAD0E0FB1207ACFF60AAEBC0E0EA42
:10240300C0E0E9C0E01222DBD0E02401F9D0E034DF
:1024130000FAD0E0FBE5190460DCD519D98087D236
:102423000280A212262160F7E51970010412041735
:10243300A919600DE519600914F5191226C9EF6091
:10244300F3EA30E702F404C3995079EAF425190456
:1024530030E701E404F519800D12262160C1EA0575
:10246300192519120417EA900357F030E701E42500
:102473001904D519042005011412263FE4C0E01203
:1024830026C9900357E0601320E70714F01222C314
:10249300802204F0D0E014C0E07F001222C3E519CB
:1024A30060071222BA1519800B3005031222BAD025
:1024B300E0022315D0E00480C4122621609EE519B2
:1024C30004120417900357EAF0E51920050260018E
:1024D30004240412263F74FF04C0E01226C912220A
:1024E300C3E51920050260031222BAD0E0B519E84A
:1024F3007F451222CD900357E07F2B30E7047F2DD9
:10250300F404C0E01222DBD0E075F00A84C0F012BC
:1025130022C4D0E01222C402231579108002790864
:10252300C206C2088008D2D5790A8004790AC2D5C6
:10253300E519047002F519E4FAFDFEFF122298FC76
:102543007B08200113122298FD7B1030000A12220F
:1025530098FE122298FF7B20EC3382D592D550133C
:10256300C3E43000069FFFE49EFEE42001039DFDCB
:10257300E49CFCE4CBF8C201EC700CCFCECDCCE8EC
:1025830024F8F870F38017C3EF33FFEE33FEED3317
:10259300FDEC33FCEB33FB994002FB0FD8E9EB3046
:1025A3000105F8D0E0C448B201C0E00AEC4D4E4F3B
:1025B30078207B0070C2EAB5190040BCC0E0122647
:1025C30041D0F0D0E0200104C4C0E0C4B201C0F0A7
:1025D3001222C4D0F0D5F0EB022315120B5123B213
:1025E30053251D5823834C237F4225214F252944FE
:1025F300252949239843252F55245C4624BC45248B
:10260300264726FC5023872D238B2E23AE2B238F87
:102613002323AC2026E52A234748000023A6E519F7
:10262300B4FF03751906122298FC122298FD122298
:1026330098FE122298FF900350020454790AA2D5FF
:10264300200314300509B910020404B9080104A2D7
:10265300D52006025001042002689202B5180050EA
:1026630034C0E07F203003197F30A2027206720566
:10267300500F122698C202C206C205C2087F3080DC
:102683000F300503E9C0E01222DB300503D0E0F987
:10269300D0E0B518CC3005177F30B9100C1222DB0F
:1026A3007F583004077F788003B908031222DB3098
:1026B30002057F2D0222DB7F202008F87F2B2006D6
:1026C300F322920280CF7F00B40700500B2450F511
:1026D30082E43403F583E0FF22286E756C6C2900D5
:1026E300D2011222983001F8C201781830D50108BE
:1026F300F60223472D504349581222982403B40568
:10270300004001E49026F7931222CC743A1222CCB3
:10271300D20375180402251D9002D8EBF0A3EAF04A
:10272300A3E9F0A3EDF0E490030AF0A3F0A374058A
:10273300F0E4A3F0900318120AE6000000009003EF
:102743001C120AE600000000900320120AE60000B3
:102753000000900324120AE6000000007E007F0AB6
:102763007D007B017A0279E2120E3D7E007F0A7DB5
:10277300007B017A0279EC120E3D7E007F0A7D0018
:102783007B017A0279F6120E3D90032B7401F0A3BC
:102793007402F0A374ECF090030CE0FF90032EE4BA
:1027A300F0A3EFF09002DF125E89E490030BF09048
:1027B300030CE0FF90030BE0FEC39F502574EC2E47
:1027C300F582E43402F583E0701090030BE024EC0F
:1027D300F582E43402F583740AF090030BE004F00D
:1027E30080CD90032B7401F0A37402F0A374E2F084
:1027F300A3E4F0A3EFF09002DC125E8990032B7444
:1028030001F0A37403F0A37418F0A37401F0A3748C
:1028130003F0A3741CF07B017A0279E212478290E1
:10282300032B7401F0A37402F0A374F6F090030C6D
:10283300E0FF90032EE4F0A3EFF09002D8125E893C
:10284300E490030AF090030AE0C3943B74809480FD
:102853004003022A2790032B7401F0A37403F0A30F
:102863007420F0A37401F0A37403F0A37424F07B29
:10287300017A0279F612478290031CE0FCA3E0FD83
:10288300A3E0FEA3E0FF900324E0F8A3E0F9A3E0B4
:10289300FAA3E0FBC3120A3D5044900320E0FCA3DB
:1028A300E0FDA3E0FEA3E0C39401FFEE9400FEED80
:1028B3009400FDEC9400FC900320120ADA900324A8
:1028C300E0FCA3E0FDA3E0FEA3E024A0FFEE34863A
:1028D300FEED3401FDE43CFC900324120ADA90037C
:1028E30018E0FCA3E0FDA3E0FEA3E0FF900320E0DB
:1028F300F8A3E0F9A3E0FAA3E0FBC3120A3D5021D9
:10290300900320E0FCA3E0FDA3E0FEA3E024A0FFEE
:10291300EE3486FEED3401FDE43CFC900320120A04
:10292300DA900320E0FCA3E0FDA3E0FEA3E0FF9028
:102933000318E0F8A3E0F9A3E0FAA3E0FBC3EF9BDD
:10294300FFEE9AFEED99FDEC98FC900320120ADA53
:10295300900324E0FCA3E0FDA3E0FEA3E0FF9003CB
:102963001CE0F8A3E0F9A3E0FAA3E0FBC3EF9BFFAD
:10297300EE9AFEED99FDEC98FC900324120ADA7EA0
:10298300007F0A7D007B017A037900120E3D9003DC
:1029930024E0FCA3E0FDA3E0FEA3E0FF90032C12E0
:1029A3000ADA9003307401F0A37403F0A37400F007
:1029B300A3E4F0A37405F0A3E4F0A37405F090037B
:1029C30020E0FCA3E0FDA3E0FEA3E0FF124C3F7E6A
:1029D300007F0A7D007B017A0279F6120E3DE490B6
:1029E300030BF09002DBE0FF90030BE0FEC39F506C
:1029F3002A74002EF582E43403F583E0FF74EC2E91
:102A0300F582E43402F583E024F5F582E43402F53B
:102A130083EFF090030BE004F080C890030AE00416
:102A2300F00228487E007F0A7D007B017A0379004B
:102A3300120E3D9002F8E090030DF07E007F0A7DB8
:102A4300007B017A03790E120E3D90030DE075F0C1
:102A530006A424DDF9740535F0FA7B01C003900365
:102A63002BEBF0A37403F0A3740EF0A3E4F0A374B0
:102A730005F0D003125E91E490030AF09002DBE0CC
:102A8300FF90030AE0FEC39F5066EE6402700D9050
:102A9300030DE0FF90030AE024008039E490030B68
:102AA300F090030BE0FFC3940A7480948050397450
:102AB3000E2FF582E43403F583E0FF90030AE0FE72
:102AC30024F6F582E43402F583E0B5071390030B93
:102AD300E0FF74002EF582E43403F583EFF0800801
:102AE30090030BE004F080B990030AE004F0808CBB
:102AF30090030A7402F09002DBE0FF90030AE0FE09
:102B0300C39F502074012EF582E43403F583E0FF64
:102B130074002EF582E43403F583EFF090030AE0AA
:102B230004F080D290030DE0FF9002DBE0FE24FF6F
:102B3300F582E43402F583EFF0EEFF7E0078D07C7B
:102B4300057D017B017A037900120786127688E4FA
:102B530090030AF09002DBE0FF90030AE0C39F506A
:102B63002E7BFF7A8D7927E0FD90032BE4F0A3ED14
:102B7300F024D0F582E43405F583E0FF90032DE4DF
:102B8300F0A3EFF012230390030AE004F080C502E0
:102B930075F3900284EFF0A201920290028874030D
:102BA300F01277EE300103022F20900284E0FF251C
:102BB300E024FFF582E4348BF583E493FC74019302
:102BC300FD75F002EFA424AAF582E5F03403F58342
:102BD300ECF0A3EDF0900284E0FE908BDF93FF9086
:102BE3000287F075F002EEA424AAF582E5F034031F
:102BF300F583E0FCA3E0FD127CC5900284E0FD7543
:102C0300F002A4240BF582E5F03404F583EEF0A37F
:102C1300EFF075F002EDA4240BF582E5F03404F532
:102C230083E0FEA3E0FF900285E0FCA3E0FDD3EF89
:102C33009DEE9C5003022E0B900284E0FF75F00280
:102C4300A4240BF582E5F03404F583E0FCA3E0FD56
:102C5300900285E0FAA3E0FBD3ED9BEC9A500302CC
:102C63002D2775910775F002EFA424AAF582E5F0EC
:102C73003403F583E0FEA3E0C394FFEE9401400325
:102C8300022D27900284E0FF75F002A424AAF582A6
:102C9300E5F03403F583E475F0011208C375F0021F
:102CA300EFA424AAF582E5F03403F583E0FCA3E066
:102CB300FD900287E0FF127CC5900284E0FD75F071
:102CC30002A4240BF582E5F03404F583EEF0A3EFC0
:102CD300F075F002EDA4240BF582E5F03404F583DE
:102CE300E0FEA3E0FF75F002EDA424C2F582E5F057
:102CF3003403F583EEF0A3EFF075F002EDA4240B9B
:102D0300F582E5F03404F583E0FEA3E0FF75F002FD
:102D1300EDA424E6F582E5F03403F583EEF0A3EFAA
:102D2300F0022C3BE5CDC454072409F9E47F01FEEE
:102D3300FDFCA801120A61EF24F6FBEE34FFFAED65
:102D430034FFF9EC34FFF8900284E075F002A42418
:102D53000BF582E5F03404F583E0FEA3E0FFE4FC29
:102D6300FDD3120A3D4003022E0B900284E0FF754F
:102D7300F002A424AAF582E5F03403F583E475F0A8
:102D8300011208C375F002EFA424AAF582E5F0341A
:102D930003F583E0FCA3E0FD900287E0FF127CC50E
:102DA300900284E0FD75F002A4240BF582E5F03473
:102DB30004F583EEF0A3EFF075F002EDA4240BF518
:102DC30082E5F03404F583E0FEA3E0FF75F002ED45
:102DD300A424C2F582E5F03403F583EEF0A3EFF00B
:102DE30075F002EDA4240BF582E5F03404F583E0DD
:102DF300FEA3E0FF75F002EDA424E6F582E5F034CE
:102E030003F583EEF0A3EFF0900284E075F002A4E3
:102E1300240BF582E5F03404F583E0FEA3E0FF9094
:102E23000285E0FCA3E0FDD3EF9DEE9C4003022F5F
:102E330020900284E0FF75F002A4240BF582E5F0F4
:102E43003404F583E0FCA3E0FD900285E0FAA3E0FF
:102E5300FBC3ED9BEC9A4003022F2075910775F09D
:102E630002EFA424AAF582E5F03403F583E0FEA380
:102E7300E0D39400EE94005003022F20900284E0EC
:102E8300FF75F002A424AAF582E5F03403F58374F8
:102E9300FFF5F01208C375F002EFA424AAF582E54A
:102EA300F03403F583E0FCA3E0FD900287E0FF121A
:102EB3007CC5900284E0FD75F002A4240BF582E545
:102EC300F03404F583EEF0A3EFF075F002EDA424E3
:102ED3000BF582E5F03404F583E0FEA3E0FF75F023
:102EE30002EDA424C2F582E5F03403F583EEF0A3EA
:102EF300EFF075F002EDA4240BF582E5F03404F550
:102F030083E0FEA3E0FF75F002EDA424E6F582E57D
:102F1300F03403F583EEF0A3EFF0022E34227B00AE
:102F23007A0079089002FFE4F0A3740FF0E4FF90B5
:102F330002FBEFF0A3EBF0A3EAF0A3E9F07F0912A1
:102F43008B289002FBE014700302303224FE7003DE
:102F53000230FF14700302315F24046003023297CE
:102F63009003047401F0A37400F0A37400F0A3743D
:102F730001F0A374F4F0E4FF128B22E4FF12827ECB
:102F8300E4900301F0A3F09002FFE0FEA3E0FFC38F
:102F9300900302E09F900301E09E5037E0FCA3E022
:102FA300FD9002FCE0FBA3E0FAA3E0F98D828C83A1
:102FB3001207C5FBE4FF126B91900303EFF070035C
:102FC3007F0122900302E004F070BC900301E0044F
:102FD300F080B4E4900301F0A3F0900307E0FEA3B4
:102FE300E0FFC3900302E09F900301E09E400302D1
:102FF300329AE0FEA3E0FF2418FDE43EFC900304B4
:10300300E0FBA3E0FAA3E0F98F828E831207C5FBEE
:10301300E4FF126B91900303EFF070037F012290A2
:103023000302E004F070B3900301E004F080AB907E
:103033000304E4F0A37400F0A37408F0A3E4F0A382
:10304300740FF0E4FF128B22E4FF12827EE49003FC
:1030530001F0A3F0900307E0FEA3E0FFC390030297
:10306300E09F900301E09E5037E0FCA3E0FD900356
:1030730004E0FBA3E0FAA3E0F98D828C831207C579
:10308300FBE4FF126B91900303EFF070037F0122C7
:10309300900302E004F070BC900301E004F080B4FC
:1030A300E4900301F0A3F09002FFE0FEA3E0FFC36E
:1030B300900302E09F900301E09E400302329AE0F6
:1030C300FEA3E0FF2418FDE43EFC9002FCE0FBA31A
:1030D300E0FAA3E0F98F828E831207C5FBE4FF12A7
:1030E3006B91900303EFF070037F0122900302E0E2
:1030F30004F070B3900301E004F080AB7F01128B06
:10310300227F0112827EE4900301F0A3F09002FF7C
:10311300E0FEA3E0FFC3900302E09F900301E09E63
:10312300400302329AE0FCA3E0FD9002FCE0FBA323
:10313300E0FAA3E0F98D828C831207C5FB7F0112AD
:103143006B91900303EFF070037F0122900302E081
:1031530004F070B9900301E004F080B1900304E43B
:10316300F0A37400F0A37408F0A3E4F0A3740FF0C9
:10317300A37401F0A37400F0A37400F0A37401F02E
:10318300A374F4F0E4FF128B22E4FF12827EE49036
:103193000301F0A3F0900307E0FEA3E0FFC3900355
:1031A30002E09F900301E09E5037E0FCA3E0FD9016
:1031B3000304E0FBA3E0FAA3E0F98D828C831207FA
:1031C300C5FBE4FF126B91900303EFF070037F01E3
:1031D30022900302E004F070BC900301E004F0804D
:1031E300B4E4900301F0A3F090030CE0FEA3E0FF2E
:1031F300C3900302E09F900301E09E503DE0FEA3D5
:10320300E0FF2418FDE43EFC900309E0FBA3E0FA91
:10321300A3E0F98F828E831207C5FBE4FF126B9143
:10322300900303EFF070037F0122900302E004F0A8
:1032330070B6900301E004F080AEE4900301F0A3C4
:10324300F09002FFE0FEA3E0FFC3900302E09F9033
:103253000301E09E5041E0FEA3E0FF2414FDEE34A1
:1032630002FC9002FCE0FBA3E0FAA3E0F98F828E5C
:10327300831207C5FBE4FF126B91900303EFF07019
:10328300037F0122900302E004F070B5900301E094
:1032930004F080AD7F01227F0022AB07EB25E02401
:1032A30056F582E4348CF583E493FF740193900222
:1032B30088CFF0A3EFF0EB25E02456F582E4348CBD
:1032C300F583E493FC740193FD908C46E493FF7EB5
:1032D30000120826EEC4F854F0C868FEEFC4540F79
:1032E30048FF90028AEEF0A3EFF075F002EBA424FE
:1032F3000BF582E5F03404F583E0FEA3E0FF75F0FF
:1033030002EBA424C2F582E5F03403F583E0FCA3C9
:10331300E0C39FFFEC9EFE900286F0A3EFF0C3EEA6
:1033230064809480500302347AA3E0FEA3E0FF900C
:103333000286E0FCA3E0FD9FEE6480F8EC648098D5
:10334300401074762BF582E43403F5837401F002A4
:10335300344690028AE0FEA3E0FFC3ED9FEE648053
:10336300F8EC6480984058743B2BF582E43404F500
:1033730083E004F0748E2BF582E43403F583E4F0E8
:10338300742F2BF582E43404F583E4F074822BF577
:1033930082E43403F583E4F0743B2BF582E43404D4
:1033A300F583E0FF900706E0FEEFC39E500302346F
:1033B30046743B2BF582E43404F583E4F0806E74A9
:1033C3003B2BF582E43404F583E4F0748E2BF58211
:1033D300E43403F583E004F0742F2BF582E4340422
:1033E300F583E4F074822BF582E43403F583E4F08F
:1033F300748E2BF582E43403F583E0FF900708E035
:10340300FEEFC39E403D748E2BF582E43403F583B7
:10341300E4F075F002EBA424C2F582E5F03403F581
:1034230083E0FEA3E0D39400EE9400401675F0020F
:10343300EBA424C2F582E5F03403F58374FFF5F0C1
:103443001208C3908C98E493FE740193FFC3900217
:1034530089E09FFF900288E09EFEC3900287E09F71
:10346300900286E09E40030235EB74762BF582E4EE
:103473003403F583E4F02274762BF582E43403F508
:1034830083E4F090028AE0FEA3E0FFC3E49FFFE43D
:103493009EFEC3900287E09FEE6480F8900286E070
:1034A300648098406C743B2BF582E43404F583E428
:1034B300F0748E2BF582E43403F583E4F0742F2B40
:1034C300F582E43404F583E004F074822BF582E49E
:1034D3003403F583E4F0742F2BF582E43404F5838D
:1034E300E0FF900705E0FEEFC39E50030235EB7447
:1034F3002F2BF582E43404F583E4F075F002EBA49A
:1035030024C2F582E5F03403F583E475F001023556
:10351300E8743B2BF582E43404F583E4F0748E2BDA
:10352300F582E43403F583E4F0742F2BF582E4345D
:1035330004F583E4F074822BF582E43403F583E02D
:1035430004F074822BF582E43403F583E0FF9007E3
:1035530007E0FEEFC39E50030235EB74822BF58226
:10356300E43403F583E4F0900289E025E0FD900262
:1035730088E033FCE0A2E713FEA3E0132DFFEE3C4B
:10358300FEC3E49FFFE49EFED3900287E09FEE64B8
:1035930080F8900286E0648098502975F002EBA4CD
:1035A300240BF582E5F03404F583E0FEA3E0FF7518
:1035B300F002EBA424C2F582E5F03403F583EEF0C8
:1035C300A3EFF02290028AE0FEA3E0FF7C007D05DA
:1035D30012088D75F002EBA424C2F582E5F03403E2
:1035E300F583EE8FF01208C3229002FBEBF0A3EAFF
:1035F300F0A3E9F0E490031FF0A3F0A3F0A3F0A37A
:10360300F0A3F0A3F0FE7F08FD7B017A0379071294
:103613000E3D7E007F087D007B017A03790F120E39
:103623003D7E007F087D007B017A037917120E3DF2
:10363300900301E0FBA3E0FAA3E0F9EA494B70032E
:103643000238B81207ACF460030237689000011225
:1036530007C5F460030237689000021207C5F460DF
:10366300030237689000031207C5F460030237684A
:103673009000041207C5F460030237689000051236
:1036830007C5F460030237689000061207C5F460AB
:10369300030237689000071207C5F4600302376816
:1036A300121755900307E0F9F4700690031FF0FF1B
:1036B30022900308E0FF7E007C037DE8120826AA1F
:1036C30006AB07E9FF7E007C277D10120826EF2B4F
:1036D300FDEE3AFCA3E075F064A42DFDE5F03CFC9F
:1036E300A3E075F00AA42DFFE5F03CFEA3E07C0007
:1036F3002FFFEC3EFE900320F0A3EFF0C3900323D3
:10370300E09FEE6480F8900322E064809840030217
:1037130038B0E4900324F0A3F09002FBE0FBA3E0B5
:10372300FAA3E0F9900324E0FEA3E0FFF5828E8381
:103733001207C524D0FD740F2FF58274033EF58361
:10374300EDF0900325E004F07006900324E004F00C
:10375300900324E07004A3E0640870BD90031F7419
:1037630001F00238B09002FEE0F9A3E0FAA3E09082
:103773000329C9F0A3EAF0A3E9F0A37401F0A37449
:1037830003F0A37417F0900301E0FBA3E0FAA3E0B6
:10379300F9121D2C900317E0F470030238B91217C5
:1037A30055900307E0F470030238B9900308E0FF73
:1037B3007E007C037DE8120826AA06AB0790030768
:1037C300E0FF7E007C277D10120826EF2BFDEE3AEA
:1037D300FC900309E075F064A42DFDE5F03CFCA327
:1037E300E075F00AA42DFFE5F03CFEA3E07C002F7A
:1037F300FFEC3E900320F0A3EFF0900318E0FF7E70
:10380300007C037DE8120826AA06AB07900317E0A5
:10381300FF7E007C277D10120826EF2BFDEE3AFC7D
:10382300900319E075F064A42DFDE5F03CFCA3E0E2
:1038330075F00AA42DFFE5F03CFEA3E07C002FFF0A
:10384300EC3EFE900322F0A3EFF0D3900321E09F20
:10385300EE6480F8900320E06480984050E4900385
:1038630024F0A3F09002FBE0FBA3E0FAA3E0F990BD
:103873000324E0FEA3E0FFF5828E831207C524D064
:10388300FD740F2FF58274033EF583EDF09003254D
:10389300E004F07006900324E004F0900324E07049
:1038A30004A3E0640870BD90031F7401F07E007FE1
:1038B300087D008009E490031FF0FE7F08FD90035C
:1038C30004E0FBA3E0FAA3E0F9120E3D900304E049
:1038D300FBA3E0FAA3E0F8AC02AD037B017A037922
:1038E3000F7E007F0812078690031FE0FF227B01F3
:1038F300E4FD9002E0EBF0A3EAF0A3E9F0A3EDF01E
:10390300E49002E8F0A3F0A3F0A37403F0A374E837
:10391300F0EDD39400748094805003023A4DC2AF0B
:10392300E49002E8F09002E3E0FF9002E8E0FEC3D7
:103933009F50219002E0E0FBA3E0FAA3E0F98E821E
:103943007583001207C5FDE4FF12801F9002E8E0B3
:1039530004F080D19002EB74FFF5F01208C345F038
:103963007003023A487F017E0012806B9006F3E0F9
:10397300C394027480948040DBE49002E8F09006E4
:10398300F3E0FF9002E8E0FEC39F506274DD2EF582
:1039930082E43406F583E0FD644B6022ED64496004
:1039A3001DED64426018ED64466013ED6452600ED1
:1039B300ED644D6009ED644A6004EDB47128EDB423
:1039C3004A079002EAEEF08025EEFDC3EF9DFFE487
:1039D3009400FEC3EF9402EE64809480400890024A
:1039E300E8E09002EAF09002E8E004F080909002B0
:1039F300EAE09002E8F09006F3E0FF9002E8E0FED0
:103A0300C39F4003023B3A74DD2EF582E43406F58E
:103A130083E0FF9002E4E0FBA3E0FAA3E0F9900265
:103A2300E9E0FEF582758300EF1208049002E7E0F7
:103A3300146E7003023B3A9002E9E004F09002E84E
:103A4300E004F080B1D2AF023B45C2AF9002EB7409
:103A5300FFF5F01208C345F07003023B437F017E7C
:103A63000012806B9006F3E0C3940274809480404C
:103A7300DBE49002E8F09006F3E0FF9002E8E0FE5A
:103A8300C39F506274DD2EF582E43406F583E0FDB6
:103A9300644B6022ED6449601DED64426018ED647F
:103AA300466013ED6452600EED644D6009ED644AA7
:103AB3006004EDB47128EDB44A079002EAEEF08099
:103AC30025EEFDC3EF9DFFE49400FEC3EF9402EEE9
:103AD3006480948040089002E8E09002EAF090024B
:103AE300E8E004F080909002EAE09002E8F09006AB
:103AF300F3E0FF9002E8E0FEC39F503B74DD2EF538
:103B030082E43406F583E0FF9002E4E0FBA3E0FAED
:103B1300A3E0F99002E9E0FEF582758300EF120855
:103B2300049002E7E0146E600E9002E9E004F09066
:103B330002E8E004F080B7E49006F3F0D2AFFF228E
:103B4300D2AF7F00229002D8EBF0A3EAF0A3E9F012
:103B5300A3EDF0E4A3F0A3F09002E8F0A374FFF068
:103B6300E49002DCF09002DCE0FFC3946474809480
:103B7300804003023C5E75F005EFA42404F582E562
:103B8300F03400F583E0F47003023C557E007F08B7
:103B93007DFF7B017A0279E0120E3D9002DCE07535
:103BA300F005A42400F9740035F0FA7B01C00390FA
:103BB30002FEEBF0A37402F0A374E0F0D0031266EC
:103BC300B39002E8EFF0E49002DEF09002E8E0FF49
:103BD3009002DEE02FFFE433FE9002DBE0FDD3EF43
:103BE3009D7480F86E98505EE49002DFF09002E8D6
:103BF300E0FF9002DFE0FEC39F5037EEFF9002DE4E
:103C0300E02FFFE433FE9002D8E0FBA3E0FAA3E049
:103C1300F98F828E831207C5FF9002DFE024E0F55F
:103C230082E43402F583E0B507089002DFE004F094
:103C330080BB9002E8E0FF9002DFE06F6008900233
:103C4300DEE004F080859002E8E0FF9002DFE06FA1
:103C530060099002DCE004F0023B689002DCE0C300
:103C63009464748094805007E0FF9001F4F022E4A0
:103C73009002FAF0FE7F087DFF7B017A0279EA1257
:103C83000E3D9002FE7401F0A37402F0A374EAF0F7
:103C93007B017A0079001266B39002E8EFF0E490BA
:103CA30002DCF09002DCE0FFC3940874809480503F
:103CB3007574EA2FF582E43402F583E0F49002DCB4
:103CC300700EE024EAF582E43402F583E4F0800E1A
:103CD300E024EAF582E43402F583E02430F0900234
:103CE300D8E0FBA3E0FAA3E0F99002DCE0FFF58261
:103CF3007583001207C5FEF4700E74E02FF582E49D
:103D03003402F583E4F080159002DCE0FFEE24300A
:103D1300FE74E02FF582E43402F583EEF09002DCCA
:103D2300E004F0023CA69002FE7401F0A37402F0DA
:103D3300A374EAF0A3E4F0A37400F0A3740FF0A358
:103D43007401F0A37402F0A374F2F07B017A027998
:103D5300E01235EC9002FAEFF0D394007480948073
:103D63004019780F7C007D007B017A0279F27E0096
:103D73007F08120786122F217FFE227FFF22C10AAE
:103D8300C10CC10BC109410447004206F1000041C7
:103D930006F3004106C5004106DC004106C6005497
:103DA30006C8000000000000000000000000000042
:103DB3000000000000004106C70042071000004158
:103DC3000712FF41071303011C00011E00011D0020
:103DD300011F0041061F0041061EFF0123FF0122B0
:103DE300FF41061A004106190041061B0041061C4B
:103DF3000041061D0041061800609404F2022300EE
:103E03000327000423000725000826000A27000DC6
:103E130023000F25000824001627001E2700202357
:103E2300001F27002823002B24002C24002D24000E
:103E330051425243250051465249250051445245AF
:103E43002500514852472500514A524B2500513312
:103E53005234533525005136523853392500513ADF
:103E6300523C533D2500513E524053412500062705
:103E73000051422500513052312500513A523C2520
:103E83000051305232533354345535565D57612502
:103E9300004104EB004204E200004204E40000425B
:103EA30004ED00004104E1004104EC004104EF0093
:103EB300410448004104F0004104F1004204DF00E2
:103EC300004304E80000006082045D010300000079
:103ED30001070000000108000000010900000001C3
:103EE3000BFF8AA9010CFF8440010CFF8459010CCC
:103EF300FF8472010A0000000A04FF81880208009F
:103F030000000209000000020BFF8AA9030DFF82D3
:103F13009B030FFF89EA0310FF8A810747FF82B8DB
:103F23000749FF89F7074AFF8A9F0882FF8A040926
:103F33006A00000009840000006A69FF83DC6A6884
:103F4300FF83F5846FFF840E8470FF84275E06A7CA
:103F530001E602B303BB05C307CB0895099B0ADA45
:103F630006E06AA76AA783A184AD9EFFFFFF4C0604
:103F73007800000000000000000000000041070D71
:103F83000042070E00004101F4FF4106F50041061F
:103F9300FC004206FA00004406F69607999B410688
:103FA300F40042070B00004107090041070A000023
:103FB300AB07EBC3942074809480500AE47F01FE26
:103FC300FDFCA803800BE47F01FEFDFCEB24E0F97C
:103FD300F8120A61900282120ADAEBC39420748009
:103FE300948050030240AB759651900282A3A3A321
:103FF300E0FFEF4297759652900282E0FCA3E0FD4A
:10400300A3E0FEA3E0FF7808120A4EEF4297EBC34A
:10401300942474809480500E900282A3A3A3E0544E
:104023000FFFEF42EA22EBC3942674809480501B67
:10403300900282E0FCA3E0FDA3E0FEA3E0FF78048E
:10404300120A4EEF5403FFEF42EB22EBFFC3942C13
:10405300748094805037EF642A6005EF642B7012EC
:10406300900282E0FCA3E0FDA3E0FEA3E0FF78045E
:104073008010900282E0FCA3E0FDA3E0FEA3E0FF3A
:104083007806120A4EEF54CFFFEF42EC22900282E1
:10409300E0FCA3E0FDA3E0FEA3E0FF780C120A4ED0
:1040A300EF540FFFEF42EE22759626900282A3A3F0
:1040B300A3E0FFEF4297759627900282E0FCA3E00E
:1040C300FDA3E0FEA3E0FF7808120A4EEF540FFFB2
:1040D300EF4297759628900282E0FCA3E0FDA3E0EF
:1040E300FEA3E0FF7810120A4EEF429775962990CF
:1040F3000282E0FCA3E0FDA3E0FEA3E0FF78181238
:104103000A4EAB07EB4297900282E0FCA3E0FDA3CB
:10411300E0FEA3E0FF7802120A61EF54FCFFEF42D6
:10412300EB900282E0FCA3E0FDA3E0FEA3E0FF78B6
:1041330002120A4EEF5430FFEF42EC900282E0FC91
:10414300A3E0FDA3E0FEA3E0FF7804120A4EEF54C0
:10415300F0FFEF42EE900282E0FCA3E0FDA3E0FE5D
:10416300A3E0FF780C120A4EEF54F0FFEF42EF90FA
:104173000282E0FCA3E0FDA3E0FEA3E0FF781412BB
:104183000A4EEF540FFFEF42F2EB42F72290028404
:10419300EFF0E4A3F0A3F0128B9AA3EFF064707036
:1041A3000B128BA07F2F127BED0289B1900287E067
:1041B300646070057F01128B97900287E0FF7E0099
:1041C3006401600DEF64326008EF643360030243FF
:1041D30052EF64544E700B128B4CEF640760030272
:1041E3004352128BA012881EEF640170087F2E12B7
:1041F3007BED028B76900287E06454703790061E45
:10420300E0FF1273C8900285EFF0600302435290FF
:10421300061EE070030242E5128208900285EFF069
:10422300700A7D017F071278BE0243367FD3127B6B
:10423300ED0243367B017A027986127B3F90028539
:10424300EFF060030242C8900287E0640170057FCB
:1042530004025073900287E0643270057F190243B1
:104263004F900287E06433600302435290061EE0DE
:10427300FF1273C8900285EFF0704590061EE07040
:1042830002805F128208900285EFF0702CA3E0FF9A
:10429300126D69900285EFF07015A3E09001F4F0C0
:1042A3007F05127BED9001F4E0FF12892780057FE3
:1042B3006E127BED128A9580057FD3127BED80739E
:1042C3007F7A02434F900287E06432707090061E3B
:1042D300E0FF1273C8900285EFF0705D90061EE058
:1042E300700C7F18127BED90061E7401F02212826F
:1042F30008900285EFF07036FF1287D2900285EFA7
:10430300F0700F7F05127BED9001F4E0FF12891727
:1043130080057F6E127BED900712E06401700A74D2
:10432300FFF07F01128B97800A128A8B80057FD35F
:10433300127BEDE490061EF0227F7A800F900287B5
:10434300E0640170057F040279877F80127BED2290
:10435300EFB4070040030244CA904363F82828736C
:1043630002437802439F0243C502441002445E02A3
:1043730044810244A4EB7009ED42EA7596170244A6
:1043830019EB64017009ED42EA7596170244BDEB1F
:10439300640260030244CAEDF452EA22EB7008EDB2
:1043A30042EB759618806FEB64017009ED42EB7573
:1043B30096180244BDEB640260030244CAEDF45252
:1043C300EB22EB7008ED42EC7596198049EB640122
:1043D3007009ED42EC7596190244BDEB6402701549
:1043E300EDF452ECED543070030244CA759625C4C3
:1043F300540F0244AEEB640360030244CAEDF4526B
:10440300EC759625ED5430C4540F429722EB700A95
:10441300ED42EE75961BED0244AEEB64017009EDBF
:1044230042EE75961B0244BDEB64027015EDF45227
:10443300EEED543070030244CA7596251313543FAE
:104443008069EB640360030244CAEDF452EE75968F
:1044530025ED54301313543F429722EB7009ED427C
:10446300EF75961CED8044EB64017008ED42EF7527
:10447300961C8046EB6402704EEDF452EF22EB7013
:1044830009ED42F275961DED8021EB64017008ED94
:1044930042F275961D8023EB6402702BEDF452F209
:1044A30022EB700BED42F775961EEDF4529722EB5B
:1044B3006401700AED42F775961EED429722EB6494
:1044C300027004EDF452F722900360120ADAE4FF5B
:1044D300FE7D807C3F900360E0F8A3E0F9A3E0FA5F
:1044E300A3E0FB12038D7006900360024625900340
:1044F30060E0FCA3E0FDA3E0FEA3E0FF12026DFB7E
:10450300A3E0FCA3E0FDA3E0FEA3E0FF12026DFF26
:10451300B40108E4FFFE7D807C3F22EF6404602940
:10452300EB64046024EBB40130E4FFFEFDFC900374
:1045330064E0F8A3E0F9A3E0FAA3E0FB12038D60C3
:10454300084006E4FFFEFDFC22900364120AE6FF26
:10455300FFFFFF900364024625E4900368F0A3F095
:10456300FFFEFDFC900360E0F8A3E0F9A3E0FAA3EB
:10457300E0FB12038D505F900364E0FCA3E0FDA316
:10458300E0FEA3E0FF1201EC900368EEF0A3EFF06E
:10459300FDCCEECCEC1201B3C8ECC8C9EDC9CAEE30
:1045A300CACBEFCB900364E0FCA3E0FDA3E0FEA342
:1045B300E0FF1200B9E4FBFAF9F812038D708A9058
:1045C3000360E0FCA3E0FDA3E0FEA3E0FF1204060A
:1045D300900360120ADA900360E0FCA3E0FDA3E01D
:1045E300FEA3E0FF124B4A900364E0F8A3E0F9A3B3
:1045F300E0FAA3E0FB1202871261EA900364120A55
:10460300DA900369E030E017900364E0FCA3E0FD77
:10461300A3E0FEA3E0FF120406900364120ADA90FB
:104623000364E0FCA3E0FDA3E0FEA3E0FF2290020D
:1046330083EBF0A3EAF0A3E9F0EF14606624FE70C5
:10464300030246FF14700302472A2404600302474F
:1046530081E4FF128B22E4900288F0A3F09002869B
:10466300E0FEA3E0FFA3E0FCA3E0FDC39FEC9E40BC
:1046730003024781E4FF1281C9900283E0FBA3E0B8
:10468300FAA3E0F9900288E0FCA3E0F5828C83EFC3
:10469300120804900289E004F070C2900288E004DA
:1046A300F080BAE4FF128B22E4900288F0A3F0902A
:1046B3000286E0FEA3E0FFA3E0FCA3E0FDC39FECC2
:1046C3009E4003024781ED2418FDE43CFCE4FF1205
:1046D30081C9900283E0FBA3E0FAA3E0F99002888A
:1046E300E0FCA3E0F5828C83EF120804900289E0DA
:1046F30004F070BB900288E004F080B37F01128B5A
:1047030022900283E0FBA3E0FAA3E0F9E490028E97
:10471300F0A3F0900286E0FFA3E0900290CFF0A315
:10472300EFF07D010265ABE4FF128B22E490028877
:10473300F0A3F0900286E0FEA3E0FFA3E0FCA3E079
:10474300FDC39FEC9E5037ED2414FDEC3402FCE4D2
:10475300FF1281C9900283E0FBA3E0FAA3E0F99082
:104763000288E0FCA3E0F5828C83EF120804900238
:1047730089E004F070BD900288E004F080B52290D7
:104783000328EBF0A3EAF0A3E9F0A3E0FBA3E0FA2C
:10479300A3E0F9120B170000000090032EE0FBA327
:1047A300E0FAA3E0F9120B1700000000E4900331D4
:1047B300F0A3F0900328E0FBA3E0FAA3E0F9900351
:1047C30031E0FEA3E0F5828E831207C5FFE4FCFD12
:1047D300FEC004C005C006C00790032BE0FBA3E0A6
:1047E300FAA3E0F9120A74E47B0AFAF9F81208EF63
:1047F300D003D002D001D000EF2BFFEE3AFEED390B
:10480300FDEC38FC90032BE0FBA3E0FAA3E0F912E4
:104813000A94900332E004F07006900331E004F050
:10482300900331E07004A3E064057087900331E4E2
:10483300F0A37405F0900328E0FBA3E0FAA3E0F9EA
:10484300900331E0FEA3E0F5828E831207C5FFE4F7
:10485300FCFDFEC004C005C006C00790032EE0FBAC
:10486300A3E0FAA3E0F9120A74E47B0AFAF9F81256
:1048730008EFD003D002D001D000EF2BFFEE3AFEB9
:10488300ED39FDEC38FC90032EE0FBA3E0FAA3E046
:10489300F9120A94900332E004F07006900331E0B9
:1048A30004F0900331E07004A3E0640A70877F0092
:1048B300229002DA74FFF078DD7C027D01FB7A8DB1
:1048C30079647E007F031207869002DB7442F0A3B3
:1048D3007464F07B017A0279DB7D0212750D7F2C03
:1048E3007E0112806B9002E47401F0A37402F0A3C2
:1048F30074DDF0A37403F07B017A0279DBE4FD122B
:1049030038F59002DDE064427047A3E024BB6015F4
:1049130014602924F9601624FB6023240660030233
:1049230049E27FFF227F08127BED7FFF229007126F
:104933007401F07F62127BED7F12800F8075900708
:10494300127401F07F17127BED7F32128B970249AD
:10495300E29002DDE0FF644D600AEF64466005EF1C
:10496300645270789002DFE0FB9002DE7005E02471
:10497300D0800CE024D075F00AA4FFEB24D02F9054
:1049830001F4F09002DDE024BA602824F4602824C6
:1049930005704C9001F4E0FF7D011271309002DA52
:1049A300EFF070317F05127BED9001F4E0FF128987
:1049B30007802C7F0880209001F4E0FF126D69903E
:1049C30002DAEFF0700F7F05127BED9001F4E0FF48
:1049D300128927800A7F6E127BED80037F01227F7D
:1049E3000022128B9A90036FEFF09004F07401F0A1
:1049F3009004E1E0640170309004E5E004F0700697
:104A03009004E4E004F09004EDE0FEA3E0FFC39023
:104A130004E5E09F9004E4E09E400D9004E17402FD
:104A2300F0E49004E4F0A3F09004ECE06401701B64
:104A33009004EFE004F0E0C3940A74809480400B88
:104A43009004EC7402F0E49004EFF09004F1E0D3EE
:104A5300940074809480402A9004E0E004F070068F
:104A63009004DFE004F09004DFE0FEA3E0FFE4FC49
:104A7300FD7B587A02F9F8D3120A275005E4900413
:104A8300F1F01275A7EF7003024B0E90036FE0FF76
:104A930064616077EF646060729004E1E0640160D8
:104AA3006A12830DEF70641287E6EF705E900370F5
:104AB300F09004E3E004F070069004E2E004F09068
:104AC300036FE0FF64126014EF6413600FEF64413F
:104AD300600AEF64326005EF64337011D39004E32E
:104AE300E094C89004E2E094004017800FD3900450
:104AF300E3E094649004E2E0940040069003707451
:104B030001F0900370E0600A027718E49004E2F089
:104B1300A3F0223E9248DA3ECCCCCD3F2AAAAB404A
:104B23000000003F8000003F9837F03FB504F33F9B
:104B3300D744FC3E3172173EB172173F0515913EC3
:104B4300DE5BD9D2008002C200EDD2E7F8CD33ECB0
:104B53003304700BBD800592D502026202025840F5
:104B6300FBD31460F2F5F07C3FEE7A00C39496C851
:104B7300948B40230AC89469C8941A401A0AC894AB
:104B830068C8941F40110AC8945AC8942540080560
:104B9300F07A00CDC2E7CDC0F090036A120ADAEAD8
:104BA3002323C0E02426F582E4344BF583120ACA9A
:104BB3001200BDECC0E0EDC0E0EEC0E0EFC0E012DB
:104BC3000AAE90036A120ABE1200B9D0E0FBD0E02D
:104BD300FAD0E0F9D0E0B2E7F812055C90036A126C
:104BE3000ADA904B16740312066990036A120ABE1E
:104BF300120287D0E0600F2432F582E4344BF58350
:104C0300120ACA1200BD90036A120ADAD0E0C394F2
:104C13007FFDE49400FC1201B37B187A727931783A
:104C23003F12028790036A120ABE1200BD30000BC6
:104C33007BD97A5B79DE783E12028722E4900337D0
:104C4300F0A3120ADA90032CE0FCA3E0FDA3E0FE3C
:104C5300A3E0FF90033C120ADAE4900337F09003D9
:104C630037E0C39405748094805068E47B0AFAF9B2
:104C7300F8A3E0FCA3E0FDA3E0FEA3E0FF12097AA2
:104C8300AF03900337E0FDC3900334E09DFD900331
:104C930033E09400CD24FFCD34FFFC900330E0FBE0
:104CA300A3E0FAA3E0F98D828C83EF12080490034A
:104CB30038E0FCA3E0FDA3E0FEA3E0FFE47B0AFAF7
:104CC300F9F812097A900338120ADA900337E004EC
:104CD300F0808BE4900337F0900337E0C3940574BE
:104CE3008094805079E47B0AFAF9F890033CE0FC65
:104CF300A3E0FDA3E0FEA3E0FF12097AAF03900354
:104D030035E0FCA3E0FD900334E02DFD900333E098
:104D13003CFC900337E0FBC3ED9BFDEC9400CD24FA
:104D2300FFCD34FFFC900330E0FBA3E0FAA3E0F9EE
:104D33008D828C83EF12080490033CE0FCA3E0FD1A
:104D4300A3E0FEA3E0FFE47B0AFAF9F812097A90E4
:104D5300033C120ADA900337E004F0024CDB7F00D5
:104D630022E4FEEEC39F4003024E77E4FCECC39EB5
:104D73004003024E23ED75F00AA42486F582E43441
:104D830005F583E5822CF582E43583F583E0FBEDBD
:104D930075F00AA42486F582E43405F583E5822EB2
:104DA300F582E43583F583E0F96B7057ED75F00A0E
:104DB300A42486F582E43405F583E5822EF582E4A6
:104DC3003583F583E004F0ED75F00AA42486F582BB
:104DD300E43405F583E5822EF582E43583F583E03B
:104DE300640A701AED75F00AA42486F582E434058A
:104DF300F583E5822EF582E43583F583E4F0E4FC64
:104E0300024D70ED700A74AB2EF582E43405800810
:104E130074C62EF582E43405F583E9F00C024D7077
:104E2300EE704DED7024ED75F00AA42486F582E44E
:104E33003405F583E5822EF582E43583F583E0FCC2
:104E430074AB2EF582E434058022ED75F00AA424B8
:104E530086F582E43405F583E5822EF582E4358315
:104E6300F583E0FC74C62EF582E43405F583ECF09B
:104E73000E024D667F00229002D8EBF0A3EAF0A366
:104E8300E9F0E4A3F0A3F0A3F0A3F0A3F0A3F0A34D
:104E9300F09002D8E0FBA3E0FAA3E0F9900001123E
:104EA30007C575F00AA4FDACF09002D8A3A31207BE
:104EB300AC75F064A42DFFE5F03CFE9000021207F0
:104EC300C57C002FFFEC3E9002DEF0A3EFF09002D2
:104ED300D8A3A39000011207C575F00AA4FDACF096
:104EE3009002D8A3A39000021207C575F064A42D05
:104EF300FFE5F03CFE1207AC7C002FFFEC3E900276
:104F0300E0F0A3EFF0E4FBEBFF7E00C3940A7480B0
:104F130094805053C3740A9FFDE49EFC9002DEE02C
:104F2300FEA3E0FF120838AF059002DCEFF0FAEBC6
:104F3300FFC3740A9FFDE49400FC9002E0E0FEA32B
:104F4300E0FF120838AF059002DDEFF074862BF511
:104F530082E43405F583EAF074902BF582E434059A
:104F6300F583EFF00B80A0E4FD7F0A124D647D0111
:104F73007F0A124D647F00227B007A007908900239
:104F830086E4F0A3740FF0E4FF124631AF08EF6438
:104F9300016005EF64027076E4900281F07B017A90
:104FA30000790090028604F0A374F4F07F011246A6
:104FB300317B017A0179F5900286E4F0A3748CF0D9
:104FC3007F03124631D3E50B940074809480500321
:104FD300025072900281E0FFFD7C00C394647480F0
:104FE3009480501A75F005EFA42404F582E5F0349B
:104FF30000F583E06008900281E004F080D5C3ED02
:105003009464EC648094804066E4F50B80567E01E2
:105013007FF47DFF7B017A007900120E3D7B017ADC
:105023000079009002FF7401F0A374F4F07F011281
:105033002F327E007F8C7DFF7B017A0179F5120E82
:105043003D7B017A0179F59002FFE4F0A3748CF0C3
:105053007F03122F32750801750901E4F50AF50B78
:10506300F50CF50DFB7A0079089002FF122F2B2225
:105073009002D8EFF0128BBEEF6401702F9002D82C
:10508300E0FF54107026EF640860217F08127BED67
:105093009002D8E024FE600E24FE600D240360031A
:1050A300025168028B6A028B70028B76E49004F1E2
:1050B300F0128BB2EF640170319002D8E0FFFD640F
:1050C300086027EF54107022EDF4FFE4F4FE90041F
:1050D300EBE0FDFBEF5B6004E4F0800E9002D8E0B0
:1050E3004D9004EBF07F4B027BED7F52128B9712B6
:1050F3008BC17BFF7A8779807F037E001277A7902D
:1051030002D8E014602324FD602924FC602F24F6D8
:10511300600D04702B9001F4E0FF12835D802190F9
:1051230001F4E0FF12837780179001F4E0FF128906
:1051330037800D9001F4E0FF1289478003128B64DE
:10514300900713E0601F64017003028885900713C2
:10515300E064027002800B900713E0640370061290
:10516300888512889622E4F9900286F0A3F0FEEE79
:10517300C3940C74809480506074DA2EF582E43406
:1051830003F583E06050EE25E0240BF582E434045C
:10519300F583E0FCA3E0FDEE25E024C2F582E434D0
:1051A30003F583E0FAA3E0C39DFDEA9CFC9002842F
:1051B300F0A3EDF0D3900287E09DEC6480F89002B9
:1051C30086E0648098500F900284E0FDA3E0A3CDB5
:1051D300F0A3EDF0A9060E80969003FEE069606FE0
:1051E300E0FE25E0240BF582E43404F583E0FCA320
:1051F300E0FDEE25E024C2F582E43403F583E0FA12
:10520300A3E0C39DFEEA9C900284F0A3CEF090023B
:1052130084E0FEA3E0FFC3900287E09FFF90028635
:10522300E09EFE900284F0A3EFF0E925E02456F51A
:1052330082E4348CF583E493FC740193FDD3EF9DF6
:10524300EC6480F8EE64809840059003FEE9F0AFCB
:1052530001229002D8EBF0A3EAF0A3E9F0A3EDF06A
:10526300E49002DDF09002E274FFF07E007F04FD23
:105273007B017A0279DE120E3D9002DBE0FD9002A3
:10528300E77401F0A37402F0A374DEF09002D81265
:1052930069A8E4FFEFC3946474809480506475F04C
:1052A30005EFA42404F582E5F03400F583E0F4600F
:1052B3004EE49002DDF09002DDE0FD7C00C3940437
:1052C300748094805033E0FE75F005EFA42400F55C
:1052D30082E5F03400F583E5822EF582E43583F52B
:1052E30083E0FB74DE2EF582E43402F583E0B5033C
:1052F300089002DDE004F080BDED64044C60030F10
:105303008092EFC3946474809480502675F005EF07
:10531300A42404F582E5F03400F583E0FE9002DC7A
:10532300E0FDEE6D6005ED640370079002E2EFF0BF
:1053330080069002E274FFF09002E2E0FF22900206
:10534300D8EBF0A3EAF0A3E9F0A3EDF0E49002DDDB
:10535300F09002DCE0FF7E007004A3F0803CEF6479
:10536300024E70079002DD04F0802F9002DD74027C
:10537300F09002DDE0FFC3946474809480501B7549
:10538300F005EFA42404F582E5F03400F583E0F49E
:1053930060089002DDE004F080D79002DDE0FFC3F7
:1053A300946474809480507A9001F4EFF07E007FCF
:1053B300047DFF7B017A0279DE120E3D9002DBE071
:1053C300FD9002E77401F0A37402F0A374DEF09081
:1053D30002D81269A89002DDE075F005A42400F953
:1053E300740035F0A801FC7D017B017A0279DE7E31
:1053F300007F041207869002DCE0FFA3E075F0054E
:10540300A42404F582E5F03400F583EFF07B017A00
:105413000079009002FF7401F0A374F4F07F01029D
:105423002F327F01229006C5E064017071A3E07002
:105433000D7D047F05127B017D01E4FF800C900646
:10544300C6E0640270097D047F05127834800F90F2
:1054530006C6E0C39404748094804002B2F89006B8
:10546300C6E004F09006DCE025E0FFE433FEEF2421
:1054730006FFE43EFE9006C6E0C39FEE6480F87428
:105483008098500302550BE4F07D047F05127834B5
:105493007D01E4FF1278349006C57404F02290066F
:1054A300C5E06403704BA3E070057D01FF801D9090
:1054B30006C6E0640170097D047F05127B01800F3D
:1054C3009006C6E0640370077D047F05127834906C
:1054D30006C6E004F0E0C39404748094804029E499
:1054E300F07D047F051278347D01E4FF1278348067
:1054F300119006C5E06404700F7D02FF1267B3EFDD
:1055030070069006C57402F0229002D8EBF0A3EA6D
:10551300F0A3E9F0E49002DCF0A3F0A3F0A3F09091
:1055230002DBF09002DBE0FFC3940D7480948050A3
:105533004BEF54019002D87017E0FBA3E0FAA3E00D
:10554300F9A3E0F5827583001207C575F002801494
:10555300E0FBA3E0FAA3E0F9A3E0F5827583001270
:1055630007C5F5F0A4FFAEF09002DDE02FF0900246
:10557300DCE03EF09002DBE004F080A79002DCE088
:10558300FEA3E0FF7C007D64120838A3ECF0A3EDDA
:10559300F0C3940AEC94009002DEE05011FEA3E005
:1055A300FF7C007D0A1208269002DCEE8007FFA331
:1055B300E09002DCCFF0A3EFF09002DCE0FAA3E08E
:1055C300FB7C007D0AFFAE021208389005DAEFF08B
:1055D3007C007D0AAF03AE02120838A3EDF022E48B
:1055E300FFFEEEC3940A74809480502D74862EF5CA
:1055F30082E43405F583E0601D6409601974862E26
:10560300F582E43405F583E0FD749A2FF582E434E2
:1056130005F583EDF00F0E80C9E4FFFEEEC3940A97
:1056230074809480502D74902EF582E43405F583B4
:10563300E0601D6409601974902EF582E43405F569
:1056430083E0FD74B52FF582E43405F583EDF00FA7
:105653000E80C9E4FFFEEEC3940A74809480501E4A
:1056630074862EF582E43405F583E0FD600D74A2A3
:105673002FF582E43405F583EDF00F0E80D8E4FFB7
:10568300FEEEC3940A74809480501E74902EF582AB
:10569300E43405F583E0FD600D74BD2FF582E43439
:1056A30005F583EDF00F0E80D87F0022900360EBA9
:1056B300F0A3EAF0A3E9F0E4900368F0A3F0D39039
:1056C3000367E09400900366E064809480500302D3
:1056D3005768900360E0FBA3E0FAA3E0F990036846
:1056E300E0FEA3E0F5828E831207C5601090036984
:1056F300E004F070DD900368E004F080D59003636C
:10570300E0FBA3E0FAA3E0F91207AC603E90036369
:10571300A3E475F0011208D9A9F0FA1207ACFF90BF
:105723000360E0FBA3E0FAA3E0F9900368E475F0FB
:10573300011208D985F082F583EF120804900366FD
:1057430074FFF5F01208C345F070B2900360E0FBFC
:10575300A3E0FAA3E0F9900368E0FEA3E0F5828EEC
:1057630083E4120804900360E0FBA3E0FAA3E0F9EA
:1057730022E4900285F0C20A12001EE4900284F033
:10578300900284E0C3940C74809480400302582DEB
:10579300300C0343AD1020090575910780F8C20949
:1057A300AFACEFFEADABEDFF900284E0FD25E0244E
:1057B3000BF582E43404F583EEF0A3EFF0EDC3942C
:1057C3000B74809480502DED25E024ACF582E434F5
:1057D30003F583E0FEA3E0F5CA53CC7FEE5401C387
:1057E30013E41342CC53CCC0ED908BE093543F426F
:1057F300CC75C901900284E0FF12329D900284E0CF
:10580300FF125FD7900284E0FF126EBF300A0F9041
:1058130003FEE0F47008900284E09003FEF0200B96
:1058230012900284E004F0025783200A069003FEDC
:1058330074FFF022C20A20006D908BD9E493FD70AF
:105843000D908D3E93C313FF74019313801575F070
:1058530002EDA4243CF582E5F0348DF583E493FF57
:10586300740193900282CFF0A3EFF0E4900281F0F1
:10587300900281E0C3940C748094805071E0FF2403
:10588300DAF582E43403F583E4F0C201900282E0A6
:10589300FDA3E0900285CDF0A3EDF0122B959002CD
:1058A30081E004F080CA908BDCE493FD700D908D51
:1058B3003E93C313FF74019313801575F002EDA497
:1058C300243CF582E5F0348DF583E493FF74019372
:1058D300900282CFF0A3EFF0D201900282E0FFA307
:1058E300E0900285CFF0A3EFF0E4FF122B95900335
:1058F300FE74FFF0229002A7EBF0A3EAF0A3E9F015
:10590300E49002AEF07F2EFE1287AA53FBFDE4F56E
:10591300FAF5FE7596585397EF53FBEF43FC40FFA0
:105923009002ADE0FEEFC39E5064E4A3F074FFFD6C
:10593300FCED1DAA0470011C4A6029E5FB30E4F16B
:10594300E5FB548070EB9002A7E0FBA3E0FAA3E031
:10595300F98F82758300E5FA12080453FBEF900276
:10596300AE7401F053FB7F53FBDFE5FE601D900235
:10597300A7E0FBA3E0FAA3E0F98F82758300E5FAC1
:105983001208049002AE74ACF080030F809253FCB3
:10599300BF43FB029002AEE064AC700F9002AAE03A
:1059A300FBA3E0FAA3E0F9EF1207F29002AEE0FFE7
:1059B3002253CCBFA200E433C43333544042CC302F
:1059C3000003025A6CE4900286F0900714E0FF9003
:1059D3000286E0C39F4003025A6CE0FF75F002A405
:1059E30024AAF582E5F03403F583E0FCA3E0FDEFA0
:1059F300908BDF93FF127CC5900286E0FD75F00269
:105A0300A4240BF582E5F03404F583EEF0A3EFF064
:105A130075F002EDA4240BF582E5F03404F583E080
:105A2300FEA3E0FF75F002EDA424C2F582E5F03495
:105A330003F583EEF0A3EFF075F002EDA4240BF56C
:105A430082E5F03404F583E0FEA3E0FF75F002ED98
:105A5300A424E6F582E5F03403F583EEF0A3EFF03A
:105A6300900286E004F00259CD2290028EEBF0A35F
:105A7300EAF0A3E9F0900295EFF0A37470F0E4FF6D
:105A8300900294E0FEEFC39E502390028EE0FBA3AE
:105A9300E0FAA3E0F98F827583001207C5FE7497BD
:105AA3002FF582E43402F583EEF00F80D37B017A85
:105AB300027995900294E024029002A5F07F0112EE
:105AC3007AC3900294E0FC2497F582E43402F583D0
