:10000000024E2302004E53E1DF323202638D53E190
:0A001000F7323202006653F1F732B6
:10001B000264C0E4F5C9C20053F1DF9002B5E0FE03
:10002B00A3E0F5CA53CC7FEE5401C313E41342CCC7
:10003B0053CCC09074CCE493543F42CC75C901228D
:07004B0002006E5388FD3234
:100053000200161274B47F2A1265337F600274841F
:070063000273FD5388F73220
:07006B0002001253F1FB3209
:100073000262487F8912653312698B7F410274845F
:0700830002009653E1BF32B9
:07008B000263CB53E17F3259
:0700930002000E53E1FD32F3
:07009B0002000A4387012265
:0600A3000200067F0022AE
:0600AB00020086025D0167
:1000B30002008E020258E86480F8E933E8336011E5
:1000C3000460F0ED33EC337009E8FCE9FDEAFEEB84
:1000D300FF220460DED3EB9FEA9EE99DE8C2E78C32
:1000E300F0C2F795F0400CE8CCF8E9CDF9EACEFA86
:1000F300EBCFFB12022385D0F05804700320D5B355
:10010300E80470075002B2D502026292D5EC046093
:10011300F7E4CCC0E0C398F8603B94186008400D46
:10012300D0E0FB02023AE4FBFAC9FC8028E830E4A1
:1001330006E4C9FBE4CAFCE830E305E4C9CACBFC26
:10014300E854076010F8C3E913F9EA13FAEB13FB59
:10015300EC13FCD8F130F52FC3E49CFCEF9BFFEECE
:100163009AFEED99FDD0E0FBEF4E4D4C701222DB71
:100173000302025FEC2CFCEF33FFEE33FEED33FDA5
:10018300ED30E7EB02023AEF2BFFEE3AFEED39FDDD
:10019300D0E0FB50130BBB0003020262ED13FDEE34
:1001A30013FEEF13FFEC13FC02023A75F020800EEE
:1001B30075F010800575F0087D007E007F00339296
:1001C300D530D5031207C3EC334010EF33FFEE33C2
:1001D300FEED33FDEC33FCD5F0ED22E5F0247EA2F9
:1001E300D513CC92E7CDCEFF22EDD2E7CD33EC335E
:1001F30092D524814006E4FFFEFDFC22FCE4CFCE31
:10020300CDCC24E0501174FF80EDC3CC13CCCD13BF
:10021300CDCE13CECF13CF0470F030D5DE0207C39B
:10022300E9D2E7C933E833F892D5EDD2E7CD33EC21
:1002330033FC5002B2D522EC30E7100FBF000C0E96
:10024300BE00080DBD00040BEB6014A2D5EB13FC3C
:10025300ED92E7FD2274FFFCFDFEFF22E480F8A28D
:10026300D574FF13FC7D80E480EFED33EC33601035
:1002730004700FED547F7005740292E0227404221F
:100283000422E422EC4D6011E8497017ED33EC339E
:1002930004600DE4FCFFFEFD22E933E8330470F84B
:1002A30002025812022358046009E4CC2481500648
:1002B30028500902026228400302025FC0E0EB4AB1
:1002C3007044B98006D0E0FB02024EEF4E701CBDB5
:1002D3008008EBFFEAFEE9FD80EBE98DF0A4FEE583
:1002E300F0020370E9CDF9EAFEEBFFEF89F0A4FC1D
:1002F300E5F0CE89F0A42EFFE435F0CD89F0A42DEE
:10030300FEE435F08067EF4E7005BD80D780C3EF04
:100313008BF0A4ACF0EE8BF0A42CFCE435F0F8EFFA
:100323008AF0A42CE5F038FCE433CB8DF0A42CFC4C
:10033300E5F03BF8EE8AF0A42CFCE5F038F8E43362
:10034300CF89F0A42CFCE5F038CF3400CE89F0A49B
:100353002FFFE5F03EFEE433C98DF0A42EFEE5F059
:1003630039CD8AF0A42FFFE5F03EFEE43DFD33D006
:10037300E0FB50070BBB000F020262EC2CFCEF33D7
:10038300FFEE33FEED33FD02023A74F8CC6480CC09
:10039300C86480C8F58204604FC3EB9FF5F0EA9E02
:1003A30042F0E99D42F0E89C45F0603C501DE58237
:1003B3005FFFE582D313CB5BCBF42B5582FB502835
:1003C3000ABA002409B9002008801DE5825BFBE519
:1003D30082D313CF5FCFF4C3132F5582FF50090E7F
:1003E300BE00050DBD00010CC3EB9FF5F0EA9E4274
:1003F300F0E99D42F0E89C45F06007CC4820E70116
:10040300B3EC22ED33EC33600A047003BD8004ECDB
:10041300B2E7FC22020262EC5D046005E859047055
:1004230003020258120223580460F6EC4860F2EC0F
:100433007004FDFEFF22C860DB2481C85009C39805
:100443006002500602025F9850CAF582E9294B4ABE
:100453007005AB8202024E75F0007C1A7880C3EF00
:100463009BEE9AED99400DC3EF9BFFEE9AFEED993B
:10047300FDE842F0DC23ACF0D0E0FFD0E0FED0E0BA
:10048300FDAB8220E7101BEB60BAEC2CFCEF33FFD3
:10049300EE33FEED33FD02023AE803F830E705C020
:1004A300F075F000EF2FFFEE33FEED33FD40B83073
:1004B300E7C280AAC0E0EFFBEEFAEDF9ECF8120216
:1004C30087D0E0F5F0EFFBEEFAEDF9ECF812081E39
:1004D300A3A3A3A3E8C0E0E9C0E0EAC0E0EBC0E067
:1004E300C0F012028712083AA3A3A3A31200BDD03F
:1004F300F0D0E0FBD0E0FAD0E0F9D0E0F8D5F0D4CA
:1005030022E709F608DFFA8046E709F208DFFA80F6
:100513003E88828C83E709F0A3DFFA8032E309F691
:1005230008DFFA8078E309F208DFFA807088828CAA
:1005330083E309F0A3DFFA806489828A83E0A3F668
:1005430008DFFA805889828A83E0A3F208DFFA8001
:100553004C80D280FA80C680D4806980F280338058
:100563001080A680EA809A80A880DA80E280CA8020
:100573003389828A83ECFAE493A3C8C582C8CCC5C5
:1005830083CCF0A3C8C582C8CCC583CCDFE9DEE742
:10059300800D89828A83E493A3F608DFF9ECFAA934
:1005A300F0EDFB2289828A83ECFAE0A3C8C582C8F6
:1005B300CCC583CCF0A3C8C582C8CCC583CCDFEA45
:1005C300DEE880DB89828A83E493A3F208DFF98083
:1005D300CC88F0EF60010E4E60C388F0ED2402B4C6
:1005E300040050B9F582EB2402B4040050AF232376
:1005F30045822390055473BB010689828A83E022D6
:100603005002E722BBFE02E32289828A83E493221B
:10061300BB010CE58229F582E5833AF583E022509C
:1006230006E92582F8E622BBFE06E92582F8E222E6
:10063300E58229F582E5833AF583E49322BB01063B
:1006430089828A83F0225002F722BBFE01F322F84B
:10065300BB010DE58229F582E5833AF583E8F022B3
:100663005006E92582C8F622BBFE05E92582C8F2B9
:1006730022EF8DF0A4A8F0CF8CF0A428CE8DF0A4A7
:100683002EFE22C2D5EC30E709B2D5E4C39DFDE4CA
:100693009CFCEE30E715B2D5E4C39FFFE49EFE1247
:1006A3000B9FC3E49DFDE49CFC8003120B9F30D59C
:1006B30007C3E49FFFE49EFE22C5F0F8A3E028F001
:1006C300C5F0F8E582158270021583E038F022A3A5
:1006D300F8E0C5F025F0F0E582158270021583E09D
:1006E300C838F0E82275F008758200EF2FFFEE336B
:1006F300FECD33CDCC33CCC58233C5829BED9AEC92
:1007030099E58298400CF582EE9BFEED9AFDEC99FB
:10071300FC0FD5F0D6E4CEFBE4CDFAE4CCF9A88205
:1007230022B800C1B90059BA002DEC8BF084CFCEAA
:10073300CDFCE5F0CBF97818EF2FFFEE33FEED3368
:10074300FDEC33FCEB33FB10D703994004EB99FB2F
:100753000FD8E5E4F9FA227818EF2FFFEE33FEED18
:1007630033FDEC33FCC933C910D7059BE99A400725
:10077300EC9BFCE99AF90FD8E0E4C9FAE4CCFB223C
:1007830075F010EF2FFFEE33FEED33FDCC33CCC805
:1007930033C810D7079BEC9AE899400AED9BFDEC10
:1007A3009AFCE899F80FD5F0DAE4CDFBE4CCFAE44F
:1007B300C8F922CFF4CFCEF4CECDF4CDCCF4CC22F5
:1007C300C3E49FFFE49EFEE49DFDE49CFC22EB9FBB
:1007D300F5F0EA9E42F0E99D42F0EC6480C8648043
:1007E3009845F022EB9FF5F0EA9E42F0E99D42F036
:1007F300E89C45F022E8600FECC313FCED13FDEE1B
:1008030013FEEF13FFD8F122E8600FEFC333FFEEBF
:1008130033FEED33FDEC33FCD8F122E493FC740199
:1008230093FD740293FE740393FF22E0F8A3E0F9AF
:10083300A3E0FAA3E0FB22E493F8740193F97402B2
:1008430093FA740393FB22ECF0A3EDF0A3EEF0A371
:10085300EFF022A8828583F0D083D08212086D1234
:10086300086D12086D12086DE473E493A3C583C584
:10087300F0C583C8C582C8F0A3C583C5F0C583C8C6
:10088300C582C822D083D082F8E493701274019396
:10089300700DA3A393F8740193F5828883E47374B2
:1008A30002936860EFA3A3A380DF8A838982E47342
:1008B300EC8EF0A4CCC5F0CCCDF8EFA4CEC5F02DD2
:1008C300FDE43CFCE8A42EC8C5F03DFDE43CFCEF90
:1008D300A4FFE5F028FEE43DFDE43CFC22E709F635
:1008E3000870FA8046E709F20870FA803E88828C25
:1008F30083E709F0A370FA807EE309F60870FA80B3
:1009030076E309F20870FA806E88828C83E309F03B
:10091300A370FA806289828A83E0A3F60870FA8062
:100923005689828A83E0A3F20870FA804A80D280D3
:10093300FA80C680D4806580F28031801080A680E2
:10094300EA809A80A880DA80E280CA803189828A2C
:1009530083ECFAE493A3C8C582C8CCC583CCF0A3C7
:10096300C8C582C8CCC583CC70E9800D89828A83CF
:10097300E493A3F60870F9ECFAA9F0EDFB2289825F
:100983008A83ECFAE0A3C8C582C8CCC583CCF0A3A4
:10099300C8C582C8CCC583CC70EA80DD89828A83CE
:1009A300E493A3F20870F980CE88F0ED2402B40436
:1009B3000050C4F582EB2402B4040050BA2323454B
:1009C300822390093073E3F5F009E208B5F06BDF99
:1009D300F58067E3F5F009E608B5F05EDFF5805AC8
:1009E30087F009E608B5F052DFF6804E87F009E29A
:1009F30008B5F046DFF6804288828C8387F009E0F1
:100A0300A3B5F036DFF6803288828C8387F009E461
:100A130093A3B5F025DFF5802188828C83E3F5F07D
:100A230009E0A3B5F014DFF5801088828C83E3F529
:100A3300F009E493A3B5F002DFF4020AF88087809B
:100A4300E9809080D4803E8015806E807E809D807A
:100A5300B7808D80A380518074803C020B0489820F
:100A63008A83ECFAE493F5F0A3C8C582C8CCC583A6
:100A7300CCE493A3C8C582C8CCC583CCB5F076DFDC
:100A8300E3DEE1807089828A83E493F5F0A3E208D0
:100A9300B5F062DFF4805E89828A83E0F5F0A3E635
:100AA30008B5F051DFF5804D89828A83E0F5F0A324
:100AB300E208B5F040DFF5803C89828A83E493F550
:100AC300F0A3E608B5F02EDFF4802A800280578970
:100AD300828A83ECFAE493F5F0A3C8C582C8CCC537
:100AE30083CCE0A3C8C582C8CCC583CCB5F006DFF0
:100AF300E4DEE280007FFFB5F0020F2240027F01B7
:100B03002289828A83ECFAE0F5F0A3C8C582C8CCB7
:100B1300C583CCE0A3C8C582C8CCC583CCB5F0D50A
:100B2300DFE5DEE380CF89828A83ECFAE0F5F0A388
:100B3300C8C582C8CCC583CCE493A3C8C582C8CC3E
:100B4300C583CCB5F0AFDFE4DEE280A988F0EF60C7
:100B5300010E4E60ABED2402B404005098F582EB15
:100B63002402B40400508E2323458223900A407349
:100B7300EF4E6012EF60010EEDBB010B89828A8399
:100B8300F0A3DFFCDEFA2289F05007F709DFFCA9A6
:100B9300F022BBFEFCF309DFFCA9F022BC000BBE74
:100BA3000029EF8DF084FFADF022E4CCF875F00856
:100BB300EF2FFFEE33FEEC33FCEE9DEC984005FC8B
:100BC300EE9DFE0FD5F0E9E4CEFD22EDF8F5F0EE53
:100BD3008420D21CFEADF075F008EF2FFFED33FD3E
:100BE3004007985006D5F0F222C398FD0FD5F0EADE
:100BF30022900400EFF0127487A3EFF01208870C21
:100C030050010C50020C50120C501311C81411C88F
:100C13001511C8160C501711AB3211AB3311C83470
:100C230011C83511C8360C50410C504211C850122E
:100C33004153126F5412CF550C456012D770000008
:100C430012E27F011274849004017401F012713373
:100C5300EF6401700B12748D7F2E12653302745D85
:100C6300900539E07062900400E0640A7037A3E0F5
:100C7300644170030212E2127259900401E0FD7C98
:100C830000640170057F600211C3ED64024C7005BE
:100C93007F010211C390062CE0700302123EE4F0C0
:100CA3007F010211C3900400E0640B701BA3E06496
:100CB3000160030212E2127259E4900536F07F8359
:100CC3001265337F020211C3127259900400E0FFD0
:100CD300C374809480407CD3EF94097480948050D3
:100CE30072900539E0C39420748094805065900419
:100CF30001E0FF64016005EF64027016900400E0F8
:100D0300FF900539E0FE04F0743A2EF582E43405D1
:100D1300803D900538E0FF7E00701A900400E0FDEE
:100D2300900539E0FC04F0743A2CF582E43405F5BF
:100D330083EDF0801EEF64014E7018900400E0FF15
:100D4300900539E0FE04F0745A2EF582E43405F57B
:100D530083EFF0900400E0640A6003020E34900510
:100D630038E0FF7E00700FA3E0FD14F0743A2DF518
:100D730082E434058015EF64014E7014900539E068
:100D8300FF14F0745A2FF582E43405F58374FFF0F1
:100D9300900539E060030212E2900401E0640270FE
:100DA300057F830212D4900538E0703D900401E082
:100DB300FF64126005EF641770057F620212D4901E
:100DC3000401E0641370057F740212D4900401E0FF
:100DD300644170057F890212D4900401E06442608B
:100DE300030212E27F620212D4900538E0640160CC
:100DF300030212E2900401E0FF64126005EF64173E
:100E030070057F680212D4900401E0641370057FBB
:100E1300040212D4900401E0644170057F68021259
:100E2300D4900401E0644260030212E27F6802127C
:100E3300D4900400E0640B600B900539E064086013
:100E4300030212E2900539E0FF7E00C3940674802A
:100E530094804003020F01900401E06401707EEF6F
:100E63006402701090053AE0700AA3E070061273F2
:100E73002A020F59900539E06401700CA3E0640560
:100E83007006126888020F59900539E06401700CEE
:100E9300A3E0640670061261BF020F59900539E0A2
:100EA30064027032A3E0702EA3E064017028127410
:100EB300ABEF6401700E90053604F07F8312653347
:100EC3007F02800C7F01126B6C7F5F1265337F01A1
:100ED300127484020F597F011262CD80797F6512EB
:100EE3006533E4900539F0900538E07003020FABE9
:100EF300900538E0640160030212E2020FFC9004E3
:100F030001E064017057A3F07B017A05793A9005FB
:100F130039E0FD122A41900402EFF0F470077F01DB
:100F23001262CD8031900402E064FE70181274AB3B
:100F3300EF64017010FF126B6C7F601265337F01E9
:100F43001274848011900402E0640170047F1180A4
:100F5300027F01124024E4900539F0804B90040194
:100F6300E0640270507B017A05793A900539E0FD1F
:100F7300E4900407F0123D6DEFF470077F8C126567
:100F8300338020900536E064017010FF126B6C7F94
:100F9300601265337F0112748480087F0112742DFF
:100FA300126E91E4900539F0FE7F207DFF7B017A7C
:100FB30005793A804F900538E0704C900401E0FFCA
:100FC3006412601BEF641770028014900401E064E4
:100FD3001370047F048016900401E0644170047F61
:100FE30068800A900401E0644270057F68126533EB
:100FF3009005387401F0E4A3F0FE7F207DFF7B01B0
:101003007A05795A020B73900538E0640160030294
:1010130012E2783A7C057D017B017A05795AFE7FDD
:1010230008120B4FEF3395E04F60030211A39004B6
:1010330001E0641370507B017A05793A900539E039
:10104300FD9004077401F0123D6D900402EFF0F47B
:1010530070057F710211A5900402E0FF7D01125A11
:10106300BEEF7017900402E09001F4F07F05126563
:10107300339001F4E0FF1271FA80057F6E1265333D
:1010830012736A0211A87B017A05793A900539E057
:10109300FD9004077403F0123D6DEFF460057F8645
:1010A3000211A5900401E0641270437B017A057973
:1010B3003A900539E0FD9004077401F0123E59EFB0
:1010C300640170077F6E126533800D7F05126533EF
:1010D3009001F4E0FF1271EA90062CE0600AE4F05C
:1010E3007F011274840211A81273600211A8900484
:1010F30001E0644170377B017A05793A900539E064
:10110300FDE4900407F0123E59EF640170077F6E0F
:10111300126533800D7F051265339001F4E0FF12F1
:1011230071EA1274A8EF7039127356807890040133
:10113300E06442702E7B017A05793A900539E0FD2F
:10114300E4900407F0123E59EF640170077F6E12BA
:101153006533800D7F051265339001F4E0FF127152
:10116300EA8038900401E06417703A7B017A0579CC
:101173003A900539E0FD9004077402F0123E59EFEE
:10118300640170077F6E126533801012746F7F05E0
:101193001265339001F4E0FF1271EA126E9180053B
:1011A3007FD312653302698B900400E0640A600305
:1011B3000212E212725990062CE06007E4F07F01FC
:1011C3000274848076900400E0640B70601272599C
:1011D300900401E024EB604614604624E260281486
:1011E300604214604224E66041243C60030212E240
:1011F30012542DEF700A7F05126533127445800572
:101203007F0812653380341257DCEF700A7F0512B2
:10121300653312745180057F08126533801D026B9C
:10122300E10272DD026BFE0272EA02628B9004003D
:10123300E0640A60030212E2127259026E91900492
:1012430000E0640A7006127259025597900400E098
:1012530070030212E2127433900400E0D39F507FB4
:10126300127259900400E014FF025B8712743F90DE
:101273000402EFF06496700B127259900400E0FFC1
:10128300025921900402E064997035900400E064EF
:101293000A70181272591273111274A5EF6002804A
:1012A300287F587E021269B1027304900400E0643F
:1012B3000B702C1272591273117D017F9902620413
:1012C3001274A5EF601912725902729512748D7F10
:1012D3004D02653312748D7F2F1265331272A4226F
:1012E300900429E0F9A3E0FAA3E0900454C9F0A321
:1012F300EAF0A3E9F0A37401F0A37404F0A3743239
:10130300F0900426E0FBA3E0FAA3E0F9900451EB8C
:10131300F0A3EAF0A3E9F0900006120613FF339559
:10132300E0FEEF24D0FFEE34FFFE7C007D0A1206C0
:1013330074C006C007900005120613FF3395E0FE44
:10134300EF24D0FFEE34FFFE7D64120674D0E02F4D
:10135300FFD0E03EFE900007120613FD3395E0FC3C
:10136300ED24D0FDEC34FFCD2FFFED3E90045AF079
:10137300A3EFF0E4900466F0A3F0900454E0FBA321
:10138300E0FAA3E0F91270AA900471EEF0A3EFF073
:10139300E490047DF0A3F07A04797F90045A124616
:1013A300CAE4900466F0A3F0900466E0FEA3E0FFB5
:1013B300C39405EE648094805063900451E0FBA3D2
:1013C300E0FAA3E0F98F828E83120613FF3395E0D0
:1013D300FEEF24D0FFEE34FF900489F0A3EFF090EA
:1013E3000489E0FEA3E0247FF58274043EF583E0E4
:1013F300FD900467E025E0FF900466E033FE745C33
:101403002FF58274043EF583E4F0A3EDF0900467B6
:10141300E004F07093900466E004F0808B7E007F1C
:10142300097D007B017A047968120B73900471E0E3
:101433007004A3E06408701678687C047D0190044E
:1014430054E0FBA3E0FAA3E0F91209AC8079D3904E
:101453000472E09408900471E064809480402790C3
:101463000454E0F9A3E0FAA3E090048EC9F0A3EAE0
:10147300F0A3E9F0A3E4F0A37408F07B017A047904
:101483006812598A804178687C047D01900454E095
:10149300FBA3E0FAA3E0F91209AC90048E74FFF009
:1014A300A37475F0A374B4F0900471E0FEA3E0FF9D
:1014B300C374089F900492F0E49E900491F07B0122
:1014C3007A0479681240F8900469E0FB3395E0FAF6
:1014D300900468E0FF3395E0FEC3EF9BFFEE9AFEB6
:1014E30090046AE0F9FD3395E0FCEF2DFFEE3CFE3E
:1014F300A3E0FD3395E0FCC3EF9DFFEE9CFEA3E06C
:10150300FD3395E0FCEF2DFFEE3CFEA3E0FD3395AC
:10151300E0FCC3EF9DFFEE9CFEA3E0FD3395E0FCF2
:10152300EF2DFFEE3CFEA3E0FD3395E0FCC3EF9D02
:10153300FFEE9C900473F0A3EFF0C374309BFFE4C1
:101543009AFEE9FD3395E0FCEF2DFFEE3CFE90049F
:101553006BE0F9FB3395E0FAC3EF9BFFEE9AFEA332
:10156300E0FB3395E0FAEF2BFFEE3AFEA3E0FB330B
:1015730095E0FAC3EF9BFFEE9AFEA3E0FB3395E001
:10158300FAEF2BFFEE3AFEA3E0FB3395E0FAC3EF4D
:101593009BFFEE9A900475F0A3EFF0E9FF3395E01B
:1015A300FEC3ED9FFFEC9EFE90046CE0FD3395E0DF
:1015B300FCEF2DFFEE3CFEA3E0FB3395E0FAC3EF17
:1015C3009BFFEE9AFEA3E0FB3395E0FAEF2BFFEED1
:1015D3003AFEA3E0FB3395E0FAC3EF9BFFEE9A904C
:1015E3000477F0A3EFF0E9FF3395E0FEC374309F77
:1015F300CFE49ECF2DCF3CFE90046DE0FD3395E00C
:10160300FCC3EF9DFFEE9CFEA3E0F9FB3395E0FAEC
:10161300EF2BFFEE3AFEA3E0FB3395E0FAC3EF9B1B
:10162300FFEE9A900479F0A3EFF090046CE0FF339F
:1016330095E0FEC3EF9DFFEE9CFEE9FD3395E0FCD4
:10164300EF2DFFEE3CFE90046FE0FD3395E0FCC30D
:10165300EF9DFFEE9C90047BF0A3EFF0E490046613
:10166300F0A3F0900466E0FAA3E0FB25E0FFEA3381
:10167300FE74732FF58274043EF583E0FCA3E0FD52
:10168300745C2FF58274043EF583E0FEA3E0C39DF2
:10169300FFEE9CCF2464CF3400FE7C007D0A12064B
:1016A30086EB25E0FFEA33FE745C2FF58274043E7B
:1016B300F583ECF0A3EDF0900467E004F07006907E
:1016C3000466E004F0900466E07004A3E06405702F
:1016D30092E4900466F0A3F0900466E0FEA3E0FFBA
:1016E300C39405EE6480948040030217A57C007DBB
:1016F30002120686ED4C7027E025E0FF900466E0B9
:1017030033FE745C2FF58274043EF583A3E025E079
:10171300FD0582D5820215831582E033FC80289073
:101723000467E025E0FF900466E033FE745C2FF568
:101733008274043EF583E0FEA3E0FF7C007D031288
:101743000674AC06AD07EC1201B3C004C005C006B5
:10175300C00790048F12085640000000D007D0063F
:10176300D005D0041235A7C004C005C006C0079039
:10177300047DE0FCA3E0FDEC1201B3D003D002D062
:1017830001D0001200BD1201EC90047DEEF0A3EF36
:10179300F0900467E004F07006900466E004F00241
:1017A30016DB90047DE0FEA3E0FF90045AE06E7028
:1017B30003A3E06F600302187C90045CA3E0FF9036
:1017C3000457E0FBA3E0FAA3E0F9EF12064090040C
:1017D3005EA3E0FF900457E0FBA3E0FAA3E0F990D7
:1017E3000001EF120652900460A3E090000212067B
:1017F30052900462A3E0900003120652900464A383
:10180300E0900004120652900451E0FBA3E0FAA317
:10181300E0F990000512061324D0FF900457E0FB73
:10182300A3E0FAA3E0F9900005EF120652900451E9
:10183300E0FBA3E0FAA3E0F990000612061324D01C
:10184300FF900457E0FBA3E0FAA3E0F9900006EF52
:10185300120652900451E0FBA3E0FAA3E0F99000D2
:101863000712061324D0FF900457E0FBA3E0FAA36A
:10187300E0F9900007EF020652E4900466F0A3F04B
:10188300900466E0FEA3E0FFC39408EE64809480B6
:101893005024900457E0FBA3E0FAA3E0F98F828E73
:1018A3008374FF120652900467E004F070D2900430
:1018B30066E004F080CA22900451EBF0A3EAF0A39F
:1018C300E9F090000612061375F00AA4FDACF0903F
:1018D300000512061375F064A42DFFE5F03CFE909D
:1018E30000071206137C002FFFEC3E90045AF0A36E
:1018F300EFF0900454E0FBA3E0FAA3E0F91270AA1E
:1019030090046FEEF0A3EFF0E4A3F0A3F090047D56
:10191300F0A3F07A04797F90045A1246CAE4900443
:1019230071F0A3F0900471E0FEA3E0FFC39405EE11
:10193300648094805059900451E0FBA3E0FAA3E043
:10194300F98F828E83120613FF900489E4F0A3EFCC
:10195300F0900489E0FEA3E0247FF58274043EF551
:1019630083E0FD900472E025E0FF900471E033FE14
:10197300745C2FF58274043EF583E4F0A3EDF090DC
:101983000472E004F0709D900471E004F080957E91
:10199300007F097D007B017A047966120B73900442
:1019A3006FE07004A3E06408701678667C047D0120
:1019B300900454E0FBA3E0FAA3E0F91209AC8079A8
:1019C300D3900470E0940890046FE06480948040A6
:1019D30027900454E0F9A3E0FAA3E090048EC9F041
:1019E300A3EAF0A3E9F0A3E4F0A37408F07B017A7F
:1019F30004796612598A804178667C047D019004DB
:101A030054E0FBA3E0FAA3E0F91209AC90048E744E
:101A1300FFF0A37475F0A374B4F090046FE0FEA319
:101A2300E0FFC374089F900492F0E49E900491F049
:101A33007B017A0479661240F8900467E0FB3395E2
:101A4300E0FA900466E0FF3395E0FEC3EF9BFFEE00
:101A53009AFE900468E0F9FD3395E0FCEF2DFFEE6C
:101A63003CFEA3E0FD3395E0FCC3EF9DFFEE9CFE3F
:101A7300A3E0FD3395E0FCEF2DFFEE3CFEA3E0FD7C
:101A83003395E0FCC3EF9DFFEE9CFEA3E0FD339591
:101A9300E0FCEF2DFFEE3CFEA3E0FD3395E0FCC33D
:101AA300EF9DFFEE9C900473F0A3EFF0C374309BA3
:101AB300FFE49AFEE9FD3395E0FCEF2DFFEE3CFEDB
:101AC300900469E0F9FB3395E0FAC3EF9BFFEE9ACC
:101AD300FEA3E0FB3395E0FAEF2BFFEE3AFEA3E023
:101AE300FB3395E0FAC3EF9BFFEE9AFEA3E0FB33D3
:101AF30095E0FAEF2BFFEE3AFEA3E0FB3395E0FA15
:101B0300C3EF9BFFEE9A900475F0A3EFF0E9FF3368
:101B130095E0FEC3ED9FFFEC9EFE90046AE0FD336B
:101B230095E0FCEF2DFFEE3CFEA3E0FB3395E0FADE
:101B3300C3EF9BFFEE9AFEA3E0FB3395E0FAEF2B96
:101B4300FFEE3AFEA3E0FB3395E0FAC3EF9BFFEE13
:101B53009A900477F0A3EFF0E9FF3395E0FEC374A6
:101B6300309FCFE49ECF2DCF3CFE90046BE0FD333E
:101B730095E0FCC3EF9DFFEE9CFEA3E0F9FB3395DC
:101B8300E0FAEF2BFFEE3AFEA3E0FB3395E0FAC356
:101B9300EF9BFFEE9A900479F0A3EFF090046AE0D4
:101BA300FF3395E0FEC3EF9DFFEE9CFEE9FD339509
:101BB300E0FCEF2DFFEE3CFE90046DE0FD3395E07D
:101BC300FCC3EF9DFFEE9C90047BF0A3EFF0E49049
:101BD3000471F0A3F0900471E0FAA3E0FB25E0FFA9
:101BE300EA33FE74732FF58274043EF583E0FCA39D
:101BF300E0FD745C2FF58274043EF583E0FEA3E000
:101C0300C39DFFEE9CCF2464CF3400FE7C007D0A8D
:101C1300120686EB25E0FFEA33FE745C2FF582742F
:101C2300043EF583ECF0A3EDF0900472E004F07051
:101C330006900471E004F0900471E07004A3E06482
:101C4300057092E4900471F0A3F0900471E0FEA398
:101C5300E0FFC39405EE648094804003021D177C6B
:101C6300007D02120686ED4C7027E025E0FF90040C
:101C730071E033FE745C2FF58274043EF583A3E0B8
:101C830025E0FD0582D5820215831582E033FC80B1
:101C930028900472E025E0FF900471E033FE745C49
:101CA3002FF58274043EF583E0FEA3E0FF7C007D04
:101CB30003120674AC06AD07EC1201B3C004C005F1
:101CC300C006C00790048F12085640000000D007DA
:101CD300D006D005D0041235A7C004C005C006C085
:101CE3000790047DE0FCA3E0FDEC1201B3D003D028
:101CF30002D001D0001200BD1201EC90047DEEF081
:101D0300A3EFF0900472E004F07006900471E00415
:101D1300F0021C4D90047DE0FEA3E0FF90045AE026
:101D23006E7003A3E06F6003021DE890045CA3E000
:101D3300FF900457E0FBA3E0FAA3E0F9EF1206409B
:101D430090045EA3E0FF900457E0FBA3E0FAA3E056
:101D5300F9900001EF120652900460A3E090000294
:101D6300120652900462A3E09000031206529004FC
:101D730064A3E0900004120652900451E0FBA3E038
:101D8300FAA3E0F9900005120613FF900457E0FB55
:101D9300A3E0FAA3E0F9900005EF12065290045174
:101DA300E0FBA3E0FAA3E0F9900006120613FF900C
:101DB3000457E0FBA3E0FAA3E0F9900006EF120654
:101DC30052900451E0FBA3E0FAA3E0F9900007125C
:101DD3000613FF900457E0FBA3E0FAA3E0F9900099
:101DE30007EF020652E4900471F0A3F0900471E04F
:101DF300FEA3E0FFC39408EE648094805024900413
:101E030057E0FBA3E0FAA3E0F98F828E8374FF12FD
:101E13000652900472E004F070D2900471E004F072
:101E230080CA22900400EFF0A20592069004047485
:101E330003F01261343005030221B1900400E0FF86
:101E430025E024ECF582E43474F583E493FC740117
:101E530093FD75F002EFA424B5F582E5F03402F5A5
:101E630083ECF0A3EDF0900400E0FE9074CC93FFBC
:101E7300900403F075F002EEA424B5F582E5F03486
:101E830002F583E0FCA3E0FD12660B900400E0FD85
:101E930075F002A42416F582E5F03403F583EEF021
:101EA300A3EFF075F002EDA42416F582E5F03403F8
:101EB300F583E0FEA3E0FF900401E0FCA3E0FDD383
:101EC300EF9DEE9C500302209C900400E0FF75F010
:101ED30002A42416F582E5F03403F583E0FCA3E0C5
:101EE300FD900401E0FAA3E0FBD3ED9BEC9A5003D1
:101EF300021FB875910775F002EFA424B5F582E5CA
:101F0300F03402F583E0FEA3E0C394FFEE940140B6
:101F130003021FB8900400E0FF75F002A424B5F596
:101F230082E5F03402F583E475F0011206BC75F026
:101F330002EFA424B5F582E5F03402F583E0FCA3B7
:101F4300E0FD900403E0FF12660B900400E0FD75D2
:101F5300F002A42416F582E5F03403F583EEF0A332
:101F6300EFF075F002EDA42416F582E5F03403F5E5
:101F730083E0FEA3E0FF75F002EDA424CDF582E536
:101F8300F03402F583EEF0A3EFF075F002EDA42434
:101F930016F582E5F03403F583E0FEA3E0FF75F068
:101FA30002EDA424F1F582E5F03402F583EEF0A30B
:101FB300EFF0021ECCE5CDC454072409F9E47F01F8
:101FC300FEFDFCA80112080BEF24F6FBEE34FFFA2A
:101FD300ED34FFF9EC34FFF8900400E075F002A44F
:101FE3002416F582E5F03403F583E0FEA3E0FFE475
:101FF300FCFDD31207E7400302209C900400E0FF9E
:1020030075F002A424B5F582E5F03402F583E47596
:10201300F0011206BC75F002EFA424B5F582E5F0D9
:102023003402F583E0FCA3E0FD900403E0FF1266B5
:102033000B900400E0FD75F002A42416F582E5F090
:102043003403F583EEF0A3EFF075F002EDA424164C
:10205300F582E5F03403F583E0FEA3E0FF75F002BB
:10206300EDA424CDF582E5F03402F583EEF0A3EF81
:10207300F075F002EDA42416F582E5F03403F58340
:10208300E0FEA3E0FF75F002EDA424F1F582E5F094
:102093003402F583EEF0A3EFF0900400E075F00254
:1020A300A42416F582E5F03403F583E0FEA3E0FFF4
:1020B300900401E0FCA3E0FDD3EF9DEE9C400302FE
:1020C30021B1900400E0FF75F002A42416F582E527
:1020D300F03403F583E0FCA3E0FD900401E0FAA3F0
:1020E300E0FBC3ED9BEC9A40030221B175910775A8
:1020F300F002EFA424B5F582E5F03402F583E0FEA7
:10210300A3E0D39400EE940050030221B1900400A5
:10211300E0FF75F002A424B5F582E5F03402F583FF
:1021230074FFF5F01206BC75F002EFA424B5F58236
:10213300E5F03402F583E0FCA3E0FD900403E0FF47
:1021430012660B900400E0FD75F002A42416F582DC
:10215300E5F03403F583EEF0A3EFF075F002EDA4A0
:102163002416F582E5F03403F583E0FEA3E0FF7562
:10217300F002EDA424CDF582E5F03402F583EEF010
:10218300A3EFF075F002EDA42416F582E5F0340315
:10219300F583E0FEA3E0FF75F002EDA424F1F582E0
:1021A300E5F03402F583EEF0A3EFF00220C522AB95
:1021B30007EB25E02443F582E43475F583E493FFCC
:1021C300740193900404CFF0A3EFF0EB25E02443D4
:1021D300F582E43475F583E493FC740193FD907503
:1021E30033E493FF7E00120674EEC4F854F0C8681B
:1021F300FEEFC4540F48FF900406EEF0A3EFF07512
:10220300F002EBA42416F582E5F03403F583E0FE37
:10221300A3E0FF75F002EBA424CDF582E5F03402D0
:10222300F583E0FCA3E0C39FFFEC9EFE900402F065
:10223300A3EFF0C3EE64809480500302238FA3E0E6
:10224300FEA3E0FF900402E0FCA3E0FD9FEE6480A8
:10225300F8EC648098401074812BF582E43402F525
:10226300837401F002235B900406E0FEA3E0FFC346
:10227300ED9FEE6480F8EC648098405874462BF52B
:1022830082E43403F583E004F074992BF582E4349B
:1022930002F583E4F0743A2BF582E43403F583E426
:1022A300F0748D2BF582E43402F583E4F074462B4D
:1022B300F582E43403F583E0FF900620E0FEEFC3EC
:1022C3009E500302235B74462BF582E43403F583AB
:1022D300E4F0806E74462BF582E43403F583E4F076
:1022E30074992BF582E43402F583E004F0743A2BFD
:1022F300F582E43403F583E4F0748D2BF582E43442
:1023030002F583E4F074992BF582E43402F583E05B
:10231300FF900622E0FEEFC39E403D74992BF582A9
:10232300E43402F583E4F075F002EBA424CDF582E6
:10233300E5F03402F583E0FEA3E0D39400EE9400CD
:10234300401675F002EBA424CDF582E5F03402F5D6
:102353008374FFF5F01206BC907585E493FE740157
:1023630093FFC3900405E09FFF900404E09EFEC327
:10237300900403E09F900402E09E40030225007452
:10238300812BF582E43402F583E4F02274812BF58A
:1023930082E43402F583E4F0900406E0FEA3E0FF58
:1023A300C3E49FFFE49EFEC3900403E09FEE6480BA
:1023B300F8900402E0648098406C74462BF582E444
:1023C3003403F583E4F074992BF582E43402F58346
:1023D300E4F0743A2BF582E43403F583E004F074FB
:1023E3008D2BF582E43402F583E4F0743A2BF58205
:1023F300E43403F583E0FF90061FE0FEEFC39E5035
:1024030003022500743A2BF582E43403F583E4F0E8
:1024130075F002EBA424CDF582E5F03402F583E4F4
:1024230075F0010224FD74462BF582E43403F58331
:10243300E4F074992BF582E43402F583E4F0743A02
:102443002BF582E43403F583E4F0748D2BF582E4F9
:102453003402F583E004F0748D2BF582E43402F545
:1024630083E0FF900621E0FEEFC39E5003022500A8
:10247300748D2BF582E43402F583E4F0900405E0D7
:1024830025E0FD900404E033FCE0A2E713FEA3E0A3
:10249300132DFFEE3CFEC3E49FFFE49EFED39004A6
:1024A30003E09FEE6480F8900402E0648098502972
:1024B30075F002EBA42416F582E5F03403F583E00E
:1024C300FEA3E0FF75F002EBA424CDF582E5F03422
:1024D30002F583EEF0A3EFF022900406E0FEA3E002
:1024E300FF7C007D0512068675F002EBA424CDF572
:1024F30082E5F03402F583EE8FF01206BC229004DD
:1025030026EBF0A3EAF0A3E9F0E490044AF0A3F089
:10251300A3F0A3F0A3F0A3F0A3F0FE7F08FD7B01DB
:102523007A047932120B737E007F087D007B017A77
:1025330004793A120B737E007F087D007B017A04D5
:102543007942120B7390042CE0FBA3E0FAA3E0F9A9
:10255300EA494B70030227CD1205FAF46003022601
:102563007D900001120613F4600302267D900002A1
:10257300120613F4600302267D900003120613F47F
:10258300600302267D900004120613F46003022602
:102593007D900005120613F4600302267D90000669
:1025A300120613F4600302267D900007120613F44B
:1025B300600302267D1212E3900432E0F9F4700600
:1025C30090044AF0FF22900433E0FF7E007C037DF9
:1025D300E8120674AA06AB07E9FF7E007C277D108C
:1025E300120674EF2BFDEE3AFCA3E075F064A42D04
:1025F300FDE5F03CFCA3E075F00AA42DFFE5F03CFB
:10260300FEA3E07C002FFFEC3EFE90044BF0A3EF13
:10261300F0C390044EE09FEE6480F890044DE064B4
:10262300809840030227C5E490044FF0A3F0900480
:1026330026E0FBA3E0FAA3E0F990044FE0FEA3E059
:10264300FFF5828E8312061324D0FD743A2FF58290
:1026530074043EF583EDF0900450E004F0700690AE
:10266300044FE004F090044FE07004A3E0640870AA
:10267300BD90044A7401F00227C5900429E0F9A330
:10268300E0FAA3E0900454C9F0A3EAF0A3E9F0A3AD
:102693007401F0A37404F0A37442F090042CE0FBE3
:1026A300A3E0FAA3E0F91218BA900442E0F470032D
:1026B3000227CE1212E3900432E0F470030227CE15
:1026C300900433E0FF7E007C037DE8120674AA06C3
:1026D300AB07900432E0FF7E007C277D1012067466
:1026E300EF2BFDEE3AFC900434E075F064A42DFD6D
:1026F300E5F03CFCA3E075F00AA42DFFE5F03CFEF9
:10270300A3E07C002FFFEC3E90044BF0A3EFF0908E
:102713000443E0FF7E007C037DE8120674AA06AB47
:1027230007900442E0FF7E007C277D10120674EFC1
:102733002BFDEE3AFC900444E075F064A42DFDE516
:10274300F03CFCA3E075F00AA42DFFE5F03CFEA3EA
:10275300E07C002FFFEC3EFE90044DF0A3EFF0D39E
:1027630090044CE09FEE6480F890044BE064809802
:102773004050E490044FF0A3F0900426E0FBA3E064
:10278300FAA3E0F990044FE0FEA3E0FFF5828E8305
:1027930012061324D0FD743A2FF58274043EF58398
:1027A300EDF0900450E004F0700690044FE004F064
:1027B30090044FE07004A3E0640870BD90044A7471
:1027C30001F07E007F087D008009E490044AF0FE5A
:1027D3007F08FD90042FE0FBA3E0FAA3E0F9120BBE
:1027E3007390042FE0FBA3E0FAA3E0F8AC02AD037F
:1027F3007B017A04793A7E007F081205D490044A5B
:10280300E0FF227B007A00790890042AE4F0A374A5
:102813000FF0E4FF900426EFF0A3EBF0A3EAF0A39C
:10282300E9F07F0912741B900426E0147003022957
:102833001124FE70030229DE24036003022A3B9065
:10284300042F7401F0A37400F0A37400F0A37401C7
:10285300F0A374F4F0E4FF127415E4FF126BC4E404
:1028630090042CF0A3F090042AE0FEA3E0FFC390B1
:10287300042DE09F90042CE09E5037E0FCA3E0FD84
:10288300900427E0FBA3E0FAA3E0F98D828C831286
:102893000613FBE4FF12551F90042EEFF070037F25
:1028A300012290042DE004F070BC90042CE004F0AD
:1028B30080B4E490042CF0A3F0900432E0FEA3E093
:1028C300FFC390042DE09F90042CE09E4003022A56
:1028D3003EE0FEA3E0FF2418FDE43EFC90042FE05D
:1028E300FBA3E0FAA3E0F98F828E83120613FBE4C5
:1028F300FF12551F90042EEFF070037F0122900406
:102903002DE004F070B390042CE004F080AB90044D
:102913002FE4F0A37400F0A37408F0A3E4F0A3740D
:102923000FF0E4FF127415E4FF126BC4E490042C5F
:10293300F0A3F0900432E0FEA3E0FFC390042DE087
:102943009F90042CE09E5037E0FCA3E0FD90042F01
:10295300E0FBA3E0FAA3E0F98D828C83120613FB5C
:10296300E4FF12551F90042EEFF070037F012290B5
:10297300042DE004F070BC90042CE004F080B4E477
:1029830090042CF0A3F090042AE0FEA3E0FFC39090
:10299300042DE09F90042CE09E4003022A3EE0FEBB
:1029A300A3E0FF2418FDE43EFC900427E0FBA3E032
:1029B300FAA3E0F98F828E83120613FBE4FF12550C
:1029C3001F90042EEFF070037F012290042DE0048A
:1029D300F070B390042CE004F080AB7F0112741507
:1029E3007F01126BC4E490042CF0A3F090042AE05E
:1029F300FEA3E0FFC390042DE09F90042CE09E50C3
:102A03003AE0FCA3E0FD900427E0FBA3E0FAA3E097
:102A1300F98D828C83120613FB7F0112551F9004DC
:102A23002EEFF070037F012290042DE004F070BCC0
:102A330090042CE004F080B47F01227F00229004F4
:102A430003EBF0A3EAF0A3E9F0A3EDF0E4A3F0A312
:102A5300F0900413F0A374FFF0E4900407F09004E3
:102A630007E0FFC39464748094804003022B57757E
:102A7300F005EFA42404F582E5F03400F583E0F4D7
:102A83007003022B4E7E007F087DFF7B017A047961
:102A93000B120B73900407E075F005A42400F9747E
:102AA3000035F0FA7B01C003900429EBF0A3740412
:102AB300F0A3740BF0D003125041900413EFF0E431
:102AC300900409F0900413E0FF900409E02FFFE461
:102AD30033FE900406E0FDD3EF9D7480F86E9850AA
:102AE3005EE490040AF0900413E0FF90040AE0FE11
:102AF300C39F5037EEFF900409E02FFFE433FE90AD
:102B03000403E0FBA3E0FAA3E0F98F828E831206AD
:102B130013FF90040AE0240BF582E43404F583E008
:102B2300B5070890040AE004F080BB900413E0FFAB
:102B330090040AE06F6008900409E004F080859037
:102B43000413E0FF90040AE06F6009900407E004B7
:102B5300F0022A61900407E0C39464748094805067
:102B630007E0FF9001F4F022E4900425F0FE7F08D3
:102B73007DFF7B017A047915120B7390042974018C
:102B8300F0A37404F0A37415F07B017A00790012AA
:102B93005041900413EFF0E4900407F0900407E031
:102BA300FFC3940874809480507574152FF582E4E4
:102BB3003404F583E0F4900407700EE02415F582E5
:102BC300E43404F583E4F0800EE02415F582E43464
:102BD30004F583E02430F0900403E0FBA3E0FAA3C0
:102BE300E0F9900407E0FFF582758300120613FEF7
:102BF300F4700E740B2FF582E43404F583E4F08053
:102C030015900407E0FFEE2430FE740B2FF582E4E9
:102C13003404F583EEF0900407E004F0022B9F9058
:102C230004297401F0A37404F0A37415F0A3E4F071
:102C3300A37400F0A3740FF0A37401F0A37404F061
:102C4300A3741DF07B017A04790B122501900425EE
:102C5300EFF0D39400748094804019780F7C007D4A
:102C6300007B017A04791D7E007F081205D41228A7
:102C7300067FFE227FFF22C101C103C102C10041C1
:102C830003520042060B000041060D004105DF0020
:102C93004105F6004105E0005405E2000000000094
:102CA30000000000000000000000000000000041E0
:102CB30005E10042062A000041062C00011700012D
:102CC3001900011800011A0041053900410538FFB8
:102CD300011CFF011BFF410537004105360041057B
:102CE3003500609404A10223000327000423000796
:102CF30025000826000A27000D23000F25000824BD
:102D0300001627001E27002023001F27002823006A
:102D13002B24002C24002D24005142524325005122
:102D230046524925005144524525005148524725F2
:102D330000514A524B25005133523453352500512B
:102D430036523853392500513A523C533D250051F0
:102D53003E52405341250006270051422500513081
:102D630052312500513A523C2500513052325333EF
:102D730054345535565D576125004103F60042032F
:102D8300ED00004203EF00004203F800004103ECB2
:102D9300004103F7004103FA00410353004103FBE1
:102DA300004103FC004203EA00004303F300000078
:102DB30060820368010300000001070000000108AE
:102DC3000000000109000000010BFF739C010CFFD0
:102DD3006D86010CFF6D9F010CFF6DB8010A0000A9
:102DE300000A04FF6ACE0208000000020900000086
:102DF300020BFF739C030DFF6BE1030FFF72DD03F7
:102E030010FF73740747FF6BFE0749FF72EA074A17
:102E1300FF73920882FF72F7096A000000098400B9
:102E230000006A69FF6D226A68FF6D3B846FFF6D66
:102E3300548470FF6D6D5E05C101E602B303BB05EB
:102E4300C307CB0895099B0ADA06E06AA76AA7833A
:102E5300A184AD9EFFFFFF4C05920000000000001F
:102E63000000000000004106270042062800004140
:102E730001F4FF41060F004106160042061400004C
:102E83004406109607999B41060E00420625000052
:102E93004106230041062400007B01E4FD90040B5E
:102EA300EBF0A3EAF0A3E9F0A3EDF0E4900413F050
:102EB300A3F0A37403F0A374E8F0EDD3940074803B
:102EC30094805003022FC7C2AFE4900413F0900420
:102ED3000EE0FF900413E0FEC39F502190040BE02B
:102EE300FBA3E0FAA3E0F98E82758300120613FDBB
:102EF300E4FF126965900413E004F080D190041597
:102F030074FFF5F01206BC45F07003022FC27F0177
:102F13007E001269B190060DE0C394027480948020
:102F230040DBE4900413F090060DE0FF900413E0FF
:102F3300FEC39F503B74F72EF582E43405F583E01E
:102F4300FF644B602BEF64496026EF64426021EF1E
:102F53006446601CEF64526017EF644D6012EF64C7
:102F63004A600DEF64716008900413E004F080B7C9
:102F730090060DE0FF900413E0FEC39F4003023070
:102F83008574F72EF582E43405F583E0FF90040F92
:102F9300E0FBA3E0FAA3E0F9900414E0FEF58275E8
:102FA3008300EF120652900412E0146E7003023095
:102FB30085900414E004F0900413E004F080B1D28F
:102FC300AF023090C2AF90041574FFF5F01206BC47
:102FD30045F0700302308E7F017E001269B19006C6
:102FE3000DE0C394027480948040DBE4900413F0FA
:102FF30090060DE0FF900413E0FEC39F503B74F76F
:103003002EF582E43405F583E0FF644B602BEF6417
:10301300496026EF64426021EF6446601CEF64520E
:103023006017EF644D6012EF644A600DEF647160E6
:1030330008900413E004F080B790060DE0FF9004BD
:1030430013E0FEC39F503B74F72EF582E43405F57D
:1030530083E0FF90040FE0FBA3E0FAA3E0F9900400
:1030630014E0FEF582758300EF120652900412E01D
:10307300146E600E900414E004F0900413E004F066
:1030830080B7D2AFE490060DF0FF22D2AF7F0022CB
:10309300AB07EBC3942074809480500AE47F01FE55
:1030A300FDFCA803800BE47F01FEFDFCEB24E0F9AB
:1030B300F812080B9003FE12084AEBC394207480A5
:1030C3009480500302318B7596519003FEA3A3A302
:1030D300E0FFEF42977596529003FEE0FCA3E0FDFC
:1030E300A3E0FEA3E0FF78081207F8EF4297EBC3D3
:1030F300942474809480500E9003FEA3A3A3E05401
:103103000FFFEF42EA22EBC3942674809480501B96
:103113009003FEE0FCA3E0FDA3E0FEA3E0FF780440
:103123001207F8EF5403FFEF42EB22EBFFC3942C9B
:10313300748094805037EF642A6005EF642B70121B
:103143009003FEE0FCA3E0FDA3E0FEA3E0FF780410
:1031530080109003FEE0FCA3E0FDA3E0FEA3E0FFEC
:1031630078061207F8EF54CFFFEF42EC229003FEEC
:10317300E0FCA3E0FDA3E0FEA3E0FF780C1207F858
:10318300EF540FFFEF42EE227596269003FEA3A3A2
:10319300A3E0FFEF42977596279003FEE0FCA3E0C0
:1031A300FDA3E0FEA3E0FF78081207F8EF540FFF3A
:1031B300EF42977596289003FEE0FCA3E0FDA3E0A1
:1031C300FEA3E0FF78101207F8EF42977596299057
:1031D30003FEE0FCA3E0FDA3E0FEA3E0FF781812EA
:1031E30007F8AB07EB42979003FEE0FCA3E0FDA3D7
:1031F300E0FEA3E0FF780212080BEF54FCFFEF425E
:10320300EB9003FEE0FCA3E0FDA3E0FEA3E0FF7868
:10321300021207F8EF5430FFEF42EC9003FEE0FC9C
:10322300A3E0FDA3E0FEA3E0FF78041207F8EF5448
:10323300F0FFEF42EE9003FEE0FCA3E0FDA3E0FE0F
:10324300A3E0FF780C1207F8EF54F0FFEF42EF9082
:1032530003FEE0FCA3E0FDA3E0FEA3E0FF7814126D
:1032630007F8EF540FFFEF42F2EB42F7229004000E
:10327300EFF0E4A3F0A3F0127487A3EFF06470708F
:103283000B12748D7F2F1265330272A4900403E036
:10329300646070057F01127484900403E0FF7E0074
:1032A3006401600DEF64326008EF6433600302343D
:1032B3002EEF64544E700B12743FEF6407600302E9
:1032C300342E12748D127133EF640170087F2E1245
:1032D3006533027469900403E064547037900538D1
:1032E300E0FF125D56900401EFF0600302342E906C
:1032F3000538E070030233C5126B4E900401EFF002
:10330300700A7D017F071262040234127FD31265B3
:10331300330234127B017A0479021264859004012A
:10332300EFF060030233A8900403E0640170057FAB
:1033330004024024900403E0643270057F190234D0
:103343002B900403E06433600302342E900538E0CD
:10335300FF125D56900401EFF07045900538E07060
:1033630002805F126B4E900401EFF0702CA3E0FF1C
:103373001256F7900401EFF07015A3E09001F4F0FA
:103383007F051265339001F4E0FF12721A80057F06
:103393006E12653312738880057FD3126533806F95
:1033A3007F7A02342B900403E06432706C9005380A
:1033B300E0FF125D56900401EFF07059900538E07C
:1033C300700C7F181265339005387401F022126B6C
:1033D3004E900401EFF07032FF1270E7900401EF9A
:1033E300F0700F7F051265339001F4E0FF12720A4B
:1033F30080057F6E12653390062CE07008F07F0124
:10340300127484800A12737E80057FD3126533E4BD
:10341300900538F0227F7A800F900403E0640170F6
:10342300057F040262CD7F8012653322EFB407006B
:1034330040030235A690343FF8282873023454021F
:10344300347B0234A10234EC02353A02355D023595
:1034530080EB7009ED42EA7596170234F5EB6401CF
:103463007009ED42EA759617023599EB6402600321
:103473000235A6EDF452EA22EB7008ED42EB7596A5
:1034830018806FEB64017009ED42EB7596180235F5
:1034930099EB640260030235A6EDF452EB22EB7064
:1034A30008ED42EC7596198049EB64017009ED4211
:1034B300EC759619023599EB64027015EDF452EC34
:1034C300ED543070030235A6759625C4540F0235AA
:1034D3008AEB640360030235A6EDF452EC7596257E
:1034E300ED5430C4540F429722EB700AED42EE754F
:1034F300961BED02358AEB64017009ED42EE759679
:103503001B023599EB64027015EDF452EEED543065
:1035130070030235A67596251313543F8069EB6437
:103523000360030235A6EDF452EE759625ED543093
:103533001313543F429722EB7009ED42EF75961C2B
:10354300ED8044EB64017008ED42EF75961C8046F4
:10355300EB6402704EEDF452EF22EB7009ED42F290
:1035630075961DED8021EB64017008ED42F27596AE
:103573001D8023EB6402702BEDF452F222EB700BEF
:10358300ED42F775961EEDF4529722EB6401700A33
:10359300ED42F775961EED429722EB64027004ED3F
:1035A300F452F72290048B12084AE4FFFE7D807CDC
:1035B3003F90048BE0F8A3E0F9A3E0FAA3E0FB1249
:1035C300038D700690048B02370190048BE0FCA3FB
:1035D300E0FDA3E0FEA3E0FF12026DFBA3E0FCA36A
:1035E300E0FDA3E0FEA3E0FF12026DFFB40108E4D7
:1035F300FFFE7D807C3F22EF64046029EB6404605E
:1036030024EBB40130E4FFFEFDFC90048FE0F8A34B
:10361300E0F9A3E0FAA3E0FB12038D60084006E49F
:10362300FFFEFDFC2290048F120856FFFFFFFF9060
:10363300048F023701E4900493F0A3F0FFFEFDFC36
:1036430090048BE0F8A3E0F9A3E0FAA3E0FB1203F4
:103653008D505F90048FE0FCA3E0FDA3E0FEA3E0A8
:10366300FF1201EC900493EEF0A3EFF0FDCCEECC4F
:10367300EC1201B3C8ECC8C9EDC9CAEECACBEFCB93
:1036830090048FE0FCA3E0FDA3E0FEA3E0FF1200A3
:10369300B9E4FBFAF9F812038D708A90048BE0FC0D
:1036A300A3E0FDA3E0FEA3E0FF12040690048B1247
:1036B300084A90048BE0FCA3E0FDA3E0FEA3E0FF37
:1036C3001239A390048FE0F8A3E0F9A3E0FAA3E092
:1036D300FB120287124B7890048F12084A900494CD
:1036E300E030E01790048FE0FCA3E0FDA3E0FEA32D
:1036F300E0FF12040690048F12084A90048FE0FC46
:10370300A3E0FDA3E0FEA3E0FF2290040574FFF015
:1037130078087C047D01FB7A7579AF7E007F031204
:1037230005D49004067442F0A37464F07B017A0418
:1037330079067D02125E9B7F907E011269B190042F
:103743000F7401F0A37404F0A37408F0A37403F0DE
:103753007B017A047906E4FD122EA0900408E0644C
:10376300427047A3E024BB601514602924F9601656
:1037730024FB60232406600302383B7FFF227F087B
:103783001265337FFF2290062C7401F07F6212656D
:10379300337F12800F807590062C7401F07F17120F
:1037A30065337F3212748402383B900408E0FF646F
:1037B3004D600AEF64466005EF6452707890040A26
:1037C300E0FB9004097005E024D0800CE024D07560
:1037D300F00AA4FFEB24D02F9001F4F0900408E04A
:1037E30024BA602824F460282405704C9001F4E086
:1037F300FF7D01125ABE900405EFF070317F051270
:1038030065339001F4E0FF1271FA802C7F08802069
:103813009001F4E0FF1256F7900405EFF0700F7F6C
:10382300051265339001F4E0FF12721A800A7F6E6D
:1038330012653380037F01227F0022127487900474
:103843009AEFF09003FB7401F09003ECE0640170D5
:10385300309003F0E004F070069003EFE004F09082
:1038630003F8E0FEA3E0FFC39003F0E09F9003EFB3
:10387300E09E400D9003EC7402F0E49003EFF0A39C
:10388300F09003F7E06401701B9003FAE004F0E0AA
:10389300C3940A74809480400B9003F77402F0E49D
:1038A3009003FAF09003FCE0D3940074809480407A
:1038B3002A9003EBE004F070069003EAE004F09032
:1038C30003EAE0FEA3E0FFE4FCFD7B587A02F9F88B
:1038D300D31207D15005E49003FCF0125F35EF706B
:1038E3000302396790049AE0FF64616077EF6460D4
:1038F30060729003ECE06401606A126C53EF7064D1
:103903001270FBEF705E90049BF09003EEE004F006
:1039130070069003EDE004F090049AE0FF641260F7
:1039230014EF6413600FEF6441600AEF64326005C3
:10393300EF64337011D39003EEE094C89003EDE08D
:1039430094004017800FD39003EEE094649003ED4E
:10395300E09400400690049B7401F090049BE060A7
:103963000A02605EE49003EDF0A3F0223E9248DA8F
:103973003ECCCCCD3F2AAAAB400000003F800000E4
:103983003F9837F03FB504F33FD744FC3E317217FD
:103993003EB172173F0515913EDE5BD9D20480021A
:1039A300C204EDD2E7F8CD33EC3304700BBD8005D0
:1039B30092D502026202025840FBD31460F2F5F082
:1039C3007C3FEE7A00C39496C8948B40230AC89434
:1039D30069C8941A401A0AC89468C8941F40110A07
:1039E300C8945AC89425400805F07A00CDC2E7CDA3
:1039F300C0F090049512084AEA2323C0E0247FF51F
:103A030082E43439F58312083A1200BDECC0E0EDCC
:103A1300C0E0EEC0E0EFC0E012081E90049512086B
:103A23002E1200B9D0E0FBD0E0FAD0E0F9D0E0B23A
:103A3300E7F812041A90049512084A90396F740338
:103A43001204B790049512082E120287D0E0600F7B
:103A5300248BF582E43439F58312083A1200BD90C1
:103A6300049512084AD0E0C3947FFDE49400FC124D
:103A730001B37B187A727931783F120287900495EB
:103A830012082E1200BD30040B7BD97A5B79DE78E5
:103A93003E120287227B007A007908900402E4F048
:103AA300A3740FF0E4FF123B90AF08EF64016005CD
:103AB300EF64027076E49003FDF07B017A007900F5
:103AC30090040204F0A374F4F07F01123B907B0195
:103AD3007A0179F5900402E4F0A3748CF07F031269
:103AE3003B90D3E50B9400748094805003023B8F8A
:103AF3009003FDE0FFFD7C00C394647480948050C8
:103B03001A75F005EFA42404F582E5F03400F5837B
:103B1300E060089003FDE004F080D5C3ED9464EC0D
:103B2300648094804066E4F50B80567E017FF47DCB
:103B3300FF7B017A007900120B737B017A00790015
:103B430090042A7401F0A374F4F07F011228177E05
:103B5300007F8C7DFF7B017A0179F5120B737B016A
:103B63007A0179F590042AE4F0A3748CF07F0312B0
:103B73002817750801750901E4F50AF50BF50CF52D
:103B83000DFB7A00790890042A122810229003FF73
:103B9300EBF0A3EAF0A3E9F0EF14606024FE7003F6
:103BA300023C5524036003023C80E4FF127415E4D5
:103BB300900404F0A3F0900402E0FEA3E0FFA3E06E
:103BC300FCA3E0FDC39FEC9E4003023C80E4FF1294
:103BD3006B0F9003FFE0FBA3E0FAA3E0F99004046A
:103BE300E0FCA3E0F5828C83EF120652900405E01B
:103BF30004F070C2900404E004F080BAE4FF12748D
:103C030015E4900404F0A3F0900402E0FEA3E0FFA7
:103C1300A3E0FCA3E0FDC39FEC9E5061ED2418FDDF
:103C2300E43CFCE4FF126B0F9003FFE0FBA3E0FA1C
:103C3300A3E0F9900404E0FCA3E0F5828C83EF1287
:103C43000652900405E004F070BE900404E004F012
:103C530080B67F011274159003FFE0FBA3E0FAA383
:103C6300E0F9E490040AF0A3F0900402E0FFA3E07B
:103C730090040CCFF0A3EFF07D01124F3922E4F949
:103C8300900402F0A3F0FEEEC3940C748094805071
:103C93006074E52EF582E43402F583E06050EE258E
:103CA300E02416F582E43403F583E0FCA3E0FDEEA3
:103CB30025E024CDF582E43402F583E0FAA3E0C3E2
:103CC3009DFDEA9CFC900400F0A3EDF0D390040367
:103CD300E09DEC6480F8900402E0648098500F90BB
:103CE3000400E0FDA3E0A3CDF0A3EDF0A9060E8050
:103CF30096900309E069606FE0FE25E02416F582E3
:103D0300E43403F583E0FCA3E0FDEE25E024CDF5E8
:103D130082E43402F583E0FAA3E0C39DFEEA9C90BB
:103D23000400F0A3CEF0900400E0FEA3E0FFC390F4
:103D33000403E09FFF900402E09EFE900400F0A3C2
:103D4300EFF0E925E02443F582E43475F583E49349
:103D5300FC740193FDD3EF9DEC6480F8EE648098CE
:103D63004005900309E9F0AF0122900403EBF0A3AF
:103D7300EAF0A3E9F0A3EDF0E4900408F090040D59
:103D830074FFF07E007F04FD7B017A047909120B36
:103D930073900406E0FD9004127401F0A37404F020
:103DA300A37409F0900403125336E4FFEFC3946441
:103DB30074809480506475F005EFA42404F582E5C3
:103DC300F03400F583E0F4604EE4900408F09004CE
:103DD30008E0FD7C00C39404748094805033E0FEBB
:103DE30075F005EFA42400F582E5F03400F583E5D2
:103DF300822EF582E43583F583E0FB74092EF58288
:103E0300E43404F583E0B50308900408E004F0808B
:103E1300BDED64044C60030F8092EFC3946474801F
:103E23009480502675F005EFA42404F582E5F03460
:103E330000F583E0FE900407E0FDEE6D6005ED64A0
:103E430003700790040DEFF0800690040D74FFF0EB
:103E530090040DE0FF22900403EBF0A3EAF0A3E942
:103E6300F0A3EDF0E4900408F0900407E0FF7E0077
:103E73007004A3F0803CEF64024E700790040804C2
:103E8300F0802F9004087402F0900408E0FFC394BC
:103E93006474809480501B75F005EFA42404F582AC
:103EA300E5F03400F583E0F46008900408E004F0E2
:103EB30080D7900408E0FFC3946474809480507AA0
:103EC3009001F4EFF07E007F047DFF7B017A04799B
:103ED30009120B73900406E0FD9004127401F0A321
:103EE3007404F0A37409F090040312533690040889
:103EF300E075F005A42400F9740035F0A801FC7DF9
:103F0300017B017A0479097E007F041205D49004B1
:103F130007E0FFA3E075F005A42404F582E5F0347F
:103F230000F583EFF07B017A00790090042A740195
:103F3300F0A374F4F07F010228177F01229005DFBC
:103F4300E064017071A3E0700D7D047F0512644786
:103F53007D01E4FF800C9005E0E0640270097D04BC
:103F63007F0512617A800F9005E0E0C394047480AA
:103F730094804002B2F89005E0E004F09005F6E08A
:103F830025E0FFE433FEEF2406FFE43EFE9005E068
:103F9300E0C39FEE6480F87480985003024023E4EA
:103FA300F07D047F0512617A7D01E4FF12617A904E
:103FB30005DF7404F0229005DFE06403704BA3E097
:103FC30070057D01FF801D9005E0E0640170097DAF
:103FD300047F05126447800F9005E0E064037007D7
:103FE3007D047F0512617A9005E0E004F0E0C3945C
:103FF30004748094804029E4F07D047F0512617A83
:104003007D01E4FF12617A80119005DFE0640470A2
:104013000F7D02FF125141EF70069005DF7402F02D
:1040230022900404EFF01274ABEF6401702F90043C
:1040330004E0FF54107026EF640860217F081265C6
:1040430033900404E024FE600E24FE600D2403601C
:10405300030240F702745D027463027469E490031F
:10406300FCF012749FEF64017031900404E0FFFDD3
:1040730064086027EF54107022EDF4FFE4F4FE901F
:1040830003F6E0FDFBEF5B6004E4F0800E900404B4
:10409300E04D9003F6F07F4B0265337F5212748438
:1040A3001274AE7BFF7A7079957F037E001260ED08
:1040B300900404E014602324FD602924FC602F2471
:1040C300F6600D04702B9001F4E0FF126CA38021C5
:1040D3009001F4E0FF126CBD80179001F4E0FF1231
:1040E300722A800D9001F4E0FF12723A8003127479
:1040F300571271892290048BEBF0A3EAF0A3E9F045
:10410300E4900493F0A3F0D3900492E0940090041D
:1041130091E06480948050030241B190048BE0FBF2
:10412300A3E0FAA3E0F9900493E0FEA3E0F5828E06
:10413300831206136010900494E004F070DD900481
:1041430093E004F080D590048EE0FBA3E0FAA3E0B3
:10415300F91205FA603E90048EA3E475F00112068D
:10416300D2A9F0FA1205FAFF90048BE0FBA3E0FA60
:10417300A3E0F9900493E475F0011206D285F0826E
:10418300F583EF12065290049174FFF5F01206BC0A
:1041930045F070B290048BE0FBA3E0FAA3E0F99042
:1041A3000493E0FEA3E0F5828E83E41206529004AA
:1041B3008BE0FBA3E0FAA3E0F922E4900401F0C250
:1041C3000112001EE4900400F0900400E0C3940C7C
:1041D30074809480400302427630030343AD102081
:1041E300000575910780F8C200AFACEFFEADABEDF3
:1041F300FF900400E0FD25E02416F582E43403F586
:1042030083EEF0A3EFF0EDC3940B74809480502DF4
:10421300ED25E024B7F582E43402F583E0FEA3E064
:10422300F5CA53CC7FEE5401C313E41342CC53CCF1
:10423300C0ED9074CD93543F42CC75C901900400F6
:10424300E0FF1221B2900400E0FF1248CB9004007B
:10425300E0FF12584D30010F900309E0F47008900D
:104263000400E0900309F0200212900400E004F03F
:104273000241CC20010690030974FFF022C2012001
:10428300046D9074C6E493FD700D90758993C31308
:10429300FF74019313801575F002EDA42487F58252
:1042A300E5F03475F583E493FF7401939003FECF37
:1042B300F0A3EFF0E49003FDF09003FDE0C3940C52
:1042C300748094805071E0FF24E5F582E43402F5B4
:1042D30083E4F0C2059003FEE0FDA3E0900401CD6A
:1042E300F0A3EDF0121E269003FDE004F080CA90C7
:1042F30074C9E493FD700D90758993C313FF740122
:104303009313801575F002EDA42487F582E5F0344C
:1043130075F583E493FF7401939003FECFF0A3EF4D
:10432300F0D2059003FEE0FFA3E0900401CFF0A3D9
:10433300EFF0E4FF121E2690030974FFF0229004AD
:1043430023EBF0A3EAF0A3E9F0E490042AF07F2E34
:10435300FE1270BF53FBFDE4F5FAF5FE7596585354
:1043630097EF53FBEF43FC40FF900429E0FEEFC3BC
:104373009E5064E4A3F074FFFDFCED1DAA047001DC
:104383001C4A6029E5FB30E4F1E5FB548070EB90B7
:104393000423E0FBA3E0FAA3E0F98F82758300E531
:1043A300FA12065253FBEF90042A7401F053FB7F79
:1043B30053FBDFE5FE601D900423E0FBA3E0FAA3BB
:1043C300E0F98F82758300E5FA12065290042A748D
:1043D300ACF080030F809253FCBF43FB0290042A8E
:1043E300E064AC700F900426E0FBA3E0FAA3E0F9CD
:1043F300EF12064090042AE0FF2253CCBFA204E44C
:1044030033C43333544042CC3004030244B5E49004
:104413000402F090062DE0FF900402E0C39F4003E6
:104423000244B5E0FF75F002A424B5F582E5F0344B
:1044330002F583E0FCA3E0FDEF9074CC93FF1266DA
:104443000B900402E0FD75F002A42416F582E5F05A
:104453003403F583EEF0A3EFF075F002EDA4241618
:10446300F582E5F03403F583E0FEA3E0FF75F00287
:10447300EDA424CDF582E5F03402F583EEF0A3EF4D
:10448300F075F002EDA42416F582E5F03403F5830C
:10449300E0FEA3E0FF75F002EDA424F1F582E5F060
:1044A3003402F583EEF0A3EFF0900402E004F0028F
:1044B30044162290040AEBF0A3EAF0A3E9F0900477
:1044C30011EFF0A37470F0E4FF900410E0FEEFC36B
:1044D3009E502390040AE0FBA3E0FAA3E0F98F8245
:1044E300758300120613FE74132FF582E43404F56A
:1044F30083EEF00F80D37B017A047911900410E0EE
:104503002402900421F07F01126409900410E0FC5E
:104513002413F582E43404F583EFF0EEFF74142CD6
:10452300F582E43404F583EFF07B017A047911908A
:104533000410E02404FD124778EF640160037F0157
:10454300229004267401F0A37404F0A37411F0A361
:104553007403F090040DE0FBA3E0FAA3E0F9124327
:1045630041EF64017F0060027F0122900400EBF0C1
:10457300A3EAF0A3E9F078037C047D017BFF7A755D
:1045830079A37E007F061205D47596585397FB7B5B
:10459300017A047903126016EF60037F012290040D
:1045A30003E054C0C41313540375F003A424046438
:1045B3000460037F01227B017A0479037D017F93E9
:1045C300124A0AEF60037F0122900400E0FBA3E09C
:1045D300FAA3E0F8AC02AD037B017A0479037E0011
:1045E3007F051205D490040D7401F0A37404F0A3A5
:1045F3007403F0A37405F0900400E0FBA3E0FAA3B6
:10460300E0F97F931244B6EF60037F012290040325
:10461300E054247F017001FF22900404EBF0A3EA2D
:10462300F0A3E9F0E4FFFEEFC3940A748094805092
:1046330015EF75F00EA424F5F582E43401F583E05B
:10464300F460030F80E1EFC3940A74809480507484
:104653009001F4EFF075F00EA424F5F582E4340133
:10466300F583EFF075F00EA424F6F582E43401F53A
:1046730083EDF0E4FEEEC3940C748094805031908B
:104683000404E0FBA3E0FAA3E0F98E827583001231
:104693000613FDEF75F00EA424F7F582E43401F55B
:1046A30083E5822EF582E43583F583EDF00E80C534
:1046B3007B017A0179F590042AE4F0A3748CF07FEE
:1046C300030228177F01227B01E0FCA3E0FD900495
:1046D3008BEBF0A3EAF0A3E9F0A3ECF0A3EDF0E495
:1046E300A3F0A3F09004907413F0900490E0FD7C89
:1046F30000C3940A74809480407A90048EE0FEA3F1
:10470300E0FF120686AF05900492EFF0D39409748C
:104713008094804004E024F6F0900492E0FF90043B
:1047230091E0FD90048BE0FBA3E0FAA3E0F91264AF
:10473300FAEF6014900492E004F0E0D394097480DB
:10474300948040D5E4F080D1900492E0FF90048BF4
:10475300E0FBA3E0FAA3E0F9900491E0F58275830E
:1047630000EF120652900491E004F0900490E014DC
:10477300F00246ED22900423EBF0A3EAF0A3E9F064
:10478300A3EDF07596585397FDE060046401702320
:10479300900423E0FBA3E0FAA3E0F91205FAF5F98C
:1047A30053FCC1900426E0FF25E0543E42FC43FC49
:1047B30001806B900423E0FBA3E0FAA3E0F9120568
:1047C300FAF5F9900001120613F5FA53FCC19004AF
:1047D30026E0FF25E0543E42FC43FC01126C377D8A
:1047E30002900426E0FEEDC39E5033ED9004233087
:1047F300E014E0FBA3E0FAA3E0F98D8275830012D5
:104803000613F5FA8012E0FBA3E0FAA3E0F98D8228
:10481300758300120613F5F9126C370D80C3126C01
:1048230037229005DFE0640260030248C77D02FF80
:10483300125141EF640160030248C79005E2E07042
:10484300139005F6F01273D39005E17401F0E49030
:1048530005DFF022E4900499F09005DF04F0900561
:10486300E2E09005F6F0E4900499F0900499E0FFFB
:104873003395E0FEC3EF9413EE64809480502B7461
:10488300E32FF58274053EF583E0FF601D900499E4
:10489300E0FD3395E0FC74E22DF58274053CF5836D
:1048A300EFF0900499E004F080C1900499E0FF33A5
:1048B30095E0FE74E22FF58274053EF583E4F090F3
:1048C30005E0F022123F402274812FF582E4340286
:1048D300F583E07049742E2FF582E43403F583E405
:1048E300F074A92FF582E43402F583E004F074A98F
:1048F3002FF582E43402F583E0FE907588E493FD9E
:10490300EED39D406474A92FF582E43402F583E469
:10491300F074E52FF582E43402F583E4F02274A900
:104923002FF582E43402F583E4F0742E2FF582E44C
:104933003403F583E004F0742E2FF582E43403F599
:1049430083E0FE907587E493FDEED39D401B742EA8
:104953002FF582E43403F583E4F074E52FF582E464
:104963003402F5837401F0D2012275962B5397F824
:10497300900409E05407429753CDF3A3E025E025C3
:10498300E0540C42CD53CDFDA3E025E0540242CDCB
:1049930053CDFEA3E0540142CD53CBBFA3E0C433B8
:1049A30033544042CB53CCBFA3E0C43333544042CF
:1049B300CC75962B5397C7A3E033333354384297C0
:1049C30053CD8FA3E0C4547042CD53CBC0A3E05466
:1049D3003F42CB53ADDFA3E0C433542042AD7596C1
:1049E3002D5397FDE4F5C953F1DF900414E06401FE
:1049F300701153F6DF900413E0C43354E042F643DE
:104A0300E6202253E6DF22900409EFF0A3EDF0A3A2
:104A1300EBF0A3EAF0A3E9F0780E7C047D017BFFC1
:104A23007A7579997E007F0A1205D4900409E09083
:104A33000418F0A37420F07B017A0479187D021224
:104A43004778EF640160037F01229004267401F02C
:104A5300A37404F0A37422F0A37405F07B017A0419
:104A63007918124341EF64017031FEEEC39405746B
:104A7300809480502374182EF582E43404F583E087
:104A8300FD90040BE0FBA3E0FAA3E0F98E827583AB
:104A930000ED1206520E80D37F0022EF7F007002DA
:104AA3007F012278087C047D017BFF7A7579B27ED1
:104AB300007F021205D4900406744AF0A37464F0D4
:104AC3007B017A0479067D02125E9B7F907E011240
:104AD30069B190040F7401F0A37404F0A37408F097
:104AE300A37402F07B017A047906E4FD122EA090F0
:104AF3000408E0FEB44A08A3E0B445037FFF22EEB6
:104B0300B44A0A900409E0B430037F0022900408F9
:104B1300E0B44A08A3E0B431037F0122900408E023
:104B2300FEB44A08A3E0B432037F0222EEB44A0A79
:104B3300900409E0B433037F03227FFF2233DA9228
:104B43009E35B16011377FE5FE392184893AAEC3C2
:104B5300FF3C1D955B3D6358473E75FDF03F317249
:104B6300183F800000C2D5020262020258BD80FADB
:104B730050F302025FED33EC330460F17B3B7AAA1E
:104B830079B8783F120287ED33EC3392D5247B500A
:104B930011A2D570DB500BED448024045004A2D540
:104BA30080CEEFFBEEFAEDF9ECF81201ECEFF582B3
:104BB300F404FC1201B81200BDC082904B4074098A
:104BC3001204C6ED33CC33D0F092D525F0A2D570C4
:104BD30001C313CC13FD22E4900400F0A3F012717F
:104BE3000FEF64017002FF229005BFE075F003A48C
:104BF300249EF582E43405F583E01206409005BF58
:104C0300E0FF75F003A4249FF582E43405F583E007
:104C1300900001120652EF75F003A424A0F582E47C
:104C23003405F583E09000021206529005BFE0FFC1
:104C330075F003A4249EF582E43405F58374FFF034
:104C4300EF75F003A4249FF582E43405F58374FF24
:104C5300F0EF75F003A424A0F582E43405F5837422
:104C6300FFF01271459005BFEFF07F01229074CBE6
:104C7300E49390062DF0E49003FDF090062DE0FF01
:104C83009003FDE0FEC39F5077E0FF25E024ECF5A1
:104C930082E43474F583E493FC740193FD75F002AC
:104CA300EFA424B5F582E5F03402F583ECF0A3ED2F
:104CB300F0EE9074CC93FF1230939003FDE0FF75F8
:104CC300F002A42416F582E5F03403F583E4F0A39F
:104CD300F075F002EFA424CDF582E5F03402F583FC
:104CE300E4F0A3F075F002EFA424F1F582E5F034CB
:104CF30002F583E4F0A3F09003FDE004F0024C7EA0
:104D0300229003FD74FFF0A3F0127268EF64017048
:104D130020127336EF701A127167EF700F90053718
:104D2300E0700E04F07F02126A438005E4900537B9
:104D3300F01274819003FDEFF0F4601EE0FF125B4C
:104D4300239003FEEFF0F46011E0651B600FE0FBBE
:104D5300F51BE4FDFF126A468003751BFF12749373
:104D6300EF60057F04126A43127178EF6008E4FB79
:104D7300FD7F03126A46127286EF6008E4FBFD7F33
:104D830005126A46127277EF6008E4FBFD7F061294
:104D93006A4622900407EBF0A3EAF0A3E9F0A3ED3F
:104DA300F0E4FFEFC3940A748094805047E4FEEE6E
:104DB300C3940C748094805033900407E0FBA3E009
:104DC300FAA3E0F98E82758300120613FDEF75F0E6
:104DD3000EA424F7F582E43401F583E5822EF582EF
:104DE300E43583F583E0B505030E80C3EE640C6000
:104DF300030F80AFEFC3940A74809480501FEF7544
:104E0300F00EA424F6F582E43401F583E0FE900469
:104E13000AE0FDEE6D6008ED64037001227FFF225E
:104E2300787FE4F6D8FD758120024E6A025BEBE4DD
:104E330093A3F8E493A34003F68001F208DFF48020
:104E430029E493A3F85407240CC8C333C4540F4470
:104E530020C8834004F456800146F6DFE4800B014A
:104E630002040810204080902C7AE47E019360BCF9
:104E7300A3FF543F30E509541FFEE493A360010EE2
:104E8300CF54C025E060A840B8E493A3FAE493A309
:104E9300F8E493A3C8C582C8CAC583CAF0A3C8C52A
:104EA30082C8CAC583CADFE9DEE780BE1271AA12CF
:104EB30073B012670812676812693C126828125FA0
:104EC300811267C87B027D087F0512342F7D087F1E
:104ED3000512617AE4FB7D407F0612342F7B027D4D
:104EE300107F0212342F7D107F021264477B027DF4
:104EF300087F0212342F7D087F02126447E4FB7D92
:104F0300207F0612342FE4FB7D107F0312342FE43D
:104F1300FB7D207F0312342FE4FB7D407F0312349B
:104F23002FE4FB7D807F0312342F1273E1126F1B7A
:104F3300126AAD02734C900406EBF0A3EAF0A3E906
:104F4300F0ED90040B600CE02400FE90040AE034C2
:104F530046800AE02400FE90040AE0344490040EE4
:104F6300F0A3CEF0C2AFE4FDFCD390040DE09D901E
:104F7300040CE09C403A75D28890040EE0FAA3E05A
:104F8300FBEAF5CEEBF5CF900406E0FBA3E0FAA332
:104F9300E0F98D828C83E5D412065290040FE0046D
:104FA300F0700690040EE004F00DBD00010C80B912
:104FB300E4F5D2F5CEF5CFD2AF22E4FE900405F0AE
:104FC300A3741AF09003F2EFF07F147D007B017A53
:104FD300037954120B73E49003F1F0FE900406E09E
:104FE300FFEEC39F5057EE75F005A42468F582E4E5
:104FF3003403F583E0FF9003F2E0FDEF6D703B9027
:105003000405E0FF25E02454F582E43403F583EE40
:10501300F075F005A42469F582E43403F583E0FD1B
:10502300EF25E02455F582E43403F583EDF0900495
:1050330005E004F09003F1E004F00E809F22900459
:1050430026EBF0A3EAF0A3E9F0E4FF90042CF0EFE1
:10505300C39404748094805060900426E0FBA3E022
:10506300FAA3E0F98F82758300120613FEF46049F8
:10507300EE54F0C4540FFD900429E0FBA3E475F053
:10508300011206D2A9F0FAED12064090042CE004B6
:10509300F0EE540F640F6021EE540FFD900429E0ED
:1050A300FBA3E475F0011206D2A9F0FAED12064053
:1050B30090042CE004F00F809690042CE0FF225320
:1050C300C4FC53C4F343C40453C4BF43C44053C4D4
:1050D300CF43C43053C47F43C48053C38143C30EFF
:1050E30053C38143C30C75963253978343977C759F
:1050F30096325397FC4397037596425397FC439715
:105103000275C1FF7596425397F343970475964210
:105113005397EF4397107596425397DF126AEF75D3
:10512300965343970143F78075962A43974043F775
:105133004075962D5397FE75962D43970122EFB434
:105143000700507590514EF828287302516302519D
:105153007002517D02518A0251970251A40251B14A
:10516300E5F85D7F0060027F01AE07804CE5805D5E
:105173007F0060027F01AE07803FE5905D7F0060A6
:10518300027F01AE078032E5B05D7F0060027F01E0
:10519300AE078025E5C05D7F0060027F01AE07801A
:1051A30018E5C85D7F0060027F01AE07800BE5D87C
:1051B3005D7F0060027F01AE07AF06221252BA90F4
:1051C3000401EFF0900626E004F07006900625E057
:1051D30004F0EF64017012127487EF6461700312BC
:1051E30071217F081240248043900401E06402602F
:1051F3000FD3900626E0941E900625E094004034D9
:10520300127487EF64617003127121900401E064EA
:105213000270077F221265338012127487EF6401D4
:10522300700A7F081265337F60127484E490062548
:10523300F0A3F0227F011271CA229074BDE493900F
:1052430003FDF09074BEE4939003FEF09074BFE40A
:10525300939003FFF09074C0E493900400F0907473
:10526300C1E493900401F09074C2E493900402F0BB
:105273009074C5E493900403F09074C6E49390048F
:1052830004F09074C7E493900405F09074C3E4931E
:10529300900406F0A37401F09074C4E4939004089E
:1052A300F078097C047D017B017A0379FD7E007F20
:1052B3000C1205D402496D78047C047D017BFF7ACE
:1052C3007579AD7E007F021205D4900402744BF011
:1052D300A37464F07B017A0479027D02125E9B7FE2
:1052E3002C7E011269B190040F7401F0A37404F0D1
:1052F300A37404F0A37402F07B017A047902E4FD41
:10530300122EA0900404E0FEB44B08A3E0B44F03B4
:105313007F0122EEB44B0A900405E0B445037F02FB
:1053230022900404E0B44B08A3E0B44B037F0322B0
:105333007F0022E0FBA3E0FAA3E0F990040EEBF078
:10534300A3EAF0A3E9F0A3EDF0E4FC900415F090D8
:105353000411E0FDECC39D505590040EE0FBA3E067
:10536300FAA3E0F9AF048F82758300120613540F7A
:10537300900415F00C900411E0FFECC39F500D8CCA
:1053830082758300120613540FFE80027E0F900471
:1053930015E0C454F04EFF900412E0FBA3E475F053
:1053A300011206D2A9F0FAEF1206400C80A1229056
:1053B300049FEFF0E4A3F09005DFE070227D02FF8D
:1053C300125141EF640170179005DF04F090049FC0
:1053D300E09005F6F0E49005E0F012719A8048E45D
:1053E3009004A0F09004A0E0FFFD7C00C39414742B
:1053F300809480501574E22FF582E43405F583E040
:1054030060089004A0E004F080DAC3ED9414EC6427
:10541300809480501290049FE0FFA3E024E2F58281
:10542300E43405F583EFF07F01229004047401F066
:105433008058900404E0FFC3946474809480504FB8
:1054430075F005EFA42404F582E5F03400F583E05C
:1054530064017033900404E075F005A42404F5821C
:10546300E5F03400F58374FFF0900004C083C0823C
:10547300FDEF75F005A42400F9740035F0FA7B0103
:10548300D007D006120B73900404E004F080A37BD2
:10549300017A00790090042A7401F0A374F4F07F78
:1054A30001022817E4900404F09005DFE0700B7DFF
:1054B30002FF125141EF640160611273D3E490045F
:1054C30004F0900404E0FFFD3395E0FCC3ED941475
:1054D300EC648094805019EF3395E0FE74E22FF56D
:1054E3008274053EF583E4F0900404E004F080D276
:1054F3009005E0E0C39404748094804010E4900528
:10550300F6F09005DF7403F0E4A3F0800BE490055C
:10551300F6F09005DF7403F012719A22900434ECD4
:10552300F0A3EDF0A3EBF0AA0775965BAD97C2AFBE
:10553300E4F5CFF5CEEA25E025E042CE900434E051
:10554300FEA3E0F5CFEE540342CEA3E0F5D175D22E
:105553006900000000E4F5CFF5CEAF05EDAF029092
:105563000434700CE0FCA3E0FD126B0FA907800A62
:10557300E0FCA3E0FD126912A907900436E0B5012F
:1055830006A37401F08005E4900437F0D2AF9004D1
:1055930037E0FF229003F2E0640170057F0102749B
:1055A30084E4900403F0A3741AF0E4900403F090ED
:1055B3000404E0FF900403E0FEC39F5039EE75F04E
:1055C30005A42469F582E43403F583E0FF9003F234
:1055D300E0FEEFB50618900403E075F005A4246817
:1055E300F582E43403F583E09003F2F0800890043D
:1055F30003E004F080B99003F2E0FF124FBD900383
:10560300F2E0FF1265A112653322900404EFF0E08B
:105613002410F582E43406F583E024F96025246E32
:10562300603124FE6037240570437F4E12653312C8
:1056330074A5EF60057F25126533E4900614F0A38B
:10564300F0802A1274217F171265331274A5EF605C
:105653001C80157F7712653312730480107F4F12FD
:1056630065331274A5EF60057F251265339004043A
:10567300E02410F582E43406F583E0900616F02268
:10568300E4FF90062DE0FEEFC39E506374462FF5B2
:1056930082E43403F583E4F074992FF582E4340251
:1056A300F583E4F0743A2FF582E43403F583E4F0F0
:1056B300748D2FF582E43402F583E4F074A92FF599
:1056C30082E43402F583E4F0742E2FF582E434038C
:1056D300F583E4F074812FF582E43402F583E4F07A
:1056E30074E52FF582E43402F583E4F00F8093E44C
:1056F300FF0260A6EFC3940A748094805066EF752E
:10570300F00EA424F5F582E43401F583E06F7054C0
:10571300EF75F00EA424F5F582E43401F58374FFEC
:10572300F0EF75F00EA424F6F582E43401F58374EA
:10573300FFF090000CC083C082FDEF75F00EA4242F
:10574300F7F9740135F0FA7B01D007D006120B7319
:105753007B017A0179F590042AE4F0A3748CF07F3D
:10576300030228177F01221273B9C20412428090E8
:1057730074C6E49375F002A42489F582E5F03475C8
:10578300F583E493FE740193FFE4FCFD78031208B0
:105793000BE47B0AFAF9F81207249002A7EEF0A3B0
:1057A300EFF09074C6E49375F002A42489F582E5C2
:1057B300F03475F583E493FE740193FF907530E440
:1057C30093FD7C001208B3E47B0AFAF9F81207246C
:1057D3009002A5EEF0A3EFF022E4900404F0F09021
:1057E3000404E0FFC3940A748094805049E0FE757A
:1057F300F00EA424F6F582E43401F58374FFF0EE91
:1058030075F00EA424F5F582E43401F58374FFF0FA
:1058130090000CC083C082FDEF75F00EA424F7F94D
:10582300740135F0FA7B01D007D006120B73900494
:1058330004E004F080A97B017A0179F590042AE45D
:10584300F0A3748CF07F03022817C202EF25E02433
:1058530016F582E43403F583E0FCA3E0FD9002A790
:10586300E0FAA3E0FBC3ED9BEC9A5020EF25E02484
:1058730016F582E43403F583E0FEA3E0FF9002A56E
:10588300E0FCA3E0FDC3EF9DEE9C5028900352E0A3
:1058930004F0E0C3940A748094804018E4F0D202C8
:1058A300F5C953F1DFC200C20190030974FFF0C2CE
:1058B300041243FD2278047C047D017BFF7A757911
:1058C300A97E007F021205D49004027449F0A374E8
:1058D30064F07B017A0479027D02125E9B7F327E43
:1058E300001269B190040F7401F0A37404F0A3745F
:1058F30004F0A37402F07A047902122E9C9004043B
:10590300E0FEB44908A3E0B44F037F0122EEB4499B
:105913000A900405E0B445037F02227F002290042D
:1059230003EFF0640A702A1274A5EF602490061442
:10593300E07002A3E0700590060E801190060EE061
:1059430004F0E0D39402748094804005E4F0127272
:1059530095900403E0FF7E007401A807088005C347
:1059630033CE33CED8F9FF900614E04EFEA3E04FBA
:10597300FF900614EEF0A3EFF0BE0F0ABFFF077D02
:10598300017F961262042290048BEBF0A3EAF0A34A
:10599300E9F0E4900493F0A3F090049174FFF5F020
:1059A3001206D245F0603C90048EE0FBA3E0FAA31C
:1059B300E0F91205FAFF90048BE0FBA3E0FAA3E001
:1059C300F9900493E475F0011206D285F082F58311
:1059D300EF120652EF60C290048FE475F0011206D5
:1059E300BC80B690048BE0FBA3E0FAA3E0F9227E2F
:1059F300017FF47DFF7B017A007900120B737B0139
:105A03007A00790090042A7401F0A374F4F07F0102
:105A13001228177E007F8C7DFF7B017A0179F512B6
:105A23000B737B017A0179F590042AE4F0A3748C5B
:105A3300F07F03122817750801750901E4F50AF5CB
:105A43000BF50DFB7A00790890042AF0A3740FF08C
:105A5300E4FF022817E4900401F0900626E004F026
:105A63007006900625E004F01258B8900401EFF098
:105A73006401701A900623E004F0E0C3940274807A
:105A83009480400F126B2FE4900623F08020E49063
:105A93000623F0D3900626E0943C900625E094007C
:105AA3005008900401E06402700B126A67E49006E8
:105AB30025F0A3F022E4FF1271CA22EFC3946474A9
:105AC300809480505875F005EFA42404F582E5F026
