:1000000002392C02008EE4FF0259B2025181E4FF52
:100010000258FD020096E4FF0259D502536AE4F546
:10002000C9C20053F1DF900412E0FEA3E0F5CA5309
:10003000CC7FEE5401C313E41342CC53CCC0906385
:100040008FE493543F42CC75C9012202009EE4FF25
:100050000259F80200861263777F2A1254177F0133
:100060000262FD0262D353E1DF323202007253E1D9
:10007000F7323202507D7F901254171258677F4139
:0A0080000262FD02632753F1F7321C
:07008B000251BF5388FD3252
:0700930002006E5388F732F2
:07009B0002006A53F1FB3281
:0700A30002006653E1BF32C9
:0700AB000200A653E17F32C1
:1000B3000200AEEC4D6011E8497017ED33EC3304E8
:1000C300600DE4FCFFFEFD22E933E8330470F8021F
:1000D30002A812027358046009E4CC248150062854
:1000E30050090202B22840030202AFC0E0EB4A709B
:1000F30044B98006D0E0FB02029EEF4E701CBD8027
:1001030008EBFFEAFEE9FD80EBE98DF0A4FEE5F0E4
:1001130002019FE9CDF9EAFEEBFFEF89F0A4FCE5CC
:10012300F0CE89F0A42EFFE435F0CD89F0A42DFEA6
:10013300E435F08067EF4E7005BD80D780C3EF8B49
:10014300F0A4ACF0EE8BF0A42CFCE435F0F8EF8ACD
:10015300F0A42CE5F038FCE433CB8DF0A42CFCE5C3
:10016300F03BF8EE8AF0A42CFCE5F038F8E433CF4A
:1001730089F0A42CFCE5F038CF3400CE89F0A42F0D
:10018300FFE5F03EFEE433C98DF0A42EFEE5F03921
:10019300CD8AF0A42FFFE5F03EFEE43DFD33D0E031
:1001A300FB50070BBB000F0202B2EC2CFCEF33FF3A
:1001B300EE33FEED33FD02028A74F8CC6480CCC8C2
:1001C3006480C8F58204604FC3EB9FF5F0EA9E425A
:1001D300F0E99D42F0E89C45F0603C501DE5825FEC
:1001E300FFE582D313CB5BCBF42B5582FB50280A5C
:1001F300BA002409B9002008801DE5825BFBE58273
:10020300D313CF5FCFF4C3132F5582FF50090EBE14
:1002130000050DBD00010CC3EB9FF5F0EA9E42F013
:10022300E99D42F0E89C45F06007CC4820E701B324
:10023300EC2275F020800E75F010800575F0087DB6
:10024300007E007F003392D530D50312059BEC333B
:100253004010EF33FFEE33FEED33FDEC33FCD5F00E
:10026300ED22E5F0247EA2D513CC92E7CDCEFF227A
:10027300E9D2E7C933E833F892D5EDD2E7CD33ECD1
:1002830033FC5002B2D522EC30E7100FBF000C0E46
:10029300BE00080DBD00040BEB6014A2D5EB13FCEC
:1002A300ED92E7FD2274FFFCFDFEFF22E480F8A23D
:1002B300D574FF13FC7D80E480EFE709F608DFFACD
:1002C3008046E709F208DFFA803E88828C83E709DB
:1002D300F0A3DFFA8032E309F608DFFA8078E30956
:1002E300F208DFFA807088828C83E309F0A3DFFAD7
:1002F300806489828A83E0A3F608DFFA80588982C2
:100303008A83E0A3F208DFFA804C80D280FA80C6A9
:1003130080D4806980F28033801080A680EA809A3E
:1003230080A880DA80E280CA803389828A83ECFAEB
:10033300E493A3C8C582C8CCC583CCF0A3C8C58247
:10034300C8CCC583CCDFE9DEE7800D89828A83E4EC
:1003530093A3F608DFF9ECFAA9F0EDFB2289828A70
:1003630083ECFAE0A3C8C582C8CCC583CCF0A3C88C
:10037300C582C8CCC583CCDFEADEE880DB89828A0C
:1003830083E493A3F208DFF980CC88F0EF60010ED9
:100393004E60C388F0ED2402B4040050B9F582EB3B
:1003A3002402B4040050AF232345822390030D732A
:1003B300BB010689828A83E0225002E722BBFE0248
:1003C300E32289828A83E49322BB010CE58229F527
:1003D30082E5833AF583E0225006E92582F8E62296
:1003E300BBFE06E92582F8E222E58229F582E58350
:1003F3003AF583E49322BB010689828A83F0225073
:1004030002F722BBFE01F322F8BB010DE58229F5B9
:1004130082E5833AF583E8F0225006E92582C8F69F
:1004230022BBFE05E92582C8F222EF8DF0A4A8F0D5
:10043300CF8CF0A428CE8DF0A42EFE22C2D5EC30B2
:10044300E709B2D5E4C39DFDE49CFCEE30E715B2A9
:10045300D5E4C39FFFE49EFE12087CC3E49DFDE444
:100463009CFC800312087C30D507C3E49FFFE49E05
:10047300FE22C5F0F8A3E028F0C5F0F8E582158266
:1004830070021583E038F022A3F8E0C5F025F0F000
:10049300E582158270021583E0C838F0E822BB01BB
:1004A3000A89828A83F0E5F0A3F0225006F709A7B0
:1004B300F01922BBFE06F3E5F009F3192275F008E3
:1004C300758200EF2FFFEE33FECD33CDCC33CCC599
:1004D3008233C5829BED9AEC99E58298400CF582B4
:1004E300EE9BFEED9AFDEC99FC0FD5F0D6E4CEFB26
:1004F300E4CDFAE4CCF9A88222B800C1B90059BA14
:10050300002DEC8BF084CFCECDFCE5F0CBF9781841
:10051300EF2FFFEE33FEED33FDEC33FCEB33FB103B
:10052300D703994004EB99FB0FD8E5E4F9FA227855
:1005330018EF2FFFEE33FEED33FDEC33FCC933C967
:1005430010D7059BE99A4007EC9BFCE99AF90FD871
:10055300E0E4C9FAE4CCFB2275F010EF2FFFEE3391
:10056300FEED33FDCC33CCC833C810D7079BEC9AD0
:10057300E899400AED9BFDEC9AFCE899F80FD5F059
:10058300DAE4CDFBE4CCFAE4C8F922CFF4CFCEF41D
:10059300CECDF4CDCCF4CC22C3E49FFFE49EFEE4A5
:1005A3009DFDE49CFC22EB9FF5F0EA9E42F0E99D61
:1005B30042F0EC6480C864809845F022EB9FF5F02C
:1005C300EA9E42F0E99D42F0E89C45F022E8600F84
:1005D300ECC313FCED13FDEE13FEEF13FFD8F12272
:1005E300E8600FEFC333FFEE33FEED33FDEC33FC76
:1005F300D8F122ECF0A3EDF0A3EEF0A3EFF022A8E4
:10060300828583F0D083D08212061912061912064E
:1006130019120619E473E493A3C583C5F0C583C80F
:10062300C582C8F0A3C583C5F0C583C8C582C822E7
:10063300BB010789828A830206025005E9F8020892
:10064300D1BBFE05E9F80208EA22D083D082F8E4A0
:10065300937012740193700DA3A393F8740193F52F
:10066300828883E4737402936860EFA3A3A380DF9B
:100673008A838982E473EC8EF0A4CCC5F0CCCDF8E8
:10068300EFA4CEC5F02DFDE43CFCE8A42EC8C5F0D4
:100693003DFDE43CFCEFA4FFE5F028FEE43DFDE472
:1006A3003CFC22E3F5F009E208B5F06BDFF5806767
:1006B300E3F5F009E608B5F05EDFF5805A87F00947
:1006C300E608B5F052DFF6804E87F009E208B5F090
:1006D30046DFF6804288828C8387F009E0A3B5F079
:1006E30036DFF6803288828C8387F009E493A3B5E2
:1006F300F025DFF5802188828C83E3F5F009E0A300
:10070300B5F014DFF5801088828C83E3F5F009E4FB
:1007130093A3B5F002DFF40207D5808780E98090C8
:1007230080D4803E8015806E807E809D80B7808DD2
:1007330080A380518074803C0207E189828A83EC24
:10074300FAE493F5F0A3C8C582C8CCC583CCE4937F
:10075300A3C8C582C8CCC583CCB5F076DFE3DEE1A0
:10076300807089828A83E493F5F0A3E208B5F0628E
:10077300DFF4805E89828A83E0F5F0A3E608B5F0B2
:1007830051DFF5804D89828A83E0F5F0A3E208B555
:10079300F040DFF5803C89828A83E493F5F0A3E699
:1007A30008B5F02EDFF4802A8002805789828A837D
:1007B300ECFAE493F5F0A3C8C582C8CCC583CCE0BA
:1007C300A3C8C582C8CCC583CCB5F006DFE4DEE29E
:1007D30080007FFFB5F0020F2240027F0122898251
:1007E3008A83ECFAE0F5F0A3C8C582C8CCC583CCF4
:1007F300E0A3C8C582C8CCC583CCB5F0D5DFE5DEA0
:10080300E380CF89828A83ECFAE0F5F0A3C8C5823E
:10081300C8CCC583CCE493A3C8C582C8CCC583CC5C
:10082300B5F0AFDFE4DEE280A988F0EF60010E4EA1
:1008330060ABED2402B404005098F582EB2402B4BB
:100843000400508E232345822390071D73EF4E60CF
:1008530012EF60010EEDBB010B89828A83F0A3DFE7
:10086300FCDEFA2289F05007F709DFFCA9F022BB6E
:10087300FEFCF309DFFCA9F022BC000BBE0029EF4C
:100883008DF084FFADF022E4CCF875F008EF2FFF74
:10089300EE33FEEC33FCEE9DEC984005FCEE9DFE42
:1008A3000FD5F0E9E4CEFD22EDF8F5F0EE8420D289
:1008B3001CFEADF075F008EF2FFFED33FD400798F8
:1008C3005006D5F0F222C398FD0FD5F0EA22D0836B
:1008D300D082E493F608740193F608740293F60841
:1008E300740393F6740473D083D082E493F2087490
:1008F3000193F208740293F208740393F27404737D
:100903009005FFEFF0126303900600EFF012064D1F
:100913000965010965020965120965130D6E140D58
:100923006E150D6E160D46220D46230D6E240D6EAB
:10093300250D6E260D46320D46330D6E340D6E3584
:100943000D6E360965410965420D54430D54440D3E
:100953006E500DFB530E20540E80600E8570000008
:100963000E8A125FFFEF6401700812634A7F2E0242
:100973000E879006C3E070509005FFE0640A702A6A
:10098300A3E064417003020E8A12607B900600E0CC
:10099300FD7C00640170057F60020E82ED64024CF1
:1009A3006003020DF87F01020E829005FFE0640BE5
:1009B3007016A3E064016003020E8A12607B7F8AD3
:1009C3001254177F02020E8212607B9005FFE064CF
:1009D3000A6003020AA09006C2E0FF7E00700FA324
:1009E300E0FD14F074C42DF582E434068015EF6441
:1009F300014E70149006C3E0FF14F074CC2FF582FF
:100A0300E43406F58374FFF09006C3E06003020E3E
:100A13008A900600E0640270057F8A020E879006C2
:100A2300C2E07037900600E0641270057F5D020E2D
:100A330087900600E0641370057F78020E879006A6
:100A430000E0644170057F90020E87900600E06429
:100A5300426003020E8A7F5D020E879006C2E06445
:100A6300016003020E8A900600E0641270057F6342
:100A7300020E87900600E0641370057F04020E8760
:100A8300900600E0644170057F63020E87900600C4
:100A9300E064426003020E8A7F63020E879005FFC3
:100AA300E0640B600B9006C3E064086003020CDE95
:100AB3009006C3E0FF7E00C3940674809480504385
:100AC300900600E06401701BEF6402700F9006C48F
:100AD300E07009A3E0700512601180517F01124B91
:100AE30015804A7F60125417E49006C3F09006C243
:100AF300E0700280729006C2E064016003020E8A15
:100B0300020BB5900600E0640170297B017A067937
:100B1300C49006C3E0FD9006067402F0122B77EF33
:100B2300F47F017005124B15800312430BE490060A
:100B3300C3F08033900600E0640270387B017A06CC
:100B430079C49006C3E0FDE4900606F0122B77EF1C
:100B5300F470077F9312541780087F0112631512F4
:100B63005C2AE49006C3F0FE7F087DFF7B017A06D2
:100B730079C480499006C2E07046900600E0641292
:100B830070028014900600E0641370047F048016E2
:100B9300900600E0644170047F63800A900600E0E1
:100BA300644270057F631254179006C27401F0E427
:100BB300A3F0FE7F087DFF7B017A0679CC02085003
:100BC3009006C2E064016003020E8A78C47C067D4D
:100BD300017B017A0679CCFE7F0812082CEF33954E
:100BE300E04F6003020CD6900600E0641270457B70
:100BF300017A0679C49006C3E0FD9006067402F0FC
:100C0300122B77EFF460057F8D020CD87B017A06F7
:100C130079C49006C3E0FD9006067401F01228948F
:100C2300EF640170047F6980027F0512541712621A
:100C33000D020CDB900600E0644170267B017A060E
:100C430079C49006C3E0FDE4900606F0122894EF01
:100C5300640170047F6980027F05125417126035A6
:100C63008076900600E0644270267B017A0679C4A0
:100C73009006C3E0FDE4900606F0122894EF6401A9
:100C830070047F6980027F05125417125C2A804822
:100C9300900600E0641370407B017A0679C49006E5
:100CA300C3E0FD9006067401F0122B77900601EF66
:100CB300F0F470047F6F801D900601E0FF7D011248
:100CC3004744EF70047F0580027F69125417126254
:100CD3001780057FDA125417025867900600E0FF69
:100CE30064016005EF640270169005FFE0FF900653
:100CF300C3E0FE04F074C42EF582E43406803F9012
:100D030006C2E0FF7E0070199005FFE0FD9006C368
:100D1300E0FC04F074C42CF582E43406F583EDF0B2
:100D230022EF64014E6003020E8A9005FFE0FF90FC
:100D330006C3E0FE04F074CC2EF582E43406F5839A
:100D4300EFF0229005FFE0640A6003020E8A020DB1
:100D5300F59005FFE0640A6003020E8A12607B12BD
:100D6300636BEF7003026203020DF89005FFE0640A
:100D73000B707412607B900600E012064D0DA214F6
:100D83000DD5150DD8160DB3240DDB250DDE260D5F
:100D9300C4340DE1350DE4360DE75000000E8A1220
:100DA3004137EF70047F0580027F08125417804596
:100DB300123C5CEF70047F0580027F081254178099
:100DC30034124463EF70047F0580027F08125417C6
:100DD3008023025BF0026147025A3D026023025CFA
:100DE3000D026154024D119005FFE0640A60030295
:100DF3000E8A12607B025C2A9005FFE0640A70068B
:100E030012607B02429712631B9005FFE0D39F5051
:100E13007612607B9005FFE014FF02480D126321F8
:100E2300900601EFF06493700B12607B9005FFE076
:100E3300FF0245AA900601E0649670359005FFE035
:100E4300640A701812607B12617B126368EF6002A0
:100E530080287F587E021258B302616E9005FFE02E
:100E6300640B702312607B12617B7D017F960250BD
:100E730039126368EF601012607B02612A7F0102FE
:100E830062FD7F2F12541722C101C103C102C100A9
:100E93004104AF00440736FFFFFFFF44073AFFFF5B
:100EA300FFFF4406B2FFFFFFFF4206B60000410604
:100EB300B800440682FFFFFFFF4106860041069DFE
:100EC300004106870054068900000000000000006E
:100ED3000000000000000000000000004106880040
:100EE3004406EDFFFFFFFF5006F1EF01FFFFFFFF99
:100EF3000100074101010050009B4406D4FFFFFF9E
:100F0300FF4106D80044073EFFFFFFFF440742FFAF
:100F1300FFFFFF440746FFFFFFFF44074AFFFFFFB2
:100F2300FF440726FFFFFFFF42072A000044074E46
:100F3300FFFFFFFF440752FFFFFFFF44075AFFFF76
:100F4300FFFF010E00011000010F00011100440614
:100F53005BFFFFFFFF44072CFFFFFFFF410730004C
:100F63004406BBFFFFFFFF4106C3004106C2FF412A
:100F730006C1FF4106C0FF4106BF004106B900415B
:100F830006BA0060920569022300032700042300C8
:100F93000725000826000923000A27000B23000465
:100FA30023000D23000E27000F2500082400162719
:100FB300001E27002023001F27002823002B2400C6
:100FC3002C24002D240051425243250051465249FE
:100FD3002500514452452500514852472500514AA6
:100FE300524B250051335234533525005136523874
:100FF30053392500513A523C533D2500513E52404E
:1010030053412500062700514225005130523153E8
:10101300325433553456352500440554FFFFFFFF42
:1010230041056200420559000042055B000042058C
:101033006400004105580041056300410566004115
:1010430004B00041056700410568004205520000F5
:1010530043055F000000609104C10103000000012B
:101063000400000001050000000106000000010764
:101073000000000108FF62670109FF5D7F020600AF
:10108300000002070000000208FF6267030AFF5B1B
:10109300F0030CFF6147030DFF6221042AFF5A3D51
:1010A300042CFF6023042DFF623F0544FF5C0D0504
:1010B30046FF61540547FF625D067FFF616106805D
:1010C300000000805FFF60358060FF6047076700B6
:1010D300000007810000006766FF5D1B6765FF5D19
:1010E30034816CFF5D4D816DFF5D66440731FFFF09
:1010F300FFFF4107350060F602E801E102BA03C2CF
:1011030004CA05D2069C07A20E5D0FFF106011638F
:101113001205130614DA15661669175C186C196F35
:101123001A721B751C051D691E0C1F662078217B16
:10113300227E2304240525692666277E280529089F
:101143002E102F113005311232693381345C35137F
:1011530036143711389639053A813B153C843D7E68
:101163003E113F054081417E420543084817491817
:101173004A054B194C5C4D1A4E1B4F185005511C18
:10118300521D5387547E55185605577E58055908E6
:101193005A8A5B5D5C635D055E8D61106211630558
:1011A300640567AE682169226A216B226D4B6E214B
:1011B3006F2270217122724C732274907505768AA6
:1011C30077637829792A7A937B967C997D2E7E2F73
:1011D3007F4280A881B48290837E874E8A7E8C4F23
:1011E3008D058E08904D912192229A219BFFFFFF3E
:1011F30044075EFFFFFFFF440632FFFFFFFF4C067D
:101203004F0000000000000000000000004106360F
:101213000044071FFFFFFFFF41072300420724008D
:1012230000440258FFFFFFFF440702FFFFFFFF4197
:1012330007060041070E0042070C0000450707930D
:101243000405969841070100440719FFFFFFFF4279
:10125300071D00004107170041071800009005FF14
:10126300EFF0A20592069006037403F0124FAE301E
:1012730005030215EB9005FFE0FF25E024AFF5829F
:10128300E43463F583E493FC740193FD75F002EF9A
:10129300A42412F582E5F03404F583ECF0A3EDF019
:1012A3009005FFE0FE90638F93FF900602F075F0C8
:1012B30002EEA42412F582E5F03404F583E0FCA3E6
:1012C300E0FD1254EF9005FFE0FD75F002A42473D6
:1012D300F582E5F03404F583EEF0A3EFF075F00248
:1012E300EDA42473F582E5F03404F583E0FEA3E076
:1012F300FF900600E0FCA3E0FDD3EF9DEE9C5003BE
:101303000214D69005FFE0FF75F002A42473F58262
:10131300E5F03404F583E0FCA3E0FD900600E0FA79
:10132300A3E0FBD3ED9BEC9A50030213F2759107F4
:1013330075F002EFA42412F582E5F03404F583E09E
:10134300FEA3E0C394FFEE940140030213F2900561
:10135300FFE0FF75F002A42412F582E5F03404F5F2
:1013630083E475F00112047575F002EFA42412F5FD
:1013730082E5F03404F583E0FCA3E0FD900602E08F
:10138300FF1254EF9005FFE0FD75F002A42473F5FE
:1013930082E5F03404F583EEF0A3EFF075F002ED8F
:1013A300A42473F582E5F03404F583E0FEA3E0FFA3
:1013B30075F002EDA4242AF582E5F03404F583EEFA
:1013C300F0A3EFF075F002EDA42473F582E5F03499
:1013D30004F583E0FEA3E0FF75F002EDA4244EF5CF
:1013E30082E5F03404F583EEF0A3EFF0021306E593
:1013F300CDC454072409F9E47F01FEFDFCA80112C2
:1014030005E3EF24F6FBEE34FFFAED34FFF9EC3499
:10141300FFF89005FFE075F002A42473F582E5F070
:101423003404F583E0FEA3E0FFE4FCFDD31205BF23
:1014330040030214D69005FFE0FF75F002A42412C6
:10144300F582E5F03404F583E475F0011204757553
:10145300F002EFA42412F582E5F03404F583E0FCF6
:10146300A3E0FD900602E0FF1254EF9005FFE0FDBC
:1014730075F002A42473F582E5F03404F583EEF0ED
:10148300A3EFF075F002EDA42473F582E5F03404C4
:10149300F583E0FEA3E0FF75F002EDA4242AF582B4
:1014A300E5F03404F583EEF0A3EFF075F002EDA45C
:1014B3002473F582E5F03404F583E0FEA3E0FF75C1
:1014C300F002EDA4244EF582E5F03404F583EEF04A
:1014D300A3EFF09005FFE075F002A42473F582E515
:1014E300F03404F583E0FEA3E0FF900600E0FCA3E4
:1014F300E0FDD3EF9DEE9C40030215EB9005FFE06A
:10150300FF75F002A42473F582E5F03404F583E05B
:10151300FCA3E0FD900600E0FAA3E0FBC3ED9BEC27
:101523009A40030215EB75910775F002EFA424129C
:10153300F582E5F03404F583E0FEA3E0D39400EEF6
:10154300940050030215EB9005FFE0FF75F002A431
:101553002412F582E5F03404F58374FFF5F01204E8
:101563007575F002EFA42412F582E5F03404F583D7
:10157300E0FCA3E0FD900602E0FF1254EF9005FFAC
:10158300E0FD75F002A42473F582E5F03404F583DD
:10159300EEF0A3EFF075F002EDA42473F582E5F00D
:1015A3003404F583E0FEA3E0FF75F002EDA4242AE2
:1015B300F582E5F03404F583EEF0A3EFF075F00265
:1015C300EDA42473F582E5F03404F583E0FEA3E093
:1015D300FF75F002EDA4244EF582E5F03404F583A3
:1015E300EEF0A3EFF00214FF22AB07EB25E0240695
:1015F300F582E43464F583E493FF74019390060366
:10160300CFF0A3EFF0EB25E02406F582E43464F594
:1016130083E493FC740193FD9063F6E493FF7E00EF
:1016230012042DEEC4F854F0C868FEEFC4540F48FA
:10163300FF900605EEF0A3EFF075F002EBA4247320
:10164300F582E5F03404F583E0FEA3E0FF75F002D4
:10165300EBA4242AF582E5F03404F583E0FCA3E04F
:10166300C39FFFEC9EFE900601F0A3EFF0C3EE6470
:1016730080948050030217C9A3E0FEA3E0FF900605
:1016830001E0FCA3E0FD9FEE6480F8EC64809840E9
:101693001074DE2BF582E43403F5837401F0021732
:1016A30095900605E0FEA3E0FFC3ED9FEE6480F88E
:1016B300EC648098405874A32BF582E43404F583DA
:1016C300E004F074F62BF582E43403F583E4F0745C
:1016D300972BF582E43404F583E4F074EA2BF58266
:1016E300E43403F583E4F074A32BF582E43404F5C6
:1016F30083E0FF900757E0FEEFC39E500302179568
:1017030074A32BF582E43404F583E4F0806E74A3B0
:101713002BF582E43404F583E4F074F62BF582E4CC
:101723003403F583E004F074972BF582E43404F575
:1017330083E4F074EA2BF582E43403F583E4F07474
:10174300F62BF582E43403F583E0FF900759E0FEBE
:10175300EFC39E403D74F62BF582E43403F583E436
:10176300F075F002EBA4242AF582E5F03404F58346
:10177300E0FEA3E0D39400EE9400401675F002EB74
:10178300A4242AF582E5F03404F58374FFF5F012FE
:101793000475906448E493FE740193FFC3900604B8
:1017A300E09FFF900603E09EFEC3900602E09F9039
:1017B3000601E09E400302193A74DE2BF582E434FD
:1017C30003F583E4F02274DE2BF582E43403F5831E
:1017D300E4F0900605E0FEA3E0FFC3E49FFFE49E70
:1017E300FEC3900602E09FEE6480F8900601E06479
:1017F3008098406C74A32BF582E43404F583E4F001
:1018030074F62BF582E43403F583E4F074972BF537
:1018130082E43404F583E004F074EA2BF582E434C3
:1018230003F583E4F074972BF582E43404F583E045
:10183300FF900756E0FEEFC39E500302193A7497D8
:101843002BF582E43404F583E4F075F002EBA42471
:101853002AF582E5F03404F583E475F001021937C3
:1018630074A32BF582E43404F583E4F074F62BF5CA
:1018730082E43403F583E4F074972BF582E43404B3
:10188300F583E4F074EA2BF582E43403F583E00492
:10189300F074EA2BF582E43403F583E0FF900758F4
:1018A300E0FEEFC39E500302193A74EA2BF582E47B
:1018B3003403F583E4F0900604E025E0FD9006038D
:1018C300E033FCE0A2E713FEA3E0132DFFEE3CFEA2
:1018D300C3E49FFFE49EFED3900602E09FEE648084
:1018E300F8900601E0648098502975F002EBA42477
:1018F30073F582E5F03404F583E0FEA3E0FF75F0B1
:1019030002EBA4242AF582E5F03404F583EEF0A378
:10191300EFF022900605E0FEA3E0FF7C007D0512B8
:10192300043F75F002EBA4242AF582E5F03404F5B4
:1019330083EE8FF0120475229005FFEFF0E4A3F01D
:10194300A3F0A3F0126303900603EFF06470700535
:101953007F2F021C66900603E0FF64016017EF64AB
:10196300226012EF6423600DEF64436008EF644468
:101973006003021C69900603E06454700B12632138
:10198300EF64056003021C6912634A125FFFEF6490
:101993000170057F2E021C66120006900600EFF010
:1019A3006003021C5F9006C2E0FF125142900600E2
:1019B300EFF06003021C5F9006C2E0FF7B017A0632
:1019C3007901124871900600EFF06003021AB49097
:1019D3000603E064017026900601A3E0FF7D021276
:1019E30054BA900600EFF0700A7F021263537F022D
:1019F30002430B7F031263537F02024B15900603CE
:101A0300E0FF6422600FEF6443600AEF6444600503
:101A1300EF6454700A7F031263537F69021C66905C
:101A23000603E064236003021C69900601A3E0FF40
:101A33007D011254BA900600EFF0706B9006C2E07D
:101A4300700C04F07F021263537F11021C661200B4
:101A53000E900600EFF06003F4703F900601A3E0E0
:101A6300FF7D011252B7900600EFF0700EA3E0FE67
:101A7300A3E0FF1262BE900600EFF0900600E07054
:101A8300097F021263537F0580077F031263537F2D
:101A930069125417126235021C397F031263537F94
:101AA30096125417021C397F031263537F84021C5E
:101AB30066900603E06401700A7F031263537F9606
:101AC300021C66900603E0FF64226012EF64436029
:101AD3000DEF64446008EF64546003021C4E9006EB
:101AE300C2E064026003021C3F120016900600EF7E
:101AF300F06003021C2F900603E0FF64226008EFEE
:101B030064546003021BB71255BC900601E4F0A3B2
:101B1300EFF0900601E07003A3E0F4700D7F031271
:101B230063537F5C125417021C2A900601E0FCA346
:101B3300E0FDE4FF124D5F900600EFF0900603E036
:101B43006422703E900600E07019A3A3E0FF7D01BC
:101B530012573D900600EFF06009A3E0FEA3E0FFFB
:101B63001262BE900600E070097F021263537F0584
:101B730080077F031263537F6912541712622B028B
:101B83001C39900600E0700EA3E0FEA3E0FF126292
:101B9300BE900600EFF0900600E070097F0212632A
:101BA300537D0180077F03126353E4FD7F041250CA
:101BB30039021C39900603E0FF7E006443700890ED
:101BC3000601F0A3F0800DEF64444E700790060108
:101BD300F0A304F0900601E0FCA3E0FDE4FF124D46
:101BE3005F900600EFF0700EA3A3E0FFE4FD125731
:101BF3003D900600EFF0900600E070097F0212634B
:101C0300537F0580077F031263537F6912541712B2
:101C1300636BEF7012900603E06443700512604734
:101C23008014126203800F125C2A800A7F031263FE
:101C3300537F81125417E49006C2F0229006C2E04B
:101C430004F07F021263537F118018900603E0644F
:101C53002370137F031263537F8480077F03126310
:101C6300537F11125417227E017FF47DFF7B017A8B
:101C73000079001208507B017A00790090061074F5
:101C830001F0A374F4F07F0190060CEFF0A3EBF0E6
:101C9300A3EAF0A3E9F07F091262F790060CE014BF
:101CA3007003021D8A147003021E57147003021E70
:101CB300B724036003021F149006157401F0A37484
:101CC30000F0A37400F0A37401F0A374F4F0E4FF34
:101CD3001262F1E4FF125BB6E4900612F0A3F090F7
:101CE3000610E0FEA3E0FFC3900613E09F900612E8
:101CF300E09E5037E0FCA3E0FD90060DE0FBA3E07F
:101D0300FAA3E0F98D828C831203CCFBE4FF12402B
:101D1300BF900614EFF070037F0122900613E004D6
:101D2300F070BC900612E004F080B4E4900612F068
:101D3300A3F0900618E0FEA3E0FFC3900613E09F14
:101D4300900612E09E4003021F17E0FEA3E0FF246B
:101D530018FDE43EFC900615E0FBA3E0FAA3E0F9CE
:101D63008F828E831203CCFBE4FF1240BF900614D4
:101D7300EFF070037F0122900613E004F070B3903C
:101D83000612E004F080AB900615E4F0A37400F0B3
:101D9300A37408F0A3E4F0A37406F0E4FF1262F165
:101DA300E4FF125BB6E4900612F0A3F0900618E08D
:101DB300FEA3E0FFC3900613E09F900612E09E503F
:101DC30037E0FCA3E0FD900615E0FBA3E0FAA3E0F7
:101DD300F98D828C831203CCFBE4FF1240BF900683
:101DE30014EFF070037F0122900613E004F070BC3F
:101DF300900612E004F080B4E4900612F0A3F09091
:101E03000610E0FEA3E0FFC3900613E09F900612C6
:101E1300E09E4003021F17E0FEA3E0FF2418FDE449
:101E23003EFC90060DE0FBA3E0FAA3E0F98F828E5F
:101E3300831203CCFBE4FF1240BF900614EFF07053
:101E4300037F0122900613E004F070B3900612E0C2
:101E530004F080AB7F011262F1E4FF125BB6E49001
:101E63000612F0A3F0900610E0FEA3E0FFC3900675
:101E730013E09F900612E09E4003021F17E0FCA3AD
:101E8300E0FD90060DE0FBA3E0FAA3E0F98D828C60
:101E9300831203CCFBE4FF1240BF900614EFF070F3
:101EA300037F0122900613E004F070B9900612E05C
:101EB30004F080B17F011262F17F01125BB6E490FE
:101EC3000612F0A3F0900610E0FEA3E0FFC3900615
:101ED30013E09F900612E09E503AE0FCA3E0FD90D1
:101EE300060DE0FBA3E0FAA3E0F98D828C831203D5
:101EF300CCFB7F011240BF900614EFF070037F010B
:101F030022900613E004F070BC900612E004F08007
:101F1300B47F01227F0022AB07EBC394207480942B
:101F230080500AE47F01FEFDFCA803800BE47F01DF
:101F3300FEFDFCEB24E0F9F81205E39005FD120524
:101F4300F6EBC3942074809480500302201275969C
:101F5300519005FDA3A3A3E0FFEF4297759652901E
:101F630005FDE0FCA3E0FDA3E0FEA3E0FF7808127B
:101F730005D0EF4297EBC3942474809480500E9065
:101F830005FDA3A3A3E0540FFFEF42EA22EBC394A2
:101F93002674809480501B9005FDE0FCA3E0FDA314
:101FA300E0FEA3E0FF78041205D0EF5403FFEF42F5
:101FB300EB22EBFFC3942C748094805037EF642A98
:101FC3006005EF642B70129005FDE0FCA3E0FDA318
:101FD300E0FEA3E0FF780480109005FDE0FCA3E0A1
:101FE300FDA3E0FEA3E0FF78061205D0EF54CFFF78
:101FF300EF42EC229005FDE0FCA3E0FDA3E0FEA38D
:10200300E0FF780C1205D0EF540FFFEF42EE22757C
:1020130096269005FDA3A3A3E0FFEF4297759627AD
:102023009005FDE0FCA3E0FDA3E0FEA3E0FF78083C
:102033001205D0EF540FFFEF42977596289005FDD8
:10204300E0FCA3E0FDA3E0FEA3E0FF78101205D0BF
:10205300EF42977596299005FDE0FCA3E0FDA3E010
:10206300FEA3E0FF78181205D0AB07EB429790056B
:10207300FDE0FCA3E0FDA3E0FEA3E0FF7802120570
:10208300E3EF54FCFFEF42EB9005FDE0FCA3E0FD22
:10209300A3E0FEA3E0FF78021205D0EF5430FFEF78
:1020A30042EC9005FDE0FCA3E0FDA3E0FEA3E0FF0E
:1020B30078041205D0EF54F0FFEF42EE9005FDE0F7
:1020C300FCA3E0FDA3E0FEA3E0FF780C1205D0EF34
:1020D30054F0FFEF42EF9005FDE0FCA3E0FDA3E029
:1020E300FEA3E0FF78141205D0EF540FFFEF42F286
:1020F300EB42F7229005FFEFF0E4A3F0A3F01263A5
:1021030003900602EFF0647070057F2F0222709037
:102113000602E0FF6401600DEF64326008EF643390
:102123006003022273900602E06454700B12632171
:10213300EF6405600302227312634A125FFFEF64C8
:102143000170057F2E022270900602E064547037FE
:102153009006C2E0FF124C71900600EFF06003029C
:1021630022739006C2E07003022223125B5E900684
:1021730000EFF0700A7D017F051250390222577F6C
:102183001C1254170222577B017A06790112532F2E
:10219300900600EFF0706C900602E0640170057F1A
:1021A3000402430B900602E0643270057F19022299
:1021B30070900602E0643360030222739006C2E06B
:1021C300FF124C71900600EFF070349006C2E0707D
:1021D30002804D125B5E900600EFF0701BA3E0FFE0
:1021E30012437E900600EFF070047F0580027F6942
:1021F30012541712625380057F1C12541780557FA7
:1022030081806A900602E0643270539006C2E0FF58
:10221300124C71900600EFF070409006C2E0700C13
:102223007F181254179006C27401F022125B5E905D
:102233000600EFF07019FF125FC5900600EFF07013
:10224300047F0580027F6912541712624980057F5B
:102253001C125417E49006C2F0227F81800F90066F
:1022630002E0640170057F04024B157F8712541747
:1022730022EFB4070040030223EB902284F82828BE
:10228300730222990222C00222E602233102237F33
:102293000223A20223C5EB7009ED42EA75961702E9
:1022A300233AEB64017009ED42EA7596170223DEC7
:1022B300EB640260030223EBEDF452EA22EB7008B5
:1022C300ED42EB759618806FEB64017009ED42EBFC
:1022D3007596180223DEEB640260030223EBEDF430
:1022E30052EB22EB7008ED42EC7596198049EB64D2
:1022F300017009ED42EC7596190223DEEB6402705E
:1023030015EDF452ECED543070030223EB75962572
:10231300C4540F0223CFEB640360030223EBEDF4F9
:1023230052EC759625ED5430C4540F429722EB704E
:102333000AED42EE75961BED0223CFEB64017009A3
:10234300ED42EE75961B0223DEEB64027015EDF48D
:1023530052EEED543070030223EB7596251313549C
:102363003F8069EB640360030223EBEDF452EE75E7
:102373009625ED54301313543F429722EB7009ED29
:1023830042EF75961CED8044EB64017008ED42EF5B
:1023930075961C8046EB6402704EEDF452EF22EB0F
:1023A3007009ED42F275961DED8021EB6401700812
:1023B300ED42F275961D8023EB6402702BEDF4520F
:1023C300F222EB700BED42F775961EEDF452972255
:1023D300EB6401700AED42F775961EED429722EB0E
:1023E30064027004EDF452F72212630390062BEF9C
:1023F300F09005677401F0900558E0640170309027
:10240300055CE004F0700690055BE004F090056461
:10241300E0FEA3E0FFC390055CE09F90055BE09EB8
:10242300400D9005587402F0E490055BF0A3F09022
:102433000563E06401701B900566E004F0E0C3945B
:102443000474809480400B9005637402F0E490055B
:1024530066F0900568E0D3940074809480402A90DD
:102463000553E004F07006900552E004F090055225
:10247300E0FEA3E0FFE4FCFD7B587A02F9F8D312F7
:1024830005A95005E4900568F0124DACEF70030206
:10249300253490062BE0FF64617003022534EF645A
:1024A300607003022534900558E06401700302252F
:1024B3003412606AEF64017078125FD9EF70729022
:1024C300062CF090055AE004F07006900559E004DC
:1024D300F090062BE0FF64126028EF64136023EF93
:1024E3006441601EEF64436019EF64446014EF6459
:1024F30022600FEF6423600AEF64326005EF6433F8
:102503007011D390055AE094C8900559E0940040A7
:1025130017800FD390055AE09410900559E0942743
:10252300400690062C7401F090062CE0600A0246E7
:10253300DFE4900559F0A3F0229005FEEBF0A3EA47
:10254300F0A3E9F0EF146065147003022609147018
:10255300030226332403600302265EE4FF1262F1C2
:10256300E4900603F0A3F0900601E0FEA3E0FFA3CE
:10257300E0FCA3E0FDC39FEC9E400302265EE4FF64
:10258300125AE29005FEE0FBA3E0FAA3E0F99006FD
:1025930003E0FCA3E0F5828C83EF12040B900604A6
:1025A300E004F070C2900603E004F080BAE4FF1286
:1025B30062F1E4900603F0A3F0900601E0FEA3E0CD
:1025C300FFA3E0FCA3E0FDC39FEC9E400302265E55
:1025D300ED2418FDE43CFCE4FF125AE29005FEE012
:1025E300FBA3E0FAA3E0F9900603E0FCA3E0F58285
:1025F3008C83EF12040B900604E004F070BB90068A
:1026030003E004F080B37F011262F19005FEE0FB6A
:10261300A3E0FAA3E0F9E4900609F0A3F090060121
:10262300E0FFA3E090060BCFF0A3EFF0E4FD8028DA
:102633007F011262F19005FEE0FBA3E0FAA3E0F94B
:10264300E4900609F0A3F0900601E0FFA3E09006F2
:102653000BCFF0A3EFF07D01123B54227B007A00F5
:102663007908900601E4F0A37406F0E4FF12253C18
:10267300AF08EF64016008EF6402600302270CE413
:102683009005FCF07B017A00790090060104F0A329
:1026930074F4F07F0112253C7B017A0179F49006F2
:1026A30001E4F0A37464F07F0212253C7B017A02FB
:1026B300795C900601E4F0A3748CF07F0312253C4F
:1026C300D3E50B940074809480500302277990051E
:1026D300FCE0FFFD7C00C3946474809480501A7501
:1026E300F005EFA42404F582E5F03400F583E060FF
:1026F300089005FCE004F080D5C3ED9464EC64809D
:1027030094804072E4F50B805B121C6A7E007F6448
:102713007DFF7B017A0179F41208507B017A0179FC
:10272300F4900610E4F0A37464F07F02121C8B1281
:10273300004E7E007F8C7DFF7B017A02795C12085C
:10274300507B017A02795C900610E4F0A3748CF05C
:102753007F03121C8B750801750901E4F50AF50B5B
:10276300F50CF50DFB7A007908900610F0A37406BA
:10277300F0E4FF121C8B227D037FE87E0390061199
:10278300EEF0A3EFF0A3EDF0E4A3F0A3F0900611B5
:1027930074FFF5F012047545F070030228917F0170
:1027A3007E001258B3900613E02409FFE433FE9031
:1027B30006B8E0C39FEE6480F874809840CFE4903D
:1027C3000614F09006B8E0FF900614E0FEC39F5095
:1027D30017749E2EF582E43406F583E064EF6008F7
:1027E300900614E004F080DB900614E0FF249EF5CD
:1027F30082E43406F583E064EF7092749F2FF582D0
:10280300E43406F583E064017083900614E0FD244C
:10281300A4F582E43406F583E0640760030227909D
:1028230074A52DF582E43406F583E0FE74A62DF538
:1028330082E43406F583E07C002400FFEC3EFE9046
:102843000613E06F7001EE60030227909006B8E074
:10285300FF900614E0FEC39F5029749E2EF582E478
:102863003406F583E0FF900615E024D9F582E434BD
:1028730006F583EFF0900615E004F0900614E004EB
:10288300F080C99006E2E0FFE49006B8F0227F01F1
:1028930022900602EBF0A3EAF0A3E9F0A3EDF09097
:1028A300060774FFF0900606E0702AA3F09006076F
:1028B300E0FFC3946474809480501A75F005EFA40C
:1028C3002404F582E5F03400F583E0600890060700
:1028D300E004F080D8900607E0C394647480948089
:1028E300402BE4F0900607E0FFC394647480948067
:1028F300501B75F005EFA42404F582E5F03400F5D0
:1029030083E0F46008900607E004F080D7900607A0
:10291300E0C394647480948050757E007F047DFFCF
:102923007B017A067908120850900605E0FD9006AF
:10293300117401F0A37406F0A37408F09006021258
:102943003ED5900607E075F005A42400F974003520
:10295300F0A801FC7D017B017A0679087E007F04E3
:1029630012038D900606E0FFA3E075F005A424048E
:10297300F582E5F03400F583EFF07B017A0079000E
:102983009006107401F0A374F4F07F01021C8B7F96
:102993000122900605EBF0A3EAF0A3E9F0A3EDF022
:1029A300D39400748094805003022A33C2AF125729
:1029B300A77F501239B8E490060DF0900608E0FFA7
:1029C30090060DE0FEC39F501F900605E0FBA3E0B9
:1029D300FAA3E0F98E827583001203CCFF1239B893
:1029E30090060DE004F080D37F511239B8E49006CD
:1029F3000DF090060CE0FFA3E0C39F50311249375E
:102A0300900609E0FBA3E0FAA3E0F990060DE0FECF
:102A1300F582758300EF12040B90060CE0146E60D0
:102A23005AE4FF12581890060DE004F080C4804B5E
:102A3300C2AF1257A77F511239B8E490060DF09038
:102A4300060CE0FFA3E0C39F5031124937900609FB
:102A5300E0FBA3E0FAA3E0F990060DE0FEF5827532
:102A63008300EF12040B90060CE0146E600DE4FF7C
:102A730012581890060DE004F080C47F0112581814
:102A8300D2AF125B407F0022E4F9900601F0A3F07D
:102A9300FEEEC3940C74809480506074422EF582D1
:102AA300E43404F583E06050EE25E02473F582E41A
:102AB3003404F583E0FCA3E0FDEE25E0242AF5824F
:102AC300E43404F583E0FAA3E0C39DFDEA9CFC90A3
:102AD30005FFF0A3EDF0D3900602E09DEC6480F8CF
:102AE300900601E0648098500F9005FFE0FDA3E09D
:102AF300A3CDF0A3EDF0A9060E8096900466E069DD
:102B0300606FE0FE25E02473F582E43404F583E08E
:102B1300FCA3E0FDEE25E0242AF582E43404F583EA
:102B2300E0FAA3E0C39DFEEA9C9005FFF0A3CEF07C
:102B33009005FFE0FEA3E0FFC3900602E09FFF9035
:102B43000601E09EFE9005FFF0A3EFF0E925E024E7
:102B530006F582E43464F583E493FC740193FDD3B6
:102B6300EF9DEC6480F8EE6480984005900466E97C
:102B7300F0AF0122900602EBF0A3EAF0A3E9F0A381
:102B8300EDF0E4900607F090060C74FFF07E007FF2
:102B930004FD7B017A067908120850900605E0FDD2
:102BA3009006117401F0A37406F0A37408F0900664
:102BB30002123ED5E4FFEFC39464748094805064A2
:102BC30075F005EFA42404F582E5F03400F583E005
:102BD300F4604EE4900607F0900607E0FD7C00C326
:102BE3009404748094805033E0FE75F005EFA424C0
:102BF30000F582E5F03400F583E5822EF582E435B5
:102C030083F583E0FB74082EF582E43406F583E054
:102C1300B50308900607E004F080BDED64044C6042
:102C2300030F8092EFC3946474809480502675F0F0
:102C330005EFA42404F582E5F03400F583E0FE906B
:102C43000606E0FDEE6D6005ED6402700790060C6C
:102C5300EFF0800690060C74FFF090060CE0FF2264
:102C6300900604EFF0E4900607F09006D8E06F704A
:102C730003022D32124E9BEF64017003022D327F4B
:102C83000112632F7F077E00125B807F4112633244
:102C9300900604E0606824FE6026146042240270FB
:102CA3007B7F01125CAE7F01125CAEE4FF125CAE6F
:102CB3007F50125CAE900605E4F0A3749BF0805C39
:102CC3007F01125CAE7F02125CAE7F02125CAEE447
:102CD300FF125CAE900605E4F0A3744EF0803D7FD6
:102CE30001125CAE7F04125CAE7F04125CAEE4FFA3
:102CF300125CAE900605E4F0A37452F0801E7F04CC
:102D0300125CAEE4FF125CAEE4FF125CAE7FC8124D
:102D13005CAE9006057401F0A37415F0900605E00F
:102D2300FEA3E0FF1250E9900604E09006D8F022DB
:102D3300E4900600F0C20112001EE49005FFF0903B
:102D430005FFE0C3940C748094804003022DEC30A3
:102D5300030343AD1020000575910780F8C200AF4F
:102D6300ACEFFEADABEDFF9005FFE0FD25E0247376
:102D7300F582E43404F583EEF0A3EFF0EDC3940B96
:102D830074809480502DED25E02414F582E43404FE
:102D9300F583E0FEA3E0F5CA53CC7FEE5401C313E1
:102DA300E41342CC53CCC0ED90639093543F42CC98
:102DB30075C9019005FFE0FF1215EC9005FFE0FFD8
:102DC3001234F99005FFE0FF1244D430010F900450
:102DD30066E0F470089005FFE0900466F0200212AC
:102DE3009005FFE004F0022D422001069004667472
:102DF300FFF022C20120046D906389E493FD700DFE
:102E030090644C93C313FF74019313801575F00200
:102E1300EDA4244AF582E5F03464F583E493FF746A
:102E230001939005FDCFF0A3EFF0E49005FCF09043
:102E330005FCE0C3940C748094805071E0FF24423D
:102E4300F582E43404F583E4F0C2059005FDE0FD6A
:102E5300A3E0900600CDF0A3EDF01212609005FC04
:102E6300E004F080CA90638CE493FD700D90644C91
:102E730093C313FF74019313801575F002EDA4241B
:102E83004AF582E5F03464F583E493FF740193908B
:102E930005FDCFF0A3EFF0D2059005FDE0FFA3E021
:102EA300900600CFF0A3EFF0E4FF121260900466E7
:102EB30074FFF022900622EBF0A3EAF0A3E9F0E41A
:102EC300900629F07F2EFE125FB153FBFDE4F5FA65
:102ED300F5FE7596585397EF53FBEF43FC40FF9075
:102EE3000628E0FEEFC39E5064E4A3F074FFFDFCEC
:102EF300ED1DAA0470011C4A6029E5FB30E4F1E5ED
:102F0300FB548070EB900622E0FBA3E0FAA3E0F908
:102F13008F82758300E5FA12040B53FBEF900629A9
:102F23007401F053FB7F53FBDFE5FE601D90062227
:102F3300E0FBA3E0FAA3E0F98F82758300E5FA12C0
:102F4300040B90062974ACF080030F809253FCBFEE
:102F530043FB02900629E064AC700F900625E0FB6A
:102F6300A3E0FAA3E0F9EF1203F9900629E0FF22A8
:102F7300900686E064017059A3E0700D7D047F051F
:102F830012523B7D01E4FF800C900687E0640270DF
:102F9300097D047F05124FF4800F900687E0C394E8
:102FA30004748094804002B2F8900687E004F090A5
:102FB300069DE025E0FFE433FEEF2406FFE43EFE3A
:102FC300900687E0C39FEE6480F874809840598030
:102FD30041900686E06403704FA3E070057D01FF16
:102FE300801D900687E0640170097D047F051252FD
:102FF3003B800F900687E0640370077D047F051212
:103003004FF4900687E004F0E0C394047480948046
:103013004016E4F07D047F05124FF47D01E4FF12B6
:103023004FF49006867402F02253CCBFA204E4331B
:10303300C43333544042CC3004030230E4E49006FA
:1030430001F0900762E0FF900601E0C39F40030296
:1030530030E4E0FF75F002A42412F582E5F03404B5
:10306300F583E0FCA3E0FDEF90638F93FF1254EF31
:10307300900601E0FD75F002A42473F582E5F034B7
:1030830004F583EEF0A3EFF075F002EDA42473F5DD
:1030930082E5F03404F583E0FEA3E0FF75F002ED72
:1030A300A4242AF582E5F03404F583EEF0A3EFF0CF
:1030B30075F002EDA42473F582E5F03404F583E0A2
:1030C300FEA3E0FF75F002EDA4244EF582E5F03493
:1030D30004F583EEF0A3EFF0900601E004F0023074
:1030E3004522900609EBF0A3EAF0A3E9F09006105D
:1030F300EFF0A37470F0E4FF90060FE0FEEFC39EC1
:103103005023900609E0FBA3E0FAA3E0F98F827550
:1031130083001203CCFE74122FF582E43406F58388
:10312300EEF00F80D37B017A06791090060FE0242E
:1031330002900620F07F011251FD90060FE0FC245F
:1031430012F582E43406F583EFF0EEFF74132CF5E9
:1031530082E43406F583EFF07B017A06791090065A
:103163000FE02404FD1232FCEF640160037F0122AF
:103173009006257401F0A37406F0A37410F0A374F1
:1031830003F090060CE0FBA3E0FAA3E0F9122EB7DC
:10319300EF64017F0060027F01229005FC74FFF061
:1031A300A3F0900567E0640170251261EEEF701AD9
:1031B30012608CEF700F9006BFE0700E04F07F0278
:1031C3001259468005E49006BFF0E4900567F012BB
:1031D30063449005FCEFF0F46027E0FF1247A990E9
:1031E30005FDEFF0F4601AE0FF9006C0E06F601792
:1031F3009005FDE0FB9006C0F0E4FDFF1259498005
:10320300069006C074FFF0126350EF60057F04124E
:10321300594612609DEF6008E4FBFD7F0312594994
:1032230012610CEF6008E4FBFD7F05125949125C43
:103233007FEF6008E4FBFD7F011259491260FDEF47
:103243006008E4FBFD7F06125949229005FFEBF06D
:10325300A3EAF0A3E9F078027C067D017BFF7A64A0
:1032630079667E007F0612038D7596585397FB7B14
:10327300017A067902124F1FEF60037F0122900645
:1032830002E054C0C41313540375F003A42404646C
:103293000460037F01227B017A0679027D017F931B
:1032A3001236D9EF60037F01229005FFE0FBA3E014
:1032B300FAA3E0F8AC02AD037B017A0679027E0043
:1032C3007F0512038D90060C7401F0A37406F0A31E
:1032D3007402F0A37405F09005FFE0FBA3E0FAA3EA
:1032E300E0F97F931230E5EF60037F01229006023D
:1032F300E054247F017001FF22900622EBF0A3EA41
:10330300F0A3E9F0A3EDF07596585397FDE0600440
:1033130064017023900622E0FBA3E0FAA3E0F91214
:1033230003B3F5F953FCC1900625E0FF25E0543EB5
:1033330042FC43FC01806B900622E0FBA3E0FAA36E
:10334300E0F91203B3F5F99000011203CCF5FA5337
:10335300FCC1900625E0FF25E0543E42FC43FC01FE
:10336300125C637D02900625E0FEEDC39E5033EDB3
:1033730090062230E014E0FBA3E0FAA3E0F98D828B
:103383007583001203CCF5FA8012E0FBA3E0FAA3E5
:10339300E0F98D827583001203CCF5F9125C630D9D
:1033A30080C3125C6322900603EBF0A3EAF0A3E967
:1033B300F0E4FFFEEFC3940A748094805015EF7518
:1033C300F00EA4245CF582E43402F583E0F4600398
:1033D3000F80E1EFC3940A748094805070EF75F00E
:1033E3000EA4245CF582E43402F583EFF075F00E4D
:1033F300A4245DF582E43402F583EDF0E4FEEEC32C
:10340300940C748094805031900603E0FBA3E0FA9F
:10341300A3E0F98E827583001203CCFDEF75F00EE5
:10342300A4245EF582E43402F583E5822EF582E47A
:103433003583F583EDF00E80C57B017A02795C90CC
:103443000610E4F0A3748CF07F03021C8B7F01222F
:10345300900686E0640260030234F57D02FF123DAC
:103463005EEF640160030234F5900689E070139007
:10347300069DF01262949006887401F0E49006862B
:10348300F022E490062AF090068604F0900689E084
:1034930090069DF0E490062AF090062AE0FF33950B
:1034A300E0FEC3EF9413EE64809480502B748A2F54
:1034B300F58274063EF583E0FF601D90062AE0FD69
:1034C3003395E0FC74892DF58274063CF583EFF0A7
:1034D30090062AE004F080C190062AE0FF3395E0CD
:1034E300FE74892FF58274063EF583E4F090068717
:1034F300F022122F732274DE2FF582E43403F58356
:10350300E07049748B2FF582E43404F583E4F0749E
:10351300062FF582E43404F583E004F074062FF5F6
:1035230082E43404F583E0FE90644BE493FDEED330
:103533009D406474062FF582E43404F583E4F0744B
:10354300422FF582E43404F583E4F02274062FF568
:1035530082E43404F583E4F0748B2FF582E43404BD
:10356300F583E004F0748B2FF582E43404F583E0F3
:10357300FE90644AE493FDEED39D401B748B2FF5BC
:1035830082E43404F583E4F074422FF582E43404D6
:10359300F5837401F0D20122900608124E8DEF6478
:1035A3000170037FFF227F0112632F7F087E0012C9
:1035B3005B807F1B126332900608E0FF125CAE90C3
:1035C3000609E0FF125CAE900609A3E0FF125CAEB1
:1035D30090060BE0FF125CAE90060BA3E0FF125CBB
:1035E300AE900609E0FCA3E0FDECFF7E0090060828
:1035F300E02424FBE433CB2FFFEE3BFE7C00EF2DD6
:10360300FDEC3EFC90060B1250D47D0712277C90F4
:103613000610EFF09006E3E0FEA3E07C002400FF39
:10362300EC3EF990060DE0FBA3E0FAA3E0C98FF0AE
:103633001204A1900610E0FF2275962B5397F89081
:103643000608E05407429753CDF3A3E025E025E0B5
:10365300540C42CD53CDFDA3E025E0540242CD539B
:10366300CDFEA3E0540142CD53CBBFA3E0C433331B
:10367300544042CB53CCBFA3E0C43333544042CC79
:1036830075962B5397C7A3E033333354384297537C
:10369300CD8FA3E0C4547042CD53CBC0A3E0543FBD
:1036A30042CB53ADDFA3E0C433542042AD75962D16
:1036B3005397FDE4F5C953F1DF900613E0640170FD
:1036C3001153F6DF900612E0C43354E042F643E6AA
:1036D300202253E6DF22900608EFF0A3EDF0A3EBE0
:1036E300F0A3EAF0A3E9F0780D7C067D017BFF7A75
:1036F30064795C7E007F0A12038D900608E09006D1
:1037030017F0A37420F07B017A0679177D02123239
:10371300FCEF640160037F01229006257401F0A38E
:103723007406F0A37421F0A37405F07B017A067983
:1037330017122EB7EF64017031FEEEC39405748047
:103743009480502374172EF582E43406F583E0FD4C
:1037530090060AE0FBA3E0FAA3E0F98E82758300EA
:10376300ED12040B0E80D37F0022EF7F0070027FE7
:103773000122E49005FFF0A3F0125FEDEF64017006
:1037830002FF22900680E075F003A4245FF582E433
:103793003406F583E01203F9900680E0FF75F00329
:1037A300A42460F582E43406F583E090000112045A
:1037B3000BEF75F003A42461F582E43406F583E08E
:1037C30090000212040B900680E0FF75F003A4241E
:1037D3005FF582E43406F58374FFF0EF75F003A41C
:1037E3002460F582E43406F58374FFF0EF75F0038B
:1037F300A42461F582E43406F58374FFF012605962
:10380300900680EFF07F012290638EE4939007622D
:10381300F0E49005FCF0900762E0FF9005FCE0FE09
:10382300C39F5077E0FF25E024AFF582E43463F5CE
:1038330083E493FC740193FD75F002EFA42412F565
:1038430082E5F03404F583ECF0A3EDF0EE90638FA2
:1038530093FF121F1A9005FCE0FF75F002A4247376
:10386300F582E5F03404F583E4F0A3F075F002EF9C
:10387300A4242AF582E5F03404F583E4F0A3F0757B
:10388300F002EFA4244EF582E5F03404F583E4F06E
:10389300A3F09005FCE004F002381922900606EB31
:1038A300F0A3EAF0A3E9F0A3EDF0E4FFEFC3940A79
:1038B300748094805047E4FEEEC3940C748094802B
:1038C3005033900606E0FBA3E0FAA3E0F98E82757D
:1038D30083001203CCFDEF75F00EA4245EF582E4A1
:1038E3003402F583E5822EF582E43583F583E0B572
:1038F30005030E80C3EE640C60030F80AFEFC39427
:103903000A74809480501FEF75F00EA4245DF58235
:10391300E43402F583E0FE900609E0FDEE6D6008F5
:10392300ED64027001227FFF22787FE4F6D8FD75F3
:1039330081200239730249FBE493A3F8E493A34083
:1039430003F68001F208DFF48029E493A3F8540717
:10395300240CC8C333C4540F4420C8834004F45612
:10396300800146F6DFE4800B01020408102040804A
:10397300900E8BE47E019360BCA3FF543F30E509B6
:10398300541FFEE493A360010ECF54C025E060A84A
:1039930040B8E493A3FAE493A3F8E493A3C8C582DD
:1039A300C8CAC583CAF0A3C8C582C8CAC583CADF4B
:1039B300E9DEE780BE90060EEFF0E4A3F090060F79
:1039C300E0C394087480948050375390F77F017E4E
:1039D30000125FB190060EE030E7054390108003BC
:1039E3005390EF7F017E00125FB14390087F017E09
:1039F30000125FB190060EE025E0F0A3E004F08032
:103A0300BC5390F77F017E00125FB143EC107F013E
:103A13007E00125FB14390087F027E00125FB1E522
:103A230090A2E492045390F77F017E00125FB1539A
:103A3300ECEF5390EF7F017E00125FB1A204227579
:103A4300962D5397FE7D087F0512523B7F057E001E
:103A53001258B37D0A7F061241AF900601EEF0A320
:103A6300EFF07D087F05124FF475962D4397019073
:103A73000601E0FCA3E0FDE412023A7B677A407999
:103A830053783A1200B69006031205F6E4FFFE7D62
:103A9300A07C3F900603E0F8A3E0F9A3E0FAA3E0DB
:103AA300FB1201BC50037F0222E4FFFE7DC87C3F72
:103AB300900603E0F8A3E0F9A3E0FAA3E0FB120108
:103AC300BC7F0050027F0122900604EFF0E0240740
:103AD300F582E43407F583E024FC60281460352480
:103AE3006F604124FE6047240570537F4E125417C4
:103AF300126368EF60057F25125417E490070CF0FA
:103B0300A3F0803A1263097F10125417126368EF0F
:103B1300602C80251263097F17125417126368EF14
:103B2300601C80157F7E12541712616E80107F4FC8
:103B3300125417126368EF60057F2512541790061D
:103B430004E02407F582E43407F583E090070EF0E0
:103B530022900605EBF0A3EAF0A3E9F0ED90060A44
:103B6300600CE02400FE900609E03446800AE0245D
:103B730000FE900609E0344490060DF0A3CEF0C297
:103B8300AFE4FDFCD390060CE09D90060BE09C4057
:103B93003A75D28890060DE0FAA3E0FBEAF5CEEB86
:103BA300F5CF900605E0FBA3E0FAA3E0F98D828C44
:103BB30083E5D412040B90060EE004F07006900621
:103BC3000DE004F00DBD00010C80B9E4F5D2F5CE93
:103BD300F5CFD2AF22E4FE900604F0A3741DF0905B
:103BE300055EEFF07F107D007B017A0479B1120846
:103BF30050E490055DF0FE900605E0FFEEC39F5094
:103C030057EE75F005A424C1F582E43404F583E08E
:103C1300FF90055EE0FDEF6D703B900604E0FF252D
:103C2300E024B1F582E43404F583EEF075F005A4E5
:103C330024C2F582E43404F583E0FDEF25E024B2E9
:103C4300F582E43404F583EDF0900604E004F0908B
:103C5300055DE004F00E809F22E4900603F0FFFE72
:103C6300F0900603E0FDC39432748094805059EDC4
:103C730025E024F4F582E43401F583E06042900604
:103C830003E025E024F5F582E43401F583E0FDF457
:103C9300602EEDFF7E001262BE7E00EF7022900662
:103CA30003E0FD25E024F4F582E43401F58374FF99
:103CB300F0ED25E024F5F582E43401F58374FFF09B
:103CC300900603E004F080997B017A0179F4900671
:103CD30010E4F0A37464F07F02021C8B53C4FC5302
:103CE300C4F343C40453C4BF43C44053C4CF43C405
:103CF3003053C47F43C48053C38143C30E53C38132
:103D030043C30C75963253978343977C759632530E
:103D130097FC4397037596425397FC43970275C1EB
:103D2300FF7596425397F34397047596425397EF63
:103D33004397107596425397DF125AC275965343B1
:103D4300970143F78075962A43974043F74075964A
:103D53002D5397FE75962D43970122EFB40700501C
:103D630075903D6BF8282873023D80023D8D023D1E
:103D73009A023DA7023DB4023DC1023DCEE5F85D86
:103D83007F0060027F01AE07804CE5805D7F0060AD
:103D9300027F01AE07803FE5905D7F0060027F01F7
:103DA300AE078032E5B05D7F0060027F01AE078021
:103DB30025E5C05D7F0060027F01AE078018E5C87E
:103DC3005D7F0060027F01AE07800BE5D85D7F0059
:103DD30060027F01AE07AF0622906380E4939005F3
:103DE300FCF0906381E4939005FDF0906382E4938B
:103DF3009005FEF0906383E4939005FFF090638455
:103E0300E493900600F0906385E493900601F090AC
:103E13006388E493900602F0906389E49390060329
:103E2300F090638AE493900604F0906386E49390A1
:103E33000605F0A37401F0906387E493900607F0FE
:103E430078087C067D017B017A0579FC7E007F0C76
:103E530012038D02363C78037C067D017BFF7A6476
:103E6300796E7E007F0212038D900601744BF0A3DE
:103E73007464F07B017A0679017D021248D97F0AC6
:103E83007E001258B39006097401F0A37406F0A3E0
:103E93007403F0A37402F07B017A067901E4FD1246
:103EA3002995900603E0FEB44B08A3E0B44F037FCB
:103EB3000122EEB44B0A900604E0B445037F0222CC
:103EC300900603E0B44B08A3E0B44B037F03227FC7
:103ED3000022E0FBA3E0FAA3E0F990060DEBF0A3C8
:103EE300EAF0A3E9F0A3EDF0E4FC900614F09006E9
:103EF30010E0FDECC39D505590060DE0FBA3E0FAE6
:103F0300A3E0F9AF048F827583001203CC540F90A2
:103F13000614F00C900610E0FFECC39F500D8C824A
:103F23007583001203CC540FFE80027E0F9006149B
:103F3300E0C454F04EFF900611E0FBA3E475F001DA
:103F430012048BA9F0FAEF1203F90C80A12212607C
:103F5300BE12627112561D12567D1257EF1253DEB6
:103F63001256DD7B027D087F051222747D087F05D2
:103F7300124FF4E4FB7D407F061222747B027D1016
:103F83007F021222747D107F0212523B7B027D0856
:103F93007F021222747D087F0212523BE4FB7D20D4
:103FA3007F06122274E4FB7D107F03122274E4FB6C
:103FB3007D207F03122274E4FB7D407F0312227471
:103FC300E4FB7D807F03022274900630EFF0E4A3CC
:103FD300F0900686E070227D02FF123D5EEF6401E1
:103FE300701790068604F0900630E090069DF0E48A
:103FF300900687F01260AE8048E4900631F0900698
:1040030031E0FFFD7C00C3941474809480501574D8
:10401300892FF582E43406F583E06008900631E0E9
:1040230004F080DAC3ED9414EC6480948050129011
:104033000630E0FFA3E02489F582E43406F583EF3C
:10404300F07F0122E4900604F0900686E0700B7D79
:1040530002FF123D5EEF64016061126294E4900618
:1040630004F0900604E0FFFD3395E0FCC3ED9414E7
:10407300EC648094805019EF3395E0FE74892FF53A
:104083008274063EF583E4F0900604E004F080D2E7
:10409300900687E0C39404748094804010E49006F3
:1040A3009DF09006867403F0E4A3F0800BE4900681
:1040B3009DF09006867403F01260AE2290061AEC0F
:1040C300F0A3EDF0A3EBF0AA0775965BAD97C2AF33
:1040D300E4F5CFF5CEEA25E025E042CE90061AE0DE
:1040E300FEA3E0F5CFEE540342CEA3E0F5D175D2A3
:1040F3006900000000E4F5CFF5CEAF05EDAF029007
:10410300061A700CE0FCA3E0FD125AE2A907800A2C
:10411300E0FCA3E0FD1257C5A90790061CE0B5011A
:1041230006A37401F08005E490061DF0D2AF90065B
:104133001DE0FF22E4900603F0F0900603E0FFC3C6
:10414300946474809480504F75F005EFA42404F5B3
:1041530082E5F03400F583E064017033900603E0F8
:1041630075F005A42404F582E5F03400F58374FFAB
:10417300F0900004C083C082FDEF75F005A4240015
:10418300F9740035F0FA7B01D007D006120850907D
:104193000603E004F080A37B017A00790090061007
:1041A3007401F0A374F4F07F01021C8B900607EFF7
:1041B300F0A3EDF0A312060200000000E490060D48
:1041C300F0900608E0FF90060DE0C39F503A90067A
:1041D30009E0F8A3E0F9A3E0FAA3E0FB900607E007
:1041E300FF125922E4FCFDEB2FFFEA3EFEED39FD01
:1041F300EC38FC9006091205F67F057E001258B3D1
:1042030090060DE004F080B9900608E0FBE4FAF9AB
:10421300F8A3E0FCA3E0FDA3E0FEA3E0FF0204FC9F
:10422300E4FF900762E0FEEFC39E506374A32FF593
:1042330082E43404F583E4F074F62FF582E4340366
:10424300F583E4F074972FF582E43404F583E4F006
:1042530074EA2FF582E43403F583E4F074062FF552
:1042630082E43404F583E4F0748B2FF582E43404A0
:10427300F583E4F074DE2FF582E43403F583E4F090
:1042830074422FF582E43404F583E4F00F8093E461
:10429300FF024F6790055EE0640170057F010262D3
:1042A300FDE4900602F0A3741DF0E4900602F09082
:1042B3000603E0FF900602E0FEC39F5037EE75F061
:1042C30005A424C2F582E43404F583E0FF90055E7F
:1042D300E0FEEFB50616900602E075F005A424C1D2
:1042E300F582E43404F583E090055EF0900602E085
:1042F30004F080BB90055EE0FF123BD890055EE0C2
:10430300FF12548512541722900604EFF0E490052F
:1043130068F0126362EF6401702B900604E0FF649F
:10432300086022EFF4FFE4F44F7F0060027F019006
:104333000562E0FE5F6004E4F0800A900604E05E3C
:10434300900562F0227F521262FD1263717BFF7A45
:104353005F79877F037E00125AA1900604E024FE52
:10436300600F24FE600E24FC600D2407700C0261B4
:10437300880261950261A212637D22EFC3940A74DD
:104383008094805066EF75F00EA4245CF582E434CB
:1043930002F583E06F7054EF75F00EA4245CF58290
:1043A300E43402F58374FFF0EF75F00EA4245DF599
:1043B30082E43402F58374FFF090000CC083C08262
:1043C300FDEF75F00EA4245EF9740235F0FA7B015B
:1043D300D007D0061208507B017A02795C90061050
:1043E300E4F0A3748CF07F03021C8B7F0122126222
:1043F3007AC204122DF6906389E49375F002A42423
:104403004CF582E5F03464F583E493FE740193FF85
:10441300E4FCFD78031205E3E47B0AFAF9F81204DD
:10442300FC900404EEF0A3EFF0906389E49375F03D
:1044330002A4244CF582E5F03464F583E493FE741E
:104443000193FF9063F3E493FD7C00120679E47B10
:104453000AFAF9F81204FC900402EEF0A3EFF0223A
:10446300E4900603F0F0900603E0FFC3940A74801F
:1044730094805049E0FE75F00EA4245DF582E43487
:1044830002F58374FFF0EE75F00EA4245CF582E46C
:104493003402F58374FFF090000CC083C082FDEFFB
:1044A30075F00EA4245EF9740235F0FA7B01D0078F
:1044B300D006120850900603E004F080A97B017A2D
:1044C30002795C900610E4F0A3748CF07F03021C65
:1044D3008BC202EF25E02473F582E43404F583E014
:1044E300FCA3E0FD900404E0FAA3E0FBC3ED9BEC26
:1044F3009A5020EF25E02473F582E43404F583E039
:10450300FEA3E0FF900402E0FCA3E0FDC3EF9DEEF9
:104513009C50289004AFE004F0E0C3940A748094A4
:10452300804018E4F0D202F5C953F1DFC200C201A2
:1045330090046674FFF0C20412302C22121C6A7EAF
:10454300007F647DFF7B017A0179F41208507B01BF
:104553007A0179F4900610E4F0A37464F07F0212F8
:104563001C8B12004E7E007F8C7DFF7B017A0279CB
:104573005C1208507B017A02795C900610E4F0A388
:10458300748CF07F03121C8B750801750901E4F527
:104593000AF50BF50DFB7A007908900610F0A37469
:1045A30006F0E4FF021C8B900602EFF0640A702A07
:1045B300126368EF602490070CE07002A3E07005BB
:1045C3009007018011900701E004F0E0D394027496
:1045D3008094804005E4F012612A900602E0FF7E99
:1045E300007401A807088005C333CE33CED8F9FF82
:1045F30090070CE04EFEA3E04FFF90070CEEF0A3F4
:10460300EFF0BE0F0ABFFF077D017F9312503922DF
:10461300900607EFF0A3ECF0A3EDF0124E9BEF64CE
:104623000170037FFF227F0112632F7F067E00123A
:104633005B807F06126332900607E0FF125CAE9048
:104643000608E0FF125CAE900608A3E0FF125CAE22
:10465300900608E0FCA3E0FDECFF7E00900607E077
:10466300240DFBE433CB2FFFEE3BFE7C00EF2D123A
:1046730050E512277A22900604EEF0A3EFF0A3ECA4
:10468300F0A3EDF0124E9BEF640170037FFF227FD6
:104693000112632F7F077E00125B807F0C1263324F
:1046A300900604E0FF125CAE900604A3E0FF125CE8
:1046B300AE900606E0FF125CAE900606A3E0FF1282
:1046C3005CAE900604E0FCA3E0FDEC2414FFE433AD
:1046D300FE7C00EF2D1250CF12277A221263039033
:1046E300062DEFF07E00C39412748094804009EF8E
:1046F3009441748094804029EF64534E6023EF64A7
:10470300424E7002801B90062DE0FF64436005EF6C
:104713006444701412636BEF7007900559F0A3F0B3
:10472300227F08125417801390062DE06441700B0A
:10473300900559F0A3F07F900254177F601262FD39
:1047430022EFC3946474809480505875F005EFA4ED
:104753002404F582E5F03400F583E06D704575F0CF
:1047630005EFA42404F582E5F03400F58374FFF02B
:10477300900004C083C082FDEF75F005A42400F906
:10478300740035F0FA7B01D007D0061208507B0184
:104793007A0079009006107401F0A374F4F07F019D
:1047A300021C8B7F01227EFFEFB40C00505990470F
:1047B300B8F82828730247DC0247E00247E40247BF
:1047C300E80247EC0247F00247F40247F80247FCCD
:1047D3000248000248040248087E0A802AE4FE8058
:1047E300267E0B80227E07801E7E04801A7E018037
:1047F300167E0880127E09800E7E06800A7E038064
:10480300067E0280027E05AF0622900602EFF0A329
:10481300741DF090055DE0FDEFC39D40037F012211
:10482300900602E025E024B1F582E43404F583E048
:10483300FE75F005A424C3F582E43404F583A3E0F4
:10484300FAA3E0F94A6005120673801F900602E09E
:1048530025E024B2F582E43404F583E0FF123BD86B
:1048630090055EE0FF1254851254177F00229006D4
:1048730004EBF0A3EAF0A3E9F0E4FEEFFD7C0070A3
:1048830005A304F08028ED64014C700890060774BA
:1048930002F0801AED64024C70089006077403F06E
:1048A300800CED64034C70069006077404F09006C8
:1048B30007E0FF900604E0F9A3E0FAA3E090060DF9
:1048C300C9F0A3EAF0A3E9F07B2C7A01E4FDFC0232
:1048D300359B7B017D02900607EBF0A3EAF0A3E989
:1048E300F0A3EDF0C2AF1257A77F501239B85002B0
:1048F300802AE490060BF090060AE0FFA3E0FEC3D3
:104903009F5029900607E0FBA3E0FAA3E0F98E820B
:104913007583001203CCFF1239B85008125B40D2E2
:10492300AF7F012290060BE004F080CBD2AF125B85
:10493300407F0022E490060FF043EC1090060EF047
:1049430090060EE0C3940874809480503A5390F715
:104953007F027E00125FB14390087F027E00125FE8
:10496300B1E59030E40790060FE04401F090060EA5
:10497300E0C39407748094805005A3E025E0F09091
:10498300060EE004F080B95390F753ECEF5390EF29
:1049930090060FE0FF22123E59900600EFF09007B9
:1049A3001EE004F0700690071DE004F0EF64017050
:1049B30012126303EF64617003125F727F08124384
:1049C3000B8027900600E06402600FD390071EE07F
:1049D300942C90071DE094014018126303EF646167
:1049E3007003125F727F08125417E490071DF0A33F
:1049F300F0227F011260DE22E49005FBF0759255F0
:104A0300125A1B12611B12633E125F9C12635C12EB
:104A13006347123CDF7F0712633B126283125D9888
:104A2300EF701012636BEF700512007680057F0143
:104A33001262FD126303EF6461700812632B12525A
:104A4300F4800675910712319D124ED6126303EF5F
:104A5300646070DF125BD380DAE4900604F0A3F0A5
:104A6300125F48EF64017002FF22900601E0FE909E
:104A73000681E0FF75F003A4245FF582E43406F5B4
:104A830083EEF0900602E0FEEF75F003A42460F5D8
:104A930082E43406F583EEF0900603E0FEEF75F052
:104AA30003A42461F582E43406F583EEF012605921
:104AB300900681EFF07F012278027C067D017BFF67
:104AC3007A64796C7E007F0212038D90060074492C
:104AD300F0A37464F07A0679001248D57F0A7E0049
:104AE3001258B39006097401F0A37406F0A374027C
:104AF300F0A37402F07B017A067900E4FD12299594
:104B0300900602E0B44908A3E0B44F037F01227F7B
:104B13000022E4900552F0A3F0900568E004F0EF62
:104B230024FE601D24FE602E2403703F7F931254E5
:104B330017900568E0C3940574809480402D02614A
:104B4300AF7F96125417900568E0C3940574809460
:104B53008040180261BC7F99125417900568E0C326
:104B630094057480948040031261C922E4FE900589
:104B7300FFF043FB0175962D5397FE7F14125FB12F
:104B83007F0712592253FBFE75962D439701900719
:104B93002AE07002A3E0700890072AEEF0A3EFF07A
:104BA300D3EF94F4EE9401401890072BE024E2FD38
:104BB30090072AE034FFFCC3EF9DEE9C50037F0176
:104BC300227F00227596515397BF7596545397DFF2
:104BD30053ECFE5390FE75962D5397F77F027E009C
:104BE3001258B37596305397E7439718E4F5FDF5DC
:104BF300FF43FD8053FDCF43FD2053FDF043FD05EF
:104C030053FFF743FF0853FFF843FF0475965853C8
:104C130097FD43FB0243FB012290071EE004F07063
:104C23000690071DE004F0124ABBEF6401701A906E
:104C33000717E004F0E0C3940274809480400F12DD
:104C4300598EE4900717F08018E4900717F0D3907B
:104C5300071EE0945890071DE09402400B12596A16
:104C6300E490071DF0A3F022E4FF1260DE22EFC3FD
:104C730094027480948040037F0122E4FEEEC39487
:104C83000C748094805035744F2EF582E43406F50D
:104C930083E0FDEF75F00CA42437F582E43406F5C8
:104CA30083E5822EF582E43583F583EDF0744F2E90
:104CB300F582E43406F583E4F00E80C17F00229090
:104CC30006027401F0D390071EE0940090071DE0E4
:104CD300940040037F002212637A7FFA7E00125809
:104CE300B3125B99EF700E7FFAFE1258B3125B9901
:104CF300900602EFF0900602E06401700B90071D2E
:104D0300F0A304F0FF1260DE900602E0FF22E490BD
:104D13000602F07F511262FD125DB0EF600690064D
:104D2300027401F0124137EF60069006027401F03D
:104D3300123C5CEF60069006027401F0124463EFCC
:104D430060069006027401F0900602E070047F4C46
:104D530080027F081254177F010262FD900604EC63
:104D6300F0A3EDF0E4FEEFFD7C007005A304F080FA
:104D730028ED64014C70089006067402F0801AED69
:104D830064024C70089006067403F0800CED640313
:104D93004C70069006067404F0900606E0FF900639
:104DA30004E0FCA3E0FD024613E490062DF012623A
:104DB300B7EF702B900723E07035900725E004F0E0
:104DC3007006900724E004F0C3900725E094289030
:104DD3000724E0940040189007237401F08010E446
:104DE300900724F0A3F0900723F090062D04F09091
:104DF300062DE0FF2243C03075963453979F4397A7
:104E030040E4F5DEF5DF9006041206020000E1003F
:104E1300E4FF12558A53DDF753DDFB53DDFD53DD0C
:104E2300FE43DD0153DDEF43DD2043DE0843DE04B3
:104E330053E1FB53F4FB43F40443E70443DD402213
:104E4300E4FFEFD3940A748094805036EF75F00337
:104E5300A4245FF582E43406F58374FFF0EF75F064
:104E630003A42460F582E43406F58374FFF0EF7540
:104E7300F003A42461F582E43406F58374FFF00F94
:104E830080C0E4900680F0A3F022EFF0ECA3F0A33F
:104E9300EDF0A3EAF0A3EBF0E49006B8F07FEF1295
:104EA3005CAE7F01125CAE125C9B7810125C9D902D
:104EB30006D4E0FCA3E0FDA3E0FEA3E0FF78081224
:104EC30005D0125CAE9006D4A3A3A3E0FF125CAEA0
:104ED3007F00227B017A0579FC123775EF603C1263
:104EE300628C9005FCE014601914601E1460232486
:104EF300FE6022146022240670219005FEE0FF026A
:104F030009039005FEE0FF02193B9005FEE0FF0256
:104F130020F702588D0261E2125D0222900608EB2F
:104F2300F0A3EAF0A3E9F0A37452F07B017A0679C7
:104F33000BE4FD1232FCEF70037F0122900625740F
:104F430001F0A37406F0A3740BF0A37402F09006AF
:104F530008E0FBA3E0FAA3E0F9122EB7EF7F00709D
:104F6300027F0122EF701F9063F793900757F09031
:104F730063F8E493900759F09063F9E4939007562C
:104F8300F09063FA801E9063FBE493900757F090D0
:104F930063FCE493900759F09063FDE49390075604
:104FA300F09063FEE493900758F02253CCBFA2061F
:104FB300E433C43333544042CCE4900604F0900607
:104FC30003E0FFA3E0C39F502775910720061990C4
:104FD300638FE493FF900412E0FCA3E0FD1254EF0F
:104FE300900605EEF0A3EFF0900604E004F080CE07
:104FF30022EFB40700503E905001F8282873025066
:105003001602501B02502002502502502A02502F34
:10501300025034EDF452F822EDF4528022EDF452B2
:105023009022EDF452B022EDF452C022EDF452C8B6
:1050330022EDF452D8227E05E4FCECC39E50117499
:10504300072CF582E43407F583E06F60030C80EAF4
:10505300AF05A804EF088002C333D8FCFF9007060E
:10506300E02FF00CECC39E5005AF04023ACB90073F
:1050730006E0FF125DDF12612A22C0E0C0F0C083A8
:10508300C082C0D075D000C000C001C002C003C040
:1050930004C005C006C00753F17FE5AE30E3031239
:1050A30023ECD007D006D005D004D003D002D00122
:1050B300D000D0D0D082D083D0F0D0E032FFE43320
:1050C300FE7C00EF2DFFEC3EFEA3E02FFDEC3EA3A4
:1050D300FCE0FAA3E0FBEA7E002DFFEE3CFE7C0041
:1050E300EF2BFFEC3EFE900611EEF0A3EFF09006DF
:1050F30011E0FF125CAE900611A3E0FF025CAEABC1
:1051030007900621ECF0A3EDF06BFBC454F06BFBAE
:10511300FC900621E0FFEFFDEB75F008A4FFE5F03E
:105123006CFCEF6DFDE4C4F854F0C868FEEBC454A6
:105133000F48FFEE6CFEEF6DFFEEF0A3EFF022E4FD
:10514300FEEFFD7C00700790060404F08028ED64F8
:10515300014C70089006047402F0801AED64024C4E
:1051630070089006047403F0800CED64034C700621
:105173009006047404F0900604E0FF0253A4C0E018
:10518300C0F0C083C082C0D075D000C000C001C0D1
:1051930002C003C004C005C006C0075388DF123431
:1051A30053D007D006D005D004D003D002D001D00D
:1051B30000D0D0D082D083D0F0D0E032C0E0C08322
:1051C300C082C0D075D000C007E5DF30E321900670
:1051D300B8E0C39414748094805014E0FF04F07416
:1051E3009E2FF582E43406F583E5E2F053DFF7D032
:1051F30007D0D0D082D083D0E03290061DEBF0A34D
:10520300EAF0A3E9F0EFB401067463FCFD8004E463
:10521300FEFF2290061DE0FBA3E475F00112048B50
:10522300A9F0FA1203B3FAFF125102AC06AD0790CC
:105233000620E014F070DC22EFB4070050379052E0
:1052430048F828287302525D0252610252650252E5
:105253006902526D025271025275ED42F822ED421B
:105263008022ED429022ED42B022ED42C022ED4277
:10527300C822ED42D8229005FB7401F0125E8B7FA9
:10528300FA7E001258B3125CE9EF700E7FFAFE1239
:1052930058B3125CE99005FBEFF09005FBE0640165
:1052A300700C90071DF0A304F0E4FF1260DE90057C
:1052B300FBE0FF22AE071254BAEF7032EE25E02472
:1052C300F4F582E43401F58374FFF0EE25E024F570
:1052D300F582E43401F58374FFF07B017A0179F4FC
:1052E300900610E4F0A37464F07F02021C8B7F012C
:1052F300227FFF9006BAE004F0E0D3940474809414
:10530300804005E4F01261EEEF6012126341EF702A
:105313000C12635FEF60061262C5EF700E1261D666
:105323001247A99006C0EFF0125F7222900603EBBA
:10533300F0A3EAF0A3E9F07B017A06794F7D02122C
:10534300389F900603E0FBA3E0FAA3E0F9EF120312
:10535300F9900603E0FBA3E0FAA3E0F91203B3F428
:105363007F0160027F0022C0E0C083C082C0D0758D
:10537300D000C00753887FE5895430C4540F6402BA
:105383006006850F8D85118B9006B7E004F07006DB
:105393009006B6E004F0D007D0D0D082D083D0E01E
:1053A30032900605EFF0124E9BEF640170037FFF0E
:1053B300227F0112632F7F047E00125B807F021223
:1053C3006332900605E0FF125CAE900605E0240709
:1053D300FFE433FE1250E912277A227B027D107F0D
:1053E300041222747D107F0412523B7B017D207FC7
:1053F300041222747D207F0412523B7B027D807F46
:10540300041222747D807F0412523B7B017D407F16
:105413000402227490062EEFF0C3945D748094808E
:105423005005E0FF023FCC90062EE024A3A3F090AA
:10543300062FE02469F582E43405F583E0FF600B71
:10544300123FCC90062FE004F080E422E49005FEA6
:10545300F043FB0112324EEF70079005FE04F0801B
:1054630005E49005FEF090072AE07002A3E07009BE
:105473009005FEE07003124B6F53FBFE9005FEE0B8
:10548300FF22E4FE75F002EEA424E8F582E5F03491
:1054930002F583E0FDC3949B748094805007ED6F05
:1054A30060030E80DF75F002EEA424E9F582E5F0D7
:1054B3003402F583E0FF22EFC3943274809480506A
:1054C30028EF25E024F5F582E43401F583E06F70DD
:1054D30018EF25E024F4F582E43401F583E06D60F0
:1054E30005ED640270037F00227F0122AB078DCAA2
:1054F30053CC7FEC5401C313E41342CC53CCC0EB25
:10550300543F42CCC20075C90130030343AD1020A0
:10551300000575910780F8AFACEFFEADABEDFF2250
:10552300E4FFEFFD7C00C39464748094805016758F
:10553300F005EFA42404F582E5F03400F583E0F4EC
:1055430060030F80DDC3ED9464EC648094805001AC
:10555300227FFF22E4FFEFFD7C00C3940A74809452
:10556300805015EF75F00EA4245CF582E43402F547
:1055730083E0F460030F80DEC3ED940AEC6480944F
:105583008040037FFF2222900603EFF0A3E0F8A3FD
:10559300E0F9A3E0FAA3E0FB7F607EE37D167C00E5
:1055A3001204FC900603E070088FDCEE540342DE25
:1055B300228FD6EE540342D9227F02EFFD7C00C333
:1055C3009432748094805013EF25E024F5F582E43F
:1055D3003401F583E0F460030F80E0C3ED9432EC13
:1055E3006480948040037FFF2222E4FB7D107F04CC
:1055F3001222747D107F04124FF4E4FB7D207F049C
:105603001222747D207F04124FF4E4FB7D807F041B
:105613001222747D807F04024FF47B027D207F0180
:105623001222747B027D407F011222747B027D80F3
:105633007F011222747D207F0112523B7D407F0146
:1056430012523B7D807F0102523BE4FB7D207F01B0
:10565300122274E4FB7D407F01122274E4FB7D80FF
:105663007F011222747D207F01124FF47D407F0160
:10567300124FF47D807F01024FF47B027D017F0195
:105683001222747B027D027F011222747B027D044D
:105693007F011222747D017F01124FF47D027F018D
:1056A300124FF47D047F01024FF4E4FB7D017F017F
:1056B300122274E4FB7D027F01122274E4FB7D0459
:1056C3007F011222747D017F01124FF47D027F015D
:1056D300124FF47D047F01024FF47B027D017F06AC
:1056E3001222747D017F06124FF47B027D047F0634
:1056F3001222747D047F06124FF47B027D027F0623
:105703001222747D027F06024FF4E4FB7D017F06C3
:105713001222747D017F06124FF4E4FB7D047F06A1
:105723001222747D047F06124FF4E4FB7D027F0690
:105733001222747D027F06024FF4EF25E024F5F573
:1057430082E43401F583EFF025E024F4F582E434B8
:1057530001F583EDF07B017A0179F4900610E4F012
:10576300A37464F07F02021C8BE4FB7D02FF122210
:10577300747D02E4FF124FF4E4FB7D01FF122274F7
:105783007D01E4FF124FF4E4FB7D047F05122274D4
:105793007D047F05024FF4EFF0A3EBF0A3EAF0A33F
:1057A300E9F0C2AF53ECEF4390104390087F017EC2
:1057B30000125FB15390EF7F017E00125FB15390EF
:1057C300F722EF6009E42DFBEC3446FA8007E42D61
:1057D300FBEC3444FAC2AF75D288EAF5CEEBF5CFD1
:1057E300AFD4E4F5D2F5CEF5CFD2AF227B017D0263
:1057F300E4FF1222747B027D01E4FF1222747D0117
:10580300E4FF124FF47B027D047F051222747D04B2
:105813007F0502523B53ECEF5390EF5390F7EF6049
:105823000543901080035390EF7F017E00125FB118
:105833004390087F017E00125FB15390F722EFFB84
:105843007A00700C8DE2E5DF541060FA53DFEF222B
:10585300EB64014A700DAF058FDBE5DA541060FA93
:1058630053DAEF22E49006C3F09006C2F0FE7F08FD
:105873007DFF7B017A0679C41208507E007F087D84
:10588300FF7B017A0679CC020850126303EF64545C
:10589300700B126321EF649870030262CC12453FD0
:1058A300EF70047F4C80027F081254171200762297
:1058B300AB07AA06D3EB9400EA940040177C037D60
:1058C3005A759107ED1D70011CED4C70F4EB1B70C4
:1058D300E31A80E02253DDBF1262B012576C1255F7
:1058E300ED12570D12564D1256AD75962D43970274
:1058F30075962D43972075925522124E9BEF6401A6
:1059030070037FFF227F0112632F125B7C7F0312E0
:1059130063327F077E001250E97D0512277C2253F4
:10592300C381EF25E0547E42C343C301E5F120E484
:105933000575910780F653F1EFE5C5540FFEADC62B
:10594300EDFF22E4FBFD9005FEEFF0A3EDF0A3EBEA
:10595300F078017C067D017B017A0579FE7E007F6C
:105963000312038D024A5CE4FF125E0B126303EF22
:10597300645570077F011262FD800B126303EF64AD
:10598300617003125F727F080254177F01125E0B6E
:10599300126303EF645570077F011262FD800B12DF
:1059A3006303EF64617003125F727F050254171281
:1059B3004E9BEF640170037FFF227F0112632F125E
:1059C3005B7C7F011263327F057E001250E9122750
:1059D3007A22124E9BEF640170037FFF227F011234
:1059E300632F125B7C7F051263327F097E001250A6
:1059F300E912277A22124E9BEF640170037FFF2284
:105A03007F0112632F125B7C7F0D1263327F117E45
:105A1300001250E912277A22C2AF7F04126139754E
:105A2300962D5397DF7596305397F8D2AF75962D11
:105A33005397EF7FDC7E050258B31255BCEFF47029
:105A4300087F5C125417025C2A7F101254177F01DF
:105A53001263531263097F221262FD2275962D533E
:105A630097DF75962D5397FD12561D12567D1257CB
:105A7300EF1253DE1256DD1262A9025E377C0C531D
:105A830093FB4393045393FD4393025393F7ECF532
:105A9300947595CC53F17F53F67F53E67F22E490C0
:105AA300055BF0A3F0900564EEF0A3EFF090055FC3
:105AB300EBF0A3EAF0A3E9F09005587401F0227526
:105AC300962AE4F597759653F597759654F5977559
