:10000000026FA902004E53E1DF323202850B53E149
:0A001000F7323202006653F1F732B6
:10001B0002863EE4F5C9C20953F1DF900398E0FE76
:10002B00A3E0F5CA53CC7FEE5401C313E41342CCC7
:10003B0053CCC0909674E493543F42CC75C90122C3
:07004B0002006E5388FD3234
:1000530002001612965C7F2A1286B17F6002962CEC
:070063000295935388F73268
:07006B0002001253F1FB3209
:100073000283C67F891286B1128B097F4102962CB7
:0700830002009653E1BF32B9
:07008B0002854953E17F32B9
:0700930002000E53E1FD32F3
:07009B0002000A4387012265
:0600A3000200067F0022AE
:0600AB00020086027E87C0
:1000B30002008E020258E86480F8E933E8336011E5
:1000C3000460F0ED33EC337009E8FCE9FDEAFEEB84
:1000D300FF220460DED3EB9FEA9EE99DE8C2E78C32
:1000E300F0C2F795F0400CE8CCF8E9CDF9EACEFA86
:1000F300EBCFFB12022385D0F05804700320D5B355
:10010300E80470075002B2D502026292D5EC046093
:10011300F7E4CCC0E0C398F8603B94186008400D46
:10012300D0E0FB02023AE4FBFAC9FC8028E830E4A1
:1001330006E4C9FBE4CAFCE830E305E4C9CACBFC26
:10014300E854076010F8C3E913F9EA13FAEB13FB59
:10015300EC13FCD8F130F52FC3E49CFCEF9BFFEECE
:100163009AFEED99FDD0E0FBEF4E4D4C701222DB71
:100173000302025FEC2CFCEF33FFEE33FEED33FDA5
:10018300ED30E7EB02023AEF2BFFEE3AFEED39FDDD
:10019300D0E0FB50130BBB0003020262ED13FDEE34
:1001A30013FEEF13FFEC13FC02023A75F020800EEE
:1001B30075F010800575F0087D007E007F00339296
:1001C300D530D503120AEAEC334010EF33FFEE3398
:1001D300FEED33FDEC33FCD5F0ED22E5F0247EA2F9
:1001E300D513CC92E7CDCEFF22EDD2E7CD33EC335E
:1001F30092D524814006E4FFFEFDFC22FCE4CFCE31
:10020300CDCC24E0501174FF80EDC3CC13CCCD13BF
:10021300CDCE13CECF13CF0470F030D5DE020AEA71
:10022300E9D2E7C933E833F892D5EDD2E7CD33EC21
:1002330033FC5002B2D522EC30E7100FBF000C0E96
:10024300BE00080DBD00040BEB6014A2D5EB13FC3C
:10025300ED92E7FD2274FFFCFDFEFF22E480F8A28D
:10026300D574FF13FC7D80E480EFED33EC33601035
:1002730004700FED547F7005740292E0227404221F
:100283000422E422EC4D6011E8497017ED33EC339E
:1002930004600DE4FCFFFEFD22E933E8330470F84B
:1002A30002025812022358046009E4CC2481500648
:1002B30028500902026228400302025FC0E0EB4AB1
:1002C3007044B98006D0E0FB02024EEF4E701CBDB5
:1002D3008008EBFFEAFEE9FD80EBE98DF0A4FEE583
:1002E300F0020370E9CDF9EAFEEBFFEF89F0A4FC1D
:1002F300E5F0CE89F0A42EFFE435F0CD89F0A42DEE
:10030300FEE435F08067EF4E7005BD80D780C3EF04
:100313008BF0A4ACF0EE8BF0A42CFCE435F0F8EFFA
:100323008AF0A42CE5F038FCE433CB8DF0A42CFC4C
:10033300E5F03BF8EE8AF0A42CFCE5F038F8E43362
:10034300CF89F0A42CFCE5F038CF3400CE89F0A49B
:100353002FFFE5F03EFEE433C98DF0A42EFEE5F059
:1003630039CD8AF0A42FFFE5F03EFEE43DFD33D006
:10037300E0FB50070BBB000F020262EC2CFCEF33D7
:10038300FFEE33FEED33FD02023A74F8CC6480CC09
:10039300C86480C8F58204604FC3EB9FF5F0EA9E02
:1003A30042F0E99D42F0E89C45F0603C501DE58237
:1003B3005FFFE582D313CB5BCBF42B5582FB502835
:1003C3000ABA002409B9002008801DE5825BFBE519
:1003D30082D313CF5FCFF4C3132F5582FF50090E7F
:1003E300BE00050DBD00010CC3EB9FF5F0EA9E4274
:1003F300F0E99D42F0E89C45F06007CC4820E70116
:10040300B3EC22ED33EC33600A047003BD8004ECDB
:10041300B2E7FC22F920E73624F950037907E4F424
:100423002402FBE582158270021583DBF6E024FBD0
:10043300501BE96014E4F0E582158270021583E035
:1004430004F0B40A08E4F0D9EE7401F00A22C2D52C
:1004530022ED33EC3392D5FA602AB4FF33EDC2E7D1
:100463007BFF60067A047979E4227A04798220D5C5
:10047300047A04797D224E614E002B494E46002DAD
:10048300494E4600E47A08F0A3DAFC7B00740722A5
:10049300C083C082ECC0E0EDC0E0EEC0E0EFC0E09E
:1004A300EA75F010A4CAABF075F04DA42BFBE4354C
:1004B300F0FCEA2410FAEB34C5FBEC34D9FCEDC2B2
:1004C300E7FF75F056A4F42411C5F0F434C58FF09A
:1004D300A42AE5F03BE43CF020E714120629D0E01F
:1004E300FFD0E0FED0E0FDD0E0FC12055C8014F408
:1004F30004120629D0E0FFD0E0FED0E0FDD0E0FCFE
:10050300120287D082D083E0FAEDD2E7CD33EC3309
:100513002482FBE4C3CF33CFCE33CECD33CD33DB15
:10052300F37B0775F00A846004F0A31B0AE5F0F07F
:10053300A38FF0740AA4FFACF08EF0740AA42CFE0F
:10054300ACF050010C8DF0740AA42CFDE435F0F0EE
:10055300A3DBDE740722020262EC5D046005E85946
:10056300047003020258120223580460F6EC486038
:10057300F2EC7004FDFEFF22C860DB2481C8500941
:10058300C3986002500602025F9850CAF582E929B7
:100593004B4A7005AB8202024E75F0007C1A7880DC
:1005A300C3EF9BEE9AED99400DC3EF9BFFEE9AFECE
:1005B300ED99FDE842F0DC23ACF0D0E0FFD0E0FEA3
:1005C300D0E0FDAB8220E7101BEB60BAEC2CFCEF14
:1005D30033FFEE33FEED33FD02023AE803F830E772
:1005E30005C0F075F000EF2FFFEE33FEED33FD4055
:1005F300B830E7C280AA3F8000004120000042C813
:100603000000447A0000461C400047C35000497470
:1006130024004B1896804CBEBC205A0E1BCA67534D
:10062300C21C749DC5AEFB60065407601C232312D5
:100633000657EB543860091206431206521202871A
:10064300ECF8EDF9EEFAEFCB22EB12065280F154FF
:100653003803241C9005F9FE93FC0EEE93FD0EEE79
:10066300930ECE93FF22C0E0EFFBEEFAEDF9ECF828
:10067300120287D0E0F5F0EFFBEEFAEDF9ECF81299
:100683000B7FA3A3A3A3E8C0E0E9C0E0EAC0E0EBCB
:10069300C0E0C0F0120287120B9BA3A3A3A3120016
:1006A300BDD0F0D0E0FBD0E0FAD0E0F9D0E0F8D54F
:1006B300F0D422E709F608DFFA8046E709F208DFFB
:1006C300FA803E88828C83E709F0A3DFFA8032E365
:1006D30009F608DFFA8078E309F208DFFA80708808
:1006E300828C83E309F0A3DFFA806489828A83E042
:1006F300A3F608DFFA805889828A83E0A3F208DF31
:10070300FA804C80D280FA80C680D4806980F280DF
:1007130033801080A680EA809A80A880DA80E28005
:10072300CA803389828A83ECFAE493A3C8C582C85A
:10073300CCC583CCF0A3C8C582C8CCC583CCDFE9C4
:10074300DEE7800D89828A83E493A3F608DFF9EC60
:10075300FAA9F0EDFB2289828A83ECFAE0A3C8C5EB
:1007630082C8CCC583CCF0A3C8C582C8CCC583CC12
:10077300DFEADEE880DB89828A83E493A3F208DF81
:10078300F980CC88F0EF60010E4E60C388F0ED2451
:1007930002B4040050B9F582EB2402B4040050AF54
:1007A300232345822390070673BB010689828A832C
:1007B300E0225002E722BBFE02E32289828A83E41D
:1007C3009322BB010CE58229F582E5833AF583E0A8
:1007D300225006E92582F8E622BBFE06E92582F8C7
:1007E300E222E58229F582E5833AF583E49322BB8D
:1007F300010689828A83F0225002F722BBFE01F3AD
:1008030022F8BB010DE58229F582E5833AF583E8F9
:10081300F0225006E92582C8F622BBFE05E92582AF
:10082300C8F222EF8DF0A4A8F0CF8CF0A428CE8DCF
:10083300F0A42EFE22BC000BBE0029EF8DF084FF36
:10084300ADF022E4CCF875F008EF2FFFEE33FEECA9
:1008530033FCEE9DEC984005FCEE9DFE0FD5F0E9D0
:10086300E4CEFD22EDF8F5F0EE8420D21CFEADF0CF
:1008730075F008EF2FFFED33FD4007985006D5F0D4
:10088300F222C398FD0FD5F0EA22C2D5EC30E70976
:10089300B2D5E4C39DFDE49CFCEE30E715B2D5E48C
:1008A300C39FFFE49EFE120838C3E49DFDE49CFC55
:1008B300800312083830D507C3E49FFFE49EFE226D
:1008C300C5F0F8A3E028F0C5F0F8E58215827002C0
:1008D3001583E038F022A3F8E0C5F025F0F0E582B7
:1008E300158270021583E0C838F0E822BB0110E5D9
:1008F3008229F582E5833AF583E0F5F0A3E02250FF
:1009030009E92582F886F008E622BBFE0AE925827A
:10091300F8E2F5F008E222E5832AF583E993F5F09E
:10092300A3E99322BB010DC58229C582C5833AC5BC
:10093300830208C35011C58229F808E5F026F6188A
:10094300F5F0E58236F622BBFE11C58229F808E2EE
:1009530025F0F5F0F218E23582F222F8E58229F566
:1009630082E5832AF58374019325F0F5F0E4933847
:1009730022BB010A89828A83F0E5F0A3F0225006A4
:10098300F709A7F01922BBFE06F3E5F009F31922D4
:10099300F8BB0111E58229F582E5833AF583E8F096
:1009A300E5F0A3F0225009E92582C8F608A6F02253
:1009B300BBFE09E92582C8F2E5F008F222E88FF0D0
:1009C300A4CC8BF0A42CFCE98EF0A42CFC8AF0EDD3
:1009D300A42CFCEA8EF0A4CDA8F08BF0A42DCC3887
:1009E30025F0FDE98FF0A42CCD35F0FCEB8EF0A4BF
:1009F300FEA9F0EB8FF0A4CFC5F02ECD39FEE43C79
:100A0300FCEAA42DCE35F0FDE43CFC2275F008751C
:100A13008200EF2FFFEE33FECD33CDCC33CCC58236
:100A230033C5829BED9AEC99E58298400CF582EEF2
:100A33009BFEED9AFDEC99FC0FD5F0D6E4CEFBE4DA
:100A4300CDFAE4CCF9A88222B800C1B90059BA00A2
:100A53002DEC8BF084CFCECDFCE5F0CBF97818EFFD
:100A63002FFFEE33FEED33FDEC33FCEB33FB10D7FE
:100A730003994004EB99FB0FD8E5E4F9FA227818BF
:100A8300EF2FFFEE33FEED33FDEC33FCC933C9101A
:100A9300D7059BE99A4007EC9BFCE99AF90FD8E04C
:100AA300E4C9FAE4CCFB2275F010EF2FFFEE33FE1E
:100AB300ED33FDCC33CCC833C810D7079BEC9AE891
:100AC30099400AED9BFDEC9AFCE899F80FD5F0DA12
:100AD300E4CDFBE4CCFAE4C8F922CFF4CFCEF4CED4
:100AE300CDF4CDCCF4CC22C3E49FFFE49EFEE49D81
:100AF300FDE49CFC22EB9FF5F0EA9E42F0E99D4267
:100B0300F0EC6480C864809845F022EB9FF5F0EA2E
:100B13009E42F0E99D42F0E89C45F022E8600FEC2C
:100B2300C313FCED13FDEE13FEEF13FFD8F122E820
:100B3300600FEFC333FFEE33FEED33FDEC33FCD830
:100B4300F122BB010789828A83020F725005E9F8FB
:100B5300020F66BBFE05E9F8020F7E89828A8302D3
:100B63000B7FBB010789828A83020BAB5005E9F82F
:100B7300020F8ABBFE05E9F8020F9622E493FC7488
:100B83000193FD740293FE740393FF22E0F8A3E044
:100B9300F9A3E0FAA3E0FB22E493F8740193F97458
:100BA3000293FA740393FB22ECF0A3EDF0A3EEF0AF
:100BB300A3EFF022A8828583F0D083D082120BCEDC
:100BC300120BCE120BCE120BCEE473E493A3C583A8
:100BD300C5F0C583C8C582C8F0A3C583C5F0C58366
:100BE300C8C582C822BB010789828A83020BB7501A
:100BF30005E9F8020FA2BBFE05E9F8020FBB22A428
:100C03002582F582E5F03583F58322E0FBA3E0FA44
:100C1300A3E0F922F8E0FBA3A3E0F925F0F0E582D5
:100C2300158270021583E0FA38F022F8E0FBA3A3E3
:100C3300E025F0F9F0E582158270021583E038FAB9
:100C4300F022EBF0A3EAF0A3E9F022D083D082F8FC
:100C5300E4937012740193700DA3A393F87401933A
:100C6300F5828883E4737402936860EFA3A3A3807F
:100C7300DF8A838982E473EC8EF0A4CCC5F0CCCDFB
:100C8300F8EFA4CEC5F02DFDE43CFCE8A42EC8C5C6
:100C9300F03DFDE43CFCEFA4FFE5F028FEE43DFD60
:100CA300E43CFC22E709F60870FA8046E709F208FB
:100CB30070FA803E88828C83E709F0A370FA807E05
:100CC300E309F60870FA8076E309F20870FA806E99
:100CD30088828C83E309F0A370FA806289828A8315
:100CE300E0A3F60870FA805689828A83E0A3F208AB
:100CF30070FA804A80D280FA80C680D4806580F200
:100D03008031801080A680EA809A80A880DA80E211
:100D130080CA803189828A83ECFAE493A3C8C582AE
:100D2300C8CCC583CCF0A3C8C582C8CCC583CC705E
:100D3300E9800D89828A83E493A3F60870F9ECFABB
:100D4300A9F0EDFB2289828A83ECFAE0A3C8C5826D
:100D5300C8CCC583CCF0A3C8C582C8CCC583CC702E
:100D6300EA80DD89828A83E493A3F20870F980CE56
:100D730088F0ED2402B4040050C4F582EB2402B4DD
:100D8300040050BA2323458223900CF773E3F5F054
:100D930009E208B5F06BDFF58067E3F5F009E608D3
:100DA300B5F05EDFF5805A87F009E608B5F052DF4B
:100DB300F6804E87F009E208B5F046DFF6804288F8
:100DC300828C8387F009E0A3B5F036DFF6803288A2
:100DD300828C8387F009E493A3B5F025DFF58021A6
:100DE30088828C83E3F5F009E0A3B5F014DFF58086
:100DF3001088828C83E3F5F009E493A3B5F002DF56
:100E0300F4020EBF808780E9809080D4803E8015F5
:100E1300806E807E809D80B7808D80A3805180749A
:100E2300803C020ECB89828A83ECFAE493F5F0A32B
:100E3300C8C582C8CCC583CCE493A3C8C582C8CC3B
:100E4300C583CCB5F076DFE3DEE1807089828A83E7
:100E5300E493F5F0A3E208B5F062DFF4805E8982E3
:100E63008A83E0F5F0A3E608B5F051DFF5804D89FC
:100E7300828A83E0F5F0A3E208B5F040DFF5803C19
:100E830089828A83E493F5F0A3E608B5F02EDFF4B4
:100E9300802A8002805789828A83ECFAE493F5F0F2
:100EA300A3C8C582C8CCC583CCE0A3C8C582C8CCBF
:100EB300C583CCB5F006DFE4DEE280007FFFB5F04A
:100EC300020F2240027F012289828A83ECFAE0F535
:100ED300F0A3C8C582C8CCC583CCE0A3C8C582C86B
:100EE300CCC583CCB5F0D5DFE5DEE380CF89828A3C
:100EF30083ECFAE0F5F0A3C8C582C8CCC583CCE483
:100F030093A3C8C582C8CCC583CCB5F0AFDFE4DEFC
:100F1300E280A988F0EF60010E4E60ABED2402B4CD
:100F230004005098F582EB2402B40400508E23236E
:100F3300458223900E0773EF4E6012EF60010EEDB2
:100F4300BB010B89828A83F0A3DFFCDEFA2289F0DE
:100F53005007F709DFFCA9F022BBFEFCF309DFFC15
:100F6300A9F022E6FC08E6FD08E6FE08E6FF22E01B
:100F7300FCA3E0FDA3E0FEA3E0FF22E2FC08E2FD08
:100F830008E2FE08E2FF22ECF608EDF608EEF608AA
:100F9300EFF622ECF208EDF208EEF208EFF222D0BF
:100FA30083D082E493F608740193F608740293F6EF
:100FB30008740393F6740473D083D082E493F20825
:100FC300740193F208740293F208740393F27404A5
:100FD30073900284EFF012962FA3EFF0120C4E13CE
:100FE300420113420213421213421318C61418C6C5
:100FF3001518C61613421718A63218A63318C63486
:1010030018C63518C63613424113424218C6501942
:101013003F53196D5419CD5510286019D5701033ED
:1010230080000019E07F0112962C9002857401F074
:1010330090060DE07021900284E0640A700B129315
:10104300EF7F0112962C02193C900284E0640B702E
:10105300061293EF0214B21293EF900284E0FF7E24
:1010630000C3748094804056D3EF940974809480B5
:10107300504C90060DE0C3942074809480503F90B0
:10108300060CE0FF701A900284E0FD90060DE0FC70
:1010930004F0740E2CF582E43406F583EDF0801E23
:1010A300EF64014E7018900284E0FF90060DE0FE9D
:1010B30004F0742E2EF582E43406F583EFF09002EB
:1010C30084E0640A705290060CE0FF7E00700FA368
:1010D300E0FD14F0740E2DF582E434068015EF6400
:1010E300014E701490060DE0FF14F0742E2FF5825C
:1010F300E43406F58374FFF090060DE060030219F3
:10110300E090060CE070030214B290060CE0640158
:1011130060030219E00214FA900284E0640B600B8E
:1011230090060DE0640F60030219E090060DE0C322
:10113300940F7480948050217F651286B1E49006E9
:101143000DF090060CE070030216A390060CE06409
:101153000160030219E00216F490060CE070087FA8
:10116300681286B10216EB90060CE064016003027C
:1011730019E0780E7C067D017B017A06792EFE7FCD
:101183000F120F16EF3395E04F600302133A7B0102
:101193007A06790E125ECC90061BE0FF9005C8E03C
:1011A3006F600302131E90061CE0FF9005C9E06FF9
:1011B300600302131E78887C027D017BFF7A977996
:1011C30085FE7F32120786E4900286F0900286E065
:1011D300C3940A74809480505AE4A3F0900287E089
:1011E300C39405748094805042E0FF900286E0FE31
:1011F30075F005A42488F582E43402F583E5822F93
:10120300F582E43583F583E0FDEE75F006A424CB87
:10121300F582E43405F583E5822FF582E43583F521
:1012230083EDF0900287E004F080B1900286E00441
:10123300F080997B017A06790E1296179002CA7490
:1012430001F0A37405F0A374B4F0A37401F0A374C4
:1012530005F0A37499F07B017A06790E7D0A1229B1
:10126300A7E4FF128F36EF60030213087B0190029D
:10127300C904F0A37402F0A374BAF07A0579BE121C
:10128300352712814C7BFF7A97793112258F7BFFAB
:101293007A9779439002C4E0FFA3E090030FCFF065
:1012A300A3EFF09002C3E02401FE9002C2E03400F9
:1012B300900311F0A3CEF09002C0E0FFA3E09003EF
:1012C30013CFF0A3EFF09002BFE02408FE9002BE1C
:1012D300E03400900315F0A3CEF09002BCE0FFA32E
:1012E300E0900317CFF0A3EFF09002BAE0FFA3E082
:1012F300900319CFF0A3EFF012258F1280B77F056B
:101303001286B1802A7F081286B112814C7BFF7A44
:1013130097796512258F1280B7801412814C7BFF59
:101323007A97797512258F1280B77F081286B17F5D
:101333000112962C0218A37FD31286B10218A312AE
:1013430092C9EF6401700B1296357F2E1286B1029B
:1013530095F390060DE07065900284E0640A703A9C
:10136300A3E0644170030219E01293EF900285E059
:10137300FD7C00640170057F600218C1ED64024CBE
:1013830070057F010218C1900746E064017008747C
:10139300FFF07F010218C102193C900284E0640B44
:1013A300701BA3E0640160030219E01293EFE49061
:1013B3000607F07F831286B17F020218C11293EFF2
:1013C300900284E0FFC374809480407CD3EF94093F
:1013D30074809480507290060DE0C39420748094BE
:1013E300805065900285E0FF64016005EF64027040
:1013F30016900284E0FF90060DE0FE04F0740E2EBA
:10140300F582E43406803D90060CE0FF7E00701AFE
:10141300900284E0FD90060DE0FC04F0740E2CF5C0
:1014230082E43406F583EDF0801EEF64014E7018FC
:10143300900284E0FF90060DE0FE04F0742E2EF57A
:1014430082E43406F583EFF0900284E0640A6003DB
:1014530002152990060CE0FF7E00700FA3E0FD1437
:10146300F0740E2DF582E434068015EF64014E709E
:101473001490060DE0FF14F0742E2FF582E4340669
:10148300F58374FFF090060DE060030219E090020B
:1014930085E0640270057F830219D290060CE07028
:1014A3003D900285E0FF64126005EF641770057FCD
:1014B300620219D2900285E0641370057F740219E9
:1014C300D2900285E0644170057F890219D29002AF
:1014D30085E0644260030219E07F620219D290063C
:1014E3000CE0640160030219E0900285E0FF6412DE
:1014F3006005EF641770057F680219D2900285E0DA
:10150300641370057F040219D2900285E064417070
:10151300057F680219D2900285E0644260030219D4
:10152300E07F680219D2900284E0640B600B90069E
:101533000DE0640860030219E090060DE0FF7E00F1
:10154300C394067480948040030215F9900285E0E9
:10155300640160030215D8EF6402701090060EE078
:10156300700AA3E070061294C002165190060DE0B3
:101573006401700CA3E064057006128A060216511A
:1015830090060DE06401700CA3E0640670061283FC
:101593003D02165190060DE064027032A3E0702EF6
:1015A300A3E064017028129653EF6401700E900655
:1015B3000704F07F831286B17F02800C7F01128CB7
:1015C300EA7F5F1286B17F0112962C0216517F01CA
:1015D30012844B80797F651286B1E490060DF090FA
:1015E300060CE070030216A390060CE0640160038E
:1015F3000219E00216F4900285E064017057A3F02B
:101603007B017A06790E90060DE0FD1243A7900246
:1016130086EFF0F470077F0112844B8031900286CD
:10162300E064FE7018129653EF64017010FF128C81
:10163300EA7F601286B17F0112962C801190028698
:10164300E0640170047F1180027F01125A33E49039
:10165300060DF0804B900285E0640270507B017AA6
:1016630006790E90060DE0FDE49002CAF0125C15B7
:10167300EFF470077F8C1286B18020900607E06438
:10168300017010FF128CEA7F601286B17F011296FF
:101693002C80087F011295C3129027E490060DF069
:1016A300FE7F207DFF7B017A06790E804F90060C2A
:1016B300E0704C900285E0FF6412601BEF641770CA
:1016C300028014900285E0641370047F04801690F6
:1016D3000285E0644170047F68800A900285E064BB
:1016E3004270057F681286B190060C7401F0E4A382
:1016F300F0FE7F207DFF7B017A06792E020F3A9060
:10170300060CE0640160030219E0780E7C067D019B
:101713007B017A06792EFE7F08120F16EF3395E0D0
:101723004F600302189E900285E0641370507B01A2
:101733007A06790E90060DE0FD9002CA7401F0124C
:101743005C15900286EFF0F470057F710218A0908B
:101753000286E0FF7D01127C44EF7017900286E061
:101763009001F4F07F051286B19001F4E0FF12932B
:101773009080057F6E1286B11295000218A37B013B
:101783007A06790E90060DE0FD9002CA7403F012FA
:101793005C15EFF460057F860218A0900285E06473
:1017A3001270467B017A06790E90060DE0FD9002D9
:1017B300CA7401F0125D01EF640170077F6E128637
:1017C300B1800D7F051286B19001F4E0FF12938082
:1017D300900746E06401700B74FFF07F0112962CB2
:1017E3000218A31294F60218A3900285E0644170D4
:1017F300377B017A06790E90060DE0FDE49002CA6C
:10180300F0125D01EF640170077F6E1286B1800DE7
:101813007F051286B19001F4E0FF12938012965077
:10182300EF70391294EC8078900285E06442702E58
:101833007B017A06790E90060DE0FDE49002CAF072
:10184300125D01EF640170077F6E1286B1800D7F18
:10185300051286B19001F4E0FF1293808038900264
:1018630085E06417703A7B017A06790E90060DE0E5
:10187300FD9002CA7402F0125D01EF640170077FEC
:101883006E1286B180101296117F051286B19001F7
:10189300F4E0FF12938012902780057FD31286B164
:1018A300028B09900284E0640A60030219E0129338
:1018B300EF900746E06401700874FFF07F01029621
:1018C3002C8076900284E0640B70601293EF900298
:1018D30085E024EB604614604624E26028146042ED
:1018E30014604224E66041243C60030219E012754F
:1018F300B3EF700A7F051286B11295DB80057F086E
:101903001286B18034127962EF700A7F051286B1B4
:101913001295E780057F081286B1801D028D420271
:101923009473028D5F029480028409900284E064C0
:101933000A60030219E01293EF029027900284E0F9
:10194300640A70061293EF02771D900284E070031D
:101953000219E01295C9900284E0D39F507F12933D
:10196300EF900284E014FF027D0D1295D59002865C
:10197300EFF06496700B1293EF900284E0FF027A0B
:10198300A7900286E064997035900284E0640A703F
:10199300181293EF1294A712964DEF600280287FDE
:1019A300587E02128B2F02949A900284E0640B708B
:1019B3002C1293EF1294A77D017F990283821296D2
:1019C3004DEF60191293EF02942B1296357F4D025F
:1019D30086B11296357F2F1286B112943A22900265
:1019E300ECE0F9A3E0FAA3E0900317C9F0A3EAF04F
:1019F300A3E9F0A37401F0A37402F0A374F5F090CB
:101A030002E9E0FBA3E0FAA3E0F9900314EBF0A3EF
:101A1300EAF0A3E9F09000061207C5FF3395E0FE54
:101A2300EF24D0FFEE34FFFE7C007D0A120826C0AF
:101A330006C0079000051207C5FF3395E0FEEF24AB
:101A4300D0FFEE34FFFE7D64120826D0E02FFFD0D6
:101A5300E03EFE9000071207C5FD3395E0FCED2440
:101A6300D0FDEC34FFCD2FFFED3E90031DF0A3EF2F
:101A7300F0E4900329F0A3F0900317E0FBA3E0FA4E
:101A8300A3E0F9129240900334EEF0A3EFF0E49058
:101A93000340F0A3F07A03794290031D12670EE42A
:101AA300900329F0A3F0900329E0FEA3E0FFC39481
:101AB30005EE648094805063900314E0FBA3E0FA86
:101AC300A3E0F98F828E831207C5FF3395E0FEEF03
:101AD30024D0FFEE34FF90034CF0A3EFF090034CBF
:101AE300E0FEA3E02442F58274033EF583E0FD901B
:101AF300032AE025E0FF900329E033FE741F2FF54E
:101B03008274033EF583E4F0A3EDF090032AE0042E
:101B1300F07093900329E004F0808B7E007F097DB1
:101B2300007B017A03792B120F3A900334E070049F
:101B3300A3E064087016782B7C037D01900317E003
:101B4300FBA3E0FAA3E0F9120D738079D390033578
:101B5300E09408900334E064809480402790031756
:101B6300E0F9A3E0FAA3E0900351C9F0A3EAF0A3DC
:101B7300E9F0A3E4F0A37408F07B017A03792B1254
:101B83007B108041782B7C037D01900317E0FBA33E
:101B9300E0FAA3E0F9120D7390035174FFF0A374FC
:101BA30098F0A37411F0900334E0FEA3E0FFC37434
:101BB300089F900355F0E49E900354F07B017A0351
:101BC300792B12613C90032CE0FB3395E0FA9003F0
:101BD3002BE0FF3395E0FEC3EF9BFFEE9AFE9003ED
:101BE3002DE0F9FD3395E0FCEF2DFFEE3CFEA3E085
:101BF300FD3395E0FCC3EF9DFFEE9CFEA3E0FD33B8
:101C030095E0FCEF2DFFEE3CFEA3E0FD3395E0FCF9
:101C1300C3EF9DFFEE9CFEA3E0FD3395E0FCEF2DAB
:101C2300FFEE3CFEA3E0FD3395E0FCC3EF9DFFEE2A
:101C33009C900336F0A3EFF0C374309BFFE49AFE4D
:101C4300E9FD3395E0FCEF2DFFEE3CFE90032EE023
:101C5300F9FB3395E0FAC3EF9BFFEE9AFEA3E0FB9B
:101C63003395E0FAEF2BFFEE3AFEA3E0FB3395E06A
:101C7300FAC3EF9BFFEE9AFEA3E0FB3395E0FAEF86
:101C83002BFFEE3AFEA3E0FB3395E0FAC3EF9BFF95
:101C9300EE9A900338F0A3EFF0E9FF3395E0FEC32B
:101CA300ED9FFFEC9EFE90032FE0FD3395E0FCEFEC
:101CB3002DFFEE3CFEA3E0FB3395E0FAC3EF9BFF61
:101CC300EE9AFEA3E0FB3395E0FAEF2BFFEE3AFE2C
:101CD300A3E0FB3395E0FAC3EF9BFFEE9A90033A40
:101CE300F0A3EFF0E9FF3395E0FEC374309FCFE438
:101CF3009ECF2DCF3CFE900330E0FD3395E0FCC337
:101D0300EF9DFFEE9CFEA3E0F9FB3395E0FAEF2B8A
:101D1300FFEE3AFEA3E0FB3395E0FAC3EF9BFFEE41
:101D23009A90033CF0A3EFF090032FE0FF3395E08C
:101D3300FEC3EF9DFFEE9CFEE9FD3395E0FCEF2D26
:101D4300FFEE3CFE900332E0FD3395E0FCC3EF9DD4
:101D5300FFEE9C90033EF0A3EFF0E4900329F0A381
:101D6300F0900329E0FAA3E0FB25E0FFEA33FE74D9
:101D7300362FF58274033EF583E0FCA3E0FD741F68
:101D83002FF58274033EF583E0FEA3E0C39DFFEECF
:101D93009CCF2464CF3400FE7C007D0A12088DEBB7
:101DA30025E0FFEA33FE741F2FF58274033EF583AB
:101DB300ECF0A3EDF090032AE004F0700690032901
:101DC300E004F0900329E07004A3E064057092E45A
:101DD300900329F0A3F0900329E0FEA3E0FFC3944E
:101DE30005EE648094804003021EA37C007D0212F2
:101DF300088DED4C7027E025E0FF900329E033FECA
:101E0300741F2FF58274033EF583A3E025E0FD05DF
:101E130082D5820215831582E033FC802890032A41
:101E2300E025E0FF900329E033FE741F2FF5827451
:101E3300033EF583E0FEA3E0FF7C007D031208264A
:101E4300AC06AD07EC1201B3C004C005C006C00761
:101E5300900352120BB740000000D007D006D00504
:101E6300D004124E8BC004C005C006C007900340C7
:101E7300E0FCA3E0FDEC1201B3D003D002D001D00B
:101E8300001200BD1201EC900340EEF0A3EFF090BE
:101E9300032AE004F07006900329E004F0021DD940
:101EA300900340E0FEA3E0FF90031DE06E7003A3E8
:101EB300E06F6003021F7A90031FA3E0FF90031AF1
:101EC300E0FBA3E0FAA3E0F9EF1207F2900321A3EA
:101ED300E0FF90031AE0FBA3E0FAA3E0F99000010E
:101EE300EF120804900323A3E09000021208049069
:101EF3000325A3E0900003120804900327A3E090B6
:101F03000004120804900314E0FBA3E0FAA3E0F931
:101F13009000051207C524D0FF90031AE0FBA3E04D
:101F2300FAA3E0F9900005EF120804900314E0FB14
:101F3300A3E0FAA3E0F99000061207C524D0FF90AE
:101F4300031AE0FBA3E0FAA3E0F9900006EF1208FE
:101F530004900314E0FBA3E0FAA3E0F99000071256
:101F630007C524D0FF90031AE0FBA3E0FAA3E0F92E
:101F7300900007EF020804E4900329F0A3F0900314
:101F830029E0FEA3E0FFC39408EE6480948050240C
:101F930090031AE0FBA3E0FAA3E0F98F828E837427
:101FA300FF12080490032AE004F070D2900329E0A2
:101FB30004F080CA22900314EBF0A3EAF0A3E9F043
:101FC3009000061207C575F00AA4FDACF090000559
:101FD3001207C575F064A42DFFE5F03CFE900007E1
:101FE3001207C57C002FFFEC3E90031DF0A3EFF01A
:101FF300900317E0FBA3E0FAA3E0F91292409003E9
:1020030032EEF0A3EFF0E4A3F0A3F0900340F0A3CB
:10201300F07A03794290031D12670EE4900334F0C3
:10202300A3F0900334E0FEA3E0FFC39405EE6480C5
:1020330094805059900314E0FBA3E0FAA3E0F98FD6
:10204300828E831207C5FF90034CE4F0A3EFF09058
:10205300034CE0FEA3E02442F58274033EF583E0E3
:10206300FD900335E025E0FF900334E033FE741F59
:102073002FF58274033EF583E4F0A3EDF09003356E
:10208300E004F0709D900334E004F080957E007FBF
:10209300097D007B017A037929120F3A900332E01C
:1020A3007004A3E06408701678297C037D01900313
:1020B30017E0FBA3E0FAA3E0F9120D738079D39044
:1020C3000333E09408900332E064809480402790C7
:1020D3000317E0F9A3E0FAA3E0900351C9F0A3EAE0
:1020E300F0A3E9F0A3E4F0A37408F07B017A037989
:1020F30029127B10804178297C037D01900317E02E
:10210300FBA3E0FAA3E0F9120D7390035174FFF0FF
:10211300A37498F0A37411F0900332E0FEA3E0FFE0
:10212300C374089F900355F0E49E900354F07B0121
:102133007A03792912613C90032AE0FB3395E0FA94
:10214300900329E0FF3395E0FEC3EF9BFFEE9AFE79
:1021530090032BE0F9FD3395E0FCEF2DFFEE3CFE01
:10216300A3E0FD3395E0FCC3EF9DFFEE9CFEA3E0EF
:10217300FD3395E0FCEF2DFFEE3CFEA3E0FD339530
:10218300E0FCC3EF9DFFEE9CFEA3E0FD3395E0FC76
:10219300EF2DFFEE3CFEA3E0FD3395E0FCC3EF9D86
:1021A300FFEE9C900336F0A3EFF0C374309BFFE483
:1021B3009AFEE9FD3395E0FCEF2DFFEE3CFE900324
:1021C3002CE0F9FB3395E0FAC3EF9BFFEE9AFEA3F5
:1021D300E0FB3395E0FAEF2BFFEE3AFEA3E0FB338F
:1021E30095E0FAC3EF9BFFEE9AFEA3E0FB3395E085
:1021F300FAEF2BFFEE3AFEA3E0FB3395E0FAC3EFD1
:102203009BFFEE9A900338F0A3EFF0E9FF3395E0DC
:10221300FEC3ED9FFFEC9EFE90032DE0FD3395E0A2
:10222300FCEF2DFFEE3CFEA3E0FB3395E0FAC3EF9A
:102233009BFFEE9AFEA3E0FB3395E0FAEF2BFFEE54
:102243003AFEA3E0FB3395E0FAC3EF9BFFEE9A90CF
:10225300033AF0A3EFF0E9FF3395E0FEC374309F38
:10226300CFE49ECF2DCF3CFE90032EE0FD3395E0CF
:10227300FCC3EF9DFFEE9CFEA3E0F9FB3395E0FA70
:10228300EF2BFFEE3AFEA3E0FB3395E0FAC3EF9B9F
:10229300FFEE9A90033CF0A3EFF090032DE0FF33A1
:1022A30095E0FEC3EF9DFFEE9CFEE9FD3395E0FC58
:1022B300EF2DFFEE3CFE900330E0FD3395E0FCC3D1
:1022C300EF9DFFEE9C90033EF0A3EFF0E490033408
:1022D300F0A3F0900334E0FAA3E0FB25E0FFEA3338
:1022E300FE74362FF58274033EF583E0FCA3E0FD14
:1022F300741F2FF58274033EF583E0FEA3E0C39DB4
:10230300FFEE9CCF2464CF3400FE7C007D0A1208CC
:102313008DEB25E0FFEA33FE741F2FF58274033E35
:10232300F583ECF0A3EDF0900335E004F070069034
:102333000334E004F0900334E07004A3E064057018
:1023430092E4900334F0A3F0900334E0FEA3E0FFA3
:10235300C39405EE6480948040030224157C007DC1
:102363000212088DED4C7027E025E0FF900334E066
:1023730033FE741F2FF58274033EF583A3E025E03B
:10238300FD0582D5820215831582E033FC802890F7
:102393000335E025E0FF900334E033FE741F2FF58F
:1023A3008274033EF583E0FEA3E0FF7C007D03120D
:1023B3000826AC06AD07EC1201B3C004C005C00685
:1023C300C007900352120BB740000000D007D0069D
:1023D300D005D004124E8BC004C005C006C00790C0
:1023E3000340E0FCA3E0FDEC1201B3D003D002D024
:1023F30001D0001200BD1201EC900340EEF0A3EFF8
:10240300F0900335E004F07006900334E004F0022A
:10241300234B900340E0FEA3E0FF90031DE06E70AA
:1024230003A3E06F60030224E690031FA3E0FF9081
:10243300031AE0FBA3E0FAA3E0F9EF1207F290031B
:1024430021A3E0FF90031AE0FBA3E0FAA3E0F990D5
:102453000001EF120804900323A3E0900002120886
:1024630004900325A3E0900003120804900327A31C
:10247300E0900004120804900314E0FBA3E0FAA325
:10248300E0F99000051207C5FF90031AE0FBA3E0F3
:10249300FAA3E0F9900005EF120804900314E0FB9F
:1024A300A3E0FAA3E0F99000061207C5FF90031A10
:1024B300E0FBA3E0FAA3E0F9900006EF1208049012
:1024C3000314E0FBA3E0FAA3E0F99000071207C5A9
:1024D300FF90031AE0FBA3E0FAA3E0F9900007EFF3
:1024E300020804E4900334F0A3F0900334E0FEA365
:1024F300E0FFC39408EE64809480502490031AE0B4
:10250300FBA3E0FAA3E0F98F828E8374FF12080421
:10251300900335E004F070D2900334E004F080CAF5
:1025230022E517240FF582E43403F583E00517222F
:1025330090030C30070390030FE475F001120C179E
:102543000207AC2000E97F2ED2008018EF540F243D
:1025530090D43440D4FF30040BEF24BFB41A00509E
:10256300032461FFE51860021518051BE51B7002C3
:10257300051A30070E90030CE475F001120C17EFE7
:102583000207F20292DB7403D2078003E4C207F569
:102593001790030C120C45E4F518F51AF51BE51812
:1025A30060077F2012256780F57519FFC201C200FD
:1025B300C202C203C205C206C208122533FF700D50
:1025C3003007057F00122578AF1BAE1A22B4255FB2
:1025D300C2D5C204122533FF24D0B40A00501A75A1
:1025E300F00A781830D50508B6FF0106C6A426F60A
:1025F30020D5047002D20380D924CFB41A00EF503F
:1026030004C2E5D20402286AD20180C6D20080C087
:10261300D20280BCD2D580BAD20580B47F201225E5
:10262300672002077401B5180040F1122524FF1238
:1026330025670225A1D208D2068095122524FB1214
:102643002524FA122524F94A4B700679687A297BE6
:10265300FF20022EE518602A7E008E827583001209
:1026630007C560060EEE651970F0C2D5EBC0E0EA4F
:10267300C0E0E9C0E0EE1228CBD0E0F9D0E0FAD018
:10268300E0FB1207ACFF60AAEBC0E0EAC0E0E9C0E0
:10269300E0122567D0E02401F9D0E03400FAD0E05D
:1026A300FBE5190460DCD519D98087D20280A21218
:1026B30028AD60F7E519700104120417A919600D1C
:1026C300E519600914F519122955EF60F3EA30E7AB
:1026D30002F404C3995079EAF425190430E701E4BC
:1026E30004F519800D1228AD60C1EA0519251912E8
:1026F3000417EA90033BF030E701E4251904D519E8
:1027030004200501141228CBE4C0E01229559003DC
:102713003BE0601320E70714F012254F802204F0FA
:10272300D0E014C0E07F0012254FE51960071225A1
:10273300461519800B300503122546D0E00225A16A
:10274300D0E00480C41228AD609EE519041204177A
:1027530090033BEAF0E5192005026001042404120A
:1027630028CB74FF04C0E012295512254FE5192028
:1027730005026003122546D0E0B519E87F4512250E
:102783005990033BE07F2B30E7047F2DF404C0E036
:10279300122567D0E075F00A84C0F0122550D0E00E
:1027A3001225500225A1791080027908C206C208B9
:1027B3008008D2D5790A8004790AC2D5E519047054
:1027C30002F519E4FAFDFEFF122524FC7B08200123
:1027D30013122524FD7B1030000A122524FE122536
:1027E30024FF7B20EC3382D592D55013C3E4300011
:1027F300069FFFE49EFEE42001039DFDE49CFCE4B0
:10280300CBF8C201EC700CCFCECDCCE824F8F87035
:10281300F38017C3EF33FFEE33FEED33FDEC33FCF0
:10282300EB33FB994002FB0FD8E9EB300105F8D0FD
:10283300E0C448B201C0E00AEC4D4E4F78207B0063
:1028430070C2EAB5190040BCC0E01228CDD0F0D068
:10285300E0200104C4C0E0C4B201C0F0122550D08E
:10286300F0D5F0EB0225A1120C4E263E5327A958B2
:10287300260F4C260B4227AD4F27B54427B54926D3
:10288300244327BB5526E84627484526B2472988CF
:102893005026132D26172E263A2B261B23263820A7
:1028A30029712A25D34800002632E519B4FF0375A0
:1028B3001906122524FC122524FD122524FE1225B7
:1028C30024FF900334020454790AA2D52003143060
:1028D3000509B910020404B9080104A2D5200602AF
:1028E3005001042002689202B518005034C0E07F02
:1028F300203003197F30A20272067205500F12298D
:1029030024C202C206C205C2087F30800F3005030D
:10291300E9C0E0122567300503D0E0F9D0E0B5182F
:10292300CC3005177F30B9100C1225677F5830045F
:10293300077F788003B908031225673002057F2DCE
:102943000225677F202008F87F2B2006F3229202BE
:1029530080CF7F00B40700500B2434F582E43403A6
:10296300F583E0FF22286E756C6C2900D2011225D5
:10297300243001F8C201781830D50108F60225D3B6
:102983002D504349581225242403B405004001E483
:1029930090298393122558743A122558D203751837
:1029A300040227A99002C6EBF0A3EAF0A3E9F0A37F
:1029B300EDF0E49002EEF0A3F0A37405F0E4A3F0CD
:1029C3009002FC120BB700000000900300120BB73B
:1029D30000000000900304120BB7000000009003F6
:1029E30008120BB7000000007E007F0A7D007B0108
:1029F3007A0279D0120F3A7E007F0A7D007B017A3A
:102A03000279DA120F3AE49002EEF09002EEE0FF60
:102A1300C3940A7480948050479002CDE0FBA3E0F6
:102A2300FAA3E0F99002EEE0FEF582758300120747
:102A3300C5FD74D02EF582E43402F583EDF08F8268
:102A43007583001207C570109002EEE024D0F58262
:102A5300E43402F583740AF09002EEE004F080ABF4
:102A630090030F7401F0A37402F0A374FCF0A37439
:102A730001F0A37403F0A37400F09002CAE0FBA377
:102A8300E0FAA3E0F9125142E49002EFF09002EE73
:102A93007403F09002EEE0FFC3940D7480948050B1
:102AA300319002C6E0FBA3E0FAA3E0F98F827583BD
:102AB300001207C5FF9002EFE024DAF582E4340246
:102AC300F583EFF09002EFE004F09002EEE004F003
:102AD30080C1E49002EEF09002EEE0C3943B748078
:102AE30094804003022CB990030F7401F0A3740384
:102AF300F0A37404F0A37401F0A37403F0A37408A7
:102B0300F07B017A0279DA125142900300E0FCA3D0
:102B1300E0FDA3E0FEA3E0FF900308E0F8A3E0F9E3
:102B2300A3E0FAA3E0FBC3120B0E5044900304E0AE
:102B3300FCA3E0FDA3E0FEA3E0C39401FFEE940039
:102B4300FEED9400FDEC9400FC900304120BAB909B
:102B53000308E0FCA3E0FDA3E0FEA3E024A0FFEE56
:102B63003486FEED3401FDE43CFC900308120BAB0C
:102B73009002FCE0FCA3E0FDA3E0FEA3E0FF9003D2
:102B830004E0F8A3E0F9A3E0FAA3E0FBC3120B0E01
:102B93005021900304E0FCA3E0FDA3E0FEA3E024A6
:102BA300A0FFEE3486FEED3401FDE43CFC9003040B
:102BB300120BAB900304E0FCA3E0FDA3E0FEA3E053
:102BC300FF9002FCE0F8A3E0F9A3E0FAA3E0FBC363
:102BD300EF9BFFEE9AFEED99FDEC98FC9003041237
:102BE3000BAB900308E0FCA3E0FDA3E0FEA3E0FF32
:102BF300900300E0F8A3E0F9A3E0FAA3E0FBC3EF3E
:102C03009BFFEE9AFEED99FDEC98FC900308120BE6
:102C1300AB7E007F0A7D007B017A0279E4120F3AD2
:102C2300900308E0FCA3E0FDA3E0FEA3E0FF900314
:102C330010120BAB9003147401F0A37402F0A3748D
:102C4300E4F0A3E4F0A37405F0A3E4F0A37405F0A7
:102C5300900304E0FCA3E0FDA3E0FEA3E0FF125514
:102C6300FF7E007F0A7D007B017A0279DA120F3A38
:102C7300E49002EFF09002C9E0FF9002EFE0FEC3A0
:102C83009F502A74E42EF582E43402F583E0FF7446
:102C9300D02EF582E43402F583E024D9F582E434BE
:102CA30002F583EFF09002EFE004F080C89002EEAB
:102CB300E004F0022ADA7E007F0A7D007B017A02BB
:102CC30079E4120F3A9002DCE09002F1F07E007F8B
:102CD3000A7D007B017A0279F2120F3A9002F1E049
:102CE30075F006A424CBF9740535F0FA7B01C00313
:102CF30090030FEBF0A37402F0A374F2F0A3E4F0DB
:102D0300A37405F0D003126A5EE49002EEF0900221
:102D1300C9E0FF9002EEE0FEC39F5066EE640270CE
:102D23000D9002F1E0FF9002EEE024E48039E4909C
:102D330002EFF09002EFE0FFC3940A748094805096
:102D43003974F22FF582E43402F583E0FF9002EE4A
:102D5300E0FE24DAF582E43402F583E0B50713904C
:102D630002EFE0FF74E42EF582E43402F583EFF022
:102D730080089002EFE004F080B99002EEE004F0E6
:102D8300808C9002EE7402F09002C9E0FF9002EE94
:102D9300E0FEC39F502074E52EF582E43402F583F0
:102DA300E0FF74E42EF582E43402F583EFF0900241
:102DB300EEE004F080D29002F1E0FF9002C9E0FE61
:102DC30024E3F582E43402F583EFF0EEFF7E00782E
:102DD300BE7C057D017B017A0279E41207861281AC
:102DE3004CE49002EEF09002EEE0FFC3940A74808C
:102DF300948050257BFF7A9779B774BE2FF582E4D0
:102E03003405F583E0FF90030FE4F0A3EFF0122500
:102E13008F9002EEE004F080CD0280B7900284EF41
:102E2300F0A20192029002887403F01282B2300180
:102E3300030231AA900284E0FF25E02494F582E4A2
:102E43003496F583E493FC740193FD75F002EFA4CB
:102E53002498F582E5F03403F583ECF0A3EDF090CC
:102E63000284E0FE90967493FF900287F075F0025F
:102E7300EEA42498F582E5F03403F583E0FCA3E0A7
:102E8300FD128789900284E0FD75F002A424F9F510
:102E930082E5F03403F583EEF0A3EFF075F002ED75
:102EA300A424F9F582E5F03403F583E0FEA3E0FF03
:102EB300900285E0FCA3E0FDD3EF9DEE9C5003025E
:102EC3003095900284E0FF75F002A424F9F582E5C1
:102ED300F03403F583E0FCA3E0FD900285E0FAA360
:102EE300E0FBD3ED9BEC9A5003022FB1759107756C
:102EF300F002EFA42498F582E5F03403F583E0FEB5
:102F0300A3E0C394FFEE94014003022FB190028427
:102F1300E0FF75F002A42498F582E5F03403F5830D
:102F2300E475F0011208C375F002EFA42498F5824A
:102F3300E5F03403F583E0FCA3E0FD900287E0FFB6
:102F4300128789900284E0FD75F002A424F9F582CA
:102F5300E5F03403F583EEF0A3EFF075F002EDA492
:102F630024F9F582E5F03403F583E0FEA3E0FF7571
:102F7300F002EDA424B0F582E5F03403F583EEF01E
:102F8300A3EFF075F002EDA424F9F582E5F0340324
:102F9300F583E0FEA3E0FF75F002EDA424D4F582EF
:102FA300E5F03403F583EEF0A3EFF0022EC5E5CD93
:102FB300C454072409F9E47F01FEFDFCA801120BA8
:102FC30032EF24F6FBEE34FFFAED34FFF9EC34FF75
:102FD300F8900284E075F002A424F9F582E5F03458
:102FE30003F583E0FEA3E0FFE4FCFDD3120B0E40E8
:102FF30003023095900284E0FF75F002A42498F553
:1030030082E5F03403F583E475F0011208C375F02B
:1030130002EFA42498F582E5F03403F583E0FCA3E2
:10302300E0FD900287E0FF128789900284E0FD753E
:10303300F002A424F9F582E5F03403F583EEF0A35E
:10304300EFF075F002EDA424F9F582E5F03403F511
:1030530083E0FEA3E0FF75F002EDA424B0F582E562
:10306300F03403F583EEF0A3EFF075F002EDA42442
:10307300F9F582E5F03403F583E0FEA3E0FF75F094
:1030830002EDA424D4F582E5F03403F583EEF0A336
:10309300EFF0900284E075F002A424F9F582E5F0E4
:1030A3003403F583E0FEA3E0FF900285E0FCA3E098
:1030B300FDD3EF9DEE9C40030231AA900284E0FF12
:1030C30075F002A424F9F582E5F03403F583E0FCFE
:1030D300A3E0FD900285E0FAA3E0FBC3ED9BEC9A2D
:1030E30040030231AA75910775F002EFA42498F505
:1030F30082E5F03403F583E0FEA3E0D39400EE947D
:103103000050030231AA900284E0FF75F002A42468
:1031130098F582E5F03403F58374FFF5F01208C3E4
:1031230075F002EFA42498F582E5F03403F583E00B
:10313300FCA3E0FD900287E0FF128789900284E000
:10314300FD75F002A424F9F582E5F03403F583EE6E
:10315300F0A3EFF075F002EDA424F9F582E5F03465
:1031630003F583E0FEA3E0FF75F002EDA424B0F5C0
:1031730082E5F03403F583EEF0A3EFF075F002ED92
:10318300A424F9F582E5F03403F583E0FEA3E0FF20
:1031930075F002EDA424D4F582E5F03403F583EE53
:1031A300F0A3EFF00230BE227B007A007908900290
:1031B300EDE4F0A3740FF0E4FF9002E9EFF0A3EB6A
:1031C300F0A3EAF0A3E9F07F091295B19002E9E0D8
:1031D3001470030232BC24FE70030233891470039B
:1031E3000233E9240460030235219002F27401F0F2
:1031F300A37400F0A37400F0A37401F0A374F4F0BB
:10320300E4FF1295ABE4FF128D25E49002EFF0A3E7
:10321300F09002EDE0FEA3E0FFC39002F0E09F9088
:1032230002EFE09E5037E0FCA3E0FD9002EAE0FBF2
:10323300A3E0FAA3E0F98D828C831207C5FBE4FFB8
:103243001276A59002F1EFF070037F01229002F055
:10325300E004F070BC9002EFE004F080B4E490026C
:10326300EFF0A3F09002F5E0FEA3E0FFC39002F0BD
:10327300E09F9002EFE09E4003023524E0FEA3E0CE
:10328300FF2418FDE43EFC9002F2E0FBA3E0FAA366
:10329300E0F98F828E831207C5FBE4FF1276A590B7
:1032A30002F1EFF070037F01229002F0E004F0706E
:1032B300B39002EFE004F080AB9002F2E4F0A37469
:1032C30000F0A37408F0A3E4F0A3740FF0E4FF127A
:1032D30095ABE4FF128D25E49002EFF0A3F090028A
:1032E300F5E0FEA3E0FFC39002F0E09F9002EFE061
:1032F3009E5037E0FCA3E0FD9002F2E0FBA3E0FA6E
:10330300A3E0F98D828C831207C5FBE4FF1276A537
:103313009002F1EFF070037F01229002F0E004F0DD
:1033230070BC9002EFE004F080B4E49002EFF0A3ED
:10333300F09002EDE0FEA3E0FFC39002F0E09F9067
:1033430002EFE09E4003023524E0FEA3E0FF2418D1
:10335300FDE43EFC9002EAE0FBA3E0FAA3E0F98F70
:10336300828E831207C5FBE4FF1276A59002F1EF6C
:10337300F070037F01229002F0E004F070B390023A
:10338300EFE004F080AB7F011295AB7F01128D2536
:10339300E49002EFF0A3F09002EDE0FEA3E0FFC3A0
:1033A3009002F0E09F9002EFE09E4003023524E09C
:1033B300FCA3E0FD9002EAE0FBA3E0FAA3E0F98DB1
:1033C300828C831207C5FB7F011276A59002F1EF71
:1033D300F070037F01229002F0E004F070B99002D4
:1033E300EFE004F080B19002F2E4F0A37400F0A3E4
:1033F3007408F0A3E4F0A3740FF0A37401F0A374B2
:1034030000F0A37400F0A37401F0A374F4F0E4FFDC
:103413001295ABE4FF128D25E49002EFF0A3F09038
:1034230002F5E0FEA3E0FFC39002F0E09F9002EFFD
:10343300E09E5037E0FCA3E0FD9002F2E0FBA3E046
:10344300FAA3E0F98D828C831207C5FBE4FF1276A1
:10345300A59002F1EFF070037F01229002F0E004E7
:10346300F070BC9002EFE004F080B4E49002EFF05F
:10347300A3F09002FAE0FEA3E0FFC39002F0E09F06
:103483009002EFE09E503DE0FEA3E0FF2418FDE430
:103493003EFC9002F7E0FBA3E0FAA3E0F98F828EF3
:1034A300831207C5FBE4FF1276A59002F1EFF070DB
:1034B300037F01229002F0E004F070B69002EFE087
:1034C30004F080AEE49002EFF0A3F09002EDE0FE92
:1034D300A3E0FFC39002F0E09F9002EFE09E504113
:1034E300E0FEA3E0FF2414FDEE3402FC9002EAE0C8
:1034F300FBA3E0FAA3E0F98F828E831207C5FBE4F6
:10350300FF1276A59002F1EFF070037F0122900283
:10351300F0E004F070B59002EFE004F080AD7F01BD
:10352300227F00229002C6EBF0A3EAF0A3E9F09019
:1035330002CC120BB700000000124D169002C9E036
:10354300FBA3E0FAA3E0F9EE8FF01209749002D71F
:10355300740AF0A37401F0A37406F0A3745AF090F4
:1035630002C6E0FBA3E0FAA3E0F97D3C7C00124530
:10357300E07B017A06795A124D169002C9E0FBA34B
:10358300E0FAA3E0F9900002EE8FF01209939002A3
:10359300D7740AF0A37401F0A37406F0A3745AF06D
:1035A3007B017A06F97D3C7C001245E07B017A06BB
:1035B300795A7D0A12606F9002CC120BABE47BF850
:1035C3007A88F9F89002CCE0FCA3E0FDA3E0FEA327
:1035D300E0FF120A4B7802120B32EF24B2FFEE34F3
:1035E30007FE9002C9E0FBA3E0FAA3E0F990000A0A
:1035F300EE8FF01209939002CCE0FCA3E0FDA3E070
:10360300FEA3E0FFE47BF87A88F9F8120A4BAC00DA
:10361300AD01AE02AF030236B19002D07422F0A323
:103623007438F09002C9E0FBA3E0FAA3E0F990003C
:103633000A1208EF5403700E9002D1E02418F090A0
:1036430002D0E03400F09002D0E0FEA3E0FFEE33BE
:1036530095E0FDFC9002CCE0F8A3E0F9A3E0FAA327
:10366300E0FBC3120B0E404F9002C9E0FBA3E0FA4C
:10367300A3E0F990000AE475F0011209279002CC47
:10368300E0FCA3E0FDA3E0FEA3E0FFC006C007A3A8
:10369300E0FEA3E0FBAA06EA3395E0F9F8D007D0F1
:1036A30006C3EF9BFFEE9AFEED99FDEC98FC9002AA
:1036B300CC120BAB02361CE47B18FAF9F89002CC5F
:1036C300E0FCA3E0FDA3E0FEA3E0FF120A4BAE0281
:1036D300AF039002C9E0FBA3E0FAA3E0F990000472
:1036E300EE8FF01209939002CCE0FCA3E0FDA3E07F
:1036F300FEA3E0FFE47B18FAF9F8120A4B9002CC20
:10370300120BAB9002CCE0FCA3E0FDA3E0FEA3E030
:103713002401FFE43EFEE43DFDE43CFC9002CC12B8
:103723000BAB9002C9E0FBA3E0FAA3E0F990000A17
:103733001208EF540370767F3CFEFDFC9002CCE050
:10374300F8A3E0F9A3E0FAA3E0FBD3120B0E4024A5
:103753009002CCE0FCA3E0FDA3E0FEA3E024FFFF86
:10376300EE34FFFEED34FFFDEC34FFFC9002CC128F
:103773000BAB8039E47F3CFEFDFC9002CCE0F8A368
:10378300E0F9A3E0FAA3E0FBC3120B0E701F900253
:10379300C9E0FBA3E0FAA3E0F9900008E475F001A7
:1037A300120993900006E475F01D0238769002C961
:1037B300E0FBA3E0FAA3E0F9900008E4F5F01209B6
:1037C300939002C9E0FBA3E0FAA3E0F9900008128A
:1037D30008EF244EF582740635F0F583E0FF339548
:1037E300E0FEFDFC9002CCE0F8A3E0F9A3E0FAA32D
:1037F300E0FBD3120B0E40609002CCE0FCA3E0FD93
:10380300A3E0FEA3E0FFC0079002C9E0FBA3E0FA38
:10381300A3E0F99000081208EF244EF582740635F0
:10382300F0F583E0FB3395E0FAF9F8D007C3EF9B9B
:10383300FFEE9AFEED99FDEC98FC9002CC120BABD7
:103843009002C9E0FBA3E0FAA3E0F9900008E47555
:10385300F0011209270237C49002CCA3A3E0FEA310
:10386300E0FF9002C9E0FBA3E0FAA3E0F9900006B1
:10387300EE8FF012099322AB07EB25E024EBF582E0
:10388300E43496F583E493FF740193900288CFF0B8
:10389300A3EFF0EB25E024EBF582E43496F583E423
:1038A30093FC740193FD9096DBE493FF7E00120872
:1038B30026EEC4F854F0C868FEEFC4540F48FF90D6
:1038C300028AEEF0A3EFF075F002EBA424F9F5827F
:1038D300E5F03403F583E0FEA3E0FF75F002EBA40B
:1038E30024B0F582E5F03403F583E0FCA3E0C39F45
:1038F300FFEC9EFE900286F0A3EFF0C3EE6480948B
:10390300805003023A57A3E0FEA3E0FF900286E053
:10391300FCA3E0FD9FEE6480F8EC64809840107493
:10392300642BF582E43403F5837401F0023A2390A7
:10393300028AE0FEA3E0FFC3ED9FEE6480F8EC642F
:103943008098405874292BF582E43404F583E0040D
:10395300F0747C2BF582E43403F583E4F0741D2BBF
:10396300F582E43404F583E4F074702BF582E434D7
:1039730003F583E4F074292BF582E43404F583E042
:10398300FF90073AE0FEEFC39E5003023A237429E7
:103993002BF582E43404F583E4F0806E74292BF56F
:1039A30082E43404F583E4F0747C2BF582E434037D
:1039B300F583E004F0741D2BF582E43404F583E40D
:1039C300F074702BF582E43403F583E4F0747C2BFC
:1039D300F582E43403F583E0FF90073CE0FEEFC398
:1039E3009E403D747C2BF582E43403F583E4F0754B
:1039F300F002EBA424B0F582E5F03403F583E0FE96
:103A0300A3E0D39400EE9400401675F002EBA424D7
:103A1300B0F582E5F03403F58374FFF5F01208C3C3
:103A230090972DE493FE740193FFC3900289E09F66
:103A3300FF900288E09EFEC3900287E09F9002867B
:103A4300E09E4003023BC874642BF582E43403F523
:103A530083E4F02274642BF582E43403F583E4F009
:103A630090028AE0FEA3E0FFC3E49FFFE49EFEC34F
:103A7300900287E09FEE6480F8900286E06480986D
:103A8300406C74292BF582E43404F583E4F0747CF0
:103A93002BF582E43403F583E4F0741D2BF582E403
:103AA3003404F583E004F074702BF582E43403F5F9
:103AB30083E4F0741D2BF582E43404F583E0FF9076
:103AC3000739E0FEEFC39E5003023BC8741D2BF57C
:103AD30082E43404F583E4F075F002EBA424B0F53A
:103AE30082E5F03403F583E475F001023BC57429E4
:103AF3002BF582E43404F583E4F0747C2BF582E443
:103B03003403F583E4F0741D2BF582E43404F58368
:103B1300E4F074702BF582E43403F583E004F0746D
:103B2300702BF582E43403F583E0FF90073BE0FE5E
:103B3300EFC39E5003023BC874702BF582E4340339
:103B4300F583E4F0900289E025E0FD900288E033FC
:103B5300FCE0A2E713FEA3E0132DFFEE3CFEC3E45B
:103B63009FFFE49EFED3900287E09FEE6480F8906F
:103B73000286E0648098502975F002EBA424F9F5DD
:103B830082E5F03403F583E0FEA3E0FF75F002EB7A
:103B9300A424B0F582E5F03403F583EEF0A3EFF04F
:103BA3002290028AE0FEA3E0FF7C007D0512088DCF
:103BB30075F002EBA424B0F582E5F03403F583EE4F
:103BC3008FF01208C3229002E9EBF0A3EAF0A3E915
:103BD300F0E490030DF0A3F0A3F0A3F0A3F0A3F09F
:103BE300A3F0FE7F08FD7B017A0279F5120F3A7E7E
:103BF300007F087D007B017A0279FD120F3A7E0077
:103C03007F087D007B017A037905120F3A9002EF5A
:103C1300E0FBA3E0FAA3E0F9EA494B7003023E9507
:103C23001207ACF46003023D459000011207C5F48E
:103C33006003023D459000021207C5F46003023D94
:103C4300459000031207C5F46003023D459000044C
:103C53001207C5F46003023D459000051207C5F441
:103C63006003023D459000061207C5F46003023D60
:103C7300459000071207C5F46003023D451219E1A0
:103C83009002F5E0F9F4700690030DF0FF22900224
:103C9300F6E0FF7E007C037DE8120826AA06AB0748
:103CA300E9FF7E007C277D10120826EF2BFDEE3AFC
:103CB300FCA3E075F064A42DFDE5F03CFCA3E075E6
:103CC300F00AA42DFFE5F03CFEA3E07C002FFFECFF
:103CD3003EFE90030EF0A3EFF0C3900311E09FEEBE
:103CE3006480F8900310E06480984003023E8DE402
:103CF300900312F0A3F09002E9E0FBA3E0FAA3E043
:103D0300F9900312E0FEA3E0FFF5828E831207C54C
:103D130024D0FD74FD2FF58274023EF583EDF090FF
:103D23000313E004F07006900312E004F090031212
:103D3300E07004A3E0640870BD90030D7401F00209
:103D43003E8D9002ECE0F9A3E0FAA3E0900317C9DB
:103D5300F0A3EAF0A3E9F0A37401F0A37403F0A3C2
:103D63007405F09002EFE0FBA3E0FAA3E0F9121F61
:103D7300B8900305E0F47003023E961219E1900235
:103D8300F5E0F47003023E969002F6E0FF7E007CBD
:103D9300037DE8120826AA06AB079002F5E0FF7E32
:103DA300007C277D10120826EF2BFDEE3AFC9002D3
:103DB300F7E075F064A42DFDE5F03CFCA3E075F09D
:103DC3000AA42DFFE5F03CFEA3E07C002FFFEC3EB0
:103DD30090030EF0A3EFF0900306E0FF7E007C0358
:103DE3007DE8120826AA06AB07900305E0FF7E00D4
:103DF3007C277D10120826EF2BFDEE3AFC9003077B
:103E0300E075F064A42DFDE5F03CFCA3E075F00A39
:103E1300A42DFFE5F03CFEA3E07C002FFFEC3EFE6B
:103E2300900310F0A3EFF0D390030FE09FEE6480B4
:103E3300F890030EE06480984050E4900312F0A3DE
:103E4300F09002E9E0FBA3E0FAA3E0F9900312E0AB
:103E5300FEA3E0FFF5828E831207C524D0FD74FD17
:103E63002FF58274023EF583EDF0900313E004F026
:103E73007006900312E004F0900312E07004A3E0D4
:103E8300640870BD90030D7401F07E007F087D000F
:103E93008009E490030DF0FE7F08FD9002F2E0FB41
:103EA300A3E0FAA3E0F9120F3A9002F2E0FBA3E0D9
:103EB300FAA3E0F8AC02AD037B017A0279FD7E0040
:103EC3007F0812078690030DE0FF22C10AC10CC1CF
:103ED3000BC10941043500420725000041072700B3
:103EE3004106F900410710004106FA005406FC00A0
:103EF30000000000000000000000000000000000BF
:103F03000000004106FB004207440000410746FF52
:103F130041074703011C00011E00011D00011F0092
:103F230041060D0041060CFF0123FF0122FF41065C
:103F33000800410607004106090041060A00410640
:103F43000B0041060600609404E0022300032700EF
:103F53000423000725000826000A27000D23000F6D
:103F630025000824001627001E27002023001F27F2
:103F7300002823002B24002C24002D24005142521E
:103F830043250051465249250051445245250051CD
:103F93004852472500514A524B250051335234535E
:103FA3003525005136523853392500513A523C5386
:103FB3003D2500513E524053412500062700514202
:103FC3002500513052312500513A523C25005130E1
:103FD3005232533354345535565D576125004104ED
:103FE300D9004204D000004204D200004204DB00A6
:103FF300004104CF004104DA004104DD00410436EE
:10400300004104DE004104DF004204CD000043040C
:10401300D60000006082044B01030000000107008A
:10402300000001080000000109000000010BFF95DA
:1040330032010CFF8F04010CFF8F1D019EFF8D7C4D
:10404300010A0000000A04FF8C4C02080000000271
:1040530009000000020BFF9532030DFF8D42030F91
:10406300FF94730310FF950A0747FF8D5F0749FF0E
:104073009480074AFF95280882FF948D096A0000FF
:104083000009840000006A69FF8EA06A68FF8EB988
:10409300846FFF8ED28470FF8EEB5E06DB01E60237
:1040A300B303BB05C307CB0895099B0ADA06E06A8D
:1040B300A76AA783A184AD9FFFFFFF4C06AC000056
:1040C300000000000000000000004107410042071B
:1040D3004200004101F4FF4107290041073000423B
:1040E300072E000044072A9607999B4107280042A0
:1040F300073F000041073D0041073E004A065AFFC3
:104103000000000000000000004C064E1F1C1F1E94
:104113001F1E1F1F1E1F1E1F603006640000001F8E
:10412300003B005A0078009700B500D400F301115A
:104133000130014E0000001F003C005B0079009835
:1041430000B600D500F401120131014F007B01E4F8
:10415300FD9002CEEBF0A3EAF0A3E9F0A3EDF0E4C7
:104163009002D6F0A3F0A3F0A37403F0A374E8F0D5
:10417300EDD394007480948050030242ACC2AFE448
:104183009002D6F09002D1E0FF9002D6E0FEC39FEA
:1041930050219002CEE0FBA3E0FAA3E0F98E8275F2
:1041A30083001207C5FDE4FF128AE39002D6E00400
:1041B300F080D19002D974FFF5F01208C345F07076
:1041C300030242A77F017E00128B2F900727E0C3D3
:1041D30094027480948040DBE49002D6F090072729
:1041E300E0FF9002D6E0FEC39F506274112EF58269
:1041F300E43407F583E0FD644B6022ED6449601D00
:10420300ED64426018ED64466013ED6452600EED98
:10421300644D6009ED644A6004EDB47128EDB44A5D
:10422300079002D8EEF08025EEFDC3EF9DFFE494E6
:1042330000FEC3EF9402EE6480948040089002D69F
:10424300E09002D8F09002D6E004F080909002D87B
:10425300E09002D6F0900727E0FF9002D6E0FEC37D
:104263009F400302439974112EF582E43407F583CA
:10427300E0FF9002D2E0FBA3E0FAA3E0F99002D7BB
:10428300E0FEF582758300EF1208049002D5E01476
:104293006E70030243999002D7E004F09002D6E0D7
:1042A30004F080B1D2AF0243A4C2AF9002D974FF2D
:1042B300F5F01208C345F070030243A27F017E00AC
:1042C300128B2F900727E0C394027480948040DB05
:1042D300E49002D6F0900727E0FF9002D6E0FEC3F9
:1042E3009F506274112EF582E43407F583E0FD6478
:1042F3004B6022ED6449601DED64426018ED644635
:104303006013ED6452600EED644D6009ED644A6024
:1043130004EDB47128EDB44A079002D8EEF080257D
:10432300EEFDC3EF9DFFE49400FEC3EF9402EE6441
:1043330080948040089002D6E09002D8F09002D694
:10434300E004F080909002D8E09002D6F090072726
:10435300E0FF9002D6E0FEC39F503B74112EF5821E
:10436300E43407F583E0FF9002D2E0FBA3E0FAA375
:10437300E0F99002D7E0FEF582758300EF1208049E
:104383009002D5E0146E600E9002D7E004F0900224
:10439300D6E004F080B7E4900727F0D2AFFF22D233
:1043A300AF7F00229002C6EBF0A3EAF0A3E9F0A3EB
:1043B300EDF0E4A3F0A3F09002D6F0A374FFF0E4D1
:1043C3009002CAF09002CAE0FFC3946474809480A0
:1043D30040030244BD75F005EFA42404F582E5F023
:1043E3003400F583E0F470030244B47E007F087D5B
:1043F300FF7B017A0279CE120F3A9002CAE075F080
:1044030005A42400F9740035F0FA7B01C00390027F
:10441300ECEBF0A37402F0A374CEF0D0031271C7D7
:104423009002D6EFF0E49002CCF09002D6E0FF9039
:1044330002CCE02FFFE433FE9002C9E0FDD3EF9DF1
:104443007480F86E98505EE49002CDF09002D6E04E
:10445300FF9002CDE0FEC39F5037EEFF9002CCE009
:104463002FFFE433FE9002C6E0FBA3E0FAA3E0F9DA
:104473008F828E831207C5FF9002CDE024CEF58292
:10448300E43402F583E0B507089002CDE004F08040
:10449300BB9002D6E0FF9002CDE06F60089002CCA3
:1044A300E004F080859002D6E0FF9002CDE06F60DB
:1044B300099002CAE004F00243C79002CAE0C39421
:1044C30064748094805007E0FF9001F4F022E4903C
:1044D30002E8F0FE7F087DFF7B017A0279D8120F94
:1044E3003A9002EC7401F0A37402F0A374D8F07B49
:1044F300017A0079001271C79002D6EFF0E49002BE
:10450300CAF09002CAE0FFC3940874809480507587
:1045130074D82FF582E43402F583E0F49002CA7074
:104523000EE024D8F582E43402F583E4F0800EE053
:1045330024D8F582E43402F583E02430F09002C6F7
:10454300E0FBA3E0FAA3E0F99002CAE0FFF582756D
:1045530083001207C5FEF4700E74CE2FF582E43487
:1045630002F583E4F080159002CAE0FFEE2430FEEA
:1045730074CE2FF582E43402F583EEF09002CAE0A4
:1045830004F00245059002EC7401F0A37402F0A359
:1045930074D8F0A3E4F0A37400F0A3740FF0A37431
:1045A30001F0A37402F0A374E0F07B017A0279CEE8
:1045B300123BC99002E8EFF0D394007480948040DA
:1045C30019780F7C007D007B017A0279E07E007F01
:1045D300081207861231AB7FFE227FFF229002D2A0
:1045E300EBF0A3EAF0A3E9F0A3ECF0A3EDF0900263
:1045F300DD120BB7000000009002E1120BB70000C0
:1046030000009002EF740AF0E49002DBF09002D70E
:10461300E0FF9002DBE0FEC39F50289002D2E0FB54
:10462300A3E0FAA3E0F98E827583001207C5F47044
:104633000A9002DBE09002EFF080089002DBE004D6
:10464300F080CA7E007F0A7DFF7B017A0279E51242
:104653000F3AE49002DCF09002DBF09002EFE0FF0F
:104663009002DBE0C39F400302476E9002D2E0FB5F
:10467300A3E0FAA3E0F99002DBE0F5827583001270
:1046830007C5FFE4FCFDFEC004C005C006C0077FEC
:104693000A9002E1E0F8A3E0F9A3E0FAA3E0FB1239
:1046A30009C0D003D002D001D000EF2BFFEE3AFEB9
:1046B300ED39FDEC38FCC006C0079002D5E0FEA33F
:1046C300E0FBAA06E4F9F8D007D006120A4B9002E1
:1046D300DD120BAB9002D2E0FBA3E0FAA3E0F9906A
:1046E30002DBE0F5827583001207C5FFE4FCFDFEE3
:1046F300C004C005C006C0077F0A9002E1E0F8A32A
:10470300E0F9A3E0FAA3E0FB1209C0D003D002D082
:1047130001D000EF2BFFEE3AFEED39FDEC38FCC083
:1047230006C0079002D5E0FEA3E0FBAA06E4F9F871
:10473300D007D006120A4BAC00AD01AE02AF039016
:1047430002E1120BAB9002DDA3A3A3E0FF9002DC16
:10475300E024E5F582E43402F583EFF09002DCE037
:1047630004F09002DBE004F002465EE49002DBF02A
:104773009002D7E0FF9002DBE0FEC39F501574E583
:104783002EF582E43402F583E070089002DBE00446
:10479300F080DDE49002DCF09002D7E0FF9002DCD1
:1047A300E0FEC39F50529002DBE0FDC39F5028748C
:1047B300E52DF582E43402F583E0FF9002D8E0FBB7
:1047C300A3E0FAA3E0F98E82758300EF1208049048
:1047D30002DBE004F080199002D8E0FBA3E0FAA327
:1047E300E0F99002DCE0F58275830074FF1208049F
:1047F3009002DCE004F080A07F0022AB07EBC394BF
:104803002074809480500AE47F01FEFDFCA803809D
:104813000BE47F01FEFDFCEB24E0F9F8120B329070
:104823000282120BABEBC39420748094805003027A
:1048330048F6759651900282A3A3A3E0FFEF429737
:10484300759652900282E0FCA3E0FDA3E0FEA3E094
:10485300FF7808120B1FEF4297EBC39424748094E4
:1048630080500E900282A3A3A3E0540FFFEF42EA0D
:1048730022EBC3942674809480501B900282E0FC48
:10488300A3E0FDA3E0FEA3E0FF7804120B1FEF54A7
:1048930003FFEF42EB22EBFFC3942C748094805010
:1048A30037EF642A6005EF642B7012900282E0FCFC
:1048B300A3E0FDA3E0FEA3E0FF7804801090028252
:1048C300E0FCA3E0FDA3E0FEA3E0FF7806120B1FCC
:1048D300EF54CFFFEF42EC22900282E0FCA3E0FD15
:1048E300A3E0FEA3E0FF780C120B1FEF540FFFEFC2
:1048F30042EE22759626900282A3A3A3E0FFEF4225
:1049030097759627900282E0FCA3E0FDA3E0FEA347
:10491300E0FF7808120B1FEF540FFFEF42977596D5
:1049230028900282E0FCA3E0FDA3E0FEA3E0FF7871
:1049330010120B1FEF4297759629900282E0FCA399
:10494300E0FDA3E0FEA3E0FF7818120B1FAB07EB1B
:104953004297900282E0FCA3E0FDA3E0FEA3E0FF08
:104963007802120B32EF54FCFFEF42EB900282E02D
:10497300FCA3E0FDA3E0FEA3E0FF7802120B1FEF10
:104983005430FFEF42EC900282E0FCA3E0FDA3E091
:10499300FEA3E0FF7804120B1FEF54F0FFEF42EE8B
:1049A300900282E0FCA3E0FDA3E0FEA3E0FF780C0D
:1049B300120B1FEF54F0FFEF42EF900282E0FCA3D3
:1049C300E0FDA3E0FEA3E0FF7814120B1FEF540FEA
:1049D300FFEF42F2EB42F722900284EFF0E4A3F000
:1049E300A3F012962FA3EFF06470700B1296357F2D
:1049F3002F1286B102943A900287E0646070057FBB
:104A03000112962C900287E0FF7E006401600DEF97
:104A130064326008EF64336003024B9DEF64544ECD
:104A2300700B1295D5EF64076003024B9D12963508
:104A33001292C9EF640170087F2E1286B10295FFAE
:104A4300900287E06454703790060CE0FF127EDC1E
:104A5300900285EFF06003024B9D90060CE070031B
:104A6300024B30128CCC900285EFF0700A7D017FEF
:104A730007128382024B817FD31286B1024B817B63
:104A8300017A027986128603900285EFF0600302B1
:104A93004B13900287E0640170057F04025A339040
:104AA3000287E0643270057F19024B9A900287E017
:104AB30064336003024B9D90060CE0FF127EDC9092
:104AC3000285EFF0704590060CE07002805F128C57
:104AD300CC900285EFF0702CA3E0FF12787D90025A
:104AE30085EFF07015A3E09001F4F07F051286B115
:104AF3009001F4E0FF1293B080057F6E1286B1122D
:104B0300951E80057FD31286B180737F7A024B9AFC
:104B1300900287E06432707090060CE0FF127EDC36
:104B2300900285EFF0705D90060CE0700C7F181218
:104B330086B190060C7401F022128CCC900285EFA2
:104B4300F07036FF12927D900285EFF0700F7F05B3
:104B53001286B19001F4E0FF1293A080057F6E12DC
:104B630086B1900746E06401700A74FFF07F01127A
:104B7300962C800A12951480057FD31286B1E49097
:104B8300060CF0227F7A800F900287E064017005A3
:104B93007F0402844B7F801286B122EFB40700406A
:104BA30003024D15904BAEF8282873024BC3024BFA
:104BB300EA024C10024C5B024CA9024CCC024CEFB3
:104BC300EB7009ED42EA759617024C64EB640170D1
:104BD30009ED42EA759617024D08EB640260030281
:104BE3004D15EDF452EA22EB7008ED42EB75961881
:104BF300806FEB64017009ED42EB759618024D0866
:104C0300EB64026003024D15EDF452EB22EB7008E6
:104C1300ED42EC7596198049EB64017009ED42ECA5
:104C2300759619024D08EB64027015EDF452ECED24
:104C330054307003024D15759625C4540F024CF978
:104C4300EB64036003024D15EDF452EC759625ED0C
:104C53005430C4540F429722EB700AED42EE75961E
:104C63001BED024CF9EB64017009ED42EE75961BE6
:104C7300024D08EB64027015EDF452EEED54307002
:104C830003024D157596251313543F8069EB640396
:104C93006003024D15EDF452EE759625ED54301375
:104CA30013543F429722EB7009ED42EF75961CEDCA
:104CB3008044EB64017008ED42EF75961C8046EB6F
:104CC3006402704EEDF452EF22EB7009ED42F2757F
:104CD300961DED8021EB64017008ED42F275961D7F
:104CE3008023EB6402702BEDF452F222EB700BED98
:104CF30042F775961EEDF4529722EB6401700AEDAC
:104D030042F775961EED429722EB64027004EDF4B0
:104D130052F7229002D7740AF07D3C7C009002D2B5
:104D2300EBF0A3EAF0A3E9F0A3ECF0A3EDF090021B
:104D3300D9120BB7000000009002DD120BB7000080
:104D430000009002E1740AF0E49002D8F09002D7D8
:104D5300E0FFA3E0FEC39F50289002D2E0FBA3E054
:104D6300FAA3E0F98E827583001207C5F4700A90E6
:104D730002D8E09002E1F080089002D8E004F080CD
:104D8300CCE49002D8F09002E1E0FF9002D8E0C3B7
:104D93009F4003024E7C9002D2E0FBA3E0FAA3E023
:104DA300F99002D8E0F5827583001207C5FFE4FC91
:104DB300FDFEC004C005C006C0077F0A9002DDE007
:104DC300F8A3E0F9A3E0FAA3E0FB1209C0D003D0F3
:104DD30002D001D000EF2BFFEE3AFEED39FDEC38A7
:104DE300FCC006C0079002D5E0FEA3E0FBAA06E4E0
:104DF300F9F8D007D006120A4B9002D9120BAB90E8
:104E030002D2E0FBA3E0FAA3E0F99002D8E0F58236
:104E13007583001207C5FFE4FCFDFEC004C005C096
:104E230006C0077F0A9002DDE0F8A3E0F9A3E0FAE9
:104E3300A3E0FB1209C0D003D002D001D000EF2BB6
:104E4300FFEE3AFEED39FDEC38FCC006C0079002D8
:104E5300D5E0FEA3E0FBAA06E4F9F8D007D00612DA
:104E63000A4BAC00AD01AE02AF039002DD120BABF7
:104E73009002D8E004F0024D899002DDE0FCA3E04B
:104E8300FDA3E0FEA3E0FF2290034E120BABE4FF71
:104E9300FE7D807C3F90034EE0F8A3E0F9A3E0FAA7
:104EA300A3E0FB12038D700690034E024FE59003BF
:104EB3004EE0FCA3E0FDA3E0FEA3E0FF12026DFBC6
:104EC300A3E0FCA3E0FDA3E0FEA3E0FF12026DFF5D
:104ED300B40108E4FFFE7D807C3F22EF6404602977
:104EE300EB64046024EBB40130E4FFFEFDFC9003AB
:104EF30052E0F8A3E0F9A3E0FAA3E0FB12038D600C
:104F0300084006E4FFFEFDFC22900352120BB7FF9C
:104F1300FFFFFF900352024FE5E4900356F0A3F026
:104F2300FFFEFDFC90034EE0F8A3E0F9A3E0FAA333
:104F3300E0FB12038D505F900352E0FCA3E0FDA35E
:104F4300E0FEA3E0FF1201EC900356EEF0A3EFF0B6
:104F5300FDCCEECCEC1201B3C8ECC8C9EDC9CAEE66
:104F6300CACBEFCB900352E0FCA3E0FDA3E0FEA38A
:104F7300E0FF1200B9E4FBFAF9F812038D708A908E
:104F8300034EE0FCA3E0FDA3E0FEA3E0FF12040652
:104F930090034E120BAB90034EE0FCA3E0FDA3E0A5
:104FA300FEA3E0FF12550A900352E0F8A3E0F9A331
:104FB300E0FAA3E0FB120287126C6F900352120B0C
:104FC300AB900357E030E017900352E0FCA3E0FD01
:104FD300A3E0FEA3E0FF120406900352120BAB9072
:104FE3000352E0FCA3E0FDA3E0FEA3E0FF22900256
:104FF300C5EBF0A3EAF0A3E9F0EF14606624FE70BA
:10500300030250BF1470030250EA240460030251E8
:1050130041E4FF1295ABE49002CAF0A3F09002C8FA
:10502300E0FEA3E0FFA3E0FCA3E0FDC39FEC9E40F2
:1050330003025141E4FF128C8D9002C5E0FBA3E013
:10504300FAA3E0F99002CAE0FCA3E0F5828C83EFB7
:105053001208049002CBE004F070C29002CAE0048C
:10506300F080BAE4FF1295ABE49002CAF0A3F0908B
:1050730002C8E0FEA3E0FFA3E0FCA3E0FDC39FECB6
:105083009E4003025141ED2418FDE43CFCE4FF1271
:105093008C8D9002C5E0FBA3E0FAA3E0F99002CA6D
:1050A300E0FCA3E0F5828C83EF1208049002CBE0CE
:1050B30004F070BB9002CAE004F080B37F01129544
:1050C300AB9002C5E0FBA3E0FAA3E0F9E49002D0C1
:1050D300F0A3F09002C8E0FFA3E09002D2CFF0A3C8
:1050E300EFF07D010270BFE4FF1295ABE49002CABA
:1050F300F0A3F09002C8E0FEA3E0FFA3E0FCA3E06E
:10510300FDC39FEC9E5037ED2414FDEC3402FCE408
:10511300FF128C8D9002C5E0FBA3E0FAA3E0F990A7
:1051230002CAE0FCA3E0F5828C83EF12080490022C
:10513300CBE004F070BD9002CAE004F080B5229089
:10514300030CEBF0A3EAF0A3E9F0A3E0FBA3E0FA7E
:10515300A3E0F9120BE800000000900312E0FBA3A8
:10516300E0FAA3E0F9120BE800000000E490031555
:10517300F0A3F090030CE0FBA3E0FAA3E0F99003A3
:1051830015E0FEA3E0F5828E831207C5FFE4FCFD64
:10519300FEC004C005C006C00790030FE0FBA3E0F8
:1051A300FAA3E0F9120B45E47B0AFAF9F81209C0F5
:1051B300D003D002D001D000EF2BFFEE3AFEED3941
:1051C300FDEC38FC90030FE0FBA3E0FAA3E0F91237
:1051D3000B65900316E004F07006900315E004F0ED
:1051E300900315E07004A3E064057087900315E451
:1051F300F0A37405F090030CE0FBA3E0FAA3E0F93D
:10520300900315E0FEA3E0F5828E831207C5FFE449
:10521300FCFDFEC004C005C006C007900312E0FBFE
:10522300A3E0FAA3E0F9120B45E47B0AFAF9F812BA
:1052330009C0D003D002D001D000EF2BFFEE3AFE1D
:10524300ED39FDEC38FC900312E0FBA3E0FAA3E098
:10525300F9120B65900316E004F07006900315E055
:1052630004F0900315E07004A3E0640A70877F00E4
:10527300229002C874FFF078CB7C027D01FB7A9800
:10528300790C7E007F031207869002C97442F0A353
:105293007464F07B017A0279C97D02127FD17F2C7D
:1052A3007E01128B2F9002D27401F0A37402F0A33B
:1052B30074CBF0A37403F07B017A0279C9E4FD1285
:1052C30041549002CBE064427047A3E024BB6015D5
:1052D30014602924F9601624FB602324066003026A
:1052E30053A27FFF227F081286B17FFF22900746D9
:1052F3007401F07F621286B17F12800F8075900770
:10530300467401F07F171286B17F3212962C025336
:10531300A29002CBE0FF644D600AEF64466005EFA4
:10532300645270789002CDE0FB9002CC7005E024CB
:10533300D0800CE024D075F00AA4FFEB24D02F908A
:1053430001F4F09002CBE024BA602824F46028240E
:1053530005704C9001F4E0FF7D01127C449002C87B
:10536300EFF070317F051286B19001F4E0FF1293E4
:1053730090802C7F0880209001F4E0FF12787D90CC
:1053830002C8EFF0700F7F051286B19001F4E0FFC1
:105393001293B0800A7F6E1286B180037F01227F51
:1053A300002212962F90035DEFF09004DE7401F05B
:1053B3009004CFE0640170309004D3E004F07006F1
:1053C3009004D2E004F09004DBE0FEA3E0FFC3907E
:1053D30004D3E09F9004D2E09E400D9004CF74026A
:1053E300F0E49004D2F0A3F09004DAE06401701BBF
:1053F3009004DDE004F0E0C3940A74809480400BD1
:105403009004DA7402F0E49004DDF09004DFE0D35A
:10541300940074809480402A9004CEE004F07006D7
:105423009004CDE004F09004CDE0FEA3E0FFE4FCA3
:10543300FD7B587A02F9F8D3120AF85005E4900478
:10544300DFF012806BEF70030254CE90035DE0FF38
:1054530064616077EF646060729004CFE064016020
:105463006A128DD1EF7064129291EF705E90035EB9
:10547300F09004D1E004F070069004D0E004F090C2
:10548300035DE0FF64126014EF6413600FEF644187
:10549300600AEF64326005EF64337011D39004D176
:1054A300E094C89004D0E094004017800FD3900498
:1054B300D1E094649004D0E09400400690035E74BD
:1054C30001F090035EE0600A0281DCE49004D0F016
:1054D300A3F0223E9248DA3ECCCCCD3F2AAAAB4081
:1054E3000000003F8000003F9837F03FB504F33FD2
:1054F300D744FC3E3172173EB172173F0515913EFA
:10550300DE5BD9D2008002C200EDD2E7F8CD33ECE6
:105513003304700BBD800592D5020262020258402B
:10552300FBD31460F2F5F07C3FEE7A00C39496C887
:10553300948B40230AC89469C8941A401A0AC894E1
:1055430068C8941F40110AC8945AC8942540080596
:10555300F07A00CDC2E7CDC0F0900358120BABEA4E
:105563002323C0E024E6F582E43454F583120B9B35
:105573001200BDECC0E0EDC0E0EEC0E0EFC0E01211
:105583000B7F900358120B8F1200B9D0E0FBD0E0D1
:10559300FAD0E0F9D0E0B2E7F812055C90035812B4
:1055A3000BAB9054D67403120669900358120B8FF9
:1055B300120287D0E0600F24F2F582E43454F583BD
:1055C300120B9B1200BD900358120BABD0E0C39497
:1055D3007FFDE49400FC1201B37B187A7279317871
:1055E3003F120287900358120B8F1200BD30000B3D
:1055F3007BD97A5B79DE783E12028722E490031B23
:10560300F0A3120BAB900310E0FCA3E0FDA3E0FEBC
:10561300A3E0FF900320120BABE490031BF0900375
:105623001BE0C39405748094805068E47B0AFAF904
:10563300F8A3E0FCA3E0FDA3E0FEA3E0FF120A4B06
:10564300AF0390031BE0FDC3900318E09DFD90039F
:1056530017E09400CD24FFCD34FFFC900314E0FB4E
:10566300A3E0FAA3E0F98D828C83EF120804900380
:105673001CE0FCA3E0FDA3E0FEA3E0FFE47B0AFA49
:10568300F9F8120A4B90031C120BAB90031BE004B6
:10569300F0808BE490031BF090031BE0C39405742C
:1056A3008094805079E47B0AFAF9F8900320E0FCB7
:1056B300A3E0FDA3E0FEA3E0FF120A4BAF039003B8
:1056C30019E0FCA3E0FD900318E02DFD900317E023
:1056D3003CFC90031BE0FBC3ED9BFDEC9400CD244D
:1056E300FFCD34FFFC900314E0FBA3E0FAA3E0F941
:1056F3008D828C83EF120804900320E0FCA3E0FD6D
:10570300A3E0FEA3E0FFE47B0AFAF9F8120A4B9048
:105713000320120BAB90031BE004F002569B7F00A7
:1057230022E4FEEEC39F4003025837E4FCECC39E21
:1057330040030257E3ED75F00AA42474F582E434C0
:1057430005F583E5822CF582E43583F583E0FBEDF3
:1057530075F00AA42474F582E43405F583E5822EFA
:10576300F582E43583F583E0F96B7057ED75F00A44
:10577300A42474F582E43405F583E5822EF582E4EE
:105783003583F583E004F0ED75F00AA42474F58203
:10579300E43405F583E5822EF582E43583F583E071
:1057A300640A701AED75F00AA42474F582E43405D2
:1057B300F583E5822EF582E43583F583E4F0E4FC9A
:1057C300025730ED700A74992EF582E4340580088F
:1057D30074B42EF582E43405F583E9F00C025730F6
:1057E300EE704DED7024ED75F00AA42474F582E497
:1057F3003405F583E5822EF582E43583F583E0FCF9
:1058030074992EF582E434058022ED75F00AA42400
:1058130074F582E43405F583E5822EF582E435835D
:10582300F583E0FC74B42EF582E43405F583ECF0E3
:105833000E0257267F00229002C6EBF0A3EAF0A3E4
:10584300E9F0E4A3F0A3F0A3F0A3F0A3F0A3F0A383
:10585300F09002C6E0FBA3E0FAA3E0F99000011286
:1058630007C575F00AA4FDACF09002C6A3A3120706
:10587300AC75F064A42DFFE5F03CFE900002120726
:10588300C57C002FFFEC3E9002CCF0A3EFF090021A
:10589300C6A3A39000011207C575F00AA4FDACF0DE
:1058A3009002C6A3A39000021207C575F064A42D4D
:1058B300FFE5F03CFE1207AC7C002FFFEC3E9002AC
:1058C300CEF0A3EFF0E4FBEBFF7E00C3940A7480F9
:1058D30094805053C3740A9FFDE49EFC9002CCE075
:1058E300FEA3E0FF120838AF059002CAEFF0FAEB0F
:1058F300FFC3740A9FFDE49400FC9002CEE0FEA374
:10590300E0FF120838AF059002CBEFF074742BF56B
:1059130082E43405F583EAF0747E2BF582E43405E2
:10592300F583EFF00B80A0E4FD7F0A1257247D017D
:105933007F0A1257247F00227B007A0079089002A5
:10594300C8E4F0A3740FF0E4FF124FF1AF08EF6463
:10595300016005EF64027076E4900281F07B017AC6
:105963000079009002C804F0A374F4F07F01124F91
:10597300F17B017A0179F59002C8E4F0A3748CF00D
:105983007F03124FF1D3E50B94007480948050038E
:10599300025A32900281E0FFFD7C00C3946474805C
:1059A3009480501A75F005EFA42404F582E5F034D1
:1059B30000F583E06008900281E004F080D5C3ED38
:1059C3009464EC648094804066E4F50B80567E0119
:1059D3007FF47DFF7B017A007900120F3A7B017A15
:1059E3000079009002ED7401F0A374F4F07F0112CA
:1059F30031BC7E007F8C7DFF7B017A0179F5120F2C
:105A03003A7B017A0179F59002EDE4F0A3748CF00E
:105A13007F031231BC750801750901E4F50AF50B22
:105A2300F50CF50DFB7A0079089002ED1231B522E1
:105A33009002C6EFF0129653EF6401702F9002C6E6
:105A4300E0FF54107026EF640860217F081286B1CE
:105A53009002C6E024FE600E24FE600D2403600362
:105A6300025B280295F30295F90295FFE49004DFA7
:105A7300F0129647EF640170319002C6E0FFFD64B7
:105A8300086027EF54107022EDF4FFE4F4FE900455
:105A9300D9E0FDFBEF5B6004E4F0800E9002C6E00A
:105AA3004D9004D9F07F4B0286B17F5212962C128F
:105AB30096567BFF7A92792B7F037E0012826B903E
:105AC30002C6E014602324FD602924FC602F24F621
