:1000000002384802008EE4FF02555F024E5BE4FFB7
:10001000025669020096E4FF025742024FCBE4F514
:10002000C9C20053F1DF900418E0FEA3E0F5CA5303
:10003000CC7FEE5401C313E41342CC53CCC0905E8A
:10004000A0E493543F42CC75C9012202009EE4FF14
:10005000025765020086125E7FE490055BF07F61C7
:10006000025E17025DF353E1DF323202007253E1A8
:10007000F73232024D57125E8E7F2A1250787F017E
:0A008000025E17025E4D53F1F732E5
:07008B00024E995388FD327B
:0700930002006E5388F732F2
:07009B0002006A53F1FB3281
:0700A30002006653E1BF32C9
:0700AB000200A653E17F32C1
:1000B3000200AEEC4D6011E8497017ED33EC3304E8
:1000C300600DE4FCFFFEFD22E933E8330470F8021F
:1000D30002A812027358046009E4CC248150062854
:1000E30050090202B22840030202AFC0E0EB4A709B
:1000F30044B98006D0E0FB02029EEF4E701CBD8027
:1001030008EBFFEAFEE9FD80EBE98DF0A4FEE5F0E4
:1001130002019FE9CDF9EAFEEBFFEF89F0A4FCE5CC
:10012300F0CE89F0A42EFFE435F0CD89F0A42DFEA6
:10013300E435F08067EF4E7005BD80D780C3EF8B49
:10014300F0A4ACF0EE8BF0A42CFCE435F0F8EF8ACD
:10015300F0A42CE5F038FCE433CB8DF0A42CFCE5C3
:10016300F03BF8EE8AF0A42CFCE5F038F8E433CF4A
:1001730089F0A42CFCE5F038CF3400CE89F0A42F0D
:10018300FFE5F03EFEE433C98DF0A42EFEE5F03921
:10019300CD8AF0A42FFFE5F03EFEE43DFD33D0E031
:1001A300FB50070BBB000F0202B2EC2CFCEF33FF3A
:1001B300EE33FEED33FD02028A74F8CC6480CCC8C2
:1001C3006480C8F58204604FC3EB9FF5F0EA9E425A
:1001D300F0E99D42F0E89C45F0603C501DE5825FEC
:1001E300FFE582D313CB5BCBF42B5582FB50280A5C
:1001F300BA002409B9002008801DE5825BFBE58273
:10020300D313CF5FCFF4C3132F5582FF50090EBE14
:1002130000050DBD00010CC3EB9FF5F0EA9E42F013
:10022300E99D42F0E89C45F06007CC4820E701B324
:10023300EC2275F020800E75F010800575F0087DB6
:10024300007E007F003392D530D50312059BEC333B
:100253004010EF33FFEE33FEED33FDEC33FCD5F00E
:10026300ED22E5F0247EA2D513CC92E7CDCEFF227A
:10027300E9D2E7C933E833F892D5EDD2E7CD33ECD1
:1002830033FC5002B2D522EC30E7100FBF000C0E46
:10029300BE00080DBD00040BEB6014A2D5EB13FCEC
:1002A300ED92E7FD2274FFFCFDFEFF22E480F8A23D
:1002B300D574FF13FC7D80E480EFE709F608DFFACD
:1002C3008046E709F208DFFA803E88828C83E709DB
:1002D300F0A3DFFA8032E309F608DFFA8078E30956
:1002E300F208DFFA807088828C83E309F0A3DFFAD7
:1002F300806489828A83E0A3F608DFFA80588982C2
:100303008A83E0A3F208DFFA804C80D280FA80C6A9
:1003130080D4806980F28033801080A680EA809A3E
:1003230080A880DA80E280CA803389828A83ECFAEB
:10033300E493A3C8C582C8CCC583CCF0A3C8C58247
:10034300C8CCC583CCDFE9DEE7800D89828A83E4EC
:1003530093A3F608DFF9ECFAA9F0EDFB2289828A70
:1003630083ECFAE0A3C8C582C8CCC583CCF0A3C88C
:10037300C582C8CCC583CCDFEADEE880DB89828A0C
:1003830083E493A3F208DFF980CC88F0EF60010ED9
:100393004E60C388F0ED2402B4040050B9F582EB3B
:1003A3002402B4040050AF232345822390030D732A
:1003B300BB010689828A83E0225002E722BBFE0248
:1003C300E32289828A83E49322BB010CE58229F527
:1003D30082E5833AF583E0225006E92582F8E62296
:1003E300BBFE06E92582F8E222E58229F582E58350
:1003F3003AF583E49322BB010689828A83F0225073
:1004030002F722BBFE01F322F8BB010DE58229F5B9
:1004130082E5833AF583E8F0225006E92582C8F69F
:1004230022BBFE05E92582C8F222EF8DF0A4A8F0D5
:10043300CF8CF0A428CE8DF0A42EFE22C2D5EC30B2
:10044300E709B2D5E4C39DFDE49CFCEE30E715B2A9
:10045300D5E4C39FFFE49EFE120866C3E49DFDE45A
:100463009CFC800312086630D507C3E49FFFE49E1B
:10047300FE22C5F0F8A3E028F0C5F0F8E582158266
:1004830070021583E038F022A3F8E0C5F025F0F000
:10049300E582158270021583E0C838F0E822BB01BB
:1004A3000A89828A83F0E5F0A3F0225006F709A7B0
:1004B300F01922BBFE06F3E5F009F3192275F008E3
:1004C300758200EF2FFFEE33FECD33CDCC33CCC599
:1004D3008233C5829BED9AEC99E58298400CF582B4
:1004E300EE9BFEED9AFDEC99FC0FD5F0D6E4CEFB26
:1004F300E4CDFAE4CCF9A88222B800C1B90059BA14
:10050300002DEC8BF084CFCECDFCE5F0CBF9781841
:10051300EF2FFFEE33FEED33FDEC33FCEB33FB103B
:10052300D703994004EB99FB0FD8E5E4F9FA227855
:1005330018EF2FFFEE33FEED33FDEC33FCC933C967
:1005430010D7059BE99A4007EC9BFCE99AF90FD871
:10055300E0E4C9FAE4CCFB2275F010EF2FFFEE3391
:10056300FEED33FDCC33CCC833C810D7079BEC9AD0
:10057300E899400AED9BFDEC9AFCE899F80FD5F059
:10058300DAE4CDFBE4CCFAE4C8F922CFF4CFCEF41D
:10059300CECDF4CDCCF4CC22C3E49FFFE49EFEE4A5
:1005A3009DFDE49CFC22EB9FF5F0EA9E42F0E99D61
:1005B30042F0E89C45F022E8600FECC313FCED1316
:1005C300FDEE13FEEF13FFD8F122E8600FEFC33304
:1005D300FFEE33FEED33FDEC33FCD8F122ECF0A358
:1005E300EDF0A3EEF0A3EFF022A8828583F0D08391
:1005F300D082120603120603120603120603E473E3
:10060300E493A3C583C5F0C583C8C582C8F0A3C559
:1006130083C5F0C583C8C582C822BB010789828A06
:10062300830205EC5005E9F80208BBBBFE05E9F8B7
:100633000208D422D083D082F8E493701274019319
:10064300700DA3A393F8740193F5828883E4737404
:1006530002936860EFA3A3A380DF8A838982E47394
:10066300EC8EF0A4CCC5F0CCCDF8EFA4CEC5F02D24
:10067300FDE43CFCE8A42EC8C5F03DFDE43CFCEFE2
:10068300A4FFE5F028FEE43DFDE43CFC22E3F5F0A5
:1006930009E208B5F06BDFF58067E3F5F009E608DA
:1006A300B5F05EDFF5805A87F009E608B5F052DF52
:1006B300F6804E87F009E208B5F046DFF6804288FF
:1006C300828C8387F009E0A3B5F036DFF6803288A9
:1006D300828C8387F009E493A3B5F025DFF58021AD
:1006E30088828C83E3F5F009E0A3B5F014DFF5808D
:1006F3001088828C83E3F5F009E493A3B5F002DF5D
:10070300F40207BF808780E9809080D4803E801503
:10071300806E807E809D80B7808D80A380518074A1
:10072300803C0207CB89828A83ECFAE493F5F0A339
:10073300C8C582C8CCC583CCE493A3C8C582C8CC42
:10074300C583CCB5F076DFE3DEE1807089828A83EE
:10075300E493F5F0A3E208B5F062DFF4805E8982EA
:100763008A83E0F5F0A3E608B5F051DFF5804D8903
:10077300828A83E0F5F0A3E208B5F040DFF5803C20
:1007830089828A83E493F5F0A3E608B5F02EDFF4BB
:10079300802A8002805789828A83ECFAE493F5F0F9
:1007A300A3C8C582C8CCC583CCE0A3C8C582C8CCC6
:1007B300C583CCB5F006DFE4DEE280007FFFB5F051
:1007C300020F2240027F012289828A83ECFAE0F53C
:1007D300F0A3C8C582C8CCC583CCE0A3C8C582C872
:1007E300CCC583CCB5F0D5DFE5DEE380CF89828A43
:1007F30083ECFAE0F5F0A3C8C582C8CCC583CCE48A
:1008030093A3C8C582C8CCC583CCB5F0AFDFE4DE03
:10081300E280A988F0EF60010E4E60ABED2402B4D4
:1008230004005098F582EB2402B40400508E232375
:1008330045822390070773EF4E6012EF60010EEDC0
:10084300BB010B89828A83F0A3DFFCDEFA2289F0E5
:100853005007F709DFFCA9F022BBFEFCF309DFFC1C
:10086300A9F022BC000BBE0029EF8DF084FFADF090
:1008730022E4CCF875F008EF2FFFEE33FEEC33FCE7
:10088300EE9DEC984005FCEE9DFE0FD5F0E9E4CE1D
:10089300FD22EDF8F5F0EE8420D21CFEADF075F0EC
:1008A30008EF2FFFED33FD4007985006D5F0F222F5
:1008B300C398FD0FD5F0EA22D083D082E493F608E3
:1008C300740193F608740293F608740393F67404A0
:1008D30073D083D082E493F208740193F208740214
:1008E30093F208740393F2740473900600EFF0120A
:1008F3005E1D900601EFF0120637094C01094C0208
:10090300094C12094C130C94140C94150C94160CEA
:100913006C220C6C230C94240C94250C94260C6CE4
:10092300320C6C330C94340C94350C9436094C41D2
:100933000C7A420C7A430C94500D21530D49540DFB
:10094300B2550DAE6000000DC2900600E0FF125BD1
:100953007A9006C3E07053900600E0640A7030A3F7
:10096300E0FD7C00640170057F60020DBFED640251
:100973004C70057F01020DBF900601E064416003E6
:10098300020D1E125E41EF7003020DC2020D1E9096
:100993000600E0640B7013A3E064016003020DC260
:1009A3007F8A1250787F02020DBF900600E0640A2E
:1009B30070569006C2E0FF7E00700FA3E0FD14F0B6
:1009C30074C42DF582E434068015EF64014E70146F
:1009D3009006C3E0FF14F074CC2FF582E43406F5DF
:1009E3008374FFF09006C3E06003020DC29006011A
:1009F300E0FF6412600DEF64136008EF644160036D
:100A0300020DC27F5D025078900600E0640B600B1C
:100A13009006C3E064086003020BEE9006C3E0C3D4
:100A230094067480948050207F60125078E490067E
:100A3300C3F09006C2E0700280749006C2E06401C5
:100A43006003020DC2020AE8900601E06401702B04
:100A53007B017A0679C49006C3E0FD900607740211
:100A6300F0122A0DEFF470077F9312507880057F00
:100A730001124C44E49006C3F08033900601E06415
:100A83000270387B017A0679C49006C3E0FDE490D6
:100A93000607F0122A0DEFF470077F931250788047
:100AA300087F01125E29125A7EE49006C3F0FE7F8E
:100AB300087DFF7B017A0679C48035900601E0FF4B
:100AC3006412600DEF64136008EF64416003020D6C
:100AD300C29006C2E0701C7F631250789006C27405
:100AE30001F0E4A3F0FE7F087DFF7B017A0679CC59
:100AF30002083A9006C2E064016003020DC278C4A2
:100B03007C067D017B017A0679CCFE7F08120816EC
:100B1300EF3395E04F6003020BE6900601E06412A9
:100B230070457B017A0679C49006C3E0FD90060701
:100B33007402F0122A0DEFF460057F8D020BE87B3F
:100B4300017A0679C49006C3E0FD9006077401F0AC
:100B530012272AEF640170047F6980027F05125017
:100B630078125D1D020BEB900601E0644170317B4E
:100B7300017A0679C49006C3E0FDE4900607F012FB
:100B8300272AEF640170047F6980027F0512507881
:100B9300125E41EF7005125C9A804D125A7E8048B6
:100BA300900601E0641370407B017A0679C49006D5
:100BB300C3E0FD9006077401F0122A0D900602EFC0
:100BC300F0F470047F6F801D900602E0FF7D011238
:100BD3004549EF70047F0580027F69125078125DEA
:100BE3002780057FDA1250780255D3900601E0FF83
:100BF30064016005EF64027016900600E0FF900642
:100C0300C3E0FE04F074C42EF582E43406805590EC
:100C13000601E0FF6412600DEF64136008EF6441A6
:100C23006003020DC29006C2E0FF7E0070199006B9
:100C330000E0FD9006C3E0FC04F074C42CF582E4EC
:100C43003406F583EDF022EF64014E6003020DC21A
:100C5300900600E0FF9006C3E0FE04F074CC2EF58E
:100C630082E43406F583EFF022900600E0640A6024
:100C730003020DC2020D1B900600E0640A6003022A
:100C83000DC2125D9C125E41EF7003025D13020DF3
:100C93001E900600E0640B7074125D9C900601E0E8
:100CA3001206370CC8140CFB150CFE160CD9240DB8
:100CB30001250D04260CEA340D07350D0A360D0DFA
:100CC3005000000DC2123ED3EF70047F0580027FF7
:100CD300081250788045123AEFEF70047F058002C6
:100CE3007F08125078803412418CEF70047F0580A6
:100CF300027F0812507880230258BF025C59025CBD
:100D030066025C73025C80025C8D0247FD90060004
:100D1300E0640A6003020DC2125D9C025A7E9006D3
:100D230000E0640A7006125D9C024033125E2F904D
:100D33000600E0D39F4003020DC2125D9C900600A3
:100D4300E014FF024612125E47900602EFF064932E
:100D53007010900600E0FF125B7A900600E0FF023D
:100D63004344900602E064967035900600E0640AFE
:100D73007018125D9C125CCE125E3BEF60028028FD
:100D83007F587E0212561F025CC1900600E0640B7E
:100D9300702D125D9C125CCE7D017F96024D131265
:100DA3005E3BEF601A125D9C025C3C7F01800D90FC
:100DB3000600E0640A7008125D9C7F01125E172230
:100DC300C101C103C102C1004104B500440737FF9B
:100DD300FFFFFF44073BFFFFFFFF4406B3FFFFFF97
:100DE300FF4206B700004106B900440683FFFFFF38
:100DF300FF4106870041069E004106880054068A8B
:100E030000000000000000000000000000000000DF
:100E130000000000410689004406EDFFFFFFFF507C
:100E230006F1EF01FFFFFFFF010007410101005041
:100E3300009B4406D4FFFFFFFF4106D80044073F51
:100E4300FFFFFFFF440743FFFFFFFF440747FFFF89
:100E5300FFFF44074BFFFFFFFF44072CFFFFFFFF8C
:100E6300420730000044074FFFFFFFFF440753FFD3
:100E7300FFFFFF44075BFFFFFFFF010800010A00BC
:100E8300010900010B0044065CFFFFFFFF4407322A
:100E9300FFFFFFFF410736004406BBFFFFFFFF4193
:100EA30006C3004106C2FF4106C1FF4106C0FF4120
:100EB30006BF004106BA006092056A0223000327B9
:100EC300000423000725000826000923000A270041
:100ED3000B23000423000D23000E27000F25000819
:100EE30024001627001E27002023001F2700282385
:100EF300002B24002C24002D2400514252432500B2
:100F03005146524925005144524525005148524704
:100F13002500514A524B2500513352345335250095
:100F23005136523853392500513A523C533D25002E
:100F3300513E52405341250006270051422500519E
:100F43003052315332543355345635250044055706
:100F5300FFFFFFFF4105650042055C000042055E9F
:100F63000000420567000041055B00410566004142
:100F7300056900430562000000609104C601030097
:100F8300000001040000000105000000010600004C
:100F93000001070000000108FF47FD0109FF591484
:100FA300020600000002070000000208FF5D77034D
:100FB3000AFF58BF030CFF5C59030DFF5D31042A80
:100FC300FF5C66042CFF5C73042DFF5D4F0544FF3B
:100FD3005C800546FF5C8D0547FF5D6D067FFF5C0A
:100FE300B40680000000805FFF5C9A8060FF5CA70E
:100FF300076700000007810000006766FF59CF679D
:1010030065FF59E8816CFF5A01816DFF5A1A440745
:1010130017FFFFFFFF41071B0042071C000060F69C
:1010230002EE01E102BA03C204CA05D2069C07A27A
:101033000E5D0FFF106011631205130614DA1566B7
:101043001669175C186C196F1A721B751C051D69DC
:101053001E0C1F662078217B227E2304240525692C
:101063002666277E280529082E102F1130053112F8
:1010730032693381345C35133614371138963905A8
:101083003A813B153C843D7E3E113F054081417EC4
:1010930042054308481749184A054B194C5C4D1A39
:1010A3004E1B4F185005511C521D5387547E551823
:1010B3005605577E580559085A8A5B5D5C635D0582
:1010C3005E8D611062116305640567AE6821692254
:1010D3006A216B226D4B6E216F2270217122724C3B
:1010E300732274907505768A77637829792A7A93BF
:1010F3007B967C997D2E7E2F7F4280A881B482903F
:10110300837E874E8A7E8C4F8D058E08904D91216C
:1011130092229A219BFFFFFF44075FFFFFFFFF44DB
:101123000634FFFFFFFF44071EFFFFFFFF410722B7
:10113300004207230000440258FFFFFFFF44070259
:10114300FFFFFFFF4107060041070E0042070C00A7
:1011530000450707930405969841070100440726B5
:10116300FFFFFFFF42072A0000410725000090060A
:1011730000EFF0A20592069006047403F0124BFEF2
:101183003005030214FC900600E0FF25E024C0F5BF
:1011930082E4345EF583E493FC740193FD75F002FD
:1011A300EFA42418F582E5F03404F583ECF0A3ED05
:1011B300F0900600E0FE905EA093FF900603F075AA
:1011C300F002EEA42418F582E5F03404F583E0FC84
:1011D300A3E0FD125188900600E0FD75F002A424FF
:1011E30079F582E5F03404F583EEF0A3EFF075F0C2
:1011F30002EDA42479F582E5F03404F583E0FEA33F
:10120300E0FF900601E0FCA3E0FDD3EF9DEE9C50D0
:10121300030213E7900600E0FF75F002A42479F5BA
:1012230082E5F03404F583E0FCA3E0FD900601E0E1
:10123300FAA3E0FBD3ED9BEC9A50030213037591E1
:101243000775F002EFA42418F582E5F03404F58362
:10125300E0FEA3E0C394FFEE940140030213039066
:101263000600E0FF75F002A42418F582E5F03404CB
:10127300F583E475F00112047575F002EFA42418E8
:10128300F582E5F03404F583E0FCA3E0FD9006036A
:10129300E0FF125188900600E0FD75F002A4247966
:1012A300F582E5F03404F583EEF0A3EFF075F00278
:1012B300EDA42479F582E5F03404F583E0FEA3E0A0
:1012C300FF75F002EDA42430F582E5F03404F583D4
:1012D300EEF0A3EFF075F002EDA42479F582E5F0CA
:1012E3003404F583E0FEA3E0FF75F002EDA424547B
:1012F300F582E5F03404F583EEF0A3EFF002121764
:10130300E5CDC454072409F9E47F01FEFDFCA801DF
:101313001205CDEF24F6FBEE34FFFAED34FFF9ECC2
:1013230034FFF8900600E075F002A42479F582E515
:10133300F03404F583E0FEA3E0FFE4FCFDD31205E3
:10134300A940030213E7900600E0FF75F002A4240E
:1013530018F582E5F03404F583E475F001120475A1
:1013630075F002EFA42418F582E5F03404F583E068
:10137300FCA3E0FD900603E0FF125188900600E015
:10138300FD75F002A42479F582E5F03404F583EECB
:10139300F0A3EFF075F002EDA42479F582E5F034C3
:1013A30004F583E0FEA3E0FF75F002EDA42430F51D
:1013B30082E5F03404F583EEF0A3EFF075F002ED6F
:1013C300A42479F582E5F03404F583E0FEA3E0FF7D
:1013D30075F002EDA42454F582E5F03404F583EEB0
:1013E300F0A3EFF0900600E075F002A42479F582F3
:1013F300E5F03404F583E0FEA3E0FF900601E0FC92
:10140300A3E0FDD3EF9DEE9C40030214FC90060085
:10141300E0FF75F002A42479F582E5F03404F58346
:10142300E0FCA3E0FD900601E0FAA3E0FBC3ED9B23
:10143300EC9A40030214FC75910775F002EFA424A3
:1014430018F582E5F03404F583E0FEA3E0D39400BD
:10145300EE940050030214FC900600E0FF75F002C6
:10146300A42418F582E5F03404F58374FFF5F01233
:10147300047575F002EFA42418F582E5F03404F541
:1014830083E0FCA3E0FD900603E0FF125188900681
:1014930000E0FD75F002A42479F582E5F03404F54B
:1014A30083EEF0A3EFF075F002EDA42479F582E565
:1014B300F03404F583E0FEA3E0FF75F002EDA4240D
:1014C30030F582E5F03404F583EEF0A3EFF075F028
:1014D30002EDA42479F582E5F03404F583E0FEA35C
:1014E300E0FF75F002EDA42454F582E5F03404F531
:1014F30083EEF0A3EFF002141022AB07EB25E024F8
:1015030017F582E4345FF583E493FF740193900647
:1015130004CFF0A3EFF0EB25E02417F582E4345F6A
:10152300F583E493FC740193FD905F07E493FF7EDE
:101533000012042DEEC4F854F0C868FEEFC4540F33
:1015430048FF900606EEF0A3EFF075F002EBA4243B
:1015530079F582E5F03404F583E0FEA3E0FF75F04E
:1015630002EBA42430F582E5F03404F583E0FCA318
:10157300E0C39FFFEC9EFE900602F0A3EFF0C3EEE4
:101583006480948050030216DAA3E0FEA3E0FF9088
:101593000602E0FCA3E0FD9FEE6480F8EC64809813
:1015A300401074E42BF582E43403F5837401F002F4
:1015B30016A6900606E0FEA3E0FFC3ED9FEE64804F
:1015C300F8EC648098405874A92BF582E43404F550
:1015D30083E004F074FC2BF582E43403F583E4F038
:1015E300749D2BF582E43404F583E4F074F02BF559
:1015F30082E43403F583E4F074A92BF582E4340424
:10160300F583E0FF900758E0FEEFC39E50030216F8
:10161300A674A92BF582E43404F583E4F0806E7498
:10162300A92BF582E43404F583E4F074FC2BF582F2
:10163300E43403F583E004F0749D2BF582E4340471
:10164300F583E4F074F02BF582E43403F583E4F0DE
:1016530074FC2BF582E43403F583E0FF90075AE032
:10166300FEEFC39E403D74FC2BF582E43403F58307
:10167300E4F075F002EBA42430F582E5F03404F5D0
:1016830083E0FEA3E0D39400EE9400401675F002CD
:10169300EBA42430F582E5F03404F58374FFF5F010
:1016A300120475905F59E493FE740193FFC390068F
:1016B30005E09FFF900604E09EFEC3900603E09FB3
:1016C300900602E09E400302184B74E42BF582E47B
:1016D3003403F583E4F02274E42BF582E43403F558
:1016E30083E4F0900606E0FEA3E0FFC3E49FFFE47B
:1016F3009EFEC3900603E09FEE6480F8900602E02E
:10170300648098406C74A92BF582E43404F583E477
:10171300F074FC2BF582E43403F583E4F0749D2B21
:10172300F582E43404F583E004F074F02BF582E4ED
:101733003403F583E4F0749D2BF582E43404F583DC
:10174300E0FF900757E0FEEFC39E500302184B746F
:101753009D2BF582E43404F583E4F075F002EBA4E9
:101763002430F582E5F03404F583E475F0010218C2
:101773004874A92BF582E43404F583E4F074FC2B5C
:10178300F582E43403F583E4F0749D2BF582E434AD
:1017930004F583E4F074F02BF582E43403F583E07D
:1017A30004F074F02BF582E43403F583E0FF900733
:1017B30059E0FEEFC39E500302184B74F02BF582E1
:1017C300E43403F583E4F0900605E025E0FD90069C
:1017D30004E033FCE0A2E713FEA3E0132DFFEE3C8D
:1017E300FEC3E49FFFE49EFED3900603E09FEE64F6
:1017F30080F8900602E0648098502975F002EBA40B
:101803002479F582E5F03404F583E0FEA3E0FF7567
:10181300F002EBA42430F582E5F03404F583EEF016
:10182300A3EFF022900606E0FEA3E0FF7C007D0517
:1018330012043F75F002EBA42430F582E5F0340482
:10184300F583EE8FF012047522900600EFF0E4A307
:10185300F0A3F0A3F0125E1D900604EFF07E006487
:10186300016017EF64226012EF6423600DEF64429E
:101873006008EF64436003021B58EF64544E700B1F
:10188300125E47EF64056003021B58125E7012007C
:1018930006900601EFF06003021B4E9006C2E0FFC4
:1018A300124E1C900601EFF06003021B4E9006C21D
:1018B300E0FF7B017A067902124676900601EFF08B
:1018C30060030219A3900604E06401701F900602EE
:1018D300A3E0FF7D02125153900601EFF060030273
:1018E30019AB7F02125E797F02024C44900604E03A
:1018F300FF6422600FEF6442600AEF64436005EF08
:101903006454700A7F03125E797F69021B55900647
:1019130004E064236003021B58900602A3E0FF7DEA
:1019230001125153900601EFF0706B9006C2E07004
:101933000C04F07F02125E797F11021B5512000E18
:10194300900601EFF06003F4703F900602A3E0FFFE
:101953007D01124F53900601EFF0700EA3E0FEA33A
:10196300E0FF125DDE900601EFF0900601E07009E2
:101973007F02125E797F0580077F03125E797F699C
:10198300125078125D45021B287F03125E797F9601
:10199300125078021B287F03125E797F84021B5545
:1019A300900604E06401700A7F03125E797F960259
:1019B3001B55900604E0FF64226012EF6442600D41
:1019C300EF64436008EF64546003021B3D9006C25A
:1019D300E064026003021B2E120016900601EFF072
:1019E3006003021B1E900604E0FF64226008EF649C
:1019F300546003021AA6125256900602E4F0A3EFB3
:101A0300F0900602E07003A3E0F4700D7F03125E12
:101A1300797F5C125078021B19900602E0FCA3E068
:101A2300FDE4FF1249B1900601EFF0900604E06473
:101A330022703E900601E07019A3A3E0FF7D01121E
:101A430053D7900601EFF06009A3E0FEA3E0FF1275
:101A53005DDE900601E070097F02125E797F0580EA
:101A6300077F03125E797F69125078125D3B021B78
:101A730028900601E0700EA3E0FEA3E0FF125DDEF6
:101A8300900601EFF0900601E070097F02125E7983
:101A93007D0180077F03125E79E4FD7F04124D13FD
:101AA300021B28900604E0FF7E0064427008900643
:101AB30002F0A3F0800DEF64434E7007900602F02E
:101AC300A304F0900602E0FCA3E0FDE4FF1249B199
:101AD300900601EFF0700EA3A3E0FFE4FD1253D7CD
:101AE300900601EFF0900601E070097F02125E7923
:101AF3007F0580077F03125E797F69125078125E3B
:101B030041EF7012900604E064427005125CA780F6
:101B130014125D13800F125A7E800A7F03125E79BE
:101B23007F81125078E49006C2F0229006C2E0044E
:101B3300F07F02125E797F118018900604E064231F
:101B430070137F03125E797F8480077F03125E79AF
:101B53007F11125078227E017FF47DFF7B017A0092
:101B6300790012083A7B017A00790090061174011A
:101B7300F0A374F4F07F0190060DEFF0A3EBF0A354
:101B8300EAF0A3E9F07F09125E1190060DE01470EC
:101B930003021C79147003021D47147003021DA76E
:101BA30024036003021E049006167401F0A374005C
:101BB300F0A37400F0A37401F0A374F4F0E4FF1233
:101BC3005E0BE4FF125885E4900613F0A3F0900631
:101BD30011E0FEA3E0FFC3900614E09F900613E01C
:101BE3009E5037E0FCA3E0FD90060EE0FBA3E0FA75
:101BF300A3E0F98D828C831203CCFBE4FF123E5BDE
:101C0300900615EFF070037F0122900614E004F0B4
:101C130070BC900613E004F080B4E4900613F0A3C4
:101C2300F0900619E0FEA3E0FFC3900614E09F9036
:101C33000613E09E4003021E07E0FEA3E0FF241804
:101C4300FDE43EFC900616E0FBA3E0FAA3E0F98F67
:101C5300828E831203CCFBE4FF123E5B900615EFEA
:101C6300F070037F0122900614E004F070B3900635
:101C730013E004F080AB9006167401F0A37402F035
:101C8300A3745CF0A3E4F0A37406F0E4FF125E0B0C
:101C9300E4FF125885E4900613F0A3F0900619E0D0
:101CA300FEA3E0FFC3900614E09F900613E09E504E
:101CB30037E0FCA3E0FD900616E0FBA3E0FAA3E007
:101CC300F98D828C831203CCFBE4FF123E5B9006FA
:101CD30015EFF070037F0122900614E004F070BC4E
:101CE300900613E004F080B4E4900613F0A3F090A0
:101CF3000611E0FEA3E0FFC3900614E09F900613D5
:101D0300E09E4003021E07E0FEA3E0FF2418FDE46B
:101D13003EFC90060EE0FBA3E0FAA3E0F98F828E6F
:101D2300831203CCFBE4FF123E5B900615EFF070C9
:101D3300037F0122900614E004F070B3900613E0D1
:101D430004F080AB7F01125E0BE4FF125885E49030
:101D53000613F0A3F0900611E0FEA3E0FFC3900684
:101D630014E09F900613E09E4003021E07E0FCA3CD
:101D7300E0FD90060EE0FBA3E0FAA3E0F98D828C70
:101D8300831203CCFBE4FF123E5B900615EFF07069
:101D9300037F0122900614E004F070B9900613E06B
:101DA30004F080B17F01125E0B7F01125885E4902D
:101DB3000613F0A3F0900611E0FEA3E0FFC3900624
:101DC30014E09F900613E09E503AE0FCA3E0FD90E0
:101DD300060EE0FBA3E0FAA3E0F98D828C831203E5
:101DE300CCFB7F01123E5B900615EFF070037F0181
:101DF30022900614E004F070BC900613E004F08017
:101E0300B47F01227F0022AB07EBC394207480943C
:101E130080500AE47F01FEFDFCA803800BE47F01F0
:101E2300FEFDFCEB24E0F9F81205CD9005FE12054A
:101E3300E0EBC39420748094805003021F027596D4
:101E4300519005FEA3A3A3E0FFEF4297759652902E
:101E530005FEE0FCA3E0FDA3E0FEA3E0FF7808128B
:101E630005BAEF4297EBC3942474809480500E908C
:101E730005FEA3A3A3E0540FFFEF42EA22EBC394B2
:101E83002674809480501B9005FEE0FCA3E0FDA324
:101E9300E0FEA3E0FF78041205BAEF5403FFEF421C
:101EA300EB22EBFFC3942C748094805037EF642AA9
:101EB3006005EF642B70129005FEE0FCA3E0FDA328
:101EC300E0FEA3E0FF780480109005FEE0FCA3E0B1
:101ED300FDA3E0FEA3E0FF78061205BAEF54CFFF9F
:101EE300EF42EC229005FEE0FCA3E0FDA3E0FEA39D
:101EF300E0FF780C1205BAEF540FFFEF42EE2275A4
:101F030096269005FEA3A3A3E0FFEF4297759627BD
:101F13009005FEE0FCA3E0FDA3E0FEA3E0FF78084C
:101F23001205BAEF540FFFEF42977596289005FEFE
:101F3300E0FCA3E0FDA3E0FEA3E0FF78101205BAE6
:101F4300EF42977596299005FEE0FCA3E0FDA3E020
:101F5300FEA3E0FF78181205BAAB07EB4297900592
:101F6300FEE0FCA3E0FDA3E0FEA3E0FF7802120580
:101F7300CDEF54FCFFEF42EB9005FEE0FCA3E0FD48
:101F8300A3E0FEA3E0FF78021205BAEF5430FFEF9F
:101F930042EC9005FEE0FCA3E0FDA3E0FEA3E0FF1E
:101FA30078041205BAEF54F0FFEF42EE9005FEE01D
:101FB300FCA3E0FDA3E0FEA3E0FF780C1205BAEF5B
:101FC30054F0FFEF42EF9005FEE0FCA3E0FDA3E039
:101FD300FEA3E0FF78141205BAEF540FFFEF42F2AD
:101FE300EB42F722EFB40700400302215E901FF794
:101FF300F828287302200C0220330220590220A45F
:102003000220F2022115022138EB7009ED42EA7534
:1020130096170220ADEB64017009ED42EA7596173D
:10202300022151EB6402600302215EEDF452EA22C5
:10203300EB7008ED42EB759618806FEB6401700945
:10204300ED42EB759618022151EB64026003022105
:102053005EEDF452EB22EB7008ED42EC75961980BD
:1020630049EB64017009ED42EC759619022151EBBD
:1020730064027015EDF452ECED5430700302215EEE
:10208300759625C4540F022142EB640360030221B9
:102093005EEDF452EC759625ED5430C4540F42971F
:1020A30022EB700AED42EE75961BED022142EB64C2
:1020B300017009ED42EE75961B022151EB6402702B
:1020C30015EDF452EEED5430700302215E75962542
:1020D3001313543F8069EB6403600302215EEDF444
:1020E30052EE759625ED54301313543F429722EB6D
:1020F3007009ED42EF75961CED8044EB64017008A6
:10210300ED42EF75961C8046EB6402704EEDF4527F
:10211300EF22EB7009ED42F275961DED8021EB6421
:10212300017008ED42F275961D8023EB6402702B5B
:10213300EDF452F222EB700BED42F775961EEDF4BF
:10214300529722EB6401700AED42F775961EED4239
:102153009722EB64027004EDF452F722900600EF2D
:10216300F0E4A3F0A3F0125E1D900603EFF07E00EF
:102173006401600DEF64326008EF64336003022290
:10218300BFEF64544E700B125E47EF6405600302A9
:1021930022BF125E70900603E0645470379006C24B
:1021A300E0FF124960900601EFF060030222BF9046
:1021B30006C2E0700302227012584A900601EFF043
:1021C300700A7D017F05124D130222A47F1C125059
:1021D300780222A47B017A067902124F90900601BD
:1021E300EFF0706C900603E0640170057F04024C0D
:1021F30044900603E0643270057F190222BC900606
:1022030003E0643360030222BF9006C2E0FF124979
:1022130060900601EFF070349006C2E07002804DCA
:1022230012584A900601EFF0701BA3E0FF1240A77B
:10223300900601EFF070047F0580027F69125078E9
:10224300125D6380057F1C12507880557F81806901
:10225300900603E0643270539006C2E0FF124960B7
:10226300900601EFF070409006C2E0700C7F1812E8
:1022730050789006C27401F02212584A900601EF7A
:10228300F07019FF125B54900601EFF070047F05A4
:1022930080027F69125078125D5980057F1C1250AD
:1022A30078E49006C2F0227F81800E900603E064FA
:1022B3000170047F9980027F87125078229005FF76
:1022C300EBF0A3EAF0A3E9F0EF14606514700302E6
:1022D300238D1470030223B7240360030223E2E473
:1022E300FF125E0BE4900604F0A3F0900602E0FEFA
:1022F300A3E0FFA3E0FCA3E0FDC39FEC9E40030229
:1023030023E2E4FF12580C9005FFE0FBA3E0FAA3DD
:10231300E0F9900604E0FCA3E0F5828C83EF12045D
:102323000B900605E004F070C2900604E004F08010
:10233300BAE4FF125E0BE4900604F0A3F0900602E9
:10234300E0FEA3E0FFA3E0FCA3E0FDC39FEC9E40FF
:10235300030223E2ED2418FDE43CFCE4FF12580CD5
:102363009005FFE0FBA3E0FAA3E0F9900604E0FC8C
:10237300A3E0F5828C83EF12040B900605E004F0D2
:1023830070BB900604E004F080B37F01125E0B90F3
:1023930005FFE0FBA3E0FAA3E0F9E490060AF0A34B
:1023A300F0900602E0FFA3E090060CCFF0A3EFF05D
:1023B300E4FD80287F01125E0B9005FFE0FBA3E0A4
:1023C300FAA3E0F9E490060AF0A3F0900602E0FF16
:1023D300A3E090060CCFF0A3EFF07D011239E722C2
:1023E3007B017A02795C900602E4F0A37406F0E4C0
:1023F300FF1222C090025CE0FF64016008EF6402F8
:102403006003022495E49005FDF07B017A007900D6
:1024130090060204F0A374F4F07F011222C07B0142
:102423007A0179F4900602E4F0A37464F07F021257
:1024330022C07B017A027962900602E4F0A3748CD5
:10244300F07F031222C090025FE0D3940074809463
:102453008050030225059005FDE0FFFD7C00C39439
:102463006474809480501A75F005EFA42404F582F7
:10247300E5F03400F583E060089005FDE004F080AA
:10248300D5C3ED9464EC648094804076E490025F5D
:10249300805C121B597E007F647DFF7B017A01798A
:1024A300F412083A7B017A0179F4900611E4F0A35F
:1024B3007464F07F02121B7A12004E7E007F8C7DC3
:1024C300FF7B017A02796212083A7B017A02796210
:1024D300900611E4F0A3748CF07F03121B7A900230
:1024E3005C7401F0A3F0E4A3F0A3F0A3F0A3F07BEA
:1024F300017A02795C900611F0A37406F0E4FF12EE
:102503001B7A227D037FE87E03900612EEF0A3EF91
:10251300F0A3EDF0E4A3F0A3F090061274FFF5F03E
:1025230012047545F0700302261D7F017E001256CA
:102533001F900614E02409FFE433FE9006B9E0C3BC
:102543009FEE6480F874809840CFE4900615F09075
:1025530006B9E0FF900615E0FEC39F5017749F2E47
:10256300F582E43406F583E064EF6008900615E035
:1025730004F080DB900615E0FF249FF582E4340627
:10258300F583E064EF709274A02FF582E43406F5CE
:1025930083E064017083900615E0FD24A5F582E4D1
:1025A3003406F583E06407600302251C74A62DF549
:1025B30082E43406F583E0FE74A72DF582E4340645
:1025C300F583E07C002400FFEC3EFE900614E06FF0
:1025D3007001EE600302251C9006B9E0FF9006151A
:1025E300E0FEC39F5029749F2EF582E43406F583E1
:1025F300E0FF900616E024D9F582E43406F583EF74
:10260300F0900616E004F0900615E004F080C990FF
:1026130006E2E0FFE49006B9F0227F0122125E1D7C
:1026230090062CEFF090055BE06401703090055F3D
:10263300E004F0700690055EE004F0900567E0FEAC
:10264300A3E0FFC390055FE09F90055EE09E400D11
:1026530090055B7402F0E490055EF0A3F0900566CC
:10266300E06401701B900569E004F0E0C394047416
:10267300809480400B9005667402F0E4900569F045
:102683001249FEEF700302272290062CE0FF6461DB
:102693007003022722EF6460700302272290055B18
:1026A300E06401607A125B9DEF6401707290062D05
:1026B300F090055DE004F0700690055CE004F09096
:1026C300062CE0FF64126028EF64136023EF64229A
:1026D300601EEF64236019EF64326014EF643360AB
:1026E3000FEF6441600AEF64426005EF64437011C9
:1026F300D390055DE094C890055CE094004017809A
:102703000FD390055DE0941090055CE0942740069C
:1027130090062D7401F090062DE0600A024415E442
:1027230090055CF0A3F022900603EBF0A3EAF0A37C
:10273300E9F0A3EDF090060874FFF0900607E0704F
:102743002AA3F0900608E0FFC39464748094805039
:102753001A75F005EFA42404F582E5F03400F5833F
:10276300E06008900608E004F080D8900608E0C313
:10277300946474809480402BE4F0900608E0FFC3D7
:10278300946474809480501B75F005EFA42404F5C1
:1027930082E5F03400F583E0F46008900608E00475
:1027A300F080D7900608E0C39464748094805075D9
:1027B3007E007F047DFF7B017A06790912083A9037
:1027C3000606E0FD9006127401F0A37406F0A374EC
:1027D30009F0900603123CEC900608E075F005A49E
:1027E3002400F9740035F0A801FC7D017B017A0611
:1027F30079097E007F0412038D900607E0FFA3E0B2
:1028030075F005A42404F582E5F03400F583EFF0B8
:102813007B017A0079009006117401F0A374F4F03F
:102823007F01021B7A7F0122900604EBF0A3EAF0FA
:10283300A3E9F0A3EDF0D3940074809480500302D5
:1028430028C9C2AF12549B7F501238D4E490060CAF
:10285300F0900607E0FF90060CE0FEC39F501F9028
:102863000604E0FBA3E0FAA3E0F98E82758300126D
:1028730003CCFF1238D490060CE004F080D37F51D0
:102883001238D4E490060CF090060BE0FFA3E0C3EB
:102893009F503112473C900608E0FBA3E0FAA3E007
:1028A300F990060CE0FEF582758300EF12040B909D
:1028B300060BE0146E605AE4FF12553690060CE0E6
:1028C30004F080C4804BC2AF12549B7F511238D4A2
:1028D300E490060CF090060BE0FFA3E0C39F503199
:1028E30012473C900608E0FBA3E0FAA3E0F9900648
:1028F3000CE0FEF582758300EF12040B90060BE0EB
:10290300146E600DE4FF12553690060CE004F0805F
:10291300C47F01125536D2AF12582C7F0022E4F93E
:10292300900602F0A3F0FEEEC3940C7480948050E2
:102933006074482EF582E43404F583E06050EE259C
:10294300E02479F582E43404F583E0FCA3E0FDEEB2
:1029530025E02430F582E43404F583E0FAA3E0C3F0
:102963009DFDEA9CFC900600F0A3EDF0D3900603D6
:10297300E09DEC6480F8900602E0648098500F902C
:102983000600E0FDA3E0A3CDF0A3EDF0A9060E80C1
:102993009690046CE069606FE0FE25E02479F5828F
:1029A300E43404F583E0FCA3E0FDEE25E02430F5F8
:1029B30082E43404F583E0FAA3E0C39DFEEA9C902D
:1029C3000600F0A3CEF0900600E0FEA3E0FFC39064
:1029D3000603E09FFF900602E09EFE900600F0A330
:1029E300EFF0E925E02417F582E4345FF583E493FF
:1029F300FC740193FDD3EF9DEC6480F8EE64809842
:102A0300400590046CE9F0AF0122900603EBF0A3BC
:102A1300EAF0A3E9F0A3EDF0E4900608F090060DC8
:102A230074FFF07E007F04FD7B017A0679091208AA
:102A33003A900606E0FD9006127401F0A37406F0C6
:102A4300A37409F0900603123CECE4FFEFC3946413
:102A530074809480506475F005EFA42404F582E536
:102A6300F03400F583E0F4604EE4900608F090063D
:102A730008E0FD7C00C39404748094805033E0FE2E
:102A830075F005EFA42400F582E5F03400F583E545
:102A9300822EF582E43583F583E0FB74092EF582FB
:102AA300E43406F583E0B50308900608E004F080FB
:102AB300BDED64044C60030F8092EFC39464748093
:102AC3009480502675F005EFA42404F582E5F034D4
:102AD30000F583E0FE900607E0FDEE6D6005ED6412
:102AE30002700790060DEFF0800690060D74FFF05C
:102AF30090060DE0FF22900605EFF0E4900608F043
:102B03009006D8E06F7003022BD0124CDDEF640106
:102B13007003022BD07F01125E557F077E0012588F
:102B23006C7F41125E58900605E0606824FE6026C3
:102B33001460422402707B7F0112597B7F0112597A
:102B43007BE4FF12597B7F5012597B900606E4F019
:102B5300A3749BF0805C7F0112597B7F0212597B27
:102B63007F0212597BE4FF12597B900606E4F0A31F
:102B7300744EF0803D7F0112597B7F0412597B7F95
:102B83000412597BE4FF12597B900606E4F0A37408
:102B930052F0801E7F0412597BE4FF12597BE4FF3D
:102BA30012597B7FC812597B9006067401F0A374F7
:102BB30015F0900606E0FEA3E0FF124DC3122506B2
:102BC300900608EFF0900605E09006D8F022E49016
:102BD3000601F0C20112001EE4900600F090060008
:102BE300E0C3940C748094804003022C8A30030366
:102BF30043AD1020000575910780F8C200AFACEF1C
:102C0300FEADABEDFF900600E0FD25E02479F582F3
:102C1300E43404F583EEF0A3EFF0EDC3940B74807A
:102C23009480502DED25E0241AF582E43404F583D5
:102C3300E0FEA3E0F5CA53CC7FEE5401C313E413C3
:102C430042CC53CCC0ED905EA193543F42CC75C9A6
:102C530001900600E0FF1214FD900600E0FF12331E
:102C63008A900600E0FF1242D930010F90046CE015
:102C7300F47008900600E090046CF02002129006B5
:102C830000E004F0022BE020010690046C74FFF0D6
:102C930022C20120046D905E9AE493FD700D905F53
:102CA3005D93C313FF74019313801575F002EDA4B4
:102CB300245BF582E5F0345FF583E493FF740193BD
:102CC3009005FECFF0A3EFF0E49005FDF09005FD35
:102CD300E0C3940C748094805071E0FF2448F58223
:102CE300E43404F583E4F0C2059005FEE0FDA3E0BF
:102CF300900601CDF0A3EDF01211719005FDE004F3
:102D0300F080CA905E9DE493FD700D905F5D93C368
:102D130013FF74019313801575F002EDA4245BF582
:102D230082E5F0345FF583E493FF7401939005FE2D
:102D3300CFF0A3EFF0D2059005FEE0FFA3E09006ED
:102D430001CFF0A3EFF0E4FF12117190046C74FF54
:102D5300F022900623EBF0A3EAF0A3E9F0E4900657
:102D63002AF07F2EFE125B4053FBFDE4F5FAF5FEDD
:102D73007596585397EF53FBEF43FC40FF9006299A
:102D8300E0FEEFC39E5064E4A3F074FFFDFCED1D71
:102D9300AA0470011C4A6029E5FB30E4F1E5FB5409
:102DA3008070EB900623E0FBA3E0FAA3E0F98F82A7
:102DB300758300E5FA12040B53FBEF90062A7401A6
:102DC300F053FB7F53FBDFE5FE601D900623E0FB22
:102DD300A3E0FAA3E0F98F82758300E5FA12040BEE
:102DE30090062A74ACF080030F809253FCBF43FB20
:102DF3000290062AE064AC700F900626E0FBA3E085
:102E0300FAA3E0F9EF1203F990062AE0FF229006F5
:102E130087E064017059A3E0700D7D047F05124FB4
:102E2300157D01E4FF800C900688E0640270097D43
:102E3300047F05124C8A800F900688E0C3940474C3
:102E43008094804002B2F8900688E004F090069ED9
:102E5300E025E0FFE433FEEF2406FFE43EFE9006A8
:102E630088E0C39FEE6480F8748098405980419055
:102E73000687E06403704FA3E070057D01FF801DAA
:102E8300900688E0640170097D047F05124F158068
:102E93000F900688E0640370077D047F05124C8A57
:102EA300900688E004F0E0C3940474809480401694
:102EB300E4F07D047F05124C8A7D01E4FF124C8A05
:102EC3009006877402F02253CCBFA204E433C433C8
:102ED30033544042CC300403022F82E4900602F0C4
:102EE300900763E0FF900602E0C39F4003022F8236
:102EF300E0FF75F002A42418F582E5F03404F583AD
:102F0300E0FCA3E0FDEF905EA093FF1251889006D2
:102F130002E0FD75F002A42479F582E5F03404F5AE
:102F230083EEF0A3EFF075F002EDA42479F582E5CA
:102F3300F03404F583E0FEA3E0FF75F002EDA42472
:102F430030F582E5F03404F583EEF0A3EFF075F08D
:102F530002EDA42479F582E5F03404F583E0FEA3C1
:102F6300E0FF75F002EDA42454F582E5F03404F596
:102F730083EEF0A3EFF0900602E004F0022EE322CA
:102F830090060AEBF0A3EAF0A3E9F0900611EFF044
:102F9300A37470F0E4FF900610E0FEEFC39E50238D
:102FA30090060AE0FBA3E0FAA3E0F98F82758300A1
:102FB3001203CCFE74132FF582E43406F583EEF08E
:102FC3000F80D37B017A067911900610E0240290DA
:102FD3000621F07F01124ED7900610E0FC2413F572
:102FE30082E43406F583EFF0EEFF74142CF582E4EB
:102FF3003406F583EFF07B017A067911900610E031
:103003002404FD1230E9EF640160037F012290067E
:10301300267401F0A37406F0A37411F0A37403F0F3
:1030230090060DE0FBA3E0FAA3E0F9122D55EF643F
:10303300017F0060027F0122900600EBF0A3EAF01B
:10304300A3E9F078037C067D017BFF7A5F79777EC5
:10305300007F0612038D7596585397FB7B017A0602
:103063007903124B28EF60037F0122900603E0549B
:10307300C0C41313540375F003A42404640460034D
:103083007F01227B017A0679037D017F93123568E4
:10309300EF60037F0122900600E0FBA3E0FAA3E0C8
:1030A300F8AC02AD037B017A0679037E007F05123B
:1030B300038D90060D7401F0A37406F0A37403F05E
:1030C300A37405F0900600E0FBA3E0FAA3E0F97F08
:1030D30093122F83EF60037F0122900603E05424B1
:1030E3007F017001FF22900623EBF0A3EAF0A3E92E
:1030F300F0A3EDF07596585397FDE06004640170FA
:1031030023900623E0FBA3E0FAA3E0F91203B3F54F
:10311300F953FCC1900626E0FF25E0543E42FC43F0
:10312300FC01806B900623E0FBA3E0FAA3E0F91215
:1031330003B3F5F99000011203CCF5FA53FCC190E7
:103143000626E0FF25E0543E42FC43FC011258F8FA
:103153007D02900626E0FEEDC39E5033ED900623DC
:1031630030E014E0FBA3E0FAA3E0F98D827583005D
:103173001203CCF5FA8012E0FBA3E0FAA3E0F98D89
:10318300827583001203CCF5F91258F80D80C3122F
:1031930058F822900604EBF0A3EAF0A3E9F0E4FF69
:1031A300FEEFC3940A748094805015EF75F00EA45B
:1031B3002462F582E43402F583E0F460030F80E1D6
:1031C300EFC3940A748094805070EF75F00EA424BA
:1031D30062F582E43402F583EFF075F00EA4246304
:1031E300F582E43402F583EDF0E4FEEEC3940C744F
:1031F3008094805031900604E0FBA3E0FAA3E0F949
:103203008E827583001203CCFDEF75F00EA4246447
:10321300F582E43402F583E5822EF582E43583F505
:1032230083EDF00E80C57B017A027962900611E48A
:10323300F0A3748CF07F03021B7A7F012290068730
:10324300E0640260030232E27D02FF123BF1EF64AD
:103253000160030232E290068AE0701390069EF04A
:10326300125DB49006897401F0E4900687F022E4BD
:1032730090062BF090068704F090068AE090069E55
:10328300F0E490062BF090062BE0FF3395E0FEC3AD
:10329300EF9413EE64809480502B748B2FF582741B
:1032A300063EF583E0FF601D90062BE0FD3395E0BD
:1032B300FC748A2DF58274063CF583EFF090062B9F
:1032C300E004F080C190062BE0FF3395E0FE748AA2
:1032D3002FF58274063EF583E4F0900688F02212FF
:1032E3002E1122900609EFF0EC124CD2EF6401701C
:1032F300037FFF227F01125E557F087E0012586C08
:103303007F1B125E58900609E0FF12597B90060A54
:10331300E0FF12597B90060AA3E0FF12597B900647
:103323000CE0FF12597B90060CA3E0FF12597B902F
:10333300060AE0FCA3E0FDECFF7E00900609E02412
:1033430024FBE433CB2FFFEE3BFE7C00EF2DFDECA3
:103353003EFC90060C124DAE7D0712250890061117
:10336300EFF09006E3E0FEA3E07C002400FFEC3ED8
:10337300F990060EE0FBA3E0FAA3E0C98FF0120474
:10338300A1900611E0FF2274E42FF582E43403F5E3
:1033930083E0704974912FF582E43404F583E4F0FB
:1033A300740C2FF582E43404F583E004F0740C2FDD
:1033B300F582E43404F583E0FE905F5CE493FDEE74
:1033C300D39D4064740C2FF582E43404F583E4F058
:1033D30074482FF582E43404F583E4F022740C2F4F
:1033E300F582E43404F583E4F074912FF582E43438
:1033F30004F583E004F074912FF582E43404F5833B
:10340300E0FE905F5BE493FDEED39D401B74912F30
:10341300F582E43404F583E4F074482FF582E43450
:1034230004F5837401F0D201229005FD74FFF0A32B
:10343300F0125BAEEF70129006BFE0701104F0E47F
:10344300FBFD7F021255B28005E49006BFF0125EC9
:103453006A9005FDEFF0F46027E0FF1245AE90059A
:10346300FEEFF0F4601AE0FF9006C0E06F60179083
:1034730005FEE0FB9006C0F0E4FDFF1255B28006A6
:103483009006C074FFF0125E76EF6008E4FBFD7FE8
:10349300041255B2125BBFEF6008E4FBFD7F031219
:1034A30055B2125C1EEF6008E4FBFD7F051255B2B6
:1034B300125930EF6008E4FBFD7F011255B2125C34
:1034C3000FEF60031255AD2275962B5397F89006B4
:1034D30009E05407429753CDF3A3E025E025E054D8
:1034E3000C42CD53CDFDA3E025E0540242CD53CD94
:1034F300FEA3E0540142CD53CBBFA3E0C433335406
:103503004042CB53CCBFA3E0C43333544042CC75C9
:10351300962B5397C7A3E03333335438429753CD95
:103523008FA3E0C4547042CD53CBC0A3E0543F42B9
:10353300CB53ADDFA3E0C433542042AD75962D5376
:1035430097FDE4F5C953F1DF900614E064017011AF
:1035530053F6DF900613E0C43354E042F643E6200B
:103563002253E6DF22900609EFF0A3EDF0A3EBF080
:10357300A3EAF0A3E9F0780E7C067D017BFF7A5F76
:10358300796D7E007F0A12038D900609E09006187C
:10359300F0A37420F07B017A0679187D021230E9DA
:1035A300EF640160037F01229006267401F0A37487
:1035B30006F0A37422F0A37405F07B017A06791850
:1035C300122D55EF64017031FEEEC394057480949F
:1035D30080502374182EF582E43406F583E0FD90C1
:1035E300060BE0FBA3E0FAA3E0F98E82758300EDFE
:1035F30012040B0E80D37F0022EF7F0070027F0145
:1036030022E4900600F0A3F0125B68EF64017002FD
:10361300FF22900681E075F003A42460F582E43470
:1036230006F583E01203F9900681E0FF75F003A429
:103633002461F582E43406F583E090000112040B63
:10364300EF75F003A42462F582E43406F583E09079
:10365300000212040B900681E0FF75F003A42460BE
:10366300F582E43406F58374FFF0EF75F003A424C8
:1036730061F582E43406F58374FFF0EF75F003A47B
:103683002462F582E43406F58374FFF0125B8C90B8
:103693000681EFF07F0122905E9FE493900763F031
:1036A300E49005FDF0900763E0FF9005FDE0FEC3A5
:1036B3009F5077E0FF25E024C0F582E4345EF58374
:1036C300E493FC740193FD75F002EFA42418F582D2
:1036D300E5F03404F583ECF0A3EDF0EE905EA093F7
:1036E300FF121E0A9005FDE0FF75F002A42479F590
:1036F30082E5F03404F583E4F0A3F075F002EFA45F
:103703002430F582E5F03404F583E4F0A3F075F09A
:1037130002EFA42454F582E5F03404F583E4F0A326
:10372300F09005FDE004F00236A822900631EFF098
:10373300E4A3F0900687E070227D02FF123BF1EFD5
:103743006401701790068704F0900631E090069E9E
:10375300F0E4900688F0125BD0805AE4900633F0D0
:10376300F0900633E0FFFD3395E0FCC3ED9414ECD9
:1037730064809480501AEF3395E0FE748A2FF582AB
:1037830074063EF583E06008900633E004F080D1D0
:10379300C3ED9414EC64809480501A900631E0FFDA
:1037A300900633E0FD3395E0FC748A2DF5827406B0
:1037B3003CF583EFF07F0122900607EBF0A3EAF0DC
:1037C300A3E9F0A3EDF0E4FFEFC3940A74809480BF
:1037D3005047E4FEEEC3940C7480948050339006FB
:1037E30007E0FBA3E0FAA3E0F98E827583001203DE
:1037F300CCFDEF75F00EA42464F582E43402F58366
:10380300E5822EF582E43583F583E0B505030E806A
:10381300C3EE640C60030F80AFEFC3940A7480940B
:1038230080501FEF75F00EA42463F582E43402F593
:1038330083E0FE90060AE0FDEE6D6008ED64027021
:1038430001227FFF22787FE4F6D8FD7581200238BC
:103853008F0243ADE493A3F8E493A34003F68001FE
:10386300F208DFF48029E493A3F85407240CC8C3B7
:1038730033C4540F4420C8834004F456800146F6F1
:10388300DFE4800B0102040810204080900DC3E4A4
:103893007E019360BCA3FF543F30E509541FFEE44F
:1038A30093A360010ECF54C025E060A840B8E49311
:1038B300A3FAE493A3F8E493A3C8C582C8CAC58353
:1038C300CAF0A3C8C582C8CAC583CADFE9DEE780D8
:1038D300BE90060DEFF0E4A3F090060EE0C394084B
:1038E3007480948050375390F77F017E00125B40C1
:1038F30090060DE030E70543901080035390EF7F6F
:10390300017E00125B404390087F017E00125B4002
:1039130090060DE025E0F0A3E004F080BC5390F79F
:103923007F017E00125B4043EC107F017E00125B3F
:10393300404390087F027E00125B40E590A2E49230
:10394300045390F77F017E00125B4053ECEF5390DA
:10395300EF7F017E00125B40A20422900605EFF088
:10396300E02407F582E43407F583E024FC6028149F
:103973006035246F604124FE6047240570537F4EF9
:10398300125078125E3BEF60057F25125078E49069
:10399300070CF0A3F0803A125E237F1012507812C6
:1039A3005E3BEF602C8025125E237F171250781246
:1039B3005E3BEF601C80157F7E125078125CC180E5
:1039C300107F4F125078125E3BEF60057F25125037
:1039D30078900605E02407F582E43407F583E09048
:1039E300070EF022900606EBF0A3EAF0A3E9F0ED50
:1039F30090060B600CE02400FE90060AE03446803B
:103A03000AE02400FE90060AE0344490060EF0A378
:103A1300CEF0C2AFE4FDFCD390060DE09D90060C02
:103A2300E09C403A75D28890060EE0FAA3E0FBEAE8
:103A3300F5CEEBF5CF900606E0FBA3E0FAA3E0F9A1
:103A43008D828C83E5D412040B90060FE004F07092
:103A53000690060EE004F00DBD00010C80B9E4F5FC
:103A6300D2F5CEF5CFD2AF22E4FE900605F0A374D3
:103A73001DF0900561EFF07F107D007B017A0479E2
:103A8300B612083AE4900560F0FE900606E0FFEEF9
:103A9300C39F5057EE75F005A424C6F582E43404A1
:103AA300F583E0FF900561E0FDEF6D703B90060547
:103AB300E0FF25E024B6F582E43404F583EEF075E7
:103AC300F005A424C7F582E43404F583E0FDEF2573
:103AD300E024B7F582E43404F583EDF0900605E0C5
:103AE30004F0900560E004F00E809F22E490060548
:103AF300F0FFFEF0900605E0FDC3943274809480DD
:103B03005059ED25E024F4F582E43401F583E060B7
:103B130042900605E025E024F5F582E43401F583BF
:103B2300E0FDF4602EEDFF7E00125DDE7E00EF709F
:103B330022900605E0FD25E024F4F582E43401F546
:103B43008374FFF0ED25E024F5F582E43401F58379
:103B530074FFF0900605E004F080997B017A017907
:103B6300F4900611E4F0A37464F07F02021B7A530D
:103B7300C4FC53C4F343C40453C4BF43C44053C439
:103B8300CF43C43053C47F43C48053C38143C30E64
:103B930053C38143C30C75963253978343977C7504
:103BA30096325397FC4397037596425397FC43977A
:103BB3000275C1FF7596425397F343970475964276
:103BC3005397EF4397107596425397DF1257EC754F
:103BD300965343970143F78075962A43974043F7DB
:103BE3004075962D5397FE75962D43970122EFB49A
:103BF30007005075903BFEF8282873023C13023CE3
:103C030020023C2D023C3A023C47023C54023C61F8
:103C1300E5F85D7F0060027F01AE07804CE5805DC3
:103C23007F0060027F01AE07803FE5905D7F00600B
:103C3300027F01AE078032E5B05D7F0060027F0145
:103C4300AE078025E5C05D7F0060027F01AE07807F
:103C530018E5C85D7F0060027F01AE07800BE5D8E1
:103C63005D7F0060027F01AE07AF0622905E91E4A4
:103C7300939005FDF0905E92E4939005FEF0905EC4
:103C830093E4939005FFF0905E94E493900600F024
:103C9300905E95E493900601F0905E96E49390060F
:103CA30002F0905E99E493900603F0905E9AE49399
:103CB300900604F0905E9BE493900605F0905E9767
:103CC300E493900606F0A37401F0905E98E4939059
:103CD3000608F078097C067D017B017A0579FD7E73
:103CE300007F0C12038D0234CBE0FBA3E0FAA3E0C8
:103CF300F990060EEBF0A3EAF0A3E9F0A3EDF0E4EC
:103D0300FC900615F0900611E0FDECC39D50559014
:103D1300060EE0FBA3E0FAA3E0F9AF048F827583FC
:103D2300001203CC540F900615F00C900611E0FF1F
:103D3300ECC39F500D8C827583001203CC540FFE8D
:103D430080027E0F900615E0C454F04EFF900612D9
:103D5300E0FBA3E475F00112048BA9F0FAEF120360
:103D6300F90C80A122125BE0125D811252B712534B
:103D73001712550D12503F1253777B027D087F05B2
:103D8300121FE77D087F05124C8AE4FB7D407F0606
:103D9300121FE77B027D107F02121FE77D107F0257
:103DA300124F157B027D087F02121FE77D087F02F9
:103DB300124F15E4FB7D207F06121FE7E4FB7D1005
:103DC3007F03121FE7E4FB7D207F03121FE7E4FB61
:103DD3007D407F03121FE7E4FB7D807F03021FE723
:103DE300E4900605F0900687E0700B7D02FF123B1E
:103DF300F1EF64016061125DB4E4900605F0900692
:103E030005E0FFFD3395E0FCC3ED9414EC6480946E
:103E1300805019EF3395E0FE748A2FF58274063EC5
:103E2300F583E4F0900605E004F080D2900688E084
:103E3300C39404748094804010E490069EF090062E
:103E4300877403F0E4A3F0800BE490069EF09006E1
:103E5300877403F0125BD02290061BECF0A3EDF005
:103E6300A3EBF0AA0775965BAD97C2AFE4F5CFF568
:103E7300CEEA25E025E042CE90061BE0FEA3E0F566
:103E8300CFEE540342CEA3E0F5D175D26900000012
:103E930000E4F5CFF5CEAF05EDAF0290061B700C35
:103EA300E0FCA3E0FD12580CA907800AE0FCA3E0A4
:103EB300FD1254E3A90790061DE0B50106A37401A2
:103EC300F08005E490061EF0D2AF90061EE0FF22BC
:103ED300E4900605F0F0900605E0FFC39464748057
:103EE3009480504F75F005EFA42404F582E5F03477
:103EF30000F583E064017033900605E075F005A4D6
:103F03002404F582E5F03400F58374FFF090000497
:103F1300C083C082FDEF75F005A42400F974003559
:103F2300F0FA7B01D007D00612083A900605E004A8
:103F3300F080A37B017A0079009006117401F0A34D
:103F430074F4F07F01021B7A900603EFF0A3EDF007
:103F5300A31205EC00000000E4900609F0900604AB
:103F6300E0FF900609E0C39F503A900605E0F8A3EE
:103F7300E0F9A3E0FAA3E0FB900603E0FF12568EFC
:103F8300E4FCFDEB2FFFEA3EFEED39FDEC38FC903F
:103F930006051205E07F057E0012561F900609E014
:103FA30004F080B9900604E0FBE4FAF9F8A3E0FC1E
:103FB300A3E0FDA3E0FEA3E0FF0204FCE4FF9007FF
:103FC30063E0FEEFC39E506374A92FF582E43404CB
:103FD300F583E4F074FC2FF582E43403F583E4F015
:103FE300749D2FF582E43404F583E4F074F02FF527
:103FF30082E43403F583E4F0740C2FF582E4340493
:10400300F583E4F074912FF582E43404F583E4F04E
:1040130074E42FF582E43403F583E4F074482FF558
:1040230082E43404F583E4F00F8093E4FF024B70E1
:10403300900561E0640170057F01025E17E490065C
:1040430003F0A3741DF0E4900603F0900604E0FF70
:10405300900603E0FEC39F5037EE75F005A424C716
:10406300F582E43404F583E0FF900561E0FEEFB5EB
:104073000616900603E075F005A424C6F582E43421
:1040830004F583E0900561F0900603E004F080BB43
:10409300900561E0FF123A6B900561E0FF12511E3B
:1040A30012507822EFC3940A748094805066EF759F
:1040B300F00EA42462F582E43402F583E06F7054B9
:1040C300EF75F00EA42462F582E43402F58374FFE5
:1040D300F0EF75F00EA42463F582E43402F58374E3
:1040E300FFF090000CC083C082FDEF75F00EA42496
:1040F30064F9740235F0FA7B01D007D00612083A4E
:104103007B017A027962900611E4F0A3748CF07F4C
:1041130003021B7A7F0122125D8AC204122C94903F
:104123005E9AE49375F002A4245DF582E5F0345FB2
:10413300F583E493FE740193FFE4FCFD7803120519
:10414300CDE47B0AFAF9F81204FC90040AEEF0A31A
:10415300EFF0905E9AE49375F002A4245DF582E596
:10416300F0345FF583E493FE740193FF905F04E4FE
:1041730093FD7C00120663E47B0AFAF9F81204FC4F
:10418300900408EEF0A3EFF022E4900605F0F0901F
:104193000605E0FFC3940A748094805049E0FE75DD
:1041A300F00EA42463F582E43402F58374FFF0EE89
:1041B30075F00EA42462F582E43402F58374FFF0F3
:1041C30090000CC083C082FDEF75F00EA42464F947
:1041D300740235F0FA7B01D007D00612083A900634
:1041E30005E004F080A97B017A027962900611E46C
:1041F300F0A3748CF07F03021B7A121B597E007F9D
:10420300647DFF7B017A0179F412083A7B017A011C
:1042130079F4900611E4F0A37464F07F02121B7A20
:1042230012004E7E007F8C7DFF7B017A0279621241
:10423300083A7B017A027962900611E4F0A3748C48
:10424300F07F03121B7A90025C7401F0A3F0E4A3E5
:10425300F0A3F0900261F07B017A02795C90061181
:10426300F0A37406F0E4FF021B7A75962D5397FEB4
:104273007D087F05124F157F057E0012561F7D0AAC
:104283007F06123F4B9005FDEEF0A3EFF07D087F14
:1042930005124C8A75962D4397019005FDE0FCA30A
:1042A300E0FDE412023A7B677A407953783A1200D0
:1042B300B69005FF1205E0E4FFFE7DC87C3F900544
:1042C300FFE0F8A3E0F9A3E0FAA3E0FB1201BC7F4F
:1042D3000050027F0122C202EF25E02479F582E437
:1042E3003404F583E0FCA3E0FD90040AE0FAA3E0C4
:1042F300FBC3ED9BEC9A5020EF25E02479F582E493
:104303003404F583E0FEA3E0FF900408E0FCA3E09F
:10431300FDC3EF9DEE9C50289004B5E004F0E0C38C
:10432300940A748094804018E4F0D202F5C953F1E2
:10433300DFC200C20190046C74FFF0C204122ECAE3
:1043430022900603EFF0640A702A125E3BEF6024AA
:1043530090070CE07002A3E07005900701801190B4
:104363000701E004F0E0D39402748094804005E4F4
:10437300F0125C3C900603E0FF7E007401A807087E
:104383008005C333CE33CED8F9FF90070CE04EFE41
:10439300A3E04FFF90070CEEF0A3EFF0BE0F0ABFB0
:1043A300FF077D017F93124D1322E49005FCF07506
:1043B3009255125788125C2D125E641250B0125E31
:1043C30082125E6D123B727F07125E6112426DEFC5
:1043D300640170057F2F125078125D93125E41EFD6
:1043E3007005125CB480057F01125E17125E1DEF2B
:1043F30064617008125E51124BB780067591071203
:10440300342C124ADF125E1DEF646070DF1258A273
:1044130080DA125E1D90062EEFF07E00C3941274B4
:10442300809480400AD3EF943674809480403EEFAA
:1044330064534E7002803690062EE0FF644260059E
:10444300EF6443700F125E41EF700790055CF0A3B9
:10445300F022801990062EE064417018125E41EF3D
:10446300700B90055CF0A3F07F5D0250787F08121B
:10447300507880007F60125E1722900608EFF0A349
:10448300ECF0A3EDF0124CDDEF640170037FFF222B
:104493007F01125E557F067E0012586C7F06125E06
:1044A30058900608E0FF12597B900609E0FF125965
:1044B3007B900609A3E0FF12597B900609E0FCA359
:1044C300E0FDECFF7E00900608E0240DFBE433CB17
:1044D3002FFFEE3BFE7C00EF2D124DBF122506226F
:1044E300900606EEF0A3EFF0A3ECF0A3EDF0124C70
:1044F300DDEF640170037FFF227F01125E557F07AA
:104503007E0012586C7F0C125E58900606E0FF1274
:10451300597B900606A3E0FF12597B900608E0FF43
:1045230012597B900608A3E0FF12597B900606E020
:10453300FCA3E0FDEC2414FFE433FE7C00EF2D121A
:104543004DA912250622EFC39464748094805058B9
:1045530075F005EFA42404F582E5F03400F583E05B
:104563006D704575F005EFA42404F582E5F0340081
:10457300F58374FFF0900004C083C082FDEF75F0F3
:1045830005A42400F9740035F0FA7B01D007D006A6
:1045930012083A7B017A0079009006117401F0A3A6
:1045A30074F4F07F01021B7A7F01227EFFEFB40CCB
:1045B3000050599045BDF82828730245E10245E5AE
:1045C3000245E90245ED0245F10245F50245F902CE
:1045D30045FD02460102460502460902460D7E0AD2
:1045E300802AE4FE80267E0B80227E07801E7E04C6
:1045F300801A7E0180167E0880127E09800E7E0658
:10460300800A7E0380067E0280027E05AF0622902A
:104613000603EFF0A3741DF0900560E0FDEFC39D6A
:1046230040037F0122900603E025E024B6F582E4EF
:104633003404F583E0FE75F005A424C8F582E43460
:1046430004F583A3E0FAA3E0F94A600512065D804E
:104653001F900603E025E024B7F582E43404F583D4
:10466300E0FF123A6B900561E0FF12511E12507881
:104673007F0022900605EBF0A3EAF0A3E9F0E4FE45
:10468300EFFD7C007005A304F08028ED64014C70FD
:10469300089006087402F0801AED64024C700890CA
:1046A30006087403F0800CED64034C700690060852
:1046B3007404F0900608E0FF900605E0F9A3E0FA21
:1046C300A3E090060EC9F0A3EAF0A3E9F07B2C7AED
:1046D30001E4FDFC0232E67B017D02900604EBF06F
:1046E300A3EAF0A3E9F0A3EDF0C2AF12549B7F500D
:1046F3001238D45002802AE4900608F0900607E0AE
:10470300FFA3E0FEC39F5029900604E0FBA3E0FA59
:10471300A3E0F98E827583001203CCFF1238D450C4
:104723000812582CD2AF7F0122900608E004F080D3
:10473300CBD2AF12582C7F0022E490060EF043EC4C
:104743001090060DF090060DE0C3940874809480D9
:10475300503A5390F77F027E00125B404390087FEC
:10476300027E00125B40E59030E40790060EE044C1
:1047730001F090060DE0C39407748094805005A364
:10478300E025E0F090060DE004F080B95390F75374
:10479300ECEF5390EF90060EE0FF22E4900605F055
:1047A300A3F0125B16EF64017002FF22900602E091
:1047B300FE900682E0FF75F003A42460F582E434E2
:1047C30006F583EEF0900603E0FEEF75F003A424F4
:1047D30061F582E43406F583EEF0900604E0FEEF23
:1047E30075F003A42462F582E43406F583EEF01237
:1047F3005B8C900682EFF07F0122E4900603F0A326
:10480300F07F51125E1712594CEF6008900603E4D3
:10481300F0A304F0123ED3EF6008900603E4F0A384
:1048230004F0123AEFEF6008900603E4F0A304F0FB
:1048330012418CEF6008900603E4F0A304F09006A5
:1048430003E07002A3E070047F4C80027F081250E3
:10485300787F01025E1778027C067D017BFF7A5F19
:10486300797D7E007F0212038D9006007449F0A3C8
:104873007464F07A0679001246DA7F0A7E001256D3
:104883001F9006087401F0A37406F0A37402F0A34A
:104893007402F07B017A067900E4FD12282B90065E
:1048A30002E0B44908A3E0B44F037F01227F002252
:1048B300E4FE900600F043FB0175962D5397FE7FAF
:1048C30014125B407F0712568E53FBFE75962D43E1
:1048D3009701900730E07002A3E07008900730EE74
:1048E300F0A3EFF0D3EF94F4EE9401401890073166
:1048F300E024E2FD900730E034FFFCC3EF9DEE9C23
:1049030050037F01227F00227596515397BF7596FE
:10491300545397DF53ECFE5390FE75962D5397F740
:104923007F027E0012561F7596305397E743971800
:10493300E4F5FDF5FF43FD8053FDCF43FD2053FD1B
:10494300F043FD0553FFF743FF0853FFF843FF040C
:104953007596585397FD43FB0243FB0122EFC39423
:10496300027480948040037F0122E4FEEEC3940C22
:1049730074809480503574502EF582E43406F583A8
:10498300E0FDEF75F00CA42438F582E43406F583DA
:10499300E5822EF582E43583F583EDF074502EF530
:1049A30082E43406F583E4F00E80C17F0022900692
:1049B30005ECF0A3EDF0E4FEEFFD7C007005A3042D
:1049C300F08028ED64014C70089006077402F080B3
:1049D3001AED64024C70089006077403F0800CED26
:1049E30064034C70069006077404F0900607E0FF1A
:1049F300900605E0FCA3E0FD02447DE490062EF062
:104A0300125DD7EF702B900722E07035900724E0FA
:104A130004F07006900723E004F0C3900724E094A9
:104A230028900723E0940040189007227401F08037
:104A330010E4900723F0A3F0900722F090062E04D1
:104A4300F090062EE0FF2243C03075963453979FB3
:104A5300439740E4F5DEF5DF9006011205EC000014
:104A6300E100E4FF12522453DDF753DDFB53DDFD78
:104A730053DDFE43DD0153DDEF43DD2043DE084319
:104A8300DE0453E1FB53F4FB43F40443E70443DD47
:104A93004022E4FFEFD3940A748094805036EF757C
:104AA300F003A42460F582E43406F58374FFF0EF89
:104AB30075F003A42461F582E43406F58374FFF0F2
:104AC300EF75F003A42462F582E43406F58374FFE2
:104AD300F00F80C0E4900681F0A3F0227B017A05F9
:104AE30079FD123604EF603C125DAC9005FDE014D5
:104AF300601914601E14602324FE602214602224B3
:104B03000670219005FFE0FF0208ED9005FFE0FF2E
:104B130002184C9005FFE0FF02215F0255F9025C89
:104B2300E712540622900609EBF0A3EAF0A3E9F09A
:104B3300A37452F07B017A06790CE4FD1230E9EF9D
:104B430070037F01229006267401F0A37406F0A37C
:104B5300740CF0A37402F0900609E0FBA3E0FAA33F
:104B6300E0F9122D55EF7F0070027F0122EF701FD5
:104B7300905F0893900758F0905F09E49390075A69
:104B8300F0905F0AE493900757F0905F0B801E90BC
:104B93005F0CE493900758F0905F0DE49390075AED
:104BA300F0905F0EE493900757F0905F0FE49390BB
:104BB3000759F0227FFF9006BAE004F0E0D3940493
:104BC300748094804005E4F0125CFEEF6012125E84
:104BD30067EF700C125E85EF6006125DE5EF7011F2
:104BE300125CDB1245AE9006C0EFF0125DA41250CA
:104BF300B0125C0FEF60031255AD2253CCBFA20677
:104C0300E433C43333544042CCE4900605F09006B9
:104C130004E0FFA3E0C39F50277591072006199076
:104C23005EA0E493FF900418E0FCA3E0FD1251881A
:104C3300900606EEF0A3EFF0900605E004F080CEB8
:104C430022900605EFF0125E35EF640170239006A3
:104C530005E0FFF4FDE4F44D7E0060027E01900563
:104C630065E0FD5E6004E4F08007ED5F900565F0AC
:104C7300227F52125E17125E887BFF7A5B792B7F4D
:104C8300037E001257CB22EFB40700503E904C979F
:104C9300F8282873024CAC024CB1024CB6024CBB50
:104CA300024CC0024CC5024CCAEDF452F822EDF49A
:104CB300528022EDF4529022EDF452B022EDF452E0
:104CC300C022EDF452C822EDF452D822EEF0EFA345
:104CD300F0A3EDF0A3EAF0A3EBF07FEF12597B7F93
:104CE3000112597B125968781012596A9006D4E060
:104CF300FCA3E0FDA3E0FEA3E0FF78081205BA12CF
:104D0300597B9006D4A3A3A3E0FF12597B7F002213
:104D13007E05E4FCECC39E501174072CF582E43449
:104D230007F583E06F60030C80EAAF05A804EF0882
:104D33008002C333D8FCFF900706E02FF00CECC3CE
:104D43009E5005AF0402395E900706E0FF125A3306
:104D5300125C3C22C0E0C0F0C083C082C0D075D0DA
:104D630000C000C001C002C003C004C005C006C02B
:104D73000753F17FE5AE30E303122620D007D006B8
:104D8300D005D004D003D002D001D000D0D0D0823F
:104D9300D083D0F0D0E032FFE433FE7C00EF2DFF70
:104DA300EC3EFEA3E02FFDEC3EA3FCE0FAA3E0FB08
:104DB300EA7E002DFFEE3CFE7C00EF2BFFEC3EFE77
:104DC300900612EEF0A3EFF0900612E0FF12597B6B
:104DD300900612A3E0FF02597BAB07900622ECF08A
:104DE300A3EDF06BFBC454F06BFBFC900622E0FFD9
:104DF300EFFDEB75F008A4FFE5F06CFCEF6DFDE44F
:104E0300C4F854F0C868FEEBC4540F48FFEE6CFEC0
:104E1300EF6DFFEEF0A3EFF022E4FEEFFD7C0070F8
:104E23000790060504F08028ED64014C7008900695
:104E3300057402F0801AED64024C70089006057444
:104E430003F0800CED64034C70069006057404F0C7
:104E5300900605E0FF025005C0E0C0F0C083C082A9
:104E6300C0D075D000C000C001C002C003C004C0E0
:104E730005C006C0075388DF123240D007D006D0E2
:104E830005D004D003D002D001D000D0D0D082D03E
:104E930083D0F0D0E032C0E0C083C082C0D075D0F0
:104EA30000C007E5DF30E3219006B9E0C394147432
:104EB3008094805014E0FF04F0749F2FF582E43453
:104EC30006F583E5E2F053DFF7D007D0D0D082D0E8
:104ED30083D0E03290061EEBF0A3EAF0A3E9F0EFF3
:104EE300B401067463FCFD8004E4FEFF2290061EF9
:104EF300E0FBA3E475F00112048BA9F0FA1203B3EB
:104F0300FAFF124DDCAC06AD07900621E014F070F9
:104F1300DC22EFB407005037904F22F828287302A1
:104F23004F37024F3B024F3F024F43024F47024F5F
:104F33004B024F4FED42F822ED428022ED42902288
:104F4300ED42B022ED42C022ED42C822ED42D8220A
:104F5300AE07125153EF7032EE25E024F4F582E4EC
:104F63003401F58374FFF0EE25E024F5F582E43493
:104F730001F58374FFF07B017A0179F4900611E463
:104F8300F0A37464F07F02021B7A7F01229006046F
:104F9300EBF0A3EAF0A3E9F07B017A0679507D02F6
:104FA3001237BB900604E0FBA3E0FAA3E0F9EF128B
:104FB30003F9900604E0FBA3E0FAA3E0F91203B3BC
:104FC300F47F0160027F0022C0E0C083C082C0D0B2
:104FD30075D000C00753887FE5895430C4540F64EB
:104FE30002600685098D850B8B9006B8E004F0708E
:104FF300069006B7E004F0D007D0D0D082D083D09B
:10500300E032900606EFF0124CDDEF640170037F8F
:10501300FF227F01125E557F047E0012586C7F02CF
:10502300125E58900606E0FF12597B900606E024B4
:1050330007FFE433FE124DC3122506227B027D10C7
:105043007F04121FE77D107F04124F157B017D2023
:105053007F04121FE77D207F04124F157B027D80A2
:105063007F04121FE77D807F04124F157B017D4073
:105073007F04021FE790062FEFF0C3945D748094C2
:10508300805005E0FF02372E90062FE024A3A3F003
:10509300900630E0246AF582E43405F583E0FF608E
:1050A3000B12372E900630E004F080E422124A4AB5
:1050B3007F2C7E0112561F125DC290071CE4F0A3E1
:1050C3007403F090071C74FFF5F012047545F0604B
:1050D300137B017A0779171254B9EF645570E47F93
:1050E30001122AF922E49005FFF043FB0112303B41
:1050F300EF70079005FF04F08005E49005FFF09042
:105103000730E07002A3E070099005FFE07003121E
:1051130048B353FBFE9005FFE0FF22E4FE75F00267
:10512300EEA424EEF582E5F03402F583E0FDC394AA
:105133009B748094805007ED6F60030E80DF75F0E1
:1051430002EEA424EFF582E5F03402F583E0FF22BA
:10515300EFC39432748094805028EF25E024F5F552
:1051630082E43401F583E06F7018EF25E024F4F551
:1051730082E43401F583E06D6005ED640270037F22
:1051830000227F0122AB078DCA53CC7FEC5401C3AD
:1051930013E41342CC53CCC0EB543F42CCC2007552
:1051A300C90130030343AD1020000575910780F852
:1051B300AFACEFFEADABEDFF22E4FFEFFD7C00C330
:1051C300946474809480501675F005EFA42404F55C
:1051D30082E5F03400F583E0F460030F80DDC3ED76
:1051E3009464EC648094805001227FFF229005FC3C
:1051F3007401F0125B017FFA7E0012561F1259B63A
:10520300EF700E7FFAFE12561F1259B69005FCEF8F
:10521300F09005FCE0FF6401700690072AF0A3F00C
:1052230022900600EFF0A3E0F8A3E0F9A3E0FAA3CD
:10523300E0FB7F607EE37D167C001204FC90060099
:10524300E070088FDCEE540342DE228FD6EE540367
:1052530042D9227F02EFFD7C00C394327480948094
:105263005013EF25E024F5F582E43401F583E0F4EF
:1052730060030F80E0C3ED9432EC648094804003BC
:105283007FFF2222E4FB7D107F04121FE77D107F46
:1052930004124C8AE4FB7D207F04121FE77D207FEC
:1052A30004124C8AE4FB7D807F04121FE77D807F1C
:1052B30004024C8A7B027D207F01121FE77B027D63
:1052C300407F01121FE77B027D807F01121FE77D74
:1052D300207F01124F157D407F01124F157D807F86
:1052E30001024F15E4FB7D207F01121FE7E4FB7DE4
:1052F300407F01121FE7E4FB7D807F01121FE77DE2
:10530300207F01124C8A7D407F01124C8A7D807F71
:1053130001024C8A7B027D017F01121FE77B027D24
:10532300027F01121FE77B027D047F01121FE77DCD
:10533300017F01124C8A7D027F01124C8A7D047F1A
:1053430001024C8AE4FB7D017F01121FE7E4FB7D30
:10535300027F01121FE7E4FB7D047F01121FE77D3B
:10536300017F01124C8A7D027F01124C8A7D047FEA
:1053730001024C8A7B027D017F06121FE77D017FBC
:1053830006124C8A7B027D047F06121FE77D047F91
:1053930006124C8A7B027D027F06121FE77D027F85
:1053A30006024C8AE4FB7D017F06121FE77D017F25
:1053B30006124C8AE4FB7D047F06121FE77D047FFF
:1053C30006124C8AE4FB7D027F06121FE77D027FF3
:1053D30006024C8AEF25E024F5F582E43401F583D7
:1053E300EFF025E024F4F582E43401F583EDF07B5E
:1053F300017A0179F4900611E4F0A37464F07F025A
:10540300021B7A90072BE004F0700690072AE00451
:10541300F0124859EF6401700302571EC390072B23
:10542300E0949690072AE0940040030256FA125C37
:10543300F322E4FB7D02FF121FE77D02E4FF124C1F
:105443008AE4FB7D01FF121FE77D01E4FF124C8A12
:10545300E4FB7D047F05121FE77D047F05024C8A70
:1054630075962D5397DF75962D5397FD1252B712EC
:10547300531712550D12503F125377125DC9125A2A
:10548300AD124A4A7FC87E0002561FEFF0A3EBF02D
:10549300A3EAF0A3E9F0C2AF53ECEF4390104390BB
:1054A300087F017E00125B405390EF7F017E001264
:1054B3005B405390F72212061D00000000124CDDE2
:1054C300EF640170037FFF227F01125E551258685B
:1054D3007F53125E587F577E00124DC3122506225A
:1054E300EF6009E42DFBEC3446FA8007E42DFBEC76
:1054F3003444FAC2AF75D288EAF5CEEBF5CFAFD418
:10550300E4F5D2F5CEF5CFD2AF227B017D02E4FFE5
:10551300121FE77B027D01E4FF121FE77D01E4FF19
:10552300124C8A7B027D047F05121FE77D047F05F1
:10553300024F1553ECEF5390EF5390F7EF60054391
:10554300901080035390EF7F017E00125B404390E5
:10555300087F017E00125B405390F722E49006B966
:10556300F0124CDDEF640170037FFF227F01125EB6
:10557300551258687F01125E587F057E00124DC395
:1055830012250622EFFB7A00700C8DE2E5DF541042
:1055930060FA53DFEF22EB64014A700DAF058FDB36
:1055A300E5DA541060FA53DAEF22E4FBFD7F06904C
:1055B30005FFEFF0A3EDF0A3EBF078027C067D018D
:1055C3007B017A0579FF7E007F0312038D02479EDC
:1055D300E49006C3F09006C2F0FE7F087DFF7B01D6
:1055E3007A0679C412083A7E007F087DFF7B017A30
:1055F3000679CC02083A125E1DEF6454700B125EFA
:1056030047EF64987003025DEC1241FDEF70047F75
:105613004C80027F08125078125CB422AB07AA06B2
:10562300D3EB9400EA940040177C037D5A759107ED
:10563300ED1D70011CED4C70F4EB1B70E31A80E060
:105643002253DDBF125DD01254351252871253A775
:105653001252E712534775962D43970275962D43C1
:10566300972075925522124CDDEF640170037FFF82
:10567300227F01125E551258687F03125E587F071E
:105683007E00124DC37D051225082253C381EF25E9
:10569300E0547E42C343C301E5F120E4057591075D
:1056A30080F653F1EFE5C5540FFEADC6EDFF229032
:1056B300025EE0B507037F002290025EEFF07B01FC
:1056C3007A02795C900611E4F0A37406F0E4FF1209
:1056D3001B7A2290025DE0B507037F002290025DF2
:1056E300EFF07B017A02795C900611E4F0A3740673
:1056F300F0E4FF121B7A22E4FF125A65125E1DEFDB
:10570300645570077F01125E17800B125E1DEF64F4
:10571300617003125DA47F080250787F01125A65FD
:10572300125E1DEF645570077F01125E17800B1226
:105733005E1DEF64617003125DA47F050250781251
:105743004CDDEF640170037FFF227F01125E55126F
:1057530058687F05125E587F097E00124DC31225DB
:105763000622124CDDEF640170037FFF227F0112DA
:105773005E551258687F0D125E587F117E00124DE0
:10578300C312250622C2AF7F04125C4B75962D53BC
:1057930097DF7596305397F8D2AF75962D5397EFE1
:1057A3007FDC7E0502561F7C0C5393FB439304530B
:1057B30093FD4393025393F7ECF5947595CC53F112
:1057C3007F53F67F53E67F22E490055EF0A3F090CB
:1057D3000567EEF0A3EFF0900562EBF0A3EAF0A308
:1057E300E9F090055B7401F02275962AE4F597754C
:1057F3009653F597759654F597759655F59775964F
:1058030056F597759657F59722EF25E025E0FEC3E9
:10581300E49400FF74FC9E8F82F583E5822DF5826C
:10582300E5833CF583E493FF225390F753ECEF5366
:1058330090EF7F017E00125B404390087F017E0062
:10584300125B404390102278387C067D017B017AFD
:105853000679447E007F0C120816EF3395E04F7FE4
:10586300017001FF227F037E00900612EEF0A3EF8A
:10587300F0900612E0FF12597B900612A3E0FF029C
:10588300597BC2AFE4F5CFF5CEEF25E025E042CE5C
:1058930075D29600000000E4F5CFF5CED2AF22908A
:1058A30006C0E0F47015125E73EF700F125E85EFA1
:1058B3006009125DE5EF6003120056221251BCEF3E
:1058C300F470087F5C125078025A7E7F5D12507824
:1058D3001255D37F12125E17225389FC4389025358
:1058E30089FBC3E49FFF74019EFEAD078D8C8D8AF7
:1058F300E4FF02599C74FFFFFEEF1FAC0670011E0C
:105903004C600BE5FB30E3F153FBF77F01227F0093
:10591300221251F0EF70087F08125078025A7E7FEE
:1059230055125E177F2F125078125CF3227D407F51
:1059330004123BF1EF700A90071BE0700904F0FFBB
:1059430022E490071BF07F002290025D7401F0E4D3
:10595300A3F07B017A02795C900611F0A37406F040
:10596300E4FF021B7A78189006D4E0FCA3E0FDA3C1
:10597300E0FEA3E0FF1205BAAD07E4FF02558790EE
:1059830005FF74FFF0122BD1300108122921900575
:10599300FFEFF09005FFE0FF22EFFD7C007007852D
:1059A3008C08858A0A22ED64014C7006858D098571
:1059B3008B0B229005FD7469F0A37464F07A05796A
:1059C300FD1246DAEF7F0070027F01227F07125E2D
:1059D300297F011256D6EF70047F2180027F2212A5
:1059E3005078025A7E7F07125E29E4FF1256D6EFE3
:1059F30070047F2180027F22125078025A7E7F0733
:105A0300125E29E4FF1256B2EF70047F2180027FF9
:105A130022125078025A7E7F07125E297F011256A6
:105A2300B2EF70047F2180027F22125078025A7EE7
:105A3300900260EFF07B017A02795C900611E4F04A
:105A4300A37406F0E4FF021B7A90025FEFF07B0180
:105A53007A02795C900611E4F0A37406F0E4FF0285
:105A63001B7A900261EFF07B017A02795C90061158
:105A7300E4F0A37406F0E4FF021B7A900561E0FFF3
:105A8300123A6B900561E0FF12511E1250787F535A
:105A9300025E1775962D5397FD122BD175962D43E4
:105AA30097027F003001027F01227D207F01124C8B
:105AB3008A7D407F01124C8A7D807F01024C8A7D62
:105AC300017F06124F157D047F06124F157D027F5D
