:1000000002591E020086E4FF027C0E027324E4FF04
:10001000027C3102008EE4FF027C54027494E4F509
:10002000C9C20053F1DF9003D5E0FEA3E0F5CA5347
:10003000CC7FEE5401C313E41342CC53CCC0908860
:100040009EE493543F42CC75C9012202009653E1CD
:10005000DF323202006E1288837F2A1275B47F600D
:100060000286D40287B953E1F7323202006A53F1B3
:02007000F73265
:100073000271DF7F891275B4127A797F410286D4C7
:070083000200AE5388FD32BC
:07008B000273625388F73293
:0700930002006653F1FB328D
:07009B0002005253E1BF32E5
:0700A30002004E53E17F3221
:0700AB0002009E53E1FD324B
:1000B3000200A60203D7E86480F8E933E83360114D
:1000C3000460F0ED33EC337009E8FCE9FDEAFEEB84
:1000D300FF220460DED3EB9FEA9EE99DE8C2E78C32
:1000E300F0C2F795F0400CE8CCF8E9CDF9EACEFA86
:1000F300EBCFFB1203A285D0F05804700320D5B3D5
:10010300E80470075002B2D50203E192D5EC046013
:10011300F7E4CCC0E0C398F8603B94186008400D46
:10012300D0E0FB0203B9E4FBFAC9FC8028E830E421
:1001330006E4C9FBE4CAFCE830E305E4C9CACBFC26
:10014300E854076010F8C3E913F9EA13FAEB13FB59
:10015300EC13FCD8F130F52FC3E49CFCEF9BFFEECE
:100163009AFEED99FDD0E0FBEF4E4D4C701222DB71
:10017300030203DEEC2CFCEF33FFEE33FEED33FD25
:10018300ED30E7EB0203B9EF2BFFEE3AFEED39FD5D
:10019300D0E0FB50130BBB00030203E1ED13FDEEB4
:1001A30013FEEF13FFEC13FC0203B9EC4D6011E8EF
:1001B300497017ED33EC3304600DE4FCFFFEFD22C0
:1001C300E933E8330470F80203D71203A25804603A
:1001D30009E4CC248150062850090203E128400396
:1001E3000203DEC0E0EB4A7044B98006D0E0FB02B4
:1001F30003CDEF4E701CBD8008EBFFEAFEE9FD80E6
:10020300EBE98DF0A4FEE5F0020297E9CDF9EAFEF1
:10021300EBFFEF89F0A4FCE5F0CE89F0A42EFFE418
:1002230035F0CD89F0A42DFEE435F08067EF4E70F4
:1002330005BD80D780C3EF8BF0A4ACF0EE8BF0A4A8
:100243002CFCE435F0F8EF8AF0A42CE5F038FCE45C
:1002530033CB8DF0A42CFCE5F03BF8EE8AF0A42C14
:10026300FCE5F038F8E433CF89F0A42CFCE5F03852
:10027300CF3400CE89F0A42FFFE5F03EFEE433C96E
:100283008DF0A42EFEE5F039CD8AF0A42FFFE5F022
:100293003EFEE43DFD33D0E0FB50070BBB000F02F5
:1002A30003E1EC2CFCEF33FFEE33FEED33FD0203F1
:1002B300B974F8CC6480CCC86480C8F58204604FFC
:1002C300C3EB9FF5F0EA9E42F0E99D42F0E89C45BE
:1002D300F0603C501DE5825FFFE582D313CB5BCB1F
:1002E300F42B5582FB50280ABA002409B9002008D0
:1002F300801DE5825BFBE582D313CF5FCFF4C3138D
:100303002F5582FF50090EBE00050DBD00010CC321
:10031300EB9FF5F0EA9E42F0E99D42F0E89C45F040
:100323006007CC4820E701B3EC2275F020800E75FE
:10033300F010800575F0087D007E007F003392D5B4
:1003430030D5031207E2EC334010EF33FFEE33FEF8
:10035300ED33FDEC33FCD5F0ED22E5F0247EA2D5A0
:1003630013CC92E7CDCEFF22EDD2E7CD33EC33921F
:10037300D524814006E4FFFEFDFC22FCE4CFCECD74
:10038300CC24E0501174FF80EDC3CC13CCCD13CD3E
:10039300CE13CECF13CF0470F030D5DE0207E2E9DF
:1003A300D2E7C933E833F892D5EDD2E7CD33EC3356
:1003B300FC5002B2D522EC30E7100FBF000C0EBE8A
:1003C30000080DBD00040BEB6014A2D5EB13FCED8C
:1003D30092E7FD2274FFFCFDFEFF22E480F8A2D524
:1003E30074FF13FC7D80E480EFED33EC3360100485
:1003F300700FED547F7005740292E022740422049E
:1004030022E422ED33EC33600A047003BD8004EC74
:10041300B2E7FC220203E1EC5D046005E8590470D5
:10042300030203D71203A2580460F6EC4860F2EC0F
:100433007004FDFEFF22C860DB2481C85009C39805
:10044300600250060203DE9850CAF582E9294B4A3E
:100453007005AB820203CD75F0007C1A7880C3EF80
:100463009BEE9AED99400DC3EF9BFFEE9AFEED993B
:10047300FDE842F0DC23ACF0D0E0FFD0E0FED0E0BA
:10048300FDAB8220E7101BEB60BAEC2CFCEF33FFD3
:10049300EE33FEED33FD0203B9E803F830E705C0A0
:1004A300F075F000EF2FFFEE33FEED33FD40B83073
:1004B300E7C280AAC0E0EFFBEEFAEDF9ECF8120117
:1004C300AED0E0F5F0EFFBEEFAEDF9ECF812083DF3
:1004D300A3A3A3A3E8C0E0E9C0E0EAC0E0EBC0E067
:1004E300C0F01201AE120859A3A3A3A31200BDD0FA
:1004F300F0D0E0FBD0E0FAD0E0F9D0E0F8D5F0D4CA
:1005030022E709F608DFFA8046E709F208DFFA80F6
:100513003E88828C83E709F0A3DFFA8032E309F691
:1005230008DFFA8078E309F208DFFA807088828CAA
:1005330083E309F0A3DFFA806489828A83E0A3F668
:1005430008DFFA805889828A83E0A3F208DFFA8001
:100553004C80D280FA80C680D4806980F280338058
:100563001080A680EA809A80A880DA80E280CA8020
:100573003389828A83ECFAE493A3C8C582C8CCC5C5
:1005830083CCF0A3C8C582C8CCC583CCDFE9DEE742
:10059300800D89828A83E493A3F608DFF9ECFAA934
:1005A300F0EDFB2289828A83ECFAE0A3C8C582C8F6
:1005B300CCC583CCF0A3C8C582C8CCC583CCDFEA45
:1005C300DEE880DB89828A83E493A3F208DFF98083
:1005D300CC88F0EF60010E4E60C388F0ED2402B4C6
:1005E300040050B9F582EB2402B4040050AF232376
:1005F30045822390055473BB010689828A83E022D6
:100603005002E722BBFE02E32289828A83E493221B
:10061300BB010CE58229F582E5833AF583E022509C
:1006230006E92582F8E622BBFE06E92582F8E222E6
:10063300E58229F582E5833AF583E49322BB01063B
:1006430089828A83F0225002F722BBFE01F322F84B
:10065300BB010DE58229F582E5833AF583E8F022B3
:100663005006E92582C8F622BBFE05E92582C8F2B9
:1006730022EF8DF0A4A8F0CF8CF0A428CE8DF0A4A7
:100683002EFE22C2D5EC30E709B2D5E4C39DFDE4CA
:100693009CFCEE30E715B2D5E4C39FFFE49EFE1247
:1006A3000BD8C3E49DFDE49CFC8003120BD830D52A
:1006B30007C3E49FFFE49EFE22C5F0F8A3E028F001
:1006C300C5F0F8E582158270021583E038F022A3A5
:1006D300F8E0C5F025F0F0E582158270021583E09D
:1006E300C838F0E822BB010A89828A83F0E5F0A3C7
:1006F300F0225006F709A7F01922BBFE06F3E5F036
:1007030009F3192275F008758200EF2FFFEE33FE0F
:10071300CD33CDCC33CCC58233C5829BED9AEC99D6
:10072300E58298400CF582EE9BFEED9AFDEC99FC78
:100733000FD5F0D6E4CEFBE4CDFAE4CCF9A88222BF
:10074300B800C1B90059BA002DEC8BF084CFCECDDF
:10075300FCE5F0CBF97818EF2FFFEE33FEED33FD18
:10076300EC33FCEB33FB10D703994004EB99FB0FFD
:10077300D8E5E4F9FA227818EF2FFFEE33FEED33D4
:10078300FDEC33FCC933C910D7059BE99A4007EC4C
:100793009BFCE99AF90FD8E0E4C9FAE4CCFB227593
:1007A300F010EF2FFFEE33FEED33FDCC33CCC83327
:1007B300C810D7079BEC9AE899400AED9BFDEC9A89
:1007C300FCE899F80FD5F0DAE4CDFBE4CCFAE4C801
:1007D300F922CFF4CFCEF4CECDF4CDCCF4CC22C3DA
:1007E300E49FFFE49EFEE49DFDE49CFC22EB9FF569
:1007F300F0EA9E42F0E99D42F0EC6480C864809880
:1008030045F022EB9FF5F0EA9E42F0E99D42F0E8C5
:100813009C45F022E8600FECC313FCED13FDEE13CF
:10082300FEEF13FFD8F122E8600FEFC333FFEE337F
:10083300FEED33FDEC33FCD8F122E493FC74019319
:10084300FD740293FE740393FF22E0F8A3E0F9A37F
:10085300E0FAA3E0FB22E493F8740193F9740293A2
:10086300FA740393FB22ECF0A3EDF0A3EEF0A3EFF5
:10087300F022A8828583F0D083D08212088C1208DC
:100883008C12088C12088CE473E493A3C583C5F01F
:10089300C583C8C582C8F0A3C583C5F0C583C8C5D1
:1008A30082C822BB010789828A830208755005E941
:1008B300F8020C2DBBFE05E9F8020C4622D083D0CA
:1008C30082F8E4937012740193700DA3A393F874E8
:1008D3000193F5828883E4737402936860EFA3A3A2
:1008E300A380DF8A838982E473EC8EF0A4CCC5F005
:1008F300CCCDF8EFA4CEC5F02DFDE43CFCE8A42E4E
:10090300C8C5F03DFDE43CFCEFA4FFE5F028FEE4A0
:100913003DFDE43CFC22E709F60870FA8046E7094E
:10092300F20870FA803E88828C83E709F0A370FA9C
:10093300807EE309F60870FA8076E309F20870FA1C
:10094300806E88828C83E309F0A370FA80628982C7
:100953008A83E0A3F60870FA805689828A83E0A32B
:10096300F20870FA804A80D280FA80C680D480650B
:1009730080F28031801080A680EA809A80A880DA95
:1009830080E280CA803189828A83ECFAE493A3C827
:10099300C582C8CCC583CCF0A3C8C582C8CCC583E7
:1009A300CC70E9800D89828A83E493A3F60870F9F9
:1009B300ECFAA9F0EDFB2289828A83ECFAE0A3C862
:1009C300C582C8CCC583CCF0A3C8C582C8CCC583B7
:1009D300CC70EA80DD89828A83E493A3F20870F9FC
:1009E30080CE88F0ED2402B4040050C4F582EB24D9
:1009F30002B4040050BA232345822390096973E3A8
:100A0300F5F009E208B5F06BDFF58067E3F5F0096F
:100A1300E608B5F05EDFF5805A87F009E608B5F021
:100A230052DFF6804E87F009E208B5F046DFF68024
:100A33004288828C8387F009E0A3B5F036DFF68025
:100A43003288828C8387F009E493A3B5F025DFF520
:100A5300802188828C83E3F5F009E0A3B5F014DFED
:100A6300F5801088828C83E3F5F009E493A3B5F055
:100A730002DFF4020B31808780E9809080D4803ECE
:100A83008015806E807E809D80B7808D80A380518D
:100A93008074803C020B3D89828A83ECFAE493F5EF
:100AA300F0A3C8C582C8CCC583CCE493A3C8C582D0
:100AB300C8CCC583CCB5F076DFE3DEE180708982F4
:100AC3008A83E493F5F0A3E208B5F062DFF4805E75
:100AD30089828A83E0F5F0A3E608B5F051DFF5805B
:100AE3004D89828A83E0F5F0A3E208B5F040DFF593
:100AF300803C89828A83E493F5F0A3E608B5F02E5F
:100B0300DFF4802A8002805789828A83ECFAE49397
:100B1300F5F0A3C8C582C8CCC583CCE0A3C8C58201
:100B2300C8CCC583CCB5F006DFE4DEE280007FFFEE
:100B3300B5F0020F2240027F012289828A83ECFAF8
:100B4300E0F5F0A3C8C582C8CCC583CCE0A3C8C573
:100B530082C8CCC583CCB5F0D5DFE5DEE380CF8991
:100B6300828A83ECFAE0F5F0A3C8C582C8CCC583BA
:100B7300CCE493A3C8C582C8CCC583CCB5F0AFDFA2
:100B8300E4DEE280A988F0EF60010E4E60ABED2455
:100B930002B404005098F582EB2402B40400508E92
:100BA3002323458223900A7973EF4E6012EF60018D
:100BB3000EEDBB010B89828A83F0A3DFFCDEFA22F0
:100BC30089F05007F709DFFCA9F022BBFEFCF3090B
:100BD300DFFCA9F022BC000BBE0029EF8DF084FFDF
:100BE300ADF022E4CCF875F008EF2FFFEE33FEEC06
:100BF30033FCEE9DEC984005FCEE9DFE0FD5F0E92D
:100C0300E4CEFD22EDF8F5F0EE8420D21CFEADF02B
:100C130075F008EF2FFFED33FD4007985006D5F030
:100C2300F222C398FD0FD5F0EA22D083D082E49359
:100C3300F608740193F608740293F608740393F6A6
:100C4300740473D083D082E493F208740193F2089E
:100C5300740293F208740393F2740473900476EFAE
:100C6300F0128853A3EFF01208C00CD6010CD60281
:100C73000CD6120CD6131314141314151314160CC8
:100C8300D61712DC2212DC23131424131425131495
:100C93002612DC2712DC2812DC3212DC3313143464
:100CA3001314351314360CD6410CD64212FA4312E0
:100CB300FA4413145013B65313E7541447550CCB8B
:100CC30060144F700000145A7F011286D490047789
:100CD3007401F0128421EF6401700B1288597F2E86
:100CE3001275B402881F9005B6E07062900476E036
:100CF300640A7037A3E06441700302145A1285D06A
:100D0300900477E0FD7C00640170057F600212F4BB
:100D1300ED64024C70057F010212F49006F7E07057
:100D2300030213B3E4F07F010212F4900476E0644B
:100D33000B701BA3E06401600302145A1285D0E414
:100D43009005B3F07F831275B47F020212F412850B
:100D5300D0900476E0FFC374809480407CD3EF94FA
:100D6300097480948050729005B6E0C39420748017
:100D730094805065900477E0FF64016005EF64029E
:100D83007016900476E0FF9005B6E0FE04F074B7A9
:100D93002EF582E43405803D9005B5E0FF7E0070BA
:100DA3001A900476E0FD9005B6E0FC04F074B72CCD
:100DB300F582E43405F583EDF0801EEF64014E7097
:100DC30018900476E0FF9005B6E0FE04F074D72E89
:100DD300F582E43405F583EFF0900476E0640A606D
:100DE30003020EBA9005B5E0FF7E00700FA3E0FD8D
:100DF30014F074B72DF582E434058015EF64014EC9
:100E030070149005B6E0FF14F074D72FF582E43424
:100E130005F58374FFF09005B6E0600302145A9061
:100E23000477E0640270057F8302144C9005B5E0FB
:100E3300703D900477E0FF64126005EF641770055E
:100E43007F6202144C900477E0641370057F740290
:100E5300144C900477E0644170057F8902144C9030
:100E63000477E06442600302145A7F6202144C90D8
:100E730005B5E06401600302145A900477E0FF644F
:100E8300126005EF641770057F6802144C900477B5
:100E9300E0641370057F0402144C900477E064410E
:100EA30070057F6802144C900477E064426003028B
:100EB300145A7F6802144C900476E0640B600B9024
:100EC30005B6E06408600302145A9005B6E0FF7E9D
:100ED30000C3940674809480400302103C9004770E
:100EE300E06401600302101BEF6401700E9005B70C
:100EF300E064057006127B350210949005B6E06439
:100F030001700CA3E0640670061279D40210949069
:100F130005B6E06402700EA3E0700AA3E070061247
:100F230086A10210949005B6E064027012A3E064F7
:100F330001700CA3E06408700612881302109490E9
:100F430005B6E064027012A3E06401700CA3E064D0
:100F53000970061288890210949005B6E064027045
:100F630010A3E06402700AA3E0700612881902104D
:100F7300949005B6E064027012A3E06402700CA3BF
:100F8300E06405700612888C0210949005B6E06444
:100F9300027012A3E06402700CA3E06406700612F0
:100FA30087450210949005B6E064027012A3E064D2
:100FB30002700CA3E0640870061284D002109490AF
:100FC30005B6E064027010A3E06403700AA3E07046
:100FD300061284690210949005B6E064027032A38D
:100FE300E0702EA3E06401702812887AEF64017028
:100FF3000E9005B304F07F831275B47F02800C7FDB
:1010030001127D987F5F1275B47F011286D402109E
:10101300947F01126B4380797F651275B4E4900568
:10102300B6F09005B5E070030210E69005B5E064F4
:1010330001600302145A021137900477E0640170CF
:1010430057A3F07B017A0579B79005B6E0FD12331B
:10105300D6900478EFF0F470077F01126B43803170
:10106300900478E064FE701812887AEF64017010BF
:10107300FF127D987F601275B47F011286D48011B0
:10108300900478E0640170047F1180027F011249AB
:101093008CE49005B6F0804B900477E064027050C6
:1010A3007B017A0579B79005B6E0FDE490047DF005
:1010B3001246D5EFF470077F8C1275B4802090052B
:1010C300B3E064017010FF127D987F601275B47FE6
:1010D300011286D480087F011287E9127E64E490AE
:1010E30005B6F0FE7F207DFF7B017A0579B7804F3F
:1010F3009005B5E0704C900477E0FF6412601BEF3D
:10110300641770028014900477E0641370047F0402
:101113008016900477E0644170047F68800A90042D
:1011230077E0644270057F681275B49005B5740169
:10113300F0E4A3F0FE7F207DFF7B017A0579D702DF
:101143000BAC9005B5E06401600302145A78B77CD8
:10115300057D017B017A0579D7FE7F08120B88EFA5
:101163003395E04F60030212D4900477E064137068
:10117300507B017A0579B79005B6E0FD90047D7444
:1011830001F01246D5900478EFF0F470057F7102F8
:1011930012D6900478E0FF7D01126897EF701790E4
:1011A3000478E0900234F07F051275B4900234E0C5
:1011B300FF12854180057F6E1275B41286EB021211
:1011C300D97B017A0579B79005B6E0FD90047D746B
:1011D30003F01246D5EFF460057F860212D6900421
:1011E30077E06412703F7B017A0579B79005B6E02A
:1011F300FD90047D7401F01247C1EF640170077F15
:101203006E1275B4800D7F051275B4900234E0FF41
:101213001285319006F7E070061286E10212D912A8
:1012230086CD0212D9900477E0644170317B017A54
:101233000579B79005B6E0FDE490047DF01247C14F
:10124300EF640170077F6E1275B4800D7F05127510
:10125300B4900234E0FF1285311284458078900403
:1012630077E06442702E7B017A0579B79005B6E08A
:10127300FDE490047DF01247C1EF640170077F6EB7
:101283001275B480477F051275B4900234E0FF12E3
:1012930085318038900477E06417703A7B017A05D2
:1012A30079B79005B6E0FD90047D7402F01247C152
:1012B300EF640170077F6E1275B480101288317F5E
:1012C300051275B4900234E0FF128531127E6480FA
:1012D300057FD31275B4027A79900476E0640A60CC
:1012E3000302145A1285D09006F7E06007E4F07FFA
:1012F300010286D40213B3900476E0640A60030209
:10130300145A1285D0128877EF70030286D702131E
:10131300B3900476E0640B60030213A51285D090AA
:101323000477E01208C0134B14139015139316138C
:101333006224139625139926137934139C35139F2E
:101343003613A2500000145A1260C7EF700A7F05CB
:101353001275B41287FB80057F081275B480511291
:1013630062A7EF700A7F051275B412880180057FAA
:10137300081275B4803A1264EAEF700A7F05127599
:10138300B412880780057F081275B48023027E2A71
:10139300028654027C99028433027E4702866102EC
:1013A3006E29900476E0640A600302145A1285D011
:1013B300027E64900476E0640A70061285D00262AD
:1013C30031900476E0700302145A1287EF9004768A
:1013D300E0D39F400302145A1285D0900476E014A0
:1013E300FF0269601287F5900478EFF06496700B42
:1013F3001285D0900476E0FF02662F900478E064B3
:10140300997035900476E0640A70181285D01286BC
:1014130088128874EF600280287F587E02127AEB6C
:1014230002867B900476E0640B702C1285D01286C2
:10143300887D017F9902719B128874EF6019128570
:10144300D002860C1288597F4D0275B41288597FD9
:101453002F1275B412861B2290049FE0F9A3E0FAC1
:10146300A3E09004CAC9F0A3EAF0A3E9F0A37401CE
:10147300F0A37404F0A374A8F090049CE0FBA3E031
:10148300FAA3E0F99004C7EBF0A3EAF0A3E9F09024
:101493000006120613FF3395E0FEEF24D0FFEE346F
:1014A300FFFE7C007D0A120674C006C0079000058B
:1014B300120613FF3395E0FEEF24D0FFEE34FFFE58
:1014C3007D64120674D0E02FFFD0E03EFE9000074B
:1014D300120613FD3395E0FCED24D0FDEC34FFCD73
:1014E3002FFFED3E9004D0F0A3EFF0E49004DCF086
:1014F300A3F09004CAE0FBA3E0FAA3E0F91283AAE5
:101503009004E7EEF0A3EFF0E49004F3F0A3F07A95
:101513000479F59004D0125117E49004DCF0A3F0A1
:101523009004DCE0FEA3E0FFC39405EE64809480A6
:1015330050639004C7E0FBA3E0FAA3E0F98F828E27
:1015430083120613FF3395E0FEEF24D0FFEE34FF42
:101553009004FFF0A3EFF09004FFE0FEA3E024F576
:10156300F58274043EF583E0FD9004DDE025E0FFA1
:101573009004DCE033FE74D22FF58274043EF583CD
:10158300E4F0A3EDF09004DDE004F070939004DC4C
:10159300E004F0808B7E007F097D007B017A047973
:1015A300DE120BAC9004E7E07004A3E0640870164D
:1015B30078DE7C047D019004CAE0FBA3E0FAA3E09B
:1015C300F91209E58079D39004E8E094089004E7E0
:1015D300E06480948040279004CAE0F9A3E0FAA372
:1015E300E0900504C9F0A3EAF0A3E9F0A3E4F0A3B3
:1015F3007408F07B017A0479DE126698804178DE04
:101603007C047D019004CAE0FBA3E0FAA3E0F91295
:1016130009E590050474FFF0A37489F0A37486F0C0
:101623009004E7E0FEA3E0FFC374089F900508F071
:10163300E49E900507F07B017A0479DE124B459016
:1016430004DFE0FB3395E0FA9004DEE0FF3395E03E
:10165300FEC3EF9BFFEE9AFE9004E0E0F9FD3395A5
:10166300E0FCEF2DFFEE3CFEA3E0FD3395E0FCC371
:10167300EF9DFFEE9CFEA3E0FD3395E0FCEF2DFF15
:10168300EE3CFEA3E0FD3395E0FCC3EF9DFFEE9C33
:10169300FEA3E0FD3395E0FCEF2DFFEE3CFEA3E05F
:1016A300FD3395E0FCC3EF9DFFEE9C9004E9F0A3AE
:1016B300EFF0C374309BFFE49AFEE9FD3395E0FC41
:1016C300EF2DFFEE3CFE9004E1E0F9FB3395E0FAE9
:1016D300C3EF9BFFEE9AFEA3E0FB3395E0FAEF2BFB
:1016E300FFEE3AFEA3E0FB3395E0FAC3EF9BFFEE78
:1016F3009AFEA3E0FB3395E0FAEF2BFFEE3AFEA34D
:10170300E0FB3395E0FAC3EF9BFFEE9A9004EBF016
:10171300A3EFF0E9FF3395E0FEC3ED9FFFEC9EFEE0
:101723009004E2E0FD3395E0FCEF2DFFEE3CFEA3D9
:10173300E0FB3395E0FAC3EF9BFFEE9AFEA3E0FBD9
:101743003395E0FAEF2BFFEE3AFEA3E0FB3395E08F
:10175300FAC3EF9BFFEE9A9004EDF0A3EFF0E9FFDD
:101763003395E0FEC374309FCFE49ECF2DCF3CFE74
:101773009004E3E0FD3395E0FCC3EF9DFFEE9CFE98
:10178300A3E0F9FB3395E0FAEF2BFFEE3AFEA3E07B
:10179300FB3395E0FAC3EF9BFFEE9A9004EFF0A3BF
:1017A300EFF09004E2E0FF3395E0FEC3EF9DFFEE20
:1017B3009CFEE9FD3395E0FCEF2DFFEE3CFE90042B
:1017C300E5E0FD3395E0FCC3EF9DFFEE9C9004F153
:1017D300F0A3EFF0E49004DCF0A3F09004DCE0FA73
:1017E300A3E0FB25E0FFEA33FE74E92FF5827404DE
:1017F3003EF583E0FCA3E0FD74D22FF58274043E32
:10180300F583E0FEA3E0C39DFFEE9CCF2464CF34B9
:1018130000FE7C007D0A120686EB25E0FFEA33FE1C
:1018230074D22FF58274043EF583ECF0A3EDF090AF
:1018330004DDE004F070069004DCE004F09004DCC6
:10184300E07004A3E064057092E49004DCF0A3F07C
:101853009004DCE0FEA3E0FFC39405EE6480948073
:10186300400302191D7C007D02120686ED4C702791
:10187300E025E0FF9004DCE033FE74D22FF58274A0
:10188300043EF583A3E025E0FD0582D5820215839E
:101893001582E033FC80289004DDE025E0FF90040E
:1018A300DCE033FE74D22FF58274043EF583E0FE50
:1018B300A3E0FF7C007D03120674AC06AD07EC12B7
:1018C3000332C004C005C006C007900505120875A1
:1018D30040000000D007D006D005D004123E8AC0D5
:1018E30004C005C006C0079004F3E0FCA3E0FDECD0
:1018F300120332D003D002D001D0001200BD120374
:101903006B9004F3EEF0A3EFF09004DDE004F070CD
:10191300069004DCE004F00218539004F3E0FEA305
:10192300E0FF9004D0E06E7003A3E06F6003021940
:10193300F49004D2A3E0FF9004CDE0FBA3E0FAA36C
:10194300E0F9EF1206409004D4A3E0FF9004CDE049
:10195300FBA3E0FAA3E0F9900001EF120652900412
:10196300D6A3E09000021206529004D8A3E09000A0
:10197300031206529004DAA3E09000041206529078
:1019830004C7E0FBA3E0FAA3E0F9900005120613F5
:1019930024D0FF9004CDE0FBA3E0FAA3E0F990008C
:1019A30005EF1206529004C7E0FBA3E0FAA3E0F9A7
:1019B30090000612061324D0FF9004CDE0FBA3E0B1
:1019C300FAA3E0F9900006EF1206529004C7E0FB79
:1019D300A3E0FAA3E0F990000712061324D0FF90C6
:1019E30004CDE0FBA3E0FAA3E0F9900007EF0206C1
:1019F30052E49004DCF0A3F09004DCE0FEA3E0FFEB
:101A0300C39408EE6480948050249004CDE0FBA33B
:101A1300E0FAA3E0F98F828E8374FF1206529004DA
:101A2300DDE004F070D29004DCE004F080CA229080
:101A330004C7EBF0A3EAF0A3E9F090000612061343
:101A430075F00AA4FDACF090000512061375F0645E
:101A5300A42DFFE5F03CFE9000071206137C002F37
:101A6300FFEC3E9004D0F0A3EFF09004CAE0FBA398
:101A7300E0FAA3E0F91283AA9004E5EEF0A3EFF0F5
:101A8300E4A3F0A3F09004F3F0A3F07A0479F590C3
:101A930004D0125117E49004E7F0A3F09004E7E0B8
:101AA300FEA3E0FFC39405EE648094805059900434
:101AB300C7E0FBA3E0FAA3E0F98F828E831206133B
:101AC300FF9004FFE4F0A3EFF09004FFE0FEA3E037
:101AD30024F5F58274043EF583E0FD9004E8E025E7
:101AE300E0FF9004E7E033FE74D22FF58274043EE6
:101AF300F583E4F0A3EDF09004E8E004F0709D902A
:101B030004E7E004F080957E007F097D007B017A85
:101B13000479DC120BAC9004E5E07004A3E06408E4
:101B2300701678DC7C047D019004CAE0FBA3E0FA24
:101B3300A3E0F91209E58079D39004E6E0940890D4
:101B430004E5E06480948040279004CAE0F9A3E0B0
:101B5300FAA3E0900504C9F0A3EAF0A3E9F0A3E433
:101B6300F0A37408F07B017A0479DC126698804153
:101B730078DC7C047D019004CAE0FBA3E0FAA3E0D7
:101B8300F91209E590050474FFF0A37489F0A374B6
:101B930086F09004E5E0FEA3E0FFC374089F900580
:101BA30008F0E49E900507F07B017A0479DC124B80
:101BB300459004DDE0FB3395E0FA9004DCE0FF336D
:101BC30095E0FEC3EF9BFFEE9AFE9004DEE0F9FD85
:101BD3003395E0FCEF2DFFEE3CFEA3E0FD3395E0F3
:101BE300FCC3EF9DFFEE9CFEA3E0FD3395E0FCEF0D
:101BF3002DFFEE3CFEA3E0FD3395E0FCC3EF9DFF1C
:101C0300EE9CFEA3E0FD3395E0FCEF2DFFEE3CFEE2
:101C1300A3E0FD3395E0FCC3EF9DFFEE9C9004E948
:101C2300F0A3EFF0C374309BFFE49AFEE9FD339514
:101C3300E0FCEF2DFFEE3CFE9004DFE0F9FB339573
:101C4300E0FAC3EF9BFFEE9AFEA3E0FB3395E0FAC5
:101C5300EF2BFFEE3AFEA3E0FB3395E0FAC3EF9BD5
:101C6300FFEE9AFEA3E0FB3395E0FAEF2BFFEE3A8B
:101C7300FEA3E0FB3395E0FAC3EF9BFFEE9A9004DB
:101C8300EBF0A3EFF0E9FF3395E0FEC3ED9FFFEC2C
:101C93009EFE9004E0E0FD3395E0FCEF2DFFEE3C6B
:101CA300FEA3E0FB3395E0FAC3EF9BFFEE9AFEA39E
:101CB300E0FB3395E0FAEF2BFFEE3AFEA3E0FB33B4
:101CC30095E0FAC3EF9BFFEE9A9004EDF0A3EFF0DB
:101CD300E9FF3395E0FEC374309FCFE49ECF2DCF51
:101CE3003CFE9004E1E0FD3395E0FCC3EF9DFFEE85
:101CF3009CFEA3E0F9FB3395E0FAEF2BFFEE3AFEEF
:101D0300A3E0FB3395E0FAC3EF9BFFEE9A9004EF59
:101D1300F0A3EFF09004E0E0FF3395E0FEC3EF9D06
:101D2300FFEE9CFEE9FD3395E0FCEF2DFFEE3CFE5C
:101D33009004E3E0FD3395E0FCC3EF9DFFEE9C9040
:101D430004F1F0A3EFF0E49004E7F0A3F09004E7CC
:101D5300E0FAA3E0FB25E0FFEA33FE74E92FF58206
:101D630074043EF583E0FCA3E0FD74D22FF5827486
:101D7300043EF583E0FEA3E0C39DFFEE9CCF246405
:101D8300CF3400FE7C007D0A120686EB25E0FFEAD5
:101D930033FE74D22FF58274043EF583ECF0A3ED89
:101DA300F09004E8E004F070069004E7E004F0909B
:101DB30004E7E07004A3E064057092E49004E7F0A4
:101DC300A3F09004E7E0FEA3E0FFC39405EE648074
:101DD30094804003021E8F7C007D02120686ED4C28
:101DE3007027E025E0FF9004E7E033FE74D22FF57F
:101DF3008274043EF583A3E025E0FD0582D58202CB
:101E030015831582E033FC80289004E8E025E0FF89
:101E13009004E7E033FE74D22FF58274043EF58319
:101E2300E0FEA3E0FF7C007D03120674AC06AD0761
:101E3300EC120332C004C005C006C00790050512AA
:101E4300087540000000D007D006D005D004123E2C
:101E53008AC004C005C006C0079004F3E0FCA3E0F9
:101E6300FDEC120332D003D002D001D0001200BD2A
:101E730012036B9004F3EEF0A3EFF09004E8E00498
:101E8300F070069004E7E004F0021DC59004F3E04F
:101E9300FEA3E0FF9004D0E06E7003A3E06F600345
:101EA300021F609004D2A3E0FF9004CDE0FBA3E007
:101EB300FAA3E0F9EF1206409004D4A3E0FF9004E4
:101EC300CDE0FBA3E0FAA3E0F9900001EF12065284
:101ED3009004D6A3E09000021206529004D8A3E027
:101EE3009000031206529004DAA3E0900004120655
:101EF300529004C7E0FBA3E0FAA3E0F990000512B7
:101F03000613FF9004CDE0FBA3E0FAA3E0F99000F1
:101F130005EF1206529004C7E0FBA3E0FAA3E0F931
:101F2300900006120613FF9004CDE0FBA3E0FAA392
:101F3300E0F9900006EF1206529004C7E0FBA3E01D
:101F4300FAA3E0F9900007120613FF9004CDE0FB1B
:101F5300A3E0FAA3E0F9900007EF020652E490042D
:101F6300E7F0A3F09004E7E0FEA3E0FFC39408EEDC
:101F73006480948050249004CDE0FBA3E0FAA3E0B6
:101F8300F98F828E8374FF1206529004E8E004F006
:101F930070D29004E7E004F080CA22900476EFF058
:101FA300E4A3F0A3F0A3F0128853A3EFF0647070DE
:101FB3000B1288597F2F1275B402861B90047AE0A6
:101FC300646070057F011286D490047AE0FF7E007E
:101FD30064016021EF6422601CEF64236017EF64E7
:101FE300436012EF6444600DEF64276008EF6428D8
:101FF3006003022430EF64544E700B1287F5EF64D4
:10200300056003022430128859128421EF640170A1
:102013000B1288597F2E1275B40288251200069080
:102023000477EFF060030224269005B5E0FF1272F7
:10203300E5900477EFF060030224269005B5E0FFF6
:102043007B017A0479781269C4900477EFF0600316
:102053000221DA90047AE064017038900478A3E0F6
:10206300FF7D031276C3900477EFF060030221E251
:10207300A3A3E0900234F07F02128862900478A355
:10208300E0FF7D021276C3EF70047F1280027F02AD
:1020930002498C90047AE0FF64226014EF64436089
:1020A3000FEF6444600AEF64276005EF6454700A1D
:1020B3007F031288627F6E02242D90047AE0FF640E
:1020C300236008EF6428600302243090047AE064FC
:1020D30023700A900478A3E0FF7D01801090047AB6
:1020E300E064287010900478A3E0FF7D021276C3A9
:1020F300900477EFF0900477E060030221D090051D
:10210300B5E0701504F0900478A3E09005AEF07F7D
:10211300021288627F1102242D9005AEE0FF7E003B
:10212300900478E0FCA3E0FDB5070BEEB50407E4EB
:10213300900477F0800690047774FFF0900477E0C2
:10214300707E90047AE064237006AF057D018010F1
:1021530090047AE064287010900478A3E0FF7D0275
:1021630012741C900477EFF0900477E0700EA3E0F4
:10217300FEA3E0FF1287A4900477EFF0900477E0CA
:1021830070157F021288627F051275B4900478A3DC
:10219300E0FF128561800A7F031288627F6E1275E9
:1021A300B490047AE0642370061287090224009035
:1021B300047AE064286003022400127E640224008F
:1021C3007F031288627FD31275B40224007F031247
:1021D30088627F7D02242D90047AE06401700A7F77
:1021E300031288627F02026B4390047AE0FF642249
:1021F3006017EF64436012EF6444600DEF6427607F
:1022030008EF645460030224159005B5E06403608D
:102213000302240612000E900477EFF060030223FA
:10222300F690047AE0FF7E006422600DEF6427607D
:1022330008EF6454600302235EEF64274E700512B7
:1022430075EC800312772C900478E4F0A3EFF09000
:102253000478E07003A3E0F4700D7F031288627FBB
:102263005C1275B40223F1900478E0FCA3E0FDE472
:10227300FF126E77900477EFF090047AE064227097
:1022830056900477E07019A3A3E0FF7D01127977DC
:10229300900477EFF06009A3E0FEA3E0FF1287A4A8
:1022A300900477E070157F021288627F051275B47F
:1022B300900478A3E0FF128551800A7F031288629D
:1022C3007F6E1275B49006F7E070061286FF022443
:1022D300001286CD02240090047AE06427704A90AD
:1022E3000477E07019A3A3E0FF7D021279779004CD
:1022F30077EFF06009A3E0FEA3E0FF1287A4900448
:1023030077E070187F021288627F051275B4128815
:1023130031900478A3E0FF128551800A7F0312886D
:10232300627F6E1275B40223F1900477E0700EA3FE
:10233300E0FEA3E0FF1287A4900477EFF090047708
:10234300E070097F021288627D0180077F03128893
:1023530062E4FD7F0512719B02240090047AE0FF82
:102363007E0064437008900478F0A3F0800DEF645E
:10237300444E7007900478F0A304F0900478E0FED4
:10238300A3E0FF1287A4900477EFF07010A3E0FCA2
:10239300A3E0FDE4FF126E77900477EFF0900477EB
:1023A300E0700EA3A3E0FFE4FD127977900477EFCA
:1023B300F0900477E070157F021288627F05127532
:1023C300B4900478A3E0FF128551800A7F0312883A
:1023D300627F6E1275B4128877EF701290047AE000
:1023E3006443700512845780141286D7800F127EBF
:1023F30064800A7F031288627F7A1275B4E49005C1
:10240300B5F0229005B5E004F07F021288627F11D7
:10241300801890047AE0642370137F031288627F2C
:102423007D80077F031288627F111275B4229004A6
:1024330076EFF0A205920690047A7403F0127110FD
:102443003005030227BC900476E0FF25E024BEF5A7
:1024530082E43488F583E493FC740193FD75F00200
:10246300EFA424D5F582E5F03403F583ECF0A3ED76
:10247300F0900476E0FE90889E93FF900479F075C7
:10248300F002EEA424D5F582E5F03403F583E0FCF5
:10249300A3E0FD1276F8900476E0FD75F002A42423
:1024A30036F582E5F03404F583EEF0A3EFF075F032
:1024B30002EDA42436F582E5F03404F583E0FEA3AF
:1024C300E0FF900477E0FCA3E0FDD3EF9DEE9C508A
:1024D300030226A7900476E0FF75F002A42436F5E4
:1024E30082E5F03404F583E0FCA3E0FD900477E09B
:1024F300FAA3E0FBD3ED9BEC9A50030225C375913D
:102503000775F002EFA424D5F582E5F03403F583D3
:10251300E0FEA3E0C394FFEE940140030225C390C1
:102523000476E0FF75F002A424D5F582E5F03403C8
:10253300F583E475F0011206BC75F002EFA424D50F
:10254300F582E5F03403F583E0FCA3E0FD90047924
:10255300E0FF1276F8900476E0FD75F002A42436CD
:10256300F582E5F03404F583EEF0A3EFF075F002A5
:10257300EDA42436F582E5F03404F583E0FEA3E010
:10258300FF75F002EDA424EDF582E5F03403F58345
:10259300EEF0A3EFF075F002EDA42436F582E5F03A
:1025A3003404F583E0FEA3E0FF75F002EDA42411EB
:1025B300F582E5F03404F583EEF0A3EFF00224D7BF
:1025C300E5CDC454072409F9E47F01FEFDFCA8010D
:1025D30012082AEF24F6FBEE34FFFAED34FFF9EC90
:1025E30034FFF8900476E075F002A42436F582E512
:1025F300F03404F583E0FEA3E0FFE4FCFDD312080E
:102603000640030226A7900476E0FF75F002A42497
:10261300D5F582E5F03403F583E475F0011206BCC9
:1026230075F002EFA424D5F582E5F03403F583E0D9
:10263300FCA3E0FD900479E0FF1276F8900476E0C5
:10264300FD75F002A42436F582E5F03404F583EE3B
:10265300F0A3EFF075F002EDA42436F582E5F03433
:1026630004F583E0FEA3E0FF75F002EDA424EDF58D
:1026730082E5F03403F583EEF0A3EFF075F002ED9D
:10268300A42436F582E5F03404F583E0FEA3E0FFED
:1026930075F002EDA42411F582E5F03404F583EE20
:1026A300F0A3EFF0900476E075F002A42436F582EF
:1026B300E5F03404F583E0FEA3E0FF900477E0FC4B
:1026C300A3E0FDD3EF9DEE9C40030227BC9004766C
:1026D300E0FF75F002A42436F582E5F03404F583B7
:1026E300E0FCA3E0FD900477E0FAA3E0FBC3ED9BDD
:1026F300EC9A40030227BC75910775F002EFA424FE
:10270300D5F582E5F03403F583E0FEA3E0D394002E
:10271300EE940050030227BC900476E0FF75F002AC
:10272300A424D5F582E5F03403F58374FFF5F012A4
:1027330006BC75F002EFA424D5F582E5F03403F569
:1027430083E0FCA3E0FD900479E0FF1276F89004A7
:1027530076E0FD75F002A42436F582E5F03404F545
:1027630083EEF0A3EFF075F002EDA42436F582E5D5
:10277300F03404F583E0FEA3E0FF75F002EDA4243A
:10278300EDF582E5F03403F583EEF0A3EFF075F099
:1027930002EDA42436F582E5F03404F583E0FEA3CC
:1027A300E0FF75F002EDA42411F582E5F03404F5A1
:1027B30083EEF0A3EFF00226D022AB07EB25E02453
:1027C30015F582E43489F583E493FF74019390044F
:1027D3007ACFF0A3EFF0EB25E02415F582E43489FA
:1027E300F583E493FC740193FD908905E493FF7EE4
:1027F30000120674EEC4F854F0C868FEEFC4540F18
:1028030048FF90047CEEF0A3EFF075F002EBA424F4
:1028130036F582E5F03404F583E0FEA3E0FF75F0BE
:1028230002EBA424EDF582E5F03403F583E0FCA389
:10283300E0C39FFFEC9EFE900478F0A3EFF0C3EE9D
:1028430064809480500302299AA3E0FEA3E0FF90E2
:102853000478E0FCA3E0FD9FEE6480F8EC648098CC
:10286300401074A12BF582E43403F5837401F00264
:10287300296690047CE0FEA3E0FFC3ED9FEE648035
:10288300F8EC648098405874662BF582E43404F5C0
:1028930083E004F074B92BF582E43403F583E4F0A8
:1028A300745A2BF582E43404F583E4F074AD2BF50C
:1028B30082E43403F583E4F074662BF582E4340494
:1028C300F583E0FF90071AE0FEEFC39E5003022951
:1028D3006674662BF582E43404F583E4F0806E7449
:1028E300662BF582E43404F583E4F074B92BF582A6
:1028F300E43403F583E004F0745A2BF582E43404E2
:10290300F583E4F074AD2BF582E43403F583E4F04E
:1029130074B92BF582E43403F583E0FF90071CE0E0
:10292300FEEFC39E403D74B92BF582E43403F58377
:10293300E4F075F002EBA424EDF582E5F03403F541
:1029430083E0FEA3E0D39400EE9400401675F002FA
:10295300EBA424EDF582E5F03403F58374FFF5F081
:102963001206BC908957E493FE740193FFC390044D
:102973007BE09FFF90047AE09EFEC3900479E09F82
:10298300900478E09E4003022B0B74A12BF582E4A4
:102993003403F583E4F02274A12BF582E43403F5C8
:1029A30083E4F090047CE0FEA3E0FFC3E49FFFE434
:1029B3009EFEC3900479E09FEE6480F8900478E073
:1029C300648098406C74662BF582E43404F583E4E8
:1029D300F074B92BF582E43403F583E4F0745A2BD5
:1029E300F582E43404F583E004F074AD2BF582E45E
:1029F3003403F583E4F0745A2BF582E43404F5834D
:102A0300E0FF900719E0FEEFC39E5003022B0B7407
:102A13005A2BF582E43404F583E4F075F002EBA459
:102A230024EDF582E5F03403F583E475F001022B20
:102A33000874662BF582E43404F583E4F074B92B4F
:102A4300F582E43403F583E4F0745A2BF582E4341D
:102A530004F583E4F074AD2BF582E43403F583E0ED
:102A630004F074AD2BF582E43403F583E0FF9007A3
:102A73001BE0FEEFC39E5003022B0B74AD2BF582BC
:102A8300E43403F583E4F090047BE025E0FD900457
:102A93007AE033FCE0A2E713FEA3E0132DFFEE3C44
:102AA300FEC3E49FFFE49EFED3900479E09FEE64AF
:102AB30080F8900478E0648098502975F002EBA4C4
:102AC3002436F582E5F03404F583E0FEA3E0FF75D8
:102AD300F002EBA424EDF582E5F03403F583EEF088
:102AE300A3EFF02290047CE0FEA3E0FF7C007D05D1
:102AF30012068675F002EBA424EDF582E5F03403AB
:102B0300F583EE8FF01206BC22C101C103C102C1DD
:102B130000410472004406FDFFFFFFFF440701FF6D
:102B2300FFFFFF440694FFFFFFFF420698000041AA
:102B3300069A00440664FFFFFFFF41066800410652
:102B43007F004106690054066B000000000000008E
:102B53000000000000000000000000000041066AC1
:102B6300004406B4FFFFFFFF5006B8EF01FFFFFF6D
:102B7300FF0100074101010050009B44069BFFFF3A
:102B8300FFFF41069F00440705FFFFFFFF440709BE
:102B9300FFFFFFFF44070DFFFFFFFF440711FFFF88
:102BA300FFFF4406EDFFFFFFFF4206F1000044076D
:102BB30015FFFFFFFF4406F3FFFFFFFF4106F7008A
:102BC30044071DFFFFFFFF01170001190001180053
:102BD300011A0044061FFFFFFFFF440721FFFFFF09
:102BE300FF4405AFFFFFFFFF4105B6004105B5FFF9
:102BF300011CFF011BFF4105B4004105B300410562
:102C0300AD004105AE0060960517022300032700BF
:102C13000423000725000826000A27000D23000FC0
:102C230025000824001627001E27002023001F2745
:102C3300002823002B24002C24002D240051425271
:102C43004325005146524925005144524525005120
:102C53004852472500514A524B25005133523453B1
:102C63003525005136523853392500513A523C53D9
:102C73003D2500513E524053412500062700514255
:102C83002500513052312500513A523C2500513034
:102C930052315332543355345635575D58612500FC
:102CA30044038CFFFFFFFF41039A0042039100009E
:102CB300420393000042039C000041039000410340
:102CC3009B0041039E004102C10041039F00410359
:102CD300A00042038A000043039700000060B4028F
:102CE300D6010300000001050000000107000000F9
:102CF30001080000000109000000010BFF873B01F0
:102D03000CFF7FEA010CFF8003010CFF801C010A0A
:102D13000000000A04FF7CDC0A0600000002080031
:102D230000000209000000020BFF873B030DFF7E3A
:102D33002A030FFF86540310FF86F5052DFF7C99A8
:102D4300052FFF84330530FF8713062DFF7A9F0677
:102D53002FFF7AC50747FF7E470749FF8661074A6A
:102D6300FF87310882FF866E08830000008362FFBD
:102D730084458363FF8457096A00000009840000C7
:102D8300006A69FF7F866A68FF7F9F846FFF7FB851
:102D93008470FF7FD14406F8FFFFFFFF4106FC006C
:102DA3005E064601E602B303BB05C307CB089509DC
:102DB3009B0ADA06E06AA76AA783A184AD9EFFFF98
:102DC300FF440725FFFFFFFF4405F7FFFFFFFF4C0D
:102DD300061300000000000000000000000044068D
:102DE300E6FFFFFFFF4106EA004206EB0000440254
:102DF30030FFFFFFFF410234FF4406C9FFFFFFFF1F
:102E03004106CD004106D5004206D300004506CE5B
:102E1300960507999B4106C8004406E0FFFFFFFFA4
:102E23004206E400004106DE004106DF0000900494
:102E33009CEBF0A3EAF0A3E9F0E49004C0F0A3F064
:102E4300A3F0A3F0A3F0A3F0A3F0FE7F08FD7B01A2
:102E53007A0479A8120BAC7E007F087D007B017A8F
:102E63000479B0120BAC7E007F087D007B017A04ED
:102E730079B8120BAC9004A2E0FBA3E0FAA3E0F94B
:102E8300EA494B70030230FD1205FAF46003022F86
:102E9300AD900001120613F46003022FAD900002FF
:102EA300120613F46003022FAD900003120613F40D
:102EB3006003022FAD900004120613F46003022F87
:102EC300AD900005120613F46003022FAD900006C7
:102ED300120613F46003022FAD900007120613F4D9
:102EE3006003022FAD12145B9004A8E0F9F470069E
:102EF3009004C0F0FF229004A9E0FF7E007C037DD4
:102F0300E8120674AA06AB07E9FF7E007C277D1052
:102F1300120674EF2BFDEE3AFCA3E075F064A42DCA
:102F2300FDE5F03CFCA3E075F00AA42DFFE5F03CC1
:102F3300FEA3E07C002FFFEC3EFE9004C1F0A3EF64
:102F4300F0C39004C4E09FEE6480F89004C3E0648F
:102F5300809840030230F5E49004C5F0A3F0900498
:102F63009CE0FBA3E0FAA3E0F99004C5E0FEA3E034
:102F7300FFF5828E8312061324D0FD74B02FF582E1
:102F830074043EF583EDF09004C6E004F0700690FF
:102F930004C5E004F09004C5E07004A3E064087085
:102FA300BD9004C07401F00230F590049FE0F9A3D2
:102FB300E0FAA3E09004CAC9F0A3EAF0A3E9F0A3FE
:102FC3007401F0A37404F0A374B8F09004A2E0FBBE
:102FD300A3E0FAA3E0F9121A329004B8E0F4700304
:102FE3000230FE12145B9004A8E0F470030230FE7A
:102FF3009004A9E0FF7E007C037DE8120674AA0614
:10300300AB079004A8E0FF7E007C277D10120674B6
:10301300EF2BFDEE3AFC9004AAE075F064A42DFDBD
:10302300E5F03CFCA3E075F00AA42DFFE5F03CFEBF
:10303300A3E07C002FFFEC3E9004C1F0A3EFF090DF
:1030430004B9E0FF7E007C037DE8120674AA06AB98
:10305300079004B8E0FF7E007C277D10120674EF12
:103063002BFDEE3AFC9004BAE075F064A42DFDE567
:10307300F03CFCA3E075F00AA42DFFE5F03CFEA3B1
:10308300E07C002FFFEC3EFE9004C3F0A3EFF0D3EF
:103093009004C2E09FEE6480F89004C1E0648098DD
:1030A3004050E49004C5F0A3F090049CE0FBA3E03F
:1030B300FAA3E0F99004C5E0FEA3E0FFF5828E8356
:1030C30012061324D0FD74B02FF58274043EF583E9
:1030D300EDF09004C6E004F070069004C5E004F03F
:1030E3009004C5E07004A3E0640870BD9004C0744C
:1030F30001F07E007F087D008009E49004C0F0FEAB
:103103007F08FD9004A5E0FBA3E0FAA3E0F9120B0E
:10311300AC9004A5E0FBA3E0FAA3E0F8AC02AD0396
:103123007B017A0479B07E007F081205D49004C035
:10313300E0FF227B007A0079089004A0E4F0A374F6
:103143000FF0E4FF90049CEFF0A3EBF0A3EAF0A3ED
:10315300E9F07F091287D790049CE01470030232D0
:103163004614700302331314700302337324036091
:10317300030233D09004A57401F0A37400F0A37488
:1031830000F0A37401F0A374F4F0E4FF1287D1E418
:10319300FF127E0DE49004A2F0A3F09004A0E0FEE1
:1031A300A3E0FFC39004A3E09F9004A2E09E5037E6
:1031B300E0FCA3E0FD90049DE0FBA3E0FAA3E0F9AB
:1031C3008D828C83120613FBE4FF1261B99004A471
:1031D300EFF070037F01229004A3E004F070BC9031
:1031E30004A2E004F080B4E49004A2F0A3F09004FD
:1031F300A8E0FEA3E0FFC39004A3E09F9004A2E035
:103203009E40030233D3E0FEA3E0FF2418FDE43E17
:10321300FC9004A5E0FBA3E0FAA3E0F98F828E8380
:10322300120613FBE4FF1261B99004A4EFF07003DC
:103233007F01229004A3E004F070B39004A2E004A1
:10324300F080AB9004A5E4F0A37400F0A37408F03D
:10325300A3E4F0A3740FF0E4FF1287D1E4FF127E1E
:103263000DE49004A2F0A3F09004A8E0FEA3E0FF15
:10327300C39004A3E09F9004A2E09E5037E0FCA318
:10328300E0FD9004A5E0FBA3E0FAA3E0F98D828CB6
:1032930083120613FBE4FF1261B99004A4EFF070EC
:1032A300037F01229004A3E004F070BC9004A2E029
:1032B30004F080B4E49004A2F0A3F09004A0E0FE34
:1032C300A3E0FFC39004A3E09F9004A2E09E400309
:1032D3000233D3E0FEA3E0FF2418FDE43EFC900498
:1032E3009DE0FBA3E0FAA3E0F98F828E831206131D
:1032F300FBE4FF1261B99004A4EFF070037F012295
:103303009004A3E004F070B39004A2E004F080AB57
:103313007F011287D1E4FF127E0DE49004A2F0A393
:10332300F09004A0E0FEA3E0FFC39004A3E09F900D
:1033330004A2E09E40030233D3E0FCA3E0FD90042B
:103343009DE0FBA3E0FAA3E0F98D828C83120613C0
:10335300FBE4FF1261B99004A4EFF070037F012234
:103363009004A3E004F070B99004A2E004F080B1EB
:103373007F011287D17F01127E0DE49004A2F0A396
:10338300F09004A0E0FEA3E0FFC39004A3E09F90AD
:1033930004A2E09E503AE0FCA3E0FD90049DE0FB14
:1033A300A3E0FAA3E0F98D828C83120613FB7F015D
:1033B3001261B99004A4EFF070037F01229004A37B
:1033C300E004F070BC9004A2E004F080B47F01221A
:1033D3007F0022900479EBF0A3EAF0A3E9F0A3EDD8
:1033E300F0E4A3F0A3F0900489F0A374FFF0E49059
:1033F300047DF090047DE0FFC39464748094804066
:10340300030234EC75F005EFA42404F582E5F034EF
:1034130000F583E0F470030234E37E007F087DFF50
:103423007B017A047981120BAC90047DE075F00581
:10343300A42400F9740035F0FA7B01C00390049FC3
:10344300EBF0A37404F0A37481F0D003125CDB905F
:103453000489EFF0E490047FF0900489E0FF900486
:103463007FE02FFFE433FE90047CE0FDD3EF9D74F7
:1034730080F86E98505EE4900480F0900489E0FF39
:10348300900480E0FEC39F5037EEFF90047FE02F4F
:10349300FFE433FE900479E0FBA3E0FAA3E0F98FA5
:1034A300828E83120613FF900480E02481F582E468
:1034B3003404F583E0B50708900480E004F080BB92
:1034C300900489E0FF900480E06F600890047FE03F
:1034D30004F08085900489E0FF900480E06F600928
:1034E30090047DE004F00233F690047DE0C394641D
:1034F300748094805007E0FF900234F022E490043B
:103503009BF0FE7F087DFF7B017A04798B120BAC65
:1035130090049F7401F0A37404F0A3748BF07B01F7
:103523007A007900125CDB900489EFF0E490047D6B
:10353300F090047DE0FFC394087480948050757408
:103543008B2FF582E43404F583E0F490047D700E50
:10355300E0248BF582E43404F583E4F0800EE02468
:103563008BF582E43404F583E02430F0900479E0B1
:10357300FBA3E0FAA3E0F990047DE0FFF5827583F5
:1035830000120613FEF4700E74812FF582E43404E6
:10359300F583E4F0801590047DE0FFEE2430FE74A3
:1035A300812FF582E43404F583EEF090047DE0048A
:1035B300F002353490049F7401F0A37404F0A374F3
:1035C3008BF0A3E4F0A37400F0A3740FF0A37401D1
:1035D300F0A37404F0A37493F07B017A047981124D
:1035E3002E3190049BEFF0D39400748094804019A3
:1035F300780F7C007D007B017A0479937E007F083D
:103603001205D41231367FFE227FFF227B01E4FDB7
:10361300900481EBF0A3EAF0A3E9F0A3EDF0E490CA
:103623000489F0A3F0A37403F0A374E8F0EDD3943A
:103633000074809480500302373AC2AFE490048947
:10364300F0900484E0FF900489E0FEC39F50219032
:103653000481E0FBA3E0FAA3E0F98E8275830012F4
:103663000613FDE4FF127A53900489E004F080D13D
:1036730090048B74FFF5F01206BC45F0700302371B
:10368300357F017E00127AEB90069AE0C3940274B0
:1036930080948040DBE4900489F090069AE0FF90E8
:1036A3000489E0FEC39F503B74802EF582E4340608
:1036B300F583E0FF644B602BEF64496026EF6442BF
:1036C3006021EF6446601CEF64526017EF644D6045
:1036D30012EF644A600DEF64716008900489E0049E
:1036E300F080B790069AE0FF900489E0FEC39F4004
:1036F300030237F874802EF582E43406F583E0FF85
:10370300900485E0FBA3E0FAA3E0F990048AE0FECD
:10371300F582758300EF120652900488E0146E70F0
:10372300030237F890048AE004F0900489E004F07F
:1037330080B1D2AF023803C2AF90048B74FFF5F0AF
:103743001206BC45F070030238017F017E00127A35
:10375300EB90069AE0C394027480948040DBE4907B
:103763000489F090069AE0FF900489E0FEC39F501D
:103773003B74802EF582E43406F583E0FF644B60EE
:103783002BEF64496026EF64426021EF6446601CBE
:10379300EF64526017EF644D6012EF644A600DEFFF
:1037A30064716008900489E004F080B790069AE0A1
:1037B300FF900489E0FEC39F503B74802EF582E4A2
:1037C3003406F583E0FF900485E0FBA3E0FAA3E071
:1037D300F990048AE0FEF582758300EF1206529099
:1037E3000488E0146E600E90048AE004F09004896B
:1037F300E004F080B7E490069AF0D2AFFF22D2AF94
:103803007F0022AB07EBC3942074809480500AE4BA
:103813007F01FEFDFCA803800BE47F01FEFDFCEBB2
:1038230024E0F9F812082A900474120869EBC3948F
:10383300207480948050030238FE7596519004746E
:10384300A3A3A3E0FFEF4297759652900474E0FCA4
:10385300A3E0FDA3E0FEA3E0FF7808120817EF4200
:1038630097EBC3942474809480500E900474A3A3A4
:10387300A3E0540FFFEF42EA22EBC3942674809433
:1038830080501B900474E0FCA3E0FDA3E0FEA3E0E2
:10389300FF7804120817EF5403FFEF42EB22EBFF0C
:1038A300C3942C748094805037EF642A6005EF64CE
:1038B3002B7012900474E0FCA3E0FDA3E0FEA3E0F0
:1038C300FF78048010900474E0FCA3E0FDA3E0FE05
:1038D300A3E0FF7806120817EF54CFFFEF42EC2264
:1038E300900474E0FCA3E0FDA3E0FEA3E0FF780CEA
:1038F300120817EF540FFFEF42EE2275962690043D
:1039030074A3A3A3E0FFEF4297759627900474E096
:10391300FCA3E0FDA3E0FEA3E0FF7808120817EF85
:10392300540FFFEF4297759628900474E0FCA3E0D0
:10393300FDA3E0FEA3E0FF7810120817EF4297758E
:103943009629900474E0FCA3E0FDA3E0FEA3E0FF4E
:103953007818120817AB07EB4297900474E0FCA3A6
:10396300E0FDA3E0FEA3E0FF780212082AEF54FC77
:10397300FFEF42EB900474E0FCA3E0FDA3E0FEA3A1
:10398300E0FF7802120817EF5430FFEF42EC900487
:1039930074E0FCA3E0FDA3E0FEA3E0FF78041208BB
:1039A30017EF54F0FFEF42EE900474E0FCA3E0FD48
:1039B300A3E0FEA3E0FF780C120817EF54F0FFEF2B
:1039C30042EF900474E0FCA3E0FDA3E0FEA3E0FF5C
:1039D3007814120817EF540FFFEF42F2EB42F7226D
:1039E300900476EFF0E4A3F0A3F0128853A3EFF072
:1039F3006470700B1288597F2F1275B402861B9066
:103A03000479E0646070057F011286D4900479E044
:103A1300FF7E006401600DEF64326008EF64336081
:103A230003023B9EEF64544E700B1287F5EF64075D
:103A33006003023B9E128859128421EF64017008CF
:103A43007F2E1275B402882B900479E0645470378A
:103A53009005B5E0FF126C4A900477EFF060030223
:103A63003B9E9005B5E07003023B38127D7A9004CB
:103A730077EFF0700A7D017F0712719B023B827F13
:103A8300D31275B4023B827B017A0479781274599C
:103A9300900477EFF06003023B1B900479E064012C
:103AA30070057F0402498C900479E0643270057FCD
:103AB30019023B9B900479E064336003023B9E90C0
:103AC30005B5E0FF126C4A900477EFF0704590055E
:103AD300B5E07002805F127D7A900477EFF0702C6E
:103AE300A3E0FF126405900477EFF07015A3E09054
:103AF3000234F07F051275B4900234E0FF12858121
:103B030080057F6E1275B412872780057FD31275E7
:103B1300B4806C7F7A023B9B900479E064327069D5
:103B23009005B5E0FF126C4A900477EFF070569061
:103B330005B5E0700C7F181275B49005B57401F0EB
:103B430022127D7A900477EFF0702FFF1283E790B3
:103B53000477EFF0700F7F051275B4900234E0FF25
:103B630012857180057F6E1275B49006F7E07005BB
:103B730012871D800A1286CD80057FD31275B4E4A7
:103B83009005B5F0227F7A800F900479E06401708C
:103B9300057F04026B437F801275B422EFB40700E4
:103BA3004003023D16903BAFF8282873023BC40242
:103BB3003BEB023C11023C5C023CAA023CCD023CC2
:103BC300F0EB7009ED42EA759617023C65EB640170
:103BD3007009ED42EA759617023D09EB6402600332
:103BE300023D16EDF452EA22EB7008ED42EB7596B6
:103BF30018806FEB64017009ED42EB759618023D76
:103C030009EB64026003023D16EDF452EB22EB7004
:103C130008ED42EC7596198049EB64017009ED4299
:103C2300EC759619023D09EB64027015EDF452EC44
:103C3300ED54307003023D16759625C4540F023CB3
:103C4300FAEB64036003023D16EDF452EC7596251E
:103C5300ED5430C4540F429722EB700AED42EE75D7
:103C6300961BED023CFAEB64017009ED42EE75968A
:103C73001B023D09EB64027015EDF452EEED543076
:103C83007003023D167596251313543F8069EB6448
:103C9300036003023D16EDF452EE759625ED5430A4
:103CA3001313543F429722EB7009ED42EF75961CB4
:103CB300ED8044EB64017008ED42EF75961C80467D
:103CC300EB6402704EEDF452EF22EB7009ED42F219
:103CD30075961DED8021EB64017008ED42F2759637
:103CE3001D8023EB6402702BEDF452F222EB700B78
:103CF300ED42F775961EEDF4529722EB6401700ABC
:103D0300ED42F775961EED429722EB64027004EDC7
:103D1300F452F722E490047BF0787E7C047D017BEF
:103D2300FF7A897981FE7F031205D490047C744263
:103D3300F0A37464F07B017A04797C7D02126D8FA9
:103D43007F2C7E01127AEB9004857401F0A3740436
:103D5300F0A3747EF0A37403F07B017A04797CE40E
:103D6300FD12361390047EE064427054A3E024BB3A
:103D7300601514602924F9601624FB603024066062
:103D830003023E877F00227F081275B47FFF2290D3
:103D930006F77401F07F621275B47F12801C9006DF
:103DA300F77401F07F101275B47F22800D9006F72F
:103DB3007401F07F171275B47F321286D4023E87E6
:103DC30090047EE0FF644D600DEF64466008EF648D
:103DD300526003023E84900480E0FB90047F7005F0
:103DE300E024D0800CE024D075F00AA4FFEB24D0AB
:103DF3002F900234F090047EE024BA602824F4600B
:103E03005B2405707F900234E0FF7D011268979078
:103E1300047BEFF070647F051275B4900234E0FF09
:103E2300128541805F900234E0FF7D0112741C9083
:103E3300047BEFF0700F900234E0FF7E001287A442
:103E430090047BEFF090047BE0700F7F051275B454
:103E5300900234E0FF128561802A801E900234E0D4
:103E6300FF12640590047BEFF0700F7F051275B4A9
:103E7300900234E0FF128581800A7F6E1275B48050
:103E8300037F00227F0122900501120869E4FFFEEF
:103E93007D807C3F900501E0F8A3E0F9A3E0FAA35D
:103EA300E0FB1202B47006900501023FE4900501A5
:103EB300E0FCA3E0FDA3E0FEA3E0FF1203ECFBA301
:103EC300E0FCA3E0FDA3E0FEA3E0FF1203ECFFB4DC
:103ED3000108E4FFFE7D807C3F22EF64046029EB50
:103EE30064046024EBB40130E4FFFEFDFC9005059F
:103EF300E0F8A3E0F9A3E0FAA3E0FB1202B4600840
:103F03004006E4FFFEFDFC22900505120875FFFF45
:103F1300FFFF900505023FE4E4900509F0A3F0FFDD
:103F2300FEFDFC900501E0F8A3E0F9A3E0FAA3E0AD
:103F3300FB1202B4505F900505E0FCA3E0FDA3E093
:103F4300FEA3E0FF12036B900509EEF0A3EFF0FD73
:103F5300CCEECCEC120332C8ECC8C9EDC9CAEECA28
:103F6300CBEFCB900505E0FCA3E0FDA3E0FEA3E0CF
:103F7300FF1200B9E4FBFAF9F81202B4708A900553
:103F830001E0FCA3E0FDA3E0FEA3E0FF1204069022
:103F93000501120869900501E0FCA3E0FDA3E0FE22
:103FA300A3E0FF1242AA900505E0F8A3E0F9A3E01D
:103FB300FAA3E0FB1201AE1257059005051208693A
:103FC30090050AE030E017900505E0FCA3E0FDA3AF
:103FD300E0FEA3E0FF1204069005051208699005B0
:103FE30005E0FCA3E0FDA3E0FEA3E0FF221288535B
:103FF300900510EFF090039F7401F0900390E0643C
:10400300017030900394E004F07006900393E00491
:10401300F090039CE0FEA3E0FFC3900394E09F9025
:104023000393E09E400D9003907402F0E490039399
:10403300F0A3F090039BE06401701B90039EE004E7
:10404300F0E0C3940A74809480400B90039B740245
:10405300F0E490039EF09003A0E0D3940074809466
:1040630080402A90038BE004F0700690038AE004FA
:10407300F090038AE0FEA3E0FFE4FCFD7B587A02A4
:10408300F9F8D31207F05005E49003A0F0126F1073
:10409300EF7003024136900510E0FF646170030284
:1040A3004136EF64607003024136900390E064018F
:1040B3007003024136127BA2EF70781283FBEF701C
:1040C30072900511F0900392E004F0700690039152
:1040D300E004F0900510E0FF64126028EF641360C1
:1040E30023EF6441601EEF64436019EF644460147E
:1040F300EF6422600FEF6423600AEF64326005EF20
:1041030064337011D3900392E094C8900391E094C8
:10411300004017800FD3900392E09464900391E0E2
:10412300940040069005117401F0900511E0600AB7
:10413300026832E4900391F0A3F0227B007A0079C5
:1041430008900478E4F0A3740FF0E4FF1244C6AFC0
:1041530008EF64016008EF640260030241EEE4903B
:104163000473F07B017A00790090047804F0A3745F
:10417300F4F07F011244C67B017A0179F49004784C
:10418300E4F0A3743CF07F021244C67B017A027907
:1041930035900478E4F0A3748CF07F031244C6D303
:1041A300E50B94007480948050030242759004736D
:1041B300E0FFFD7C00C3946474809480501A75F012
:1041C30005EFA42404F582E5F03400F583E06008EC
:1041D300900473E004F080D5C3ED9464EC648094A0
:1041E300805003024275E4F50B807C7E017FF47DF1
:1041F300FF7B017A007900120BAC7B017A00790016
:104203009004A07401F0A374F4F07F011231477E8F
:10421300007F3C7DFF7B017A0179F4120BAC7B01BB
:104223007A0179F49004A0E4F0A3743CF07F0212C5
:1042330031471200167E007F8C7DFF7B017A027965
:1042430035120BAC7B017A0279359004A0E4F0A31C
:10425300748CF07F03123147750801750901E4F589
:104263000AF50BF50CF50DFB7A0079089004A01202
:104273003140223E9248DA3ECCCCCD3F2AAAAB4015
:104283000000003F8000003F9837F03FB504F33F44
:10429300D744FC3E3172173EB172173F0515913E6C
:1042A300DE5BD9D2048002C204EDD2E7F8CD33EC51
:1042B3003304700BBD800592D50203E10203D7409E
:1042C300FBD31460F2F5F07C3FEE7A00C39496C8FA
:1042D300948B40230AC89469C8941A401A0AC89454
:1042E30068C8941F40110AC8945AC8942540080509
:1042F300F07A00CDC2E7CDC0F090050B120869EA51
:104303002323C0E02486F582E43442F5831208595E
:104313001200BDECC0E0EDC0E0EEC0E0EFC0E01283
:10432300083D90050B12084D1200B9D0E0FBD0E018
:10433300FAD0E0F9D0E0B2E7F812041A90050B12B4
:10434300086990427674031204B790050B12084D66
:104353001201AED0E0600F2492F582E43442F5837B
:104363001208591200BD90050B120869D0E0C394DE
:104373007FFDE49400FC1203327B187A7279317862
:104383003F1201AE90050B12084D1200BD30040B15
:104393007BD97A5B79DE783E1201AE227D037FE81A
:1043A3007E03900488EEF0A3EFF0A3EDF0E4A3F016
:1043B300A3F0FE7F14FD7B017A0679A0120BAC906B
:1043C300048874FFF5F01206BC45F070030244C381
:1043D3007F017E00127AEB90048AE02409FFE43324
:1043E300FE90069AE0C39FEE6480F874809840CFF5
:1043F300E490048BF090069AE0FF90048BE0FEC3F8
:104403009F501774802EF582E43406F583E064EF41
:10441300600890048BE004F080DB90048BE0FF24C1
:1044230080F582E43406F583E064EF709274812FA3
:10443300F582E43406F583E06401708390048BE035
:10444300FD2486F582E43406F583E0640760030205
:1044530043C274872DF582E43406F583E0FE748845
:104463002DF582E43406F583E07C002400FFEC3E66
:10447300FE90048AE06F7001EE60030243C290066F
:104483009AE0FF90048BE0FEC39F502974802EF5C1
:1044930082E43406F583E0FF90048CE024A0F582E7
:1044A300E43406F583EFF090048CE004F090048B81
:1044B300E004F080C9E490069AF09006A9E0FF2298
:1044C3007F0122900475EBF0A3EAF0A3E9F0EF1467
:1044D30060651470030245931470030245BD240301
:1044E30060030245E8E4FF1287D1E490047AF0A365
:1044F300F0900478E0FEA3E0FFA3E0FCA3E0FDC39B
:104503009FEC9E40030245E8E4FF127D1D90047575
:10451300E0FBA3E0FAA3E0F990047AE0FCA3E0F562
:10452300828C83EF12065290047BE004F070C290F9
:10453300047AE004F080BAE4FF1287D1E490047AAD
:10454300F0A3F0900478E0FEA3E0FFA3E0FCA3E077
:10455300FDC39FEC9E40030245E8ED2418FDE43CB7
:10456300FCE4FF127D1D900475E0FBA3E0FAA3E0D9
:10457300F990047AE0FCA3E0F5828C83EF120652F3
:1045830090047BE004F070BB90047AE004F080B305
:104593007F011287D1900475E0FBA3E0FAA3E0F951
:1045A300E4900480F0A3F0900478E0FFA3E090048B
:1045B30082CFF0A3EFF0E4FD80287F011287D19032
:1045C3000475E0FBA3E0FAA3E0F9E4900480F0A310
:1045D300F0900478E0FFA3E0900482CFF0A3EFF023
:1045E3007D01125BD322E4F9900478F0A3F0FEEE90
:1045F300C3940C74809480506074052EF582E43467
:1046030004F583E06050EE25E02436F582E43404BB
:10461300F583E0FCA3E0FDEE25E024EDF582E43430
:1046230003F583E0FAA3E0C39DFDEA9CFC900476C6
:10463300F0A3EDF0D3900479E09DEC6480F890044E
:1046430078E0648098500F900476E0FDA3E0A3CD5A
:10465300F0A3EDF0A9060E8096900429E069606F3F
:10466300E0FE25E02436F582E43404F583E0FCA380
:10467300E0FDEE25E024EDF582E43403F583E0FA72
:10468300A3E0C39DFEEA9C900476F0A3CEF09004D1
:1046930076E0FEA3E0FFC3900479E09FFF900478E7
:1046A300E09EFE900476F0A3EFF0E925E02415F5F3
:1046B30082E43489F583E493FC740193FDD3EF9D85
:1046C300EC6480F8EE6480984005900429E9F0AF2B
:1046D3000122900479EBF0A3EAF0A3E9F0A3EDF053
:1046E300E490047EF090048374FFF07E007F04FD69
:1046F3007B017A04797F120BAC90047CE0FD90047B
:10470300887401F0A37404F0A3747FF09004791209
:104713005FD0E4FFEFC3946474809480506475F0B9
:1047230005EFA42404F582E5F03400F583E0F4609A
:104733004EE490047EF090047EE0FD7C00C394047C
:10474300748094805033E0FE75F005EFA42400F5E7
:1047530082E5F03400F583E5822EF582E43583F5B6
:1047630083E0FB747F2EF582E43404F583E0B50324
:104773000890047EE004F080BDED64044C60030FF8
:104783008092EFC3946474809480502675F005EF93
:10479300A42404F582E5F03400F583E0FE90047D63
:1047A300E0FDEE6D6005ED64037007900483EFF0A8
:1047B300800690048374FFF0900483E0FF2290044A
:1047C30079EBF0A3EAF0A3E9F0A3EDF0E490047E23
:1047D300F090047DE0FF7E007004A3F0803CEF6462
:1047E300024E700790047E04F0802F90047E7402C2
:1047F300F090047EE0FFC3946474809480501B7532
:10480300F005EFA42404F582E5F03400F583E0F429
:10481300600890047EE004F080D790047EE0FFC33C
:10482300946474809480507A900234EFF07E007F19
:10483300047DFF7B017A04797F120BAC90047CE04A
:10484300FD9004887401F0A37404F0A3747FF090C6
:104853000479125FD090047EE075F005A42400F97A
:10486300740035F0A801FC7D017B017A04797F7E19
:10487300007F041205D490047DE0FFA3E075F005EA
:10488300A42404F582E5F03400F583EFF07B017A8C
:104893000079009004A07401F0A374F4F07F010286
:1048A30031477F0122900668E064017071A3E070D4
:1048B3000D7D047F051273DE7D01E4FF800C9006FD
:1048C30069E0640270097D047F05127156800F90C0
:1048D3000669E0C39404748094804002B2F89006A1
:1048E30069E004F090067FE025E0FFE433FEEF2467
:1048F30006FFE43EFE900669E0C39FEE6480F87411
:104903008098500302498BE4F07D047F05127156B1
:104913007D01E4FF1271569006687404F02290063C
:1049230068E06403704BA3E070057D01FF801D9078
:104933000669E0640170097D047F051273DE800F50
:10494300900669E0640370077D047F051271569039
:104953000669E004F0E0C39404748094804029E481
:10496300F07D047F051271567D01E4FF12715680BC
:1049730011900668E06404700F7D02FF125DDBEFA7
:1049830070069006687402F02290047BEFF01288A0
:104993007AEF6401702F90047BE0FF54107026EFD0
:1049A300640860217F081275B490047BE024FE60E4
:1049B3000E24FE600D24036003024A6C02881F026A
:1049C300882502882BE49003A0F012886EEF64011F
:1049D300703190047BE0FFFD64086027EF54107092
:1049E30022EDF4FFE4F4FE90039AE0FDFBEF5B603D
:1049F30004E4F0800E90047BE04D90039AF07F4B2B
:104A03000275B47F521286D412887D7BFF7A837934
:104A1300957F037E001270C990047BE01460261416
:104A2300602D24FE603324FC603924F6600D04708D
:104A330035900234E0FF127F07802B900234E0FFB1
:104A4300127F218021900234E0FF1285918017901C
:104A53000234E0FF1285A1800D900234E0FF12853D
:104A6300B1800312880D1284BF2290047BEFF0E41F
:104A730090047EF090069FE06F7003024B44126E29
:104A8300D2EF64017003024B447F0112883B7F071E
:104A93007E00127DBA7F4112883E90047BE06068FD
:104AA30024FE60261460422402707B7F01127ECCB8
:104AB3007F01127ECCE4FF127ECC7F50127ECC901D
:104AC300047CE4F0A3749BF0805C7F01127ECC7FB6
:104AD30002127ECC7F02127ECCE4FF127ECC9004C5
:104AE3007CE4F0A3744EF0803D7F01127ECC7F0402
:104AF300127ECC7F04127ECCE4FF127ECC90047C29
:104B0300E4F0A37452F0801E7F04127ECCE4FF1203
:104B13007ECCE4FF127ECC7FC8127ECC90047C74E2
:104B230001F0A37415F090047CE0FEA3E0FF127281
:104B33004B12439F90047EEFF090047BE090069F1E
:104B4300F022900501EBF0A3EAF0A3E9F0E490056D
:104B530009F0A3F0D3900508E09400900507E06402
:104B63008094805003024BFE900501E0FBA3E0FA22
:104B7300A3E0F9900509E0FEA3E0F5828E83120617
:104B830013601090050AE004F070DD900509E0045D
:104B9300F080D5900504E0FBA3E0FAA3E0F9120549
:104BA300FA603E900504A3E475F0011206D2A9F061
:104BB300FA1205FAFF900501E0FBA3E0FAA3E0F97E
:104BC300900509E475F0011206D285F082F583EFB2
:104BD30012065290050774FFF5F01206BC45F070FB
:104BE300B2900501E0FBA3E0FAA3E0F9900509E028
:104BF300FEA3E0F5828E83E4120652900501E0FBEA
:104C0300A3E0FAA3E0F922E4900477F0C2011200D2
:104C13001EE4900476F0900476E0C3940C748094C0
:104C2300804003024CC330030343AD1020000575DD
:104C3300910780F8C200AFACEFFEADABEDFF90047F
:104C430076E0FD25E02436F582E43404F583EEF0C6
:104C5300A3EFF0EDC3940B74809480502DED25E009
:104C630024D7F582E43403F583E0FEA3E0F5CA53C9
:104C7300CC7FEE5401C313E41342CC53CCC0ED906C
:104C8300889F93543F42CC75C901900476E0FF128C
:104C930027BD900476E0FF125318900476E0FF12CC
:104CA300655B30010F900429E0F47008900476E00E
:104CB300900429F0200212900476E004F0024C19CB
:104CC30020010690042974FFF022C20120046D9094
:104CD3008898E493FD700D90895B93C313FF74016F
:104CE3009313801575F002EDA42459F582E5F03491
:104CF30089F583E493FF740193900474CFF0A3EFD9
:104D0300F0E4900473F0900473E0C3940C74809403
:104D1300805071E0FF2405F582E43404F583E4F068
:104D2300C205900474E0FDA3E0900477CDF0A3EDF9
:104D3300F0122431900473E004F080CA90889BE45D
:104D430093FD700D90895B93C313FF7401931380DC
:104D53001575F002EDA42459F582E5F03489F58345
:104D6300E493FF740193900474CFF0A3EFF0D205A2
:104D7300900474E0FFA3E0900477CFF0A3EFF0E496
:104D8300FF12243190042974FFF022900499EBF070
:104D9300A3EAF0A3E9F0E49004A0F07F2EFE1283CF
:104DA300BF53FBFDE4F5FAF5FE7596585397EF53A1
:104DB300FBEF43FC40FF90049FE0FEEFC39E506473
:104DC300E4A3F074FFFDFCED1DAA0470011C4A600E
:104DD30029E5FB30E4F1E5FB548070EB900499E0A6
:104DE300FBA3E0FAA3E0F98F82758300E5FA1206CC
:104DF3005253FBEF9004A07401F053FB7F53FBDF8E
:104E0300E5FE601D900499E0FBA3E0FAA3E0F98FAF
:104E130082758300E5FA1206529004A074ACF08008
:104E2300030F809253FCBF43FB029004A0E064ACE9
:104E3300700F90049CE0FBA3E0FAA3E0F9EF1206E5
:104E4300409004A0E0FF2253CCBFA204E433C43358
:104E530033544042CC300403024F02E4900478F010
:104E6300900729E0FF900478E0C39F4003024F02BC
:104E7300E0FF75F002A424D5F582E5F03403F58351
:104E8300E0FCA3E0FDEF90889E93FF1276F8900478
:104E930078E0FD75F002A42436F582E5F03404F5DC
:104EA30083EEF0A3EFF075F002EDA42436F582E56E
:104EB300F03404F583E0FEA3E0FF75F002EDA424D3
:104EC300EDF582E5F03403F583EEF0A3EFF075F032
:104ED30002EDA42436F582E5F03404F583E0FEA365
:104EE300E0FF75F002EDA42411F582E5F03404F53A
:104EF30083EEF0A3EFF0900478E004F0024E632217
:104F0300900480EBF0A3EAF0A3E9F0900487EFF0BC
:104F1300A37470F0E4FF900486E0FEEFC39E502379
:104F2300900480E0FBA3E0FAA3E0F98F827583008D
:104F3300120613FE74892FF582E43404F583EEF030
:104F43000F80D37B017A047987900486E024029052
:104F53000497F07F011273A0900486E0FC2489F586
:104F630082E43404F583EFF0EEFF748A2CF582E4D7
:104F73003404F583EFF07B017A047987900486E0AB
:104F83002404FD1251C5EF640160037F01229004E4
:104F93009C7401F0A37404F0A37487F0A37403F06A
:104FA300900483E0FBA3E0FAA3E0F9124D8EEF64D3
:104FB300017F0060027F0122900476EBF0A3EAF008
:104FC300A3E9F078797C047D017BFF7A8979757E8A
:104FD300007F061205D47596585397FB7B017A041C
:104FE300797912703AEF60037F0122900479E054DB
:104FF300C0C41313540375F003A4240464046003AE
:105003007F01227B017A0479797D017F9312559781
:10501300EF60037F0122900476E0FBA3E0FAA3E0B4
:10502300F8AC02AD037B017A0479797E007F051227
:1050330005D49004837401F0A37404F0A37479F08D
:10504300A37405F0900476E0FBA3E0FAA3E0F97FF4
:1050530093124F03EF60037F0122900479E05424FD
:105063007F017001FF2290047AEBF0A3EAF0A3E939
:10507300F0E4FFFEEFC3940A748094805015EF753B
:10508300F00EA42435F582E43402F583E0F46003E2
:105093000F80E1EFC3940A748094805074900234BB
:1050A300EFF075F00EA42435F582E43402F583EFB6
:1050B300F075F00EA42436F582E43402F583EDF0A6
:1050C300E4FEEEC3940C74809480503190047AE033
:1050D300FBA3E0FAA3E0F98E82758300120613FDA9
:1050E300EF75F00EA42437F582E43402F583E582EC
:1050F3002EF582E43583F583EDF00E80C57B017ACE
:105103000279359004A0E4F0A3748CF07F0302319C
:10511300477F01227B01E0FCA3E0FD900501EBF05A
:10512300A3EAF0A3E9F0A3ECF0A3EDF0E4A3F0A36A
:10513300F09005067413F0900506E0FD7C00C3941F
:105143000A74809480407A900504E0FEA3E0FF1285
:105153000686AF05900508EFF0D394097480948018
:105163004004E024F6F0900508E0FF900507E0FD19
:10517300900501E0FBA3E0FAA3E0F912757BEF6071
:1051830014900508E004F0E0D394097480948040FF
:10519300D5E4F080D1900508E0FF900501E0FBA382
:1051A300E0FAA3E0F9900507E0F582758300EF12BA
:1051B3000652900507E004F0900506E014F0025152
:1051C3003A22900499EBF0A3EAF0A3E9F0A3EDF0FF
:1051D3007596585397FDE060046401702390049919
:1051E300E0FBA3E0FAA3E0F91205FAF5F953FCC1D9
:1051F30090049CE0FF25E0543E42FC43FC01806B9D
:10520300900499E0FBA3E0FAA3E0F91205FAF5F99B
:10521300900001120613F5FA53FCC190049CE0FFC1
:1052230025E0543E42FC43FC01127E9D7D02900426
:105233009CE0FEEDC39E5033ED90049930E014E002
:10524300FBA3E0FAA3E0F98D82758300120613F540
:10525300FA8012E0FBA3E0FAA3E0F98D82758300E4
:10526300120613F5F9127E9D0D80C3127E9D2290C6
:105273000668E0640260030253147D02FF125DDBE3
:10528300EF6401600302531490066BE07013900601
:105293007FF012877A90066A7401F0E4900668F052
:1052A30022E490050FF090066804F090066BE090FE
:1052B300067FF0E490050FF090050FE0FF3395E0D3
:1052C300FEC3EF9413EE64809480502B746C2FF51F
:1052D3008274063EF583E0FF601D90050FE0FD3309
:1052E30095E0FC746B2DF58274063CF583EFF0902A
:1052F300050FE004F080C190050FE0FF3395E0FE59
:10530300746B2FF58274063EF583E4F0900669F022
:10531300221248A82274A12FF582E43403F583E016
:105323007049744E2FF582E43404F583E4F074C9B4
:105333002FF582E43403F583E004F074C92FF5827A
:10534300E43403F583E0FE90895AE493FDEED39DA4
:10535300406474C92FF582E43403F583E4F07405E3
:105363002FF582E43404F583E4F02274C92FF58227
:10537300E43403F583E4F0744E2FF582E43404F54A
:1053830083E004F0744E2FF582E43404F583E0FEE9
:10539300908959E493FDEED39D401B744E2FF58203
:1053A300E43404F583E4F074052FF582E43404F562
:1053B300837401F0D2012290047F126EC4EF640162
:1053C30070037FFF227F0112883B7F087E00127DDE
:1053D300BA7F0412883E90047FE0FF127ECC9004D3
:1053E30080E0FF127ECC900480A3E0FF127ECC907D
:1053F3000482E0FF127ECC900482A3E0FF127ECCF5
:10540300900480E0FCA3E0FDECFF7E0090047FE0CD
:10541300240DFBE433CB2FFFEE3BFE7C00EF2DFD91
:10542300EC3E9004821272357D071243A1900487EB
:10543300EFF09006AAE0FEA3E07C002400FFEC3E20
:10544300F9900484E0FBA3E0FAA3E0C98FF012060D
:10545300E8900487E0FF2290047374FFF0A3F01236
:1054630085DFEF640170201286ADEF701A12849D00
:10547300EF700F9005B4E0700E04F07F02127BC64C
:105483008005E49005B4F0128850900473EFF0F4B3
:10549300601EE0FF1268FC900474EFF0F46011E00A
:1054A300651B600FE0FBF51BE4FDFF127BC9800366
:1054B300751BFF12885FEF60057F04127BC61284A1
:1054C300AEEF6008E4FBFD7F03127BC91285FDEF9D
:1054D3006008E4FBFD7F05127BC9127D5CEF600869
:1054E300E4FBFD7F01127BC91285EEEF6008E4FB4C
:1054F300FD7F06127BC92275962B5397F890047F84
:10550300E05407429753CDF3A3E025E025E0540C84
:1055130042CD53CDFDA3E025E0540242CD53CDFE51
:10552300A3E0540142CD53CBBFA3E0C43333544073
:1055330042CB53CCBFA3E0C43333544042CC759623
:105543002B5397C7A3E03333335438429753CD8F4C
:10555300A3E0C4547042CD53CBC0A3E0543F42CB2D
:1055630053ADDFA3E0C433542042AD75962D53975A
:10557300FDE4F5C953F1DF90048AE064017011532F
:10558300F6DF900489E0C43354E042F643E6202278
:1055930053E6DF2290047FEFF0A3EDF0A3EBF0A33B
:1055A300EAF0A3E9F078847C047D017BFF7A8979B2
:1055B3006B7E007F0A1205D490047FE090048EF086
:1055C300A37420F07B017A04798E7D021251C5EF1A
:1055D300640160037F012290049C7401F0A37404AE
:1055E300F0A37498F0A37405F07B017A04798E120A
:1055F3004D8EEF64017031FEEEC394057480948088
:105603005023748E2EF582E43404F583E0FD900478
:1056130081E0FBA3E0FAA3E0F98E82758300ED122B
:1056230006520E80D37F0022EF7F0070027F01229B
:10563300787D7C047D017BFF7A8979847E007F02FB
:105643001205D490047B744AF0A37464F07B017A4E
:1056530004797B7D02126D8F7F2C7E01127AEB9091
:1056630004857401F0A37404F0A3747DF0A37402A1
:10567300F07B017A04797BE4FD12361390047DE01C
:10568300FEB44A08A3E0B445037FFF22EEB44A0AFE
:1056930090047EE0B430037F002290047DE0B44A9E
:1056A30008A3E0B431037F012290047DE0FEB44AF5
:1056B30008A3E0B432037F0222EEB44A0A90047EC8
:1056C300E0B433037F03227FFF2233DA929E35B1A6
:1056D3006011377FE5FE392184893AAEC3FF3C1D53
:1056E300955B3D6358473E75FDF03F3172183F802F
:1056F3000000C2D50203E10203D7BD80FA50F302D2
:1057030003DEED33EC330460F17B3B7AAA79B8789E
:105713003F1201AEED33EC3392D5247B5011A2D569
:1057230070DB500BED448024045004A2D580CEEFEF
:10573300FBEEFAEDF9ECF812036BEFF582F404FCDF
:105743001203371200BDC0829056CD74091204C6ED
:10575300ED33CC33D0F092D525F0A2D57001C3132D
:10576300CC13FD22E4900476F0A3F012840FEF64CF
:10577300017002FF22900644E075F003A42423F590
:1057830082E43406F583E0120640900644E0FF7598
:10579300F003A42424F582E43406F583E0900001A9
:1057A300120652EF75F003A42425F582E43406F5BE
:1057B30083E0900002120652900644E0FF75F00366
:1057C300A42423F582E43406F58374FFF0EF75F027
:1057D30003A42424F582E43406F58374FFF0EF7503
:1057E300F003A42425F582E43406F58374FFF01254
:1057F300847B900644EFF07F012290889DE4939090
:105803000729F0E4900473F0900729E0FF900473F4
:10581300E0FEC39F5077E0FF25E024BEF582E43429
:1058230088F583E493FC740193FD75F002EFA424DF
:10583300D5F582E5F03403F583ECF0A3EDF0EE90BB
:10584300889E93FF123806900473E0FF75F002A45C
:105853002436F582E5F03404F583E4F0A3F075F023
:1058630002EFA424EDF582E5F03403F583E4F0A31D
:10587300F075F002EFA42411F582E5F03404F5830A
:10588300E4F0A3F0900473E004F002580B229004B8
:105893007DEBF0A3EAF0A3E9F0A3EDF0E4FFEFC39F
:1058A300940A748094805047E4FEEEC3940C748091
:1058B3009480503390047DE0FBA3E0FAA3E0F98EDB
:1058C30082758300120613FDEF75F00EA42437F5DD
:1058D30082E43402F583E5822EF582E43583F58391
:1058E300E0B505030E80C3EE640C60030F80AFEFD9
:1058F300C3940A74809480501FEF75F00EA424366D
:10590300F582E43402F583E0FE900480E0FDEE6D61
:105913006008ED64037001227FFF22787FE4F6D8EC
:10592300FD758120025965026A28E493A3F8E49384
:10593300A34003F68001F208DFF48029E493A3F87F
:105943005407240CC8C333C4540F4420C8834004F1
:10595300F456800146F6DFE4800B010204081020B0
:105963004080902B0CE47E019360BCA3FF543F3036
:10597300E509541FFEE493A360010ECF54C025E054
:1059830060A840B8E493A3FAE493A3F8E493A3C80C
:10599300C582C8CAC583CAF0A3C8C582C8CAC5839D
:1059A300CADFE9DEE780BE7E017FF47DFF7B017AFB
:1059B300007900120BAC7B017A0079009004A0748B
:1059C30001F0A374F4F07F011231477E007F3C7D28
:1059D300FF7B017A0179F4120BAC7B017A0179F434
:1059E3009004A0E4F0A3743CF07F0212314712004C
:1059F300167E007F8C7DFF7B017A027935120BAC1A
:105A03007B017A0279359004A0E4F0A3748CF07FD3
:105A130003123147750801750901E4F50AF50BF521
:105A23000DFB7A0079089004A0F0A3740FF0E4FF53
:105A33000231471284F112874F12782712788712A6
:105A43007A2A127542126F5C1278E77B027D087F17
:105A530005123B9F7D087F05127156E4FB7D407F55
:105A630006123B9F7B027D107F02123B9F7D107FBE
:105A7300021273DE7B027D087F02123B9F7D087F4B
:105A8300021273DEE4FB7D207F06123B9FE4FB7D65
:105A9300107F03123B9FE4FB7D207F03123B9FE4B7
:105AA300FB7D407F03123B9FE4FB7D807F03123B22
:105AB3009F12878F1281C7127CBB0286C390047B1F
:105AC300EFF0E024CEF582E43406F583E024FB60B6
