:100000000253E9020086E4FF0276B2026DD1E4FFFA
:100010000276D502008EE4FF0276F8026F41E4F525
:10002000C9C20053F1DF9003CAE0FEA3E0F5CA5352
:10003000CC7FEE5401C313E41342CC53CCC0908068
:1000400094E493543F42CC75C9012202009653E1D7
:10005000DF323202006E12807C7F2A1270617F6074
:10006000028049027FC153E1F7323202006A53F144
:02007000F73265
:10007300026C8C7F8912706112751C7F410280496A
:070083000200AE5388FD32BC
:07008B00026E0F5388F732EB
:0700930002006653F1FB328D
:07009B0002005253E1BF32E5
:0700A30002004E53E17F3221
:0700AB0002009E53E1FD324B
:1000B3000200A60203D7E86480F8E933E83360114D
:1000C3000460F0ED33EC337009E8FCE9FDEAFEEB84
:1000D300FF220460DED3EB9FEA9EE99DE8C2E78C32
:1000E300F0C2F795F0400CE8CCF8E9CDF9EACEFA86
:1000F300EBCFFB1203A285D0F05804700320D5B3D5
:10010300E80470075002B2D50203E192D5EC046013
:10011300F7E4CCC0E0C398F8603B94186008400D46
:10012300D0E0FB0203B9E4FBFAC9FC8028E830E421
:1001330006E4C9FBE4CAFCE830E305E4C9CACBFC26
:10014300E854076010F8C3E913F9EA13FAEB13FB59
:10015300EC13FCD8F130F52FC3E49CFCEF9BFFEECE
:100163009AFEED99FDD0E0FBEF4E4D4C701222DB71
:10017300030203DEEC2CFCEF33FFEE33FEED33FD25
:10018300ED30E7EB0203B9EF2BFFEE3AFEED39FD5D
:10019300D0E0FB50130BBB00030203E1ED13FDEEB4
:1001A30013FEEF13FFEC13FC0203B9EC4D6011E8EF
:1001B300497017ED33EC3304600DE4FCFFFEFD22C0
:1001C300E933E8330470F80203D71203A25804603A
:1001D30009E4CC248150062850090203E128400396
:1001E3000203DEC0E0EB4A7044B98006D0E0FB02B4
:1001F30003CDEF4E701CBD8008EBFFEAFEE9FD80E6
:10020300EBE98DF0A4FEE5F0020297E9CDF9EAFEF1
:10021300EBFFEF89F0A4FCE5F0CE89F0A42EFFE418
:1002230035F0CD89F0A42DFEE435F08067EF4E70F4
:1002330005BD80D780C3EF8BF0A4ACF0EE8BF0A4A8
:100243002CFCE435F0F8EF8AF0A42CE5F038FCE45C
:1002530033CB8DF0A42CFCE5F03BF8EE8AF0A42C14
:10026300FCE5F038F8E433CF89F0A42CFCE5F03852
:10027300CF3400CE89F0A42FFFE5F03EFEE433C96E
:100283008DF0A42EFEE5F039CD8AF0A42FFFE5F022
:100293003EFEE43DFD33D0E0FB50070BBB000F02F5
:1002A30003E1EC2CFCEF33FFEE33FEED33FD0203F1
:1002B300B974F8CC6480CCC86480C8F58204604FFC
:1002C300C3EB9FF5F0EA9E42F0E99D42F0E89C45BE
:1002D300F0603C501DE5825FFFE582D313CB5BCB1F
:1002E300F42B5582FB50280ABA002409B9002008D0
:1002F300801DE5825BFBE582D313CF5FCFF4C3138D
:100303002F5582FF50090EBE00050DBD00010CC321
:10031300EB9FF5F0EA9E42F0E99D42F0E89C45F040
:100323006007CC4820E701B3EC2275F020800E75FE
:10033300F010800575F0087D007E007F003392D5B4
:1003430030D5031207E2EC334010EF33FFEE33FEF8
:10035300ED33FDEC33FCD5F0ED22E5F0247EA2D5A0
:1003630013CC92E7CDCEFF22EDD2E7CD33EC33921F
:10037300D524814006E4FFFEFDFC22FCE4CFCECD74
:10038300CC24E0501174FF80EDC3CC13CCCD13CD3E
:10039300CE13CECF13CF0470F030D5DE0207E2E9DF
:1003A300D2E7C933E833F892D5EDD2E7CD33EC3356
:1003B300FC5002B2D522EC30E7100FBF000C0EBE8A
:1003C30000080DBD00040BEB6014A2D5EB13FCED8C
:1003D30092E7FD2274FFFCFDFEFF22E480F8A2D524
:1003E30074FF13FC7D80E480EFED33EC3360100485
:1003F300700FED547F7005740292E022740422049E
:1004030022E422ED33EC33600A047003BD8004EC74
:10041300B2E7FC220203E1EC5D046005E8590470D5
:10042300030203D71203A2580460F6EC4860F2EC0F
:100433007004FDFEFF22C860DB2481C85009C39805
:10044300600250060203DE9850CAF582E9294B4A3E
:100453007005AB820203CD75F0007C1A7880C3EF80
:100463009BEE9AED99400DC3EF9BFFEE9AFEED993B
:10047300FDE842F0DC23ACF0D0E0FFD0E0FED0E0BA
:10048300FDAB8220E7101BEB60BAEC2CFCEF33FFD3
:10049300EE33FEED33FD0203B9E803F830E705C0A0
:1004A300F075F000EF2FFFEE33FEED33FD40B83073
:1004B300E7C280AAC0E0EFFBEEFAEDF9ECF8120117
:1004C300AED0E0F5F0EFFBEEFAEDF9ECF812083DF3
:1004D300A3A3A3A3E8C0E0E9C0E0EAC0E0EBC0E067
:1004E300C0F01201AE120859A3A3A3A31200BDD0FA
:1004F300F0D0E0FBD0E0FAD0E0F9D0E0F8D5F0D4CA
:1005030022E709F608DFFA8046E709F208DFFA80F6
:100513003E88828C83E709F0A3DFFA8032E309F691
:1005230008DFFA8078E309F208DFFA807088828CAA
:1005330083E309F0A3DFFA806489828A83E0A3F668
:1005430008DFFA805889828A83E0A3F208DFFA8001
:100553004C80D280FA80C680D4806980F280338058
:100563001080A680EA809A80A880DA80E280CA8020
:100573003389828A83ECFAE493A3C8C582C8CCC5C5
:1005830083CCF0A3C8C582C8CCC583CCDFE9DEE742
:10059300800D89828A83E493A3F608DFF9ECFAA934
:1005A300F0EDFB2289828A83ECFAE0A3C8C582C8F6
:1005B300CCC583CCF0A3C8C582C8CCC583CCDFEA45
:1005C300DEE880DB89828A83E493A3F208DFF98083
:1005D300CC88F0EF60010E4E60C388F0ED2402B4C6
:1005E300040050B9F582EB2402B4040050AF232376
:1005F30045822390055473BB010689828A83E022D6
:100603005002E722BBFE02E32289828A83E493221B
:10061300BB010CE58229F582E5833AF583E022509C
:1006230006E92582F8E622BBFE06E92582F8E222E6
:10063300E58229F582E5833AF583E49322BB01063B
:1006430089828A83F0225002F722BBFE01F322F84B
:10065300BB010DE58229F582E5833AF583E8F022B3
:100663005006E92582C8F622BBFE05E92582C8F2B9
:1006730022EF8DF0A4A8F0CF8CF0A428CE8DF0A4A7
:100683002EFE22C2D5EC30E709B2D5E4C39DFDE4CA
:100693009CFCEE30E715B2D5E4C39FFFE49EFE1247
:1006A3000BD8C3E49DFDE49CFC8003120BD830D52A
:1006B30007C3E49FFFE49EFE22C5F0F8A3E028F001
:1006C300C5F0F8E582158270021583E038F022A3A5
:1006D300F8E0C5F025F0F0E582158270021583E09D
:1006E300C838F0E822BB010A89828A83F0E5F0A3C7
:1006F300F0225006F709A7F01922BBFE06F3E5F036
:1007030009F3192275F008758200EF2FFFEE33FE0F
:10071300CD33CDCC33CCC58233C5829BED9AEC99D6
:10072300E58298400CF582EE9BFEED9AFDEC99FC78
:100733000FD5F0D6E4CEFBE4CDFAE4CCF9A88222BF
:10074300B800C1B90059BA002DEC8BF084CFCECDDF
:10075300FCE5F0CBF97818EF2FFFEE33FEED33FD18
:10076300EC33FCEB33FB10D703994004EB99FB0FFD
:10077300D8E5E4F9FA227818EF2FFFEE33FEED33D4
:10078300FDEC33FCC933C910D7059BE99A4007EC4C
:100793009BFCE99AF90FD8E0E4C9FAE4CCFB227593
:1007A300F010EF2FFFEE33FEED33FDCC33CCC83327
:1007B300C810D7079BEC9AE899400AED9BFDEC9A89
:1007C300FCE899F80FD5F0DAE4CDFBE4CCFAE4C801
:1007D300F922CFF4CFCEF4CECDF4CDCCF4CC22C3DA
:1007E300E49FFFE49EFEE49DFDE49CFC22EB9FF569
:1007F300F0EA9E42F0E99D42F0EC6480C864809880
:1008030045F022EB9FF5F0EA9E42F0E99D42F0E8C5
:100813009C45F022E8600FECC313FCED13FDEE13CF
:10082300FEEF13FFD8F122E8600FEFC333FFEE337F
:10083300FEED33FDEC33FCD8F122E493FC74019319
:10084300FD740293FE740393FF22E0F8A3E0F9A37F
:10085300E0FAA3E0FB22E493F8740193F9740293A2
:10086300FA740393FB22ECF0A3EDF0A3EEF0A3EFF5
:10087300F022A8828583F0D083D08212088C1208DC
:100883008C12088C12088CE473E493A3C583C5F01F
:10089300C583C8C582C8F0A3C583C5F0C583C8C5D1
:1008A30082C822BB010789828A830208755005E941
:1008B300F8020C2DBBFE05E9F8020C4622D083D0CA
:1008C30082F8E4937012740193700DA3A393F874E8
:1008D3000193F5828883E4737402936860EFA3A3A2
:1008E300A380DF8A838982E473EC8EF0A4CCC5F005
:1008F300CCCDF8EFA4CEC5F02DFDE43CFCE8A42E4E
:10090300C8C5F03DFDE43CFCEFA4FFE5F028FEE4A0
:100913003DFDE43CFC22E709F60870FA8046E7094E
:10092300F20870FA803E88828C83E709F0A370FA9C
:10093300807EE309F60870FA8076E309F20870FA1C
:10094300806E88828C83E309F0A370FA80628982C7
:100953008A83E0A3F60870FA805689828A83E0A32B
:10096300F20870FA804A80D280FA80C680D480650B
:1009730080F28031801080A680EA809A80A880DA95
:1009830080E280CA803189828A83ECFAE493A3C827
:10099300C582C8CCC583CCF0A3C8C582C8CCC583E7
:1009A300CC70E9800D89828A83E493A3F60870F9F9
:1009B300ECFAA9F0EDFB2289828A83ECFAE0A3C862
:1009C300C582C8CCC583CCF0A3C8C582C8CCC583B7
:1009D300CC70EA80DD89828A83E493A3F20870F9FC
:1009E30080CE88F0ED2402B4040050C4F582EB24D9
:1009F30002B4040050BA232345822390096973E3A8
:100A0300F5F009E208B5F06BDFF58067E3F5F0096F
:100A1300E608B5F05EDFF5805A87F009E608B5F021
:100A230052DFF6804E87F009E208B5F046DFF68024
:100A33004288828C8387F009E0A3B5F036DFF68025
:100A43003288828C8387F009E493A3B5F025DFF520
:100A5300802188828C83E3F5F009E0A3B5F014DFED
:100A6300F5801088828C83E3F5F009E493A3B5F055
:100A730002DFF4020B31808780E9809080D4803ECE
:100A83008015806E807E809D80B7808D80A380518D
:100A93008074803C020B3D89828A83ECFAE493F5EF
:100AA300F0A3C8C582C8CCC583CCE493A3C8C582D0
:100AB300C8CCC583CCB5F076DFE3DEE180708982F4
:100AC3008A83E493F5F0A3E208B5F062DFF4805E75
:100AD30089828A83E0F5F0A3E608B5F051DFF5805B
:100AE3004D89828A83E0F5F0A3E208B5F040DFF593
:100AF300803C89828A83E493F5F0A3E608B5F02E5F
:100B0300DFF4802A8002805789828A83ECFAE49397
:100B1300F5F0A3C8C582C8CCC583CCE0A3C8C58201
:100B2300C8CCC583CCB5F006DFE4DEE280007FFFEE
:100B3300B5F0020F2240027F012289828A83ECFAF8
:100B4300E0F5F0A3C8C582C8CCC583CCE0A3C8C573
:100B530082C8CCC583CCB5F0D5DFE5DEE380CF8991
:100B6300828A83ECFAE0F5F0A3C8C582C8CCC583BA
:100B7300CCE493A3C8C582C8CCC583CCB5F0AFDFA2
:100B8300E4DEE280A988F0EF60010E4E60ABED2455
:100B930002B404005098F582EB2402B40400508E92
:100BA3002323458223900A7973EF4E6012EF60018D
:100BB3000EEDBB010B89828A83F0A3DFFCDEFA22F0
:100BC30089F05007F709DFFCA9F022BBFEFCF3090B
:100BD300DFFCA9F022BC000BBE0029EF8DF084FFDF
:100BE300ADF022E4CCF875F008EF2FFFEE33FEEC06
:100BF30033FCEE9DEC984005FCEE9DFE0FD5F0E92D
:100C0300E4CEFD22EDF8F5F0EE8420D21CFEADF02B
:100C130075F008EF2FFFED33FD4007985006D5F030
:100C2300F222C398FD0FD5F0EA22D083D082E49359
:100C3300F608740193F608740293F608740393F6A6
:100C4300740473D083D082E493F208740193F2089E
:100C5300740293F208740393F274047390046BEFB9
:100C6300F012804CA3EFF01208C00CD6010CD60290
:100C73000CD6120CD61311C71411C71511C7160CB5
:100C8300D617119F22119F2311C72411C72511C7FE
:100C930026119F27119F28119F32119F3311C734AB
:100CA30011C73511C7360CD6410CD64211AD4311CD
:100CB300AD4411C75012545312825412E2550CCB57
:100CC3006012E970000012F17F0112804990046CF8
:100CD3007401F0127CD7EF640170081280527F2EEA
:100CE3000212EE9005ABE0705390046BE0640A705F
:100CF30028A3E0644170030212F1127DE290046CB8
:100D0300E0FD7C00640170047F60802DED64024C83
:100D130060030212517F01802090046BE0640B702A
:100D23001BA3E0640160030212F1127DE2E490056B
:100D3300A8F07F831270617F02028049127DE290E6
:100D4300046BE0FFC374809480407CD3EF940974F8
:100D530080948050729005ABE0C39420748094809B
:100D6300506590046CE0FF64016005EF6402701647
:100D730090046BE0FF9005ABE0FE04F074AC2EF53D
:100D830082E43405803D9005AAE0FF7E00701A904E
:100D9300046BE0FD9005ABE0FC04F074AC2CF58231
:100DA300E43405F583EDF0801EEF64014E70189076
:100DB300046BE0FF9005ABE0FE04F074CC2EF582EB
:100DC300E43405F583EFF090046BE0640A600302FA
:100DD3000EA89005AAE0FF7E00700FA3E0FD14F0BB
:100DE30074AC2DF582E434058015EF64014E701464
:100DF3009005ABE0FF14F074CC2FF582E43405F5D5
:100E03008374FFF09005ABE060030212F190046C71
:100E1300E0640270057F830212EE9005AAE0703D44
:100E230090046CE0FF64126005EF641770057F6245
:100E33000212EE90046CE0641370057F740212EEEC
:100E430090046CE0644170057F890212EE90046C9B
:100E5300E0644260030212F17F620212EE9005AA7F
:100E6300E0640160030212F190046CE0FF6412601D
:100E730005EF641770057F680212EE90046CE0645E
:100E83001370057F040212EE90046CE06441700558
:100E93007F680212EE90046CE0644260030212F178
:100EA3007F680212EE90046BE0640B600B9005AB5D
:100EB300E0640860030212F19005ABE0FF7E00C31B
:100EC300940674809480507F90046CE064017056A3
:100ED300EF640270109005ACE0700AA3E070061294
:100EE3007EB3020FA29005ABE064027032A3E07000
:100EF3002EA3E064017028128073EF6401700E90DA
:100F030005A804F07F831270617F02800C7F0112B9
:100F1300785A7F5F1270617F01128049020FA27FAE
:100F23000112668D80797F65127061E49005ABF0E4
:100F33009005AAE07003020FF49005AAE064016033
:100F4300030212F102104590046CE064017057A390
:100F5300F07B017A0579AC9005ABE0FD1232159078
:100F6300046DEFF0F470077F0112668D80319004F9
:100F73006DE064FE7018128073EF64017010FF124D
:100F8300785A7F601270617F01128049801190044A
:100F93006DE0640170047F1180027F011248F8E460
:100FA3009005ABF0804B90046CE0640270507B01C1
:100FB3007A0579AC9005ABE0FDE4900472F012423F
:100FC3006AEFF470077F8C12706180209005A8E0AF
:100FD30064017010FF12785A7F601270617F0112F2
:100FE300804980087F01127FF1127909E49005ABF3
:100FF300F0FE7F207DFF7B017A0579AC804F900561
:10100300AAE0704C90046CE0FF6412601BEF64175D
:101013007002801490046CE0641370047F048016E3
:1010230090046CE0644170047F68800A90046CE073
:10103300644270057F681270619005AA7401F0E440
:10104300A3F0FE7F207DFF7B017A0579CC020BACF8
:101053009005AAE0640160030212F178AC7C057D7F
:10106300017B017A0579CCFE7F08120B88EF33955B
:10107300E04F600302119790046CE06413703D7BB2
:10108300017A0579AC9005ABE0FD9004727401F030
:1010930012426A90046DEFF0F470057F71021199AA
:1010A30090046DE0FF7D0112631DEF70047F0580E6
:1010B300027F6E127061127EF302119C7B017A052E
:1010C30079AC9005ABE0FD9004727403F012426AB0
:1010D300EFF460057F8602119990046CE06412704E
:1010E300287B017A0579AC9005ABE0FD900472741E
:1010F30001F012443AEF640170047F6E80027F05B1
:10110300127061127EE902119C90046CE0644170DC
:10111300267B017A0579AC9005ABE0FDE49004727F
:10112300F012443AEF640170047F6E80027F05126F
:101133007061127CFB806290046CE0644270237BDC
:10114300017A0579AC9005ABE0FDE4900472F012EE
:10115300443AEF640170047F6E80027F0512706170
:10116300802D90046CE06417702F7B017A0579ACB5
:101173009005ABE0FD9004727402F012443AEF6400
:101183000170047F6E80051280277F051270611243
:10119300790980057FD312706102751C90046BE09E
:1011A300640A60030212F102124E90046BE0640AB7
:1011B30060030212F1127DE2128070EF7003027E6F
:1011C300DF02125190046BE0640B7074127DE290A5
:1011D300046CE01208C011FB14122E151231161202
:1011E3000C24123425123726121D34123A35123DBF
:1011F30036124050000012F1125C1CEF70047F05A0
:1012030080027F081270618045125DFCEF70047FDD
:101213000580027F08127061803412603FEF700412
:101223007F0580027F0812706180230278CF027EDF
:101233006602773D027CE90278EC027E730268D98C
:1012430090046BE0640A60030212F1127DE20279FA
:101253000990046BE0640A7006127DE2025D8690D9
:10126300046BE070030212F1127FF790046BE0D37A
:101273009F507B127DE290046BE014FF0263E61241
:101283007FFD90046DEFF06496700B127DE2900485
:101293006BE0FF02611B90046DE06499703590046C
:1012A3006BE0640A7018127DE2127E9A12806DEF71
:1012B300600280287F587E021275B4027E8D9004EE
:1012C3006BE0640B7028127DE2127E9A7D017F9998
:1012D300026C4812806DEF6015127DE2027E1E12D1
:1012E30080527F5E80051280527F2F1270612290A0
:1012F3000494E0F9A3E0FAA3E09004BFC9F0A3EAE1
:10130300F0A3E9F0A37401F0A37404F0A3749DF0B7
:10131300900491E0FBA3E0FAA3E0F99004BCEBF0A6
:10132300A3EAF0A3E9F0900006120613FF3395E059
:10133300FEEF24D0FFEE34FFFE7C007D0A1206741C
:10134300C006C007900005120613FF3395E0FEEFB9
:1013530024D0FFEE34FFFE7D64120674D0E02FFF2D
:10136300D0E03EFE900007120613FD3395E0FCED3E
:1013730024D0FDEC34FFCD2FFFED3E9004C5F0A348
:10138300EFF0E49004D1F0A3F09004BFE0FBA3E0FE
:10139300FAA3E0F9127C749004DCEEF0A3EFF0E41E
:1013A3009004E8F0A3F07A0479EA9004C5124BD2D2
:1013B300E49004D1F0A3F09004D1E0FEA3E0FFC3D6
:1013C3009405EE6480948050639004BCE0FBA3E03A
:1013D300FAA3E0F98F828E83120613FF3395E0FEA2
:1013E300EF24D0FFEE34FF9004F4F0A3EFF0900469
:1013F300F4E0FEA3E024EAF58274043EF583E0FD05
:101403009004D2E025E0FF9004D1E033FE74C72FAF
:10141300F58274043EF583E4F0A3EDF09004D2E08A
:1014230004F070939004D1E004F0808B7E007F0978
:101433007D007B017A0479D3120BAC9004DCE0705D
:1014430004A3E06408701678D37C047D019004BF84
:10145300E0FBA3E0FAA3E0F91209E58079D3900455
:10146300DDE094089004DCE06480948040279004DD
:10147300BFE0F9A3E0FAA3E09004F9C9F0A3EAF00E
:10148300A3E9F0A3E4F0A37408F07B017A0479D311
:10149300126184804178D37C047D019004BFE0FB1A
:1014A300A3E0FAA3E0F91209E59004F974FFF0A3AD
:1014B3007481F0A37471F09004DCE0FEA3E0FFC339
:1014C30074089F9004FDF0E49E9004FCF07B017A85
:1014D3000479D31245F39004D4E0FB3395E0FA90FA
:1014E30004D3E0FF3395E0FEC3EF9BFFEE9AFE903B
:1014F30004D5E0F9FD3395E0FCEF2DFFEE3CFEA3B0
:10150300E0FD3395E0FCC3EF9DFFEE9CFEA3E0FD01
:101513003395E0FCEF2DFFEE3CFEA3E0FD3395E0B9
:10152300FCC3EF9DFFEE9CFEA3E0FD3395E0FCEFD3
:101533002DFFEE3CFEA3E0FD3395E0FCC3EF9DFFE2
:10154300EE9C9004DEF0A3EFF0C374309BFFE49AAB
:10155300FEE9FD3395E0FCEF2DFFEE3CFE9004D653
:10156300E0F9FB3395E0FAC3EF9BFFEE9AFEA3E0AD
:10157300FB3395E0FAEF2BFFEE3AFEA3E0FB339546
:10158300E0FAC3EF9BFFEE9AFEA3E0FB3395E0FA8C
:10159300EF2BFFEE3AFEA3E0FB3395E0FAC3EF9B9C
:1015A300FFEE9A9004E0F0A3EFF0E9FF3395E0FE3D
:1015B300C3ED9FFFEC9EFE9004D7E0FD3395E0FC66
:1015C300EF2DFFEE3CFEA3E0FB3395E0FAC3EF9B68
:1015D300FFEE9AFEA3E0FB3395E0FAEF2BFFEE3A22
:1015E300FEA3E0FB3395E0FAC3EF9BFFEE9A900472
:1015F300E2F0A3EFF0E9FF3395E0FEC374309FCF31
:10160300E49ECF2DCF3CFE9004D8E0FD3395E0FC63
:10161300C3EF9DFFEE9CFEA3E0F9FB3395E0FAEFE9
:101623002BFFEE3AFEA3E0FB3395E0FAC3EF9BFFFB
:10163300EE9A9004E4F0A3EFF09004D7E0FF339523
:10164300E0FEC3EF9DFFEE9CFEE9FD3395E0FCEF6A
:101653002DFFEE3CFE9004DAE0FD3395E0FCC3EF92
:101663009DFFEE9C9004E6F0A3EFF0E49004D1F02C
:10167300A3F09004D1E0FAA3E0FB25E0FFEA33FEF8
:1016830074DE2FF58274043EF583E0FCA3E0FD7461
:10169300C72FF58274043EF583E0FEA3E0C39DFFEC
:1016A300EE9CCF2464CF3400FE7C007D0A120686B4
:1016B300EB25E0FFEA33FE74C72FF58274043EF591
:1016C30083ECF0A3EDF09004D2E004F070069004F4
:1016D300D1E004F09004D1E07004A3E064057092BB
:1016E300E49004D1F0A3F09004D1E0FEA3E0FFC3A3
:1016F3009405EE6480948040030217B47C007D025D
:10170300120686ED4C7027E025E0FF9004D1E0330C
:10171300FE74C72FF58274043EF583A3E025E0FD34
:101723000582D5820215831582E033FC802890045C
:10173300D2E025E0FF9004D1E033FE74C72FF58299
:1017430074043EF583E0FEA3E0FF7C007D031206F4
:1017530074AC06AD07EC120332C004C005C006C06A
:10176300079004FA12087540000000D007D006D095
:1017730005D004123929C004C005C006C00790046F
:10178300E8E0FCA3E0FDEC120332D003D002D00169
:10179300D0001200BD12036B9004E8EEF0A3EFF04B
:1017A3009004D2E004F070069004D1E004F0021635
:1017B300EA9004E8E0FEA3E0FF9004C5E06E700346
:1017C300A3E06F600302188B9004C7A3E0FF9004AB
:1017D300C2E0FBA3E0FAA3E0F9EF1206409004C9CC
:1017E300A3E0FF9004C2E0FBA3E0FAA3E0F99000BA
:1017F30001EF1206529004CBA3E0900002120652AE
:101803009004CDA3E09000031206529004CFA3E00E
:101813009000041206529004BCE0FBA3E0FAA3E09C
:10182300F990000512061324D0FF9004C2E0FBA335
:10183300E0FAA3E0F9900005EF1206529004BCE031
:10184300FBA3E0FAA3E0F990000612061324D0FFED
:101853009004C2E0FBA3E0FAA3E0F9900006EF12C4
:1018630006529004BCE0FBA3E0FAA3E0F990000762
:1018730012061324D0FF9004C2E0FBA3E0FAA3E016
:10188300F9900007EF020652E49004D1F0A3F09020
:1018930004D1E0FEA3E0FFC39408EE64809480507B
:1018A300249004C2E0FBA3E0FAA3E0F98F828E83C5
:1018B30074FF1206529004D2E004F070D29004D167
:1018C300E004F080CA229004BCEBF0A3EAF0A3E9A1
:1018D300F090000612061375F00AA4FDACF0900018
:1018E3000512061375F064A42DFFE5F03CFE90008D
:1018F300071206137C002FFFEC3E9004C5F0A3EF04
:10190300F09004BFE0FBA3E0FAA3E0F9127C74902B
:1019130004DAEEF0A3EFF0E4A3F0A3F09004E8F010
:10192300A3F07A0479EA9004C5124BD2E49004DC64
:10193300F0A3F09004DCE0FEA3E0FFC39405EE64A3
:1019430080948050599004BCE0FBA3E0FAA3E0F933
:101953008F828E83120613FF9004F4E4F0A3EFF05A
:101963009004F4E0FEA3E024EAF58274043EF583D8
:10197300E0FD9004DDE025E0FF9004DCE033FE743D
:10198300C72FF58274043EF583E4F0A3EDF09004D1
:10199300DDE004F0709D9004DCE004F080957E00AF
:1019A3007F097D007B017A0479D1120BAC9004DAB4
:1019B300E07004A3E06408701678D17C047D019084
:1019C30004BFE0FBA3E0FAA3E0F91209E58079D3B1
:1019D3009004DBE094089004DAE06480948040276C
:1019E3009004BFE0F9A3E0FAA3E09004F9C9F0A3DF
:1019F300EAF0A3E9F0A3E4F0A37408F07B017A040E
:101A030079D1126184804178D17C047D019004BF37
:101A1300E0FBA3E0FAA3E0F91209E59004F974FFEF
:101A2300F0A37481F0A37471F09004DAE0FEA3E0F4
:101A3300FFC374089F9004FDF0E49E9004FCF07BC8
:101A4300017A0479D11245F39004D2E0FB3395E097
:101A5300FA9004D1E0FF3395E0FEC3EF9BFFEE9ACB
:101A6300FE9004D3E0F9FD3395E0FCEF2DFFEE3C4F
:101A7300FEA3E0FD3395E0FCC3EF9DFFEE9CFEA3C8
:101A8300E0FD3395E0FCEF2DFFEE3CFEA3E0FD33DC
:101A930095E0FCC3EF9DFFEE9CFEA3E0FD3395E0D4
:101AA300FCEF2DFFEE3CFEA3E0FD3395E0FCC3EF1E
:101AB3009DFFEE9C9004DEF0A3EFF0C374309BFF18
:101AC300E49AFEE9FD3395E0FCEF2DFFEE3CFE903A
:101AD30004D4E0F9FB3395E0FAC3EF9BFFEE9AFEE3
:101AE300A3E0FB3395E0FAEF2BFFEE3AFEA3E0FB16
:101AF3003395E0FAC3EF9BFFEE9AFEA3E0FB339529
:101B0300E0FAEF2BFFEE3AFEA3E0FB3395E0FAC3D6
:101B1300EF9BFFEE9A9004E0F0A3EFF0E9FF33951B
:101B2300E0FEC3ED9FFFEC9EFE9004D5E0FD3395F0
:101B3300E0FCEF2DFFEE3CFEA3E0FB3395E0FAC3A0
:101B4300EF9BFFEE9AFEA3E0FB3395E0FAEF2BFF4A
:101B5300EE3AFEA3E0FB3395E0FAC3EF9BFFEE9A68
:101B63009004E2F0A3EFF0E9FF3395E0FEC3743095
:101B73009FCFE49ECF2DCF3CFE9004D6E0FD33955E
:101B8300E0FCC3EF9DFFEE9CFEA3E0F9FB3395E081
:101B9300FAEF2BFFEE3AFEA3E0FB3395E0FAC3EF37
:101BA3009BFFEE9A9004E4F0A3EFF09004D5E0FFDE
:101BB3003395E0FEC3EF9DFFEE9CFEE9FD3395E018
:101BC300FCEF2DFFEE3CFE9004D8E0FD3395E0FCE6
:101BD300C3EF9DFFEE9C9004E6F0A3EFF0E49004C6
:101BE300DCF0A3F09004DCE0FAA3E0FB25E0FFEADD
:101BF30033FE74DE2FF58274043EF583E0FCA3E02C
:101C0300FD74C72FF58274043EF583E0FEA3E0C3A1
:101C13009DFFEE9CCF2464CF3400FE7C007D0A122E
:101C23000686EB25E0FFEA33FE74C72FF5827404C2
:101C33003EF583ECF0A3EDF09004DDE004F07006D4
:101C43009004DCE004F09004DCE07004A3E064059D
:101C53007092E49004DCF0A3F09004DCE0FEA3E0D7
:101C6300FFC39405EE648094804003021D267C002C
:101C73007D02120686ED4C7027E025E0FF9004DC20
:101C8300E033FE74C72FF58274043EF583A3E02589
:101C9300E0FD0582D5820215831582E033FC80289E
:101CA3009004DDE025E0FF9004DCE033FE74C72FF1
:101CB300F58274043EF583E0FEA3E0FF7C007D0320
:101CC300120674AC06AD07EC120332C004C005C0A3
:101CD30006C0079004FA12087540000000D007D030
:101CE30006D005D004123929C004C005C006C007B8
:101CF3009004E8E0FCA3E0FDEC120332D003D00231
:101D0300D001D0001200BD12036B9004E8EEF0A3E3
:101D1300EFF09004DDE004F070069004DCE004F0E2
:101D2300021C5C9004E8E0FEA3E0FF9004C5E06EB3
:101D33007003A3E06F6003021DF79004C7A3E0FFE5
:101D43009004C2E0FBA3E0FAA3E0F9EF120640908F
:101D530004C9A3E0FF9004C2E0FBA3E0FAA3E0F907
:101D6300900001EF1206529004CBA3E09000021200
:101D730006529004CDA3E09000031206529004CFC4
:101D8300A3E09000041206529004BCE0FBA3E0FA27
:101D9300A3E0F9900005120613FF9004C2E0FBA331
:101DA300E0FAA3E0F9900005EF1206529004BCE0BC
:101DB300FBA3E0FAA3E0F9900006120613FF9004D8
:101DC300C2E0FBA3E0FAA3E0F9900006EF1206528B
:101DD3009004BCE0FBA3E0FAA3E0F990000712062D
:101DE30013FF9004C2E0FBA3E0FAA3E0F99000071D
:101DF300EF020652E49004DCF0A3F09004DCE0FE72
:101E0300A3E0FFC39408EE6480948050249004C23E
:101E1300E0FBA3E0FAA3E0F98F828E8374FF12063E
:101E2300529004DDE004F070D29004DCE004F08012
:101E3300CA2290046BEFF0E4A3F0A3F0A3F01280A6
:101E43004CA3EFF0647070081280527F2F02227E41
:101E530090046FE0646070057F0112804990046F05
:101E6300E0FF7E0064016021EF6422601CEF6423C5
:101E73006017EF64436012EF6444600DEF64276002
:101E830008EF64286003022281EF64544E700B1242
:101E93007FFDEF64056003022281128052127CD71A
:101EA300EF640170081280527F2E02227E12000618
:101EB30090046CEFF060030222779005AAE0FF1212
:101EC3006D9290046CEFF060030222779005AAE014
:101ED300FF7B017A04796D12644A90046CEFF06021
:101EE3000302205890046FE06401703190046DA3E5
:101EF300E0FF7D0312717090046CEFF06003022029
:101F0300607F0212805B90046DA3E0FF7D0212717B
:101F130070EF70047F1280027F020248F890046F12
:101F2300E0FF64226014EF6443600FEF6444600ACF
:101F3300EF64276005EF6454700A7F0312805B7FB0
:101F43006E02227E90046FE0FF64236008EF642832
:101F5300600302228190046FE06423700A90046D91
:101F6300A3E0FF7D01801090046FE064287010905F
:101F7300046DA3E0FF7D0212717090046CEFF0908A
:101F8300046CE0600302204E9005AAE0701504F093
:101F930090046DA3E09005A3F07F0212805B7F1194
:101FA30002227E9005A3E0FF7E0090046DE0FCA377
:101FB300E0FDB5070BEEB50407E490046CF0800672
:101FC30090046C74FFF090046CE0707290046FE006
:101FD30064237006AF057D01801090046FE06428D0
:101FE300701090046DA3E0FF7D02126EC990046C23
:101FF300EFF090046CE0700EA3E0FEA3E0FF127F0D
:10200300AC90046CEFF090046CE070097F021280D6
:102013005B7F0580077F0312805B7F6E1270619088
:10202300046FE064237006127F1102225190046F43
:10203300E0642860030222511279090222517F03CE
:1020430012805B7FD31270610222517F0312805B87
:102053007F7D02227E90046FE06401700A7F031289
:10206300805B7F0202668D90046FE0FF642260173D
:10207300EF64436012EF6444600DEF64276008EF80
:10208300645460030222669005AAE06403600302BD
:10209300225712000E90046CEFF060030222479067
:1020A300046FE0FF7E006422600DEF64276008EF99
:1020B300645460030221BBEF64274E7005127099CC
:1020C30080031271D990046DE4F0A3EFF090046DD6
:1020D300E07003A3E0F4700D7F0312805B7F5C125A
:1020E300706102224290046DE0FCA3E0FDE4FF1264
:1020F300692790046CEFF090046FE06422703E90C7
:10210300046CE07019A3A3E0FF7D011273F2900445
:102113006CEFF06009A3E0FEA3E0FF127FAC900434
:102123006CE070097F0212805B7F0580077F0312DA
:10213300805B7F6E127061127F0702225190046FE1
:10214300E06427704190046CE07019A3A3E0FF7D65
:10215300021273F290046CEFF06009A3E0FEA3E0B7
:10216300FF127FAC90046CE0700F7F0212805B7FE4
:1021730005127061128027800A7F0312805B7F6ED5
:1021830012706102224290046CE0700EA3E0FEA381
:10219300E0FF127FAC90046CEFF090046CE07009E8
:1021A3007F0212805B7D0180077F0312805BE4FD69
:1021B3007F05126C4802225190046FE0FF7E006499
:1021C30043700890046DF0A3F0800DEF64444E70EB
:1021D3000790046DF0A304F090046DE0FEA3E0FF0C
:1021E300127FAC90046CEFF07010A3E0FCA3E0FD51
:1021F300E4FF12692790046CEFF090046CE0700E1A
:10220300A3A3E0FFE4FD1273F290046CEFF09004DB
:102213006CE070097F0212805B7F0580077F0312E9
:10222300805B7F6E127061128070EF701290046F8A
:10223300E064437005127D0D8014127EDF800F125F
:102243007909800A7F0312805B7F7A127061E490C0
:1022530005AAF0229005AAE004F07F0212805B7FBA
:1022630011801890046FE0642370137F0312805B66
:102273007F7D80077F0312805B7F11127061229044
:10228300046BEFF0A205920690046F7403F0126BD7
:10229300BD30050302260D90046BE0FF25E024B456
:1022A300F582E43480F583E493FC740193FD75F0C7
:1022B30002EFA424CAF582E5F03403F583ECF0A31E
:1022C300EDF090046BE0FE90809493FF90046EF029
:1022D30075F002EEA424CAF582E5F03403F583E039
:1022E300FCA3E0FD1271A590046BE0FD75F002A460
:1022F300242BF582E5F03404F583EEF0A3EFF075BB
:10230300F002EDA4242BF582E5F03404F583E0FE1E
:10231300A3E0FF90046CE0FCA3E0FDD3EF9DEE9CF3
:1023230050030224F890046BE0FF75F002A4242B01
:10233300F582E5F03404F583E0FCA3E0FD90046C42
:10234300E0FAA3E0FBD3ED9BEC9A5003022414754F
:10235300910775F002EFA424CAF582E5F03403F582
:1023630083E0FEA3E0C394FFEE9401400302241430
:1023730090046BE0FF75F002A424CAF582E5F03403
:1023830003F583E475F0011206BC75F002EFA42493
:10239300CAF582E5F03403F583E0FCA3E0FD900485
:1023A3006EE0FF1271A590046BE0FD75F002A424AA
:1023B3002BF582E5F03404F583EEF0A3EFF075F02E
:1023C30002EDA4242BF582E5F03404F583E0FEA3AB
:1023D300E0FF75F002EDA424E2F582E5F03403F5A5
:1023E30083EEF0A3EFF075F002EDA4242BF582E564
:1023F300F03404F583E0FEA3E0FF75F002EDA424BE
:1024030006F582E5F03404F583EEF0A3EFF0022342
:1024130028E5CDC454072409F9E47F01FEFDFCA897
:102423000112082AEF24F6FBEE34FFFAED34FFF92C
:10243300EC34FFF890046BE075F002A4242BF582D2
:10244300E5F03404F583E0FEA3E0FFE4FCFDD312E2
:10245300080640030224F890046BE0FF75F002A421
:1024630024CAF582E5F03403F583E475F00112061E
:10247300BC75F002EFA424CAF582E5F03403F583BA
:10248300E0FCA3E0FD90046EE0FF1271A590046BE5
:10249300E0FD75F002A4242BF582E5F03404F58306
:1024A300EEF0A3EFF075F002EDA4242BF582E5F036
:1024B3003404F583E0FEA3E0FF75F002EDA424E20B
:1024C300F582E5F03403F583EEF0A3EFF075F00247
:1024D300EDA4242BF582E5F03404F583E0FEA3E0BC
:1024E300FF75F002EDA42406F582E5F03404F583CC
:1024F300EEF0A3EFF090046BE075F002A4242BF54B
:1025030082E5F03404F583E0FEA3E0FF90046CE081
:10251300FCA3E0FDD3EF9DEE9C400302260D900447
:102523006BE0FF75F002A4242BF582E5F03404F58B
:1025330083E0FCA3E0FD90046CE0FAA3E0FBC3EDB1
:102543009BEC9A400302260D75910775F002EFA4E8
:1025530024CAF582E5F03403F583E0FEA3E0D394C7
:1025630000EE9400500302260D90046BE0FF75F01B
:1025730002A424CAF582E5F03403F58374FFF5F071
:102583001206BC75F002EFA424CAF582E5F0340309
:10259300F583E0FCA3E0FD90046EE0FF1271A590CB
:1025A300046BE0FD75F002A4242BF582E5F03404FE
:1025B300F583EEF0A3EFF075F002EDA4242BF58282
:1025C300E5F03404F583E0FEA3E0FF75F002EDA42B
:1025D30024E2F582E5F03403F583EEF0A3EFF07522
:1025E300F002EDA4242BF582E5F03404F583E0FE3C
:1025F300A3E0FF75F002EDA42406F582E5F03404B0
:10260300F583EEF0A3EFF002252122AB07EB25E0E3
:10261300240BF582E43481F583E493FF74019390F2
:10262300046FCFF0A3EFF0EB25E0240BF582E43445
:1026330081F583E493FC740193FD9080FBE493FFA5
:102643007E00120674EEC4F854F0C868FEEFC4545A
:102653000F48FF900471EEF0A3EFF075F002EBA4C6
:10266300242BF582E5F03404F583E0FEA3E0FF7547
:10267300F002EBA424E2F582E5F03403F583E0FCF9
:10268300A3E0C39FFFEC9EFE90046DF0A3EFF0C3A5
:10269300EE6480948050030227EBA3E0FEA3E0FFE7
:1026A30090046DE0FCA3E0FD9FEE6480F8EC648091
:1026B30098401074962BF582E43403F5837401F08B
:1026C3000227B7900471E0FEA3E0FFC3ED9FEE6421
:1026D30080F8EC6480984058745B2BF582E43404F2
:1026E300F583E004F074AE2BF582E43403F583E460
:1026F300F0744F2BF582E43404F583E4F074A22BD9
:10270300F582E43403F583E4F0745B2BF582E4345F
:1027130004F583E0FF90070EE0FEEFC39E50030233
:1027230027B7745B2BF582E43404F583E4F0806E01
:10273300745B2BF582E43404F583E4F074AE2BF57B
:1027430082E43403F583E004F0744F2BF582E43420
:1027530004F583E4F074A22BF582E43403F583E4F7
:10276300F074AE2BF582E43403F583E0FF90071099
:10277300E0FEEFC39E403D74AE2BF582E43403F5D7
:1027830083E4F075F002EBA424E2F582E5F0340370
:10279300F583E0FEA3E0D39400EE9400401675F0B9
:1027A30002EBA424E2F582E5F03403F58374FFF52C
:1027B300F01206BC90814DE493FE740193FFC39025
:1027C3000470E09FFF90046FE09EFEC390046EE0F0
:1027D3009F90046DE09E400302295C74962BF58262
:1027E300E43403F583E4F02274962BF582E4340396
:1027F300F583E4F0900471E0FEA3E0FFC3E49FFFE0
:10280300E49EFEC390046EE09FEE6480F890046D36
:10281300E0648098406C745B2BF582E43404F583A8
:10282300E4F074AE2BF582E43403F583E4F0744FE3
:102833002BF582E43404F583E004F074A22BF582D3
:10284300E43403F583E4F0744F2BF582E43404F5A8
:1028530083E0FF90070DE0FEEFC39E500302295C67
:10286300744F2BF582E43404F583E4F075F002EB46
:10287300A424E2F582E5F03403F583E475F0010264
:102883002959745B2BF582E43404F583E4F074AEC8
:102893002BF582E43403F583E4F0744F2BF582E4E3
:1028A3003404F583E4F074A22BF582E43403F58356
:1028B300E004F074A22BF582E43403F583E0FF9087
:1028C300070FE0FEEFC39E500302295C74A22BF5B1
:1028D30082E43403F583E4F0900470E025E0FD9096
:1028E300046FE033FCE0A2E713FEA3E0132DFFEE39
:1028F3003CFEC3E49FFFE49EFED390046EE09FEE94
:102903006480F890046DE0648098502975F002EBC0
:10291300A4242BF582E5F03404F583E0FEA3E0FF65
:1029230075F002EBA424E2F582E5F03403F583EEBF
:10293300F0A3EFF022900471E0FEA3E0FF7C007DA2
:102943000512068675F002EBA424E2F582E5F03465
:1029530003F583EE8FF01206BC22C101C103C1024D
:10296300C100410467004406EDFFFFFFFF4406F189
:10297300FFFFFFFF440689FFFFFFFF42068D0000B4
:1029830041068F00440659FFFFFFFF41065D0041EA
:1029930006740041065E005406600000000000005B
:1029A30000000000000000000000000000004106DD
:1029B3005F004406A9FFFFFFFF5006ADEF01FFFFD5
:1029C300FFFF0100074101010050009B440690FFF7
:1029D300FFFFFF410694004406F5FFFFFFFF440697
:1029E300F9FFFFFFFF4406FDFFFFFFFF440701FF61
:1029F300FFFFFF4406E2FFFFFFFF4206E60000443D
:102A03000705FFFFFFFF440709FFFFFFFF4407110F
:102A1300FFFFFFFF011700011900011800011A0051
:102A2300440614FFFFFFFF440715FFFFFFFF4405A4
:102A3300A4FFFFFFFF4105AB004105AAFF011CFFF7
:102A4300011BFF4105A9004105A8004105A2004162
:102A530005A3006096050C0223000327000423004E
:102A63000725000826000A27000D23000F2500086C
:102A730024001627001E27002023001F27002823D9
:102A8300002B24002C24002D240051425243250006
:102A93005146524925005144524525005148524759
:102AA3002500514A524B25005133523453352500EA
:102AB3005136523853392500513A523C533D250083
:102AC300513E5240534125000627005142250051F3
:102AD3003052312500513A523C2500513052315386
:102AE30032543355345635575D58612500440381BC
:102AF300FFFFFFFF41038F0042038600004203886C
:102B0300000042039100004103850041039000410E
:102B13000393004102C00041039400410395004226
:102B2300037F000043038C00000060AA02D5010369
:102B3300000000010500000001070000000108007B
:102B430000000109000000010BFF7F43010CFF7A25
:102B530042010A0000000A04FF77800A0600000011
:102B630002080000000209000000020BFF7F43037C
:102B73000DFF78CF030FFF7E660310FF7EFD052D4B
:102B8300FF773D052FFF7CE90530FF7F1B062DFFF7
:102B93007568062FFF758E0747FF78EC0749FF7EA0
:102BA30073074AFF7F390882FF7E80088300000095
:102BB3008362FF7CFB8363FF7D0D096A00000009CC
:102BC300840000006A69FF79DE6A68FF79F7846F21
:102BD300FF7A108470FF7A294406E8FFFFFFFF4164
:102BE30006EC005E063B01E602B303BB05C307CB5D
:102BF3000895099B0ADA06E06AA76AA783A184AD50
:102C03009EFFFFFF440719FFFFFFFF4405ECFFFF93
:102C1300FFFF4C0608000000000000000000000059
:102C2300004406DBFFFFFFFF4106DF004206E00032
:102C330000440230FFFFFFFF4406BEFFFFFFFF41DA
:102C430006C2004106CA004206C800004506C396F4
:102C53000507999B4106BD004406D5FFFFFFFF42D0
:102C630006D900004106D3004106D4000090049128
:102C7300EBF0A3EAF0A3E9F0E49004B5F0A3F0A32A
:102C8300F0A3F0A3F0A3F0A3F0FE7F08FD7B017A8D
:102C930004799D120BAC7E007F087D007B017A04D2
:102CA30079A5120BAC7E007F087D007B017A047945
:102CB300AD120BAC900497E0FBA3E0FAA3E0F9EAB2
:102CC300494B7003022F3C1205FAF46003022DEC0A
:102CD300900001120613F46003022DEC900002121F
:102CE3000613F46003022DEC900003120613F46044
:102CF30003022DEC900004120613F46003022DEC82
:102D0300900005120613F46003022DEC90000612E6
:102D13000613F46003022DEC900007120613F4600F
:102D230003022DEC1212F290049DE0F9F470069068
:102D330004B5F0FF2290049EE0FF7E007C037DE853
:102D4300120674AA06AB07E9FF7E007C277D1012EA
:102D53000674EF2BFDEE3AFCA3E075F064A42DFDA1
:102D6300E5F03CFCA3E075F00AA42DFFE5F03CFE82
:102D7300A3E07C002FFFEC3EFE9004B6F0A3EFF03F
:102D8300C39004B9E09FEE6480F89004B8E06480D7
:102D9300984003022F34E49004BAF0A3F090049116
:102DA300E0FBA3E0FAA3E0F99004BAE0FEA3E0FF9E
:102DB300F5828E8312061324D0FD74A52FF5827439
:102DC300043EF583EDF09004BBE004F0700690043C
:102DD300BAE004F09004BAE07004A3E0640870BDA4
:102DE3009004B57401F0022F34900494E0F9A3E049
:102DF300FAA3E09004BFC9F0A3EAF0A3E9F0A37437
:102E030001F0A37404F0A374ADF0900497E0FBA366
:102E1300E0FAA3E0F91218C99004ADE0F4700302DC
:102E23002F3D1212F290049DE0F47003022F3D90A7
:102E3300049EE0FF7E007C037DE8120674AA06ABC5
:102E43000790049DE0FF7E007C277D10120674EF3F
:102E53002BFDEE3AFC90049FE075F064A42DFDE594
:102E6300F03CFCA3E075F00AA42DFFE5F03CFEA3C3
:102E7300E07C002FFFEC3E9004B6F0A3EFF090044B
:102E8300AEE0FF7E007C037DE8120674AA06AB0762
:102E93009004ADE0FF7E007C277D10120674EF2BBB
:102EA300FDEE3AFC9004AFE075F064A42DFDE5F06F
:102EB3003CFCA3E075F00AA42DFFE5F03CFEA3E083
:102EC3007C002FFFEC3EFE9004B8F0A3EFF0D3900C
:102ED30004B7E09FEE6480F89004B6E06480984005
:102EE30050E49004BAF0A3F0900491E0FBA3E0FA5D
:102EF300A3E0F99004BAE0FEA3E0FFF5828E83120B
:102F0300061324D0FD74A52FF58274043EF583EDDA
:102F1300F09004BBE004F070069004BAE004F09073
:102F230004BAE07004A3E0640870BD9004B57401B2
:102F3300F07E007F087D008009E49004B5F0FE7FF9
:102F430008FD90049AE0FBA3E0FAA3E0F9120BACAE
:102F530090049AE0FBA3E0FAA3E0F8AC02AD037B94
:102F6300017A0479A57E007F081205D49004B5E0A8
:102F7300FF227B007A007908900495E4F0A3740F94
:102F8300F0E4FF900491EFF0A3EBF0A3EAF0A3E9E0
:102F9300F07F09127FDF900491E014700302308503
:102FA3001470030231521470030231B2240360031C
:102FB30002320F90049A7401F0A37400F0A374001A
:102FC300F0A37401F0A374F4F0E4FF127FD9E4FFDB
:102FD3001278B2E4900497F0A3F0900495E0FEA376
:102FE300E0FFC3900498E09F900497E09E5037E081
:102FF300FCA3E0FD900492E0FBA3E0FAA3E0F98DCB
:10300300828C83120613FBE4FF125D0E900499EF8A
:10301300F070037F0122900498E004F070BC9004E8
:1030230097E004F080B4E4900497F0A3F090049D3B
:10303300E0FEA3E0FFC3900498E09F900497E09E16
:103043004003023212E0FEA3E0FF2418FDE43EFC3D
:1030530090049AE0FBA3E0FAA3E0F98F828E831237
:103063000613FBE4FF125D0E900499EFF070037FEB
:103073000122900498E004F070B3900497E004F008
:1030830080AB90049AE4F0A37400F0A37408F0A357
:10309300E4F0A3740FF0E4FF127FD9E4FF1278B2D7
:1030A300E4900497F0A3F090049DE0FEA3E0FFC337
:1030B300900498E09F900497E09E5037E0FCA3E0D3
:1030C300FD90049AE0FBA3E0FAA3E0F98D828C83E0
:1030D300120613FBE4FF125D0E900499EFF07003E8
:1030E3007F0122900498E004F070BC900497E00400
:1030F300F080B4E4900497F0A3F0900495E0FEA36D
:10310300E0FFC3900498E09F900497E09E40030281
:103113003212E0FEA3E0FF2418FDE43EFC9004928B
:10312300E0FBA3E0FAA3E0F98F828E83120613FB80
:10313300E4FF125D0E900499EFF070037F0122907B
:103143000498E004F070B3900497E004F080AB7F40
:1031530001127FD9E4FF1278B2E4900497F0A3F050
:10316300900495E0FEA3E0FFC3900498E09F9004D1
:1031730097E09E4003023212E0FCA3E0FD9004922C
:10318300E0FBA3E0FAA3E0F98D828C83120613FB24
:10319300E4FF125D0E900499EFF070037F0122901B
:1031A3000498E004F070B9900497E004F080B17FD4
:1031B30001127FD97F011278B2E4900497F0A3F053
:1031C300900495E0FEA3E0FFC3900498E09F900471
:1031D30097E09E503AE0FCA3E0FD900492E0FBA34D
:1031E300E0FAA3E0F98D828C83120613FB7F0112B0
:1031F3005D0E900499EFF070037F0122900498E034
:1032030004F070BC900497E004F080B47F01227F47
:10321300002290046EEBF0A3EAF0A3E9F0A3EDF033
:10322300E4A3F0A3F090047EF0A374FFF0E4900411
:1032330072F0900472E0FFC394647480948040033E
:1032430002332B75F005EFA42404F582E5F0340076
:10325300F583E0F470030233227E007F087DFF7B59
:10326300017A047976120BAC900472E075F005A430
:103273002400F9740035F0FA7B01C003900494EB49
:10328300F0A37404F0A37476F0D0031258309004C2
:103293007EEFF0E4900474F090047EE0FF900474F9
:1032A300E02FFFE433FE900471E0FDD3EF9D7480C3
:1032B300F86E98505EE4900475F090047EE0FF9001
:1032C3000475E0FEC39F5037EEFF900474E02FFFB8
:1032D300E433FE90046EE0FBA3E0FAA3E0F98F82EF
:1032E3008E83120613FF900475E02476F582E4348E
:1032F30004F583E0B50708900475E004F080BB9003
:10330300047EE0FF900475E06F6008900474E004AD
:10331300F0808590047EE0FF900475E06F60099073
:103323000472E004F0023235900472E0FFC3946447
:1033330074809480500122E4900490F0FE7F087D15
:10334300FF7B017A047980120BAC9004947401F032
:10335300A37404F0A37480F07B017A0079001258FF
:103363003090047EEFF0E4900472F0900472E0FF7A
:10337300C3940874809480507574802FF582E4346C
:1033830004F583E0F4900472700EE02480F582E487
:103393003404F583E4F0800EE02480F582E4340401
:1033A300F583E02430F090046EE0FBA3E0FAA3E0A1
:1033B300F9900472E0FFF582758300120613FEF4A0
:1033C300700E74762FF582E43404F583E4F08015EF
:1033D300900472E0FFEE2430FE74762FF582E4341D
:1033E30004F583EEF0900472E004F002336E90046F
:1033F300947401F0A37404F0A37480F0A3E4F0A325
:103403007400F0A3740FF0A37401F0A37404F0A389
:103413007488F07B017A047976122C70900490EF13
:10342300F0D39400748094804019780F7C007D0061
:103433007B017A0479887E007F081205D4122F75E8
:103443007FFE227FFF22AB07EBC39420748094801E
:10345300500AE47F01FEFDFCA803800BE47F01FE1C
:10346300FDFCEB24E0F9F812082A900469120869BC
:10347300EBC39420748094805003023541759651B8
:10348300900469A3A3A3E0FFEF42977596529004BB
:1034930069E0FCA3E0FDA3E0FEA3E0FF78081208C7
:1034A30017EF4297EBC3942474809480500E9004DA
:1034B30069A3A3A3E0540FFFEF42EA22EBC39426D0
:1034C30074809480501B900469E0FCA3E0FDA3E0AA
:1034D300FEA3E0FF7804120817EF5403FFEF42EB5B
:1034E30022EBFFC3942C748094805037EF642A60DE
:1034F30005EF642B7012900469E0FCA3E0FDA3E0E8
:10350300FEA3E0FF78048010900469E0FCA3E0FDD3
:10351300A3E0FEA3E0FF7806120817EF54CFFFEFF6
:1035230042EC22900469E0FCA3E0FDA3E0FEA3E0EB
:10353300FF780C120817EF540FFFEF42EE22759637
:1035430026900469A3A3A3E0FFEF42977596279003
:103553000469E0FCA3E0FDA3E0FEA3E0FF7808120A
:103563000817EF540FFFEF4297759628900469E010
:10357300FCA3E0FDA3E0FEA3E0FF7810120817EF21
:103583004297759629900469E0FCA3E0FDA3E0FE51
:10359300A3E0FF7818120817AB07EB429790046972
:1035A300E0FCA3E0FDA3E0FEA3E0FF780212082AFB
:1035B300EF54FCFFEF42EB900469E0FCA3E0FDA3B2
:1035C300E0FEA3E0FF7802120817EF5430FFEF424A
:1035D300EC900469E0FCA3E0FDA3E0FEA3E0FF7828
:1035E30004120817EF54F0FFEF42EE900469E0FC79
:1035F300A3E0FDA3E0FEA3E0FF780C120817EF544D
:10360300F0FFEF42EF900469E0FCA3E0FDA3E0FECE
:10361300A3E0FF7814120817EF540FFFEF42F2EB09
:1036230042F72290046BEFF0E4A3F0A3F012804C76
:10363300A3EFF0647070081280527F2F0237AD90B1
:10364300046EE0646070057F0112804990046EE0AF
:10365300FF7E006401600DEF64326008EF64336045
:10366300030237B0EF64544E700B127FFDEF640713
:1036730060030237B0128052127CD7EF64017005E9
:103683007F2E0237AD90046EE0645470379005AA24
:10369300E0FF1267E990046CEFF060030237B0902B
:1036A30005AAE0700302376012783C90046CEFF0D7
:1036B300700A7D017F07126C480237947FD3127022
:1036C300610237947B017A04796D126F0690046C62
:1036D300EFF0706C90046EE0640170057F040248A3
:1036E300F890046EE0643270057F190237AD9004E0
:1036F3006EE0643360030237B09005AAE0FF1267FF
:10370300E990046CEFF070349005AAE07002804DEC
:1037130012783C90046CEFF0701BA3E0FF125F5A29
:1037230090046CEFF070047F0580027F6E1270616D
:10373300127F2F80057FD312706180557F7A806A54
:1037430090046EE0643270539005AAE0FF1267E9BB
:1037530090046CEFF070409005AAE0700C7F181293
:1037630070619005AA7401F02212783C90046CEF0A
:10377300F07019FF127C9D90046CEFF070047F05CC
:1037830080027F6E127061127F2580057FD31270D5
:1037930061E49005AAF0227F7A800F90046EE064C2
:1037A3000170057F0402668D7F8012706122EFB481
:1037B300070040030239289037C1F82828730237DD
:1037C300D60237FD02382302386E0238BC0238DFD6
:1037D300023902EB7009ED42EA759617023877EB6E
:1037E30064017009ED42EA75961702391BEB640216
:1037F3006003023928EDF452EA22EB7008ED42EB44
:10380300759618806FEB64017009ED42EB7596189D
:1038130002391BEB64026003023928EDF452EB22F8
:10382300EB7008ED42EC7596198049EB6401700961
:10383300ED42EC75961902391BEB64027015EDF439
:1038430052ECED54307003023928759625C4540F99
:1038530002390CEB64036003023928EDF452EC7572
:103863009625ED5430C4540F429722EB700AED4273
:10387300EE75961BED02390CEB64017009ED42EE17
:1038830075961B02391BEB64027015EDF452EEEDD5
:10389300543070030239287596251313543F8069F9
:1038A300EB64036003023928EDF452EE759625EDBF
:1038B30054301313543F429722EB7009ED42EF75D6
:1038C300961CED8044EB64017008ED42EF75961C85
:1038D3008046EB6402704EEDF452EF22EB7009ED7B
:1038E30042F275961DED8021EB64017008ED42F202
:1038F30075961D8023EB6402702BEDF452F222EBDC
:10390300700BED42F775961EEDF4529722EB6401AE
:10391300700AED42F775961EED429722EB64027032
:1039230004EDF452F7229004F6120869E4FFFE7DD9
:10393300807C3F9004F6E0F8A3E0F9A3E0FAA3E06B
:10394300FB1202B470069004F6023A839004F6E088
:10395300FCA3E0FDA3E0FEA3E0FF1203ECFBA3E066
:10396300FCA3E0FDA3E0FEA3E0FF1203ECFFB40120
:1039730008E4FFFE7D807C3F22EF64046029EB6452
:10398300046024EBB40130E4FFFEFDFC9004FAE094
:10399300F8A3E0F9A3E0FAA3E0FB1202B460084045
:1039A30006E4FFFEFDFC229004FA120875FFFFFFF8
:1039B300FF9004FA023A83E49004FEF0A3F0FFFEC2
:1039C300FDFC9004F6E0F8A3E0F9A3E0FAA3E0FB22
:1039D3001202B4505F9004FAE0FCA3E0FDA3E0FE02
:1039E300A3E0FF12036B9004FEEEF0A3EFF0FDCC17
:1039F300EECCEC120332C8ECC8C9EDC9CAEECACB8F
:103A0300EFCB9004FAE0FCA3E0FDA3E0FEA3E0FF0C
:103A13001200B9E4FBFAF9F81202B4708A9004F6C2
:103A2300E0FCA3E0FDA3E0FEA3E0FF120406900484
:103A3300F61208699004F6E0FCA3E0FDA3E0FEA300
:103A4300E0FF123D499004FAE0F8A3E0F9A3E0FA9D
:103A5300A3E0FB1201AE1251D09004FA1208699050
:103A630004FFE030E0179004FAE0FCA3E0FDA3E0DC
:103A7300FEA3E0FF1204069004FA1208699004FA08
:103A8300E0FCA3E0FDA3E0FEA3E0FF2212804C9044
:103A93000505EFF09003947401F0900385E0640151
:103AA3007030900389E004F07006900388E004F01E
:103AB300900391E0FEA3E0FFC3900389E09F90038E
:103AC30088E09E400D9003857402F0E4900388F033
:103AD300A3F0900390E06401701B900393E004F063
:103AE300E0C3940A74809480400B9003907402F0B6
:103AF300E4900393F0900395E0D394007480948052
:103B0300402A900380E004F0700690037FE004F005
:103B130090037FE0FEA3E0FFE4FCFD7B587A02F90B
:103B2300F8D31207F05005E4900395F0126974EF8F
:103B33007003023BD5900505E0FF64617003023B0F
:103B4300D5EF64607003023BD5900385E064017098
:103B530003023BD5127646EF7078127CB1EF707298
:103B6300900506F0900387E004F07006900386E06A
:103B730004F0900505E0FF64126028EF64136023EE
:103B8300EF6441601EEF64436019EF64446014EF17
:103B93006422600FEF6423600AEF64326005EF6410
:103BA300337011D3900387E094C8900386E09400A8
:103BB3004017800FD3900387E09464900386E094CA
:103BC3000040069005067401F0900506E0600A02C5
:103BD30062B8E4900386F0A3F0227B007A007908B0
:103BE30090046DE4F0A3740FF0E4FF123F65AF0897
:103BF300EF64016008EF64026003023C8DE490040B
:103C030068F07B017A00790090046D04F0A374F4EA
:103C1300F07F01123F657B017A0179F490046DE432
:103C2300F0A3743CF07F02123F657B017A02793482
:103C330090046DE4F0A3748CF07F03123F65D3E529
:103C43000B9400748094805003023D14900468E048
:103C5300FFFD7C00C3946474809480501A75F00552
:103C6300EFA42404F582E5F03400F583E0600890C6
:103C73000468E004F080D5C3ED9464EC6480948020
:103C83005003023D14E4F50B807C7E017FF47DFF3D
:103C93007B017A007900120BAC7B017A00790090EA
:103CA30004957401F0A374F4F07F01122F867E0053
:103CB3007F3C7DFF7B017A0179F4120BAC7B017AA7
:103CC3000179F4900495E4F0A3743CF07F02122F81
:103CD300861200167E007F8C7DFF7B017A02793489
:103CE300120BAC7B017A027934900495E4F0A3744F
:103CF3008CF07F03122F86750801750901E4F50A1C
:103D0300F50BF50CF50DFB7A007908900495122F4D
:103D13007F223E9248DA3ECCCCCD3F2AAAAB40006C
:103D230000003F8000003F9837F03FB504F33FD7D2
:103D330044FC3E3172173EB172173F0515913EDECA
:103D43005BD9D2048002C204EDD2E7F8CD33EC3361
:103D530004700BBD800592D50203E10203D740FB3B
:103D6300D31460F2F5F07C3FEE7A00C39496C894C6
:103D73008B40230AC89469C8941A401A0AC89468E5
:103D8300C8941F40110AC8945AC89425400805F0E6
:103D93007A00CDC2E7CDC0F0900500120869EA238E
:103DA30023C0E02425F582E4343DF583120859123B
:103DB30000BDECC0E0EDC0E0EEC0E0EFC0E01208F3
:103DC3003D90050012084D1200B9D0E0FBD0E0FA97
:103DD300D0E0F9D0E0B2E7F812041A900500120817
:103DE30069903D1574031204B790050012084D1233
:103DF30001AED0E0600F2431F582E4343DF5831247
:103E030008591200BD900500120869D0E0C3947FE1
:103E1300FDE49400FC1203327B187A727931783F07
:103E23001201AE90050012084D1200BD30040B7B49
:103E3300D97A5B79DE783E1201AE227D037FE87E7C
:103E43000390047DEEF0A3EFF0A3EDF0E4A3F0A361
:103E5300F0FE7F14FD7B017A067995120BAC90047A
:103E63007D74FFF5F01206BC45F07003023F627FDC
:103E7300017E001275B490047FE02409FFE433FE51
:103E830090068FE0C39FEE6480F874809840CFE47F
:103E9300900480F090068FE0FF900480E0FEC39FC3
:103EA300501774752EF582E43406F583E064EF60F1
:103EB30008900480E004F080DB900480E0FF247528
:103EC300F582E43406F583E064EF709274762FF59F
:103ED30082E43406F583E064017083900480E0FD9E
:103EE300247BF582E43406F583E064076003023E35
:103EF30061747C2DF582E43406F583E0FE747D2D38
:103F0300F582E43406F583E07C002400FFEC3EFEFA
:103F130090047FE06F7001EE6003023E6190068FB4
:103F2300E0FF900480E0FEC39F502974752EF58254
:103F3300E43406F583E0FF900481E02495F582E400
:103F43003406F583EFF0900481E004F0900480E000
:103F530004F080C9E490068FF090069EE0FF227F74
:103F6300012290046AEBF0A3EAF0A3E9F0EF1460F6
:103F73006514700302403214700302405C24036032
:103F830003024087E4FF127FD9E490046FF0A3F0AB
:103F930090046DE0FEA3E0FFA3E0FCA3E0FDC39F5C
:103FA300EC9E4003024087E4FF1277C190046AE06D
:103FB300FBA3E0FAA3E0F990046FE0FCA3E0F58231
:103FC3008C83EF120652900470E004F070C29004E8
:103FD3006FE004F080BAE4FF127FD9E490046FF03D
:103FE300A3F090046DE0FEA3E0FFA3E0FCA3E0FDDB
:103FF300C39FEC9E4003024087ED2418FDE43CFC84
:10400300E4FF1277C190046AE0FBA3E0FAA3E0F9AE
:1040130090046FE0FCA3E0F5828C83EF12065290CC
:104023000470E004F070BB90046FE004F080B37F91
:1040330001127FD990046AE0FBA3E0FAA3E0F9E45C
:10404300900475F0A3F090046DE0FFA3E090047773
:10405300CFF0A3EFF0E4FD80287F01127FD9900415
:104063006AE0FBA3E0FAA3E0F9E4900475F0A3F09F
:1040730090046DE0FFA3E0900477CFF0A3EFF07D11
:104083000112572822900471EBF0A3EAF0A3E9F0A0
:10409300A3EDF0D39400748094805003024126C2B0
:1040A300AF12745C7F5012558BE4900479F0900446
:1040B30074E0FF900479E0FEC39F501F900471E009
:1040C300FBA3E0FAA3E0F98E82758300120613FFC7
:1040D30012558B900479E004F080D37F5112558BF5
:1040E300E4900479F0900478E0FFA3E0C39F50319B
:1040F300126572900475E0FBA3E0FAA3E0F9900463
:1041030079E0FEF582758300EF120652900478E0A1
:10411300146E605AE4FF1274CD900479E004F080C9
:10412300C4804BC2AF12745C7F5112558BE4900470
:1041330079F0900478E0FFA3E0C39F5031126572D9
:10414300900475E0FBA3E0FAA3E0F9900479E0FEA4
:10415300F582758300EF120652900478E0146E60C6
:104163000DE4FF1274CD900479E004F080C47F0164
:104173001274CDD2AF1278007F0022E4F990046D5F
:10418300F0A3F0FEEEC3940C74809480506074FA34
:104193002EF582E43403F583E06050EE25E0242B12
:1041A300F582E43404F583E0FCA3E0FDEE25E0248E
:1041B300E2F582E43403F583E0FAA3E0C39DFDEA6C
:1041C3009CFC90046BF0A3EDF0D390046EE09DECA7
:1041D3006480F890046DE0648098500F90046BE065
:1041E300FDA3E0A3CDF0A3EDF0A9060E8096900405
:1041F3001EE069606FE0FE25E0242BF582E43404C1
:10420300F583E0FCA3E0FDEE25E024E2F582E4344F
:1042130003F583E0FAA3E0C39DFEEA9C90046BF0F0
:10422300A3CEF090046BE0FEA3E0FFC390046EE026
:104233009FFF90046DE09EFE90046BF0A3EFF0E906
:1042430025E0240BF582E43481F583E493FC7401C7
:1042530093FDD3EF9DEC6480F8EE64809840059065
:10426300041EE9F0AF012290046EEBF0A3EAF0A381
:10427300E9F0A3EDF0E4900473F090047874FFF098
:104283007E007F04FD7B017A047974120BAC9004E9
:1042930071E0FD90047D7401F0A37404F0A37474C1
:1042A300F090046E125B25E4FFEFC3946474809472
:1042B30080506475F005EFA42404F582E5F0340022
:1042C300F583E0F4604EE4900473F0900473E0FD32
:1042D3007C00C39404748094805033E0FE75F00531
:1042E300EFA42400F582E5F03400F583E5822EF592
:1042F30082E43583F583E0FB74742EF582E43404A1
:10430300F583E0B50308900473E004F080BDED6429
:10431300044C60030F8092EFC394647480948050C4
:104323002675F005EFA42404F582E5F03400F58347
:10433300E0FE900472E0FDEE6D6005ED640370072E
:10434300900478EFF0800690047874FFF09004787E
:10435300E0FF2290065DE064017071A3E0700D7DC3
:10436300047F05126E8B7D01E4FF800C90065EE0F6
:10437300640270097D047F05126C03800F90065E52
:10438300E0C39404748094804002B2F890065EE027
:1043930004F0900674E025E0FFE433FEEF2406FF0B
:1043A300E43EFE90065EE0C39FEE6480F87480985E
:1043B3005003024439E4F07D047F05126C037D0150
:1043C300E4FF126C0390065D7404F02290065DE036
:1043D3006403704BA3E070057D01FF801D90065EB2
:1043E300E0640170097D047F05126E8B800F9006D7
:1043F3005EE0640370077D047F05126C0390065E24
:10440300E004F0E0C39404748094804029E4F07DD8
:10441300047F05126C037D01E4FF126C038011908D
:10442300065DE06404700F7D02FF125930EF7006E1
:1044330090065D7402F02290046EEBF0A3EAF0A301
:10444300E9F0A3EDF0E4900473F0900472E0FF7ED2
:10445300007004A3F0803CEF64024E700790047375
:1044630004F0802F9004737402F0900473E0FFC390
:10447300946474809480501B75F005EFA42404F5B4
:1044830082E5F03400F583E0F46008900473E004FF
:10449300F080D7900473E0C3946474809480507563
:1044A3007E007F047DFF7B017A047974120BAC904C
:1044B3000471E0FD90047D7401F0A37404F0A3740F
:1044C30074F090046E125B25900473E075F005A4FC
:1044D3002400F9740035F0A801FC7D017B017A0406
:1044E30079747E007F041205D4900472E0FFA3E088
:1044F30075F005A42404F582E5F03400F583EFF0AC
:104503007B017A0079009004957401F0A374F4F0B0
:104513007F01022F867F0122900470EFF0E4900464
:1045230073F0900694E06F70030245F2126A63EF32
:10453300640170030245F27F011280317F077E0020
:1045430012787C7F41128034900470E0606824FE0E
:1045530060261460422402707B7F011279717F010F
:10456300127971E4FF1279717F501279719004719D
:10457300E4F0A3749BF0805C7F011279717F0212D7
:1045830079717F02127971E4FF127971900471E4F9
:10459300F0A3744EF0803D7F011279717F0412798C
:1045A300717F04127971E4FF127971900471E4F060
:1045B300A37452F0801E7F04127971E4FF127971A3
:1045C300E4FF1279717FC81279719004717401F05C
:1045D300A37415F0900471E0FEA3E0FF126CF812CF
:1045E3003E3E900473EFF0900470E0900694F02246
:1045F3009004F6EBF0A3EAF0A3E9F0E49004FEF0F4
:10460300A3F0D39004FDE094009004FCE064809454
:104613008050030246AC9004F6E0FBA3E0FAA3E06B
:10462300F99004FEE0FEA3E0F5828E831206136088
:10463300109004FFE004F070DD9004FEE004F080CD
:10464300D59004F9E0FBA3E0FAA3E0F91205FA60C0
:104653003E9004F9A3E475F0011206D2A9F0FA1210
:1046630005FAFF9004F6E0FBA3E0FAA3E0F9900457
:10467300FEE475F0011206D285F082F583EF12068F
:10468300529004FC74FFF5F01206BC45F070B29032
:1046930004F6E0FBA3E0FAA3E0F99004FEE0FEA336
:1046A300E0F5828E83E41206529004F6E0FBA3E069
:1046B300FAA3E0F922E490046CF0C20112001EE4B4
:1046C30090046BF090046BE0C3940C74809480406E
:1046D3000302477130030343AD10200005759107B2
:1046E30080F8C200AFACEFFEADABEDFF90046BE022
:1046F300FD25E0242BF582E43404F583EEF0A3EFEB
:10470300F0EDC3940B74809480502DED25E024CC00
:10471300F582E43403F583E0FEA3E0F5CA53CC7FCE
:10472300EE5401C313E41342CC53CCC0ED908095F7
:1047330093543F42CC75C90190046BE0FF12260EDF
:1047430090046BE0FF124E7D90046BE0FF1260B0AB
:1047530030010F90041EE0F4700890046BE09004A5
:104763001EF020021290046BE004F00246C7200101
:104773000690041E74FFF022C20120046D90808E07
:10478300E493FD700D90815193C313FF7401931350
:10479300801575F002EDA4244FF582E5F03481F520
:1047A30083E493FF740193900469CFF0A3EFF0E4E3
:1047B300900468F0900468E0C3940C748094805073
:1047C30071E0FF24FAF582E43403F583E4F0C205D3
:1047D300900469E0FDA3E090046CCDF0A3EDF0122A
:1047E3002282900468E004F080CA908091E493FDF3
:1047F300700D90815193C313FF740193138015754A
:10480300F002EDA4244FF582E5F03481F583E493BF
:10481300FF740193900469CFF0A3EFF0D2059004E5
:1048230069E0FFA3E090046CCFF0A3EFF0E4FF1284
:10483300228290041E74FFF02290048EEBF0A3EA10
:10484300F0A3E9F0E4900495F07F2EFE127C8953E7
:10485300FBFDE4F5FAF5FE7596585397EF53FBEF1E
:1048630043FC40FF900494E0FEEFC39E5064E4A336
:10487300F074FFFDFCED1DAA0470011C4A6029E5DC
:10488300FB30E4F1E5FB548070EB90048EE0FBA376
:10489300E0FAA3E0F98F82758300E5FA120652531A
:1048A300FBEF9004957401F053FB7F53FBDFE5FEB0
:1048B300601D90048EE0FBA3E0FAA3E0F98F8275FC
:1048C3008300E5FA12065290049574ACF080030F4E
:1048D300809253FCBF43FB02900495E064AC700FDD
:1048E300900491E0FBA3E0FAA3E0F9EF12064090F5
:1048F3000495E0FF22900470EFF0128073EF6401DF
:10490300702F900470E0FF54107026EF640860214C
:104913007F08127061900470E024FE600E24FE6034
:104923000D240360030249B202801502801B02803A
:1049330021E4900395F0128067EF640170319004D5
:1049430070E0FFFD64086027EF54107022EDF4FF60
:10495300E4F4FE90038FE0FDFBEF5B6004E4F08082
:104963000E900470E04D90038FF07F4B0270617FD7
:10497300521280491280767BFF7A7C795F7F037EB7
:1049830000126B76900470E014601814601824FE13
:10499300601724FC601624F66006047012027DB3CF
:1049A300027DC302800302800902800F12808222EB
:1049B30053CCBFA204E433C43333544042CC300459
:1049C30003024A6BE490046DF090071DE0FF90042E
:1049D3006DE0C39F4003024A6BE0FF75F002A4241D
:1049E300CAF582E5F03403F583E0FCA3E0FDEF9024
:1049F300809493FF1271A590046DE0FD75F002A4FD
:104A0300242BF582E5F03404F583EEF0A3EFF07583
:104A1300F002EDA4242BF582E5F03404F583E0FEE7
:104A2300A3E0FF75F002EDA424E2F582E5F0340380
:104A3300F583EEF0A3EFF075F002EDA4242BF582DD
:104A4300E5F03404F583E0FEA3E0FF75F002EDA486
:104A53002406F582E5F03404F583EEF0A3EFF0903D
:104A6300046DE004F00249CC22900475EBF0A3EA54
:104A7300F0A3E9F090047CEFF0A37470F0E4FF90EE
:104A8300047BE0FEEFC39E5023900475E0FBA3E09C
:104A9300FAA3E0F98F82758300120613FE747E2F4A
:104AA300F582E43404F583EEF00F80D37B017A04BE
:104AB300797C90047BE0240290048CF07F01126ED9
:104AC3004D90047BE0FC247EF582E43404F583EF0F
:104AD300F0EEFF747F2CF582E43404F583EFF07B72
:104AE300017A04797C90047BE02404FD124C80EF6E
:104AF300640160037F01229004917401F0A37404A4
:104B0300F0A3747CF0A37403F0900478E0FBA3E0BB
:104B1300FAA3E0F912483CEF64017F0060027F01D1
:104B23002290046BEBF0A3EAF0A3E9F0786E7C0427
:104B33007D017BFF7A81796B7E007F061205D47538
:104B430096585397FB7B017A04796E126AE7EF60FC
:104B5300037F012290046EE054C0C4131354037501
:104B6300F003A42404640460037F01227B017A041C
:104B7300796E7D017F931250FCEF60037F012290D9
:104B8300046BE0FBA3E0FAA3E0F8AC02AD037B0106
:104B93007A04796E7E007F051205D490047874013F
:104BA300F0A37404F0A3746EF0A37405F090046B87
:104BB300E0FBA3E0FAA3E0F97F93124A6CEF6003F2
:104BC3007F012290046EE054247F017001FF227B59
:104BD30001E0FCA3E0FD9004F6EBF0A3EAF0A3E907
:104BE300F0A3ECF0A3EDF0E4A3F0A3F09004FB74C6
:104BF30013F09004FBE0FD7C00C3940A748094805E
:104C0300407A9004F9E0FEA3E0FF120686AF059018
:104C130004FDEFF0D39409748094804004E024F6FB
:104C2300F09004FDE0FF9004FCE0FD9004F6E0FB4F
:104C3300A3E0FAA3E0F9127028EF60149004FDE0FA
:104C430004F0E0D394097480948040D5E4F080D1DB
:104C53009004FDE0FF9004F6E0FBA3E0FAA3E0F983
:104C63009004FCE0F582758300EF1206529004FC79
:104C7300E004F09004FBE014F0024BF52290048E64
:104C8300EBF0A3EAF0A3E9F0A3EDF0759658539780
:104C9300FDE060046401702390048EE0FBA3E0FA5E
:104CA300A3E0F91205FAF5F953FCC1900491E0FF72
:104CB30025E0543E42FC43FC01806B90048EE0FBF4
:104CC300A3E0FAA3E0F91205FAF5F9900001120640
:104CD30013F5FA53FCC1900491E0FF25E0543E42E2
:104CE300FC43FC011279427D02900491E0FEEDC386
:104CF3009E5033ED90048E30E014E0FBA3E0FAA362
:104D0300E0F98D82758300120613F5FA8012E0FB39
:104D1300A3E0FAA3E0F98D82758300120613F5F977
:104D23001279420D80C31279422290046FEBF0A3F3
:104D3300EAF0A3E9F0E4FFFEEFC3940A74809480E1
:104D43005015EF75F00EA42434F582E43402F58394
:104D5300E0F460030F80E1EFC3940A748094805001
:104D630070EF75F00EA42434F582E43402F583EF7A
:104D7300F075F00EA42435F582E43402F583EDF0EA
:104D8300E4FEEEC3940C74809480503190046FE081
:104D9300FBA3E0FAA3E0F98E82758300120613FDEC
:104DA300EF75F00EA42436F582E43402F583E58230
:104DB3002EF582E43583F583EDF00E80C57B017A11
:104DC300027934900495E4F0A3748CF07F03022FEE
:104DD300867F012290065DE064026003024E797DC6
:104DE30002FF125930EF64016003024E79900660AE
:104DF300E07013900674F0127F8290065F7401F0E6
:104E0300E490065DF022E4900504F090065D04F062
:104E1300900660E0900674F0E4900504F0900504B9
:104E2300E0FF3395E0FEC3EF9413EE64809480506B
:104E33002B74612FF58274063EF583E0FF601D90AD
:104E43000504E0FD3395E0FC74602DF58274063CA7
:104E5300F583EFF0900504E004F080C1900504E0D1
:104E6300FF3395E0FE74602FF58274063EF583E40C
:104E7300F090065EF0221243562274962FF582E4D8
:104E83003403F583E0704974432FF582E43404F569
:104E930083E4F074BE2FF582E43403F583E004F079
:104EA30074BE2FF582E43403F583E0FE908150E471
:104EB30093FDEED39D406474BE2FF582E43403F575
:104EC30083E4F074FA2FF582E43403F583E4F022EB
:104ED30074BE2FF582E43403F583E4F074432FF5B5
:104EE30082E43404F583E004F074432FF582E43460
:104EF30004F583E0FE90814FE493FDEED39D401BC8
:104F030074432FF582E43404F583E4F074FA2FF547
:104F130082E43403F5837401F0D201229004741205
:104F23006A55EF640170037FFF227F011280317F96
:104F3300087E0012787C7F04128034900474E0FFB2
:104F4300127971900475E0FF127971900475A3E0F2
:104F5300FF127971900477E0FF127971900477A3BF
:104F6300E0FF127971900475E0FCA3E0FDECFF7E95
:104F730000900474E0240DFBE433CB2FFFEE3BFEE3
:104F83007C00EF2DFDEC3E900477126CE27D07125E
:104F93003E4090047CEFF090069FE0FEA3E07C008F
:104FA3002400FFEC3EF9900479E0FBA3E0FAA3E0D0
:104FB300C98FF01206E890047CE0FF229004687425
:104FC300FFF0A3F0127DF1EF64017020127EBFEFBA
:104FD300701A127D41EF700F9005A9E0700E04F076
:104FE3007F0212766A8005E49005A9F0128046904C
:104FF3000468EFF0F4601EE0FF126382900469EF2F
:10500300F0F46011E0651B600FE0FBF51BE4FDFFAE
:1050130012766D8003751BFF128058EF60057F04C5
:1050230012766A127D52EF6008E4FBFD7F0312766D
:105033006D127E0FEF6008E4FBFD7F0512766D12A3
:10504300781EEF6008E4FBFD7F0112766D127E008F
:10505300EF6008E4FBFD7F0612766D2275962B53F5
:1050630097F8900474E05407429753CDF3A3E025D7
:10507300E025E0540C42CD53CDFDA3E025E05402DE
:1050830042CD53CDFEA3E0540142CD53CBBFA3E0A9
:10509300C43333544042CB53CCBFA3E0C433335463
:1050A3004042CC75962B5397C7A3E0333333543820
:1050B300429753CD8FA3E0C4547042CD53CBC0A3CA
:1050C300E0543F42CB53ADDFA3E0C433542042ADA1
:1050D30075962D5397FDE4F5C953F1DF90047FE0F6
:1050E3006401701153F6DF90047EE0C43354E04250
:1050F300F643E6202253E6DF22900474EFF0A3ED9B
:10510300F0A3EBF0A3EAF0A3E9F078797C047D0146
:105113007BFF7A8179617E007F0A1205D490047443
:10512300E0900483F0A37420F07B017A0479837DFB
:1051330002124C80EF640160037F0122900491749A
:1051430001F0A37404F0A3748DF0A37405F07B0144
:105153007A04798312483CEF64017031FEEEC39404
:105163000574809480502374832EF582E43404F50F
:1051730083E0FD900476E0FBA3E0FAA3E0F98E82DE
:10518300758300ED1206520E80D37F0022EF7F005D
:1051930070027F012233DA929E35B16011377FE5C9
:1051A300FE392184893AAEC3FF3C1D955B3D6358AC
:1051B300473E75FDF03F3172183F800000C2D502B3
:1051C30003E10203D7BD80FA50F30203DEED33ECB3
:1051D300330460F17B3B7AAA79B8783F1201AEEDD4
:1051E30033EC3392D5247B5011A2D570DB500BEDF9
:1051F300448024045004A2D580CEEFFBEEFAEDF9EF
:10520300ECF812036BEFF582F404FC12033712007F
:10521300BDC08290519874091204C6ED33CC33D0CB
:10522300F092D525F0A2D57001C313CC13FD22E46F
:1052330090046BF0A3F0127CC5EF64017002FF22AF
:10524300900639E075F003A42418F582E43406F5DA
:1052530083E0120640900639E0FF75F003A4241999
:10526300F582E43406F583E0900001120652EF75EF
:10527300F003A4241AF582E43406F583E0900002D7
:10528300120652900639E0FF75F003A42418F58244
:10529300E43406F58374FFF0EF75F003A42419F5E5
:1052A30082E43406F58374FFF0EF75F003A4241A47
:1052B300F582E43406F58374FFF0127D1F900639FE
:1052C300EFF07F0122908093E49390071DF0E49028
:1052D3000468F090071DE0FF900468E0FEC39F5050
:1052E30077E0FF25E024B4F582E43480F583E4938A
:1052F300FC740193FD75F002EFA424CAF582E5F076
:105303003403F583ECF0A3EDF0EE90809493FF1259
:105313003449900468E0FF75F002A4242BF582E57C
:10532300F03404F583E4F0A3F075F002EFA424E273
:10533300F582E5F03403F583E4F0A3F075F002EFB2
:10534300A42406F582E5F03404F583E4F0A3F09099
:105353000468E004F00252D622900472EBF0A3EA50
:10536300F0A3E9F0A3EDF0E4FFEFC3940A74809493
:10537300805047E4FEEEC3940C74809480503390C5
:105383000472E0FBA3E0FAA3E0F98E8275830012B6
:105393000613FDEF75F00EA42436F582E43402F50E
:1053A30083E5822EF582E43583F583E0B505030EAC
:1053B30080C3EE640C60030F80AFEFC3940A748064
:1053C3009480501FEF75F00EA42435F582E4340267
:1053D300F583E0FE900475E0FDEE6D6008ED640377
:1053E3007001227FFF22787FE4F6D8FD75812002C9
:1053F30054300264AEE493A3F8E493A34003F6802D
:1054030001F208DFF48029E493A3F85407240CC8BD
:10541300C333C4540F4420C8834004F45680014668
:10542300F6DFE4800B010204081020408090295D20
:10543300E47E019360BCA3FF543F30E509541FFE93
:10544300E493A360010ECF54C025E060A840B8E404
:1054530093A3FAE493A3F8E493A3C8C582C8CAC587
:1054630083CAF0A3C8C582C8CAC583CADFE9DEE719
:1054730080BE7E017FF47DFF7B017A007900120BF1
:10548300AC7B017A0079009004957401F0A374F465
:10549300F07F01122F867E007F3C7DFF7B017A0126
:1054A30079F4120BAC7B017A0179F4900495E4F062
:1054B300A3743CF07F02122F861200167E007F8CAD
:1054C3007DFF7B017A027934120BAC7B017A02797E
:1054D30034900495E4F0A3748CF07F03122F867547
:1054E3000801750901E4F50AF50BF50DFB7A00795E
:1054F30008900495F0A3740FF0E4FF022F86127D49
:1055030073127F571272A21273021274A4126FEFF6
:105513001269C01273627B027D087F051237B17D69
:10552300087F05126C03E4FB7D407F061237B17BD5
:10553300027D107F021237B17D107F02126E8B7BCA
:10554300027D087F021237B17D087F02126E8BE461
:10555300FB7D207F061237B1E4FB7D107F031237FA
:10556300B1E4FB7D207F031237B1E4FB7D407F0371
:105573001237B1E4FB7D807F031237B1127F97129C
:105583007AE512775F027ED590047AEFF0E4A3F018
:1055930090047BE0C394087480948050375390F751
:1055A3007F017E00127C8990047AE030E705439006
:1055B3001080035390EF7F017E00127C8943900893
:1055C3007F017E00127C8990047AE025E0F0A3E05D
:1055D30004F080BC5390F77F017E00127C8943EC7A
:1055E300107F017E00127C894390087F027E0012A7
:1055F3007C89E590A2E492045390F77F017E001228
:105603007C8953ECEF5390EF7F017E00127C89A2DB
:105613000422900470EFF0E024C3F582E43406F52D
:1056230083E024FB602924FE6035246E604124FE60
:105633006047240570537F4E12706112806DEF60D6
:10564300057F25127061E49006C8F0A3F0803A123A
:105653007FE57F1012706112806DEF602C80251240
:105663007FE57F1712706112806DEF601C80157FDC
:1056730077127061127E8D80107F4F1270611280DD
:105683006DEF60057F25127061900470E024C3F50F
:1056930082E43406F583E09006CAF02275962D5312
:1056A30097FE7D087F05126E8B7F057E001275B411
:1056B3007D0A7F06125E7290046DEEF0A3EFF07D1B
:1056C300087F05126C0375962D43970190046DE0D6
:1056D300FCA3E0FDE41203327B677A407953783A06
:1056E3001201AE90046F120869E4FFFE7DA07C3FB7
:1056F30090046FE0F8A3E0F9A3E0FAA3E0FB120241
:10570300B450037F0222E4FFFE7DC87C3F90046F08
:10571300E0F8A3E0F9A3E0FAA3E0FB1202B47F00F0
:1057230050027F0122900471EBF0A3EAF0A3E9F0A9
:10573300ED900476600CE02400FE900475E034469E
:10574300800AE02400FE900475E03444900479F06C
:10575300A3CEF0C2AFE4FDFCD3900478E09D9004A7
:1057630077E09C403A75D288900479E0FAA3E0FB95
:10577300EAF5CEEBF5CF900471E0FBA3E0FAA3E0EA
:10578300F98D828C83E5D412065290047AE004F0FA
:105793007006900479E004F00DBD00010C80B9E4BB
:1057A300F5D2F5CEF5CFD2AF22E4FE900470F0A38C
:1057B3007422F090038BEFF07F147D007B017A025B
:1057C30079C1120BACE490038AF0FE900471E0FF00
:1057D300EEC39F5057EE75F005A424D5F582E4344B
:1057E30002F583E0FF90038BE0FDEF6D703B9004C7
:1057F30070E0FF25E024C1F582E43402F583EEF086
:1058030075F005A424D6F582E43402F583E0FDEFB8
:1058130025E024C2F582E43402F583EDF0900470B0
:10582300E004F090038AE004F00E809F229004913C
:10583300EBF0A3EAF0A3E9F0E4FF900497F0EFC3E1
:105843009404748094805060900491E0FBA3E0FA88
:10585300A3E0F98F82758300120613FEF46049EE0C
:1058630054F0C4540FFD900494E0FBA3E475F001DD
:105873001206D2A9F0FAED120640900497E004F064
:10588300EE540F640F6021EE540FFD900494E0FB7F
:10589300A3E475F0011206D2A9F0FAED12064090C6
:1058A3000497E004F00F8096900497E0FF2253C41E
:1058B300FC53C4F343C40453C4BF43C44053C4CFD1
:1058C30043C43053C47F43C48053C38143C30E5383
:1058D300C38143C30C75963253978343977C759664
:1058E300325397FC4397037596425397FC439702B1
:1058F30075C1FF7596425397F343970475964253C8
:1059030097EF4397107596425397DF1277A17596D9
:105913005343970143F78075962A43974043F740D3
:1059230075962D5397FE75962D43970122EFB40775
:1059330000507590593DF828287302595202595F57
:1059430002596C0259790259860259930259A0E50A
:10595300F85D7F0060027F01AE07804CE5805D7FCC
:105963000060027F01AE07803FE5905D7F0060022B
:105973007F01AE078032E5B05D7F0060027F01AE3C
:10598300078025E5C05D7F0060027F01AE078018B8
:10599300E5C85D7F0060027F01AE07800BE5D85D3F
:1059A3007F0060027F01AE07AF0622125AA990045E
:1059B3006CEFF09006DAE004F070069006D9E0048C
:1059C300F0EF6401701212804CEF64617003127C7B
:1059D3004A7F081248F8804390046CE06402600F29
:1059E300D39006DAE0941E9006D9E0940040341276
:1059F300804CEF64617003127C4A90046CE0640293
:105A030070077F22127061801212804CEF64017064
:105A13000A7F081270617F60128049E49006D9F012
:105A2300A3F0227F01127D9322908085E49390045A
:105A330068F0908086E493900469F0908087E49303
:105A430090046AF0908088E49390046BF0908089CE
:105A5300E49390046CF090808AE49390046DF0904A
:105A6300808DE49390046EF090808EE49390046FA5
:105A7300F090808FE493900470F090808BE4939087
:105A83000471F0A37401F090808CE493900473F09C
:105A930078747C047D017B017A0479687E007F0C35
:105AA3001205D402505F786F7C047D017BFF7A81FD
:105AB300797C7E007F021205D490046D744BF0A3B1
:105AC3007464F07B017A04796D7D021265147F0A98
